:04000000FEEF7FF0A0
:10D65C00120012001200120012001200B88E1200FA
:10D66C00B89E1200000E65EC6EF01200026E0250B5
:10D67C00ADEC6BF0120001C0EFF002C0F0F0120044
:10D68C0001C05EF002C05FF0120001C05CF002C08D
:10D69C005DF0120001C0E9F002C0EAF0120001C016
:10D6AC00EDF002C0EEF0120001C0EBF002C0ECF0A5
:10D6BC0012000250B76E600007F0B6FF120075EC56
:10D6CC006BF001EC71F06CEC6BF01200600E390138
:10D6DC00D96FDB6BDD6B070EDF6FDE6B1200390170
:10D6EC00C06BC16BC26BC36BC46BC56BC66BC76BBA
:10D6FC0012003901A3B785EF6BF088EF6BF0010EC8
:10D70C0089EF6BF0000E1200026E60000BF0B8FF98
:10D71C00600007F0B9FFB89E3901A39F12003901D0
:10D72C00A6B59BEF6BF09EEF6BF0010E9FEF6BF0CD
:10D73C00000E1200016E3901A3A9A7EF6BF0A9EF3F
:10D74C006BF0A1EF6BF0600007F0EAFD1200016EC8
:10D75C003901A6A7B4EF6BF0B6EF6BF0AEEF6BF040
:10D76C00600007F0D2FD1200220E266E000E1A6E1B
:10D77C0020C01BF021C01CF0260E1D6E07EC6DF0B6
:10D78C00120003EC6CF00009D8B4CFEF6BF0D1EFC2
:10D79C006BF0C7EF6BF0B70EA0EC6BF0120003EC64
:10D7AC006CF00009D8B4DDEF6BF0DFEF6BF0D5EF68
:10D7BC006BF0BC0EA0EC6BF0120000EE60F0560E9D
:10D7CC00EE6AE806FDE100EE47F0150EEE6AE8069B
:10D7DC00FDE10001FBEF76F06F00D8FE07F06F0063
:10D7EC00DCFE08F00850036E0750056E03C006F00F
:10D7FC0005C001F006C002F01200016A3901A3A9AC
:10D80C000AEF6CF00CEF6CF016EF6CF03D01F2AB24
:10D81C0012EF6CF014EF6CF016EF6CF0010E016E61
:10D82C0001501200016A3901A6A71FEF6CF021EF1D
:10D83C006CF02BEF6CF03D01DAAB27EF6CF029EFBD
:10D84C006CF02BEF6CF0010E016E0150120008BE53
:10D85C0032EF6CF034EF6CF03AEF6CF007C007F07D
:10D86C0008C008F046EF6CF007C009F008C00AF0D9
:10D87C00091E0A1E094A0A2A09C007F00AC008F044
:10D88C001200230E296E20C02AF02D6A000E2C6E79
:10D89C00346A000E336E2A0E1A6E21C01BF022C0A1
:10D8AC001CF0290E1D6E07EC6DF01AC027F01BC082
:10D8BC0028F020502C24D96EDA6ADF6A27C020F0B9
:10D8CC0028C021F012003D01D46BD66BD86BB00E82
:10D8DC00DA6F800EDB6FDC6BE10EDD6F040EDE6F3A
:10D8EC00DF6BE06BE16BE26B640E016ED60E026EC9
:10D8FC0055EC6BF0660E016ED60E026E5AEC6BF0A8
:10D90C00620E016ED60E026E50EC6BF0506A120075
:10D91C003D01EC6BED6BEE6BEF6BF06BF16BB00EE6
:10D92C00F26F800EF36FF46B670EF56FF66BF76B9F
:10D93C00F86BF96BFA6B5E0E016ED60E026E46EC4E
:10D94C006BF0600E016ED60E026E4BEC6BF05C0E43
:10D95C00016ED60E026E41EC6BF0516A1200036E32
:10D96C0003EC6CF00009D8B4BEEF6CF0C0EF6CF0B7
:10D97C00B6EF6CF0B90EA0EC6BF003EC6CF0000998
:10D98C00D8B4CBEF6CF0CDEF6CF0C3EF6CF0035070
:10D99C00A0EC6BF003EC6CF00009D8B4D8EF6CF091
:10D9AC00DAEF6CF0D0EF6CF00250A0EC6BF01200E0
:10D9BC00026E03EC6CF00009D8B4E7EF6CF0E9EF01
:10D9CC006CF0DFEF6CF0B80EA0EC6BF003EC6CF0CD
:10D9DC000009D8B4F4EF6CF0F6EF6CF0ECEF6CF0EF
:10D9EC00010EA0EC6BF003EC6CF00009D8B401EF65
:10D9FC006DF003EF6DF0F9EF6CF00250A0EC6BF0F2
:10DA0C0012001BC01EF01CC01FF0486A000E476EAF
:10DA1C001CEF6DF01AC00BF01E0E0C6E1DC00DF03D
:10DA2C0060EC75F00B5047260C50482260007BF0E0
:10DA3C00F6FF60007FF0F7FFF86A0800F550000968
:10DA4C00D8A42BEF6DF02DEF6DF010EF6DF047C0FB
:10DA5C001AF048C01BF0120003EC6CF00009D8B4AB
:10DA6C003AEF6DF03CEF6DF032EF6DF0BA0EA0ECCA
:10DA7C006BF07FEC6BF00009D8B447EF6DF049EF19
:10DA8C006DF03FEF6DF055EF6DF07FEC6BF0000932
:10DA9C00D8B453EF6DF055EF6DF04BEF6DF0CBEC60
:10DAAC006FF0630AD8A45DEF6DF05FEF6DF04BEF94
:10DABC006DF0120003EC6CF00009D8B468EF6DF057
:10DACC006AEF6DF060EF6DF0B10EA0EC6BF07FECD7
:10DADC006BF00009D8B475EF6DF077EF6DF06DEF6A
:10DAEC006DF0CBEC6FF0066E7FEC6BF00009D8B4E8
:10DAFC0082EF6DF084EF6DF07AEF6DF0CBEC6FF0A0
:10DB0C00076E0750056E046A06500424026E000E60
:10DB1C000520036E120003500410D8B498EF6DF07A
:10DB2C009AEF6DF0BEEF6DF0010E056EA2EF6DF089
:10DB3C00D89003360436052A04AEA7EF6DF0A9EF92
:10DB4C006DF09EEF6DF00350015C04500258D8A0AC
:10DB5C00B2EF6DF0B4EF6DF0B8EF6DF00350015E05
:10DB6C000450025AD89004320332052EA9EF6DF0FE
:10DB7C0001C001F002C002F01200026E03EC6CF066
:10DB8C000009D8B4CCEF6DF0CEEF6DF0C4EF6DF0B2
:10DB9C00C20EA0EC6BF003EC6CF00009D8B4D9EF1A
:10DBAC006DF0DBEF6DF0D1EF6DF00250A0EC6BF08F
:10DBBC0003EC6CF00009D8B4E6EF6DF0E8EF6DF013
:10DBCC00DEEF6DF0C60EA0EC6BF003EC6CF0000910
:10DBDC00D8B4F3EF6DF0F5EF6DF0EBEF6DF00228CC
:10DBEC00A0EC6BF01200036E03EC6CF00009D8B4DF
:10DBFC0002EF6EF004EF6EF0FAEF6DF0C50EA0ECD4
:10DC0C006BF003EC6CF00009D8B40FEF6EF011EF71
:10DC1C006EF007EF6EF00350A0EC6BF003EC6CF0C1
:10DC2C000009D8B41CEF6EF01EEF6EF014EF6EF01E
:10DC3C00C20EA0EC6BF003EC6CF00009D8B429EF29
:10DC4C006EF02BEF6EF021EF6EF00328A0EC6BF072
:10DC5C001200036E03EC6CF00009D8B438EF6EF0D0
:10DC6C003AEF6EF030EF6EF0C10EA0EC6BF003ECFF
:10DC7C006CF00009D8B445EF6EF047EF6EF03DEF55
:10DC8C006EF00350A0EC6BF003EC6CF00009D8B410
:10DC9C0052EF6EF054EF6EF04AEF6EF0C60EA0EC41
:10DCAC006BF003EC6CF00009D8B45FEF6EF061EF31
:10DCBC006EF057EF6EF00328A0EC6BF01200026EC2
:10DCCC0003EC6CF00009D8B46EEF6EF070EF6EF0F0
:10DCDC0066EF6EF0C10EA0EC6BF003EC6CF000097B
:10DCEC00D8B47BEF6EF07DEF6EF073EF6EF00250F8
:10DCFC00A0EC6BF003EC6CF00009D8B488EF6EF07C
:10DD0C008AEF6EF080EF6EF0C50EA0EC6BF003ECBA
:10DD1C006CF00009D8B495EF6EF097EF6EF08DEFC4
:10DD2C006EF00228A0EC6BF01200036E03EC6CF0AA
:10DD3C000009D8B4A4EF6EF0A6EF6EF09CEF6EF075
:10DD4C00C10EA0EC6BF003EC6CF00009D8B4B1EF91
:10DD5C006EF0B3EF6EF0A9EF6EF003500224A0EC5E
:10DD6C006BF003EC6CF00009D8B4BFEF6EF0C1EFB0
:10DD7C006EF0B7EF6EF0C50EA0EC6BF003EC6CF030
:10DD8C000009D8B4CCEF6EF0CEEF6EF0C4EF6EF0AD
:10DD9C000328A0EC6BF01200066A000E056E03500F
:10DDAC000410D8B4DCEF6EF0DEEF6EF006EF6FF01F
:10DDBC00010E076EE6EF6EF0D89003360436072A94
:10DDCC0004AEEBEF6EF0EDEF6EF0E2EF6EF0D8908C
:10DDDC00053606360350015C04500258D8A0F9EF02
:10DDEC006EF0FBEF6EF000EF6FF00350015E04502D
:10DDFC00025A0580D89004320332072EEDEF6EF0F4
:10DE0C0005C001F006C002F01200046E03EC6CF0C9
:10DE1C000009D8B414EF6FF016EF6FF00CEF6FF041
:10DE2C00C10EA0EC6BF003EC6CF00009D8B421EF40
:10DE3C006FF023EF6FF019EF6FF00450A0EC6BF064
:10DE4C0003EC6CF00009D8B42EEF6FF030EF6FF0EC
:10DE5C0026EF6FF0C50EA0EC6BF003EC6CF0000934
:10DE6C00D8B43BEF6FF03DEF6FF033EF6FF0045031
:10DE7C000224036E0328A0EC6BF012002868276ABA
:10DE8C007CEF6FF087EC6FF0286E0D0E2818D8A47D
:10DE9C0052EF6FF054EF6FF056EF6FF07CEF6FF0C6
:10DEAC002F0E28645CEF6FF05EEF6FF066EF6FF093
:10DEBC00390E286464EF6FF066EF6FF076EF6FF059
:10DECC00C60E206EFC0E216EBAEC6BF0B90E206EF5
:10DEDC00FB0E216EBAEC6BF0276A28687CEF6FF0B2
:10DEEC0027500A0DF3502824D00F276E0D0E28183A
:10DEFC00D8A483EF6FF085EF6FF048EF6FF02750E9
:10DF0C0012000268B0EF6FF095EC6BF00009D8B41A
:10DF1C0092EF6FF094EF6FF0B0EF6FF016EC70F0D3
:10DF2C00026E18EC6CF00009D8B49FEF6FF0A1EF03
:10DF3C006FF0B0EF6FF00250ADEC6BF00D0E0218FD
:10DF4C00D8A4ABEF6FF0ADEF6FF0B0EF6FF00A0E3F
:10DF5C00ADEC6BF02F0E0264B6EF6FF0B8EF6FF014
:10DF6C00C0EF6FF07A0E0264BEEF6FF0C0EF6FF08F
:10DF7C00C9EF6FF00D0E0218D8A4C7EF6FF0C9EF00
:10DF8C006FF08AEF6FF0025012003901A3A7D1EFA6
:10DF9C006FF0D3EF6FF0CBEF6FF0516A3D01F9A743
:10DFAC00DAEF6FF0DCEF6FF0E9EF6FF0518202D82F
:10DFBC00E9EF6FF00500FA6E5E50FD6E5F50FE6E7D
:10DFCC00FF6AFA5012003D01F9A3EFEF6FF0F1EF89
:10DFDC006FF0FEEF6FF0518402D8FEEF6FF005008A
:10DFEC00FA6E5C50FD6E5D50FE6EFF6AFA501200C8
:10DFFC005150D8B404EF70F006EF70F013EF70F0DE
:10E00C0002D813EF70F00500FA6E0001EF51FD6EAF
:10E01C00F051FE6EFF6AFA5012003D01E8511200F9
:10E02C003901A6A51CEF70F01EEF70F016EF70F022
:10E03C00506A3D01E1A725EF70F027EF70F035EF46
:10E04C0070F0508202D835EF70F00500FA6E0001C6
:10E05C00ED51FD6EEE51FE6EFF6AFA5012003D015D
:10E06C00E1A33BEF70F03DEF70F04BEF70F050849C
:10E07C0002D84BEF70F00500FA6E0001EB51FD6E0B
:10E08C00EC51FE6EFF6AFA5012005050D8B451EFAA
:10E09C0070F053EF70F060EF70F002D860EF70F03A
:10E0AC000500FA6E0001E951FD6EEA51FE6EFF6A41
:10E0BC00FA5012003D01D0511200076A03EC6CF0CB
:10E0CC000009D8B46CEF70F06EEF70F064EF70F084
:10E0DC00B80EA0EC6BF003EC6CF00009D8B479EF3F
:10E0EC0070F07BEF70F071EF70F00450A0EC6BF0FF
:10E0FC00A8EF70F003EC6CF00009D8B488EF70F066
:10E10C008AEF70F0A8EF70F007500224056E000E35
:10E11C000320066E600017F0F6FF60001BF0F7FF9F
:10E12C00000EF86E0F0EF76403D00800F55007D000
:10E13C006F00DBFFE9FF6F00DFFFEAFFEF50A0ECA1
:10E14C006BF0072A0450075CD8A0AFEF70F0B1EF6A
:10E15C0070F080EF70F0120003EC6CF00009D8B492
:10E16C00BAEF70F0BCEF70F0B2EF70F0BB0EA0EC39
:10E17C006BF003EC6CF00009D8B4C7EF70F0C9EF8A
:10E18C0070F0BFEF70F0140EA0EC6BF003EC6CF0C1
:10E19C000009D8B4D4EF70F0D6EF70F0CCEF70F07B
:10E1AC00010EA0EC6BF003EC6CF00009D8B4E1EFBD
:10E1BC0070F0E3EF70F0D9EF70F0140EA0EC6BF090
:10E1CC0003EC6CF00009D8B4EEEF70F0F0EF70F0E7
:10E1DC00E6EF70F0030EA0EC6BF003EC6CF00009B2
:10E1EC00D8B4FBEF70F0FDEF70F0F3EF70F0020EAF
:10E1FC00A0EC6BF01200BE6ABD6ABA6ABB6ABC6A5C
:10E20C00070EC66EC268BF0EC36E840EC46EC568A0
:10E21C003A01706B606B2F0E506F070E806FEF0E14
:10E22C00406F716B816B516B416B616B5A6B5B6BAC
:10E23C006A6B6B6B7A6B7B6B826B426B526B180EDF
:10E24C00626F726B4369536963697369070E836FFD
:10E25C0044695469646974690F0E846F0F0EE86F1A
:10E26C00250E106F160E0E6F210E136F0F0E116F01
:10E27C00220E146F170EE56F040EC36F130EE16FB1
:10E28C000C0EDD6F140EE26F120ECA6F0D0E156FB1
:10E29C00130E166F12000550D8B457EF71F059EFEA
:10E2AC0071F061EF71F00550D8A45FEF71F061EF80
:10E2BC0071F066EF71F003503CEC6BF0A6EF71F06F
:10E2CC000550D96EDA6A090ED926DE50DE10D8B4A4
:10E2DC0072EF71F074EF71F08DEF71F00550D96E33
:10E2EC00DA6A090ED9260550E16EE26A020EE126C1
:10E2FC00DE50E65CE650800A0A6EDE50800A0A5850
:10E30C00D8B08BEF71F08DEF71F0A6EF71F0055076
:10E31C00D96EDA6A020ED926DF50066E0550D96E18
:10E32C00DA6ADF500624D96EDA6A60000FF0DFFF7C
:10E33C000550D96EDA6A020ED926DE2A000EDD22CD
:10E34C001200066A02BEAFEF71F0ADEF71F0B5EFDF
:10E35C0071F0016C021ED8B0022A010E066E04BECA
:10E36C00BCEF71F0BAEF71F0C0EF71F0036C041EEA
:10E37C00D8B0042A03500410D8B4C7EF71F0C9EF19
:10E38C0071F0EDEF71F0010E056ED1EF71F0D890D8
:10E39C0003360436052A04AED6EF71F0D8EF71F0CF
:10E3AC00CDEF71F00350015C04500258D8A0E1EF9E
:10E3BC0071F0E3EF71F0E7EF71F00350015E045080
:10E3CC00025AD89004320332052ED8EF71F0065061
:10E3DC00D8B4F3EF71F0F5EF71F0F9EF71F0016C67
:10E3EC00021ED8B0022A01C001F002C002F01200D5
:10E3FC0003EC6CF00009D8B406EF72F008EF72F081
:10E40C00FEEF71F0B40EA0EC6BF0126A7FEC6BF0C7
:10E41C000009D8B414EF72F016EF72F00CEF72F032
:10E42C001250080FD96EDA6ACBEC6FF0DF6E7FEC0E
:10E43C006BF00009D8B425EF72F027EF72F01DEFE6
:10E44C0072F012500D0FD96EDA6ACBEC6FF0DF6EF2
:10E45C0012500D0FD96EDA6ADF50046E0450066E3E
:10E46C00056A1250080FD96EDA6ADF50076E075032
:10E47C000526000E06221250020DF350AC0FD96E79
:10E48C00DA6A600017F0DEFF60001BF0DDFF122A75
:10E49C00040E126454EF72F056EF72F00CEF72F03F
:10E4AC00AC0E1200D5EC6BF0140E65EC6EF0160E83
:10E4BC00176E4F0E166E7B0EE82EFED7162EFCD75F
:10E4CC00172EFAD7000038EC6BF0180E026EA3EC86
:10E4DC0074F01550D96EDA6A040ED926DF50D8B410
:10E4EC007AEF72F07CEF72F091EF72F01E0E026E0A
:10E4FC001E0E2FEC6EF0180E026EA3EC74F01A5078
:10E50C00D8B48BEF72F08DEF72F081EF72F038ECC3
:10E51C006BF0AFEF72F01550D96EDA6ADF50D8B4E9
:10E52C009AEF72F09CEF72F0AFEF72F01E0E026E6B
:10E53C001E0EF9EC6DF0180E026EA3EC74F01A506E
:10E54C00D8B4ABEF72F0ADEF72F0A1EF72F08DEFCB
:10E55C0072F0B2EC70F01200066A04BEBAEF72F000
:10E56C00B8EF72F0C0EF72F0036C041ED8B0042A3E
:10E57C00010E066E02BEC7EF72F0C5EF72F0CDEF62
:10E58C0072F0016C021ED8B0022A010E061A086A3B
:10E59C00000E076E03500410D8B4D7EF72F0D9EF09
:10E5AC0072F001EF73F0010E056EE1EF72F0D8908E
:10E5BC0003360436052A04AEE6EF72F0E8EF72F08B
:10E5CC00DDEF72F0D890073608360350015C04502A
:10E5DC000258D8A0F4EF72F0F6EF72F0FBEF72F085
:10E5EC000350015E0450025A0780D8900432033263
:10E5FC00052EE8EF72F00650D8B407EF73F009EF70
:10E60C0073F00DEF73F0076C081ED8B0082A07C022
:10E61C0001F008C002F01200D5EC6BF0140E65ECA2
:10E62C006EF0100E176E390E166E0E0EE82EFED70B
:10E63C00162EFCD7172EFAD738EC6BF01550D96E76
:10E64C00DA6A030ED926DF50D8B42FEF73F031EF0E
:10E65C0073F04BEF73F0140E026E140E2FEC6EF081
:10E66C0015C002F0A3EC74F01550D96EDA6A020EE4
:10E67C00D926DF50D8B445EF73F047EF73F036EF7F
:10E68C0073F038EC6BF070EF73F01550D96EDA6AEA
:10E69C00010ED926DF50D8B456EF73F058EF73F053
:10E6AC0070EF73F0140E026E140EF9EC6DF015C0D1
:10E6BC0002F0A3EC74F01550D96EDA6A020ED9266A
:10E6CC00DF50D8B46CEF73F06EEF73F05DEF73F056
:10E6DC0047EF73F0B2EC70F01200E50E206EFB0EFB
:10E6EC00216EBAEC6BF0BB0E206EFD0E216EBAECF7
:10E6FC006BF0550E206EFD0E216EBAEC6BF0990E80
:10E70C00206EFD0E216EBAEC6BF0770E206EFD0EB6
:10E71C00216EBAEC6BF0550E206EFD0E216EBAEC2C
:10E72C006BF0BB0E206EFD0E216EBAEC6BF0C60EBC
:10E73C00206EFC0E216EBAEC6BF0370E206EFE0EC6
:10E74C00216EBAEC6BF0DD0E206EFD0E216EBAEC74
:10E75C006BF0C90E206EFC0E216EBAEC6BF0100E35
:10E76C00206EFD0E216EBAEC6BF0E50E206EFB0EEA
:10E77C00216EBAEC6BF0820E206EFB0E216EBAECA1
:10E78C006BF0E50E206EFB0E216EBAEC6BF0330EC7
:10E79C00206EFD0E216EBAEC6BF0ED0E206EFC0EB1
:10E7AC00216EBAEC6BF0E80E206EFE0E216EBAEC08
:10E7BC006BF0BA0E206EFE0E216EBAEC6BF0D10E21
:10E7CC00206EFE0E216EBAEC6BF0E50E206EFB0E89
:10E7DC00216EBAEC6BF0710E206EFE0E216EBAEC4F
:10E7EC006BF0C60E206EFC0E216EBAEC6BF01200B4
:10E7FC00406E40C042F0C7EC6BF0C80E026EFF0ECC
:10E80C00036E080E046E63EC70F0480E016E900EF1
:10E81C008AEC6BF034EC6BF0010E026E000EB5EC72
:10E82C006CF0350E206E770E216EFF0E226E42C0FC
:10E83C0023F0246A47EC6CF02050416E350E026ECA
:10E84C00036A41C004F063EC70F098EF74F0F2ECE2
:10E85C006BF001C03EF002C03FF01B0E3E5CB70EE9
:10E86C003F58D8A03CEF74F03EEF74F098EF74F082
:10E87C004206026A000E016E5FEC6BF089EF74F0D9
:10E88C00C7EC6BF0010E026E000EB5EC6CF0380E9E
:10E89C00026EFF0E036E080E046E63EC70F098EFC0
:10E8AC0074F0010E026E000EB5EC6CF0410E026EAF
:10E8BC00FF0E036E080E046E63EC70F098EF74F0AC
:10E8CC00010E026E000EB5EC6CF0530E026EFF0ED4
:10E8DC00036E080E046E63EC70F098EF74F0010E8A
:10E8EC00026E000EB5EC6CF0350E206E770E216EBC
:10E8FC00FF0E226E42C023F0246A47EC6CF02050CD
:10E90C00416E24EF74F04250000AD8B446EF74F014
:10E91C00010AD8B457EF74F0030AD8B466EF74F058
:10E92C0075EF74F04250D8A49EEF74F0A0EF74F021
:10E93C002DEF74F036EC6BF0120003EC6CF0000968
:10E94C00D8B4ABEF74F0ADEF74F0A3EF74F0870EA6
:10E95C00A0EC6BF0126A000E116E7FEC6BF00009EC
:10E96C00D8B4BBEF74F0BDEF74F0B3EF74F011508A
:10E97C00070FD96EDA6ACBEC6FF0DF6E7FEC6BF0C1
:10E98C000009D8B4CCEF74F0CEEF74F0C4EF74F08F
:10E99C0011500C0FD96EDA6ACBEC6FF0DF6E1150A0
:10E9AC000C0FD96EDA6ADF50036E0350056E046AE1
:10E9BC001150070FD96EDA6ADF50066E0650042626
:10E9CC00000E05221150020DF3509D0FD96EDA6A1C
:10E9DC00600013F0DEFF600017F0DDFF114A122A11
:10E9EC0012BE02EF75F0125009E1050E115CD8A0B1
:10E9FC0002EF75F004EF75F0B3EF74F0146A000ECB
:10EA0C00136E020E13181410D8A40FEF75F011EF3B
:10EA1C0075F030EF75F01350020DF3509D0FD96E59
:10EA2C00DA6A010EDB5009E1C80EDE5CD8A021EFDA
:10EA3C0075F023EF75F02BEF75F002501324D96E9F
:10EA4C00DA6A010EDF6E30EF75F002501324D96EC6
:10EA5C00DA6ADF6A1350020DF3509D0FD96EDA6A31
:10EA6C00E80EDE1807E1030EDE18D8A440EF75F0AF
:10EA7C0042EF75F04AEF75F002501324D96EDA6A42
:10EA8C00010EDF6E4FEF75F002501324D96EDA6A67
:10EA9C00DF6A134A142A14BE5DEF75F0145009E1B5
:10EAAC00050E135CD8A05DEF75F05FEF75F007EF06
:10EABC0075F01200126A000E116E0C50D96EDA6AE3
:10EACC006F007BFFF6FF6F0077FFF7FFF86A080017
:10EADC00F550250AD8A475EF75F077EF75F0DFEFD8
:10EAEC0076F00C50D96EDA6ADE2A000EDD224A6A04
:10EAFC00000E496E49C04FF04B684C680C50D96EF3
:10EB0C00DA6A6F0078FF13F06F0074FF14F0600086
:10EB1C004FF0F6FF600053F0F7FFF86A0800F5506D
:10EB2C00640AD8B49CEF75F09EEF75F0AFEF75F0FA
:10EB3C0060004FF0F6FF600053F0F7FFF86A080032
:10EB4C00F550690AD8A4ADEF75F0AFEF75F047EF4B
:10EB5C0076F00D50D96EDA6A020EDF26DF5CD96EC4
:10EB6C00DA6A6F0078FF15F06F0078FF16F0010E6F
:10EB7C0013240E6E000E14200F6E0C50D96EDA6A30
:10EB8C0060003BF0DEFF60003FF0DDFF200E196EF1
:10EB9C0016BED3EF75F0D6EF75F0010ED7EF75F00A
:10EBAC00000E106E19061950600FD96EDA6A15C076
:10EBBC0001F016C002F0046A0A0E036EA7EC71F0A5
:10EBCC0001C007F002C008F02DEC6CF00750300FBC
:10EBDC00DF6E15C001F016C002F0046A0A0E036E57
:10EBEC00B2EC72F001C015F002C016F0114A122AF4
:10EBFC0015501610D8B405EF76F007EF76F00FEF3E
:10EC0C0076F01950D8A40DEF76F00FEF76F0D8EF20
:10EC1C0075F01950D8B415EF76F017EF76F038EF91
:10EC2C0076F01050D8B41DEF76F01FEF76F038EF79
:10EC3C0076F019061950600FD96EDA6A2D0EDF6E58
:10EC4C00114A122A38EF76F01950600FD96EDA6A31
:10EC5C00DF500E6E0E50036E046A0BC005F051ECC3
:10EC6C0071F0192A200E1918D8A43FEF76F041EF55
:10EC7C0076F02AEF76F011C00BF012C00CF0FAEF20
:10EC8C0076F060004FF0F6FF600053F0F7FFF86A83
:10EC9C000800F550750AD8A456EF76F058EF76F0C8
:10ECAC00D4EF76F00D50D96EDA6A020EDF26DF5CF7
:10ECBC00D96EDA6A6F0078FF15F06F0078FF16F0E6
:10ECCC00010E13240E6E000E14200F6E0C50D96E14
:10ECDC00DA6A60003BF0DEFF60003FF0DDFFC5EF5D
:10ECEC0076F0200E196E19061950600FD96EDA6A7B
:10ECFC0015C001F016C002F0046A0A0E036E91EC06
:10ED0C006DF00150300FDF6E15C001F016C002F02F
:10ED1C00046A0A0E036ED2EC6EF001C015F002C04C
:10ED2C0016F0114A122A15501610D8B4A0EF76F02E
:10ED3C00A2EF76F0BAEF76F01950D8A4A8EF76F0DF
:10ED4C00AAEF76F079EF76F0BAEF76F01950600F03
:10ED5C00D96EDA6ADF500E6E0E50036E046A0BC069
:10ED6C0005F051EC71F0192A200E1918D8A4C1EF36
:10ED7C0076F0C3EF76F0ACEF76F041EF76F0600012
:10ED8C004FF0F6FF600053F0F7FFF86A0800F550FB
:10ED9C00750AD8B477EF76F0D4EF76F00C50D96EC4
:10EDAC00DA6ADE2A000EDD220C6A000E0B6EFAEF18
:10EDBC0076F00C50D96EDA6A6F007BFFF6FF6F00AD
:10EDCC0077FFF7FFF86A0800F550036E046A0BC072
:10EDDC0005F051EC71F00C50D96EDA6ADE2A000E97
:10EDEC00DD220C6A010E0B6E120065EC6BF001EC6F
:10EDFC0071F08EEC6CF069EC6CF0C38A3A01509BAC
:10EE0C00CBBA0BEF77F00DEF77F0BEEF7CF073EC35
:10EE1C0073F0C7EC6BF0000E026E000EB5EC6CF0EC
:10EE2C00B60E026EFF0E036E080E046E63EC70F0ED
:10EE3C0060EC6DF002C0DFF003C0E0F0CB0E206E92
:10EE4C00EA0E216EFF0E226EDFC023F0E0C024F02C
:10EE5C0047EC6CF020500001E66F010E026E000EC4
:10EE6C00B5EC6CF0CB0E026E036AE6C004F063ECFA
:10EE7C0070F087EC6FF00001D86F93EF7CF0C7EC6B
:10EE8C006BF0000E026E000EB5EC6CF02E0E026EE6
:10EE9C00FF0E036E080E046E63EC70F0010E026E32
:10EEAC00000EB5EC6CF09B0E026EFF0E036E080E9E
:10EEBC00046E63EC70F0C60E206EFC0E216EBAEC84
:10EECC006BF00001D46BC9EF77F0430E206EFC0E93
:10EEDC00216EBAEC6BF0540E206EFE0E216EBAEC65
:10EEEC006BF087EC6FF00001B66FFEEC71F0000177
:10EEFC00DC6FDE6B000EDD6FE76B040EE76589EFF0
:10EF0C0077F08BEF77F08DEF77F0B8EF77F0E75184
:10EF1C00020DDC51F324D96EDA6A6F0078FF43F0EE
:10EF2C006F0074FF44F0DD514324DD6FDE5144204B
:10EF3C00DE6FFE0E206EFE0E216EE7C022F0236AFD
:10EF4C00E751020DDC51F324D96EDA6A6F0078FFB9
:10EF5C0024F06F0074FF25F0BAEC6BF00001E72B86
:10EF6C0083EF77F0DD51DE11D8A4BFEF77F0C1EF5E
:10EF7C0077F0C9EF77F0010ED46FFB0E206EFD0E0B
:10EF8C00216EBAEC6BF00001D451D8B4D0EF77F00D
:10EF9C00D2EF77F06BEF77F0D56B49EF78F0700E1E
:10EFAC00206EFC0E216EBAEC6BF0540E206EFE0E31
:10EFBC00216EBAEC6BF087EC6FF00001B66FFEECD3
:10EFCC0071F00001DC6FDE6B000EDD6FE76B040E81
:10EFDC00E765F3EF77F0F5EF77F0F7EF77F022EFE7
:10EFEC0078F0E751020DDC51F324D96EDA6A6F0028
:10EFFC0078FF43F06F0074FF44F0DD514324DD6F64
:10F00C00DE514420DE6FFE0E206EFE0E216EE7C038
:10F01C0022F0236AE751020DDC51F324D96EDA6A2F
:10F02C006F0078FF24F06F0074FF25F0BAEC6BF0E2
:10F03C000001E72BEDEF77F0880EDD1907E1130ED9
:10F04C00DE19D8A42CEF78F02EEF78F049EF78F099
:10F05C00010ED56F190E206EFE0E216EBAEC6BF000
:10F06C008A0E206EFE0E216EBAEC6BF0010E026E53
:10F07C00000EB5EC6CF0BF0E026EFF0E036E080EA8
:10F08C00046E63EC70F00001D551D8B450EF78F0F9
:10F09C0052EF78F0D5EF77F03FEF77F0C7EC6BF0ED
:10F0AC00000E026E000EB5EC6CF05C0E026EFF0EE4
:10F0BC00036E080E046E63EC70F0010E026E000E0F
:10F0CC00B5EC6CF0E20E026EFF0E036E080E046ED1
:10F0DC0063EC70F0C60E206EFC0E216EBAEC6BF079
:10F0EC0003EC6CF00009D8B47EEF78F080EF78F088
:10F0FC0076EF78F0870EA0EC6BF00001E36B000E5E
:10F10C00E26FE3BF93EF78F0E35109E1050EE25DA6
:10F11C00D8A093EF78F095EF78F097EF78F0DFEFD9
:10F12C0078F07FEC6BF00009D8B49FEF78F0A1EF8A
:10F13C0078F097EF78F00001E251C10FD96EDA6ADE
:10F14C00CBEC6FF0DF6E7FEC6BF00009D8B4B1EF55
:10F15C0078F0B3EF78F0A9EF78F00001E251C60F28
:10F16C00D96EDA6ACBEC6FF0DF6E0001E251C60F9C
:10F17C00D96EDA6ADF50436E4350456E446AE251F1
:10F18C00C10FD96EDA6ADF50466E46504426000E27
:10F19C004522E251020DF350B70FD96EDA6A6000C6
:10F1AC0013F1DEFF600017F1DDFFE24BE32B87EF7D
:10F1BC0078F0DA6B000ED96FDABFEEEF78F0DA5137
:10F1CC0009E1050ED95DD8A0EEEF78F0F0EF78F0FC
:10F1DC00F2EF78F03FEF77F01F0E206EFF0E216EEE
:10F1EC00D9C022F0DAC023F0D951020DF350B70F79
:10F1FC00D96EDA6A6F0078FF24F06F0074FF25F087
:10F20C00BAEC6BF00001D94BDA2BE2EF78F0C7ECDB
:10F21C006BF0000E026E000EB5EC6CF0DA0E026EA6
:10F22C00FF0E036E070E046E63EC70F0C60E206EBC
:10F23C00FC0E216EBAEC6BF0AD0E206EFC0E216E46
:10F24C00BAEC6BF087EC6FF00001DB6F3CEF79F000
:10F25C00C60E206EFC0E216EBAEC6BF09D0E206E6D
:10F26C00FC0E216EBAEC6BF028EF79F02F0EDB65FB
:10F27C0042EF79F044EF79F02EEF79F0350EDB6147
:10F28C004AEF79F04CEF79F02EEF79F0000E026E28
:10F29C00070EB5EC6CF00001DB51DEEC6CF003EC0E
:10F2AC006CF00009D8B45DEF79F05FEF79F055EFB1
:10F2BC0079F0870EA0EC6BF00001E56B000EE46FAB
:10F2CC00E5BF72EF79F0E55109E1050EE45DD8A0D8
:10F2DC0072EF79F074EF79F076EF79F0BEEF79F0A8
:10F2EC007FEC6BF00009D8B47EEF79F080EF79F009
:10F2FC0076EF79F00001E451C10FD96EDA6ACBECEC
:10F30C006FF0DF6E7FEC6BF00009D8B490EF79F002
:10F31C0092EF79F088EF79F00001E451C60FD96EC5
:10F32C00DA6ACBEC6FF0DF6E0001E451C60FD96ED8
:10F33C00DA6ADF50436E4350456E446AE451C10FA4
:10F34C00D96EDA6ADF50466E46504426000E4522CE
:10F35C00E451020DF350B70FD96EDA6A600013F165
:10F36C00DEFF600017F1DDFFE44BE52B66EF79F073
:10F37C00DB51D00FD86F100E206EFF0E216ED8C04F
:10F38C0022F0236AD851020DF350B70FD96EDA6A06
:10F39C006F0078FF24F06F0074FF25F0BAEC6BF06F
:10F3AC003FEF77F0C7EC6BF0000E026E000EB5EC81
:10F3BC006CF0A40E026EFF0E036E080E046E63EC6E
:10F3CC0070F0C60E206EFC0E216EBAEC6BF060EC89
:10F3DC006DF002C0DFF003C0E0F0CB0E206EEA0E41
:10F3EC00216EFF0E226EDFC023F0E0C024F047EC4C
:10F3FC006CF020500001E66F010E026E000EB5ECB1
:10F40C006CF0CB0E026E036AE6C004F063EC70F095
:10F41C00A20E206EFE0E216EDFC022F0E0C023F0A3
:10F42C00BAEC6BF03FEF77F0C7EC6BF0000E026EAE
:10F43C00000EB5EC6CF0920E026EFF0E036E080E11
:10F44C00046E63EC70F0C60E206EFC0E216EBAECEE
:10F45C006BF0160E206EFC0E216EBAEC6BF044ECC9
:10F46C006FF00001E86FE85165EC6EF0CB0E206E8A
:10F47C00F60E216EFF0E226EE8C023F0246A47ECD4
:10F48C006CF020500001E66F010E026E000EB5EC20
:10F49C006CF0CB0E026E036AE6C004F063EC70F005
:10F4AC0003EC6CF00009D8B45EEF7AF060EF7AF000
:10F4BC0056EF7AF0C10EA0EC6BF003EC6CF0000987
:10F4CC00D8B46BEF7AF06DEF7AF063EF7AF000015D
:10F4DC00E851A0EC6BF003EC6CF00009D8B479EFB8
:10F4EC007AF07BEF7AF071EF7AF0C50EA0EC6BF04E
:10F4FC0003EC6CF00009D8B486EF7AF088EF7AF060
:10F50C007EEF7AF00001E851A0EC6BF03FEF77F062
:10F51C00C7EC6BF0000E026E000EB5EC6CF0AD0E8D
:10F52C00026EFF0E036E080E046E63EC70F0C60ED6
:10F53C00206EFC0E216EBAEC6BF0E80E206EFB0E0A
:10F54C00216EBAEC6BF044EC6FF00001E86FE851FF
:10F55C00C3EC6DF0CB0E206EF60E216EFF0E226EFC
:10F56C00E8C023F0246A47EC6CF020500001E66FF1
:10F57C00010E026E000EB5EC6CF0CB0E026E036A3F
:10F58C00E6C004F063EC70F003EC6CF00009D8B446
:10F59C00D2EF7AF0D4EF7AF0CAEF7AF0C20EA0EC88
:10F5AC006BF003EC6CF00009D8B4DFEF7AF0E1EF0C
:10F5BC007AF0D7EF7AF00001E851A0EC6BF003EC95
:10F5CC006CF00009D8B4EDEF7AF0EFEF7AF0E5EFDC
:10F5DC007AF0C60EA0EC6BF003EC6CF00009D8B41A
:10F5EC00FAEF7AF0FCEF7AF0F2EF7AF00001E851E2
:10F5FC00A0EC6BF03FEF77F0C7EC6BF0000E026EF7
:10F60C00000EB5EC6CF0800E026EFF0E036E080E51
:10F61C00046E63EC70F0C60E206EFC0E216EBAEC1C
:10F62C006BF0160E206EFC0E216EBAEC6BF044ECF7
:10F63C006FF00001E86F3B0E206EFB0E216EBAECF2
:10F64C006BF044EC6FF00001E16FE851E125D66FEF
:10F65C00D76BD737E1C002F0E8510BEC6FF0CB0E53
:10F66C00206EF00E216EFF0E226EE8C023F0246A8D
:10F67C00E1C025F0266A47EC6CF020500001E66FE3
:10F68C00010E026E000EB5EC6CF0CB0E026E036A2E
:10F69C00E6C004F063EC70F003EC6CF00009D8B435
:10F6AC005AEF7BF05CEF7BF052EF7BF0C10EA0ECDD
:10F6BC006BF003EC6CF00009D8B467EF7BF069EFEA
:10F6CC007BF05FEF7BF00001D651A0EC6BF003EC0C
:10F6DC006CF00009D8B475EF7BF077EF7BF06DEF31
:10F6EC007BF0C50EA0EC6BF003EC6CF00009D8B409
:10F6FC0082EF7BF084EF7BF07AEF7BF00001E85136
:10F70C00A0EC6BF03FEF77F0C7EC6BF0000E026EE5
:10F71C00000EB5EC6CF0890E026EFF0E036E080E37
:10F72C00046E63EC70F0C60E206EFC0E216EBAEC0B
:10F73C006BF0160E206EFC0E216EBAEC6BF044ECE6
:10F74C006FF00001E86F3B0E206EFB0E216EBAECE1
:10F75C006BF044EC6FF00001E16FE851E125D66FDE
:10F76C00D76BD737E1C002F0E8519BEC6EF0CB0EB3
:10F77C00206EF00E216EFF0E226EE8C023F0246A7C
:10F78C00E1C025F0266A47EC6CF020500001E66FD2
:10F79C00010E026E000EB5EC6CF0CB0E026E036A1D
:10F7AC00E6C004F063EC70F003EC6CF00009D8B424
:10F7BC00E2EF7BF0E4EF7BF0DAEF7BF0C10EA0EC34
:10F7CC006BF003EC6CF00009D8B4EFEF7BF0F1EFC9
:10F7DC007BF0E7EF7BF00001E851A0EC6BF003EC61
:10F7EC006CF00009D8B4FDEF7BF0FFEF7BF0F5EF88
:10F7FC007BF0C50EA0EC6BF003EC6CF00009D8B4F8
:10F80C000AEF7CF00CEF7CF002EF7CF00001D6519B
:10F81C00A0EC6BF03FEF77F0C7EC6BF0000E026ED4
:10F82C00000EB5EC6CF06E0E026EFF0E036E080E41
:10F83C00046E63EC70F0C60E206EFC0E216EBAECFA
:10F84C006BF038EC6BF003EC6CF00009D8B431EFD2
:10F85C007CF033EF7CF029EF7CF0C10EA0EC6BF068
:10F86C0003EC6CF00009D8B43EEF7CF040EF7CF078
:10F87C0036EF7CF0000EA0EC6BF003EC6CF00009A2
:10F88C00D8B44BEF7CF04DEF7CF043EF7CF0C50E21
:10F89C00A0EC6BF003EC6CF00009D8B458EF7CF0E2
:10F8AC005AEF7CF050EF7CF0000EA0EC6BF03FEFC9
:10F8BC0077F0C7EC6BF0000E026E000EB5EC6CF03E
:10F8CC00B60E026EFF0E036E080E046E63EC70F043
:10F8DC0060EC6DF002C0DFF003C0E0F0CB0E206EE8
:10F8EC00EA0E216EFF0E226EDFC023F0E0C024F082
:10F8FC0047EC6CF020500001E66F010E026E000E1A
:10F90C00B5EC6CF0CB0E026E036AE6C004F063EC4F
:10F91C0070F073EC73F03FEF77F0D851420AD8B423
:10F92C008EEF7AF0040AD8B41AEF7AF00A0AD8B437
:10F93C0002EF7BF01E0AD8B48AEF7BF0010AD8B430
:10F94C0012EF7CF0300AD8B445EF77F0070AD8B440
:10F95C000DEF79F0090AD8B45FEF7CF01F0AD8B428
:10F96C0054EF78F0040AD8B4D8EF79F03FEF77F081
:10F97C00CBAAC3EF7CF0C5EF7CF088EF7DF073EC85
:10F98C0073F0C7EC6BF0000E026E000EB5EC6CF071
:10F99C004A0E026EFF0E036E080E046E63EC70F0DE
:10F9AC0060EC6DF002C0DFF003C0E0F0CB0E206E17
:10F9BC00EA0E216EFF0E226EDFC023F0E0C024F0B1
:10F9CC0047EC6CF020500001E66F010E026E000E49
:10F9DC00B5EC6CF0CB0E026E036AE6C004F063EC7F
:10F9EC0070F03D0E446EE10E436E400EE82EFED7D5
:10F9FC00432EFCD7442EFAD7000E026E000EB5EC47
:10FA0C006CF0D10E026EFF0E036E080E046E63ECEA
:10FA1C0070F032EC6DF0010E026E000EB5EC6CF075
:10FA2C00650E026EFF0E036E080E046E63EC70F032
:10FA3C00060EFEEC73F0100E436E940EE82EFED7FD
:10FA4C00432EFCD700D0400E016E900E8AEC6BF06A
:10FA5C00B2EC70F0520E026EA3EC74F052505310D4
:10FA6C00D8A43BEF7DF03DEF7DF046EF7DF05A5092
:10FA7C005B10D8B444EF7DF046EF7DF05EEF7DF087
:10FA8C0054505510D8B44DEF7DF04FEF7DF058EF3A
:10FA9C007DF058505910D8A456EF7DF058EF7DF0FA
:10FAAC005EEF7DF0520E156E58EC72F030EF7DF07B
:10FABC0054505510D8A465EF7DF067EF7DF070EFD2
:10FACC007DF058505910D8B46EEF7DF070EF7DF08A
:10FADC0030EF7DF052505310D8A477EF7DF079EFD2
:10FAEC007DF030EF7DF05A505B10D8A480EF7DF0A4
:10FAFC0082EF7DF030EF7DF0520E156E12EC73F04C
:10FB0C0030EF7DF0FEEF7FF0000000000000000001
:10FB1C0000000000000000000000000000000000D9
:10FB2C0000000000000000000000000000000009C0
:10FB3C0020506C6561736520656E74657220746805
:10FB4C0065207475726E696E67206469666665728D
:10FB5C00656E7469616C3A207370656564202B2046
:10FB6C00646966666572656E7469616C203C2031EF
:10FB7C003237200D0A00202076200909202876290A
:10FB8C006F6C74616765202D205265616420616E15
:10FB9C006420646973706C6179206261747465723D
:10FBAC007920766F6C74616765200D0A00496E765A
:10FBBC00616C696420696E7075742E20506C65617F
:10FBCC007365207265646F206E756D657269636113
:10FBDC006C20696E7075742E200D0A000920506C13
:10FBEC006561736520656E7465722074686520624A
:10FBFC0061636B776172642073706565642C20306F
:10FC0C00202D20313237200D0A000920506C6561FF
:10FC1C00736520656E7465722074686520666F72FA
:10FC2C00776172642073706565642C2030202D2000
:10FC3C00313237200D0A00506C61636520616C6CA9
:10FC4C0020666976652073656E736F7273206F6EB4
:10FC5C0020612077686974652073757266616365CD
:10FC6C00200A0D00506C61636520616C6C20666924
:10FC7C0076652073656E736F7273206F6E206120D2
:10FC8C00626C61636B2073757266616365200A0D2B
:10FC9C0000496E76616C696420656E7472792E20F1
:10FCAC0020456E7465722073656E736F72206E756D
:10FCBC006D6265722C20302D34200A0D00202072CC
:10FCCC00200909202872296561642063616C6962CE
:10FCDC0072617465642073656E736F7273200D0AA4
:10FCEC000020204220090920576865656C7320723A
:10FCFC006F746174652028422961636B776172644B
:10FD0C00200D0A0020206420090920286429697329
:10FD1C00706C61792073656E736F722078207661D8
:10FD2C006C7565200D0A00202046200909205768B3
:10FD3C0065656C7320726F74617465202846296F39
:10FD4C007277617264200D0A00092A20202020207D
:10FD5C002020202020202020202020202020202097
:10FD6C00202020202020202A0D0A00092A202020D3
:10FD7C00202020446961676E6F73746963204D6540
:10FD8C006E75202020202020202A0D0A00092A2010
:10FD9C002020415053432031323939202D20506FCF
:10FDAC006C6F6C75203370692020202A0D0A0009B5
:10FDBC002A2A2A2A2A2A2A2A2A2A2A2A2A2A2A2A97
:10FDCC002A2A2A2A2A2A2A2A2A2A2A2A2A2A0D0AC4
:10FDDC000020206320090920286329616C69627264
:10FDEC006174652073656E736F7273200D0A005712
:10FDFC00686974652063616C6962726174696F6EA5
:10FE0C0020636F6D706C657465200A0D00426C6127
:10FE1C00636B2063616C6962726174696F6E2063DD
:10FE2C006F6D706C657465200A0D00436F6D6D61AC
:10FE3C006E64204B65792009204465736372697088
:10FE4C0074696F6E200D0A00507265737320616EB9
:10FE5C0079206B657920746F20636F6E74696E7591
:10FE6C0065200A0D0020206D20090920526566725C
:10FE7C0065736820286D29656E75200D0A00436135
:10FE8C006C6962726174696F6E20636F6D706C6502
:10FE9C007465200A0D004261747465727920766F66
:10FEAC006C74616765203D202575200A0D002020AB
:10FEBC0052200909202852296967687420747572C8
:10FECC006E200D0A00202053200909202853297484
:10FEDC006F70206D6F746F72200D0A0020204C2003
:10FEEC00090920284C29656674207475726E200DE2
:10FEFC000A0053656E736F72202575203D202575A1
:10FF0C00200A0D0053656E736F722025643A20250C
:10FF1C00750A0053656E736F722E2025642025754B
:10FF2C000A0043616C69627261746500202020478D
:10FF3C004F2020200020205345542020200020203A
:10FF4C0052756E202020002052454144592020003B
:10FF5C002020526561642020002020646F6E652093
:10FF6C002000202053746F70202000202025752045
:10FF7C007320200020204C656674202000205269DC
:10FF8C00676874202000466F72776172642000539A
:10FF9C00656E736F727320004261747465727920A0
:10FFAC00004261636B7761726400446961676E6FD4
:10FFBC00736500436F6D706C65746500436F756E8F
:10FFCC0074696E67004175746F2043616C005365F2
:10FFDC006E736F72200053656E736F7273002575AC
:10FFEC00206D5600257520257500202575200000F4
:04FFFC00E3EF6BF0D4
:020000040030CA
:0A000000ECFEF7FF9FFFFFFFFFFF7C
:00000001FF
