:04000000FEEF7FF0A0
:10D5AC00120012001200120012001200B88E1200AB
:10D5BC00B89E1200000E29EC6EF01200026E0250A2
:10D5CC005AEC6BF0120001C0E3F002C0E4F0120060
:10D5DC0001C05EF002C05FF0120001C05CF002C03E
:10D5EC005DF0120001C0DDF002C0DEF0120001C0DF
:10D5FC00E1F002C0E2F0120001C0DFF002C0E0F086
:10D60C00120030F818FC0000E803D0070250B76E87
:10D61C00600007F0B6FF120022EC6BF0C5EC70F066
:10D62C0019EC6BF01200600E3901D96FDB6BDD6BFE
:10D63C00070EDF6FDE6B12003901C06BC16BC26B62
:10D64C00C36BC46BC56BC66BC76B12003901A3B738
:10D65C0032EF6BF035EF6BF0010E36EF6BF0000E26
:10D66C001200026E60000BF0B8FF600007F0B9FF0B
:10D67C00B89E3901A39F12003901A6B548EF6BF093
:10D68C004BEF6BF0010E4CEF6BF0000E1200016EC5
:10D69C003901A3A954EF6BF056EF6BF04EEF6BF022
:10D6AC00600007F0EAFD1200016E3901A6A761EFD8
:10D6BC006BF063EF6BF05BEF6BF0600007F0D2FD8B
:10D6CC001200220E266E000E1A6E20C01BF021C016
:10D6DC001CF0260E1D6ECBEC6CF01200A1EC6BF066
:10D6EC000009D8B47CEF6BF07EEF6BF074EF6BF04D
:10D6FC00B70E4DEC6BF01200A1EC6BF00009D8B436
:10D70C008AEF6BF08CEF6BF082EF6BF0BC0E4DEC94
:10D71C006BF012006F00D8FE07F06F00DCFE08F013
:10D72C000850036E0750056E03C006F005C001F0EB
:10D73C0006C002F01200016A3901A3A9A8EF6BF030
:10D74C00AAEF6BF0B4EF6BF03D01F2ABB0EF6BF006
:10D75C00B2EF6BF0B4EF6BF0010E016E01501200E2
:10D76C00016A3901A6A7BDEF6BF0BFEF6BF0C9EFF3
:10D77C006BF03D01DAABC5EF6BF0C7EF6BF0C9EFA7
:10D78C006BF0010E016E0150120008BED0EF6BF071
:10D79C00D2EF6BF0D8EF6BF007C007F008C008F0C1
:10D7AC00E4EF6BF007C009F008C00AF0091E0A1E6E
:10D7BC00094A0A2A09C007F00AC008F01200230E11
:10D7CC00296E20C02AF02D6A000E2C6E346A000ED1
:10D7DC00336E2A0E1A6E21C01BF022C01CF0290ECB
:10D7EC001D6ECBEC6CF01AC027F01BC028F020503B
:10D7FC002C24D96EDA6ADF6A27C020F028C021F009
:10D80C0012003D01D46BD66BD86BB00EDA6F800E64
:10D81C00DB6FDC6BE10EDD6F040EDE6FDF6BE06B3C
:10D82C00E16BE26BB40E016ED50E026EFDEC6AF08C
:10D83C00B60E016ED50E026E02EC6BF0B20E016EDE
:10D84C00D50E026EF8EC6AF0506A12000E0EF66EEF
:10D85C00D60EF76E000EF86E00EED3F010EE0AF056
:10D86C0009006F00D7FFEEFFE550E150F9E100EE43
:10D87C0000F1200EEE6AE806FDE100EE60F0400ECD
:10D88C00EE6AE806FDE100EE47F0150EEE6AE806DA
:10D89C00FDE10001FDEF76F03D01EC6BED6BEE6B05
:10D8AC00EF6BF06BF16BB00EF26F800EF36FF46BED
:10D8BC00670EF56FF66BF76BF86BF96BFA6BAE0ED8
:10D8CC00016ED50E026EEEEC6AF0B00E016ED50E46
:10D8DC00026EF3EC6AF0AC0E016ED50E026EE9EC42
:10D8EC006AF0516A1200036EA1EC6BF00009D8B417
:10D8FC0082EF6CF084EF6CF07AEF6CF0B90E4DECBB
:10D90C006BF0A1EC6BF00009D8B48FEF6CF091EFD9
:10D91C006CF087EF6CF003504DEC6BF0A1EC6BF0FE
:10D92C000009D8B49CEF6CF09EEF6CF094EF6CF0A7
:10D93C0002504DEC6BF01200026EA1EC6BF0000982
:10D94C00D8B4ABEF6CF0ADEF6CF0A3EF6CF0B80E9D
:10D95C004DEC6BF0A1EC6BF00009D8B4B8EF6CF0A7
:10D96C00BAEF6CF0B0EF6CF0010E4DEC6BF0A1EC7B
:10D97C006BF00009D8B4C5EF6CF0C7EF6CF0BDEFDD
:10D98C006CF002504DEC6BF012001BC01EF01CC072
:10D99C001FF0486A000E476EE0EF6CF01AC00BF0F7
:10D9AC001E0E0C6E1DC00DF058EC75F00B5047267A
:10D9BC000C50482260007BF0F6FF60007FF0F7FF10
:10D9CC00F86A0800F5500009D8A4EFEF6CF0F1EFFD
:10D9DC006CF0D4EF6CF047C01AF048C01BF012008A
:10D9EC00A1EC6BF00009D8B4FEEF6CF000EF6DF019
:10D9FC00F6EF6CF0BA0E4DEC6BF02CEC6BF0000902
:10DA0C00D8B40BEF6DF00DEF6DF003EF6DF019EF77
:10DA1C006DF02CEC6BF00009D8B417EF6DF019EF2A
:10DA2C006DF00FEF6DF08FEC6FF0630AD8A421EF5F
:10DA3C006DF023EF6DF00FEF6DF01200A1EC6BF0B9
:10DA4C000009D8B42CEF6DF02EEF6DF024EF6DF0D3
:10DA5C00B10E4DEC6BF02CEC6BF00009D8B439EF37
:10DA6C006DF03BEF6DF031EF6DF08FEC6FF0066EFB
:10DA7C002CEC6BF00009D8B446EF6DF048EF6DF06C
:10DA8C003EEF6DF08FEC6FF0076E0750056E046A79
:10DA9C0006500424026E000E0520036E1200035083
:10DAAC000410D8B45CEF6DF05EEF6DF082EF6DF0AA
:10DABC00010E056E66EF6DF0D89003360436052A1C
:10DACC0004AE6BEF6DF06DEF6DF062EF6DF0035027
:10DADC00015C04500258D8A076EF6DF078EF6DF031
:10DAEC007CEF6DF00350015E0450025AD890043262
:10DAFC000332052E6DEF6DF001C001F002C002F093
:10DB0C001200026EA1EC6BF00009D8B490EF6DF02E
:10DB1C0092EF6DF088EF6DF0C20E4DEC6BF0A1EC56
:10DB2C006BF00009D8B49DEF6DF09FEF6DF095EFA1
:10DB3C006DF002504DEC6BF0A1EC6BF00009D8B419
:10DB4C00AAEF6DF0ACEF6DF0A2EF6DF0C60E4DECE0
:10DB5C006BF0A1EC6BF00009D8B4B7EF6DF0B9EF36
:10DB6C006DF0AFEF6DF002284DEC6BF01200036E10
:10DB7C00A1EC6BF00009D8B4C6EF6DF0C8EF6DF0F6
:10DB8C00BEEF6DF0C50E4DEC6BF0A1EC6BF0000927
:10DB9C00D8B4D3EF6DF0D5EF6DF0CBEF6DF0035043
:10DBAC004DEC6BF0A1EC6BF00009D8B4E0EF6DF02C
:10DBBC00E2EF6DF0D8EF6DF0C20E4DEC6BF0A1EC16
:10DBCC006BF00009D8B4EDEF6DF0EFEF6DF0E5EF11
:10DBDC006DF003284DEC6BF01200036EA1EC6BF0B2
:10DBEC000009D8B4FCEF6DF0FEEF6DF0F4EF6DF0C2
:10DBFC00C10E4DEC6BF0A1EC6BF00009D8B409EF41
:10DC0C006EF00BEF6EF001EF6EF003504DEC6BF01D
:10DC1C00A1EC6BF00009D8B416EF6EF018EF6EF0B3
:10DC2C000EEF6EF0C60E4DEC6BF0A1EC6BF0000934
:10DC3C00D8B423EF6EF025EF6EF01BEF6EF00328D7
:10DC4C004DEC6BF01200026EA1EC6BF00009D8B435
:10DC5C0032EF6EF034EF6EF02AEF6EF0C10E4DEC39
:10DC6C006BF0A1EC6BF00009D8B43FEF6EF041EF14
:10DC7C006EF037EF6EF002504DEC6BF0A1EC6BF0E8
:10DC8C000009D8B44CEF6EF04EEF6EF044EF6EF02E
:10DC9C00C50E4DEC6BF0A1EC6BF00009D8B459EF4C
:10DCAC006EF05BEF6EF051EF6EF002284DEC6BF006
:10DCBC001200036EA1EC6BF00009D8B468EF6EF0A3
:10DCCC006AEF6EF060EF6EF0C10E4DEC6BF0A1ECF4
:10DCDC006BF00009D8B475EF6EF077EF6EF06DEF66
:10DCEC006EF0035002244DEC6BF0A1EC6BF00009CC
:10DCFC00D8B483EF6EF085EF6EF07BEF6EF0C50E4F
:10DD0C004DEC6BF0A1EC6BF00009D8B490EF6EF019
:10DD1C0092EF6EF088EF6EF003284DEC6BF0120072
:10DD2C00066A000E056E03500410D8B4A0EF6EF016
:10DD3C00A2EF6EF0CAEF6EF0010E076EAAEF6EF056
:10DD4C00D89003360436072A04AEAFEF6EF0B1EF6D
:10DD5C006EF0A6EF6EF0D890053606360350015CD7
:10DD6C0004500258D8A0BDEF6EF0BFEF6EF0C4EFB8
:10DD7C006EF00350015E0450025A0580D8900432B4
:10DD8C000332072EB1EF6EF005C001F006C002F0B1
:10DD9C001200046EA1EC6BF00009D8B4D8EF6EF051
:10DDAC00DAEF6EF0D0EF6EF0C10E4DEC6BF0A1EC33
:10DDBC006BF00009D8B4E5EF6EF0E7EF6EF0DDEF35
:10DDCC006EF004504DEC6BF0A1EC6BF00009D8B484
:10DDDC00F2EF6EF0F4EF6EF0EAEF6EF0C50E4DEC74
:10DDEC006BF0A1EC6BF00009D8B4FFEF6EF001EF13
:10DDFC006FF0F7EF6EF004500224036E03284DEC25
:10DE0C006BF012002868276A40EF6FF04BEC6FF054
:10DE1C00286E0D0E2818D8A416EF6FF018EF6FF0BF
:10DE2C001AEF6FF040EF6FF02F0E286420EF6FF0B9
:10DE3C0022EF6FF02AEF6FF0390E286428EF6FF0A5
:10DE4C002AEF6FF03AEF6FF0C60E206EFC0E216ECB
:10DE5C0067EC6BF0B90E206EFB0E216E67EC6BF06D
:10DE6C00276A286840EF6FF027500A0DF3502824DA
:10DE7C00D00F276E0D0E2818D8A447EF6FF049EF7E
:10DE8C006FF00CEF6FF027501200026874EF6FF018
:10DE9C0042EC6BF00009D8B456EF6FF058EF6FF00E
:10DEAC0074EF6FF0DAEC6FF0026EB6EC6BF0000909
:10DEBC00D8B463EF6FF065EF6FF074EF6FF0025052
:10DECC005AEC6BF00D0E0218D8A46FEF6FF071EFD7
:10DEDC006FF074EF6FF00A0E5AEC6BF02F0E0264B9
:10DEEC007AEF6FF07CEF6FF084EF6FF07A0E0264D4
:10DEFC0082EF6FF084EF6FF08DEF6FF00D0E021864
:10DF0C00D8A48BEF6FF08DEF6FF04EEF6FF00250E7
:10DF1C0012003901A3A795EF6FF097EF6FF08FEF19
:10DF2C006FF0516A3D01F9A79EEF6FF0A0EF6FF013
:10DF3C00ADEF6FF0518202D8ADEF6FF00500FA6EC5
:10DF4C005E50FD6E5F50FE6EFF6AFA5012003D018E
:10DF5C00F9A3B3EF6FF0B5EF6FF0C2EF6FF0518430
:10DF6C0002D8C2EF6FF00500FA6E5C50FD6E5D508A
:10DF7C00FE6EFF6AFA5012005150D8B4C8EF6FF021
:10DF8C00CAEF6FF0D7EF6FF002D8D7EF6FF0050044
:10DF9C00FA6E0001E351FD6EE451FE6EFF6AFA5019
:10DFAC0012003D01E85112003901A6A5E0EF6FF017
:10DFBC00E2EF6FF0DAEF6FF0506A3D01E1A7E9EFA5
:10DFCC006FF0EBEF6FF0F9EF6FF0508202D8F9EFD2
:10DFDC006FF00500FA6E0001E151FD6EE251FE6E2C
:10DFEC00FF6AFA5012003D01E1A3FFEF6FF001EF61
:10DFFC0070F00FEF70F0508402D80FEF70F0050046
:10E00C00FA6E0001DF51FD6EE051FE6EFF6AFA50B0
:10E01C0012005050D8B415EF70F017EF70F024EFD9
:10E02C0070F002D824EF70F00500FA6E0001DD519B
:10E03C00FD6EDE51FE6EFF6AFA5012003D01D051AA
:10E04C001200076AA1EC6BF00009D8B430EF70F045
:10E05C0032EF70F028EF70F0B80E4DEC6BF0A1ECD5
:10E06C006BF00009D8B43DEF70F03FEF70F035EF76
:10E07C0070F004504DEC6BF06CEF70F0A1EC6BF0A9
:10E08C000009D8B44CEF70F04EEF70F06CEF70F0FC
:10E09C0007500224056E000E0320066E600017F078
:10E0AC00F6FF60001BF0F7FF000EF86E0F0EF76422
:10E0BC0003D00800F55007D06F00DBFFE9FF6F00BD
:10E0CC00DFFFEAFFEF504DEC6BF0072A0450075CC2
:10E0DC00D8A073EF70F075EF70F044EF70F0120091
:10E0EC00A1EC6BF00009D8B47EEF70F080EF70F00B
:10E0FC0076EF70F0BB0E4DEC6BF0A1EC6BF0000901
:10E10C00D8B48BEF70F08DEF70F083EF70F0140ECD
:10E11C004DEC6BF0A1EC6BF00009D8B498EF70F0FB
:10E12C009AEF70F090EF70F0010E4DEC6BF0A1ECEB
:10E13C006BF00009D8B4A5EF70F0A7EF70F09DEF6D
:10E14C0070F0140E4DEC6BF0A1EC6BF00009D8B430
:10E15C00B2EF70F0B4EF70F0AAEF70F0030E4DEC6C
:10E16C006BF0A1EC6BF00009D8B4BFEF70F0C1EF0D
:10E17C0070F0B7EF70F0020E4DEC6BF01200BE6A4F
:10E18C00BD6ABA6ABB6ABC6A070EC66EC268BF0EAD
:10E19C00C36E840EC46EC5683A01706B606B2F0E33
:10E1AC00506F070E806FEF0E406F716B816B516B70
:10E1BC00416B616B5A6B5B6B6A6B6B6B7A6B7B6BDA
:10E1CC00826B426B526B180E626F726B43695369B0
:10E1DC0063697369070E836F446954696469746970
:10E1EC000F0E846F0F0EE86F250E106F160E0E6F4C
:10E1FC00210E136F0F0E116F220E146F170EE56F99
:10E20C00040EC36F130EE16F0C0EDD6F140EE26F74
:10E21C00120ECA6F0D0E156F130E166F120082ECD4
:10E22C006BF0140E29EC6EF0160E2E6E4F0E2D6E3A
:10E23C007B0EE82EFED72D2EFCD72E2EFAD7000003
:10E24C00E0EC6AF05DEC74F02C50D96EDA6A040ED6
:10E25C00D926DF50D8B435EF71F037EF71F04AEFB3
:10E26C0071F01E0E026E1E0EF3EC6DF05DEC74F090
:10E27C003150D8B444EF71F046EF71F03CEF71F0CF
:10E28C00E0EC6AF066EF71F02C50D96EDA6ADF5070
:10E29C00D8B453EF71F055EF71F066EF71F01E0EBC
:10E2AC00026E1E0EBDEC6DF05DEC74F03150D8B406
:10E2BC0062EF71F064EF71F05AEF71F046EF71F0AC
:10E2CC0076EC70F012000550D8B46FEF71F071EF6E
:10E2DC0071F079EF71F00550D8A477EF71F079EF08
:10E2EC0071F07EEF71F00350E4EC6AF0BEEF71F068
:10E2FC000550D96EDA6A090ED926DE50DE10D8B474
:10E30C008AEF71F08CEF71F0A5EF71F00550D96EBA
:10E31C00DA6A090ED9260550E16EE26A020EE12690
:10E32C00DE50E65CE650800A0A6EDE50800A0A581F
:10E33C00D8B0A3EF71F0A5EF71F0BEEF71F00550FE
:10E34C00D96EDA6A020ED926DF50066E0550D96EE8
:10E35C00DA6ADF500624D96EDA6A60000FF0DFFF4C
:10E36C000550D96EDA6A020ED926DE2A000EDD229D
:10E37C001200066A02BEC7EF71F0C5EF71F0CDEF67
:10E38C0071F0016C021ED8B0022A010E066E04BE9A
:10E39C00D4EF71F0D2EF71F0D8EF71F0036C041E72
:10E3AC00D8B0042A03500410D8B4DFEF71F0E1EFB9
:10E3BC0071F005EF72F0010E056EE9EF71F0D89077
:10E3CC0003360436052A04AEEEEF71F0F0EF71F06F
:10E3DC00E5EF71F00350015C04500258D8A0F9EF3E
:10E3EC0071F0FBEF71F0FFEF71F00350015E045020
:10E3FC00025AD89004320332052EF0EF71F0065019
:10E40C00D8B40BEF72F00DEF72F011EF72F0016CEB
:10E41C00021ED8B0022A01C001F002C002F01200A4
:10E42C00A1EC6BF00009D8B41EEF72F020EF72F083
:10E43C0016EF72F0B40E4DEC6BF0126A2CEC6BF024
:10E44C000009D8B42CEF72F02EEF72F024EF72F0BA
:10E45C001250080FD96EDA6A8FEC6FF0DF6E2CEC6D
:10E46C006BF00009D8B43DEF72F03FEF72F035EF6E
:10E47C0072F012500D0FD96EDA6A8FEC6FF0DF6EFE
:10E48C0012500D0FD96EDA6ADF50046E0450066E0E
:10E49C00056A1250080FD96EDA6ADF50076E075002
:10E4AC000526000E06221250020DF350960FD96E5F
:10E4BC00DA6A600017F0DEFF60001BF0DDFF122A45
:10E4CC00040E12646CEF72F06EEF72F024EF72F0C7
:10E4DC00960E120082EC6BF0140E29EC6EF0100EFE
:10E4EC002E6E390E2D6E0E0EE82EFED72D2EFCD76D
:10E4FC002E2EFAD7E0EC6AF02C50D96EDA6A030EA5
:10E50C00D926DF50D8B48DEF72F08FEF72F0A7EFF1
:10E51C0072F0140E026E140EF3EC6DF05DEC74F0F0
:10E52C002C50D96EDA6A020ED926DF50D8B4A1EF7E
:10E53C0072F0A3EF72F094EF72F0E0EC6AF0CAEFB5
:10E54C0072F02C50D96EDA6A010ED926DF50D8B48D
:10E55C00B2EF72F0B4EF72F0CAEF72F0140E026EFA
:10E56C00140EBDEC6DF05DEC74F02C50D96EDA6AC3
:10E57C00020ED926DF50D8B4C6EF72F0C8EF72F095
:10E58C00B9EF72F0A3EF72F076EC70F01200066A3D
:10E59C0004BED5EF72F0D3EF72F0DBEF72F0036CC8
:10E5AC00041ED8B0042A010E066E02BEE2EF72F011
:10E5BC00E0EF72F0E8EF72F0016C021ED8B0022AA4
:10E5CC00010E061A086A000E076E03500410D8B428
:10E5DC00F2EF72F0F4EF72F01CEF73F0010E056EB7
:10E5EC00FCEF72F0D89003360436052A04AE01EF26
:10E5FC0073F003EF73F0F8EF72F0D890073608362B
:10E60C000350015C04500258D8A00FEF73F011EFC7
:10E61C0073F016EF73F00350015E0450025A07803A
:10E62C00D89004320332052E03EF73F00650D8B4A1
:10E63C0022EF73F024EF73F028EF73F0076C081ED1
:10E64C00D8B0082A07C001F008C002F01200E50E8D
:10E65C00206EFB0E216E67EC6BF0BB0E206EFD0E78
:10E66C00216E67EC6BF0550E206EFD0E216E67EC83
:10E67C006BF0990E206EFD0E216E67EC6BF0770E31
:10E68C00206EFD0E216E67EC6BF0550E206EFD0EAC
:10E69C00216E67EC6BF0BB0E206EFD0E216E67ECED
:10E6AC006BF0C60E206EFC0E216E67EC6BF0370E15
:10E6BC00206EFE0E216E67EC6BF0DD0E206EFD0EF3
:10E6CC00216E67EC6BF0C90E206EFC0E216E67ECB0
:10E6DC006BF0100E206EFD0E216E67EC6BF0E50EEC
:10E6EC00206EFB0E216E67EC6BF0820E206EFB0E23
:10E6FC00216E67EC6BF0E50E206EFB0E216E67EC65
:10E70C006BF0330E206EFD0E216E67EC6BF0ED0E90
:10E71C00206EFC0E216E67EC6BF0E80E206EFE0E88
:10E72C00216E67EC6BF0BA0E206EFE0E216E67EC5C
:10E73C006BF0D10E206EFE0E216E67EC6BF0E50EC9
:10E74C00206EFB0E216E67EC6BF0710E206EFE0ED0
:10E75C00216E67EC6BF0C60E206EFC0E216E67EC22
:10E76C006BF01200406E40C042F074EC6BF0C80EBF
:10E77C00026EFF0E036E080E046E27EC70F0480E4E
:10E78C00016E900E37EC6BF0DCEC6AF0010E026E51
:10E79C00000E79EC6CF0350E206E770E216EFF0EAC
:10E7AC00226E42C023F0246AE5EC6BF02050416EDF
:10E7BC00350E026E036A41C004F027EC70F052EF84
:10E7CC0074F090EC6BF001C03EF002C03FF01B0EF9
:10E7DC003E5CB70E3F58D8A0F6EF73F0F8EF73F02D
:10E7EC0052EF74F04206026A000E016E0CEC6BF0F4
:10E7FC0043EF74F074EC6BF0010E026E000E79ECCA
:10E80C006CF0380E026EFF0E036E080E046E27ECD1
:10E81C0070F052EF74F0010E026E000E79EC6CF099
:10E82C00410E026EFF0E036E080E046E27EC70F0A4
:10E83C0052EF74F0010E026E000E79EC6CF0530E78
:10E84C00026EFF0E036E080E046E27EC70F052EF92
:10E85C0074F0010E026E000E79EC6CF0350E206E29
:10E86C00770E216EFF0E226E42C023F0246AE5EC77
:10E87C006BF02050416EDEEF73F04250000AD8B4BA
:10E88C0000EF74F0010AD8B411EF74F0030AD8B495
:10E89C0020EF74F02FEF74F04250D8A458EF74F0BE
:10E8AC005AEF74F0E7EF73F0DEEC6AF0120020EE32
:10E8BC00D3F010EE0FF0090E6F006FFFE3FFE806C8
:10E8CC00FBE2246A000E236E256AA1EC6BF00009B2
:10E8DC00D8B473EF74F075EF74F06BEF74F0870EBF
:10E8EC004DEC6BF0296A000E286E2CEC6BF00009D5
:10E8FC00D8B483EF74F085EF74F07BEF74F028508C
:10E90C00190FD96EDA6A8FEC6FF0DF6E2CEC6BF0AE
:10E91C000009D8B494EF74F096EF74F08CEF74F0A7
:10E92C0028501E0FD96EDA6A8FEC6FF0DF6E28500C
:10E93C001E0FD96EDA6ADF50096E09500B6E0A6A27
:10E94C002850190FD96EDA6ADF500C6E0C500A265B
:10E95C00000E0B222850020DF350870FD96EDA6A85
:10E96C0060002BF0DEFF60002FF0DDFF284A292A23
:10E97C0029BECAEF74F0295009E1050E285CD8A015
:10E98C00CAEF74F0CCEF74F07BEF74F02B6A000ECE
:10E99C002A6E2A50020DF350870FD96EDA6A5E0E7A
:10E9AC00DE5C010EDE58D8A0DEEF74F0E0EF74F000
:10E9BC00F2EF74F02A50910FD96EDA6A010EDF6E05
:10E9CC002A50020DF3507D0FD96EDA6A010EDE6EFD
:10E9DC00000EDD6EFFEF74F02A50910FD96EDA6ADB
:10E9EC00DF6A2A50020DF3507D0FD96EDA6ADE6AA7
:10E9FC00DD6A2A4A2B2A2BBE0DEF75F02B5009E14C
:10EA0C00050E2A5CD8A00DEF75F00FEF75F0CFEF67
:10EA1C0074F0276A000E266E2650020DF3500F0F6D
:10EA2C00D96EDA6A6F0078FF09F06F0074FF0AF094
:10EA3C002650910FD96EDA6ADF500B6E0C6A0950B2
:10EA4C000B026F00CCFF0DF06F00D0FF0EF00C022C
:10EA5C00F3500E260A500B02F3500E260D502326AF
:10EA6C000E5024222650910FD96EDA6ADF502526DB
:10EA7C00264A272A27BE4CEF75F0275009E1050ED0
:10EA8C00265CD8A04CEF75F04EEF75F012EF75F0D8
:10EA9C0023C001F024C002F025C003F0046ACDECC1
:10EAAC0072F01200126A000E116E0C50D96EDA6AF6
:10EABC006F007BFFF6FF6F0077FFF7FFF86A080027
:10EACC00F550250AD8A46DEF75F06FEF75F0E1EFF6
:10EADC0076F00C50D96EDA6ADE2A000EDD224A6A14
:10EAEC00000E496E49C04FF04B684C680C50D96E03
:10EAFC00DA6A6F0078FF13F06F0074FF14F0600097
:10EB0C004FF0F6FF600053F0F7FFF86A0800F5507D
:10EB1C00640AD8B494EF75F096EF75F0A7EF75F022
:10EB2C0060004FF0F6FF600053F0F7FFF86A080042
:10EB3C00F550690AD8A4A5EF75F0A7EF75F045EF6D
:10EB4C0076F00D50D96EDA6A020EDF26DF5CD96ED4
:10EB5C00DA6A6F0078FF15F06F0078FF16F0010E7F
:10EB6C0013240E6E000E14200F6E0C50D96EDA6A40
:10EB7C0060003BF0DEFF60003FF0DDFF200E196E01
:10EB8C0016BECBEF75F0CEEF75F0010ECFEF75F032
:10EB9C00000E106E1906000E1924D96EDA6A010ED9
:10EBAC00DA2215C001F016C002F0046A0A0E036ED8
:10EBBC00BFEC71F001C007F002C008F0CBEC6BF0B9
:10EBCC000750300FDF6E15C001F016C002F0046A5A
:10EBDC000A0E036ECDEC72F001C015F002C016F0F7
:10EBEC00114A122A15501610D8B4FFEF75F001EF28
:10EBFC0076F009EF76F01950D8A407EF76F009EF0C
:10EC0C0076F0D0EF75F01950D8B40FEF76F011EF15
:10EC1C0076F036EF76F01050D8B417EF76F019EF97
:10EC2C0076F036EF76F01906000E1924D96EDA6AF2
:10EC3C00010EDA222D0EDF6E114A122A36EF76F013
:10EC4C00000E1924D96EDA6A010EDA22DF500E6E2C
:10EC5C000E50036E046A0BC005F069EC71F0192AB2
:10EC6C00200E1918D8A43DEF76F03FEF76F026EF82
:10EC7C0076F011C00BF012C00CF0FCEF76F06000D7
:10EC8C004FF0F6FF600053F0F7FFF86A0800F550FC
:10EC9C00750AD8A454EF76F056EF76F0D6EF76F0EE
:10ECAC000D50D96EDA6A020EDF26DF5CD96EDA6A95
:10ECBC006F0078FF15F06F0078FF16F0010E13242B
:10ECCC000E6E000E14200F6E0C50D96EDA6A6000B6
:10ECDC003BF0DEFF60003FF0DDFFC7EF76F0200E6B
:10ECEC00196E1906000E1924D96EDA6A010EDA2291
:10ECFC0015C001F016C002F0046A0A0E036E55EC42
:10ED0C006DF00150300FDF6E15C001F016C002F02F
:10ED1C00046A0A0E036E96EC6EF001C015F002C088
:10ED2C0016F0114A122A15501610D8B4A0EF76F02E
:10ED3C00A2EF76F0BCEF76F01950D8A4A8EF76F0DD
:10ED4C00AAEF76F077EF76F0BCEF76F0000E192490
:10ED5C00D96EDA6A010EDA22DF500E6E0E50036E97
:10ED6C00046A0BC005F069EC71F0192A200E191811
:10ED7C00D8A4C3EF76F0C5EF76F0ACEF76F03FEFAA
:10ED8C0076F060004FF0F6FF600053F0F7FFF86A82
:10ED9C000800F550750AD8B475EF76F0D6EF76F01A
:10EDAC000C50D96EDA6ADE2A000EDD220C6A000ED7
:10EDBC000B6EFCEF76F00C50D96EDA6A6F007BFFAD
:10EDCC00F6FF6F0077FFF7FFF86A0800F550036E47
:10EDDC00046A0BC005F069EC71F00C50D96EDA6A5C
:10EDEC00DE2A000EDD220C6A010E0B6E120012ECF4
:10EDFC006BF0C5EC70F052EC6CF007EC6CF0C38A65
:10EE0C003A01509BCBBA0DEF77F00FEF77F0C0EFD4
:10EE1C007CF02DEC73F074EC6BF0000E026E000EB7
:10EE2C0079EC6CF0B60E026EFF0E036E080E046EDB
:10EE3C0027EC70F024EC6DF002C0C9F003C0CAF0EE
:10EE4C00B50E206EEA0E216EFF0E226EC9C023F0A5
:10EE5C00CAC024F0E5EC6BF020500001D06F010E1D
:10EE6C00026E000E79EC6CF0B50E026E036AD0C027
:10EE7C0004F027EC70F04BEC6FF00001C26F95EFD3
:10EE8C007CF074EC6BF0000E026E000E79EC6CF002
:10EE9C002E0E026EFF0E036E080E046E27EC70F041
:10EEAC00010E026E000E79EC6CF09B0E026EFF0EE2
:10EEBC00036E080E046E27EC70F0C60E206EFC0E6E
:10EECC00216E67EC6BF00001BE6BCBEF77F0430E5D
:10EEDC00206EFC0E216E67EC6BF0540E206EFE0E55
:10EEEC00216E67EC6BF04BEC6FF00001A06F16EC31
:10EEFC0072F00001C66FC86B000EC76FD16B040EA9
:10EF0C00D1658BEF77F08DEF77F08FEF77F0BAEF6D
:10EF1C0077F0D151020DC651F324D96EDA6A6F0025
:10EF2C0078FF43F06F0074FF44F0C7514324C76F60
:10EF3C00C8514420C86FFE0E206EFE0E216ED1C04B
:10EF4C0022F0236AD151020DC651F324D96EDA6A2C
:10EF5C006F0078FF24F06F0074FF25F067EC6BF006
:10EF6C000001D12B85EF77F0C751C811D8A4C1EFA0
:10EF7C0077F0C3EF77F0CBEF77F0010EBE6FFB0E9F
:10EF8C00206EFD0E216E67EC6BF00001BE51D8B403
:10EF9C00D2EF77F0D4EF77F06DEF77F0BF6B4BEFEC
:10EFAC0078F0700E206EFC0E216E67EC6BF0540E38
:10EFBC00206EFE0E216E67EC6BF04BEC6FF00001D7
:10EFCC00A06F16EC72F00001C66FC86B000EC76F15
:10EFDC00D16B040ED165F5EF77F0F7EF77F0F9EF21
:10EFEC0077F024EF78F0D151020DC651F324D96E8D
:10EFFC00DA6A6F0078FF43F06F0074FF44F0C7517A
:10F00C004324C76FC8514420C86FFE0E206EFE0EFD
:10F01C00216ED1C022F0236AD151020DC651F324C6
:10F02C00D96EDA6A6F0078FF24F06F0074FF25F058
:10F03C0067EC6BF00001D12BEFEF77F0880EC7195E
:10F04C0007E1130EC819D8A42EEF78F030EF78F042
:10F05C004BEF78F0010EBF6F190E206EFE0E216E75
:10F06C0067EC6BF08A0E206EFE0E216E67EC6BF077
:10F07C00010E026E000E79EC6CF0BF0E026EFF0EEC
:10F08C00036E080E046E27EC70F00001BF51D8B46B
:10F09C0052EF78F054EF78F0D7EF77F041EF77F04C
:10F0AC0074EC6BF0000E026E000E79EC6CF05C0EE2
:10F0BC00026EFF0E036E080E046E27EC70F0010E4C
:10F0CC00026E000E79EC6CF0E20E026EFF0E036E17
:10F0DC00080E046E27EC70F0C60E206EFC0E216E2E
:10F0EC0067EC6BF0A1EC6BF00009D8B480EF78F012
:10F0FC0082EF78F078EF78F0870E4DEC6BF0000132
:10F10C00CD6B000ECC6FCDBF95EF78F0CD5109E1F2
:10F11C00050ECC5DD8A095EF78F097EF78F099EFCD
:10F12C0078F0E1EF78F02CEC6BF00009D8B4A1EF9B
:10F13C0078F0A3EF78F099EF78F00001CC51AB0F99
:10F14C00D96EDA6A8FEC6FF0DF6E2CEC6BF0000985
:10F15C00D8B4B3EF78F0B5EF78F0ABEF78F00001FE
:10F16C00CC51B00FD96EDA6A8FEC6FF0DF6E000104
:10F17C00CC51B00FD96EDA6ADF50436E4350456EF6
:10F18C00446ACC51AB0FD96EDA6ADF50466E4650EA
:10F19C004426000E4522CC51020DF350A10FD96E1E
:10F1AC00DA6A600013F1DEFF600017F1DDFFCC4B73
:10F1BC00CD2B89EF78F0C46B000EC36FC4BFF0EF9A
:10F1CC0078F0C45109E1050EC35DD8A0F0EF78F0DA
:10F1DC00F2EF78F0F4EF78F041EF77F01F0E206E3D
:10F1EC00FF0E216EC3C022F0C4C023F0C351020D28
:10F1FC00F350A10FD96EDA6A6F0078FF24F06F001C
:10F20C0074FF25F067EC6BF00001C34BC42BE4EFEB
:10F21C0078F074EC6BF0000E026E000E79EC6CF072
:10F22C00DA0E026EFF0E036E070E046E27EC70F002
:10F23C00C60E206EFC0E216E67EC6BF0AD0E206ED0
:10F24C00FC0E216E67EC6BF04BEC6FF00001C56FA0
:10F25C003EEF79F0C60E206EFC0E216E67EC6BF063
:10F26C009D0E206EFC0E216E67EC6BF02AEF79F090
:10F27C002F0EC56544EF79F046EF79F030EF79F059
:10F28C00350EC5614CEF79F04EEF79F030EF79F037
:10F29C00000E026E070E79EC6CF00001C551A2EC69
:10F2AC006CF0A1EC6BF00009D8B45FEF79F061EF72
:10F2BC0079F057EF79F0870E4DEC6BF00001CF6BC6
:10F2CC00000ECE6FCFBF74EF79F0CF5109E1050E70
:10F2DC00CE5DD8A074EF79F076EF79F078EF79F015
:10F2EC00C0EF79F02CEC6BF00009D8B480EF79F01A
:10F2FC0082EF79F078EF79F00001CE51AB0FD96E37
:10F30C00DA6A8FEC6FF0DF6E2CEC6BF00009D8B47E
:10F31C0092EF79F094EF79F08AEF79F00001CE5109
:10F32C00B00FD96EDA6A8FEC6FF0DF6E0001CE5140
:10F33C00B00FD96EDA6ADF50436E4350456E446AA3
:10F34C00CE51AB0FD96EDA6ADF50466E465044266A
:10F35C00000E4522CE51020DF350A10FD96EDA6A80
:10F36C00600013F1DEFF600017F1DDFFCE4BCF2BF9
:10F37C0068EF79F0C551D00FC26F100E206EFF0EE2
:10F38C00216EC2C022F0236AC251020DF350A10FAC
:10F39C00D96EDA6A6F0078FF24F06F0074FF25F0E5
:10F3AC0067EC6BF041EF77F074EC6BF0000E026ED3
:10F3BC00000E79EC6CF0A40E026EFF0E036E080EBC
:10F3CC00046E27EC70F0C60E206EFC0E216E67ECFE
:10F3DC006BF024EC6DF002C0C9F003C0CAF0B50E9E
:10F3EC00206EEA0E216EFF0E226EC9C023F0CAC039
:10F3FC0024F0E5EC6BF020500001D06F010E026E92
:10F40C00000E79EC6CF0B50E026E036AD0C004F0FD
:10F41C0027EC70F0A20E206EFE0E216EC9C022F0F9
:10F42C00CAC023F067EC6BF041EF77F074EC6BF033
:10F43C00000E026E000E79EC6CF0920E026EFF0E56
:10F44C00036E080E046E27EC70F0C60E206EFC0ED8
:10F45C00216E67EC6BF0160E206EFC0E216E67ECC5
:10F46C006BF008EC6FF00001D26FD25129EC6EF00A
:10F47C00B50E206EF60E216EFF0E226ED2C023F05A
:10F48C00246AE5EC6BF020500001D06F010E026E87
:10F49C00000E79EC6CF0B50E026E036AD0C004F06D
:10F4AC0027EC70F0A1EC6BF00009D8B460EF7AF0A7
:10F4BC0062EF7AF058EF7AF0C10E4DEC6BF0A1ECE4
:10F4CC006BF00009D8B46DEF7AF06FEF7AF065EF5E
:10F4DC007AF00001D2514DEC6BF0A1EC6BF000090D
:10F4EC00D8B47BEF7AF07DEF7AF073EF7AF0C50E3B
:10F4FC004DEC6BF0A1EC6BF00009D8B488EF7AF00E
:10F50C008AEF7AF080EF7AF00001D2514DEC6BF07B
:10F51C0041EF77F074EC6BF0000E026E000E79EC9C
:10F52C006CF0AD0E026EFF0E036E080E046E27EC2F
:10F53C0070F0C60E206EFC0E216E67EC6BF0E80EC0
:10F54C00206EFB0E216E67EC6BF008EC6FF0000187
:10F55C00D26FD25187EC6DF0B50E206EF60E216E87
:10F56C00FF0E226ED2C023F0246AE5EC6BF0205023
:10F57C000001D06F010E026E000E79EC6CF0B50E2E
:10F58C00026E036AD0C004F027EC70F0A1EC6BF0B3
:10F59C000009D8B4D4EF7AF0D6EF7AF0CCEF7AF049
:10F5AC00C20E4DEC6BF0A1EC6BF00009D8B4E1EF9E
:10F5BC007AF0E3EF7AF0D9EF7AF00001D2514DEC0A
:10F5CC006BF0A1EC6BF00009D8B4EFEF7AF0F1EF2F
:10F5DC007AF0E7EF7AF0C60E4DEC6BF0A1EC6BF025
:10F5EC000009D8B4FCEF7AF0FEEF7AF0F4EF7AF081
:10F5FC000001D2514DEC6BF041EF77F074EC6BF0F5
:10F60C00000E026E000E79EC6CF0800E026EFF0E96
:10F61C00036E080E046E27EC70F0C60E206EFC0E06
:10F62C00216E67EC6BF0160E206EFC0E216E67ECF3
:10F63C006BF008EC6FF00001D26F3B0E206EFB0EEE
:10F64C00216E67EC6BF008EC6FF00001CB6FD251C0
:10F65C00CB25C06FC16BC137CBC002F0D251CFEC00
:10F66C006EF0B50E206EF00E216EFF0E226ED2C023
:10F67C0023F0246ACBC025F0266AE5EC6BF0205011
:10F68C000001D06F010E026E000E79EC6CF0B50E1D
:10F69C00026E036AD0C004F027EC70F0A1EC6BF0A2
:10F6AC000009D8B45CEF7BF05EEF7BF054EF7BF09D
:10F6BC00C10E4DEC6BF0A1EC6BF00009D8B469EF06
:10F6CC007BF06BEF7BF061EF7BF00001C0514DECF8
:10F6DC006BF0A1EC6BF00009D8B477EF7BF079EF0D
:10F6EC007BF06FEF7BF0C50E4DEC6BF0A1EC6BF08B
:10F6FC000009D8B484EF7BF086EF7BF07CEF7BF0D5
:10F70C000001D2514DEC6BF041EF77F074EC6BF0E3
:10F71C00000E026E000E79EC6CF0890E026EFF0E7C
:10F72C00036E080E046E27EC70F0C60E206EFC0EF5
:10F73C00216E67EC6BF0160E206EFC0E216E67ECE2
:10F74C006BF008EC6FF00001D26F3B0E206EFB0EDD
:10F75C00216E67EC6BF008EC6FF00001CB6FD251AF
:10F76C00CB25C06FC16BC137CBC002F0D2515FEC5F
:10F77C006EF0B50E206EF00E216EFF0E226ED2C012
:10F78C0023F0246ACBC025F0266AE5EC6BF0205000
:10F79C000001D06F010E026E000E79EC6CF0B50E0C
:10F7AC00026E036AD0C004F027EC70F0A1EC6BF091
:10F7BC000009D8B4E4EF7BF0E6EF7BF0DCEF7BF0F4
:10F7CC00C10E4DEC6BF0A1EC6BF00009D8B4F1EF6D
:10F7DC007BF0F3EF7BF0E9EF7BF00001D2514DECC5
:10F7EC006BF0A1EC6BF00009D8B4FFEF7BF001EFEC
:10F7FC007CF0F7EF7BF0C50E4DEC6BF0A1EC6BF0F1
:10F80C000009D8B40CEF7CF00EEF7CF004EF7CF028
:10F81C000001C0514DEC6BF041EF77F074EC6BF0E4
:10F82C00000E026E000E79EC6CF06E0E026EFF0E86
:10F83C00036E080E046E27EC70F0C60E206EFC0EE4
:10F84C00216E67EC6BF0E0EC6AF0A1EC6BF0000958
:10F85C00D8B433EF7CF035EF7CF02BEF7CF0C10E9D
:10F86C004DEC6BF0A1EC6BF00009D8B440EF7CF0E0
:10F87C0042EF7CF038EF7CF0000E4DEC6BF0A1EC1D
:10F88C006BF00009D8B44DEF7CF04FEF7CF045EFF6
:10F89C007CF0C50E4DEC6BF0A1EC6BF00009D8B40C
:10F8AC005AEF7CF05CEF7CF052EF7CF0000E4DECEC
:10F8BC006BF041EF77F074EC6BF0000E026E000E03
:10F8CC0079EC6CF0B60E026EFF0E036E080E046E31
:10F8DC0027EC70F024EC6DF002C0C9F003C0CAF044
:10F8EC00B50E206EEA0E216EFF0E226EC9C023F0FB
:10F8FC00CAC024F0E5EC6BF020500001D06F010E73
:10F90C00026E000E79EC6CF0B50E026E036AD0C07C
:10F91C0004F027EC70F02DEC73F041EF77F0C2514E
:10F92C00420AD8B490EF7AF0040AD8B41CEF7AF0FB
:10F93C000A0AD8B404EF7BF01E0AD8B48CEF7BF023
:10F94C00010AD8B414EF7CF0300AD8B447EF77F042
:10F95C00070AD8B40FEF79F0090AD8B461EF7CF03C
:10F96C001F0AD8B456EF78F0040AD8B4DAEF79F05D
:10F97C0041EF77F0CBAAC5EF7CF0C7EF7CF088EFB6
:10F98C007DF02DEC73F074EC6BF0000E026E000E3B
:10F99C0079EC6CF04A0E026EFF0E036E080E046ECC
:10F9AC0027EC70F024EC6DF002C0C9F003C0CAF073
:10F9BC00B50E206EEA0E216EFF0E226EC9C023F02A
:10F9CC00CAC024F0E5EC6BF020500001D06F010EA2
:10F9DC00026E000E79EC6CF0B50E026E036AD0C0AC
:10F9EC0004F027EC70F03D0E446EE10E436E400EB9
:10F9FC00E82EFED7432EFCD7442EFAD7000E026E0B
:10FA0C00000E79EC6CF0D10E026EFF0E036E080E38
:10FA1C00046E27EC70F0F6EC6CF0010E026E000E2A
:10FA2C0079EC6CF0650E026EFF0E036E080E046E20
:10FA3C0027EC70F0060EB8EC73F0100E436E940EBB
:10FA4C00E82EFED7432EFCD700D0400E016E900E50
:10FA5C0037EC6BF076EC70F05DEC74F052505310A8
:10FA6C00D8A43BEF7DF03DEF7DF046EF7DF05A5092
:10FA7C005B10D8B444EF7DF046EF7DF05EEF7DF087
:10FA8C0054505510D8B44DEF7DF04FEF7DF058EF3A
:10FA9C007DF058505910D8A456EF7DF058EF7DF0FA
:10FAAC005EEF7DF0520E2C6E15EC71F032EF7DF0A6
:10FABC0054505510D8A465EF7DF067EF7DF070EFD2
:10FACC007DF058505910D8B46EEF7DF070EF7DF08A
:10FADC0032EF7DF052505310D8A477EF7DF079EFD0
:10FAEC007DF032EF7DF05A505B10D8A480EF7DF0A2
:10FAFC0082EF7DF032EF7DF0520E2C6E70EC72F0D6
:10FB0C0032EF7DF0FEEF7FF00000000000000000FF
:10FB1C0000000000000000000000000000000000D9
:10FB2C0000000000000000000000000000000009C0
:10FB3C0020506C6561736520656E74657220746805
:10FB4C0065207475726E696E67206469666665728D
:10FB5C00656E7469616C3A207370656564202B2046
:10FB6C00646966666572656E7469616C203C2031EF
:10FB7C003237200D0A00202076200909202876290A
:10FB8C006F6C74616765202D205265616420616E15
:10FB9C006420646973706C6179206261747465723D
:10FBAC007920766F6C74616765200D0A00496E765A
:10FBBC00616C696420696E7075742E20506C65617F
:10FBCC007365207265646F206E756D657269636113
:10FBDC006C20696E7075742E200D0A000920506C13
:10FBEC006561736520656E7465722074686520624A
:10FBFC0061636B776172642073706565642C20306F
:10FC0C00202D20313237200D0A000920506C6561FF
:10FC1C00736520656E7465722074686520666F72FA
:10FC2C00776172642073706565642C2030202D2000
:10FC3C00313237200D0A00506C61636520616C6CA9
:10FC4C0020666976652073656E736F7273206F6EB4
:10FC5C0020612077686974652073757266616365CD
:10FC6C00200A0D00506C61636520616C6C20666924
:10FC7C0076652073656E736F7273206F6E206120D2
:10FC8C00626C61636B2073757266616365200A0D2B
:10FC9C0000496E76616C696420656E7472792E20F1
:10FCAC0020456E7465722073656E736F72206E756D
:10FCBC006D6265722C20302D34200A0D00202072CC
:10FCCC00200909202872296561642063616C6962CE
:10FCDC0072617465642073656E736F7273200D0AA4
:10FCEC000020204220090920576865656C7320723A
:10FCFC006F746174652028422961636B776172644B
:10FD0C00200D0A0020206420090920286429697329
:10FD1C00706C61792073656E736F722078207661D8
:10FD2C006C7565200D0A00202046200909205768B3
:10FD3C0065656C7320726F74617465202846296F39
:10FD4C007277617264200D0A00092A20202020207D
:10FD5C002020202020202020202020202020202097
:10FD6C00202020202020202A0D0A00092A202020D3
:10FD7C00202020446961676E6F73746963204D6540
:10FD8C006E75202020202020202A0D0A00092A2010
:10FD9C002020415053432031323939202D20506FCF
:10FDAC006C6F6C75203370692020202A0D0A0009B5
:10FDBC002A2A2A2A2A2A2A2A2A2A2A2A2A2A2A2A97
:10FDCC002A2A2A2A2A2A2A2A2A2A2A2A2A2A0D0AC4
:10FDDC000020206320090920286329616C69627264
:10FDEC006174652073656E736F7273200D0A005712
:10FDFC00686974652063616C6962726174696F6EA5
:10FE0C0020636F6D706C657465200A0D00426C6127
:10FE1C00636B2063616C6962726174696F6E2063DD
:10FE2C006F6D706C657465200A0D00436F6D6D61AC
:10FE3C006E64204B65792009204465736372697088
:10FE4C0074696F6E200D0A00507265737320616EB9
:10FE5C0079206B657920746F20636F6E74696E7591
:10FE6C0065200A0D0020206D20090920526566725C
:10FE7C0065736820286D29656E75200D0A00436135
:10FE8C006C6962726174696F6E20636F6D706C6502
:10FE9C007465200A0D004261747465727920766F66
:10FEAC006C74616765203D202575200A0D002020AB
:10FEBC0052200909202852296967687420747572C8
:10FECC006E200D0A00202053200909202853297484
:10FEDC006F70206D6F746F72200D0A0020204C2003
:10FEEC00090920284C29656674207475726E200DE2
:10FEFC000A0053656E736F72202575203D202575A1
:10FF0C00200A0D0053656E736F722025643A20250C
:10FF1C00750A0053656E736F722E2025642025754B
:10FF2C000A0043616C69627261746500202020478D
:10FF3C004F2020200020205345542020200020203A
:10FF4C0052756E202020002052454144592020003B
:10FF5C002020526561642020002020646F6E652093
:10FF6C002000202053746F70202000202025752045
:10FF7C007320200020204C656674202000205269DC
:10FF8C00676874202000466F72776172642000539A
:10FF9C00656E736F727320004261747465727920A0
:10FFAC00004261636B7761726400446961676E6FD4
:10FFBC00736500436F6D706C65746500436F756E8F
:10FFCC0074696E67004175746F2043616C005365F2
:10FFDC006E736F72200053656E736F7273002575AC
:10FFEC00206D5600257520257500202575200000F4
:04FFFC002CEF6CF08A
:020000040030CA
:0A000000ECFEF7FF9FFFFFFFFFFF7C
:00000001FF
