:04000000FEEF7FF0A0
:10D26A00120012001200120012001200B88E1200F0
:10D27A00B89E1200000E4CEC6CF01200026E0250C6
:10D28A00B9EC69F0120001C0FBF002C0FCF0120018
:10D29A0001C05EF002C05FF0120001C05CF002C083
:10D2AA005DF0120001C0F5F002C0F6F0120001C0F4
:10D2BA00F9F002C0FAF0120001C0F7F002C0F8F06B
:10D2CA001200FEFFFFFF0000010002001050B76EBF
:10D2DA0060003FF0B6FF120081EC69F06DEC6FF070
:10D2EA0078EC69F01200600E3901D96FDB6BDD6BE7
:10D2FA00070EDF6FDE6B12003901C06BC16BC26BA8
:10D30A00C36BC46BC56BC66BC76B12003901A3B77D
:10D31A0091EF69F094EF69F0010E95EF69F0000E54
:10D32A001200026E60000BF0B8FF600007F0B9FF50
:10D33A00B89E3901A39F12003901A6B5A7EF69F07B
:10D34A00AAEF69F0010EABEF69F0000E1200016E50
:10D35A003901A3A9B3EF69F0B5EF69F0ADEF69F050
:10D36A00600007F0EAFD1200016E3901A6A7C0EFBE
:10D37A0069F0C2EF69F0BAEF69F0600007F0D2FD18
:10D38A001200220E266E000E1A6E20C01BF021C05B
:10D39A001CF0260E1D6E24EC6BF0120000EC6AF0F5
:10D3AA000009D8B4DBEF69F0DDEF69F0D3EF69F07B
:10D3BA00B70EACEC69F0120000EC6AF00009D8B4C0
:10D3CA00E9EF69F0EBEF69F0E1EF69F0BC0EACEC64
:10D3DA0069F012006F00D8FE07F06F00DCFE08F05B
:10D3EA000850036E0750056E03C006F005C001F031
:10D3FA0006C002F01200016A3901A3A907EF6AF018
:10D40A0009EF6AF013EF6AF03D01F2AB0FEF6AF031
:10D41A0011EF6AF013EF6AF0010E016E015012006B
:10D42A00016A3901A6A71CEF6AF01EEF6AF028EF1D
:10D43A006AF03D01DAAB24EF6AF026EF6AF028EFD2
:10D44A006AF0010E016E0150120008BE2FEF6AF059
:10D45A0031EF6AF037EF6AF007C007F008C008F04A
:10D46A0043EF6AF007C009F008C00AF0091E0A1E55
:10D47A00094A0A2A09C007F00AC008F01200CC0EAD
:10D48A00F66ED20EF76E000EF86E00EEEBF010EEAE
:10D49A000AF009006F00D7FFEEFFE550E150F9E10D
:10D4AA0000EE60F0580EEE6AE806FDE100EE47F085
:10D4BA00150EEE6AE806FDE1000193EF76F0230E01
:10D4CA00296E20C02AF02D6A000E2C6E346A000ED6
:10D4DA00336E2A0E1A6E21C01BF022C01CF0290ED0
:10D4EA001D6E24EC6BF01AC027F01BC028F02050E8
:10D4FA002C24D96EDA6ADF6A27C020F028C021F00E
:10D50A0012003D01D46BD66BD86BB00EDA6F800E69
:10D51A00DB6FDC6BE10EDD6F040EDE6FDF6BE06B41
:10D52A00E16BE26B720E016ED20E026E5CEC69F078
:10D53A00740E016ED20E026E61EC69F0700E016E0D
:10D54A00D20E026E57EC69F05A6A12003D01EC6B7A
:10D55A00ED6BEE6BEF6BF06BF16BB00EF26F800E52
:10D56A00F36FF46B670EF56FF66BF76BF86BF96B8D
:10D57A00FA6B6C0E016ED20E026E4DEC69F06E0EF5
:10D58A00016ED20E026E52EC69F06A0E016ED20E74
:10D59A00026E48EC69F05B6A1200036E00EC6AF0F6
:10D5AA000009D8B4DBEF6AF0DDEF6AF0D3EF6AF076
:10D5BA00B90EACEC69F000EC6AF00009D8B4E8EFF7
:10D5CA006AF0EAEF6AF0E0EF6AF00350ACEC69F057
:10D5DA0000EC6AF00009D8B4F5EF6AF0F7EF6AF0E8
:10D5EA00EDEF6AF00250ACEC69F01200026E00EC4A
:10D5FA006AF00009D8B404EF6BF006EF6BF0FCEFA9
:10D60A006AF0B80EACEC69F000EC6AF00009D8B424
:10D61A0011EF6BF013EF6BF009EF6BF0010EACEC4E
:10D62A0069F000EC6AF00009D8B41EEF6BF020EF45
:10D63A006BF016EF6BF00250ACEC69F012001BC0F5
:10D64A001EF01CC01FF0526A000E516E39EF6BF0CB
:10D65A001AC00BF01E0E0C6E1DC00DF0F8EC74F023
:10D66A000B5051260C50522260007BF0F6FF6000EE
:10D67A007FF0F7FFF86A0800F5500009D8A448EFD0
:10D68A006BF04AEF6BF02DEF6BF051C01AF052C0FD
:10D69A001BF0120000EC6AF00009D8B457EF6BF0E7
:10D6AA0059EF6BF04FEF6BF0BA0EACEC69F08BEC04
:10D6BA0069F00009D8B464EF6BF066EF6BF05CEFC9
:10D6CA006BF072EF6BF08BEC69F00009D8B470EF75
:10D6DA006BF072EF6BF068EF6BF0E8EC6DF0630AD9
:10D6EA00D8A47AEF6BF07CEF6BF068EF6BF0120066
:10D6FA0000EC6AF00009D8B485EF6BF087EF6BF0A5
:10D70A007DEF6BF0B10EACEC69F08BEC69F00009BF
:10D71A00D8B492EF6BF094EF6BF08AEF6BF0E8EC11
:10D72A006DF0066E8BEC69F00009D8B49FEF6BF0D0
:10D73A00A1EF6BF097EF6BF0E8EC6DF0076E075016
:10D74A00056E046A06500424026E000E0520036E5C
:10D75A00120003500410D8B4B5EF6BF0B7EF6BF0BA
:10D76A00DBEF6BF0010E056EBFEF6BF0D89003365E
:10D77A000436052A04AEC4EF6BF0C6EF6BF0BBEFBC
:10D78A006BF00350015C04500258D8A0CFEF6BF045
:10D79A00D1EF6BF0D5EF6BF00350015E0450025AE3
:10D7AA00D89004320332052EC6EF6BF001C001F0A7
:10D7BA0002C002F01200026E00EC6AF00009D8B44E
:10D7CA00E9EF6BF0EBEF6BF0E1EF6BF0C20EACEC54
:10D7DA0069F000EC6AF00009D8B4F6EF6BF0F8EFE4
:10D7EA006BF0EEEF6BF00250ACEC69F000EC6AF013
:10D7FA000009D8B403EF6CF005EF6CF0FBEF6BF0A7
:10D80A00C60EACEC69F000EC6AF00009D8B410EF6F
:10D81A006CF012EF6CF008EF6CF00228ACEC69F0D7
:10D82A001200036E00EC6AF00009D8B41FEF6CF026
:10D83A0021EF6CF017EF6CF0C10EACEC69F000EC64
:10D84A006AF00009D8B42CEF6CF02EEF6CF024EFDC
:10D85A006CF00350ACEC69F000EC6AF00009D8B443
:10D86A0039EF6CF03BEF6CF031EF6CF0C60EACECBC
:10D87A0069F000EC6AF00009D8B446EF6CF048EFA2
:10D88A006CF03EEF6CF00328ACEC69F01200026E0B
:10D89A0000EC6AF00009D8B455EF6CF057EF6CF061
:10D8AA004DEF6CF0C10EACEC69F000EC6AF00009C7
:10D8BA00D8B462EF6CF064EF6CF05AEF6CF002507F
:10D8CA00ACEC69F000EC6AF00009D8B46FEF6CF0C8
:10D8DA0071EF6CF067EF6CF0C50EACEC69F000EC20
:10D8EA006AF00009D8B47CEF6CF07EEF6CF074EF4C
:10D8FA006CF00228ACEC69F01200036E00EC6AF0DE
:10D90A000009D8B48BEF6CF08DEF6CF083EF6CF0FC
:10D91A00C50EACEC69F000EC6AF00009D8B498EFD7
:10D92A006CF09AEF6CF090EF6CF00350ACEC69F08D
:10D93A0000EC6AF00009D8B4A5EF6CF0A7EF6CF020
:10D94A009DEF6CF0C20EACEC69F000EC6AF00009D5
:10D95A00D8B4B2EF6CF0B4EF6CF0AAEF6CF0032815
:10D96A00ACEC69F01200036E00EC6AF00009D8B45E
:10D97A00C1EF6CF0C3EF6CF0B9EF6CF0C10EACEC18
:10D98A0069F000EC6AF00009D8B4CEEF6CF0D0EF81
:10D99A006CF0C6EF6CF003500224ACEC69F000ECBA
:10D9AA006AF00009D8B4DCEF6CF0DEEF6CF0D4EF6B
:10D9BA006CF0C50EACEC69F000EC6AF00009D8B462
:10D9CA00E9EF6CF0EBEF6CF0E1EF6CF00328ACECF4
:10D9DA0069F01200066A000E056E03500410D8B4EE
:10D9EA00F9EF6CF0FBEF6CF023EF6DF0010E076EB0
:10D9FA0003EF6DF0D89003360436072A04AE08EF19
:10DA0A006DF00AEF6DF0FFEF6CF0D8900536063630
:10DA1A000350015C04500258D8A016EF6DF018EFBD
:10DA2A006DF01DEF6DF00350015E0450025A05803F
:10DA3A00D89004320332072E0AEF6DF005C001F0C8
:10DA4A0006C002F01200046E00EC6AF00009D8B4B5
:10DA5A0031EF6DF033EF6DF029EF6DF0C10EACECE4
:10DA6A0069F000EC6AF00009D8B43EEF6DF040EFBF
:10DA7A006DF036EF6DF00450ACEC69F000EC6AF032
:10DA8A000009D8B44BEF6DF04DEF6DF043EF6DF038
:10DA9A00C50EACEC69F000EC6AF00009D8B458EF96
:10DAAA006DF05AEF6DF050EF6DF004500224036EE2
:10DABA000328ACEC69F012002868276A99EF6DF028
:10DACA00A4EC6DF0286E0D0E2818D8A46FEF6DF037
:10DADA0071EF6DF073EF6DF099EF6DF02F0E286412
:10DAEA0079EF6DF07BEF6DF083EF6DF0390E2864FE
:10DAFA0081EF6DF083EF6DF093EF6DF0C20E206E43
:10DB0A00FC0E216EC6EC69F0B50E206EFB0E216E7E
:10DB1A00C6EC69F0276A286899EF6DF027500A0D5C
:10DB2A00F3502824D00F276E0D0E2818D8A4A0EF82
:10DB3A006DF0A2EF6DF065EF6DF0275012000268EC
:10DB4A00CDEF6DF0A1EC69F00009D8B4AFEF6DF03C
:10DB5A00B1EF6DF0CDEF6DF033EC6EF0026E15ECB7
:10DB6A006AF00009D8B4BCEF6DF0BEEF6DF0CDEFEE
:10DB7A006DF00250B9EC69F00D0E0218D8A4C8EF86
:10DB8A006DF0CAEF6DF0CDEF6DF00A0EB9EC69F0E9
:10DB9A002F0E0264D3EF6DF0D5EF6DF0DDEF6DF06F
:10DBAA007A0E0264DBEF6DF0DDEF6DF0E6EF6DF0FB
:10DBBA000D0E0218D8A4E4EF6DF0E6EF6DF0A7EFB2
:10DBCA006DF0025012003901A3A7EEEF6DF0F0EFED
:10DBDA006DF0E8EF6DF05B6A3D01F9A7F7EF6DF0C4
:10DBEA00F9EF6DF006EF6EF05B8202D806EF6EF089
:10DBFA000500FA6E5E50FD6E5F50FE6EFF6AFA50C7
:10DC0A0012003D01F9A30CEF6EF00EEF6EF01BEF60
:10DC1A006EF05B8402D81BEF6EF00500FA6E5C5062
:10DC2A00FD6E5D50FE6EFF6AFA5012005B50D8B46A
:10DC3A0021EF6EF023EF6EF030EF6EF002D830EF86
:10DC4A006EF00500FA6E0001FB51FD6EFC51FE6E8E
:10DC5A00FF6AFA5012003D01E85112003901A6A5E7
:10DC6A0039EF6EF03BEF6EF033EF6EF05A6A3D011A
:10DC7A00E1A742EF6EF044EF6EF052EF6EF05A8277
:10DC8A0002D852EF6EF00500FA6E0001F951FD6EEE
:10DC9A00FA51FE6EFF6AFA5012003D01E1A358EFF5
:10DCAA006EF05AEF6EF068EF6EF05A8402D868EFA1
:10DCBA006EF00500FA6E0001F751FD6EF851FE6E26
:10DCCA00FF6AFA5012005A50D8B46EEF6EF070EF35
:10DCDA006EF07DEF6EF002D87DEF6EF00500FA6E01
:10DCEA000001F551FD6EF651FE6EFF6AFA50120000
:10DCFA003D01D0511200076A00EC6AF00009D8B45D
:10DD0A0089EF6EF08BEF6EF081EF6EF0B80EACEC2F
:10DD1A0069F000EC6AF00009D8B496EF6EF098EF5B
:10DD2A006EF08EEF6EF00450ACEC69F0C5EF6EF059
:10DD3A0000EC6AF00009D8B4A5EF6EF0A7EF6EF018
:10DD4A00C5EF6EF007500224056E000E0320066E22
:10DD5A00600017F0F6FF60001BF0F7FF000EF86E88
:10DD6A000F0EF76403D00800F55007D06F00DBFFF1
:10DD7A00E9FF6F00DFFFEAFFEF50ACEC69F0072A1A
:10DD8A000450075CD8A0CCEF6EF0CEEF6EF09DEF9A
:10DD9A006EF0120000EC6AF00009D8B4D7EF6EF00A
:10DDAA00D9EF6EF0CFEF6EF0BB0EACEC69F000EC81
:10DDBA006AF00009D8B4E4EF6EF0E6EF6EF0DCEF3B
:10DDCA006EF0140EACEC69F000EC6AF00009D8B4FD
:10DDDA00F1EF6EF0F3EF6EF0E9EF6EF0010EACECDE
:10DDEA0069F000EC6AF00009D8B4FEEF6EF000EFBB
:10DDFA006FF0F6EF6EF0140EACEC69F000EC6AF01E
:10DE0A000009D8B40BEF6FF00DEF6FF003EF6FF06E
:10DE1A00030EACEC69F000EC6AF00009D8B418EF14
:10DE2A006FF01AEF6FF010EF6FF0020EACEC69F0C2
:10DE3A001200156E3DEC69F0470E016E900E96ECDD
:10DE4A0069F01550056E066A076A086A670E016E60
:10DE5A00000E026E0F0E036E000E046EDEEC71F001
:10DE6A0001C011F002C012F003C013F004C014F094
:10DE7A0011C001F012C002F013C003F014C004F084
:10DE8A00080E056E000E066E000E076E000E086E76
:10DE9A00DEEC71F0015000080F6E0250D8A0E82A9B
:10DEAA000008106E6BEC69F03901A39F3BEC69F036
:10DEBA0015504CEC6CF03901A3AF66EF6FF068EFC8
:10DECA006FF060EF6FF03FEC69F03DEC69F0120023
:10DEDA00BE6ABD6ABA6ABB6ABC6A070EC66EC26807
:10DEEA00BF0EC36E840EC46EC5683A01706B606B58
:10DEFA002F0E506F070E806FEF0E406F716B816BA4
:10DF0A00516B416B616B5A6B5B6B6A6B6B6B7A6BB8
:10DF1A007B6B826B426B526B180E626F726B43693A
:10DF2A00536963697369070E836F44695469646945
:10DF3A0074690F0E846F0F0EE86F250E106F160EA0
:10DF4A000E6F210E136F0F0E116F220E146F170E24
:10DF5A00E56F040EC36F130EE16F0C0EDD6F140E26
:10DF6A00E26F120ECA6F0D0E156F130E166F1200A6
:10DF7A000550D8B4C3EF6FF0C5EF6FF0CDEF6FF077
:10DF8A000550D8A4CBEF6FF0CDEF6FF0D2EF6FF062
:10DF9A00035043EC69F012EF70F00550D96EDA6A5B
:10DFAA00090ED926DE50DE10D8B4DEEF6FF0E0EFAE
:10DFBA006FF0F9EF6FF00550D96EDA6A090ED926BB
:10DFCA000550E16EE26A020EE126DE50E65CE6509A
:10DFDA00800A0A6EDE50800A0A58D8B0F7EF6FF04E
:10DFEA00F9EF6FF012EF70F00550D96EDA6A020E8F
:10DFFA00D926DF50066E0550D96EDA6ADF5006243C
:10E00A00D96EDA6A60000FF0DFFF0550D96EDA6A5E
:10E01A00020ED926DE2A000EDD221200066A02BE90
:10E02A001BEF70F019EF70F021EF70F0016C021E17
:10E03A00D8B0022A010E066E04BE28EF70F026EF51
:10E04A0070F02CEF70F0036C041ED8B0042A035051
:10E05A000410D8B433EF70F035EF70F059EF70F068
:10E06A00010E056E3DEF70F0D89003360436052A8E
:10E07A0004AE42EF70F044EF70F039EF70F00350E5
:10E08A00015C04500258D8A04DEF70F04FEF70F0C9
:10E09A0053EF70F00350015E0450025AD8900432D4
:10E0AA000332052E44EF70F00650D8B45FEF70F0DB
:10E0BA0061EF70F065EF70F0016C021ED8B0022AB1
:10E0CA0001C001F002C002F0120000EC6AF000097F
:10E0DA00D8B472EF70F074EF70F06AEF70F0B40EAB
:10E0EA00ACEC69F0126A8BEC69F00009D8B480EFE5
:10E0FA0070F082EF70F078EF70F01250080FD96E5E
:10E10A00DA6AE8EC6DF0DF6E8BEC69F00009D8B4DE
:10E11A0091EF70F093EF70F089EF70F012500D0FDD
:10E12A00D96EDA6AE8EC6DF0DF6E12500D0FD96E17
:10E13A00DA6ADF50046E0450066E056A1250080F40
:10E14A00D96EDA6ADF50076E07500526000E0622DE
:10E15A001250020DF350AE0FD96EDA6A600017F052
:10E16A00DEFF60001BF0DDFF122A040E1264C0EF0E
:10E17A0070F0C2EF70F078EF70F0AE0E1200E1ECC2
:10E18A0069F0196A000E186E0A0E1EEC6FF0EEECBA
:10E19A0072F00001A905D8A4D5EF70F0D7EF70F09E
:10E1AA00DBEF70F0CFEC6EF020EF71F0184A192A0D
:10E1BA0019BEE9EF70F0195009E1080E185CD8A0F1
:10E1CA00E9EF70F0EBEF70F0C9EF70F03C0E026E01
:10E1DA003C0E16EC6CF0100E176E390E166E0E0E03
:10E1EA00E82EFED7162EFCD7172EFAD73FEC69F089
:10E1FA001B6A000E1A6E0A0E1EEC6FF0EEEC72F03D
:10E20A000001A905D8A40CEF71F00EEF71F010EF20
:10E21A0071F0D7EF70F01A4A1B2A1BBE1EEF71F07D
:10E22A001B5009E1080E1A5CD8A01EEF71F020EF0E
:10E23A0071F000EF71F01200E1EC69F0140E4CEC91
:10E24A006CF0160E176E4F0E166E7B0EE82EFED76A
:10E25A00162EFCD7172EFAD700003FEC69F0EEEC29
:10E26A0072F00001A951D8A43DEF71F03FEF71F0AF
:10E27A007BEF71F0B90E145C0B0E1558D8A048EF5D
:10E28A0071F04AEF71F05EEF71F01E0E026E1E0E13
:10E29A0016EC6CF0EEEC72F00001A951D8B458EF0C
:10E2AA0071F05AEF71F04FEF71F03FEC69F07BEFCC
:10E2BA0071F0B80E145C0B0E1558D8B067EF71F0F8
:10E2CA0069EF71F07BEF71F01E0E026E1E0E82EC8A
:10E2DA006CF0EEEC72F00001A951D8B477EF71F04E
:10E2EA0079EF71F06EEF71F05AEF71F0CFEC6EF0DA
:10E2FA001200066A04BE86EF71F084EF71F08CEFAB
:10E30A0071F0036C041ED8B0042A010E066E02BE18
:10E31A0093EF71F091EF71F099EF71F0016C021EB9
:10E32A00D8B0022A010E061A086A000E076E0350B8
:10E33A000410D8B4A3EF71F0A5EF71F0CDEF71F02E
:10E34A00010E056EADEF71F0D89003360436052A3A
:10E35A0004AEB2EF71F0B4EF71F0A9EF71F0D8909A
:10E36A00073608360350015C04500258D8A0C0EFA3
:10E37A0071F0C2EF71F0C7EF71F00350015E045003
:10E38A00025A0780D89004320332052EB4EF71F096
:10E39A000650D8B4D3EF71F0D5EF71F0D9EF71F020
:10E3AA00076C081ED8B0082A07C001F008C002F09E
:10E3BA0012000A6A08BEE6EF71F0E4EF71F0F0EFBE
:10E3CA0071F0081E071E061E056C000E06220722A3
:10E3DA000822010E0A6E04BEF7EF71F0F5EF71F034
:10E3EA0001EF72F0041E031E021E016C000E0222CF
:10E3FA0003220422010E0A1A000E0B6E000E0C6E86
:10E40A00000E0D6E000E0E6E055006100710081055
:10E41A00D8B412EF72F014EF72F04AEF72F0010EF4
:10E42A00096E1EEF72F0D8900536063607360836A2
:10E43A00092A08AE23EF72F025EF72F018EF72F096
:10E44A00D8900B360C360D360E360550015C065048
:10E45A0002580750035808500458D8A037EF72F0F2
:10E46A0039EF72F042EF72F00550015E0650025A1F
:10E47A000750035A0850045A0B80D89008320732C2
:10E48A0006320532092E25EF72F00A50D8B450EF41
:10E49A0072F052EF72F05AEF72F00E1E0D1E0C1E41
:10E4AA000B6C000E0C220D220E220BC001F00CC0C8
:10E4BA0002F00DC003F00EC004F01200E10E206E4F
:10E4CA00FB0E216EC6EC69F0B70E206EFD0E216EB2
:10E4DA00C6EC69F0510E206EFD0E216EC6EC69F095
:10E4EA00950E206EFD0E216EC6EC69F0730E206E3D
:10E4FA00FD0E216EC6EC69F0510E206EFD0E216EE6
:10E50A00C6EC69F0B70E206EFD0E216EC6EC69F0FE
:10E51A00C20E206EFC0E216EC6EC69F0330E206E20
:10E52A00FE0E216EC6EC69F0D90E206EFD0E216E2C
:10E53A00C6EC69F0C50E206EFC0E216EC6EC69F0C1
:10E54A000C0E206EFD0E216EC6EC69F0E10E206EF7
:10E55A00FB0E216EC6EC69F07E0E206EFB0E216E5C
:10E56A00C6EC69F0E10E206EFB0E216EC6EC69F076
:10E57A002F0E206EFD0E216EC6EC69F0E90E206E9C
:10E58A00FC0E216EC6EC69F0E40E206EFE0E216EC2
:10E59A00C6EC69F0B60E206EFE0E216EC6EC69F06E
:10E5AA00CD0E206EFE0E216EC6EC69F0E10E206ED5
:10E5BA00FB0E216EC6EC69F06D0E206EFE0E216E0A
:10E5CA00C6EC69F0C20E206EFC0E216EC6EC69F034
:10E5DA00120000EC6AF00009D8B4F6EF72F0F8EF16
:10E5EA0072F0EEEF72F0870EACEC69F0136A000E6F
:10E5FA00126E8BEC69F00009D8B406EF73F008EFDD
:10E60A0073F0FEEF72F01250060FD96EDA6AE8EC78
:10E61A006DF0DF6E8BEC69F00009D8B417EF73F078
:10E62A0019EF73F00FEF73F012500B0FD96EDA6A0D
:10E63A00E8EC6DF0DF6E12500B0FD96EDA6ADF501C
:10E64A00026E0250046E036A1250060FD96EDA6A1D
:10E65A00DF50056E05500326000E04221250020DEB
:10E66A00F350470FD96EDA6A60000FF0DEFF6000E0
:10E67A0013F0DDFF124A132A13BE4DEF73F0135045
:10E68A0009E1050E125CD8A04DEF73F04FEF73F05D
:10E69A00FEEF72F0116A000E106E1050020DF35068
:10E6AA00470FD96EDA6A5E0EDE5C010EDE58D8A01C
:10E6BA0061EF73F063EF73F06BEF73F01050A70F15
:10E6CA00D96EDA6A010EDF6E70EF73F01050A70F81
:10E6DA00D96EDA6ADF6A104A112A11BE7EEF73F028
:10E6EA00115009E1050E105CD8A07EEF73F080EF9F
:10E6FA0073F052EF73F01200406E40C042F0D3EC58
:10E70A0069F0C40E026EFF0E036E080E046E80ECF2
:10E71A006EF0480E016E900E96EC69F03BEC69F0D3
:10E72A00010E026E000ED2EC6AF0350E206E730EE8
:10E73A00216EFF0E226E42C023F0246A64EC6AF056
:10E74A002050416E350E026E036A41C004F080EC1F
:10E75A006EF01BEF74F0EFEC69F001C03EF002C0FE
:10E76A003FF01B0E3E5CB70E3F58D8A0BFEF73F0C8
:10E77A00C1EF73F01BEF74F04206106A000E0F6EC1
:10E78A006BEC69F00CEF74F0D3EC69F0010E026ED9
:10E79A00000ED2EC6AF0340E026EFF0E036E080E03
:10E7AA00046E80EC6EF01BEF74F0010E026E000E28
:10E7BA00D2EC6AF03D0E026EFF0E036E080E046E76
:10E7CA0080EC6EF01BEF74F0010E026E000ED2ECBC
:10E7DA006AF04F0E026EFF0E036E080E046E80EC96
:10E7EA006EF01BEF74F0010E026E000ED2EC6AF0AE
:10E7FA00350E206E730E216EFF0E226E42C023F07C
:10E80A00246A64EC6AF02050416EA7EF73F042501C
:10E81A00000AD8B4C9EF73F0010AD8B4DAEF73F07A
:10E82A00030AD8B4E9EF73F0F8EF73F04250D8A4B2
:10E83A0021EF74F023EF74F0B0EF73F03DEC69F060
:10E84A0012000B0E1F6EB80E1E6E20EEEBF010EECD
:10E85A000AF0090E6F006FFFE3FFE806FBE200EC27
:10E86A006AF00009D8B43CEF74F03EEF74F034EF6C
:10E87A0074F0870EACEC69F0216A000E206E8BEC06
:10E88A0069F00009D8B44CEF74F04EEF74F044EF1D
:10E89A0074F02050140FD96EDA6AE8EC6DF0DF6E6E
:10E8AA008BEC69F00009D8B45DEF74F05FEF74F097
:10E8BA0055EF74F02050190FD96EDA6AE8EC6DF052
:10E8CA00DF6E2050190FD96EDA6ADF50046E0450D9
:10E8DA00066E056A2050140FD96EDA6ADF50076E89
:10E8EA0007500526000E06222050020DF350470F4E
:10E8FA00D96EDA6A600017F0DEFF60001BF0DDFFF8
:10E90A00204A212A21BE93EF74F0215009E1050E15
:10E91A00205CD8A093EF74F095EF74F044EF74F094
:10E92A00236A000E226E2250020DF350470FD96E51
:10E93A00DA6A6F0078FF04F06F0074FF05F0225066
:10E94A00020DF3500A0FD96EDA6A6F0078FF06F0EB
:10E95A006F0074FF07F0045006026F00CCFF08F046
:10E96A006F00D0FF09F00702F3500926055006028E
:10E97A00F35009261E5008241E6E1F5009201F6ED0
:10E98A002250020DF350470FD96EDA6A5E0EDE5C32
:10E99A00010EDE58D8A0D4EF74F0D6EF74F0DEEF93
:10E9AA0074F02250A70FD96EDA6A010EDF6EE3EF18
:10E9BA0074F02250A70FD96EDA6ADF6A224A232A34
:10E9CA0023BEF1EF74F0235009E1050E225CD8A0B2
:10E9DA00F1EF74F0F3EF74F098EF74F01EC002F0E8
:10E9EA001FC003F01200126A000E116E0C50D96E8D
:10E9FA00DA6A6F007BFFF6FF6F0077FFF7FFF86AAE
:10EA0A000800F550250AD8A40DEF75F00FEF75F040
:10EA1A0077EF76F00C50D96EDA6ADE2A000EDD2224
:10EA2A00546A000E536E53C059F0556856680C501C
:10EA3A00D96EDA6A6F0078FF13F06F0074FF14F072
:10EA4A0060004FF0F6FF600053F0F7FFF86A080025
:10EA5A00F550640AD8B434EF75F036EF75F047EF25
:10EA6A0075F060004FF0F6FF600053F0F7FFF86AA8
:10EA7A000800F550690AD8A445EF75F047EF75F01C
:10EA8A00DFEF75F00D50D96EDA6A020EDF26DF5C11
:10EA9A00D96EDA6A6F0078FF15F06F0078FF16F00A
:10EAAA00010E13240E6E000E14200F6E0C50D96E38
:10EABA00DA6A60003BF0DEFF60003FF0DDFF200E07
:10EACA00196E16BE6BEF75F06EEF75F0010E6FEFF3
:10EADA0075F0000E106E19061950600FD96EDA6AB9
:10EAEA0015C001F016C002F0046A0A0E036E13EC98
:10EAFA0070F001C007F002C008F02AEC6AF0075073
:10EB0A00300FDF6E15C001F016C002F0046A0A0E5B
:10EB1A00036E7EEC71F001C015F002C016F0114AC6
:10EB2A00122A15501610D8B49DEF75F09FEF75F0A4
:10EB3A00A7EF75F01950D8A4A5EF75F0A7EF75F0F7
:10EB4A0070EF75F01950D8B4ADEF75F0AFEF75F0FE
:10EB5A00D0EF75F01050D8B4B5EF75F0B7EF75F087
:10EB6A00D0EF75F019061950600FD96EDA6A2D0EBA
:10EB7A00DF6E114A122AD0EF75F01950600FD96E64
:10EB8A00DA6ADF500E6E0E50036E046A0BC005F08F
:10EB9A00BDEC6FF0192A200E1918D8A4D7EF75F01A
:10EBAA00D9EF75F0C2EF75F011C00BF012C00CF07E
:10EBBA0092EF76F060004FF0F6FF600053F0F7FF37
:10EBCA00F86A0800F550750AD8A4EEEF75F0F0EF70
:10EBDA0075F06CEF76F00D50D96EDA6A020EDF2608
:10EBEA00DF5CD96EDA6A6F0078FF15F06F0078FF84
:10EBFA0016F0010E13240E6E000E14200F6E0C5028
:10EC0A00D96EDA6A60003BF0DEFF60003FF0DDFF9C
:10EC1A005DEF76F0200E196E19061950600FD96E45
:10EC2A00DA6A15C001F016C002F0046A0A0E036E11
:10EC3A00AEEC6BF00150300FDF6E15C001F016C05C
:10EC4A0002F0046A0A0E036EEFEC6CF001C015F0D4
:10EC5A0002C016F0114A122A15501610D8B438EF0D
:10EC6A0076F03AEF76F052EF76F01950D8A440EFEA
:10EC7A0076F042EF76F011EF76F052EF76F0195017
:10EC8A00600FD96EDA6ADF500E6E0E50036E046A98
:10EC9A000BC005F0BDEC6FF0192A200E1918D8A484
:10ECAA0059EF76F05BEF76F044EF76F0D9EF75F036
:10ECBA0060004FF0F6FF600053F0F7FFF86A0800B3
:10ECCA00F550750AD8B40FEF76F06CEF76F00C5069
:10ECDA00D96EDA6ADE2A000EDD220C6A000E0B6E8D
:10ECEA0092EF76F00C50D96EDA6A6F007BFFF6FF6E
:10ECFA006F0077FFF7FFF86A0800F550036E046AA1
:10ED0A000BC005F0BDEC6FF00C50D96EDA6ADE2A42
:10ED1A00000EDD220C6A010E0B6E120071EC69F016
:10ED2A006DEC6FF0ABEC6AF086EC6AF0C38A3A01DC
:10ED3A00509BCBBAA3EF76F0A5EF76F056EF7CF0B6
:10ED4A0063EC72F0D3EC69F0000E026E000ED2ECA6
:10ED5A006AF0B20E026EFF0E036E080E046E80ECAD
:10ED6A006EF07DEC6BF002C0E1F003C0E2F0CD0E74
:10ED7A00206EE60E216EFF0E226EE1C023F0E2C085
:10ED8A0024F064EC6AF020500001E86F010E026E74
:10ED9A00000ED2EC6AF0CD0E026E036AE8C004F0EF
:10EDAA0080EC6EF0A4EC6DF00001DA6F2BEF7CF0D2
:10EDBA00D3EC69F0000E026E000ED2EC6AF02A0E55
:10EDCA00026EFF0E036E080E046E80EC6EF0010EEA
:10EDDA00026E000ED2EC6AF0970E026EFF0E036E00
:10EDEA00080E046E80EC6EF0C20E206EFC0E216ED0
:10EDFA00C6EC69F00001D66B61EF77F03F0E206E2A
:10EE0A00FC0E216EC6EC69F0500E206EFE0E216ECD
:10EE1A00C6EC69F0A4EC6DF00001B86F6AEC70F012
:10EE2A000001DE6FE06B000EDF6FE96B040EE9652F
:10EE3A0021EF77F023EF77F025EF77F050EF77F0B7
:10EE4A00E951020DDE51F324D96EDA6A6F0078FFB8
:10EE5A0043F06F0074FF44F0DF514324DF6FE05149
:10EE6A004420E06FFA0E206EFE0E216EE9C022F0F9
:10EE7A00236AE951020DDE51F324D96EDA6A6F0072
:10EE8A0078FF24F06F0074FF25F0C6EC69F00001EA
:10EE9A00E92B1BEF77F0DF51E011D8A457EF77F099
:10EEAA0059EF77F061EF77F0010ED66FF70E206E0B
:10EEBA00FD0E216EC6EC69F00001D651D8B468EF98
:10EECA0077F06AEF77F003EF77F0D76BE1EF77F03F
:10EEDA006C0E206EFC0E216EC6EC69F0500E206E90
:10EEEA00FE0E216EC6EC69F0A4EC6DF00001B86F5D
:10EEFA006AEC70F00001DE6FE06B000EDF6FE96B09
:10EF0A00040EE9658BEF77F08DEF77F08FEF77F0EE
:10EF1A00BAEF77F0E951020DDE51F324D96EDA6ABD
:10EF2A006F0078FF43F06F0074FF44F0DF51432411
:10EF3A00DF6FE0514420E06FFA0E206EFE0E216E64
:10EF4A00E9C022F0236AE951020DDE51F324D96E99
:10EF5A00DA6A6F0078FF24F06F0074FF25F0C6ECC0
:10EF6A0069F00001E92B85EF77F0880EDF1907E1D8
:10EF7A00130EE019D8A4C4EF77F0C6EF77F0E1EFEB
:10EF8A0077F0010ED76F150E206EFE0E216EC6ECBD
:10EF9A0069F0860E206EFE0E216EC6EC69F0010E37
:10EFAA00026E000ED2EC6AF0BB0E026EFF0E036E0A
:10EFBA00080E046E80EC6EF00001D751D8B4E8EF69
:10EFCA0077F0EAEF77F06DEF77F0D7EF76F0D3ECE2
:10EFDA0069F0000E026E000ED2EC6AF0580E026E54
:10EFEA00FF0E036E080E046E80EC6EF0010E026EC8
:10EFFA00000ED2EC6AF0DE0E026EFF0E036E080EF1
:10F00A00046E80EC6EF0C20E206EFC0E216EC6EC11
:10F01A0069F000EC6AF00009D8B416EF78F018EF3E
:10F02A0078F00EEF78F0870EACEC69F00001E56B32
:10F03A00000EE46FE5BF2BEF78F0E55109E1050E0C
:10F04A00E45DD8A02BEF78F02DEF78F02FEF78F071
:10F05A0077EF78F08BEC69F00009D8B437EF78F0E5
:10F06A0039EF78F02FEF78F00001E451C30FD96E31
:10F07A00DA6AE8EC6DF0DF6E8BEC69F00009D8B45F
:10F08A0049EF78F04BEF78F041EF78F00001E45166
:10F09A00C80FD96EDA6AE8EC6DF0DF6E0001E45150
:10F0AA00C80FD96EDA6ADF50436E4350456E446A20
:10F0BA00E451C30FD96EDA6ADF50466E46504426D1
:10F0CA00000E4522E451020DF350B90FD96EDA6AE7
:10F0DA00600013F1DEFF600017F1DDFFE44BE52B62
:10F0EA001FEF78F0DC6B000EDB6FDCBF86EF78F089
:10F0FA00DC5109E1050EDB5DD8A086EF78F088EFD8
:10F10A0078F08AEF78F0D7EF76F01B0E206EFF0EBC
:10F11A00216EDBC022F0DCC023F0DB51020DF3507C
:10F12A00B90FD96EDA6A6F0078FF24F06F0074FFA6
:10F13A0025F0C6EC69F00001DB4BDC2B7AEF78F0A6
:10F14A00D3EC69F0000E026E000ED2EC6AF0D60E15
:10F15A00026EFF0E036E070E046E80EC6EF0C20E96
:10F16A00206EFC0E216EC6EC69F0A90E206EFC0E14
:10F17A00216EC6EC69F0A4EC6DF00001DD6FD4EFEE
:10F18A0078F0C20E206EFC0E216EC6EC69F0990E64
:10F19A00206EFC0E216EC6EC69F0C0EF78F02F0EDF
:10F1AA00DD65DAEF78F0DCEF78F0C6EF78F0350E4F
:10F1BA00DD61E2EF78F0E4EF78F0C6EF78F0000E68
:10F1CA00026E070ED2EC6AF00001DD51FBEC6AF028
:10F1DA0000EC6AF00009D8B4F5EF78F0F7EF78F0B0
:10F1EA00EDEF78F0870EACEC69F00001E76B000EEA
:10F1FA00E66FE7BF0AEF79F0E75109E1050EE65D30
:10F20A00D8A00AEF79F00CEF79F00EEF79F056EF0B
:10F21A0079F08BEC69F00009D8B416EF79F018EFA1
:10F22A0079F00EEF79F00001E651C30FD96EDA6A70
:10F23A00E8EC6DF0DF6E8BEC69F00009D8B428EFCA
:10F24A0079F02AEF79F020EF79F00001E651C80F42
:10F25A00D96EDA6AE8EC6DF0DF6E0001E651C80F8C
:10F26A00D96EDA6ADF50436E4350456E446AE651FE
:10F27A00C30FD96EDA6ADF50466E46504426000E36
:10F28A004522E651020DF350B90FD96EDA6A6000D1
:10F29A0013F1DEFF600017F1DDFFE64BE72BFEEF0F
:10F2AA0078F0DD51D00FDA6F0C0E206EFF0E216E52
:10F2BA00DAC022F0236ADA51020DF350B90FD96E7F
:10F2CA00DA6A6F0078FF24F06F0074FF25F0C6EC4D
:10F2DA0069F0D7EF76F0D3EC69F0000E026E000EFB
:10F2EA00D2EC6AF0A00E026EFF0E036E080E046ED8
:10F2FA0080EC6EF0C20E206EFC0E216EC6EC69F038
:10F30A007DEC6BF002C0E1F003C0E2F0CD0E206E9E
:10F31A00E60E216EFF0E226EE1C023F0E2C024F059
:10F32A0064EC6AF020500001E86F010E026E000ED4
:10F33A00D2EC6AF0CD0E026E036AE8C004F080ECEB
:10F34A006EF09E0E206EFE0E216EE1C022F0E2C02B
:10F35A0023F0C6EC69F0D7EF76F0D3EC69F0000E33
:10F36A00026E000ED2EC6AF08E0E026EFF0E036E73
:10F37A00080E046E80EC6EF0C20E206EFC0E216E3A
:10F38A00C6EC69F0120E206EFC0E216EC6EC69F016
:10F39A0061EC6DF00001EA6FEA514CEC6CF0CD0EB5
:10F3AA00206EF20E216EFF0E226EEAC023F0246A4E
:10F3BA0064EC6AF020500001E86F010E026E000E44
:10F3CA00D2EC6AF0CD0E026E036AE8C004F080EC5B
:10F3DA006EF000EC6AF00009D8B4F6EF79F0F8EFB5
:10F3EA0079F0EEEF79F0C10EACEC69F000EC6AF05E
:10F3FA000009D8B403EF7AF005EF7AF0FBEF79F061
:10F40A000001EA51ACEC69F000EC6AF00009D8B4EA
:10F41A0011EF7AF013EF7AF009EF7AF0C50EACEC3F
:10F42A0069F000EC6AF00009D8B41EEF7AF020EF18
:10F43A007AF016EF7AF00001EA51ACEC69F0D7EFF6
:10F44A0076F0D3EC69F0000E026E000ED2EC6AF090
:10F45A00A90E026EFF0E036E080E046E80EC6EF0AB
:10F46A00C20E206EFC0E216EC6EC69F0E40E206E10
:10F47A00FB0E216EC6EC69F061EC6DF00001EA6FDB
:10F48A00EA51E0EC6BF0CD0E206EF20E216EFF0E0B
:10F49A00226EEAC023F0246A64EC6AF0205000016C
:10F4AA00E86F010E026E000ED2EC6AF0CD0E026E0B
:10F4BA00036AE8C004F080EC6EF000EC6AF0000920
:10F4CA00D8B46AEF7AF06CEF7AF062EF7AF0C20E93
:10F4DA00ACEC69F000EC6AF00009D8B477EF7AF086
:10F4EA0079EF7AF06FEF7AF00001EA51ACEC69F04B
:10F4FA0000EC6AF00009D8B485EF7AF087EF7AF069
:10F50A007DEF7AF0C60EACEC69F000EC6AF0000907
:10F51A00D8B492EF7AF094EF7AF08AEF7AF0000199
:10F52A00EA51ACEC69F0D7EF76F0D3EC69F0000E53
:10F53A00026E000ED2EC6AF07C0E026EFF0E036EB3
:10F54A00080E046E80EC6EF0C20E206EFC0E216E68
:10F55A00C6EC69F0120E206EFC0E216EC6EC69F044
:10F56A0061EC6DF00001EA6F370E206EFB0E216E22
:10F57A00C6EC69F061EC6DF00001E36FEA51E32536
:10F58A00D86FD96BD937E3C002F0EA5128EC6DF095
:10F59A00CD0E206EEC0E216EFF0E226EEAC023F015
:10F5AA00246AE3C025F0266A64EC6AF02050000160
:10F5BA00E86F010E026E000ED2EC6AF0CD0E026EFA
:10F5CA00036AE8C004F080EC6EF000EC6AF000090F
:10F5DA00D8B4F2EF7AF0F4EF7AF0EAEF7AF0C10EEB
:10F5EA00ACEC69F000EC6AF00009D8B4FFEF7AF0ED
:10F5FA0001EF7BF0F7EF7AF00001D851ACEC69F03B
:10F60A0000EC6AF00009D8B40DEF7BF00FEF7BF045
:10F61A0005EF7BF0C50EACEC69F000EC6AF000096E
:10F62A00D8B41AEF7BF01CEF7BF012EF7BF00001ED
:10F63A00EA51ACEC69F0D7EF76F0D3EC69F0000E42
:10F64A00026E000ED2EC6AF0850E026EFF0E036E99
:10F65A00080E046E80EC6EF0C20E206EFC0E216E57
:10F66A00C6EC69F0120E206EFC0E216EC6EC69F033
:10F67A0061EC6DF00001EA6F370E206EFB0E216E11
:10F68A00C6EC69F061EC6DF00001E36FEA51E32525
:10F69A00D86FD96BD937E3C002F0EA51B8EC6CF0F5
:10F6AA00CD0E206EEC0E216EFF0E226EEAC023F004
:10F6BA00246AE3C025F0266A64EC6AF0205000014F
:10F6CA00E86F010E026E000ED2EC6AF0CD0E026EE9
:10F6DA00036AE8C004F080EC6EF000EC6AF00009FE
:10F6EA00D8B47AEF7BF07CEF7BF072EF7BF0C10E3F
:10F6FA00ACEC69F000EC6AF00009D8B487EF7BF053
:10F70A0089EF7BF07FEF7BF00001EA51ACEC69F006
:10F71A0000EC6AF00009D8B495EF7BF097EF7BF024
:10F72A008DEF7BF0C50EACEC69F000EC6AF00009D5
:10F73A00D8B4A2EF7BF0A4EF7BF09AEF7BF0000144
:10F74A00D851ACEC69F0D7EF76F0D3EC69F0000E43
:10F75A00026E000ED2EC6AF06A0E026EFF0E036EA3
:10F76A00080E046E80EC6EF0C20E206EFC0E216E46
:10F77A00C6EC69F03FEC69F000EC6AF00009D8B415
:10F78A00C9EF7BF0CBEF7BF0C1EF7BF0C10EACECA5
:10F79A0069F000EC6AF00009D8B4D6EF7BF0D8EF34
:10F7AA007BF0CEEF7BF0000EACEC69F000EC6AF077
:10F7BA000009D8B4E3EF7BF0E5EF7BF0DBEF7BF0F9
:10F7CA00C50EACEC69F000EC6AF00009D8B4F0EFB1
:10F7DA007BF0F2EF7BF0E8EF7BF0000EACEC69F027
:10F7EA00D7EF76F0D3EC69F0000E026E000ED2EC81
:10F7FA006AF0B20E026EFF0E036E080E046E80EC03
:10F80A006EF07DEC6BF002C0E1F003C0E2F0CD0EC9
:10F81A00206EE60E216EFF0E226EE1C023F0E2C0DA
:10F82A0024F064EC6AF020500001E86F010E026EC9
:10F83A00000ED2EC6AF0CD0E026E036AE8C004F044
:10F84A0080EC6EF063EC72F0D7EF76F0DA51420A90
:10F85A00D8B426EF7AF0040AD8B4B2EF79F00A0ADB
:10F86A00D8B49AEF7AF01E0AD8B422EF7BF0010AD4
:10F87A00D8B4AAEF7BF0300AD8B4DDEF76F0070AE5
:10F88A00D8B4A5EF78F0090AD8B4F7EF7BF01F0ACD
:10F89A00D8B4ECEF77F0040AD8B470EF79F0D7EF68
:10F8AA0076F0CBAA5BEF7CF05DEF7CF086EF7DF023
:10F8BA0063EC72F0D3EC69F0000E026E000ED2EC2B
:10F8CA006AF0460E026EFF0E036E080E046E80EC9E
:10F8DA006EF07DEC6BF002C0E1F003C0E2F0CD0EF9
:10F8EA00206EE60E216EFF0E226EE1C023F0E2C00A
:10F8FA0024F064EC6AF020500001E86F010E026EF9
:10F90A00000ED2EC6AF0CD0E026E036AE8C004F073
:10F91A0080EC6EF03D0E446EE10E436E400EE82E12
:10F92A00FED7432EFCD7442EFAD7000E026E000EE5
:10F93A00D2EC6AF0CD0E026EFF0E036E080E046E54
:10F94A0080EC6EF04FEC6BF0010E026E000ED2EC02
:10F95A006AF0610E026EFF0E036E080E046E80ECF2
:10F96A006EF0060E81EC73F0100E436E940EE82EC4
:10F97A00FED7432EFCD700D0400E016E900E96ECB7
:10F98A0069F0CFEC6EF026EC74F002C0ACF003C064
:10F99A00ADF0EEEC72F0F70E206EFF0E216EACC0E9
:10F9AA0022F0ADC023F0C6EC69F0950E0001AC5D03
:10F9BA00110EAD59D8B0E4EF7CF0E6EF7CF0F1EF30
:10F9CA007CF0DC0EAC5D050EAD59D8B0EFEF7CF0E3
:10F9DA00F1EF7CF0F9EF7CF0ACC014F0ADC015F09B
:10F9EA0021EC71F0C8EF7CF0A951D8B4FFEF7CF09C
:10F9FA0001EF7DF00DEF7DF0B80EAC1907E10B0EAB
:10FA0A00AD19D8A40BEF7DF00DEF7DF011EF7DF06D
:10FA1A00C4EC70F0C8EF7CF0A705D8A417EF7DF00E
:10FA2A0019EF7DF0C8EF7CF0A805D8A41FEF7DF090
:10FA3A0021EF7DF0C8EF7CF0A905D8A427EF7DF06F
:10FA4A0029EF7DF0C8EF7CF0AA05D8A42FEF7DF04E
:10FA5A0031EF7DF0C8EF7CF0AB05D8A437EF7DF02D
:10FA6A0039EF7DF0C8EF7CF0E1EC69F00A0E1EEC8C
:10FA7A006FF00A0E1EEC6FF00A0E1EEC6FF00A0E03
:10FA8A001EEC6FF0EEEC72F00001A705D8A450EF5F
:10FA9A007DF052EF7DF0C6EF7CF0A805D8A458EFB0
:10FAAA007DF05AEF7DF0C6EF7CF0A905D8A460EF8F
:10FABA007DF062EF7DF0C6EF7CF0AA05D8A468EF6E
:10FACA007DF06AEF7DF0C6EF7CF0AB05D8A470EF4D
:10FADA007DF072EF7DF0C6EF7CF00A0E1EEC6FF03F
:10FAEA000A0E1EEC6FF00A0E1EEC6FF00A0E1EECE8
:10FAFA006FF00A0E1EEC6FF00A0E1EEC6FF084EF28
:10FB0A007DF0FEEF7FF00000000000000000000022
:10FB1A0000000000000000000000000000000000DB
:10FB2A000000000000000000000000000009205052
:10FB3A006C6561736520656E7465722074686520F2
:10FB4A007475726E696E6720646966666572656E41
:10FB5A007469616C3A207370656564202B2064694E
:10FB6A0066666572656E7469616C203C2031323755
:10FB7A00200D0A00202076200909202876296F6C9A
:10FB8A0074616765202D205265616420616E64206E
:10FB9A00646973706C61792062617474657279202A
:10FBAA00766F6C74616765200D0A00496E76616C28
:10FBBA00696420696E7075742E20506C6561736576
:10FBCA00207265646F206E756D65726963616C2061
:10FBDA00696E7075742E200D0A000920506C6561DB
:10FBEA00736520656E74657220746865206261634E
:10FBFA006B776172642073706565642C2030202DE8
:10FC0A0020313237200D0A000920506C6561736576
:10FC1A0020656E7465722074686520666F727761FC
:10FC2A0072642073706565642C2030202D20313277
:10FC3A0037200D0A00506C61636520616C6C206688
:10FC4A006976652073656E736F7273206F6E2061BB
:10FC5A002077686974652073757266616365200A26
:10FC6A000D00506C61636520616C6C206669766575
:10FC7A002073656E736F7273206F6E206120626CE1
:10FC8A0061636B2073757266616365200A0D0049B2
:10FC9A006E76616C696420656E7472792E202045D7
:10FCAA006E7465722073656E736F72206E756D6205
:10FCBA0065722C20302D34200A0D00202072200974
:10FCCA0009202872296561642063616C6962726126
:10FCDA007465642073656E736F7273200D0A002059
:10FCEA00204220090920576865656C7320726F7479
:10FCFA006174652028422961636B77617264200D03
:10FD0A000A00202064200909202864296973706C7C
:10FD1A0061792073656E736F7220782076616C75D5
:10FD2A0065200D0A002020462009092057686565CC
:10FD3A006C7320726F74617465202846296F72771C
:10FD4A00617264200D0A00092A2020202020202028
:10FD5A002020202020202020202020202020202099
:10FD6A0020202020202A0D0A00092A2020202020D5
:10FD7A0020446961676E6F73746963204D656E759F
:10FD8A00202020202020202A0D0A00092A202020B5
:10FD9A00415053432031323939202D20506F6C6F36
:10FDAA006C75203370692020202A0D0A00092A2A3E
:10FDBA002A2A2A2A2A2A2A2A2A2A2A2A2A2A2A2A99
:10FDCA002A2A2A2A2A2A2A2A2A2A2A2A0D0A0020FA
:10FDDA00206320090920286329616C6962726174B1
:10FDEA00652073656E736F7273200D0A0057686918
:10FDFA0074652063616C6962726174696F6E2063F5
:10FE0A006F6D706C657465200A0D00426C61636BDE
:10FE1A002063616C6962726174696F6E20636F6DD1
:10FE2A00706C657465200A0D00436F6D6D616E64B8
:10FE3A00204B65792009204465736372697074697F
:10FE4A006F6E200D0A00507265737320616E7920FF
:10FE5A006B657920746F20636F6E74696E756520A7
:10FE6A000A0D0020206D200909205265667265730B
:10FE7A006820286D29656E75200D0A0043616C693A
:10FE8A0062726174696F6E20636F6D706C65746500
:10FE9A00200A0D004261747465727920766F6C7461
:10FEAA00616765203D202575200A0D00202052201B
:10FEBA0009092028522969676874207475726E20AE
:10FECA000D0A0020205320090920285329746F7035
:10FEDA00206D6F746F72200D0A0020204C200909D2
:10FEEA0020284C29656674207475726E200D0A00EC
:10FEFA0053656E736F72202575203D202575200A83
:10FF0A000D0053656E736F722025643A2025750AB9
:10FF1A000053656E736F722E2025642025750A00C2
:10FF2A0043616C69627261746500202020474F202A
:10FF3A0020200020205345542020200020205275E4
:10FF4A006E202020002052454144592020002020C4
:10FF5A00526561642020002020646F6E65202000B5
:10FF6A00202053746F7020200020202575207320D4
:10FF7A00200020204C6566742020002052696768A2
:10FF8A0074202000466F7277617264200053656E98
:10FF9A00736F727320004261747465727920004233
:10FFAA0061636B7761726400446961676E6F736540
:10FFBA0000436F6D706C65746500436F756E74698C
:10FFCA006E67004175746F2043616C0053656E73F0
:10FFDA006F72200053656E736F7273002575206D02
:10FFEA00560025752025750020257520000A2575DF
:06FFFA00000044EF6AF074
:020000040030CA
:0A000000ECFEF7FF9FFFFFFFFFFF7C
:00000001FF
