:04000000FEEF7FF0A0
:10D83800120012001200120012001200B88E12001C
:10D84800B89E1200000ED9EC6EF01200026E025063
:10D858009BEC6CF0120001C04DF002C04EF01200BB
:10D8680001C051F002C052F0120001C04FF002C0D6
:10D8780050F0120001C047F002C048F0120001C089
:10D888004BF002C04CF0120001C049F002C04AF04F
:10D8980012000250B76E600007F0B6FF120063EC8A
:10D8A8006CF022EC71F05AEC6CF01200600E390149
:10D8B800D96FDB6BDD6B070EDF6FDE6B1200390192
:10D8C800C06BC16BC26BC36BC46BC56BC66BC76BDC
:10D8D80012003901A3B773EF6CF076EF6CF0010E0C
:10D8E80077EF6CF0000E1200026E60000BF0B8FFCC
:10D8F800600007F0B9FFB89E3901A39F12003901F3
:10D90800A6B589EF6CF08CEF6CF0010E8DEF6CF022
:10D91800000E1200016E3901A3A995EF6CF097EF84
:10D928006CF08FEF6CF0600007F0EAFD1200016EFA
:10D938003901A6A7A2EF6CF0A4EF6CF09CEF6CF095
:10D94800600007F0D2FD1200220E266E000E1A6E3D
:10D9580020C01BF021C01CF0260E1D6EE7EC6DF0F8
:10D968001200E3EC6CF00009D8B4BDEF6CF0BFEF27
:10D978006CF0B5EF6CF0B70E8EEC6CF0120000EEA8
:10D9880060F05B0EEE6AE806FDE100EE53F00B0E68
:10D99800EE6AE806FDE1000144EF76F06F00D8FE7C
:10D9A80007F06F00DCFE08F00850036E0750056EA4
:10D9B80003C006F005C001F006C002F01200016ABB
:10D9C8003901A3A9EAEF6CF0ECEF6CF0F6EF6CF01C
:10D9D8003D01F2ABF2EF6CF0F4EF6CF0F6EF6CF0A7
:10D9E800010E016E01501200016A3901A6A7FFEF6E
:10D9F8006CF001EF6DF00BEF6DF03D01DAAB07EF66
:10DA08006DF009EF6DF00BEF6DF0010E016E015036
:10DA1800120008BE12EF6DF014EF6DF01AEF6DF002
:10DA280007C007F008C008F026EF6DF007C009F03E
:10DA380008C00AF0091E0A1E094A0A2A09C007F086
:10DA48000AC008F01200230E296E20C02AF02D6AA1
:10DA5800000E2C6E346A000E336E2A0E1A6E21C028
:10DA68001BF022C01CF0290E1D6EE7EC6DF01AC0E9
:10DA780027F01BC028F020502C24D96EDA6ADF6A00
:10DA880027C020F028C021F012003D01D46BD66BCE
:10DA9800D86BB00EDA6F800EDB6FDC6BE10EDD6FDA
:10DAA800040EDE6FDF6BE06BE16BE26B400E016E24
:10DAB800D80E026E43EC6CF0420E016ED80E026E68
:10DAC80048EC6CF03E0E016ED80E026E3EEC6CF027
:10DAD8005C6A12003D01EC6BED6BEE6BEF6BF06B6B
:10DAE800F16BB00EF26F800EF36FF46B670EF56F8B
:10DAF800F66BF76BF86BF96BFA6B3A0E016ED80E92
:10DB0800026E34EC6CF03C0E016ED80E026E39ECED
:10DB18006CF0380E016ED80E026E2FEC6CF05D6A58
:10DB28001200036EE3EC6CF00009D8B49EEF6DF0C0
:10DB3800A0EF6DF096EF6DF0B90E8EEC6CF0E3ECA3
:10DB48006CF00009D8B4ABEF6DF0ADEF6DF0A3EF5A
:10DB58006DF003508EEC6CF0E3EC6CF00009D8B477
:10DB6800B8EF6DF0BAEF6DF0B0EF6DF002508EECDB
:10DB78006CF01200026EE3EC6CF00009D8B4C7EF49
:10DB88006DF0C9EF6DF0BFEF6DF0B80E8EEC6CF074
:10DB9800E3EC6CF00009D8B4D4EF6DF0D6EF6DF07B
:10DBA800CCEF6DF0010E8EEC6CF0E3EC6CF000093C
:10DBB800D8B4E1EF6DF0E3EF6DF0D9EF6DF00250FE
:10DBC8008EEC6CF012001BC01EF01CC01FF0546AD3
:10DBD800000E536EFCEF6DF01AC00BF01E0E0C6EAB
:10DBE8001DC00DF0A9EC74F00B5053260C505422B4
:10DBF80060007BF0F6FF60007FF0F7FFF86A08002E
:10DC0800F5500009D8A40BEF6EF00DEF6EF0F0EFB1
:10DC18006DF053C01AF054C01BF01200E3EC6CF026
:10DC28000009D8B41AEF6EF01CEF6EF012EF6EF028
:10DC3800BA0E8EEC6CF06DEC6CF00009D8B427EFDE
:10DC48006EF029EF6EF01FEF6EF035EF6EF06DECB1
:10DC58006CF00009D8B433EF6EF035EF6EF02BEFAF
:10DC68006EF03FEC70F0630AD8A43DEF6EF03FEF22
:10DC78006EF02BEF6EF01200E3EC6CF00009D8B4F4
:10DC880048EF6EF04AEF6EF040EF6EF0B10E8EEC9A
:10DC98006CF06DEC6CF00009D8B455EF6EF057EFEE
:10DCA8006EF04DEF6EF03FEC70F0066E6DEC6CF0C0
:10DCB8000009D8B462EF6EF064EF6EF05AEF6EF0C0
:10DCC8003FEC70F0076E0750056E046A0650042496
:10DCD800026E000E0520036E120003500410D8B423
:10DCE80078EF6EF07AEF6EF09EEF6EF0010E056E33
:10DCF80082EF6EF0D89003360436052A04AE87EF1B
:10DD08006EF089EF6EF07EEF6EF00350015C045008
:10DD18000258D8A092EF6EF094EF6EF098EF6EF084
:10DD28000350015E0450025AD89004320332052E83
:10DD380089EF6EF001C001F002C002F01200026E1D
:10DD4800E3EC6CF00009D8B4ACEF6EF0AEEF6EF017
:10DD5800A4EF6EF0C20E8EEC6CF0E3EC6CF00009F0
:10DD6800D8B4B9EF6EF0BBEF6EF0B1EF6EF00250C1
:10DD78008EEC6CF0E3EC6CF00009D8B4C6EF6EF0F2
:10DD8800C8EF6EF0BEEF6EF0C60E8EEC6CF0E3ECF2
:10DD98006CF00009D8B4D3EF6EF0D5EF6EF0CBEF8E
:10DDA8006EF002288EEC6CF01200026EE3EC6CF060
:10DDB8000009D8B4E2EF6EF0E4EF6EF0DAEF6EF03F
:10DDC800C10E8EEC6CF0E3EC6CF00009D8B4EFEF08
:10DDD8006EF0F1EF6EF0E7EF6EF002508EEC6CF043
:10DDE800E3EC6CF00009D8B4FCEF6EF0FEEF6EF0D7
:10DDF800F4EF6EF0C50E8EEC6CF0E3EC6CF00009FD
:10DE0800D8B409EF6FF00BEF6FF001EF6FF0022855
:10DE18008EEC6CF01200036EE3EC6CF00009D8B4E1
:10DE280018EF6FF01AEF6FF010EF6FF0C10E8EEC75
:10DE38006CF0E3EC6CF00009D8B425EF6FF027EF35
:10DE48006FF01DEF6FF0035002248EEC6CF0E3ECE2
:10DE58006CF00009D8B433EF6FF035EF6FF02BEFAB
:10DE68006FF0C50E8EEC6CF0E3EC6CF00009D8B4E2
:10DE780040EF6FF042EF6FF038EF6FF003288EEC51
:10DE88006CF01200066A000E056E03500410D8B438
:10DE980050EF6FF052EF6FF07AEF6FF0010E076EF0
:10DEA8005AEF6FF0D89003360436072A04AE5FEFB6
:10DEB8006FF061EF6FF056EF6FF0D89005360636C9
:10DEC8000350015C04500258D8A06DEF6FF06FEF5B
:10DED8006FF074EF6FF00350015E0450025A058032
:10DEE800D89004320332072E61EF6FF005C001F0BD
:10DEF80006C002F01200046EE3EC6CF00009D8B41E
:10DF080088EF6FF08AEF6FF080EF6FF0C10E8EEC44
:10DF18006CF0E3EC6CF00009D8B495EF6FF097EF74
:10DF28006FF08DEF6FF004508EEC6CF0E3EC6CF05A
:10DF38000009D8B4A2EF6FF0A4EF6FF09AEF6FF07A
:10DF4800C50E8EEC6CF0E3EC6CF00009D8B4AFEFC2
:10DF58006FF0B1EF6FF0A7EF6FF004500224036E7B
:10DF680003288EEC6CF012002868276AF0EF6FF037
:10DF7800FBEC6FF0286E0D0E2818D8A4C6EF6FF0D2
:10DF8800C8EF6FF0CAEF6FF0F0EF6FF02F0E286454
:10DF9800D0EF6FF0D2EF6FF0DAEF6FF0390E286440
:10DFA800D8EF6FF0DAEF6FF0EAEF6FF0B70E206E90
:10DFB800FC0E216EA8EC6CF07B0E206EFB0E216E21
:10DFC800A8EC6CF0276A2868F0EF6FF027500A0D6C
:10DFD800F3502824D00F276E0D0E2818D8A4F7EF79
:10DFE8006FF0F9EF6FF0BCEF6FF027501200026886
:10DFF80024EF70F083EC6CF00009D8B406EF70F0F1
:10E0080008EF70F024EF70F089EC70F0026EF8EC15
:10E018006CF00009D8B413EF70F015EF70F024EF2E
:10E0280070F002509BEC6CF00D0E0218D8A41FEF94
:10E0380070F021EF70F024EF70F00A0E9BEC6CF09A
:10E048002F0E02642AEF70F02CEF70F034EF70F0AE
:10E058007A0E026432EF70F034EF70F03DEF70F03A
:10E068000D0E0218D8A43BEF70F03DEF70F0FEEFF4
:10E078006FF0025012003901A3A745EF70F047EF87
:10E0880070F03FEF70F05D6A3D01F9A74EEF70F058
:10E0980050EF70F05DEF70F05D8202D85DEF70F0C8
:10E0A8000500FA6E5150FD6E5250FE6EFF6AFA502E
:10E0B80012003D01F9A363EF70F065EF70F072EFA5
:10E0C80070F05D8402D872EF70F00500FA6E4F5060
:10E0D800FD6E5050FE6EFF6AFA5012005D50D8B4C3
:10E0E80078EF70F07AEF70F086EF70F002D886EF74
:10E0F80070F00500FA6E4D50FD6E4E50FE6EFF6AD0
:10E10800FA5012003D01E85112003901A6A58FEF1F
:10E1180070F091EF70F089EF70F05C6A3D01E1A753
:10E1280098EF70F09AEF70F0A7EF70F05C8202D869
:10E13800A7EF70F00500FA6E4B50FD6E4C50FE6E66
:10E14800FF6AFA5012003D01E1A3ADEF70F0AFEFA6
:10E1580070F0BCEF70F05C8402D8BCEF70F0050082
:10E16800FA6E4950FD6E4A50FE6EFF6AFA50120070
:10E178005C50D8B4C2EF70F0C4EF70F0D0EF70F01C
:10E1880002D8D0EF70F00500FA6E4750FD6E485087
:10E19800FE6EFF6AFA5012003D01D0511200076A64
:10E1A800E3EC6CF00009D8B4DCEF70F0DEEF70F04F
:10E1B800D4EF70F0B80E8EEC6CF0E3EC6CF0000964
:10E1C800D8B4E9EF70F0EBEF70F0E1EF70F00450C5
:10E1D8008EEC6CF018EF71F0E3EC6CF00009D8B439
:10E1E800F8EF70F0FAEF70F018EF71F007500224B2
:10E1F800056E000E0320066E600017F0F6FF600043
:10E208001BF0F7FF000EF86E0F0EF76403D008003E
:10E21800F55007D06F00DBFFE9FF6F00DFFFEAFF73
:10E22800EF508EEC6CF0072A0450075CD8A01FEF63
:10E2380071F021EF71F0F0EF70F01200BE6ABD6A64
:10E24800BA6ABB6ABC6A070EC66EC268BF0EC36EE6
:10E25800840EC46EC5683A01706B606B2F0E506FE8
:10E26800070E806FEF0E406F716B816B516B416BC6
:10E27800616B5A6B5B6B6A6B6B6B7A6B7B6B826BDC
:10E28800426B526B180E626F726B43695369636914
:10E298007369070E836F44695469646974690F0E62
:10E2A800846F0F0EE86F250E106F160E0E6F210E7D
:10E2B800136F0F0E116F220E146F170EE56F040EF9
:10E2C800C36F130EE16F0C0EDD6F140EE26F120EAA
:10E2D800CA6F0D0E156F130E166F12000550D8B4C5
:10E2E80078EF71F07AEF71F082EF71F00550D8A4F1
:10E2F80080EF71F082EF71F087EF71F003502AEC34
:10E308006CF0C7EF71F00550D96EDA6A090ED9269C
:10E31800DE50DE10D8B493EF71F095EF71F0AEEFE8
:10E3280071F00550D96EDA6A090ED9260550E16EEA
:10E33800E26A020EE126DE50E65CE650800A0A6ECA
:10E34800DE50800A0A58D8B0ACEF71F0AEEF71F029
:10E35800C7EF71F00550D96EDA6A020ED926DF5080
:10E36800066E0550D96EDA6ADF500624D96EDA6A6D
:10E3780060000FF0DFFF0550D96EDA6A020ED92669
:10E38800DE2A000EDD221200066A02BED0EF71F00E
:10E39800CEEF71F0D6EF71F0016C021ED8B0022AF0
:10E3A800010E066E04BEDDEF71F0DBEF71F0E1EFF8
:10E3B80071F0036C041ED8B0042A03500410D8B4BA
:10E3C800E8EF71F0EAEF71F00EEF72F0010E056EF2
:10E3D800F2EF71F0D89003360436052A04AEF7EF51
:10E3E80071F0F9EF71F0EEEF71F00350015C045039
:10E3F8000258D8A002EF72F004EF72F008EF72F042
:10E408000350015E0450025AD89004320332052E9C
:10E41800F9EF71F00650D8B414EF72F016EF72F0FD
:10E428001AEF72F0016C021ED8B0022A01C001F086
:10E4380002C002F01200E3EC6CF00009D8B427EF38
:10E4480072F029EF72F01FEF72F0B40E8EEC6CF0E0
:10E45800126A6DEC6CF00009D8B435EF72F037EF42
:10E4680072F02DEF72F01250080FD96EDA6A3FEC95
:10E4780070F0DF6E6DEC6CF00009D8B446EF72F006
:10E4880048EF72F03EEF72F012500D0FD96EDA6A53
:10E498003FEC70F0DF6E12500D0FD96EDA6ADF5064
:10E4A800046E0450066E056A1250080FD96EDA6AB7
:10E4B800DF50076E07500526000E06221250020D87
:10E4C800F350A70FD96EDA6A600017F0DEFF60001C
:10E4D8001BF0DDFF122A040E126475EF72F077EF5D
:10E4E80072F02DEF72F0A70E1200066A04BE81EFDB
:10E4F80072F07FEF72F087EF72F0036C041ED8B0F1
:10E50800042A010E066E02BE8EEF72F08CEF72F0D6
:10E5180094EF72F0016C021ED8B0022A010E061A9E
:10E52800086A000E076E03500410D8B49EEF72F00C
:10E53800A0EF72F0C8EF72F0010E056EA8EF72F04E
:10E54800D89003360436052A04AEADEF72F0AFEF6B
:10E5580072F0A4EF72F0D890073608360350015CC9
:10E5680004500258D8A0BBEF72F0BDEF72F0C2EFB2
:10E5780072F00350015E0450025A0780D8900432AA
:10E588000332052EAFEF72F00650D8B4CEEF72F01A
:10E59800D0EF72F0D4EF72F0076C081ED8B0082ADA
:10E5A80007C001F008C002F01200A70E206EFB0E93
:10E5B800216EA8EC6CF0AC0E206EFD0E216EA8EC5E
:10E5C8006CF0460E206EFD0E216EA8EC6CF08A0EE3
:10E5D800206EFD0E216EA8EC6CF0680E206EFD0E0C
:10E5E800216EA8EC6CF0460E206EFD0E216EA8EC94
:10E5F8006CF0AC0E206EFD0E216EA8EC6CF0B70E20
:10E60800206EFC0E216EA8EC6CF0280E206EFE0E1B
:10E61800216EA8EC6CF0CE0E206EFD0E216EA8ECDB
:10E628006CF0BA0E206EFC0E216EA8EC6CF0AA0EEF
:10E63800206EFB0E216EA8EC6CF0010E206EFD0E14
:10E64800216EA8EC6CF0A70E206EFB0E216EA8ECD4
:10E658006CF0440E206EFB0E216EA8EC6CF0A70E39
:10E66800206EFB0E216EA8EC6CF0240E206EFD0EC1
:10E67800216EA8EC6CF0DE0E206EFC0E216EA8EC6C
:10E688006CF0D90E206EFE0E216EA8EC6CF0AB0E6D
:10E69800206EFE0E216EA8EC6CF0C20E206EFE0EEF
:10E6A800216EA8EC6CF0A70E206EFB0E216EA8EC74
:10E6B8006CF0620E206EFE0E216EA8EC6CF0B70EA8
:10E6C800206EFC0E216EA8EC6CF01200E3EC6CF0EE
:10E6D8000009D8B472EF73F074EF73F06AEF73F057
:10E6E800870E8EEC6CF0136A000E126E6DEC6CF0F7
:10E6F8000009D8B482EF73F084EF73F07AEF73F007
:10E708001250060FD96EDA6A3FEC70F0DF6E6DECCE
:10E718006CF00009D8B493EF73F095EF73F08BEFBA
:10E7280073F012500B0FD96EDA6A3FEC70F0DF6E9F
:10E7380012500B0FD96EDA6ADF50026E0250046E67
:10E74800036A1250060FD96EDA6ADF50056E05505B
:10E758000326000E04221250020DF3509D0FD96EAD
:10E76800DA6A60000FF0DEFF600013F0DDFF124A86
:10E77800132A13BEC9EF73F0135009E1050E125C9A
:10E78800D8A0C9EF73F0CBEF73F07AEF73F0116A8A
:10E79800000E106E1050020DF3509D0FD96EDA6AFC
:10E7A800F40EDE5C010EDE58D8A0DDEF73F0DFEF6B
:10E7B80073F0EBEF73F01050020DF350B10FD96EF8
:10E7C800DA6A010EDE6E000EDD6EF3EF73F01050A4
:10E7D800020DF350B10FD96EDA6ADE6ADD6A104AAB
:10E7E800112A11BE01EF74F0115009E1050E105CF9
:10E7F800D8A001EF74F003EF74F0CEEF73F01200BD
:10E80800406E40C042F0B5EC6CF0C70E026EFF0ED1
:10E81800036E080E046ED3EC70F0480E016E900E75
:10E8280078EC6CF022EC6CF0010E026E000E95ECA8
:10E838006DF0350E206E760E216EFF0E226E42C0F0
:10E8480023F0246A27EC6DF02050416E350E026EDD
:10E85800036A41C004F0D3EC70F09EEF74F0D2EC80
:10E868006CF001C03EF002C03FF01B0E3E5CB70EDC
:10E878003F58D8A042EF74F044EF74F09EEF74F064
:10E888004206026A000E016E4DEC6CF08FEF74F0D8
:10E89800B5EC6CF0010E026E000E95EC6DF0370EC3
:10E8A800026EFF0E036E080E046ED3EC70F09EEF3E
:10E8B80074F0010E026E000E95EC6DF0400E026EC3
:10E8C800FF0E036E080E046ED3EC70F09EEF74F02A
:10E8D800010E026E000E95EC6DF0520E026EFF0EE8
:10E8E800036E080E046ED3EC70F09EEF74F0010E08
:10E8F800026E000E95EC6DF0350E206E760E216ED0
:10E90800FF0E226E42C023F0246A27EC6DF02050DF
:10E91800416E2AEF74F04250000AD8B44CEF74F0FC
:10E92800010AD8B45DEF74F0030AD8B46CEF74F040
:10E938007BEF74F04250D8A4A4EF74F0A6EF74F003
:10E9480033EF74F024EC6CF01200126A000E116EB2
:10E958000C50D96EDA6A6F007BFFF6FF6F0077FF05
:10E96800F7FFF86A0800F550250AD8A4BEEF74F03E
:10E97800C0EF74F028EF76F00C50D96EDA6ADE2A10
:10E98800000EDD22566A000E556E55C05BF05768C2
:10E9980058680C50D96EDA6A6F0078FF13F06F0070
:10E9A80074FF14F060004FF0F6FF600053F0F7FFBB
:10E9B800F86A0800F550640AD8B4E5EF74F0E7EF98
:10E9C80074F0F8EF74F060004FF0F6FF600053F059
:10E9D800F7FFF86A0800F550690AD8A4F6EF74F052
:10E9E800F8EF74F090EF75F00D50D96EDA6A020EF8
:10E9F800DF26DF5CD96EDA6A6F0078FF15F06F00EA
:10EA080078FF16F0010E13240E6E000E14200F6E00
:10EA18000C50D96EDA6A60003BF0DEFF60003FF010
:10EA2800DDFF200E196E16BE1CEF75F01FEF75F096
:10EA3800010E20EF75F0000E106E19061950600FC8
:10EA4800D96EDA6A15C001F016C002F0046A0A0E1F
:10EA5800036EC8EC71F001C007F002C008F00DECBD
:10EA68006DF00750300FDF6E15C001F016C002F0D0
:10EA7800046A0A0E036E79EC72F001C015F002C048
:10EA880016F0114A122A15501610D8B44EEF75F028
:10EA980050EF75F058EF75F01950D8A456EF75F08F
:10EAA80058EF75F021EF75F01950D8B45EEF75F096
:10EAB80060EF75F081EF75F01050D8B466EF75F01F
:10EAC80068EF75F081EF75F019061950600FD96E6F
:10EAD800DA6A2D0EDF6E114A122A81EF75F019508D
:10EAE800600FD96EDA6ADF500E6E0E50036E046A3C
:10EAF8000BC005F072EC71F0192A200E1918D8A471
:10EB080088EF75F08AEF75F073EF75F011C00BF0B0
:10EB180012C00CF043EF76F060004FF0F6FF600093
:10EB280053F0F7FFF86A0800F550750AD8A49FEF6C
:10EB380075F0A1EF75F01DEF76F00D50D96EDA6A19
:10EB4800020EDF26DF5CD96EDA6A6F0078FF15F0F7
:10EB58006F0078FF16F0010E13240E6E000E1420BD
:10EB68000F6E0C50D96EDA6A60003BF0DEFF600071
:10EB78003FF0DDFF0EEF76F0200E196E19061950E2
:10EB8800600FD96EDA6A15C001F016C002F0046A87
:10EB98000A0E036E71EC6EF00150300FDF6E15C077
:10EBA80001F016C002F0046A0A0E036E46EC6FF01C
:10EBB80001C015F002C016F0114A122A155016109D
:10EBC800D8B4E9EF75F0EBEF75F003EF76F0195074
:10EBD800D8A4F1EF75F0F3EF75F0C2EF75F003EF1D
:10EBE80076F01950600FD96EDA6ADF500E6E0E504B
:10EBF800036E046A0BC005F072EC71F0192A200E3E
:10EC08001918D8A40AEF76F00CEF76F0F5EF75F046
:10EC18008AEF75F060004FF0F6FF600053F0F7FFE1
:10EC2800F86A0800F550750AD8B4C0EF75F01DEF02
:10EC380076F00C50D96EDA6ADE2A000EDD220C6AF4
:10EC4800000E0B6E43EF76F00C50D96EDA6A6F0047
:10EC58007BFFF6FF6F0077FFF7FFF86A0800F550B3
:10EC6800036E046A0BC005F072EC71F00C50D96E9B
:10EC7800DA6ADE2A000EDD220C6A010E0B6E120023
:10EC880053EC6CF022EC71F06EEC6DF049EC6DF029
:10EC9800C38A3A01509BCBBA54EF76F056EF76F020
:10ECA800DDEF7CF0D9EC72F0B5EC6CF0000E026E82
:10ECB800000E95EC6DF0B50E026EFF0E036E080E99
:10ECC800046ED3EC70F040EC6EF002C0E7F003C0C5
:10ECD800E8F0D10E206EE90E216EFF0E226EE7C01D
:10ECE80023F0E8C024F027EC6DF020500001F06F0D
:10ECF800010E026E000E95EC6DF0D10E026E036AE5
:10ED0800F0C004F0D3EC70F0FBEC6FF00001DE6FA4
:10ED1800AEEF7CF0B5EC6CF0000E026E000E95ECD8
:10ED28006DF02D0E026EFF0E036E080E046ED3EC0E
:10ED380070F0010E026E000E95EC6DF09A0E026EE8
:10ED4800FF0E036E080E046ED3EC70F0B70E206E43
:10ED5800FC0E216EA8EC6CF00001DA6B12EF77F074
:10ED6800340E206EFC0E216EA8EC6CF0450E206E61
:10ED7800FE0E216EA8EC6CF0FBEC6FF00001BB6F8F
:10ED88001FEC72F00001E46FE66B000EE56FF16BAB
:10ED9800040EF165D2EF76F0D4EF76F0D6EF76F088
:10EDA80001EF77F0F151020DE451F324D96EDA6ADC
:10EDB8006F0078FF43F06F0074FF44F0E55143247F
:10EDC800E56FE6514420E66FEF0E206EFE0E216ED1
:10EDD800F1C022F0236AF151020DE451F324D96EF7
:10EDE800DA6A6F0078FF24F06F0074FF25F0A8EC52
:10EDF8006CF00001F12BCCEF76F0E551E611D8A4C8
:10EE080008EF77F00AEF77F012EF77F0010EDA6F7C
:10EE1800EC0E206EFD0E216EA8EC6CF00001DA51AC
:10EE2800D8B419EF77F01BEF77F0B4EF76F0DB6B1F
:10EE380092EF77F0610E206EFC0E216EA8EC6CF05C
:10EE4800450E206EFE0E216EA8EC6CF0FBEC6FF008
:10EE58000001BB6F1FEC72F00001E46FE66B000E5F
:10EE6800E56FF16B040EF1653CEF77F03EEF77F05C
:10EE780040EF77F06BEF77F0F151020DE451F32496
:10EE8800D96EDA6A6F0078FF43F06F0074FF44F0C0
:10EE9800E5514324E56FE6514420E66FEF0E206EFE
:10EEA800FE0E216EF1C022F0236AF151020DE451E9
:10EEB800F324D96EDA6A6F0078FF24F06F0074FFCC
:10EEC80025F0A8EC6CF00001F12B36EF77F0880EF6
:10EED800E51907E1130EE619D8A475EF77F077EF77
:10EEE80077F092EF77F0010EDB6F0A0E206EFE0EC0
:10EEF800216EA8EC6CF07B0E206EFE0E216EA8EC45
:10EF08006CF0010E026E000E95EC6DF0BE0E026EF6
:10EF1800FF0E036E080E046ED3EC70F00001DB5197
:10EF2800D8B499EF77F09BEF77F01EEF77F088EF82
:10EF380076F0B5EC6CF0000E026E000E95EC6DF0FC
:10EF48005B0E026EFF0E036E080E046ED3EC70F0BB
:10EF5800010E026E000E95EC6DF0E10E026EFF0ED2
:10EF6800036E080E046ED3EC70F0B70E206EFC0E24
:10EF7800216EA8EC6CF0E3EC6CF00009D8B4C7EF94
:10EF880077F0C9EF77F0BFEF77F0870E8EEC6CF073
:10EF98000001EB6B000EEA6FEBBFDCEF77F0EB5193
:10EFA80009E1050EEA5DD8A0DCEF77F0DEEF77F037
:10EFB800E0EF77F028EF78F06DEC6CF00009D8B44A
:10EFC800E8EF77F0EAEF77F0E0EF77F00001EA5149
:10EFD800C60FD96EDA6A3FEC70F0DF6E6DEC6CF03C
:10EFE8000009D8B4FAEF77F0FCEF77F0F2EF77F09A
:10EFF8000001EA51CB0FD96EDA6A3FEC70F0DF6E90
:10F008000001EA51CB0FD96EDA6ADF50436E4350E4
:10F01800456E446AEA51C60FD96EDA6ADF50466E09
:10F0280046504426000E4522EA51020DF350BC0F0B
:10F03800D96EDA6A600013F1DEFF600017F1DDFFB8
:10F04800EA4BEB2BD0EF77F0E06B000EDF6FE0BF01
:10F0580037EF78F0E05109E1050EDF5DD8A037EF12
:10F0680078F039EF78F03BEF78F088EF76F0100E13
:10F07800206EFF0E216EDFC022F0E0C023F0DF51CA
:10F08800020DF350BC0FD96EDA6A6F0078FF24F0D6
:10F098006F0074FF25F0A8EC6CF00001DF4BE02B4B
:10F0A8002BEF78F0B5EC6CF0000E026E000E95ECCC
:10F0B8006DF05B0E026EFF0E036E080E046ED3EC4D
:10F0C80070F0010E026E000E95EC6DF0E10E026E0E
:10F0D800FF0E036E080E046ED3EC70F0B70E206EB0
:10F0E800FC0E216EA8EC6CF0E3EC6CF00009D8B4CF
:10F0F80080EF78F082EF78F078EF78F0870E8EEC7A
:10F108006CF00001ED6B000EEC6FEDBF95EF78F041
:10F11800ED5109E1050EEC5DD8A095EF78F097EF79
:10F1280078F099EF78F0E1EF78F06DEC6CF0000989
:10F13800D8B4A1EF78F0A3EF78F099EF78F0000158
:10F14800EC51C60FD96EDA6A3FEC70F0DF6E6DECE9
:10F158006CF00009D8B4B3EF78F0B5EF78F0ABEF06
:10F1680078F00001EC51CB0FD96EDA6A3FEC70F001
:10F17800DF6E0001EC51CB0FD96EDA6ADF50436EB7
:10F188004350456E446AEC51C60FD96EDA6ADF50B7
:10F19800466E46504426000E4522EC51020DF350AF
:10F1A800BC0FD96EDA6A600013F1DEFF600017F158
:10F1B800DDFFEC4BED2B89EF78F0E26B000EE16F91
:10F1C800E2BFF0EF78F0E25109E1050EE15DD8A069
:10F1D800F0EF78F0F2EF78F0F4EF78F00FEF79F0E5
:10F1E800100E206EFF0E216EE1C022F0E2C023F067
:10F1F800E151020DF350BC0FD96EDA6A6F0078FF47
:10F2080024F06F0074FF25F0A8EC6CF00001E14BCE
:10F21800E22BE4EF78F083EC6CF0E806D8A417EF63
:10F2280079F019EF79F078EF78F0FBEC6FF00001E6
:10F23800D06F710ED019D8A424EF79F026EF79F0A9
:10F2480078EF78F088EF76F0B5EC6CF0000E026E8F
:10F25800000E95EC6DF0D90E026EFF0E036E070ED0
:10F26800046ED3EC70F0B70E206EFC0E216EA8EC85
:10F278006CF09E0E206EFC0E216EA8EC6CF0FBEC80
:10F288006FF00001E36F57EF79F0B70E206EFC0EB8
:10F29800216EA8EC6CF08E0E206EFC0E216EA8EC90
:10F2A8006CF043EF79F02F0EE3655DEF79F05FEFD7
:10F2B80079F049EF79F0350EE36165EF79F067EFA2
:10F2C80079F049EF79F0000E026E070E95EC6DF0BB
:10F2D8000001E351BEEC6DF0E3EC6CF00009D8B42A
:10F2E80078EF79F07AEF79F070EF79F0870E8EEC9D
:10F2F8006CF00001EF6B000EEE6FEFBF8DEF79F051
:10F30800EF5109E1050EEE5DD8A08DEF79F08FEF92
:10F3180079F091EF79F0D9EF79F06DEC6CF00009A4
:10F32800D8B499EF79F09BEF79F091EF79F000017B
:10F33800EE51C60FD96EDA6A3FEC70F0DF6E6DECF5
:10F348006CF00009D8B4ABEF79F0ADEF79F0A3EF2A
:10F3580079F00001EE51CB0FD96EDA6A3FEC70F00C
:10F36800DF6E0001EE51CB0FD96EDA6ADF50436EC3
:10F378004350456E446AEE51C60FD96EDA6ADF50C3
:10F38800466E46504426000E4522EE51020DF350BB
:10F39800BC0FD96EDA6A600013F1DEFF600017F166
:10F3A800DDFFEE4BEF2B81EF79F0E351D00FDE6FED
:10F3B800010E206EFF0E216EDEC022F0236ADE51A0
:10F3C800020DF350BC0FD96EDA6A6F0078FF24F093
:10F3D8006F0074FF25F0A8EC6CF088EF76F0B5ECC0
:10F3E8006CF0000E026E000E95EC6DF0A30E026E2E
:10F3F800FF0E036E080E046ED3EC70F0B70E206E8D
:10F40800FC0E216EA8EC6CF040EC6EF002C0E7F048
:10F4180003C0E8F0D10E206EE90E216EFF0E226EB9
:10F42800E7C023F0E8C024F027EC6DF0205000017D
:10F43800F06F010E026E000E95EC6DF0D10E026EAB
:10F44800036AF0C004F0D3EC70F0930E206EFE0E49
:10F45800216EE7C022F0E8C023F0A8EC6CF088EF3A
:10F4680076F0B5EC6CF0000E026E000E95EC6DF0C7
:10F47800910E026EFF0E036E080E046ED3EC70F050
:10F48800B70E206EFC0E216EA8EC6CF0070E206EF5
:10F49800FC0E216EA8EC6CF0B8EC6FF00001F26F76
:10F4A800F251D9EC6EF0D10E206EF50E216EFF0EE2
:10F4B800226EF2C023F0246A27EC6DF02050000180
:10F4C800F06F010E026E000E95EC6DF0D10E026E1B
:10F4D800036AF0C004F0D3EC70F0E3EC6CF00009C0
:10F4E800D8B479EF7AF07BEF7AF071EF7AF0C10E49
:10F4F8008EEC6CF0E3EC6CF00009D8B486EF7AF08F
:10F5080088EF7AF07EEF7AF00001F2518EEC6CF021
:10F51800E3EC6CF00009D8B494EF7AF096EF7AF047
:10F528008CEF7AF0C50E8EEC6CF0E3EC6CF0000911
:10F53800D8B4A1EF7AF0A3EF7AF099EF7AF000014E
:10F54800F2518EEC6CF088EF76F0B5EC6CF0000EB2
:10F55800026E000E95EC6DF0AC0E026EFF0E036E9F
:10F56800080E046ED3EC70F0B70E206EFC0E216E00
:10F57800A8EC6CF0D90E206EFB0E216EA8EC6CF096
:10F58800B8EC6FF00001F26FF251A3EC6EF0D10EFF
:10F59800206EF50E216EFF0E226EF2C023F0246A53
:10F5A80027EC6DF020500001F06F010E026E000E86
:10F5B80095EC6DF0D10E026E036AF0C004F0D3EC46
:10F5C80070F0E3EC6CF00009D8B4EDEF7AF0EFEFEF
:10F5D8007AF0E5EF7AF0C20E8EEC6CF0E3EC6CF0AA
:10F5E8000009D8B4FAEF7AF0FCEF7AF0F2EF7AF08B
:10F5F8000001F2518EEC6CF0E3EC6CF00009D8B429
:10F6080008EF7BF00AEF7BF000EF7BF0C60E8EEC84
:10F618006CF0E3EC6CF00009D8B415EF7BF017EF51
:10F628007BF00DEF7BF00001F2518EEC6CF088EF6F
:10F6380076F0B5EC6CF0000E026E000E95EC6DF0F5
:10F648007F0E026EFF0E036E080E046ED3EC70F090
:10F65800B70E206EFC0E216EA8EC6CF0070E206E23
:10F66800FC0E216EA8EC6CF0B8EC6FF00001F26FA4
:10F67800FD0E206EFA0E216EA8EC6CF0B8EC6FF05F
:10F688000001E96FF251E925DC6FDD6BDD37E9C078
:10F6980002F0F2517FEC6FF0D10E206EEF0E216E6A
:10F6A800FF0E226EF2C023F0246AE9C025F0266A14
:10F6B80027EC6DF020500001F06F010E026E000E75
:10F6C80095EC6DF0D10E026E036AF0C004F0D3EC35
:10F6D80070F0E3EC6CF00009D8B475EF7BF077EFCD
:10F6E8007BF06DEF7BF0C10E8EEC6CF0E3EC6CF010
:10F6F8000009D8B482EF7BF084EF7BF07AEF7BF0DF
:10F708000001DC518EEC6CF0E3EC6CF00009D8B42D
:10F7180090EF7BF092EF7BF088EF7BF0C50E8EECDC
:10F728006CF0E3EC6CF00009D8B49DEF7BF09FEF30
:10F738007BF095EF7BF00001F2518EEC6CF088EFD6
:10F7480076F0B5EC6CF0000E026E000E95EC6DF0E4
:10F75800880E026EFF0E036E080E046ED3EC70F076
:10F76800B70E206EFC0E216EA8EC6CF0070E206E12
:10F77800FC0E216EA8EC6CF0B8EC6FF00001F26F93
:10F78800FD0E206EFA0E216EA8EC6CF0B8EC6FF04E
:10F798000001E96FF251E925DC6FDD6BDD37E9C067
:10F7A80002F0F2510FEC6FF0D10E206EEF0E216EC9
:10F7B800FF0E226EF2C023F0246AE9C025F0266A03
:10F7C80027EC6DF020500001F06F010E026E000E64
:10F7D80095EC6DF0D10E026E036AF0C004F0D3EC24
:10F7E80070F0E3EC6CF00009D8B4FDEF7BF0FFEFAC
:10F7F8007BF0F5EF7BF0C10E8EEC6CF0E3EC6CF077
:10F808000009D8B40AEF7CF00CEF7CF002EF7CF032
:10F818000001F2518EEC6CF0E3EC6CF00009D8B406
:10F8280018EF7CF01AEF7CF010EF7CF0C50E8EEC30
:10F838006CF0E3EC6CF00009D8B425EF7CF027EF0E
:10F848007CF01DEF7CF00001DC518EEC6CF088EF51
:10F8580076F0B5EC6CF0000E026E000E95EC6DF0D3
:10F868006D0E026EFF0E036E080E046ED3EC70F080
:10F87800B70E206EFC0E216EA8EC6CF026EC6CF036
:10F88800E3EC6CF00009D8B44CEF7CF04EEF7CF060
:10F8980044EF7CF0C10E8EEC6CF0E3EC6CF00009E8
:10F8A800D8B459EF7CF05BEF7CF051EF7CF0000EA0
:10F8B8008EEC6CF0E3EC6CF00009D8B466EF7CF0E9
:10F8C80068EF7CF05EEF7CF0C50E8EEC6CF0E3EC3C
:10F8D8006CF00009D8B473EF7CF075EF7CF06BEF37
:10F8E8007CF0000E8EEC6CF088EF76F0B5EC6CF0E6
:10F8F800000E026E000E95EC6DF0B50E026EFF0E56
:10F90800036E080E046ED3EC70F040EC6EF002C08B
:10F91800E7F003C0E8F0D10E206EE90E216EFF0E6D
:10F92800226EE7C023F0E8C024F027EC6DF02050E9
:10F938000001F06F010E026E000E95EC6DF0D10E15
:10F94800026E036AF0C004F0D3EC70F0D9EC72F0E8
:10F9580088EF76F0DE51420AD8B4A9EF7AF0040AAB
:10F96800D8B435EF7AF00A0AD8B41DEF7BF01E0A36
:10F97800D8B4A5EF7BF0010AD8B42DEF7CF0300A9B
:10F98800D8B48EEF76F0070AD8B428EF79F0090AD0
:10F99800D8B47AEF7CF01F0AD8B49DEF77F0060A46
:10F9A800D8B456EF78F0020AD8B4F3EF79F088EFBC
:10F9B80076F0CBAAE2EF7CF0E4EF7CF069EF7DF023
:10F9C800D9EC72F0B5EC6CF0000E026E000E95ECFE
:10F9D8006DF0490E026EFF0E036E080E046ED3EC36
:10F9E80070F040EC6EF002C0E7F003C0E8F0D10E12
:10F9F800206EE90E216EFF0E226EE7C023F0E8C0EC
:10FA080024F027EC6DF020500001F06F010E026E1B
:10FA1800000E95EC6DF0D10E026E036AF0C004F092
:10FA2800D3EC70F03D0E446EE10E436E400EE82EAE
:10FA3800FED7432EFCD7442EFAD7000E026E000ED6
:10FA480095EC6DF0D00E026EFF0E036E080E046E7C
:10FA5800D3EC70F012EC6EF0010E026E000E95EC15
:10FA68006DF0640E026EFF0E036E080E046ED3EC8A
:10FA780070F0060E04EC74F0100E436E940EE82E2F
:10FA8800FED7432EFCD700D0430E016E900E78ECC3
:10FA98006CF022EC6CF0140ED9EC6EF06AEC73F09A
:10FAA80024EC6CF01F0E206EFF0E216ED2EC6CF071
:10FAB80001C022F002C023F0A8EC6CF0026A000E2C
:10FAC800016E4DEC6CF04DEF7DF0FEEF7FF0000025
:10FAD800000000000000000000000000000000001E
:10FAE800000000000000000000000000000000000E
:10FAF80000000000000920506C6561736520656E88
:10FB080074657220746865207475726E696E6720FA
:10FB1800646966666572656E7469616C3A207370B3
:10FB2800656564202B20646966666572656E746914
:10FB3800616C203C20313237200D0A0020207620CD
:10FB48000909202876296F6C74616765202D205279
:10FB580065616420616E6420646973706C617920EA
:10FB68006261747465727920766F6C746167652060
:10FB78000D0A00496E76616C696420696E7075744F
:10FB88002E20506C65617365207265646F206E75F8
:10FB98006D65726963616C20696E7075742E200DD5
:10FBA8000A00202074200909202872296561642030
:10FBB80063616C696272617465642073656E736FEA
:10FBC800727320636F6E7354616E746C79200D0AC2
:10FBD800000920506C6561736520656E746572203C
:10FBE800746865206261636B776172642073706505
:10FBF80065642C2030202D20313237200D0A000971
:10FC080020506C6561736520656E74657220746838
:10FC18006520666F72776172642073706565642C05
:10FC28002030202D20313237200D0A00506C6163BE
:10FC38006520616C6C20666976652073656E736FEC
:10FC48007273206F6E206120776869746520737500
:10FC58007266616365200A0D00506C6163652061FE
:10FC68006C6C20666976652073656E736F7273209D
:10FC78006F6E206120626C61636B207375726661C0
:10FC88006365200A0D00496E76616C696420656EB3
:10FC98007472792E2020456E7465722073656E73B8
:10FCA8006F72206E756D6265722C20302D34200ABB
:10FCB8000D0020207220090920287229656164201E
:10FCC80063616C696272617465642073656E736FD9
:10FCD8007273200D0A002020422009092057686508
:10FCE800656C7320726F74617465202842296163A2
:10FCF8006B77617264200D0A0020206420090920B6
:10FD08002864296973706C61792073656E736F72EA
:10FD180020782076616C7565200D0A002020462029
:10FD2800090920576865656C7320726F7461746582
:10FD3800202846296F7277617264200D0A00092A0B
:10FD480020202020202020202020202020202020AB
:10FD58002020202020202020202020202A0D0A00DA
:10FD6800092A202020202020446961676E6F73745F
:10FD78006963204D656E75202020202020202A0DE3
:10FD88000A00092A202020415053432031323939B2
:10FD9800202D20506F6C6F6C7520337069202020E7
:10FDA8002A0D0A00092A2A2A2A2A2A2A2A2A2A2A33
:10FDB8002A2A2A2A2A2A2A2A2A2A2A2A2A2A2A2A9B
:10FDC8002A2A2A0D0A0020206320090920286329ED
:10FDD800616C6962726174652073656E736F7273AA
:10FDE800200D0A0057686974652063616C69627246
:10FDF8006174696F6E20636F6D706C657465200A3D
:10FE08000D00426C61636B2063616C69627261749E
:10FE1800696F6E20636F6D706C657465200A0D00E4
:10FE2800436F6D6D616E64204B65792009204465D0
:10FE3800736372697074696F6E200D0A0050726581
:10FE4800737320616E79206B657920746F20636FFE
:10FE58006E74696E7565200A0D0020206D200909F1
:10FE6800205265667265736820286D29656E752055
:10FE78000D0A0043616C6962726174696F6E206378
:10FE88006F6D706C657465200A0D0042617474654D
:10FE9800727920766F6C74616765203D2025752026
:10FEA8000A0D002020522009092028522969676874
:10FEB80074207475726E200D0A00202053200909E1
:10FEC80020285329746F70206D6F746F72200D0A8B
:10FED8000020204C20090920284C296566742074CC
:10FEE80075726E200D0A0053656E736F722025754A
:10FEF800203D202575200A0D0053656E736F722012
:10FF080025643A2025750A0053656E736F722E209A
:10FF180025642025750A0074696D6572203D2025C9
:10FF280075200A0D0043616C696272617465002076
:10FF38002020474F202020002020534554202020F7
:10FF480000202052756E202020002052454144593F
:10FF58002020002020526561642020002020646F4A
:10FF68006E65202000202053746F70202000202010
:10FF78002575207320200020204C65667420200001
:10FF8800205269676874202000466F727761726436
:10FF9800200053656E736F7273200042617474653C
:10FFA800727920004261636B776172640044696111
:10FFB800676E6F736500436F6D706C6574650043A1
:10FFC8006F756E74696E67004175746F2043616C5C
:10FFD8000053656E736F72200053656E736F727392
:10FFE800002575206D56002575202575002025757E
:03FFF800200000E6
:04FFFC00C3EF6CF0F3
:020000040030CA
:0A000000ECFEF7FF9FFFFFFFFFFF7C
:00000001FF
