:04000000FEEF7FF0A0
:10DB2600120012001200120012001200B88E12002B
:10DB3600B89E1200000E50EC70F01200026E0250F9
:10DB460012EC6EF0120001C04DF002C04EF0120051
:10DB560001C051F002C052F0120001C04FF002C0E5
:10DB660050F0120001C047F002C048F0120001C098
:10DB76004BF002C04CF0120001C049F002C04AF05E
:10DB860012000250B76E600007F0B6FF1200DAEC22
:10DB96006DF099EC72F0D1EC6DF01200600E390167
:10DBA600D96FDB6BDD6B070EDF6FDE6B12003901A1
:10DBB600C06BC16BC26BC36BC46BC56BC66BC76BEB
:10DBC60012003901A3B7EAEF6DF0EDEF6DF0010E2B
:10DBD600EEEF6DF0000E1200026E60000BF0B8FF63
:10DBE600600007F0B9FFB89E3901A39F1200390102
:10DBF600A6B500EF6EF003EF6EF0010E04EF6EF0C7
:10DC0600000E1200016E3901A3A90CEF6EF00EEFA3
:10DC16006EF006EF6EF0600007F0EAFD1200016E8E
:10DC26003901A6A719EF6EF01BEF6EF013EF6EF039
:10DC3600600007F0D2FD1200220E266E000E1A6E4C
:10DC460020C01BF021C01CF0260E1D6E5EEC6FF08E
:10DC560012005AEC6EF00009D8B434EF6EF036EFCD
:10DC66006EF02CEF6EF0B70E05EC6EF0120000EEC3
:10DC760060F05B0EEE6AE806FDE100EE53F00B0E77
:10DC8600EE6AE806FDE100011BEF77F06F00D8FEB3
:10DC960007F06F00DCFE08F00850036E0750056EB3
:10DCA60003C006F005C001F006C002F01200016ACA
:10DCB6003901A3A961EF6EF063EF6EF06DEF6EF0C0
:10DCC6003D01F2AB69EF6EF06BEF6EF06DEF6EF04B
:10DCD600010E016E01501200016A3901A6A776EF06
:10DCE6006EF078EF6EF082EF6EF03D01DAAB7EEF0C
:10DCF6006EF080EF6EF082EF6EF0010E016E015055
:10DD0600120008BE89EF6EF08BEF6EF091EF6EF0A9
:10DD160007C007F008C008F09DEF6EF007C009F0D5
:10DD260008C00AF0091E0A1E094A0A2A09C007F095
:10DD36000AC008F01200230E296E20C02AF02D6AB0
:10DD4600000E2C6E346A000E336E2A0E1A6E21C037
:10DD56001BF022C01CF0290E1D6E5EEC6FF01AC07F
:10DD660027F01BC028F020502C24D96EDA6ADF6A0F
:10DD760027C020F028C021F012003D01D46BD66BDD
:10DD8600D86BB00EDA6F800EDB6FDC6BE10EDD6FE9
:10DD9600040EDE6FDF6BE06BE16BE26B2E0E016E45
:10DDA600DB0E026EBAEC6DF0300E016EDB0E026E0B
:10DDB600BFEC6DF02C0E016EDB0E026EB5EC6DF055
:10DDC6005C6A12003D01EC6BED6BEE6BEF6BF06B7A
:10DDD600F16BB00EF26F800EF36FF46B670EF56F9A
:10DDE600F66BF76BF86BF96BFA6B280E016EDB0EB0
:10DDF600026EABEC6DF02A0E016EDB0E026EB0EC1D
:10DE06006DF0260E016EDB0E026EA6EC6DF05D6AFD
:10DE16001200036E5AEC6EF00009D8B415EF6FF0DD
:10DE260017EF6FF00DEF6FF0B90E05EC6EF05AECD0
:10DE36006EF00009D8B422EF6FF024EF6FF01AEFFE
:10DE46006FF0035005EC6EF05AEC6EF00009D8B492
:10DE56002FEF6FF031EF6FF027EF6FF0025005EC08
:10DE66006EF01200026E5AEC6EF00009D8B43EEF66
:10DE76006FF040EF6FF036EF6FF0B80E05EC6EF016
:10DE86005AEC6EF00009D8B44BEF6FF04DEF6FF01F
:10DE960043EF6FF0010E05EC6EF05AEC6EF00009E0
:10DEA600D8B458EF6FF05AEF6FF050EF6FF00250A2
:10DEB60005EC6EF012001BC01EF01CC01FF0546A69
:10DEC600000E536E73EF6FF01AC00BF01E0E0C6E41
:10DED6001DC00DF080EC75F00B5053260C505422EB
:10DEE60060007BF0F6FF60007FF0F7FFF86A08003D
:10DEF600F5500009D8A482EF6FF084EF6FF067EF5A
:10DF06006FF053C01AF054C01BF012005AEC6EF0BA
:10DF16000009D8B491EF6FF093EF6FF089EF6FF0CF
:10DF2600BA0E05EC6EF0E4EC6DF00009D8B49EEF85
:10DF36006FF0A0EF6FF096EF6FF0ACEF6FF0E4ECE0
:10DF46006DF00009D8B4AAEF6FF0ACEF6FF0A2EF56
:10DF56006FF0B6EC71F0630AD8A4B4EF6FF0B6EFC9
:10DF66006FF0A2EF6FF012005AEC6EF00009D8B411
:10DF7600BFEF6FF0C1EF6FF0B7EF6FF0B10E05ECCA
:10DF86006EF0E4EC6DF00009D8B4CCEF6FF0CEEF94
:10DF96006FF0C4EF6FF0B6EC71F0066EE4EC6DF066
:10DFA6000009D8B4D9EF6FF0DBEF6FF0D1EF6FF067
:10DFB600B6EC71F0076E0750056E046A065004242D
:10DFC600026E000E0520036E120003500410D8B432
:10DFD600EFEF6FF0F1EF6FF015EF70F0010E056ED9
:10DFE600F9EF6FF0D89003360436052A04AEFEEF3B
:10DFF6006FF000EF70F0F5EF6FF00350015C045026
:10E006000258D8A009EF70F00BEF70F00FEF70F028
:10E016000350015E0450025AD89004320332052E92
:10E0260000EF70F001C001F002C002F01200026EB3
:10E036005AEC6EF00009D8B423EF70F025EF70F0BB
:10E046001BEF70F0C10E05EC6EF05AEC6EF0000995
:10E05600D8B430EF70F032EF70F028EF70F0025065
:10E0660005EC6EF05AEC6EF00009D8B43DEF70F096
:10E076003FEF70F035EF70F0C50E05EC6EF05AEC20
:10E086006EF00009D8B44AEF70F04CEF70F042EF32
:10E0960070F0022805EC6EF01200026E5AEC6EF07B
:10E0A6000009D8B459EF70F05BEF70F051EF70F0E3
:10E0B600C10E05EC6EF05AEC6EF00009D8B466EFAE
:10E0C60070F068EF70F05EEF70F0025005EC6EF0E5
:10E0D6005AEC6EF00009D8B473EF70F075EF70F07B
:10E0E6006BEF70F0C50E05EC6EF05AEC6EF00009A1
:10E0F600D8B480EF70F082EF70F078EF70F00228FD
:10E1060005EC6EF01200036E5AEC6EF00009D8B4FE
:10E116008FEF70F091EF70F087EF70F0C10E05ECA5
:10E126006EF05AEC6EF00009D8B49CEF70F09EEFDA
:10E1360070F094EF70F00350022405EC6EF05AEC88
:10E146006EF00009D8B4AAEF70F0ACEF70F0A2EF51
:10E1560070F0C50E05EC6EF05AEC6EF00009D8B4FE
:10E16600B7EF70F0B9EF70F0AFEF70F0032805EC81
:10E176006EF01200066A000E056E03500410D8B445
:10E18600C7EF70F0C9EF70F0F1EF70F0010E076E97
:10E19600D1EF70F0D89003360436072A04AED6EFD6
:10E1A60070F0D8EF70F0CDEF70F0D89005360636E7
:10E1B6000350015C04500258D8A0E4EF70F0E6EF7B
:10E1C60070F0EBEF70F00350015E0450025A0580C8
:10E1D600D89004320332072ED8EF70F005C001F054
:10E1E60006C002F01200046E5AEC6EF00009D8B4B4
:10E1F600FFEF70F001EF71F0F7EF70F0C10E05EC74
:10E206006EF05AEC6EF00009D8B40CEF71F00EEF18
:10E2160071F004EF71F0045005EC6EF05AEC6EF0FC
:10E226000009D8B419EF71F01BEF71F011EF71F01E
:10E23600C50E05EC6EF05AEC6EF00009D8B426EF68
:10E2460071F028EF71F01EEF71F004500224036E96
:10E25600032805EC6EF012002868276A67EF71F054
:10E2660072EC71F0286E0D0E2818D8A43DEF71F0EF
:10E276003FEF71F041EF71F067EF71F02F0E2864F8
:10E2860047EF71F049EF71F051EF71F0390E2864E4
:10E296004FEF71F051EF71F061EF71F0B80E206E33
:10E2A600FC0E216E1FEC6EF0AB0E206EFB0E216E87
:10E2B6001FEC6EF0276A286867EF71F027500A0D89
:10E2C600F3502824D00F276E0D0E2818D8A46EEF11
:10E2D60071F070EF71F033EF71F0275012000268A1
:10E2E6009BEF71F0FAEC6DF00009D8B47DEF71F098
:10E2F6007FEF71F09BEF71F000EC72F0026E6FEC45
:10E306006EF00009D8B48AEF71F08CEF71F09BEFD4
:10E3160071F0025012EC6EF00D0E0218D8A496EFB2
:10E3260071F098EF71F09BEF71F00A0E12EC6EF03F
:10E336002F0E0264A1EF71F0A3EF71F0ABEF71F055
:10E346007A0E0264A9EF71F0ABEF71F0B4EF71F0E1
:10E356000D0E0218D8A4B2EF71F0B4EF71F075EF9C
:10E3660071F0025012003901A3A7BCEF71F0BEEFA5
:10E3760071F0B6EF71F05D6A3D01F9A7C5EF71F076
:10E38600C7EF71F0D4EF71F05D8202D8D4EF71F06F
:10E396000500FA6E5150FD6E5250FE6EFF6AFA503D
:10E3A60012003D01F9A3DAEF71F0DCEF71F0E9EF4D
:10E3B60071F05D8402D8E9EF71F00500FA6E4F50F6
:10E3C600FD6E5050FE6EFF6AFA5012005D50D8B4D2
:10E3D600EFEF71F0F1EF71F0FDEF71F002D8FDEFA4
:10E3E60071F00500FA6E4D50FD6E4E50FE6EFF6ADE
:10E3F600FA5012003D01E85112003901A6A506EFB8
:10E4060072F008EF72F000EF72F05C6A3D01E1A76E
:10E416000FEF72F011EF72F01EEF72F05C8202D80D
:10E426001EEF72F00500FA6E4B50FD6E4C50FE6EFC
:10E43600FF6AFA5012003D01E1A324EF72F026EFC5
:10E4460072F033EF72F05C8402D833EF72F005009D
:10E45600FA6E4950FD6E4A50FE6EFF6AFA5012007F
:10E466005C50D8B439EF72F03BEF72F047EF72F0C0
:10E4760002D847EF72F00500FA6E4750FD6E48501D
:10E48600FE6EFF6AFA5012003D01D0511200076A73
:10E496005AEC6EF00009D8B453EF72F055EF72F0F3
:10E4A6004BEF72F0B80E05EC6EF05AEC6EF0000908
:10E4B600D8B460EF72F062EF72F058EF72F0045069
:10E4C60005EC6EF08FEF72F05AEC6EF00009D8B4DE
:10E4D6006FEF72F071EF72F08FEF72F00750022457
:10E4E600056E000E0320066E600017F0F6FF600052
:10E4F6001BF0F7FF000EF86E0F0EF76403D008004E
:10E50600F55007D06F00DBFFE9FF6F00DFFFEAFF82
:10E51600EF5005EC6EF0072A0450075CD8A096EF82
:10E5260072F098EF72F067EF72F01200BE6ABD6A81
:10E53600BA6ABB6ABC6A070EC66EC268BF0EC36EF5
:10E54600840EC46EC5683A01706B606B2F0E506FF7
:10E55600070E806FEF0E406F716B816B516B416BD5
:10E56600616B5A6B5B6B6A6B6B6B7A6B7B6B826BEB
:10E57600426B526B180E626F726B43695369636923
:10E586007369070E836F44695469646974690F0E71
:10E59600846F0F0EE86F250E106F160E0E6F210E8C
:10E5A600136F0F0E116F220E146F170EE56F040E08
:10E5B600C36F130EE16F0C0EDD6F140EE26F120EB9
:10E5C600CA6F0D0E156F130E166F12000550D8B4D4
:10E5D600EFEF72F0F1EF72F0F9EF72F00550D8A498
:10E5E600F7EF72F0F9EF72F0FEEF72F00350A1EC64
:10E5F6006DF03EEF73F00550D96EDA6A090ED92632
:10E60600DE50DE10D8B40AEF73F00CEF73F025EF8E
:10E6160073F00550D96EDA6A090ED9260550E16EF7
:10E62600E26A020EE126DE50E65CE650800A0A6ED9
:10E63600DE50800A0A58D8B023EF73F025EF73F046
:10E646003EEF73F00550D96EDA6A020ED926DF5016
:10E65600066E0550D96EDA6ADF500624D96EDA6A7C
:10E6660060000FF0DFFF0550D96EDA6A020ED92678
:10E67600DE2A000EDD221200066A02BE47EF73F0A4
:10E6860045EF73F04DEF73F0016C021ED8B0022A0D
:10E69600010E066E04BE54EF73F052EF73F058EF9E
:10E6A60073F0036C041ED8B0042A03500410D8B4C7
:10E6B6005FEF73F061EF73F085EF73F0010E056E97
:10E6C60069EF73F0D89003360436052A04AE6EEF70
:10E6D60073F070EF73F065EF73F00350015C045054
:10E6E6000258D8A079EF73F07BEF73F07FEF73F0E9
:10E6F6000350015E0450025AD89004320332052EAC
:10E7060070EF73F00650D8B48BEF73F08DEF73F0A3
:10E7160091EF73F0016C021ED8B0022A01C001F01D
:10E7260002C002F012005AEC6EF00009D8B49EEF57
:10E7360073F0A0EF73F096EF73F0B40E05EC6EF085
:10E74600126AE4EC6DF00009D8B4ACEF73F0AEEFEA
:10E7560073F0A4EF73F01250080FD96EDA6AB6ECB4
:10E7660071F0DF6EE4EC6DF00009D8B4BDEF73F024
:10E77600BFEF73F0B5EF73F012500D0FD96EDA6A72
:10E78600B6EC71F0DF6E12500D0FD96EDA6ADF50FB
:10E79600046E0450066E056A1250080FD96EDA6AC6
:10E7A600DF50076E07500526000E06221250020D96
:10E7B600F350A70FD96EDA6A600017F0DEFF60002B
:10E7C6001BF0DDFF122A040E1264ECEF73F0EEEF7D
:10E7D60073F0A4EF73F0A70E1200066A04BEF8EFFA
:10E7E60073F0F6EF73F0FEEF73F0036C041ED8B00F
:10E7F600042A010E066E02BE05EF74F003EF74F0F4
:10E806000BEF74F0016C021ED8B0022A010E061A34
:10E81600086A000E076E03500410D8B415EF74F0A2
:10E8260017EF74F03FEF74F0010E056E1FEF74F0F2
:10E83600D89003360436052A04AE24EF74F026EF8A
:10E8460074F01BEF74F0D890073608360350015C5D
:10E8560004500258D8A032EF74F034EF74F039EF58
:10E8660074F00350015E0450025A0780D8900432B7
:10E876000332052E26EF74F00650D8B445EF74F037
:10E8860047EF74F04BEF74F0076C081ED8B0082AF7
:10E8960007C001F008C002F01200D70E206EFB0E72
:10E8A600216E1FEC6EF0AD0E206EFD0E216E1FEC7C
:10E8B6006EF0470E206EFD0E216E1FEC6EF08B0E75
:10E8C600206EFD0E216E1FEC6EF0690E206EFD0EA1
:10E8D600216E1FEC6EF0470E206EFD0E216E1FECB2
:10E8E6006EF0AD0E206EFD0E216E1FEC6EF0B80EB2
:10E8F600206EFC0E216E1FEC6EF0290E206EFE0EB1
:10E90600216E1FEC6EF0CF0E206EFD0E216E1FECF9
:10E916006EF0BB0E206EFC0E216E1FEC6EF0020E2A
:10E92600206EFD0E216E1FEC6EF0D70E206EFB0ED4
:10E93600216E1FEC6EF0740E206EFB0E216E1FEC26
:10E946006EF0D70E206EFB0E216E1FEC6EF0250EBC
:10E95600206EFD0E216E1FEC6EF0DF0E206EFC0E9B
:10E96600216E1FEC6EF0DA0E206EFE0E216E1FEC8D
:10E976006EF0AC0E206EFE0E216E1FEC6EF0C30E16
:10E98600206EFE0E216E1FEC6EF0D70E206EFB0E73
:10E99600216E1FEC6EF0630E206EFE0E216E1FECD4
:10E9A6006EF0B80E206EFC0E216E1FEC6EF012009B
:10E9B600406E40C042F02CEC6EF0C80E026EFF0EA8
:10E9C600036E080E046E4AEC72F0480E016E900E4D
:10E9D600EFEC6DF099EC6DF0010E026E000E0CEC92
:10E9E6006FF0350E206E770E216EFF0E226E42C03E
:10E9F60023F0246A9EEC6EF02050416E350E026EB6
:10EA0600036A41C004F04AEC72F075EF75F049EC08
:10EA16006EF001C03EF002C03FF01B0E3E5CB70E2A
:10EA26003F58D8A019EF75F01BEF75F075EF75F02C
:10EA36004206026A000E016EC4EC6DF066EF75F0D8
:10EA46002CEC6EF0010E026E000E0CEC6FF0380E20
:10EA5600026EFF0E036E080E046E4AEC72F075EF3E
:10EA660075F0010E026E000E0CEC6FF0410E026E98
:10EA7600FF0E036E080E046E4AEC72F075EF75F029
:10EA8600010E026E000E0CEC6FF0530E026EFF0EBE
:10EA9600036E080E046E4AEC72F075EF75F0010E07
:10EAA600026E000E0CEC6FF0350E206E770E216EA6
:10EAB600FF0E226E42C023F0246A9EEC6EF02050B8
:10EAC600416E01EF75F04250000AD8B423EF75F09D
:10EAD600010AD8B434EF75F0030AD8B443EF75F0E1
:10EAE60052EF75F04250D8A47BEF75F07DEF75F0CC
:10EAF6000AEF75F09BEC6DF01200126A000E116EB3
:10EB06000C50D96EDA6A6F007BFFF6FF6F0077FF55
:10EB1600F7FFF86A0800F550250AD8A495EF75F0B6
:10EB260097EF75F0FFEF76F00C50D96EDA6ADE2AB1
:10EB3600000EDD22566A000E556E55C05BF0576812
:10EB460058680C50D96EDA6A6F0078FF13F06F00C0
:10EB560074FF14F060004FF0F6FF600053F0F7FF0B
:10EB6600F86A0800F550640AD8B4BCEF75F0BEEF39
:10EB760075F0CFEF75F060004FF0F6FF600053F0D0
:10EB8600F7FFF86A0800F550690AD8A4CDEF75F0CA
:10EB9600CFEF75F067EF76F00D50D96EDA6A020E98
:10EBA600DF26DF5CD96EDA6A6F0078FF15F06F003A
:10EBB60078FF16F0010E13240E6E000E14200F6E51
:10EBC6000C50D96EDA6A60003BF0DEFF60003FF061
:10EBD600DDFF200E196E16BEF3EF75F0F6EF75F039
:10EBE600010EF7EF75F0000E106E19061950600F42
:10EBF600D96EDA6A15C001F016C002F0046A0A0E70
:10EC0600036E3FEC73F001C007F002C008F084EC1D
:10EC16006EF00750300FDF6E15C001F016C002F01F
:10EC2600046A0A0E036EF0EC73F001C015F002C020
:10EC360016F0114A122A15501610D8B425EF76F0A0
:10EC460027EF76F02FEF76F01950D8A42DEF76F057
:10EC56002FEF76F0F8EF75F01950D8B435EF76F05F
:10EC660037EF76F058EF76F01050D8B43DEF76F0E7
:10EC76003FEF76F058EF76F019061950600FD96E0F
:10EC8600DA6A2D0EDF6E114A122A58EF76F0195005
:10EC9600600FD96EDA6ADF500E6E0E50036E046A8C
:10ECA6000BC005F0E9EC72F0192A200E1918D8A449
:10ECB6005FEF76F061EF76F04AEF76F011C00BF079
:10ECC60012C00CF01AEF77F060004FF0F6FF60000C
:10ECD60053F0F7FFF86A0800F550750AD8A476EFE6
:10ECE60076F078EF76F0F4EF76F00D50D96EDA6ABA
:10ECF600020EDF26DF5CD96EDA6A6F0078FF15F048
:10ED06006F0078FF16F0010E13240E6E000E14200D
:10ED16000F6E0C50D96EDA6A60003BF0DEFF6000C1
:10ED26003FF0DDFFE5EF76F0200E196E190619505B
:10ED3600600FD96EDA6A15C001F016C002F0046AD7
:10ED46000A0E036EE8EC6FF00150300FDF6E15C04F
:10ED560001F016C002F0046A0A0E036EBDEC70F0F4
:10ED660001C015F002C016F0114A122A15501610ED
:10ED7600D8B4C0EF76F0C2EF76F0DAEF76F019503D
:10ED8600D8A4C8EF76F0CAEF76F099EF76F0DAEF0E
:10ED960076F01950600FD96EDA6ADF500E6E0E509B
:10EDA600036E046A0BC005F0E9EC72F0192A200E16
:10EDB6001918D8A4E1EF76F0E3EF76F0CCEF76F011
:10EDC60061EF76F060004FF0F6FF600053F0F7FF5A
:10EDD600F86A0800F550750AD8B497EF76F0F4EFA4
:10EDE60076F00C50D96EDA6ADE2A000EDD220C6A45
:10EDF600000E0B6E1AEF77F00C50D96EDA6A6F00C0
:10EE06007BFFF6FF6F0077FFF7FFF86A0800F55003
:10EE1600036E046A0BC005F0E9EC72F00C50D96E73
:10EE2600DA6ADE2A000EDD220C6A010E0B6E120073
:10EE3600CAEC6DF099EC72F0E5EC6EF0C0EC6EF099
:10EE4600C38A3A01509BCBBA2BEF77F02DEF77F0C0
:10EE5600F7EF7CF050EC74F02CEC6EF0000E026EC6
:10EE6600000E0CEC6FF0B60E026EFF0E036E080E6F
:10EE7600046E4AEC72F0B7EC6FF002C0E5F003C026
:10EE8600E6F0D10E206EEA0E216EFF0E226EE5C070
:10EE960023F0E6C024F09EEC6EF020500001EC6FEB
:10EEA600010E026E000E0CEC6FF0D10E026E036ABC
:10EEB600ECC004F04AEC72F072EC71F00001DE6F07
:10EEC600CCEF7CF02CEC6EF0000E026E000E0CEC1B
:10EED6006FF02E0E026EFF0E036E080E046E4AECE5
:10EEE60072F0010E026E000E0CEC6FF09B0E026EBD
:10EEF600FF0E036E080E046E4AEC72F0B80E206E1A
:10EF0600FC0E216E1FEC6EF00001DA6BE9EF77F074
:10EF1600350E206EFC0E216E1FEC6EF0460E206E36
:10EF2600FE0E216E1FEC6EF072EC71F00001BB6FED
:10EF360096EC73F00001E26FE46B000EE36FED6B8D
:10EF4600040EED65A9EF77F0ABEF77F0ADEF77F054
:10EF5600D8EF77F0ED51020DE251F324D96EDA6A5B
:10EF66006F0078FF43F06F0074FF44F0E3514324D1
:10EF7600E36FE4514420E46FF00E206EFE0E216E26
:10EF8600EDC022F0236AED51020DE251F324D96E51
:10EF9600DA6A6F0078FF24F06F0074FF25F01FEC2B
:10EFA6006EF00001ED2BA3EF77F0E351E411D8A446
:10EFB600DFEF77F0E1EF77F0E9EF77F0010EDA6F48
:10EFC600ED0E206EFD0E216E1FEC6EF00001DA5183
:10EFD600D8B4F0EF77F0F2EF77F08BEF77F0DB6BEA
:10EFE60069EF78F0620E206EFC0E216E1FEC6EF05B
:10EFF600460E206EFE0E216E1FEC6EF072EC71F066
:10F006000001BB6F96EC73F00001E26FE46B000E3B
:10F01600E36FED6B040EED6513EF78F015EF78F006
:10F0260017EF78F042EF78F0ED51020DE251F3243C
:10F03600D96EDA6A6F0078FF43F06F0074FF44F010
:10F04600E3514324E36FE4514420E46FF00E206E55
:10F05600FE0E216EEDC022F0236AED51020DE25143
:10F06600F324D96EDA6A6F0078FF24F06F0074FF1C
:10F0760025F01FEC6EF00001ED2B0DEF78F0880EF9
:10F08600E31907E1130EE419D8A44CEF78F04EEF1C
:10F0960078F069EF78F0010EDB6F0B0E206EFE0E36
:10F0A600216E1FEC6EF07C0E206EFE0E216E1FECA4
:10F0B6006EF0010E026E000E0CEC6FF0BF0E026ECB
:10F0C600FF0E036E080E046E4AEC72F00001DB516F
:10F0D600D8B470EF78F072EF78F0F5EF77F05FEF75
:10F0E60077F02CEC6EF0000E026E000E0CEC6FF05A
:10F0F6005C0E026EFF0E036E080E046E4AEC72F092
:10F10600010E026E000E0CEC6FF0E20E026EFF0EA8
:10F11600036E080E046E4AEC72F0B80E206EFC0EFA
:10F12600216E1FEC6EF05AEC6EF00009D8B49EEF1B
:10F1360078F0A0EF78F096EF78F0870E05EC6EF099
:10F146000001E96B000EE86FE9BFB3EF78F0E95113
:10F1560009E1050EE85DD8A0B3EF78F0B5EF78F0D9
:10F16600B7EF78F0FFEF78F0E4EC6DF00009D8B473
:10F17600BFEF78F0C1EF78F0B7EF78F00001E85113
:10F18600C60FD96EDA6AB6EC71F0DF6EE4EC6DF09C
:10F196000009D8B4D1EF78F0D3EF78F0C9EF78F062
:10F1A6000001E851CB0FD96EDA6AB6EC71F0DF6E6A
:10F1B6000001E851CB0FD96EDA6ADF50436E435037
:10F1C600456E446AE851C60FD96EDA6ADF50466E5C
:10F1D60046504426000E4522E851020DF350BC0F5E
:10F1E600D96EDA6A600013F1DEFF600017F1DDFF09
:10F1F600E84BE92BA7EF78F0E06B000EDF6FE0BF7E
:10F206000EEF79F0E05109E1050EDF5DD8A00EEFB3
:10F2160079F010EF79F012EF79F02DEF79F0110E09
:10F22600206EFF0E216EDFC022F0E0C023F0DF511A
:10F23600020DF350BC0FD96EDA6A6F0078FF24F026
:10F246006F0074FF25F01FEC6EF00001DF4BE02B22
:10F2560002EF79F0FAEC6DF0E806D8A435EF79F014
:10F2660037EF79F096EF78F072EC71F00001D06F1D
:10F27600710ED019D8A442EF79F044EF79F096EFE9
:10F2860078F05FEF77F02CEC6EF0000E026E000E59
:10F296000CEC6FF0DA0E026EFF0E036E070E046EB4
:10F2A6004AEC72F0B80E206EFC0E216E1FEC6EF06A
:10F2B6009F0E206EFC0E216E1FEC6EF072EC71F04C
:10F2C6000001E16F75EF79F0B80E206EFC0E216E2D
:10F2D6001FEC6EF08F0E206EFC0E216E1FEC6EF092
:10F2E60061EF79F02F0EE1657BEF79F07DEF79F034
:10F2F60067EF79F0350EE16183EF79F085EF79F00C
:10F3060067EF79F0000E026E070E0CEC6FF000014D
:10F31600E15135EC6FF05AEC6EF00009D8B496EF77
:10F3260079F098EF79F08EEF79F0870E05EC6EF0B4
:10F336000001EB6B000EEA6FEBBFABEF79F0EB5120
:10F3460009E1050EEA5DD8A0ABEF79F0ADEF79F0F3
:10F35600AFEF79F0F7EF79F0E4EC6DF00009D8B48F
:10F36600B7EF79F0B9EF79F0AFEF79F00001EA5134
:10F37600C60FD96EDA6AB6EC71F0DF6EE4EC6DF0AA
:10F386000009D8B4C9EF79F0CBEF79F0C1EF79F085
:10F396000001EA51CB0FD96EDA6AB6EC71F0DF6E76
:10F3A6000001EA51CB0FD96EDA6ADF50436E435043
:10F3B600456E446AEA51C60FD96EDA6ADF50466E68
:10F3C60046504426000E4522EA51020DF350BC0F6A
:10F3D600D96EDA6A600013F1DEFF600017F1DDFF17
:10F3E600EA4BEB2B9FEF79F0E151D00FDE6F020E67
:10F3F600206EFF0E216EDEC022F0236ADE51020D62
:10F40600F350BC0FD96EDA6A6F0078FF24F06F00F4
:10F4160074FF25F01FEC6EF05FEF77F02CEC6EF0CA
:10F42600000E026E000E0CEC6FF0A40E026EFF0EC4
:10F43600036E080E046E4AEC72F0B80E206EFC0ED7
:10F44600216E1FEC6EF0B7EC6FF002C0E5F003C062
:10F45600E6F0D10E206EEA0E216EFF0E226EE5C09A
:10F4660023F0E6C024F09EEC6EF020500001EC6F15
:10F47600010E026E000E0CEC6FF0D10E026E036AE6
:10F48600ECC004F04AEC72F0940E206EFE0E216E73
:10F49600E5C022F0E6C023F01FEC6EF05FEF77F0D8
:10F4A6002CEC6EF0000E026E000E0CEC6FF0920E5D
:10F4B600026EFF0E036E080E046E4AEC72F0B80E72
:10F4C600206EFC0E216E1FEC6EF0080E206EFC0EF8
:10F4D600216E1FEC6EF02FEC71F00001EE6FEE5115
:10F4E60050EC70F0D10E206EF60E216EFF0E226EDD
:10F4F600EEC023F0246A9EEC6EF020500001EC6F03
:10F50600010E026E000E0CEC6FF0D10E026E036A55
:10F51600ECC004F04AEC72F05AEC6EF00009D8B474
:10F5260097EF7AF099EF7AF08FEF7AF0C10E05EC4B
:10F536006EF05AEC6EF00009D8B4A4EF7AF0A6EF9C
:10F546007AF09CEF7AF00001EE5105EC6EF05AEC81
:10F556006EF00009D8B4B2EF7AF0B4EF7AF0AAEF01
:10F566007AF0C50E05EC6EF05AEC6EF00009D8B4D0
:10F57600BFEF7AF0C1EF7AF0B7EF7AF00001EE5103
:10F5860005EC6EF05FEF77F02CEC6EF0000E026E7D
:10F59600000E0CEC6FF0AD0E026EFF0E036E080E41
:10F5A600046E4AEC72F0B80E206EFC0E216E1FEC53
:10F5B6006EF0DA0E206EFB0E216E1FEC6EF02FEC55
:10F5C60071F00001EE6FEE511AEC70F0D10E206E64
:10F5D600F60E216EFF0E226EEEC023F0246A9EEC1C
:10F5E6006EF020500001EC6F010E026E000E0CEC66
:10F5F6006FF0D10E026E036AECC004F04AEC72F0B2
:10F606005AEC6EF00009D8B40BEF7BF00DEF7BF0EF
:10F6160003EF7BF0C20E05EC6EF05AEC6EF00009BB
:10F62600D8B418EF7BF01AEF7BF010EF7BF00001F7
:10F63600EE5105EC6EF05AEC6EF00009D8B426EFE8
:10F646007BF028EF7BF01EEF7BF0C60E05EC6EF02C
:10F656005AEC6EF00009D8B433EF7BF035EF7BF04F
:10F666002BEF7BF00001EE5105EC6EF05FEF77F0CB
:10F676002CEC6EF0000E026E000E0CEC6FF0800E9D
:10F68600026EFF0E036E080E046E4AEC72F0B80EA0
:10F69600206EFC0E216E1FEC6EF0080E206EFC0E26
:10F6A600216E1FEC6EF02FEC71F00001EE6F2D0E47
:10F6B600206EFB0E216E1FEC6EF02FEC71F0000138
:10F6C600E76FEE51E725DC6FDD6BDD37E7C002F053
:10F6D600EE51F6EC70F0D10E206EF00E216EFF0E9C
:10F6E600226EEEC023F0246AE7C025F0266A9EEC5F
:10F6F6006EF020500001EC6F010E026E000E0CEC55
:10F706006FF0D10E026E036AECC004F04AEC72F0A0
:10F716005AEC6EF00009D8B493EF7BF095EF7BF0CE
:10F726008BEF7BF0C10E05EC6EF05AEC6EF0000923
:10F73600D8B4A0EF7BF0A2EF7BF098EF7BF000014E
:10F74600DC5105EC6EF05AEC6EF00009D8B4AEEF61
:10F756007BF0B0EF7BF0A6EF7BF0C50E05EC6EF00C
:10F766005AEC6EF00009D8B4BBEF7BF0BDEF7BF02E
:10F77600B3EF7BF00001EE5105EC6EF05FEF77F032
:10F786002CEC6EF0000E026E000E0CEC6FF0890E83
:10F79600026EFF0E036E080E046E4AEC72F0B80E8F
:10F7A600206EFC0E216E1FEC6EF0080E206EFC0E15
:10F7B600216E1FEC6EF02FEC71F00001EE6F2D0E36
:10F7C600206EFB0E216E1FEC6EF02FEC71F0000127
:10F7D600E76FEE51E725DC6FDD6BDD37E7C002F042
:10F7E600EE5186EC70F0D10E206EF00E216EFF0EFB
:10F7F600226EEEC023F0246AE7C025F0266A9EEC4E
:10F806006EF020500001EC6F010E026E000E0CEC43
:10F816006FF0D10E026E036AECC004F04AEC72F08F
:10F826005AEC6EF00009D8B41BEF7CF01DEF7CF0AB
:10F8360013EF7CF0C10E05EC6EF05AEC6EF0000989
:10F84600D8B428EF7CF02AEF7CF020EF7CF00001A2
:10F85600EE5105EC6EF05AEC6EF00009D8B436EFB6
:10F866007CF038EF7CF02EEF7CF0C50E05EC6EF0E8
:10F876005AEC6EF00009D8B443EF7CF045EF7CF00B
:10F886003BEF7CF00001DC5105EC6EF05FEF77F0AA
:10F896002CEC6EF0000E026E000E0CEC6FF06E0E8D
:10F8A600026EFF0E036E080E046E4AEC72F0B80E7E
:10F8B600206EFC0E216E1FEC6EF09DEC6DF05AEC86
:10F8C6006EF00009D8B46AEF7CF06CEF7CF062EF62
:10F8D6007CF0C10E05EC6EF05AEC6EF00009D8B45F
:10F8E60077EF7CF079EF7CF06FEF7CF0000E05ECA3
:10F8F6006EF05AEC6EF00009D8B484EF7CF086EF17
:10F906007CF07CEF7CF0C50E05EC6EF05AEC6EF0E8
:10F916000009D8B491EF7CF093EF7CF089EF7CF08E
:10F92600000E05EC6EF05FEF77F02CEC6EF0000E3B
:10F93600026E000E0CEC6FF0B60E026EFF0E036E3A
:10F94600080E046E4AEC72F0B7EC6FF002C0E5F0F8
:10F9560003C0E6F0D10E206EEA0E216EFF0E226E77
:10F96600E5C023F0E6C024F09EEC6EF020500001C6
:10F97600EC6F010E026E000E0CEC6FF0D10E026EF3
:10F98600036AECC004F04AEC72F050EC74F05FEFDE
:10F9960077F0DE51420AD8B4C7EF7AF0040AD8B439
:10F9A60053EF7AF00A0AD8B43BEF7BF01E0AD8B4BC
:10F9B600C3EF7BF0010AD8B44BEF7CF0300AD8B421
:10F9C60065EF77F0070AD8B446EF79F0090AD8B49C
:10F9D60098EF7CF01F0AD8B474EF78F0040AD8B414
:10F9E60011EF7AF05FEF77F0CBAAFCEF7CF0FEEF39
:10F9F6007CF081EF7DF050EC74F02CEC6EF0000E94
:10FA0600026E000E0CEC6FF04A0E026EFF0E036ED5
:10FA1600080E046E4AEC72F0B7EC6FF002C0E5F027
:10FA260003C0E6F0D10E206EEA0E216EFF0E226EA6
:10FA3600E5C023F0E6C024F09EEC6EF020500001F5
:10FA4600EC6F010E026E000E0CEC6FF0D10E026E22
:10FA5600036AECC004F04AEC72F03D0E446EE10E0F
:10FA6600436E400EE82EFED7432EFCD7442EFAD71F
:10FA7600000E026E000E0CEC6FF0D10E026EFF0E41
:10FA8600036E080E046E4AEC72F089EC6FF0010EFC
:10FA9600026E000E0CEC6FF0650E026EFF0E036E2A
:10FAA600080E046E4AEC72F0060EDBEC74F0100ED3
:10FAB600436E940EE82EFED7432EFCD700D0400EA0
:10FAC600016E900EEFEC6DF099EC6DF0140E50ECAB
:10FAD60070F09BEC6DF0200E206EFF0E216E49EC4F
:10FAE6006EF001C022F002C023F01FEC6EF0026A35
:10FAF600000E016EC4EC6DF067EF7DF0FEEF7FF057
:10FB060000000000000000000000000000000000EF
:10FB160000000000000000000000000000000000DF
:10FB2600000000000000000920506C65617365202C
:10FB3600656E74657220746865207475726E696E80
:10FB46006720646966666572656E7469616C3A20E1
:10FB56007370656564202B20646966666572656EE0
:10FB66007469616C203C20313237200D0A00202058
:10FB760076200909202876296F6C74616765202D27
:10FB8600205265616420616E6420646973706C61E3
:10FB960079206261747465727920766F6C7461671E
:10FBA60065200D0A00496E76616C696420696E7085
:10FBB60075742E20506C65617365207265646F20C4
:10FBC6006E756D65726963616C20696E7075742EF1
:10FBD600200D0A000920506C6561736520656E74FE
:10FBE600657220746865206261636B776172642058
:10FBF60073706565642C2030202D20313237200D3E
:10FC06000A000920506C6561736520656E74657223
:10FC16002074686520666F72776172642073706500
:10FC260065642C2030202D20313237200D0A0050FB
:10FC36006C61636520616C6C20666976652073650E
:10FC46006E736F7273206F6E2061207768697465BA
:10FC56002073757266616365200A0D00506C6163DE
:10FC66006520616C6C20666976652073656E736FBE
:10FC76007273206F6E206120626C61636B207375F6
:10FC86007266616365200A0D00496E76616C69646F
:10FC960020656E7472792E2020456E74657220730D
:10FCA600656E736F72206E756D6265722C20302DD5
:10FCB60034200A0D002020722009092028722965A7
:10FCC60061642063616C6962726174656420736546
:10FCD6006E736F7273200D0A0020204220090920DE
:10FCE600576865656C7320726F746174652028426D
:10FCF6002961636B77617264200D0A0020206420FD
:10FD06000909202864296973706C61792073656E0E
:10FD1600736F7220782076616C7565200D0A00205D
:10FD2600204620090920576865656C7320726F7438
:10FD3600617465202846296F7277617264200D0A06
:10FD460000092A20202020202020202020202020DA
:10FD56002020202020202020202020202020202A93
:10FD66000D0A00092A202020202020446961676EA0
:10FD76006F73746963204D656E75202020202020E6
:10FD8600202A0D0A00092A20202041505343203101
:10FD9600323939202D20506F6C6F6C7520337069A5
:10FDA6002020202A0D0A00092A2A2A2A2A2A2A2A53
:10FDB6002A2A2A2A2A2A2A2A2A2A2A2A2A2A2A2A9D
:10FDC6002A2A2A2A2A2A0D0A002020632009092025
:10FDD600286329616C6962726174652073656E734C
:10FDE6006F7273200D0A0057686974652063616C31
:10FDF6006962726174696F6E20636F6D706C657491
:10FE060065200A0D00426C61636B2063616C696258
:10FE1600726174696F6E20636F6D706C65746520B6
:10FE26000A0D00436F6D6D616E64204B6579200984
:10FE3600204465736372697074696F6E200D0A00E1
:10FE4600507265737320616E79206B657920746FCB
:10FE560020636F6E74696E7565200A0D0020206D33
:10FE6600200909205265667265736820286D296528
:10FE76006E75200D0A0043616C6962726174696F68
:10FE86006E20636F6D706C657465200A0D004261AB
:10FE9600747465727920766F6C74616765203D2095
:10FEA6002575200A0D0020205220090920285229F4
:10FEB60069676874207475726E200D0A00202053DD
:10FEC60020090920285329746F70206D6F746F7292
:10FED600200D0A0020204C20090920284C2965669F
:10FEE60074207475726E200D0A0053656E736F72FE
:10FEF600202575203D202575200A0D0053656E735B
:10FF06006F722025643A2025750A0053656E736F5B
:10FF1600722E2025642025750A0074696D6572208D
:10FF26003D202575200A0D0043616C69627261747B
:10FF36006500202020474F202020002020534554D4
:10FF460020202000202052756E20202000205245BF
:10FF56004144592020002020526561642020002061
:10FF660020646F6E65202000202053746F7020205F
:10FF76000020202575207320200020204C65667403
:10FF8600202000205269676874202000466F72772F
:10FF9600617264200053656E736F72732000426154
:10FFA600747465727920004261636B7761726400D4
:10FFB600446961676E6F736500436F6D706C65743D
:10FFC6006500436F756E74696E67004175746F20C6
:10FFD60043616C0053656E736F72200053656E73D8
:10FFE6006F7273002575206D5600257520257500E6
:0AFFF6002025752000003AEF6EF0A0
:020000040030CA
:0A000000ECFEF7FF9FFFFFFFFFFF7C
:00000001FF
