:04000000FEEF7FF0A0
:10D84A00120012001200120012001200B88E12000A
:10D85A00B89E1200000EF0EC6EF01200026E02503A
:10D86A00A4EC6CF0120001C0F1F002C0F2F0120058
:10D87A0001C05EF002C05FF0120001C05CF002C09D
:10D88A005DF0120001C0EBF002C0ECF0120001C022
:10D89A00EFF002C0F0F0120001C0EDF002C0EEF0AD
:10D8AA0012000250B76E600007F0B6FF12006CEC6F
:10D8BA006CF08CEC71F063EC6CF01200600E3901C4
:10D8CA00D96FDB6BDD6B070EDF6FDE6B1200390180
:10D8DA00C06BC16BC26BC36BC46BC56BC66BC76BCA
:10D8EA0012003901A3B77CEF6CF07FEF6CF0010EE8
:10D8FA0080EF6CF0000E1200026E60000BF0B8FFB1
:10D90A00600007F0B9FFB89E3901A39F12003901E0
:10D91A00A6B592EF6CF095EF6CF0010E96EF6CF0F5
:10D92A00000E1200016E3901A3A99EEF6CF0A0EF60
:10D93A006CF098EF6CF0600007F0EAFD1200016EDF
:10D94A003901A6A7ABEF6CF0ADEF6CF0A5EF6CF068
:10D95A00600007F0D2FD1200220E266E000E1A6E2B
:10D96A0020C01BF021C01CF0260E1D6EFEEC6DF0CF
:10D97A001200FAEC6CF00009D8B4C6EF6CF0C8EFEC
:10D98A006CF0BEEF6CF0B70E97EC6CF01200FAEC8C
:10D99A006CF00009D8B4D4EF6CF0D6EF6CF0CCEF91
:10D9AA006CF0BC0E97EC6CF0120000EE60F0560EB4
:10D9BA00EE6AE806FDE100EE47F0150EEE6AE806AB
:10D9CA00FDE10001A1EF76F06F00D8FE07F06F00CD
:10D9DA00DCFE08F00850036E0750056E03C006F01F
:10D9EA0005C001F006C002F01200016A3901A3A9BC
:10D9FA0001EF6DF003EF6DF00DEF6DF03D01F2AB4D
:10DA0A0009EF6DF00BEF6DF00DEF6DF0010E016E89
:10DA1A0001501200016A3901A6A716EF6DF018EF3E
:10DA2A006DF022EF6DF03D01DAAB1EEF6DF020EFE5
:10DA3A006DF022EF6DF0010E016E0150120008BE6A
:10DA4A0029EF6DF02BEF6DF031EF6DF007C007F0A5
:10DA5A0008C008F03DEF6DF007C009F008C00AF0F1
:10DA6A00091E0A1E094A0A2A09C007F00AC008F054
:10DA7A001200230E296E20C02AF02D6A000E2C6E89
:10DA8A00346A000E336E2A0E1A6E21C01BF022C0B1
:10DA9A001CF0290E1D6EFEEC6DF01AC027F01BC09B
:10DAAA0028F020502C24D96EDA6ADF6A27C020F0C9
:10DABA0028C021F012003D01D46BD66BD86BB00E92
:10DACA00DA6F800EDB6FDC6BE10EDD6F040EDE6F4A
:10DADA00DF6BE06BE16BE26B520E016ED80E026EE9
:10DAEA004CEC6CF0540E016ED80E026E51EC6CF0D8
:10DAFA00500E016ED80E026E47EC6CF0506A12009E
:10DB0A003D01EC6BED6BEE6BEF6BF06BF16BB00EF6
:10DB1A00F26F800EF36FF46B670EF56FF66BF76BAF
:10DB2A00F86BF96BFA6B4C0E016ED80E026E3DEC77
:10DB3A006CF04E0E016ED80E026E42EC6CF04A0E7C
:10DB4A00016ED80E026E38EC6CF0516A1200036E48
:10DB5A00FAEC6CF00009D8B4B5EF6DF0B7EF6DF0E0
:10DB6A00ADEF6DF0B90E97EC6CF0FAEC6CF00009C1
:10DB7A00D8B4C2EF6DF0C4EF6DF0BAEF6DF0035098
:10DB8A0097EC6CF0FAEC6CF00009D8B4CFEF6DF0BA
:10DB9A00D1EF6DF0C7EF6DF0025097EC6CF0120008
:10DBAA00026EFAEC6CF00009D8B4DEEF6DF0E0EF2B
:10DBBA006DF0D6EF6DF0B80E97EC6CF0FAEC6CF0F5
:10DBCA000009D8B4EBEF6DF0EDEF6DF0E3EF6DF017
:10DBDA00010E97EC6CF0FAEC6CF00009D8B4F8EF8F
:10DBEA006DF0FAEF6DF0F0EF6DF0025097EC6CF01B
:10DBFA0012001BC01EF01CC01FF0486A000E476EC0
:10DC0A0013EF6EF01AC00BF01E0E0C6E1DC00DF055
:10DC1A0006EC75F00B5047260C50482260007BF04A
:10DC2A00F6FF60007FF0F7FFF86A0800F550000978
:10DC3A00D8A422EF6EF024EF6EF007EF6EF047C023
:10DC4A001AF048C01BF01200FAEC6CF00009D8B4C4
:10DC5A0031EF6EF033EF6EF029EF6EF0BA0E97ECFB
:10DC6A006CF076EC6CF00009D8B43EEF6EF040EF41
:10DC7A006EF036EF6EF04CEF6EF076EC6CF0000959
:10DC8A00D8B44AEF6EF04CEF6EF042EF6EF056ECFD
:10DC9A0070F0630AD8A454EF6EF056EF6EF042EFBC
:10DCAA006EF01200FAEC6CF00009D8B45FEF6EF077
:10DCBA0061EF6EF057EF6EF0B10E97EC6CF076EC08
:10DCCA006CF00009D8B46CEF6EF06EEF6EF064EF92
:10DCDA006EF056EC70F0066E76EC6CF00009D8B473
:10DCEA0079EF6EF07BEF6EF071EF6EF056EC70F03C
:10DCFA00076E0750056E046A06500424026E000E71
:10DD0A000520036E120003500410D8B48FEF6EF092
:10DD1A0091EF6EF0B5EF6EF0010E056E99EF6EF0B1
:10DD2A00D89003360436052A04AE9EEF6EF0A0EFB3
:10DD3A006EF095EF6EF00350015C04500258D8A0C3
:10DD4A00A9EF6EF0ABEF6EF0AFEF6EF00350015E2D
:10DD5A000450025AD89004320332052EA0EF6EF016
:10DD6A0001C001F002C002F01200026EFAEC6CF07F
:10DD7A000009D8B4C3EF6EF0C5EF6EF0BBEF6EF0DA
:10DD8A00C20E97EC6CF0FAEC6CF00009D8B4D0EF44
:10DD9A006EF0D2EF6EF0C8EF6EF0025097EC6CF0B6
:10DDAA00FAEC6CF00009D8B4DDEF6EF0DFEF6EF03C
:10DDBA00D5EF6EF0C60E97EC6CF0FAEC6CF0000939
:10DDCA00D8B4EAEF6EF0ECEF6EF0E2EF6EF00228F4
:10DDDA0097EC6CF01200026EFAEC6CF00009D8B401
:10DDEA00F9EF6EF0FBEF6EF0F1EF6EF0C10E97EC0B
:10DDFA006CF0FAEC6CF00009D8B406EF6FF008EF9B
:10DE0A006FF0FEEF6EF0025097EC6CF0FAEC6CF0EB
:10DE1A000009D8B413EF6FF015EF6FF00BEF6FF046
:10DE2A00C50E97EC6CF0FAEC6CF00009D8B420EF50
:10DE3A006FF022EF6FF018EF6FF0022897EC6CF09A
:10DE4A001200036EFAEC6CF00009D8B42FEF6FF0F1
:10DE5A0031EF6FF027EF6FF0C10E97EC6CF0FAEC30
:10DE6A006CF00009D8B43CEF6FF03EEF6FF034EF7E
:10DE7A006FF00350022497EC6CF0FAEC6CF0000996
:10DE8A00D8B44AEF6FF04CEF6FF042EF6FF0C50E67
:10DE9A0097EC6CF0FAEC6CF00009D8B457EF6FF01D
:10DEAA0059EF6FF04FEF6FF0032897EC6CF0120008
:10DEBA00066A000E056E03500410D8B467EF6FF0BF
:10DECA0069EF6FF091EF6FF0010E076E71EF6FF06F
:10DEDA00D89003360436072A04AE76EF6FF078EF4F
:10DEEA006FF06DEF6FF0D890053606360350015C7F
:10DEFA0004500258D8A084EF6FF086EF6FF08BEFD2
:10DF0A006FF00350015E0450025A0580D890043223
:10DF1A000332072E78EF6FF005C001F006C002F059
:10DF2A001200046EFAEC6CF00009D8B49FEF6FF09F
:10DF3A00A1EF6FF097EF6FF0C10E97EC6CF0FAEC6F
:10DF4A006CF00009D8B4ACEF6FF0AEEF6FF0A4EF4D
:10DF5A006FF0045097EC6CF0FAEC6CF00009D8B44E
:10DF6A00B9EF6FF0BBEF6FF0B1EF6FF0C50E97EC42
:10DF7A006CF0FAEC6CF00009D8B4C6EF6FF0C8EF99
:10DF8A006FF0BEEF6FF004500224036E032897EC83
:10DF9A006CF012002868276A07EF70F012EC70F034
:10DFAA00286E0D0E2818D8A4DDEF6FF0DFEF6FF0A2
:10DFBA00E1EF6FF007EF70F02F0E2864E7EF6FF0D4
:10DFCA00E9EF6FF0F1EF6FF0390E2864EFEF6FF0C1
:10DFDA00F1EF6FF001EF70F0720E206EFC0E216E01
:10DFEA00B1EC6CF0650E206EFB0E216EB1EC6CF09C
:10DFFA00276A286807EF70F027500A0DF350282483
:10E00A00D00F276E0D0E2818D8A40EEF70F010EF5F
:10E01A0070F0D3EF6FF02750120002683BEF70F0F8
:10E02A008CEC6CF00009D8B41DEF70F01FEF70F0A3
:10E03A003BEF70F0A1EC70F0026E0FEC6DF000098E
:10E04A00D8B42AEF70F02CEF70F03BEF70F002506A
:10E05A00A4EC6CF00D0E0218D8A436EF70F038EF6D
:10E06A0070F03BEF70F00A0EA4EC6CF02F0E026415
:10E07A0041EF70F043EF70F04BEF70F07A0E0264EC
:10E08A0049EF70F04BEF70F054EF70F00D0E02187C
:10E09A00D8A452EF70F054EF70F015EF70F0025000
:10E0AA0012003901A3A75CEF70F05EEF70F056EF33
:10E0BA0070F0516A3D01F9A765EF70F067EF70F0F3
:10E0CA0074EF70F0518202D874EF70F00500FA6EA6
:10E0DA005E50FD6E5F50FE6EFF6AFA5012003D01FF
:10E0EA00F9A37AEF70F07CEF70F089EF70F0518449
:10E0FA0002D889EF70F00500FA6E5C50FD6E5D5033
:10E10A00FE6EFF6AFA5012005150D8B48FEF70F0C9
:10E11A0091EF70F09EEF70F002D89EEF70F005005C
:10E12A00FA6E0001F151FD6EF251FE6EFF6AFA506D
:10E13A0012003D01E85112003901A6A5A7EF70F0BF
:10E14A00A9EF70F0A1EF70F0506A3D01E1A7B0EFBE
:10E15A0070F0B2EF70F0C0EF70F0508202D8C0EFEA
:10E16A0070F00500FA6E0001EF51FD6EF051FE6E7F
:10E17A00FF6AFA5012003D01E1A3C6EF70F0C8EF42
:10E18A0070F0D6EF70F0508402D8D6EF70F0050028
:10E19A00FA6E0001ED51FD6EEE51FE6EFF6AFA5005
:10E1AA0012005050D8B4DCEF70F0DEEF70F0EBEFF5
:10E1BA0070F002D8EBEF70F00500FA6E0001EB5137
:10E1CA00FD6EEC51FE6EFF6AFA5012003D01D0510D
:10E1DA001200076AFAEC6CF00009D8B4F7EF70F095
:10E1EA00F9EF70F0EFEF70F0B80E97EC6CF0FAEC14
:10E1FA006CF00009D8B404EF71F006EF71F0FCEF8F
:10E20A0070F0045097EC6CF033EF71F0FAEC6CF0AC
:10E21A000009D8B413EF71F015EF71F033EF71F014
:10E22A0007500224056E000E0320066E600017F0E8
:10E23A00F6FF60001BF0F7FF000EF86E0F0EF76492
:10E24A0003D00800F55007D06F00DBFFE9FF6F002D
:10E25A00DFFFEAFFEF5097EC6CF0072A0450075CE7
:10E26A00D8A03AEF71F03CEF71F00BEF71F01200A9
:10E27A00FAEC6CF00009D8B445EF71F047EF71F091
:10E28A003DEF71F0BB0E97EC6CF0FAEC6CF0000904
:10E29A00D8B452EF71F054EF71F04AEF71F0140EE6
:10E2AA0097EC6CF0FAEC6CF00009D8B45FEF71F0FF
:10E2BA0061EF71F057EF71F0010E97EC6CF0FAEC28
:10E2CA006CF00009D8B46CEF71F06EEF71F064EF86
:10E2DA0071F0140E97EC6CF0FAEC6CF00009D8B4FB
:10E2EA0079EF71F07BEF71F071EF71F0030E97EC3B
:10E2FA006CF0FAEC6CF00009D8B486EF71F088EF94
:10E30A0071F07EEF71F0020E97EC6CF01200BE6AAB
:10E31A00BD6ABA6ABB6ABC6A070EC66EC268BF0E1D
:10E32A00C36E840EC46EC5683A01706B606B2F0EA3
:10E33A00506F070E806FEF0E406F716B816B516BE0
:10E34A00416B616B5A6B5B6B6A6B6B6B7A6B7B6B4A
:10E35A00826B426B526B180E626F726B4369536920
:10E36A0063697369070E836F4469546964697469E0
:10E37A000F0E846F0F0EE86F250E106F160E0E6FBC
:10E38A00210E136F0F0E116F220E146F170EE56F09
:10E39A00040EC36F130EE16F0C0EDD6F140EE26FE5
:10E3AA00120ECA6F0D0E156F130E166F120005505E
:10E3BA00D8B4E2EF71F0E4EF71F0ECEF71F00550D0
:10E3CA00D8A4EAEF71F0ECEF71F0F1EF71F00350BD
:10E3DA0033EC6CF031EF72F00550D96EDA6A090E3F
:10E3EA00D926DE50DE10D8B4FDEF71F0FFEF71F0E0
:10E3FA0018EF72F00550D96EDA6A090ED92605505F
:10E40A00E16EE26A020EE126DE50E65CE650800A20
:10E41A000A6EDE50800A0A58D8B016EF72F018EF6A
:10E42A0072F031EF72F00550D96EDA6A020ED9260F
:10E43A00DF50066E0550D96EDA6ADF500624D96EAF
:10E44A00DA6A60000FF0DFFF0550D96EDA6A020E51
:10E45A00D926DE2A000EDD221200066A02BE3AEF33
:10E46A0072F038EF72F040EF72F0016C021ED8B011
:10E47A00022A010E066E04BE47EF72F045EF72F0F3
:10E48A004BEF72F0036C041ED8B0042A0350041038
:10E49A00D8B452EF72F054EF72F078EF72F0010EC6
:10E4AA00056E5CEF72F0D89003360436052A04AE86
:10E4BA0061EF72F063EF72F058EF72F00350015C93
:10E4CA0004500258D8A06CEF72F06EEF72F072EF3F
:10E4DA0072F00350015E0450025AD890043203329B
:10E4EA00052E63EF72F00650D8B47EEF72F080EF1B
:10E4FA0072F084EF72F0016C021ED8B0022A01C0D9
:10E50A0001F002C002F01200FAEC6CF00009D8B473
:10E51A0091EF72F093EF72F089EF72F0B40E97EC0C
:10E52A006CF0126A76EC6CF00009D8B49FEF72F0C6
:10E53A00A1EF72F097EF72F01250080FD96EDA6AF3
:10E54A0056EC70F0DF6E76EC6CF00009D8B4B0EFE0
:10E55A0072F0B2EF72F0A8EF72F012500D0FD96E8E
:10E56A00DA6A56EC70F0DF6E12500D0FD96EDA6A65
:10E57A00DF50046E0450066E056A1250080FD96EF9
:10E58A00DA6ADF50076E07500526000E062212507F
:10E59A00020DF350AC0FD96EDA6A600017F0DEFF95
:10E5AA0060001BF0DDFF122A040E1264DFEF72F026
:10E5BA00E1EF72F097EF72F0AC0E1200066A04BE39
:10E5CA00EBEF72F0E9EF72F0F1EF72F0036C041EF8
:10E5DA00D8B0042A010E066E02BEF8EF72F0F6EF0A
:10E5EA0072F0FEEF72F0016C021ED8B0022A010E20
:10E5FA00061A086A000E076E03500410D8B408EF12
:10E60A0073F00AEF73F032EF73F0010E056E12EF3A
:10E61A0073F0D89003360436052A04AE17EF73F068
:10E62A0019EF73F00EEF73F0D890073608360350DF
:10E63A00015C04500258D8A025EF73F027EF73F05D
:10E64A002CEF73F00350015E0450025A0780D890F1
:10E65A0004320332052E19EF73F00650D8B438EF9E
:10E66A0073F03AEF73F03EEF73F0076C081ED8B000
:10E67A00082A07C001F008C002F01200910E206EAD
:10E68A00FB0E216EB1EC6CF0670E206EFD0E216E52
:10E69A00B1EC6CF0010E206EFD0E216EB1EC6CF047
:10E6AA00450E206EFD0E216EB1EC6CF0230E206E2D
:10E6BA00FD0E216EB1EC6CF0010E206EFD0E216E86
:10E6CA00B1EC6CF0670E206EFD0E216EB1EC6CF0B1
:10E6DA00720E206EFC0E216EB1EC6CF0030E206EF1
:10E6EA00FE0E216EB1EC6CF0A90E206EFD0E216EAD
:10E6FA00B1EC6CF0750E206EFC0E216EB1EC6CF074
:10E70A00BC0E206EFC0E216EB1EC6CF0910E206EE8
:10E71A00FB0E216EB1EC6CF02E0E206EFB0E216EFC
:10E72A00B1EC6CF0910E206EFB0E216EB1EC6CF028
:10E73A00DF0E206EFC0E216EB1EC6CF0990E206E8D
:10E74A00FC0E216EB1EC6CF0CE0E206EFE0E216E28
:10E75A00B1EC6CF0A00E206EFE0E216EB1EC6CF0E6
:10E76A00B70E206EFE0E216EB1EC6CF0910E206E8B
:10E77A00FB0E216EB1EC6CF0570E206EFE0E216E70
:10E78A00B1EC6CF0720E206EFC0E216EB1EC6CF0E6
:10E79A001200FAEC6CF00009D8B4D6EF73F0D8EF97
:10E7AA0073F0CEEF73F0870E97EC6CF0146A000EDC
:10E7BA00136E76EC6CF00009D8B4E6EF73F0E8EF6C
:10E7CA0073F0DEEF73F01350070FD96EDA6A56EC66
:10E7DA0070F0DF6E76EC6CF00009D8B4F7EF73F0E6
:10E7EA00F9EF73F0EFEF73F013500C0FD96EDA6A8A
:10E7FA0056EC70F0DF6E13500C0FD96EDA6ADF50E8
:10E80A00036E0350056E046A1350070FD96EDA6A55
:10E81A00DF50066E06500426000E05221350020D24
:10E82A00F3509D0FD96EDA6A600013F0DEFF6000C4
:10E83A0017F0DDFF134A142A14BE2DEF74F014509A
:10E84A0009E1050E135CD8A02DEF74F02FEF74F0D8
:10E85A00DEEF73F0126A000E116E1150020DF350C2
:10E86A009D0FD96EDA6A900EDE5C010EDE58D8A0D2
:10E87A0041EF74F043EF74F04BEF74F0025011243F
:10E88A00D96EDA6A010EDF6E50EF74F0025011246D
:10E89A00D96EDA6ADF6A114A122A12BE5EEF74F082
:10E8AA00125009E1050E115CD8A05EEF74F060EF1A
:10E8BA0074F032EF74F01200406E40C042F0BEECC9
:10E8CA006CF0C80E026EFF0E036E080E046EEEECBC
:10E8DA0070F0480E016E900E81EC6CF02BEC6CF02F
:10E8EA00010E026E000EACEC6DF0350E206E770E46
:10E8FA00216EFF0E226E42C023F0246A3EEC6DF0B8
:10E90A002050416E350E026E036A41C004F0EEECEF
:10E91A0070F0FBEF74F0E9EC6CF001C03EF002C05D
:10E92A003FF01B0E3E5CB70E3F58D8A09FEF74F025
:10E93A00A1EF74F0FBEF74F04206026A000E016E5A
:10E94A0056EC6CF0ECEF74F0BEEC6CF0010E026E5B
:10E95A00000EACEC6DF0380E026EFF0E036E080E60
:10E96A00046EEEEC70F0FBEF74F0010E026E000E16
:10E97A00ACEC6DF0410E026EFF0E036E080E046ED3
:10E98A00EEEC70F0FBEF74F0010E026E000EACECD0
:10E99A006DF0530E026EFF0E036E080E046EEEEC5F
:10E9AA0070F0FBEF74F0010E026E000EACEC6DF02D
:10E9BA00350E206E770E216EFF0E226E42C023F0B6
:10E9CA00246A3EEC6DF02050416E87EF74F042509D
:10E9DA00000AD8B4A9EF74F0010AD8B4BAEF74F0F7
:10E9EA00030AD8B4C9EF74F0D8EF74F04250D8A42F
:10E9FA0001EF75F003EF75F090EF74F02DEC6CF009
:10EA0A001200126A000E116E0C50D96EDA6A6F008B
:10EA1A007BFFF6FF6F0077FFF7FFF86A0800F550F3
:10EA2A00250AD8A41BEF75F01DEF75F085EF76F077
:10EA3A000C50D96EDA6ADE2A000EDD224A6A000E0E
:10EA4A00496E49C04FF04B684C680C50D96EDA6A6F
:10EA5A006F0078FF13F06F0074FF14F060004FF03E
:10EA6A00F6FF600053F0F7FFF86A0800F550640AF1
:10EA7A00D8B442EF75F044EF75F055EF75F06000C9
:10EA8A004FF0F6FF600053F0F7FFF86A0800F55000
:10EA9A00690AD8A453EF75F055EF75F0EDEF75F0EC
:10EAAA000D50D96EDA6A020EDF26DF5CD96EDA6A99
:10EABA006F0078FF15F06F0078FF16F0010E13242F
:10EACA000E6E000E14200F6E0C50D96EDA6A6000BA
:10EADA003BF0DEFF60003FF0DDFF200E196E16BE30
:10EAEA0079EF75F07CEF75F0010E7DEF75F0000E91
:10EAFA00106E19061950600FD96EDA6A15C001F046
:10EB0A0016C002F0046A0A0E036E32EC72F001C0FB
:10EB1A0007F002C008F024EC6DF00750300FDF6EEA
:10EB2A0015C001F016C002F0046A0A0E036EE3EC87
:10EB3A0072F001C015F002C016F0114A122A1550DF
:10EB4A001610D8B4ABEF75F0ADEF75F0B5EF75F000
:10EB5A001950D8A4B3EF75F0B5EF75F07EEF75F0E4
:10EB6A001950D8B4BBEF75F0BDEF75F0DEEF75F054
:10EB7A001050D8B4C3EF75F0C5EF75F0DEEF75F03D
:10EB8A0019061950600FD96EDA6A2D0EDF6E114A16
:10EB9A00122ADEEF75F01950600FD96EDA6ADF506B
:10EBAA000E6E0E50036E046A0BC005F0DCEC71F0B9
:10EBBA00192A200E1918D8A4E5EF75F0E7EF75F0B9
:10EBCA00D0EF75F011C00BF012C00CF0A0EF76F088
:10EBDA0060004FF0F6FF600053F0F7FFF86A080094
:10EBEA00F550750AD8A4FCEF75F0FEEF75F07AEFD0
:10EBFA0076F00D50D96EDA6A020EDF26DF5CD96E26
:10EC0A00DA6A6F0078FF15F06F0078FF16F0010ED0
:10EC1A0013240E6E000E14200F6E0C50D96EDA6A91
:10EC2A0060003BF0DEFF60003FF0DDFF6BEF76F047
:10EC3A00200E196E19061950600FD96EDA6A15C0BE
:10EC4A0001F016C002F0046A0A0E036E88EC6EF038
:10EC5A000150300FDF6E15C001F016C002F0046AD1
:10EC6A000A0E036E5DEC6FF001C015F002C016F0DB
:10EC7A00114A122A15501610D8B446EF76F048EF0A
:10EC8A0076F060EF76F01950D8A44EEF76F050EF98
:10EC9A0076F01FEF76F060EF76F01950600FD96EBC
:10ECAA00DA6ADF500E6E0E50036E046A0BC005F06E
:10ECBA00DCEC71F0192A200E1918D8A467EF76F047
:10ECCA0069EF76F052EF76F0E7EF75F060004FF0FB
:10ECDA00F6FF600053F0F7FFF86A0800F550750A6E
:10ECEA00D8B41DEF76F07AEF76F00C50D96EDA6A66
:10ECFA00DE2A000EDD220C6A000E0B6EA0EF76F003
:10ED0A000C50D96EDA6A6F007BFFF6FF6F0077FF4F
:10ED1A00F7FFF86A0800F550036E046A0BC005F0A5
:10ED2A00DCEC71F00C50D96EDA6ADE2A000EDD22B4
:10ED3A000C6A010E0B6E12005CEC6CF08CEC71F03C
:10ED4A0085EC6DF060EC6DF0C38A3A01509BCBBA4A
:10ED5A00B1EF76F0B3EF76F064EF7CF043EC73F04A
:10ED6A00BEEC6CF0000E026E000EACEC6DF0B60E4E
:10ED7A00026EFF0E036E080E046EEEEC70F057EC96
:10ED8A006EF002C0E1F003C0E2F0CB0E206EEA0E94
:10ED9A00216EFF0E226EE1C023F0E2C024F03EECA9
:10EDAA006DF020500001E86F010E026E000EACEC0F
:10EDBA006DF0CB0E026E036AE8C004F0EEEC70F060
:10EDCA0012EC70F00001DA6F39EF7CF0BEEC6CF0F7
:10EDDA00000E026E000EACEC6DF02E0E026EFF0EEF
:10EDEA00036E080E046EEEEC70F0010E026E000E59
:10EDFA00ACEC6DF09B0E026EFF0E036E080E046EF5
:10EE0A00EEEC70F0720E206EFC0E216EB1EC6CF01E
:10EE1A000001D46B6FEF77F0EF0E206EFB0E216EC0
:10EE2A00B1EC6CF0200E206EFE0E216EB1EC6CF08F
:10EE3A0012EC70F00001B66F89EC72F00001DE6F1F
:10EE4A00E06B000EDF6FE96B040EE9652FEF77F0D8
:10EE5A0031EF77F033EF77F05EEF77F0E951020D9B
:10EE6A00DE51F324D96EDA6A6F0078FF43F06F003F
:10EE7A0074FF44F0DF514324DF6FE0514420E06F18
:10EE8A00E40E206EFE0E216EE9C022F0236AE951DB
:10EE9A00020DDE51F324D96EDA6A6F0078FF24F08E
:10EEAA006F0074FF25F0B1EC6CF00001E92B29EF3B
:10EEBA0077F0DF51E011D8A465EF77F067EF77F0CC
:10EECA006FEF77F0010ED46FC70E206EFD0E216E24
:10EEDA00B1EC6CF00001D451D8B476EF77F078EF4A
:10EEEA0077F011EF77F0D56BEFEF77F01C0E206E0D
:10EEFA00FC0E216EB1EC6CF0200E206EFE0E216E1F
:10EF0A00B1EC6CF012EC70F00001B66F89EC72F0A3
:10EF1A000001DE6FE06B000EDF6FE96B040EE9653E
:10EF2A0099EF77F09BEF77F09DEF77F0C8EF77F0E6
:10EF3A00E951020DDE51F324D96EDA6A6F0078FFC7
:10EF4A0043F06F0074FF44F0DF514324DF6FE05158
:10EF5A004420E06FE40E206EFE0E216EE9C022F01E
:10EF6A00236AE951020DDE51F324D96EDA6A6F0081
:10EF7A0078FF24F06F0074FF25F0B1EC6CF000010B
:10EF8A00E92B93EF77F0880EDF1907E1130EE019EA
:10EF9A00D8A4D2EF77F0D4EF77F0EFEF77F0010E45
:10EFAA00D56FE50E206EFD0E216EB1EC6CF0700E81
:10EFBA00206EFE0E216EB1EC6CF0010E026E000E98
:10EFCA00ACEC6DF0BF0E026EFF0E036E080E046EFF
:10EFDA00EEEC70F00001D551D8B4F6EF77F0F8EF07
:10EFEA0077F07BEF77F0E5EF76F0BEEC6CF0000E91
:10EFFA00026E000EACEC6DF05C0E026EFF0E036E3C
:10F00A00080E046EEEEC70F0010E026E000EACEC0F
:10F01A006DF0E20E026EFF0E036E080E046EEEEC49
:10F02A0070F0720E206EFC0E216EB1EC6CF0FAECF0
:10F03A006CF00009D8B424EF78F026EF78F01CEFD2
:10F04A0078F0870E97EC6CF00001E56B000EE46F28
:10F05A00E5BF39EF78F0E55109E1050EE45DD8A086
:10F06A0039EF78F03BEF78F03DEF78F085EF78F004
:10F07A0076EC6CF00009D8B445EF78F047EF78F0F9
:10F08A003DEF78F00001E451C10FD96EDA6A56EC0F
:10F09A0070F0DF6E76EC6CF00009D8B457EF78F0B8
:10F0AA0059EF78F04FEF78F00001E451C60FD96EAE
:10F0BA00DA6A56EC70F0DF6E0001E451C60FD96EC1
:10F0CA00DA6ADF50436E4350456E446AE451C10F19
:10F0DA00D96EDA6ADF50466E46504426000E452243
:10F0EA00E451020DF350B70FD96EDA6A600013F1DA
:10F0FA00DEFF600017F1DDFFE44BE52B2DEF78F022
:10F10A00DC6B000EDB6FDCBF94EF78F0DC5109E1B9
:10F11A00050EDB5DD8A094EF78F096EF78F098EFC3
:10F12A0078F0E5EF76F0050E206EFF0E216EDBC05B
:10F13A0022F0DCC023F0DB51020DF350B70FD96E79
:10F14A00DA6A6F0078FF24F06F0074FF25F0B1ECE3
:10F15A006CF00001DB4BDC2B88EF78F0BEEC6CF036
:10F16A00000E026E000EACEC6DF0DA0E026EFF0EAF
:10F17A00036E070E046EEEEC70F0720E206EFC0E3B
:10F18A00216EB1EC6CF0590E206EFC0E216EB1ECC2
:10F19A006CF012EC70F00001DD6FE2EF78F0720EA5
:10F1AA00206EFC0E216EB1EC6CF0490E206EFC0E46
:10F1BA00216EB1EC6CF0CEEF78F02F0EDD65E8EF42
:10F1CA0078F0EAEF78F0D4EF78F0350EDD61F0EF01
:10F1DA0078F0F2EF78F0D4EF78F0000E026E070EB6
:10F1EA00ACEC6DF00001DD51D5EC6DF0FAEC6CF091
:10F1FA000009D8B403EF79F005EF79F0FBEF78F066
:10F20A00870E97EC6CF00001E76B000EE66FE7BF24
:10F21A0018EF79F0E75109E1050EE65DD8A018EF7D
:10F22A0079F01AEF79F01CEF79F064EF79F076EC67
:10F23A006CF00009D8B424EF79F026EF79F01CEFCE
:10F24A0079F00001E651C10FD96EDA6A56EC70F016
:10F25A00DF6E76EC6CF00009D8B436EF79F038EF4F
:10F26A0079F02EEF79F00001E651C60FD96EDA6A0D
:10F27A0056EC70F0DF6E0001E651C60FD96EDA6AFD
:10F28A00DF50436E4350456E446AE651C10FD96E52
:10F29A00DA6ADF50466E46504426000E4522E65191
:10F2AA00020DF350B70FD96EDA6A600013F1DEFF70
:10F2BA00600017F1DDFFE64BE72B0CEF79F0DD512B
:10F2CA00D00FDA6FF60E206EFE0E216EDAC022F033
:10F2DA00236ADA51020DF350B70FD96EDA6A6F005A
:10F2EA0078FF24F06F0074FF25F0B1EC6CF0E5EFC5
:10F2FA0076F0BEEC6CF0000E026E000EACEC6DF017
:10F30A00A40E026EFF0E036E080E046EEEEC70F091
:10F31A00720E206EFC0E216EB1EC6CF057EC6EF0A2
:10F32A0002C0E1F003C0E2F0CB0E206EEA0E216EBD
:10F33A00FF0E226EE1C023F0E2C024F03EEC6DF035
:10F34A0020500001E86F010E026E000EACEC6DF069
:10F35A00CB0E026E036AE8C004F0EEEC70F0880E81
:10F36A00206EFE0E216EE1C022F0E2C023F0B1EC65
:10F37A006CF0E5EF76F0BEEC6CF0000E026E000E5B
:10F38A00ACEC6DF0920E026EFF0E036E080E046E68
:10F39A00EEEC70F0720E206EFC0E216EB1EC6CF089
:10F3AA00C20E206EFB0E216EB1EC6CF0CFEC6FF04A
:10F3BA000001EA6FEA51F0EC6EF0CB0E206EF60E09
:10F3CA00216EFF0E226EEAC023F0246A3EEC6DF035
:10F3DA0020500001E86F010E026E000EACEC6DF0D9
:10F3EA00CB0E026E036AE8C004F0EEEC70F0FAECA1
:10F3FA006CF00009D8B404EF7AF006EF7AF0FCEF6B
:10F40A0079F0C10E97EC6CF0FAEC6CF00009D8B404
:10F41A0011EF7AF013EF7AF009EF7AF00001EA516E
:10F42A0097EC6CF0FAEC6CF00009D8B41FEF7AF0A4
:10F43A0021EF7AF017EF7AF0C50E97EC6CF0FAEC40
:10F44A006CF00009D8B42CEF7AF02EEF7AF024EFA2
:10F45A007AF00001EA5197EC6CF0E5EF76F0BEEC39
:10F46A006CF0000E026E000EACEC6DF0AD0E026E8A
:10F47A00FF0E036E080E046EEEEC70F0720E206E34
:10F48A00FC0E216EB1EC6CF0940E206EFB0E216E18
:10F49A00B1EC6CF0CFEC6FF00001EA6FEA51BAEC14
:10F4AA006EF0CB0E206EF60E216EFF0E226EEAC0B3
:10F4BA0023F0246A3EEC6DF020500001E86F010E43
:10F4CA00026E000EACEC6DF0CB0E026E036AE8C061
:10F4DA0004F0EEEC70F0FAEC6CF00009D8B478EFB6
:10F4EA007AF07AEF7AF070EF7AF0C20E97EC6CF05D
:10F4FA00FAEC6CF00009D8B485EF7AF087EF7AF06D
:10F50A007DEF7AF00001EA5197EC6CF0FAEC6CF0BE
:10F51A000009D8B493EF7AF095EF7AF08BEF7AF08E
:10F52A00C60E97EC6CF0FAEC6CF00009D8B4A0EFB8
:10F53A007AF0A2EF7AF098EF7AF00001EA5197ECAC
:10F54A006CF0E5EF76F0BEEC6CF0000E026E000E89
:10F55A00ACEC6DF0800E026EFF0E036E080E046EA8
:10F56A00EEEC70F0720E206EFC0E216EB1EC6CF0B7
:10F57A00C20E206EFB0E216EB1EC6CF0CFEC6FF078
:10F58A000001EA6FE70E206EFA0E216EB1EC6CF004
:10F59A00CFEC6FF00001E36FEA51E325D66FD76B2A
:10F5AA00D737E3C002F0EA5196EC6FF0CB0E206E2B
:10F5BA00F00E216EFF0E226EEAC023F0246AE3C029
:10F5CA0025F0266A3EEC6DF020500001E86F010E2E
:10F5DA00026E000EACEC6DF0CB0E026E036AE8C050
:10F5EA0004F0EEEC70F0FAEC6CF00009D8B400EF1D
:10F5FA007BF002EF7BF0F8EF7AF0C10E97EC6CF03B
:10F60A00FAEC6CF00009D8B40DEF7BF00FEF7BF049
:10F61A0005EF7BF00001D65197EC6CF0FAEC6CF038
:10F62A000009D8B41BEF7BF01DEF7BF013EF7BF0E2
:10F63A00C50E97EC6CF0FAEC6CF00009D8B428EF20
:10F64A007BF02AEF7BF020EF7BF00001EA5197EC88
:10F65A006CF0E5EF76F0BEEC6CF0000E026E000E78
:10F66A00ACEC6DF0890E026EFF0E036E080E046E8E
:10F67A00EEEC70F0720E206EFC0E216EB1EC6CF0A6
:10F68A00C20E206EFB0E216EB1EC6CF0CFEC6FF067
:10F69A000001EA6FE70E206EFA0E216EB1EC6CF0F3
:10F6AA00CFEC6FF00001E36FEA51E325D66FD76B19
:10F6BA00D737E3C002F0EA5126EC6FF0CB0E206E8A
:10F6CA00F00E216EFF0E226EEAC023F0246AE3C018
:10F6DA0025F0266A3EEC6DF020500001E86F010E1D
:10F6EA00026E000EACEC6DF0CB0E026E036AE8C03F
:10F6FA0004F0EEEC70F0FAEC6CF00009D8B488EF84
:10F70A007BF08AEF7BF080EF7BF0C10E97EC6CF018
:10F71A00FAEC6CF00009D8B495EF7BF097EF7BF028
:10F72A008DEF7BF00001EA5197EC6CF0FAEC6CF08B
:10F73A000009D8B4A3EF7BF0A5EF7BF09BEF7BF039
:10F74A00C50E97EC6CF0FAEC6CF00009D8B4B0EF87
:10F75A007BF0B2EF7BF0A8EF7BF00001D65197EC7B
:10F76A006CF0E5EF76F0BEEC6CF0000E026E000E67
:10F77A00ACEC6DF06E0E026EFF0E036E080E046E98
:10F78A00EEEC70F0720E206EFC0E216EB1EC6CF095
:10F79A002FEC6CF0FAEC6CF00009D8B4D7EF7BF0E0
:10F7AA00D9EF7BF0CFEF7BF0C10E97EC6CF0FAEC5F
:10F7BA006CF00009D8B4E4EF7BF0E6EF7BF0DCEF05
:10F7CA007BF0000E97EC6CF0FAEC6CF00009D8B400
:10F7DA00F1EF7BF0F3EF7BF0E9EF7BF0C50E97ECEE
:10F7EA006CF0FAEC6CF00009D8B4FEEF7BF000EF95
:10F7FA007CF0F6EF7BF0000E97EC6CF0E5EF76F01C
:10F80A00BEEC6CF0000E026E000EACEC6DF0B60EA3
:10F81A00026EFF0E036E080E046EEEEC70F057ECEB
:10F82A006EF002C0E1F003C0E2F0CB0E206EEA0EE9
:10F83A00216EFF0E226EE1C023F0E2C024F03EECFE
:10F84A006DF020500001E86F010E026E000EACEC64
:10F85A006DF0CB0E026E036AE8C004F0EEEC70F0B5
:10F86A0043EC73F0E5EF76F0DA51420AD8B434EF9C
:10F87A007AF0040AD8B4C0EF79F00A0AD8B4A8EF2B
:10F88A007AF01E0AD8B430EF7BF0010AD8B4B8EF88
:10F89A007BF0300AD8B4EBEF76F0070AD8B4B3EFAE
:10F8AA0078F0090AD8B405EF7CF01F0AD8B4FAEF49
:10F8BA0077F0040AD8B47EEF79F0E5EF76F0CBAAB8
:10F8CA0069EF7CF06BEF7CF05EEF7DF043EC73F058
:10F8DA00BEEC6CF0000E026E000EACEC6DF04A0E3F
:10F8EA00026EFF0E036E080E046EEEEC70F057EC1B
:10F8FA006EF002C0E1F003C0E2F0CB0E206EEA0E19
:10F90A00216EFF0E226EE1C023F0E2C024F03EEC2D
:10F91A006DF020500001E86F010E026E000EACEC93
:10F92A006DF0CB0E026E036AE8C004F0EEEC70F0E4
:10F93A003D0E446EE10E436E400EE82EFED7432E76
:10F94A00FCD7442EFAD7000E026E000EACEC6DF016
:10F95A00D10E026EFF0E036E080E046EEEEC70F00E
:10F96A0029EC6EF0010E026E000EACEC6DF0650E25
:10F97A00026EFF0E036E080E046EEEEC70F0060EB9
:10F98A0061EC74F0100E436E940EE82EFED7432EEF
:10F99A00FCD700D0400E016E900E81EC6CF03DEC6D
:10F9AA0071F0520E026ECEEC73F00001D96B000EAC
:10F9BA00D86FD9BFEAEF7CF0D95109E1050ED85DBD
:10F9CA00D8A0EAEF7CF0ECEF7CF0EEEF7CF005EFEC
:10F9DA007DF0220E206EFF0E216ED851020DF350DB
:10F9EA00520FD96EDA6A6F0078FF22F06F0074FF47
:10F9FA0023F0B1EC6CF00001D84BD92BDEEF7CF090
:10FA0A0056045710D8A40CEF7DF00EEF7DF056EF98
:10FA1A007DF0545052180AE155505318D8B418EFD3
:10FA2A007DF01BEF7DF0010E1CEF7DF0000E436EA2
:10FA3A00446A585043180AE159504418D8B428EF78
:10FA4A007DF02BEF7DF0010E2CEF7DF0000E456E60
:10FA5A00466A5A50451809E15B504618D8B438EF3F
:10FA6A007DF03AEF7DF056EF7DF03D0E206EFE0EF2
:10FA7A00216EB1EC6CF0CCEC6CF01F0E446E710E82
:10FA8A00436E1E0EE82EFED7432EFCD7442EFAD71D
:10FA9A0000D03DEC71F0890E206EFD0E216EB1ECA6
:10FAAA006CF0140E206EFF0E216EB1EC6CF0D6EFE6
:10FABA007CF0FEEF7FF00000000000000000000074
:10FACA00000000000000000000000000000000002C
:10FADA0000000000000000000000000000092050A3
:10FAEA006C6561736520656E746572207468652043
:10FAFA007475726E696E6720646966666572656E92
:10FB0A007469616C3A207370656564202B2064699E
:10FB1A0066666572656E7469616C203C20313237A5
:10FB2A00200D0A00202076200909202876296F6CEA
:10FB3A0074616765202D205265616420616E6420BE
:10FB4A00646973706C61792062617474657279207A
:10FB5A00766F6C74616765200D0A00496E76616C78
:10FB6A00696420696E7075742E20506C65617365C6
:10FB7A00207265646F206E756D65726963616C20B1
:10FB8A00696E7075742E200D0A000920506C65612B
:10FB9A00736520656E74657220746865206261639E
:10FBAA006B776172642073706565642C2030202D38
:10FBBA0020313237200D0A000920506C65617365C7
:10FBCA0020656E7465722074686520666F7277614D
:10FBDA0072642073706565642C2030202D203132C8
:10FBEA0037200D0A00506C61636520616C6C2066D9
:10FBFA006976652073656E736F7273206F6E20610C
:10FC0A002077686974652073757266616365200A76
:10FC1A000D00506C61636520616C6C2066697665C5
:10FC2A002073656E736F7273206F6E206120626C31
:10FC3A0061636B2073757266616365200A0D004902
:10FC4A006E76616C696420656E7472792E20204527
:10FC5A006E7465722073656E736F72206E756D6255
:10FC6A0065722C20302D34200A0D002020722009C4
:10FC7A0009202872296561642063616C6962726176
:10FC8A007465642073656E736F7273200D0A0020A9
:10FC9A00204220090920576865656C7320726F74C9
:10FCAA006174652028422961636B77617264200D53
:10FCBA000A00202064200909202864296973706CCD
:10FCCA0061792073656E736F7220782076616C7526
:10FCDA0065200D0A0020204620090920576865651D
:10FCEA006C7320726F74617465202846296F72776D
:10FCFA00617264200D0A00092A2020202020202079
:10FD0A0020202020202020202020202020202020E9
:10FD1A0020202020202A0D0A00092A202020202025
:10FD2A0020446961676E6F73746963204D656E75EF
:10FD3A00202020202020202A0D0A00092A20202005
:10FD4A00415053432031323939202D20506F6C6F86
:10FD5A006C75203370692020202A0D0A00092A2A8E
:10FD6A002A2A2A2A2A2A2A2A2A2A2A2A2A2A2A2AE9
:10FD7A002A2A2A2A2A2A2A2A2A2A2A2A0D0A000A60
:10FD8A00504944204F4E2120706F737420636F6D69
:10FD9A006D616E642070726520627265616B00200D
:10FDAA00206320090920286329616C6962726174E1
:10FDBA00652073656E736F7273200D0A0057686948
:10FDCA0074652063616C6962726174696F6E206325
:10FDDA006F6D706C657465200A0D00426C61636B0F
:10FDEA002063616C6962726174696F6E20636F6D02
:10FDFA00706C657465200A0D00436F6D6D616E64E9
:10FE0A00204B6579200920446573637269707469AF
:10FE1A006F6E200D0A00507265737320616E79202F
:10FE2A006B657920746F20636F6E74696E756520D7
:10FE3A000A0D000A7368617270207475726E204F21
:10FE4A004E20707265636F6D6D616E640020206D67
:10FE5A00200909205265667265736820286D296534
:10FE6A006E75200D0A0043616C6962726174696F74
:10FE7A006E20636F6D706C657465200A0D004261B7
:10FE8A00747465727920766F6C74616765203D20A1
:10FE9A002575200A0D002020522009092028522900
:10FEAA0069676874207475726E200D0A00202053E9
:10FEBA0020090920285329746F70206D6F746F729E
:10FECA00200D0A0020204C20090920284C296566AB
:10FEDA0074207475726E200D0A0053656E736F720A
:10FEEA00202575203D202575200A0D0053656E7367
:10FEFA006F722025643A2025750A0053656E736F68
:10FF0A00722E2025642025750A000A6166746572BE
:10FF1A0020737769746368000A53656E736F723A67
:10FF2A002025750043616C69627261746500202046
:10FF3A0020474F2020200020205345542020200015
:10FF4A00202052756E20202000205245414459201D
:10FF5A0020002020526561642020002020646F6EFA
:10FF6A0065202000202053746F7020200020202557
:10FF7A0075207320200020204C6566742020002004
:10FF8A005269676874202000466F72776172642034
:10FF9A000053656E736F72732000426174746572E8
:10FFAA007920004261636B7761726400446961671A
:10FFBA006E6F736500436F6D706C65746500436F97
:10FFCA00756E74696E67004175746F2043616C00C9
:10FFDA0053656E736F72200053656E736F72730090
:10FFEA002575206D5600257520257500202575205C
:06FFFA000000DAEF6CF0DC
:020000040030CA
:0A000000ECFEF7FF9FFFFFFFFFFF7C
:00000001FF
