:04000000FEEF7FF0A0
:10D44E00120012001200120012001200B88E12000A
:10D45E00B89E1200000EC9EC6DF01200026E025062
:10D46E00A6EC6AF0120001C0EDF002C0EEF0120060
:10D47E0001C05EF002C05FF0120001C05CF002C09D
:10D48E005DF0120001C0E7F002C0E8F0120001C02A
:10D49E00EBF002C0ECF0120001C0E9F002C0EAF0BD
:10D4AE0012001050B76E60003FF0B6FF12006EEC27
:10D4BE006AF065EC70F065EC6AF01200600E3901EE
:10D4CE00D96FDB6BDD6B070EDF6FDE6B1200390180
:10D4DE00C06BC16BC26BC36BC46BC56BC66BC76BCA
:10D4EE0012003901A3B77EEF6AF081EF6AF0010EE8
:10D4FE0082EF6AF0000E1200026E60000BF0B8FFB1
:10D50E00600007F0B9FFB89E3901A39F12003901E0
:10D51E00A6B594EF6AF097EF6AF0010E98EF6AF0F5
:10D52E00000E1200016E3901A3A9A0EF6AF0A2EF5E
:10D53E006AF09AEF6AF0600007F0EAFD1200016EE1
:10D54E003901A6A7ADEF6AF0AFEF6AF0A7EF6AF068
:10D55E00600007F0D2FD1200220E266E000E1A6E2B
:10D56E0020C01BF021C01CF0260E1D6E00EC6CF0CE
:10D57E001200FCEC6AF00009D8B4C8EF6AF0CAEFEA
:10D58E006AF0C0EF6AF0B70E99EC6AF01200FCEC8C
:10D59E006AF00009D8B4D6EF6AF0D8EF6AF0CEEF91
:10D5AE006AF0BB0E99EC6AF0120000EE60F0510EBC
:10D5BE00EE6AE806FDE100EE47F0150EEE6AE806AB
:10D5CE00FDE100011FEF76F06F00D8FE07F06F004F
:10D5DE00DCFE08F00850036E0750056E03C006F01F
:10D5EE0005C001F006C002F01200016A3901A3A9BC
:10D5FE0003EF6BF005EF6BF00FEF6BF03D01F2AB4D
:10D60E000BEF6BF00DEF6BF00FEF6BF0010E016E89
:10D61E0001501200016A3901A6A718EF6BF01AEF3C
:10D62E006BF024EF6BF03D01DAAB20EF6BF022EFE5
:10D63E006BF024EF6BF0010E016E0150120008BE6C
:10D64E002BEF6BF02DEF6BF033EF6BF007C007F0A5
:10D65E0008C008F03FEF6BF007C009F008C00AF0F1
:10D66E00091E0A1E094A0A2A09C007F00AC008F054
:10D67E001200230E296E20C02AF02D6A000E2C6E89
:10D68E00346A000E336E2A0E1A6E21C01BF022C0B1
:10D69E001CF0290E1D6E00EC6CF01AC027F01BC09A
:10D6AE0028F020502C24D96EDA6ADF6A27C020F0C9
:10D6BE0028C021F012003D01D46BD66BD86BB00E92
:10D6CE00DA6F800EDB6FDC6BE10EDD6F040EDE6F4A
:10D6DE00DF6BE06BE16BE26B560E016ED40E026EE9
:10D6EE004EEC6AF0580E016ED40E026E53EC6AF0D8
:10D6FE00540E016ED40E026E49EC6AF05A6A120094
:10D70E003D01EC6BED6BEE6BEF6BF06BF16BB00EF6
:10D71E00F26F800EF36FF46B670EF56FF66BF76BAF
:10D72E00F86BF96BFA6B500E016ED40E026E3FEC75
:10D73E006AF0520E016ED40E026E44EC6AF04E0E7A
:10D74E00016ED40E026E3AEC6AF05B6A1200036E42
:10D75E00FCEC6AF00009D8B4B7EF6BF0B9EF6BF0E0
:10D76E00AFEF6BF0B90E99EC6AF0FCEC6AF00009C1
:10D77E00D8B4C4EF6BF0C6EF6BF0BCEF6BF0035098
:10D78E0099EC6AF0FCEC6AF00009D8B4D1EF6BF0BA
:10D79E00D3EF6BF0C9EF6BF0025099EC6AF0120008
:10D7AE00026EFCEC6AF00009D8B4E0EF6BF0E2EF29
:10D7BE006BF0D8EF6BF0B80E99EC6AF0FCEC6AF0F7
:10D7CE000009D8B4EDEF6BF0EFEF6BF0E5EF6BF017
:10D7DE00010E99EC6AF0FCEC6AF00009D8B4FAEF8D
:10D7EE006BF0FCEF6BF0F2EF6BF0025099EC6AF01D
:10D7FE0012001BC01EF01CC01FF0526A000E516EAC
:10D80E0015EF6CF01AC00BF01E0E0C6E1DC00DF055
:10D81E0084EC74F00B5051260C50522260007BF0B9
:10D82E00F6FF60007FF0F7FFF86A0800F550000978
:10D83E00D8A424EF6CF026EF6CF009EF6CF051C019
:10D84E001AF052C01BF01200FCEC6AF00009D8B4BA
:10D85E0033EF6CF035EF6CF02BEF6CF0BA0E99ECF9
:10D86E006AF078EC6AF00009D8B440EF6CF042EF41
:10D87E006CF038EF6CF04EEF6CF078EC6AF000095B
:10D88E00D8B44CEF6CF04EEF6CF044EF6CF02FEC24
:10D89E006FF0630AD8A456EF6CF058EF6CF044EFBB
:10D8AE006CF01200FCEC6AF00009D8B461EF6CF079
:10D8BE0063EF6CF059EF6CF0B10E99EC6AF078EC06
:10D8CE006AF00009D8B46EEF6CF070EF6CF066EF92
:10D8DE006CF02FEC6FF0066E78EC6AF00009D8B49D
:10D8EE007BEF6CF07DEF6CF073EF6CF02FEC6FF064
:10D8FE00076E0750056E046A06500424026E000E71
:10D90E000520036E120003500410D8B491EF6CF092
:10D91E0093EF6CF0B7EF6CF0010E056E9BEF6CF0B1
:10D92E00D89003360436052A04AEA0EF6CF0A2EFB1
:10D93E006CF097EF6CF00350015C04500258D8A0C5
:10D94E00ABEF6CF0ADEF6CF0B1EF6CF00350015E2D
:10D95E000450025AD89004320332052EA2EF6CF016
:10D96E0001C001F002C002F01200116E2FEC6AF03D
:10D97E00470E016E900E83EC6AF0670E016E000E7C
:10D98E00026E0F0E036E000E046E1150056E066AC7
:10D99E00076A086A1CEC72F0015000080F6E025004
:10D9AE00D8A0E82A0008106E58EC6AF03901A39F3F
:10D9BE002DEC6AF01150C9EC6DF03901A3AFEAEF0E
:10D9CE006CF0ECEF6CF0E4EF6CF031EC6AF02FECF5
:10D9DE006AF01200026EFCEC6AF00009D8B4FAEF9D
:10D9EE006CF0FCEF6CF0F2EF6CF0C20E99EC6AF09A
:10D9FE00FCEC6AF00009D8B407EF6DF009EF6DF09A
:10DA0E00FFEF6CF0025099EC6AF0FCEC6AF0000942
:10DA1E00D8B414EF6DF016EF6DF00CEF6DF0C60E7E
:10DA2E0099EC6AF0FCEC6AF00009D8B421EF6DF0C5
:10DA3E0023EF6DF019EF6DF0022899EC6AF01200E9
:10DA4E00036EFCEC6AF00009D8B430EF6DF032EFE3
:10DA5E006DF028EF6DF0C50E99EC6AF0FCEC6AF0F3
:10DA6E000009D8B43DEF6DF03FEF6DF035EF6DF07E
:10DA7E00035099EC6AF0FCEC6AF00009D8B44AEF56
:10DA8E006DF04CEF6DF042EF6DF0C20E99EC6AF056
:10DA9E00FCEC6AF00009D8B457EF6DF059EF6DF059
:10DAAE004FEF6DF0032899EC6AF01200036EFCEC58
:10DABE006AF00009D8B466EF6DF068EF6DF05EEFB6
:10DACE006DF0C10E99EC6AF0FCEC6AF00009D8B466
:10DADE0073EF6DF075EF6DF06BEF6DF0035099EC29
:10DAEE006AF0FCEC6AF00009D8B480EF6DF082EFBA
:10DAFE006DF078EF6DF0C60E99EC6AF0FCEC6AF002
:10DB0E000009D8B48DEF6DF08FEF6DF085EF6DF0ED
:10DB1E00032899EC6AF01200026EFCEC6AF0000920
:10DB2E00D8B49CEF6DF09EEF6DF094EF6DF0C10EDA
:10DB3E0099EC6AF0FCEC6AF00009D8B4A9EF6DF02C
:10DB4E00ABEF6DF0A1EF6DF0025099EC6AF0FCECCA
:10DB5E006AF00009D8B4B6EF6DF0B8EF6DF0AEEF25
:10DB6E006DF0C60E99EC6AF0FCEC6AF00009D8B4C0
:10DB7E00C3EF6DF0C5EF6DF0BBEF6DF0022899ECC1
:10DB8E006AF01200026EFCEC6AF00009D8B4D2EF13
:10DB9E006DF0D4EF6DF0CAEF6DF0C10E99EC6AF036
:10DBAE00FCEC6AF00009D8B4DFEF6DF0E1EF6DF038
:10DBBE00D7EF6DF0025099EC6AF0FCEC6AF00009B8
:10DBCE00D8B4ECEF6DF0EEEF6DF0E4EF6DF0C50E46
:10DBDE0099EC6AF0FCEC6AF00009D8B4F9EF6DF03C
:10DBEE00FBEF6DF0F1EF6DF0022899EC6AF0120088
:10DBFE00036EFCEC6AF00009D8B408EF6EF00AEF81
:10DC0E006EF000EF6EF0C10E99EC6AF0FCEC6AF06B
:10DC1E000009D8B415EF6EF017EF6EF00DEF6EF041
:10DC2E000350022499EC6AF0FCEC6AF00009D8B4B7
:10DC3E0023EF6EF025EF6EF01BEF6EF0C50E99EC34
:10DC4E006AF0FCEC6AF00009D8B430EF6EF032EFF7
:10DC5E006EF028EF6EF0032899EC6AF01200066A57
:10DC6E00000E056E03500410D8B440EF6EF042EF74
:10DC7E006EF06AEF6EF0010E076E4AEF6EF0D890FE
:10DC8E0003360436072A04AE4FEF6EF051EF6EF0F6
:10DC9E0046EF6EF0D890053606360350015C045000
:10DCAE000258D8A05DEF6EF05FEF6EF064EF6EF08D
:10DCBE000350015E0450025A0580D890043203329C
:10DCCE00072E51EF6EF005C001F006C002F01200F3
:10DCDE00046EFCEC6AF00009D8B478EF6EF07AEFBF
:10DCEE006EF070EF6EF0C10E99EC6AF0FCEC6AF01B
:10DCFE000009D8B485EF6EF087EF6EF07DEF6EF011
:10DD0E00045099EC6AF0FCEC6AF00009D8B492EF7A
:10DD1E006EF094EF6EF08AEF6EF0C50E99EC6AF02D
:10DD2E00FCEC6AF00009D8B49FEF6EF0A1EF6EF034
:10DD3E0097EF6EF004500224036E032899EC6AF0FC
:10DD4E0012002868276AE0EF6EF0EBEC6EF0286E9A
:10DD5E000D0E2818D8A4B6EF6EF0B8EF6EF0BAEF2D
:10DD6E006EF0E0EF6EF02F0E2864C0EF6EF0C2EF93
:10DD7E006EF0CAEF6EF0390E2864C8EF6EF0CAEF7F
:10DD8E006EF0DAEF6EF0C60E206EFC0E216EB3EC66
:10DD9E006AF0B90E206EFB0E216EB3EC6AF0276AA4
:10DDAE002868E0EF6EF027500A0DF3502824D00FAC
:10DDBE00276E0D0E2818D8A4E7EF6EF0E9EF6EF07F
:10DDCE00ACEF6EF027501200026814EF6FF08EEC7D
:10DDDE006AF00009D8B4F6EF6EF0F8EF6EF014EFBB
:10DDEE006FF07AEC6FF0026E11EC6BF00009D8B4A4
:10DDFE0003EF6FF005EF6FF014EF6FF00250A6EC2B
:10DE0E006AF00D0E0218D8A40FEF6FF011EF6FF03D
:10DE1E0014EF6FF00A0EA6EC6AF02F0E02641AEFE2
:10DE2E006FF01CEF6FF024EF6FF07A0E026422EFAA
:10DE3E006FF024EF6FF02DEF6FF00D0E0218D8A4D7
:10DE4E002BEF6FF02DEF6FF0EEEF6EF00250120031
:10DE5E003901A3A735EF6FF037EF6FF02FEF6FF0AB
:10DE6E005B6A3D01F9A73EEF6FF040EF6FF04DEFAB
:10DE7E006FF05B8202D84DEF6FF00500FA6E5E50C8
:10DE8E00FD6E5F50FE6EFF6AFA5012003D01F9A35F
:10DE9E0053EF6FF055EF6FF062EF6FF05B8402D8C7
:10DEAE0062EF6FF00500FA6E5C50FD6E5D50FE6E17
:10DEBE00FF6AFA5012005B50D8B468EF6FF06AEF49
:10DECE006FF077EF6FF002D877EF6FF00500FA6E14
:10DEDE000001ED51FD6EEE51FE6EFF6AFA5012001A
:10DEEE003D01E85112003901A6A580EF6FF082EFD7
:10DEFE006FF07AEF6FF05A6A3D01E1A789EF6FF08C
:10DF0E008BEF6FF099EF6FF05A8202D899EF6FF0A6
:10DF1E000500FA6E0001EB51FD6EEC51FE6EFF6ACC
:10DF2E00FA5012003D01E1A39FEF6FF0A1EF6FF0E9
:10DF3E00AFEF6FF05A8402D8AFEF6FF00500FA6EB4
:10DF4E000001E951FD6EEA51FE6EFF6AFA501200B1
:10DF5E005A50D8B4B5EF6FF0B7EF6FF0C4EF6FF063
:10DF6E0002D8C4EF6FF00500FA6E0001E751FD6EA6
:10DF7E00E851FE6EFF6AFA5012003D01D0511200B8
:10DF8E00076AFCEC6AF00009D8B4D0EF6FF0D2EF5C
:10DF9E006FF0C8EF6FF0B80E99EC6AF0FCEC6AF017
:10DFAE000009D8B4DDEF6FF0DFEF6FF0D5EF6FF053
:10DFBE00045099EC6AF00CEF70F0FCEC6AF000097A
:10DFCE00D8B4ECEF6FF0EEEF6FF00CEF70F007508F
:10DFDE000224056E000E0320066E600017F0F6FF99
:10DFEE0060001BF0F7FF000EF86E0F0EF76403D003
:10DFFE000800F55007D06F00DBFFE9FF6F00DFFF71
:10E00E00EAFFEF5099EC6AF0072A0450075CD8A09B
:10E01E0013EF70F015EF70F0E4EF6FF01200FCEC00
:10E02E006AF00009D8B41EEF70F020EF70F016EF12
:10E03E0070F0BB0E99EC6AF0FCEC6AF00009D8B4F3
:10E04E002BEF70F02DEF70F023EF70F0140E99ECB3
:10E05E006AF0FCEC6AF00009D8B438EF70F03AEFD1
:10E06E0070F030EF70F0010E99EC6AF0FCEC6AF093
:10E07E000009D8B445EF70F047EF70F03DEF70F047
:10E08E00140E99EC6AF0FCEC6AF00009D8B452EF69
:10E09E0070F054EF70F04AEF70F0030E99EC6AF0E6
:10E0AE00FCEC6AF00009D8B45FEF70F061EF70F02D
:10E0BE0057EF70F0020E99EC6AF01200BE6ABD6A5C
:10E0CE00BA6ABB6ABC6A070EC66EC268BF0EC36E62
:10E0DE00840EC46EC5683A01706B606B2F0E506F64
:10E0EE00070E806FEF0E406F716B816B516B416B42
:10E0FE00616B5A6B5B6B6A6B6B6B7A6B7B6B826B58
:10E10E00426B526B180E626F726B4369536963698F
:10E11E007369070E836F44695469646974690F0EDD
:10E12E00846F0F0EE86F250E106F160E0E6F210EF8
:10E13E00136F0F0E116F220E146F170EE56F040E74
:10E14E00C36F130EE16F0C0EDD6F140EE26F120E25
:10E15E00CA6F0D0E156F130E166F12000550D8B440
:10E16E00BBEF70F0BDEF70F0C5EF70F00550D8A4A6
:10E17E00C3EF70F0C5EF70F0CAEF70F0035035ECDE
:10E18E006AF00AEF71F00550D96EDA6A090ED926D7
:10E19E00DE50DE10D8B4D6EF70F0D8EF70F0F1EF9D
:10E1AE0070F00550D96EDA6A090ED9260550E16E67
:10E1BE00E26A020EE126DE50E65CE650800A0A6E46
:10E1CE00DE50800A0A58D8B0EFEF70F0F1EF70F021
:10E1DE000AEF71F00550D96EDA6A020ED926DF50B9
:10E1EE00066E0550D96EDA6ADF500624D96EDA6AE9
:10E1FE0060000FF0DFFF0550D96EDA6A020ED926E5
:10E20E00DE2A000EDD221200066A02BE13EF71F046
:10E21E0011EF71F019EF71F0016C021ED8B0022AE5
:10E22E00010E066E04BE20EF71F01EEF71F024EFAA
:10E23E0071F0036C041ED8B0042A03500410D8B435
:10E24E002BEF71F02DEF71F051EF71F0010E056EA5
:10E25E0035EF71F0D89003360436052A04AE3AEF46
:10E26E0071F03CEF71F031EF71F00350015C04502E
:10E27E000258D8A045EF71F047EF71F04BEF71F0F7
:10E28E000350015E0450025AD89004320332052E18
:10E29E003CEF71F00650D8B457EF71F059EF71F0B2
:10E2AE005DEF71F0016C021ED8B0022A01C001F0C0
:10E2BE0002C002F01200FCEC6AF00009D8B46AEF5A
:10E2CE0071F06CEF71F062EF71F0B40E99EC6AF0D0
:10E2DE00126A78EC6AF00009D8B478EF71F07AEF30
:10E2EE0071F070EF71F01250080FD96EDA6A2FECE0
:10E2FE006FF0DF6E78EC6AF00009D8B489EF71F038
:10E30E008BEF71F081EF71F012500D0FD96EDA6A4A
:10E31E002FEC6FF0DF6E12500D0FD96EDA6ADF50F0
:10E32E00046E0450066E056A1250080FD96EDA6A32
:10E33E00DF50076E07500526000E06221250020D02
:10E34E00F350A70FD96EDA6A600017F0DEFF600097
:10E35E001BF0DDFF122A040E1264B8EF71F0BAEF53
:10E36E0071F070EF71F0A70E1200066A04BEC4EFD2
:10E37E0071F0C2EF71F0CAEF71F0036C041ED8B0E9
:10E38E00042A010E066E02BED1EF71F0CFEF71F0CE
:10E39E00D7EF71F0016C021ED8B0022A010E061AD8
:10E3AE00086A000E076E03500410D8B4E1EF71F046
:10E3BE00E3EF71F00BEF72F0010E056EEBEF71F003
:10E3CE00D89003360436052A04AEF0EF71F0F2EF62
:10E3DE0071F0E7EF71F0D890073608360350015C04
:10E3EE0004500258D8A0FEEF71F000EF72F005EF66
:10E3FE0072F00350015E0450025A0780D890043226
:10E40E000332052EF2EF71F00650D8B411EF72F010
:10E41E0013EF72F017EF72F0076C081ED8B0082ACF
:10E42E0007C001F008C002F012000A6A08BE24EF0D
:10E43E0072F022EF72F02EEF72F0081E071E061E0B
:10E44E00056C000E062207220822010E0A6E04BE7B
:10E45E0035EF72F033EF72F03FEF72F0041E031ED1
:10E46E00021E016C000E022203220422010E0A1A61
:10E47E00000E0B6E000E0C6E000E0D6E000E0E6E6C
:10E48E000550061007100810D8B450EF72F052EF76
:10E49E0072F088EF72F0010E096E5CEF72F0D89098
:10E4AE000536063607360836092A08AE61EF72F0D1
:10E4BE0063EF72F056EF72F0D8900B360C360D36C5
:10E4CE000E360550015C065002580750035808508E
:10E4DE000458D8A075EF72F077EF72F080EF72F0FB
:10E4EE000550015E0650025A0750035A0850045A4E
:10E4FE000B80D8900832073206320532092E63EFB0
:10E50E0072F00A50D8B48EEF72F090EF72F098EF6E
:10E51E0072F00E1E0D1E0C1E0B6C000E0C220D2228
:10E52E000E220BC001F00CC002F00DC003F00EC0A5
:10E53E0004F01200E50E206EFB0E216EB3EC6AF0B5
:10E54E00BB0E206EFD0E216EB3EC6AF0550E206EE2
:10E55E00FD0E216EB3EC6AF0990E206EFD0E216E4B
:10E56E00B3EC6AF0770E206EFD0E216EB3EC6AF0FE
:10E57E00550E206EFD0E216EB3EC6AF0BB0E206EB2
:10E58E00FD0E216EB3EC6AF0C60E206EFC0E216EEF
:10E59E00B3EC6AF0370E206EFE0E216EB3EC6AF00D
:10E5AE00DD0E206EFD0E216EB3EC6AF0C90E206EEC
:10E5BE00FC0E216EB3EC6AF0100E206EFD0E216E75
:10E5CE00B3EC6AF0E50E206EFB0E216EB3EC6AF032
:10E5DE00820E206EFB0E216EB3EC6AF0E50E206EFD
:10E5EE00FB0E216EB3EC6AF0330E206EFD0E216E23
:10E5FE00B3EC6AF0ED0E206EFC0E216EB3EC6AF0F9
:10E60E00E80E206EFE0E216EB3EC6AF0BA0E206E8E
:10E61E00FE0E216EB3EC6AF0D10E206EFE0E216E50
:10E62E00B3EC6AF0E50E206EFB0E216EB3EC6AF0D1
:10E63E00710E206EFE0E216EB3EC6AF0C60E206EC9
:10E64E00FC0E216EB3EC6AF01200406E40C042F038
:10E65E00C0EC6AF0C80E026EFF0E036E080E046E5A
:10E66E00C7EC6FF0480E016E900E83EC6AF02DEC45
:10E67E006AF0010E026E000EAEEC6BF0350E206EDF
:10E68E00770E216EFF0E226E42C023F0246A40ECFC
:10E69E006BF02050416E350E026E036A41C004F0DD
:10E6AE00C7EC6FF0C6EF73F0EBEC6AF001C03EF012
:10E6BE0002C03FF01B0E3E5CB70E3F58D8A06AEF6B
:10E6CE0073F06CEF73F0C6EF73F04206106A000E33
:10E6DE000F6E58EC6AF0B7EF73F0C0EC6AF0010EF3
:10E6EE00026E000EAEEC6BF0380E026EFF0E036E75
:10E6FE00080E046EC7EC6FF0C6EF73F0010E026EDB
:10E70E00000EAEEC6BF0410E026EFF0E036E080EA5
:10E71E00046EC7EC6FF0C6EF73F0010E026E000EC2
:10E72E00AEEC6BF0530E026EFF0E036E080E046E0F
:10E73E00C7EC6FF0C6EF73F0010E026E000EAEEC7A
:10E74E006BF0350E206E770E216EFF0E226E42C0DC
:10E75E0023F0246A40EC6BF02050416E52EF73F0C0
:10E76E004250000AD8B474EF73F0010AD8B485EFA2
:10E77E0073F0030AD8B494EF73F0A3EF73F0425022
:10E78E00D8A4CCEF73F0CEEF73F05BEF73F02FECF9
:10E79E006AF01200FCEC6AF00009D8B4D9EF73F0FD
:10E7AE00DBEF73F0D1EF73F0870E99EC6AF0146A19
:10E7BE00000E136E78EC6AF00009D8B4E9EF73F02E
:10E7CE00EBEF73F0E1EF73F01350060FD96EDA6AC8
:10E7DE002FEC6FF0DF6E78EC6AF00009D8B4FAEF28
:10E7EE0073F0FCEF73F0F2EF73F013500B0FD96E62
:10E7FE00DA6A2FEC6FF0DF6E13500B0FD96EDA6AF8
:10E80E00DF50026E0250046E036A1350060FD96E6B
:10E81E00DA6ADF50056E05500326000E04221350EF
:10E82E00020DF3509D0FD96EDA6A60000FF0DEFF15
:10E83E00600013F0DDFF134A142A14BE30EF74F09B
:10E84E00145009E1050E135CD8A030EF74F032EFCE
:10E85E0074F0E1EF73F0126A000E116E1150020D9A
:10E86E00F3509D0FD96EDA6AF40EDE5C010EDE589F
:10E87E00D8A044EF74F046EF74F052EF74F01150DC
:10E88E00020DF350470FD96EDA6A010EDE6E000EDE
:10E89E00DD6E5AEF74F01150020DF350470FD96E22
:10E8AE00DA6ADE6ADD6A114A122A12BE68EF74F065
:10E8BE00125009E1050E115CD8A068EF74F06AEFF2
:10E8CE0074F035EF74F0D8904D34026E4BC003F0F7
:10E8DE00D8900336D890033649C004F0D890043649
:10E8EE00D8900436D89004364738F00B0410031035
:10E8FE0002104F10106E10501200126A000E116EA0
:10E90E000C50D96EDA6A6F007BFFF6FF6F0077FF4F
:10E91E00F7FFF86A0800F550250AD8A499EF74F0AD
:10E92E009BEF74F003EF76F00C50D96EDA6ADE2AA4
:10E93E00000EDD22546A000E536E53C059F0556816
:10E94E0056680C50D96EDA6A6F0078FF13F06F00BC
:10E95E0074FF14F060004FF0F6FF600053F0F7FF05
:10E96E00F86A0800F550640AD8B4C0EF74F0C2EF2C
:10E97E0074F0D3EF74F060004FF0F6FF600053F0C8
:10E98E00F7FFF86A0800F550690AD8A4D1EF74F0C1
:10E99E00D3EF74F06BEF75F00D50D96EDA6A020E8C
:10E9AE00DF26DF5CD96EDA6A6F0078FF15F06F0034
:10E9BE0078FF16F0010E13240E6E000E14200F6E4B
:10E9CE000C50D96EDA6A60003BF0DEFF60003FF05B
:10E9DE00DDFF200E196E16BEF7EF74F0FAEF74F02D
:10E9EE00010EFBEF74F0000E106E19061950600F39
:10E9FE00D96EDA6A15C001F016C002F0046A0A0E6A
:10EA0E00036E0BEC71F001C007F002C008F026ECAB
:10EA1E006BF00750300FDF6E15C001F016C002F01C
:10EA2E00046A0A0E036EBCEC71F001C015F002C050
:10EA3E0016F0114A122A15501610D8B429EF75F097
:10EA4E002BEF75F033EF75F01950D8A431EF75F048
:10EA5E0033EF75F0FCEF74F01950D8B439EF75F050
:10EA6E003BEF75F05CEF75F01050D8B441EF75F0D8
:10EA7E0043EF75F05CEF75F019061950600FD96E03
:10EA8E00DA6A2D0EDF6E114A122A5CEF75F01950FC
:10EA9E00600FD96EDA6ADF500E6E0E50036E046A86
:10EAAE000BC005F0B5EC70F0192A200E1918D8A479
:10EABE0063EF75F065EF75F04EEF75F011C00BF06A
:10EACE0012C00CF01EEF76F060004FF0F6FF600003
:10EADE0053F0F7FFF86A0800F550750AD8A47AEFDC
:10EAEE0075F07CEF75F0F8EF75F00D50D96EDA6AAF
:10EAFE00020EDF26DF5CD96EDA6A6F0078FF15F042
:10EB0E006F0078FF16F0010E13240E6E000E142007
:10EB1E000F6E0C50D96EDA6A60003BF0DEFF6000BB
:10EB2E003FF0DDFFE9EF75F0200E196E1906195052
:10EB3E00600FD96EDA6A15C001F016C002F0046AD1
:10EB4E000A0E036E8AEC6CF00150300FDF6E15C0AA
:10EB5E0001F016C002F0046A0A0E036E36EC6EF077
:10EB6E0001C015F002C016F0114A122A15501610E7
:10EB7E00D8B4C4EF75F0C6EF75F0DEEF75F019502E
:10EB8E00D8A4CCEF75F0CEEF75F09DEF75F0DEEFFB
:10EB9E0075F01950600FD96EDA6ADF500E6E0E5096
:10EBAE00036E046A0BC005F0B5EC70F0192A200E46
:10EBBE001918D8A4E5EF75F0E7EF75F0D0EF75F002
:10EBCE0065EF75F060004FF0F6FF600053F0F7FF51
:10EBDE00F86A0800F550750AD8B49BEF75F0F8EF97
:10EBEE0075F00C50D96EDA6ADE2A000EDD220C6A40
:10EBFE00000E0B6E1EEF76F00C50D96EDA6A6F00B7
:10EC0E007BFFF6FF6F0077FFF7FFF86A0800F550FD
:10EC1E00036E046A0BC005F0B5EC70F00C50D96EA3
:10EC2E00DA6ADE2A000EDD220C6A010E0B6E12006D
:10EC3E005EEC6AF065EC70F087EC6BF062EC6BF0FA
:10EC4E00C38A3A01509BCBBA2FEF76F031EF76F0B4
:10EC5E00E2EF7BF0A1EC72F0C0EC6AF0000E026EF7
:10EC6E00000EAEEC6BF0B60E026EFF0E036E080ECB
:10EC7E00046EC7EC6FF059EC6CF002C0DCF003C010
:10EC8E00DDF0C60E206EEA0E216EFF0E226EDCC087
:10EC9E0023F0DDC024F040EC6BF020500001E46F57
:10ECAE00010E026E000EAEEC6BF0C60E026E036A23
:10ECBE00E4C004F0C7EC6FF0EBEC6EF00001D56F22
:10ECCE00B7EF7BF0C0EC6AF0000E026E000EAEECF9
:10ECDE006BF02E0E026EFF0E036E080E046EC7EC66
:10ECEE006FF0010E026E000EAEEC6BF09B0E026E1C
:10ECFE00FF0E036E080E046EC7EC6FF0C60E206E8C
:10ED0E00FC0E216EB3EC6AF00001CF6BEDEF76F0E6
:10ED1E00430E206EFC0E216EB3EC6AF0540E206E84
:10ED2E00FE0E216EB3EC6AF0EBEC6EF00001B16FEB
:10ED3E0062EC71F00001D96FDB6B000EDA6FE56BE0
:10ED4E00040EE565ADEF76F0AFEF76F0B1EF76F04D
:10ED5E00DCEF76F0E551020DD951F324D96EDA6A63
:10ED6E006F0078FF43F06F0074FF44F0DA514324D4
:10ED7E00DA6FDB514420DB6FFE0E206EFE0E216E2D
:10ED8E00E5C022F0236AE551020DD951F324D96E64
:10ED9E00DA6A6F0078FF24F06F0074FF25F0B3EC91
:10EDAE006AF00001E52BA7EF76F0DA51DB11D8A45B
:10EDBE00E3EF76F0E5EF76F0EDEF76F0010ECF6F44
:10EDCE00FB0E206EFD0E216EB3EC6AF00001CF51EA
:10EDDE00D8B4F4EF76F0F6EF76F08FEF76F0D06BE6
:10EDEE006DEF77F0700E206EFC0E216EB3EC6AF0B4
:10EDFE00540E206EFE0E216EB3EC6AF0EBEC6EF04C
:10EE0E000001B16F62EC71F00001D96FDB6B000E87
:10EE1E00DA6FE56B040EE56517EF77F019EF77F013
:10EE2E001BEF77F046EF77F0E551020DD951F32441
:10EE3E00D96EDA6A6F0078FF43F06F0074FF44F00A
:10EE4E00DA514324DA6FDB514420DB6FFE0E206E65
:10EE5E00FE0E216EE5C022F0236AE551020DD95156
:10EE6E00F324D96EDA6A6F0078FF24F06F0074FF16
:10EE7E0025F0B3EC6AF00001E52B11EF77F0880E68
:10EE8E00DA1907E1130EDB19D8A450EF77F052EF21
:10EE9E0077F06DEF77F0010ED06F190E206EFE0E2B
:10EEAE00216EB3EC6AF08A0E206EFE0E216EB3EC6C
:10EEBE006AF0010E026E000EAEEC6BF0BF0E026E2B
:10EECE00FF0E036E080E046EC7EC6FF00001D051FA
:10EEDE00D8B474EF77F076EF77F0F9EF76F063EF62
:10EEEE0076F0C0EC6AF0000E026E000EAEEC6BF027
:10EEFE005C0E026EFF0E036E080E046EC7EC6FF012
:10EF0E00010E026E000EAEEC6BF0E20E026EFF0E04
:10EF1E00036E080E046EC7EC6FF0C60E206EFC0E6C
:10EF2E00216EB3EC6AF0FCEC6AF00009D8B4A2EFE3
:10EF3E0077F0A4EF77F09AEF77F0870E99EC6AF0FE
:10EF4E000001E16B000EE06FE1BFB7EF77F0E1512A
:10EF5E0009E1050EE05DD8A0B7EF77F0B9EF77F0D5
:10EF6E00BBEF77F003EF78F078EC6AF00009D8B4D5
:10EF7E00C3EF77F0C5EF77F0BBEF77F00001E0510C
:10EF8E00BC0FD96EDA6A2FEC6FF0DF6E78EC6AF098
:10EF9E000009D8B4D5EF77F0D7EF77F0CDEF77F053
:10EFAE000001E051C10FD96EDA6A2FEC6FF0DF6EFF
:10EFBE000001E051C10FD96EDA6ADF50436E435043
:10EFCE00456E446AE051BC0FD96EDA6ADF50466E68
:10EFDE0046504426000E4522E051020DF350B20F6A
:10EFEE00D96EDA6A600013F1DEFF600017F1DDFF03
:10EFFE00E04BE12BABEF77F0D76B000ED66FD7BFA0
:10F00E0012EF78F0D75109E1050ED65DD8A012EFB8
:10F01E0078F014EF78F016EF78F063EF76F01F0EBD
:10F02E00206EFF0E216ED6C022F0D7C023F0D6512F
:10F03E00020DF350B20FD96EDA6A6F0078FF24F02A
:10F04E006F0074FF25F0B3EC6AF00001D64BD72B9E
:10F05E0006EF78F0C0EC6AF0000E026E000EAEEC19
:10F06E006BF0DA0E026EFF0E036E070E046EC7EC27
:10F07E006FF0C60E206EFC0E216EB3EC6AF0AD0E74
:10F08E00206EFC0E216EB3EC6AF0EBEC6EF000011C
:10F09E00D86F60EF78F0C60E206EFC0E216EB3ECCA
:10F0AE006AF09D0E206EFC0E216EB3EC6AF04CEFF2
:10F0BE0078F02F0ED86566EF78F068EF78F052EFA3
:10F0CE0078F0350ED8616EEF78F070EF78F052EF81
:10F0DE0078F0000E026E070EAEEC6BF00001D85108
:10F0EE00D7EC6BF0FCEC6AF00009D8B481EF78F045
:10F0FE0083EF78F079EF78F0870E99EC6AF00001E3
:10F10E00E36B000EE26FE3BF96EF78F0E35109E197
:10F11E00050EE25DD8A096EF78F098EF78F09AEFB2
:10F12E0078F0E2EF78F078EC6AF00009D8B4A2EF4C
:10F13E0078F0A4EF78F09AEF78F00001E251BC0F6E
:10F14E00D96EDA6A2FEC6FF0DF6E78EC6AF0000998
:10F15E00D8B4B4EF78F0B6EF78F0ACEF78F00001F9
:10F16E00E251C10FD96EDA6A2FEC6FF0DF6E00013B
:10F17E00E251C10FD96EDA6ADF50436E4350456ECD
:10F18E00446AE251BC0FD96EDA6ADF50466E4650C1
:10F19E004426000E4522E251020DF350B20FD96EF5
:10F1AE00DA6A600013F1DEFF600017F1DDFFE24B5B
:10F1BE00E32B8AEF78F0D851D00FD56F100E206E5A
:10F1CE00FF0E216ED5C022F0236AD551020DF350E9
:10F1DE00B20FD96EDA6A6F0078FF24F06F0074FFF9
:10F1EE0025F0B3EC6AF063EF76F0C0EC6AF0000E37
:10F1FE00026E000EAEEC6BF0A40E026EFF0E036EEE
:10F20E00080E046EC7EC6FF0C60E206EFC0E216E5B
:10F21E00B3EC6AF059EC6CF002C0DCF003C0DDF028
:10F22E00C60E206EEA0E216EFF0E226EDCC023F09B
:10F23E00DDC024F040EC6BF020500001E46F010EB5
:10F24E00026E000EAEEC6BF0C60E026E036AE4C0E8
:10F25E0004F0C7EC6FF0A20E206EFE0E216EDCC025
:10F26E0022F0DDC023F0B3EC6AF063EF76F0C0EC71
:10F27E006AF0000E026E000EAEEC6BF0920E026E95
:10F28E00FF0E036E080E046EC7EC6FF0C60E206EF6
:10F29E00FC0E216EB3EC6AF0160E206EFC0E216E83
:10F2AE00B3EC6AF0A8EC6EF00001E66FE651C9EC23
:10F2BE006DF0C60E206EF60E216EFF0E226EE6C0AB
:10F2CE0023F0246A40EC6BF020500001E46F010E35
:10F2DE00026E000EAEEC6BF0C60E026E036AE4C058
:10F2EE0004F0C7EC6FF0FCEC6AF00009D8B482EFC2
:10F2FE0079F084EF79F07AEF79F0C10E99EC6AF03B
:10F30E00FCEC6AF00009D8B48FEF79F091EF79F048
:10F31E0087EF79F00001E65199EC6AF0FCEC6AF0A7
:10F32E000009D8B49DEF79F09FEF79F095EF79F061
:10F33E00C50E99EC6AF0FCEC6AF00009D8B4AAEF9D
:10F34E0079F0ACEF79F0A2EF79F00001E65199EC8B
:10F35E006AF063EF76F0C0EC6AF0000E026E000EFB
:10F36E00AEEC6BF0AD0E026EFF0E036E080E046E69
:10F37E00C7EC6FF0C60E206EFC0E216EB3EC6AF079
:10F38E00E80E206EFB0E216EB3EC6AF0A8EC6EF068
:10F39E000001E66FE651F1EC6CF0C60E206EF60E33
:10F3AE00216EFF0E226EE6C023F0246A40EC6BF055
:10F3BE0020500001E46F010E026E000EAEEC6BF0F9
:10F3CE00C60E026E036AE4C004F0C7EC6FF0FCECEC
:10F3DE006AF00009D8B4F6EF79F0F8EF79F0EEEFB5
:10F3EE0079F0C20E99EC6AF0FCEC6AF00009D8B420
:10F3FE0003EF7AF005EF7AF0FBEF79F00001E651BA
:10F40E0099EC6AF0FCEC6AF00009D8B411EF7AF0CE
:10F41E0013EF7AF009EF7AF0C60E99EC6AF0FCEC75
:10F42E006AF00009D8B41EEF7AF020EF7AF016EFEA
:10F43E007AF00001E65199EC6AF063EF76F0C0ECD9
:10F44E006AF0000E026E000EAEEC6BF0800E026ED5
:10F45E00FF0E036E080E046EC7EC6FF0C60E206E24
:10F46E00FC0E216EB3EC6AF0160E206EFC0E216EB1
:10F47E00B3EC6AF0A8EC6EF00001E66F3B0E206E66
:10F48E00FB0E216EB3EC6AF0A8EC6EF00001DF6F9C
:10F49E00E651DF25D36FD46BD437DFC002F0E651CF
:10F4AE006FEC6EF0C60E206EF00E216EFF0E226E09
:10F4BE00E6C023F0246ADFC025F0266A40EC6BF02C
:10F4CE0020500001E46F010E026E000EAEEC6BF0E8
:10F4DE00C60E026E036AE4C004F0C7EC6FF0FCECDB
:10F4EE006AF00009D8B47EEF7AF080EF7AF076EF0A
:10F4FE007AF0C10E99EC6AF0FCEC6AF00009D8B40F
:10F50E008BEF7AF08DEF7AF083EF7AF00001D35122
:10F51E0099EC6AF0FCEC6AF00009D8B499EF7AF035
:10F52E009BEF7AF091EF7AF0C50E99EC6AF0FCEC55
:10F53E006AF00009D8B4A6EF7AF0A8EF7AF09EEF41
:10F54E007AF00001E65199EC6AF063EF76F0C0ECC8
:10F55E006AF0000E026E000EAEEC6BF0890E026EBB
:10F56E00FF0E036E080E046EC7EC6FF0C60E206E13
:10F57E00FC0E216EB3EC6AF0160E206EFC0E216EA0
:10F58E00B3EC6AF0A8EC6EF00001E66F3B0E206E55
:10F59E00FB0E216EB3EC6AF0A8EC6EF00001DF6F8B
:10F5AE00E651DF25D36FD46BD437DFC002F0E651BE
:10F5BE00FFEC6DF0C60E206EF00E216EFF0E226E69
:10F5CE00E6C023F0246ADFC025F0266A40EC6BF01B
:10F5DE0020500001E46F010E026E000EAEEC6BF0D7
:10F5EE00C60E026E036AE4C004F0C7EC6FF0FCECCA
:10F5FE006AF00009D8B406EF7BF008EF7BF0FEEF5F
:10F60E007AF0C10E99EC6AF0FCEC6AF00009D8B4FD
:10F61E0013EF7BF015EF7BF00BEF7BF00001E65163
:10F62E0099EC6AF0FCEC6AF00009D8B421EF7BF09B
:10F63E0023EF7BF019EF7BF0C50E99EC6AF0FCEC32
:10F64E006AF00009D8B42EEF7BF030EF7BF026EF96
:10F65E007BF00001D35199EC6AF063EF76F0C0ECC9
:10F66E006AF0000E026E000EAEEC6BF06E0E026EC5
:10F67E00FF0E036E080E046EC7EC6FF0C60E206E02
:10F68E00FC0E216EB3EC6AF031EC6AF0FCEC6AF021
:10F69E000009D8B455EF7BF057EF7BF04DEF7BF0C0
:10F6AE00C10E99EC6AF0FCEC6AF00009D8B462EF76
:10F6BE007BF064EF7BF05AEF7BF0000E99EC6AF072
:10F6CE00FCEC6AF00009D8B46FEF7BF071EF7BF0C1
:10F6DE0067EF7BF0C50E99EC6AF0FCEC6AF000095E
:10F6EE00D8B47CEF7BF07EEF7BF074EF7BF0000EF6
:10F6FE0099EC6AF063EF76F0C0EC6AF0000E026EE1
:10F70E00000EAEEC6BF0B60E026EFF0E036E080E20
:10F71E00046EC7EC6FF059EC6CF002C0DCF003C065
:10F72E00DDF0C60E206EEA0E216EFF0E226EDCC0DC
:10F73E0023F0DDC024F040EC6BF020500001E46FAC
:10F74E00010E026E000EAEEC6BF0C60E026E036A78
:10F75E00E4C004F0C7EC6FF0A1EC72F063EF76F04A
:10F76E00D551420AD8B4B2EF79F0040AD8B43EEFBC
:10F77E0079F00A0AD8B426EF7AF01E0AD8B4AEEFA2
:10F78E007AF0010AD8B436EF7BF0300AD8B469EFBC
:10F79E0076F0070AD8B431EF78F0090AD8B483EFBF
:10F7AE007BF01F0AD8B478EF77F0040AD8B4FCEFD8
:10F7BE0078F063EF76F0CBAAE7EF7BF0E9EF7BF022
:10F7CE0088EF7DF0A1EC72F0C0EC6AF0000E026ED4
:10F7DE00000EAEEC6BF04A0E026EFF0E036E080EBC
:10F7EE00046EC7EC6FF059EC6CF002C0DCF003C095
:10F7FE00DDF0C60E206EEA0E216EFF0E226EDCC00C
:10F80E0023F0DDC024F040EC6BF020500001E46FDB
:10F81E00010E026E000EAEEC6BF0C60E026E036AA7
:10F82E00E4C004F0C7EC6FF03D0E446EE10E436E83
:10F83E00400EE82EFED7432EFCD7442EFAD7000EEC
:10F84E00026E000EAEEC6BF0D10E026EFF0E036E6A
:10F85E00080E046EC7EC6FF02BEC6CF0010E026E0E
:10F86E00000EAEEC6BF0650E026EFF0E036E080E10
:10F87E00046EC7EC6FF0060E2CEC73F0100E436E98
:10F88E00940EE82EFED7432EFCD700D0400E016E0C
:10F89E00900E83EC6AF016EC70F0D1EC73F0000170
:10F8AE00DE6F65EF7DF0CEEC6AF00001D16BD26BAE
:10F8BE0054EF7CF0FCEC6AF00009D8B469EF7CF0F0
:10F8CE006BEF7CF061EF7CF0010E0001D16FBC0E8E
:10F8DE0099EC6AF07CEF7CF01E0E026E000E6FEC5F
:10F8EE006EF0D1EC73F00001DE6F040E0001DE1934
:10F8FE00D8A484EF7CF086EF7CF073EF7CF054EFAD
:10F90E007CF0FCEC6AF00009D8B490EF7CF092EF3A
:10F91E007CF088EF7CF0BC0E99EC6AF0010E0001D1
:10F92E00D26FA3EF7CF01E0E026E000EFFEC6DF098
:10F93E00D1EC73F00001DE6F040EDE19D8A4AAEF2D
:10F94E007CF0ACEF7CF09AEF7CF054EF7CF0FCECAA
:10F95E006AF00009D8B4B6EF7CF0B8EF7CF0AEEFE9
:10F96E007CF0010E0001D16FBC0E99EC6AF0C9EF6C
:10F97E007CF00A0E026E0A0E27EC6DF0D1EC73F0DD
:10F98E000001DE6FDEC043F00E0E4316D8B4D2EF88
:10F99E007CF0D4EF7CF0C0EF7CF054EF7CF0FCEC0C
:10F9AE006AF00009D8B4DEEF7CF0E0EF7CF0D6EF21
:10F9BE007CF0BC0E99EC6AF0010E0001D26FF1EFF3
:10F9CE007CF00A0E026E0A0E5DEC6DF0D1EC73F057
:10F9DE000001DE6FDEC043F00E0E4316D8B4FAEF10
:10F9EE007CF0FCEF7CF0E8EF7CF054EF7CF0D1057E
:10F9FE00D8A404EF7DF006EF7DF025EF7DF0FCEC52
:10FA0E006AF00009D8B40EEF7DF010EF7DF006EF2E
:10FA1E007DF0BC0E99EC6AF01E0E026E000E6FECBD
:10FA2E006EF00D0E446E2D0E436ED80EE82EFED7E0
:10FA3E00432EFCD7442EFAD741EF7DF0D205D8A441
:10FA4E002BEF7DF02DEF7DF041EF7DF0FCEC6AF0B9
:10FA5E000009D8B435EF7DF037EF7DF02DEF7DF056
:10FA6E00BC0E99EC6AF01E0E026E000EFFEC6DF0ED
:10FA7E0018EF7DF00A0E446E220E436EA10EE82E94
:10FA8E00FED7432EFCD7442EFAD70000FCEC6AF0CA
:10FA9E000009D8B455EF7DF057EF7DF04DEF7DF0B6
:10FAAE00BC0E99EC6AF0140EBCEC6CF0140E93ECD8
:10FABE006DF0140EBCEC6CF054EF7CF0DE51000ACD
:10FACE00D8B4FEEF7CF0010AD8B4D6EF7CF0030A6E
:10FADE00D8B488EF7CF0060AD8B45AEF7CF0010A4D
:10FAEE00D8B4D6EF7CF00D0AD8B461EF7CF0180ACA
:10FAFE00D8B4AEEF7CF0040AD8B4AEEF7CF054EF7D
:10FB0E007CF0FEEF7FF0000000000000000000001F
:10FB1E0000000000000000000000000000000000D7
:10FB2E00000000000000000000000000000920504E
:10FB3E006C6561736520656E7465722074686520EE
:10FB4E007475726E696E6720646966666572656E3D
:10FB5E007469616C3A207370656564202B2064694A
:10FB6E0066666572656E7469616C203C2031323751
:10FB7E00200D0A00202076200909202876296F6C96
:10FB8E0074616765202D205265616420616E64206A
:10FB9E00646973706C617920626174746572792026
:10FBAE00766F6C74616765200D0A00496E76616C24
:10FBBE00696420696E7075742E20506C6561736572
:10FBCE00207265646F206E756D65726963616C205D
:10FBDE00696E7075742E200D0A000920506C6561D7
:10FBEE00736520656E74657220746865206261634A
:10FBFE006B776172642073706565642C2030202DE4
:10FC0E0020313237200D0A000920506C6561736572
:10FC1E0020656E7465722074686520666F727761F8
:10FC2E0072642073706565642C2030202D20313273
:10FC3E0037200D0A00506C61636520616C6C206684
:10FC4E006976652073656E736F7273206F6E2061B7
:10FC5E002077686974652073757266616365200A22
:10FC6E000D00506C61636520616C6C206669766571
:10FC7E002073656E736F7273206F6E206120626CDD
:10FC8E0061636B2073757266616365200A0D0049AE
:10FC9E006E76616C696420656E7472792E202045D3
:10FCAE006E7465722073656E736F72206E756D6201
:10FCBE0065722C20302D34200A0D00202072200970
:10FCCE0009202872296561642063616C6962726122
:10FCDE007465642073656E736F7273200D0A002055
:10FCEE00204220090920576865656C7320726F7475
:10FCFE006174652028422961636B77617264200DFF
:10FD0E000A00202064200909202864296973706C78
:10FD1E0061792073656E736F7220782076616C75D1
:10FD2E0065200D0A002020462009092057686565C8
:10FD3E006C7320726F74617465202846296F727718
:10FD4E00617264200D0A00092A2020202020202024
:10FD5E002020202020202020202020202020202095
:10FD6E0020202020202A0D0A00092A2020202020D1
:10FD7E0020446961676E6F73746963204D656E759B
:10FD8E00202020202020202A0D0A00092A202020B1
:10FD9E00415053432031323939202D20506F6C6F32
:10FDAE006C75203370692020202A0D0A00092A2A3A
:10FDBE002A2A2A2A2A2A2A2A2A2A2A2A2A2A2A2A95
:10FDCE002A2A2A2A2A2A2A2A2A2A2A2A0D0A0020F6
:10FDDE00206320090920286329616C6962726174AD
:10FDEE00652073656E736F7273200D0A0057686914
:10FDFE0074652063616C6962726174696F6E2063F1
:10FE0E006F6D706C657465200A0D00426C61636BDA
:10FE1E002063616C6962726174696F6E20636F6DCD
:10FE2E00706C657465200A0D00436F6D6D616E64B4
:10FE3E00204B65792009204465736372697074697B
:10FE4E006F6E200D0A00507265737320616E7920FB
:10FE5E006B657920746F20636F6E74696E756520A3
:10FE6E000A0D0020206D2009092052656672657307
:10FE7E006820286D29656E75200D0A0043616C6936
:10FE8E0062726174696F6E20636F6D706C657465FC
:10FE9E00200A0D004261747465727920766F6C745D
:10FEAE00616765203D202575200A0D002020522017
:10FEBE0009092028522969676874207475726E20AA
:10FECE000D0A0020205320090920285329746F7031
:10FEDE00206D6F746F72200D0A0020204C200909CE
:10FEEE0020284C29656674207475726E200D0A00E8
:10FEFE0053656E736F72202575203D202575200A7F
:10FF0E000D0053656E736F722025643A2025750AB5
:10FF1E000053656E736F722E2025642025750A00BE
:10FF2E0043616C69627261746500202020474F2026
:10FF3E0020200020205345542020200020205275E0
:10FF4E006E202020002052454144592020002020C0
:10FF5E00526561642020002020646F6E65202000B1
:10FF6E00202053746F7020200020202575207320D0
:10FF7E00200020204C65667420200020526967689E
:10FF8E0074202000466F7277617264200053656E94
:10FF9E00736F72732000426174746572792000422F
:10FFAE0061636B7761726400446961676E6F73653C
:10FFBE0000436F6D706C65746500436F756E746988
:10FFCE006E67004175746F2043616C0053656E73EC
:10FFDE006F72200053656E736F7273002575206DFE
:10FFEE005600257520257500202575200000DCEFB4
:02FFFE006AF0A7
:020000040030CA
:0A000000ECFEF7FF9FFFFFFFFFFF7C
:00000001FF
