:04000000FEEF7FF0A0
:10D3F200120012001200120012001200B88E120067
:10D40200B89E1200000E9BEC6DF01200026E0250EC
:10D4120078EC6AF0120001C0EDF002C0EEF01200EA
:10D4220001C05EF002C05FF0120001C05CF002C0F9
:10D432005DF0120001C0E7F002C0E8F0120001C086
:10D44200EBF002C0ECF0120001C0E9F002C0EAF019
:10D4520012001050B76E60003FF0B6FF120040ECB1
:10D462006AF037EC70F037EC6AF01200600E3901A6
:10D47200D96FDB6BDD6B070EDF6FDE6B12003901DC
:10D48200C06BC16BC26BC36BC46BC56BC66BC76B26
:10D4920012003901A3B750EF6AF053EF6AF0010EA0
:10D4A20054EF6AF0000E1200026E60000BF0B8FF3B
:10D4B200600007F0B9FFB89E3901A39F120039013D
:10D4C200A6B566EF6AF069EF6AF0010E6AEF6AF0DC
:10D4D200000E1200016E3901A3A972EF6AF074EF17
:10D4E2006AF06CEF6AF0600007F0EAFD1200016E6C
:10D4F2003901A6A77FEF6AF081EF6AF079EF6AF04F
:10D50200600007F0D2FD1200220E266E000E1A6E87
:10D5120020C01BF021C01CF0260E1D6ED2EC6BF059
:10D522001200CEEC6AF00009D8B49AEF6AF09CEFD0
:10D532006AF092EF6AF0B70E6BEC6AF01200CEEC72
:10D542006AF00009D8B4A8EF6AF0AAEF6AF0A0EF77
:10D552006AF0BB0E6BEC6AF0120000EE60F0510E46
:10D56200EE6AE806FDE100EE47F0150EEE6AE80607
:10D57200FDE10001F1EF75F06F00D8FE07F06F00DA
:10D58200DCFE08F00850036E0750056E03C006F07B
:10D5920005C001F006C002F01200016A3901A3A918
:10D5A200D5EF6AF0D7EF6AF0E1EF6AF03D01F2AB36
:10D5B200DDEF6AF0DFEF6AF0E1EF6AF0010E016E73
:10D5C20001501200016A3901A6A7EAEF6AF0ECEFF6
:10D5D2006AF0F6EF6AF03D01DAABF2EF6AF0F4EFCF
:10D5E2006AF0F6EF6AF0010E016E0150120008BEF9
:10D5F200FDEF6AF0FFEF6AF005EF6BF007C007F08E
:10D6020008C008F011EF6BF007C009F008C00AF07B
:10D61200091E0A1E094A0A2A09C007F00AC008F0B0
:10D622001200230E296E20C02AF02D6A000E2C6EE5
:10D63200346A000E336E2A0E1A6E21C01BF022C00D
:10D642001CF0290E1D6ED2EC6BF01AC027F01BC025
:10D6520028F020502C24D96EDA6ADF6A27C020F025
:10D6620028C021F012003D01D46BD66BD86BB00EEE
:10D67200DA6F800EDB6FDC6BE10EDD6F040EDE6FA6
:10D68200DF6BE06BE16BE26BFA0E016ED30E026EA2
:10D6920020EC6AF0FC0E016ED30E026E25EC6AF0ED
:10D6A200F80E016ED30E026E1BEC6AF05A6A12007B
:10D6B2003D01EC6BED6BEE6BEF6BF06BF16BB00E53
:10D6C200F26F800EF36FF46B670EF56FF66BF76B0C
:10D6D200F86BF96BFA6BF40E016ED30E026E11EC5D
:10D6E2006AF0F60E016ED30E026E16EC6AF0F20EBE
:10D6F200016ED30E026E0CEC6AF05B6A1200036ECE
:10D70200CEEC6AF00009D8B489EF6BF08BEF6BF0C6
:10D7120081EF6BF0B90E6BEC6AF0CEEC6AF00009A7
:10D72200D8B496EF6BF098EF6BF08EEF6BF003507E
:10D732006BEC6AF0CEEC6AF00009D8B4A3EF6BF0A0
:10D74200A5EF6BF09BEF6BF002506BEC6AF01200EE
:10D75200026ECEEC6AF00009D8B4B2EF6BF0B4EF0F
:10D762006BF0AAEF6BF0B80E6BEC6AF0CEEC6AF0DD
:10D772000009D8B4BFEF6BF0C1EF6BF0B7EF6BF0FD
:10D78200010E6BEC6AF0CEEC6AF00009D8B4CCEF73
:10D792006BF0CEEF6BF0C4EF6BF002506BEC6AF003
:10D7A20012001BC01EF01CC01FF0526A000E516E08
:10D7B200E7EF6BF01AC00BF01E0E0C6E1DC00DF0E1
:10D7C20056EC74F00B5051260C50522260007BF044
:10D7D200F6FF60007FF0F7FFF86A0800F5500009D5
:10D7E200D8A4F6EF6BF0F8EF6BF0DBEF6BF051C003
:10D7F2001AF052C01BF01200CEEC6AF00009D8B445
:10D8020005EF6CF007EF6CF0FDEF6BF0BA0E6BEC0E
:10D812006AF04AEC6AF00009D8B412EF6CF014EF27
:10D822006CF00AEF6CF020EF6CF04AEC6AF0000941
:10D83200D8B41EEF6CF020EF6CF016EF6CF001EC38
:10D842006FF0630AD8A428EF6CF02AEF6CF016EFA1
:10D852006CF01200CEEC6AF00009D8B433EF6CF031
:10D8620035EF6CF02BEF6CF0B10E6BEC6AF04AEC1A
:10D872006AF00009D8B440EF6CF042EF6CF038EF78
:10D882006CF001EC6FF0066E4AEC6AF00009D8B455
:10D892004DEF6CF04FEF6CF045EF6CF001EC6FF078
:10D8A200076E0750056E046A06500424026E000ECD
:10D8B2000520036E120003500410D8B463EF6CF01D
:10D8C20065EF6CF089EF6CF0010E056E6DEF6CF098
:10D8D200D89003360436052A04AE72EF6CF074EF6A
:10D8E2006CF069EF6CF00350015C04500258D8A050
:10D8F2007DEF6CF07FEF6CF083EF6CF00350015E14
:10D902000450025AD89004320332052E74EF6CF0A0
:10D9120001C001F002C002F01200116E01EC6AF0C7
:10D92200470E016E900E55EC6AF0670E016E000E06
:10D93200026E0F0E036E000E046E1150056E066A23
:10D94200076A086AEEEC71F0015000080F6E02508F
:10D95200D8A0E82A0008106E2AEC6AF03901A39FC9
:10D96200FFEC69F011509BEC6DF03901A3AFBCEFF5
:10D972006CF0BEEF6CF0B6EF6CF003EC6AF001EC09
:10D982006AF01200026ECEEC6AF00009D8B4CCEF55
:10D992006CF0CEEF6CF0C4EF6CF0C20E6BEC6AF080
:10D9A200CEEC6AF00009D8B4D9EF6CF0DBEF6CF082
:10D9B200D1EF6CF002506BEC6AF0CEEC6AF0000929
:10D9C200D8B4E6EF6CF0E8EF6CF0DEEF6CF0C60E68
:10D9D2006BEC6AF0CEEC6AF00009D8B4F3EF6CF0AD
:10D9E200F5EF6CF0EBEF6CF002286BEC6AF01200D2
:10D9F200036ECEEC6AF00009D8B402EF6DF004EFCA
:10DA02006DF0FAEF6CF0C50E6BEC6AF0CEEC6AF0DA
:10DA12000009D8B40FEF6DF011EF6DF007EF6DF064
:10DA220003506BEC6AF0CEEC6AF00009D8B41CEF3C
:10DA32006DF01EEF6DF014EF6DF0C20E6BEC6AF03C
:10DA4200CEEC6AF00009D8B429EF6DF02BEF6DF03F
:10DA520021EF6DF003286BEC6AF01200036ECEEC3E
:10DA62006AF00009D8B438EF6DF03AEF6DF030EF9C
:10DA72006DF0C10E6BEC6AF0CEEC6AF00009D8B41E
:10DA820045EF6DF047EF6DF03DEF6DF003506BEC3D
:10DA92006AF0CEEC6AF00009D8B452EF6DF054EFA0
:10DAA2006DF04AEF6DF0C60E6BEC6AF0CEEC6AF0E8
:10DAB2000009D8B45FEF6DF061EF6DF057EF6DF0D4
:10DAC20003286BEC6AF01200026ECEEC6AF00009D9
:10DAD200D8B46EEF6DF070EF6DF066EF6DF0C10EC1
:10DAE2006BEC6AF0CEEC6AF00009D8B47BEF6DF013
:10DAF2007DEF6DF073EF6DF002506BEC6AF0CEECDF
:10DB02006AF00009D8B488EF6DF08AEF6DF080EF0B
:10DB12006DF0C60E6BEC6AF0CEEC6AF00009D8B478
:10DB220095EF6DF097EF6DF08DEF6DF002286BECD5
:10DB32006AF01200026ECEEC6AF00009D8B4A4EFCB
:10DB42006DF0A6EF6DF09CEF6DF0C10E6BEC6AF01C
:10DB5200CEEC6AF00009D8B4B1EF6DF0B3EF6DF01E
:10DB6200A9EF6DF002506BEC6AF0CEEC6AF000099E
:10DB7200D8B4BEEF6DF0C0EF6DF0B6EF6DF0C50E2C
:10DB82006BEC6AF0CEEC6AF00009D8B4CBEF6DF022
:10DB9200CDEF6DF0C3EF6DF002286BEC6AF012006E
:10DBA200036ECEEC6AF00009D8B4DAEF6DF0DCEF68
:10DBB2006DF0D2EF6DF0C10E6BEC6AF0CEEC6AF054
:10DBC2000009D8B4E7EF6DF0E9EF6DF0DFEF6DF02B
:10DBD200035002246BEC6AF0CEEC6AF00009D8B470
:10DBE200F5EF6DF0F7EF6DF0EDEF6DF0C50E6BEC4C
:10DBF2006AF0CEEC6AF00009D8B402EF6EF004EFDE
:10DC02006EF0FAEF6DF003286BEC6AF01200066A10
:10DC1200000E056E03500410D8B412EF6EF014EF2C
:10DC22006EF03CEF6EF0010E076E1CEF6EF0D890B6
:10DC320003360436072A04AE21EF6EF023EF6EF0AE
:10DC420018EF6EF0D890053606360350015C04508A
:10DC52000258D8A02FEF6EF031EF6EF036EF6EF073
:10DC62000350015E0450025A0580D89004320332F8
:10DC7200072E23EF6EF005C001F006C002F012007D
:10DC8200046ECEEC6AF00009D8B44AEF6EF04CEFA5
:10DC92006EF042EF6EF0C10E6BEC6AF0CEEC6AF001
:10DCA2000009D8B457EF6EF059EF6EF04FEF6EF0F7
:10DCB20004506BEC6AF0CEEC6AF00009D8B464EF61
:10DCC2006EF066EF6EF05CEF6EF0C50E6BEC6AF014
:10DCD200CEEC6AF00009D8B471EF6EF073EF6EF01B
:10DCE20069EF6EF004500224036E03286BEC6AF0B5
:10DCF20012002868276AB2EF6EF0BDEC6EF0286E53
:10DD02000D0E2818D8A488EF6EF08AEF6EF08CEF13
:10DD12006EF0B2EF6EF02F0E286492EF6EF094EF79
:10DD22006EF09CEF6EF0390E28649AEF6EF09CEF65
:10DD32006EF0ACEF6EF0C60E206EFC0E216E85EC1E
:10DD42006AF0B90E206EFB0E216E85EC6AF0276A2E
:10DD52002868B2EF6EF027500A0DF3502824D00F36
:10DD6200276E0D0E2818D8A4B9EF6EF0BBEF6EF037
:10DD72007EEF6EF0275012000268E6EF6EF060EC64
:10DD82006AF00009D8B4C8EF6EF0CAEF6EF0E6EFA1
:10DD92006EF04CEC6FF0026EE3EC6AF00009D8B45E
:10DDA200D5EF6EF0D7EF6EF0E6EF6EF0025078EC42
:10DDB2006AF00D0E0218D8A4E1EF6EF0E3EF6EF0F8
:10DDC200E6EF6EF00A0E78EC6AF02F0E0264ECEFCA
:10DDD2006EF0EEEF6EF0F6EF6EF07A0E0264F4EF94
:10DDE2006EF0F6EF6EF0FFEF6EF00D0E0218D8A493
:10DDF200FDEF6EF0FFEF6EF0C0EF6EF0025012001A
:10DE02003901A3A707EF6FF009EF6FF001EF6FF091
:10DE12005B6A3D01F9A710EF6FF012EF6FF01FEF91
:10DE22006FF05B8202D81FEF6FF00500FA6E5E5052
:10DE3200FD6E5F50FE6EFF6AFA5012003D01F9A3BB
:10DE420025EF6FF027EF6FF034EF6FF05B8402D8AD
:10DE520034EF6FF00500FA6E5C50FD6E5D50FE6EA1
:10DE6200FF6AFA5012005B50D8B43AEF6FF03CEF01
:10DE72006FF049EF6FF002D849EF6FF00500FA6ECC
:10DE82000001ED51FD6EEE51FE6EFF6AFA50120076
:10DE92003D01E85112003901A6A552EF6FF054EF8F
:10DEA2006FF04CEF6FF05A6A3D01E1A75BEF6FF044
:10DEB2005DEF6FF06BEF6FF05A8202D86BEF6FF08D
:10DEC2000500FA6E0001EB51FD6EEC51FE6EFF6A29
:10DED200FA5012003D01E1A371EF6FF073EF6FF0A2
:10DEE20081EF6FF05A8402D881EF6FF00500FA6E6D
:10DEF2000001E951FD6EEA51FE6EFF6AFA5012000E
:10DF02005A50D8B487EF6FF089EF6FF096EF6FF049
:10DF120002D896EF6FF00500FA6E0001E751FD6E30
:10DF2200E851FE6EFF6AFA5012003D01D051120014
:10DF3200076ACEEC6AF00009D8B4A2EF6FF0A4EF42
:10DF42006FF09AEF6FF0B80E6BEC6AF0CEEC6AF0FD
:10DF52000009D8B4AFEF6FF0B1EF6FF0A7EF6FF039
:10DF620004506BEC6AF0DEEF6FF0CEEC6AF0000961
:10DF7200D8B4BEEF6FF0C0EF6FF0DEEF6FF0075076
:10DF82000224056E000E0320066E600017F0F6FFF5
:10DF920060001BF0F7FF000EF86E0F0EF76403D05F
:10DFA2000800F55007D06F00DBFFE9FF6F00DFFFCD
:10DFB200EAFFEF506BEC6AF0072A0450075CD8A026
:10DFC200E5EF6FF0E7EF6FF0B6EF6FF01200CEEC17
:10DFD2006AF00009D8B4F0EF6FF0F2EF6FF0E8EFFB
:10DFE2006FF0BB0E6BEC6AF0CEEC6AF00009D8B4AD
:10DFF200FDEF6FF0FFEF6FF0F5EF6FF0140E6BECCB
:10E002006AF0CEEC6AF00009D8B40AEF70F00CEFB7
:10E0120070F002EF70F0010E6BEC6AF0CEEC6AF079
:10E022000009D8B417EF70F019EF70F00FEF70F02D
:10E03200140E6BEC6AF0CEEC6AF00009D8B424EF4F
:10E0420070F026EF70F01CEF70F0030E6BEC6AF0CC
:10E05200CEEC6AF00009D8B431EF70F033EF70F013
:10E0620029EF70F0020E6BEC6AF01200BE6ABD6A14
:10E07200BA6ABB6ABC6A070EC66EC268BF0EC36EBE
:10E08200840EC46EC5683A01706B606B2F0E506FC0
:10E09200070E806FEF0E406F716B816B516B416B9E
:10E0A200616B5A6B5B6B6A6B6B6B7A6B7B6B826BB4
:10E0B200426B526B180E626F726B436953696369EC
:10E0C2007369070E836F44695469646974690F0E3A
:10E0D200846F0F0EE86F250E106F160E0E6F210E55
:10E0E200136F0F0E116F220E146F170EE56F040ED1
:10E0F200C36F130EE16F0C0EDD6F140EE26F120E82
:10E10200CA6F0D0E156F130E166F12000550D8B49C
:10E112008DEF70F08FEF70F097EF70F00550D8A48C
:10E1220095EF70F097EF70F09CEF70F0035007ECF2
:10E132006AF0DCEF70F00550D96EDA6A090ED92662
:10E14200DE50DE10D8B4A8EF70F0AAEF70F0C3EF83
:10E1520070F00550D96EDA6A090ED9260550E16EC3
:10E16200E26A020EE126DE50E65CE650800A0A6EA2
:10E17200DE50800A0A58D8B0C1EF70F0C3EF70F0D9
:10E18200DCEF70F00550D96EDA6A020ED926DF5044
:10E19200066E0550D96EDA6ADF500624D96EDA6A45
:10E1A20060000FF0DFFF0550D96EDA6A020ED92641
:10E1B200DE2A000EDD221200066A02BEE5EF70F0D2
:10E1C200E3EF70F0EBEF70F0016C021ED8B0022AA0
:10E1D200010E066E04BEF2EF70F0F0EF70F0F6EF93
:10E1E20070F0036C041ED8B0042A03500410D8B493
:10E1F200FDEF70F0FFEF70F023EF71F0010E056E8E
:10E2020007EF71F0D89003360436052A04AE0CEFFE
:10E2120071F00EEF71F003EF71F00350015C0450E6
:10E222000258D8A017EF71F019EF71F01DEF71F0DD
:10E232000350015E0450025AD89004320332052E74
:10E242000EEF71F00650D8B429EF71F02BEF71F098
:10E252002FEF71F0016C021ED8B0022A01C001F04A
:10E2620002C002F01200CEEC6AF00009D8B43CEF12
:10E2720071F03EEF71F034EF71F0B40E6BEC6AF0B6
:10E28200126A4AEC6AF00009D8B44AEF71F04CEF16
:10E2920071F042EF71F01250080FD96EDA6A01EC98
:10E2A2006FF0DF6E4AEC6AF00009D8B45BEF71F0F0
:10E2B2005DEF71F053EF71F012500D0FD96EDA6A03
:10E2C20001EC6FF0DF6E12500D0FD96EDA6ADF507B
:10E2D200046E0450066E056A1250080FD96EDA6A8F
:10E2E200DF50076E07500526000E06221250020D5F
:10E2F200F350A70FD96EDA6A600017F0DEFF6000F4
:10E302001BF0DDFF122A040E12648AEF71F08CEF0B
:10E3120071F042EF71F0A70E1200066A04BE96EF8A
:10E3220071F094EF71F09CEF71F0036C041ED8B0A1
:10E33200042A010E066E02BEA3EF71F0A1EF71F086
:10E34200A9EF71F0016C021ED8B0022A010E061A62
:10E35200086A000E076E03500410D8B4B3EF71F0D0
:10E36200B5EF71F0DDEF71F0010E056EBDEF71F0EA
:10E37200D89003360436052A04AEC2EF71F0C4EF1A
:10E3820071F0B9EF71F0D890073608360350015C8E
:10E3920004500258D8A0D0EF71F0D2EF71F0D7EF4D
:10E3A20071F00350015E0450025A0780D890043283
:10E3B2000332052EC4EF71F00650D8B4E3EF71F0CA
:10E3C200E5EF71F0E9EF71F0076C081ED8B0082A8A
:10E3D20007C001F008C002F012000A6A08BEF6EF98
:10E3E20071F0F4EF71F000EF72F0081E071E061EC6
:10E3F200056C000E062207220822010E0A6E04BED8
:10E4020007EF72F005EF72F011EF72F0041E031EB7
:10E41200021E016C000E022203220422010E0A1ABD
:10E42200000E0B6E000E0C6E000E0D6E000E0E6EC8
:10E432000550061007100810D8B422EF72F024EF2E
:10E4420072F05AEF72F0010E096E2EEF72F0D89050
:10E452000536063607360836092A08AE33EF72F05B
:10E4620035EF72F028EF72F0D8900B360C360D367D
:10E472000E360550015C06500258075003580850EA
:10E482000458D8A047EF72F049EF72F052EF72F0E1
:10E492000550015E0650025A0750035A0850045AAA
:10E4A2000B80D8900832073206320532092E35EF3A
:10E4B20072F00A50D8B460EF72F062EF72F06AEF55
:10E4C20072F00E1E0D1E0C1E0B6C000E0C220D2285
:10E4D2000E220BC001F00CC002F00DC003F00EC002
:10E4E20004F01200E50E206EFB0E216E85EC6AF040
:10E4F200BB0E206EFD0E216E85EC6AF0550E206E6D
:10E50200FD0E216E85EC6AF0990E206EFD0E216ED5
:10E5120085EC6AF0770E206EFD0E216E85EC6AF0B6
:10E52200550E206EFD0E216E85EC6AF0BB0E206E3C
:10E53200FD0E216E85EC6AF0C60E206EFC0E216E79
:10E5420085EC6AF0370E206EFE0E216E85EC6AF0C5
:10E55200DD0E206EFD0E216E85EC6AF0C90E206E76
:10E56200FC0E216E85EC6AF0100E206EFD0E216EFF
:10E5720085EC6AF0E50E206EFB0E216E85EC6AF0EA
:10E58200820E206EFB0E216E85EC6AF0E50E206E87
:10E59200FB0E216E85EC6AF0330E206EFD0E216EAD
:10E5A20085EC6AF0ED0E206EFC0E216E85EC6AF0B1
:10E5B200E80E206EFE0E216E85EC6AF0BA0E206E19
:10E5C200FE0E216E85EC6AF0D10E206EFE0E216EDB
:10E5D20085EC6AF0E50E206EFB0E216E85EC6AF08A
:10E5E200710E206EFE0E216E85EC6AF0C60E206E54
:10E5F200FC0E216E85EC6AF01200406E40C042F0C3
:10E6020092EC6AF0C80E026EFF0E036E080E046EE4
:10E6120099EC6FF0480E016E900E55EC6AF0FFEC2B
:10E6220069F0010E026E000E80EC6BF0350E206E6A
:10E63200770E216EFF0E226E42C023F0246A12EC86
:10E642006BF02050416E350E026E036A41C004F039
:10E6520099EC6FF098EF73F0BDEC6AF001C03EF0F8
:10E6620002C03FF01B0E3E5CB70E3F58D8A03CEFF5
:10E6720073F03EEF73F098EF73F04206106A000EEB
:10E682000F6E2AEC6AF089EF73F092EC6AF0010ED9
:10E69200026E000E80EC6BF0380E026EFF0E036EFF
:10E6A200080E046E99EC6FF098EF73F0010E026E93
:10E6B200000E80EC6BF0410E026EFF0E036E080E30
:10E6C200046E99EC6FF098EF73F0010E026E000E7B
:10E6D20080EC6BF0530E026EFF0E036E080E046E9A
:10E6E20099EC6FF098EF73F0010E026E000E80EC61
:10E6F2006BF0350E206E770E216EFF0E226E42C039
:10E7020023F0246A12EC6BF02050416E24EF73F078
:10E712004250000AD8B446EF73F0010AD8B457EF5A
:10E7220073F0030AD8B466EF73F075EF73F04250DA
:10E73200D8A49EEF73F0A0EF73F02DEF73F001EC0D
:10E742006AF01200CEEC6AF00009D8B4ABEF73F0B5
:10E75200ADEF73F0A3EF73F0870E6BEC6AF0146AFF
:10E76200000E136E4AEC6AF00009D8B4BBEF73F0E6
:10E77200BDEF73F0B3EF73F01350060FD96EDA6A80
:10E7820001EC6FF0DF6E4AEC6AF00009D8B4CCEF0E
:10E7920073F0CEEF73F0C4EF73F013500B0FD96E1A
:10E7A200DA6A01EC6FF0DF6E13500B0FD96EDA6A82
:10E7B200DF50026E0250046E036A1350060FD96EC8
:10E7C200DA6ADF50056E05500326000E042213504C
:10E7D200020DF3509D0FD96EDA6A60000FF0DEFF72
:10E7E200600013F0DDFF134A142A14BE02EF74F026
:10E7F200145009E1050E135CD8A002EF74F004EF87
:10E8020074F0B3EF73F0126A000E116E1150020D24
:10E81200F3509D0FD96EDA6AF40EDE5C010EDE58FB
:10E82200D8A016EF74F018EF74F024EF74F01150C2
:10E83200020DF350470FD96EDA6A010EDE6E000E3A
:10E84200DD6E2CEF74F01150020DF350470FD96EAC
:10E85200DA6ADE6ADD6A114A122A12BE3AEF74F0EF
:10E86200125009E1050E115CD8A03AEF74F03CEFAA
:10E8720074F007EF74F0D8904D34026E4BC003F081
:10E88200D8900336D890033649C004F0D8900436A5
:10E89200D8900436D89004364738F00B0410031091
:10E8A20002104F10106E10501200126A000E116EFC
:10E8B2000C50D96EDA6A6F007BFFF6FF6F0077FFAC
:10E8C200F7FFF86A0800F550250AD8A46BEF74F038
:10E8D2006DEF74F0D5EF75F00C50D96EDA6ADE2A5E
:10E8E200000EDD22546A000E536E53C059F0556873
:10E8F20056680C50D96EDA6A6F0078FF13F06F0019
:10E9020074FF14F060004FF0F6FF600053F0F7FF61
:10E91200F86A0800F550640AD8B492EF74F094EFE4
:10E9220074F0A5EF74F060004FF0F6FF600053F052
:10E93200F7FFF86A0800F550690AD8A4A3EF74F04B
:10E94200A5EF74F03DEF75F00D50D96EDA6A020E44
:10E95200DF26DF5CD96EDA6A6F0078FF15F06F0090
:10E9620078FF16F0010E13240E6E000E14200F6EA7
:10E972000C50D96EDA6A60003BF0DEFF60003FF0B7
:10E98200DDFF200E196E16BEC9EF74F0CCEF74F0E5
:10E99200010ECDEF74F0000E106E19061950600FC3
:10E9A200D96EDA6A15C001F016C002F0046A0A0EC6
:10E9B200036EDDEC70F001C007F002C008F0F8EC65
:10E9C2006AF00750300FDF6E15C001F016C002F07A
:10E9D200046A0A0E036E8EEC71F001C015F002C0DB
:10E9E20016F0114A122A15501610D8B4FBEF74F023
:10E9F200FDEF74F005EF75F01950D8A403EF75F030
:10EA020005EF75F0CEEF74F01950D8B40BEF75F036
:10EA12000DEF75F02EEF75F01050D8B413EF75F0BE
:10EA220015EF75F02EEF75F019061950600FD96EBB
:10EA3200DA6A2D0EDF6E114A122A2EEF75F0195086
:10EA4200600FD96EDA6ADF500E6E0E50036E046AE2
:10EA52000BC005F087EC70F0192A200E1918D8A403
:10EA620035EF75F037EF75F020EF75F011C00BF050
:10EA720012C00CF0F0EF75F060004FF0F6FF60008E
:10EA820053F0F7FFF86A0800F550750AD8A44CEF66
:10EA920075F04EEF75F0CAEF75F00D50D96EDA6A67
:10EAA200020EDF26DF5CD96EDA6A6F0078FF15F09E
:10EAB2006F0078FF16F0010E13240E6E000E142064
:10EAC2000F6E0C50D96EDA6A60003BF0DEFF600018
:10EAD2003FF0DDFFBBEF75F0200E196E19061950DD
:10EAE200600FD96EDA6A15C001F016C002F0046A2E
:10EAF2000A0E036E5CEC6CF00150300FDF6E15C035
:10EB020001F016C002F0046A0A0E036E08EC6EF001
:10EB120001C015F002C016F0114A122A1550161043
:10EB2200D8B496EF75F098EF75F0B0EF75F0195014
:10EB3200D8A49EEF75F0A0EF75F06FEF75F0B0EF0F
:10EB420075F01950600FD96EDA6ADF500E6E0E50F2
:10EB5200036E046A0BC005F087EC70F0192A200ED0
:10EB62001918D8A4B7EF75F0B9EF75F0A2EF75F0E8
:10EB720037EF75F060004FF0F6FF600053F0F7FFDB
:10EB8200F86A0800F550750AD8B46DEF75F0CAEF4F
:10EB920075F00C50D96EDA6ADE2A000EDD220C6A9C
:10EBA200000E0B6EF0EF75F00C50D96EDA6A6F0042
:10EBB2007BFFF6FF6F0077FFF7FFF86A0800F5505A
:10EBC200036E046A0BC005F087EC70F00C50D96E2E
:10EBD200DA6ADE2A000EDD220C6A010E0B6E1200CA
:10EBE20030EC6AF037EC70F059EC6BF034EC6BF00F
:10EBF200C38A3A01509BCBBA01EF76F003EF76F06D
:10EC0200B4EF7BF073EC72F092EC6AF0000E026EDD
:10EC1200000E80EC6BF0B60E026EFF0E036E080E55
:10EC2200046E99EC6FF02BEC6CF002C0DCF003C0C8
:10EC3200DDF0C60E206EEA0E216EFF0E226EDCC0E3
:10EC420023F0DDC024F012EC6BF020500001E46FE1
:10EC5200010E026E000E80EC6BF0C60E026E036AAD
:10EC6200E4C004F099EC6FF0BDEC6EF00001D56FDA
:10EC720089EF7BF092EC6AF0000E026E000E80ECDF
:10EC82006BF02E0E026EFF0E036E080E046E99ECF0
:10EC92006FF0010E026E000E80EC6BF09B0E026EA6
:10ECA200FF0E036E080E046E99EC6FF0C60E206E16
:10ECB200FC0E216E85EC6AF00001CF6BBFEF76F09F
:10ECC200430E206EFC0E216E85EC6AF0540E206E0F
:10ECD200FE0E216E85EC6AF0BDEC6EF00001B16FA4
:10ECE20034EC71F00001D96FDB6B000EDA6FE56B6B
:10ECF200040EE5657FEF76F081EF76F083EF76F034
:10ED0200AEEF76F0E551020DD951F324D96EDA6AED
:10ED12006F0078FF43F06F0074FF44F0DA51432430
:10ED2200DA6FDB514420DB6FFE0E206EFE0E216E89
:10ED3200E5C022F0236AE551020DD951F324D96EC0
:10ED4200DA6A6F0078FF24F06F0074FF25F085EC1B
:10ED52006AF00001E52B79EF76F0DA51DB11D8A4E5
:10ED6200B5EF76F0B7EF76F0BFEF76F0010ECF6F2A
:10ED7200FB0E206EFD0E216E85EC6AF00001CF5174
:10ED8200D8B4C6EF76F0C8EF76F061EF76F0D06BCC
:10ED92003FEF77F0700E206EFC0E216E85EC6AF06C
:10EDA200540E206EFE0E216E85EC6AF0BDEC6EF004
:10EDB2000001B16F34EC71F00001D96FDB6B000E12
:10EDC200DA6FE56B040EE565E9EF76F0EBEF76F0CE
:10EDD200EDEF76F018EF77F0E551020DD951F324FB
:10EDE200D96EDA6A6F0078FF43F06F0074FF44F067
:10EDF200DA514324DA6FDB514420DB6FFE0E206EC2
:10EE0200FE0E216EE5C022F0236AE551020DD951B2
:10EE1200F324D96EDA6A6F0078FF24F06F0074FF72
:10EE220025F085EC6AF00001E52BE3EF76F0880E21
:10EE3200DA1907E1130EDB19D8A422EF77F024EFD9
:10EE420077F03FEF77F0010ED06F190E206EFE0EB5
:10EE5200216E85EC6AF08A0E206EFE0E216E85EC24
:10EE62006AF0010E026E000E80EC6BF0BF0E026EB5
:10EE7200FF0E036E080E046E99EC6FF00001D05184
:10EE8200D8B446EF77F048EF77F0CBEF76F035EF76
:10EE920076F092EC6AF0000E026E000E80EC6BF0DF
:10EEA2005C0E026EFF0E036E080E046E99EC6FF09C
:10EEB200010E026E000E80EC6BF0E20E026EFF0E8F
:10EEC200036E080E046E99EC6FF0C60E206EFC0EF7
:10EED200216E85EC6AF0CEEC6AF00009D8B474EFCA
:10EEE20077F076EF77F06CEF77F0870E6BEC6AF0E5
:10EEF2000001E16B000EE06FE1BF89EF77F0E151B5
:10EF020009E1050EE05DD8A089EF77F08BEF77F08D
:10EF12008DEF77F0D5EF77F04AEC6AF00009D8B4BC
:10EF220095EF77F097EF77F08DEF77F00001E051F2
:10EF3200BC0FD96EDA6A01EC6FF0DF6E4AEC6AF050
:10EF42000009D8B4A7EF77F0A9EF77F09FEF77F039
:10EF52000001E051C10FD96EDA6A01EC6FF0DF6E89
:10EF62000001E051C10FD96EDA6ADF50436E43509F
:10EF7200456E446AE051BC0FD96EDA6ADF50466EC4
:10EF820046504426000E4522E051020DF350B20FC6
:10EF9200D96EDA6A600013F1DEFF600017F1DDFF5F
:10EFA200E04BE12B7DEF77F0D76B000ED66FD7BF2A
:10EFB200E4EF77F0D75109E1050ED65DD8A0E4EF72
:10EFC20077F0E6EF77F0E8EF77F035EF76F01F0EA7
:10EFD200206EFF0E216ED6C022F0D7C023F0D6518C
:10EFE200020DF350B20FD96EDA6A6F0078FF24F087
:10EFF2006F0074FF25F085EC6AF00001D64BD72B29
:10F00200D8EF77F092EC6AF0000E026E000E80EC00
:10F012006BF0DA0E026EFF0E036E070E046E99ECB1
:10F022006FF0C60E206EFC0E216E85EC6AF0AD0EFE
:10F03200206EFC0E216E85EC6AF0BDEC6EF00001D4
:10F04200D86F32EF78F0C60E206EFC0E216E85EC82
:10F052006AF09D0E206EFC0E216E85EC6AF01EEFAA
:10F0620078F02F0ED86538EF78F03AEF78F024EF89
:10F0720078F0350ED86140EF78F042EF78F024EF67
:10F0820078F0000E026E070E80EC6BF00001D85192
:10F09200A9EC6BF0CEEC6AF00009D8B453EF78F02B
:10F0A20055EF78F04BEF78F0870E6BEC6AF00001C9
:10F0B200E36B000EE26FE3BF68EF78F0E35109E122
:10F0C200050EE25DD8A068EF78F06AEF78F06CEF99
:10F0D20078F0B4EF78F04AEC6AF00009D8B474EF33
:10F0E20078F076EF78F06CEF78F00001E251BC0F27
:10F0F200D96EDA6A01EC6FF0DF6E4AEC6AF0000951
:10F10200D8B486EF78F088EF78F07EEF78F00001DF
:10F11200E251C10FD96EDA6A01EC6FF0DF6E0001C5
:10F12200E251C10FD96EDA6ADF50436E4350456E29
:10F13200446AE251BC0FD96EDA6ADF50466E46501D
:10F142004426000E4522E251020DF350B20FD96E51
:10F15200DA6A600013F1DEFF600017F1DDFFE24BB7
:10F16200E32B5CEF78F0D851D00FD56F100E206EE4
:10F17200FF0E216ED5C022F0236AD551020DF35045
:10F18200B20FD96EDA6A6F0078FF24F06F0074FF55
:10F1920025F085EC6AF035EF76F092EC6AF0000E1D
:10F1A200026E000E80EC6BF0A40E026EFF0E036E78
:10F1B200080E046E99EC6FF0C60E206EFC0E216EE6
:10F1C20085EC6AF02BEC6CF002C0DCF003C0DDF0E1
:10F1D200C60E206EEA0E216EFF0E226EDCC023F0F8
:10F1E200DDC024F012EC6BF020500001E46F010E40
:10F1F200026E000E80EC6BF0C60E026E036AE4C073
:10F2020004F099EC6FF0A20E206EFE0E216EDCC0AF
:10F2120022F0DDC023F085EC6AF035EF76F092EC57
:10F222006AF0000E026E000E80EC6BF0920E026E1F
:10F23200FF0E036E080E046E99EC6FF0C60E206E80
:10F24200FC0E216E85EC6AF0160E206EFC0E216E0D
:10F2520085EC6AF07AEC6EF00001E66FE6519BEC09
:10F262006DF0C60E206EF60E216EFF0E226EE6C007
:10F2720023F0246A12EC6BF020500001E46F010EBF
:10F28200026E000E80EC6BF0C60E026E036AE4C0E2
:10F2920004F099EC6FF0CEEC6AF00009D8B454EFA8
:10F2A20079F056EF79F04CEF79F0C10E6BEC6AF021
:10F2B200CEEC6AF00009D8B461EF79F063EF79F02F
:10F2C20059EF79F00001E6516BEC6AF0CEEC6AF08E
:10F2D2000009D8B46FEF79F071EF79F067EF79F048
:10F2E200C50E6BEC6AF0CEEC6AF00009D8B47CEF84
:10F2F20079F07EEF79F074EF79F00001E6516BEC72
:10F302006AF035EF76F092EC6AF0000E026E000EB3
:10F3120080EC6BF0AD0E026EFF0E036E080E046EF3
:10F3220099EC6FF0C60E206EFC0E216E85EC6AF031
:10F33200E80E206EFB0E216E85EC6AF07AEC6EF020
:10F342000001E66FE651C3EC6CF0C60E206EF60EBD
:10F35200216EFF0E226EE6C023F0246A12EC6BF0DF
:10F3620020500001E46F010E026E000E80EC6BF083
:10F37200C60E026E036AE4C004F099EC6FF0CEECA4
:10F382006AF00009D8B4C8EF79F0CAEF79F0C0EF9B
:10F3920079F0C20E6BEC6AF0CEEC6AF00009D8B4D8
:10F3A200D5EF79F0D7EF79F0CDEF79F00001E651A2
:10F3B2006BEC6AF0CEEC6AF00009D8B4E3EF79F0B6
:10F3C200E5EF79F0DBEF79F0C60E6BEC6AF0CEEC8C
:10F3D2006AF00009D8B4F0EF79F0F2EF79F0E8EFD3
:10F3E20079F00001E6516BEC6AF035EF76F092ECC1
:10F3F2006AF0000E026E000E80EC6BF0800E026E60
:10F40200FF0E036E080E046E99EC6FF0C60E206EAE
:10F41200FC0E216E85EC6AF0160E206EFC0E216E3B
:10F4220085EC6AF07AEC6EF00001E66F3B0E206E1E
:10F43200FB0E216E85EC6AF07AEC6EF00001DF6F54
:10F44200E651DF25D36FD46BD437DFC002F0E6512B
:10F4520041EC6EF0C60E206EF00E216EFF0E226E93
:10F46200E6C023F0246ADFC025F0266A12EC6BF0B6
:10F4720020500001E46F010E026E000E80EC6BF072
:10F48200C60E026E036AE4C004F099EC6FF0CEEC93
:10F492006AF00009D8B450EF7AF052EF7AF048EFF0
:10F4A2007AF0C10E6BEC6AF0CEEC6AF00009D8B4C7
:10F4B2005DEF7AF05FEF7AF055EF7AF00001D35109
:10F4C2006BEC6AF0CEEC6AF00009D8B46BEF7AF01C
:10F4D2006DEF7AF063EF7AF0C50E6BEC6AF0CEEC6A
:10F4E2006AF00009D8B478EF7AF07AEF7AF070EF28
:10F4F2007AF00001E6516BEC6AF035EF76F092ECAF
:10F502006AF0000E026E000E80EC6BF0890E026E45
:10F51200FF0E036E080E046E99EC6FF0C60E206E9D
:10F52200FC0E216E85EC6AF0160E206EFC0E216E2A
:10F5320085EC6AF07AEC6EF00001E66F3B0E206E0D
:10F54200FB0E216E85EC6AF07AEC6EF00001DF6F43
:10F55200E651DF25D36FD46BD437DFC002F0E6511A
:10F56200D1EC6DF0C60E206EF00E216EFF0E226EF3
:10F57200E6C023F0246ADFC025F0266A12EC6BF0A5
:10F5820020500001E46F010E026E000E80EC6BF061
:10F59200C60E026E036AE4C004F099EC6FF0CEEC82
:10F5A2006AF00009D8B4D8EF7AF0DAEF7AF0D0EF47
:10F5B2007AF0C10E6BEC6AF0CEEC6AF00009D8B4B6
:10F5C200E5EF7AF0E7EF7AF0DDEF7AF00001E6514D
:10F5D2006BEC6AF0CEEC6AF00009D8B4F3EF7AF083
:10F5E200F5EF7AF0EBEF7AF0C50E6BEC6AF0CEEC49
:10F5F2006AF00009D8B400EF7BF002EF7BF0F8EF7D
:10F602007AF00001D3516BEC6AF035EF76F092ECB0
:10F612006AF0000E026E000E80EC6BF06E0E026E4F
:10F62200FF0E036E080E046E99EC6FF0C60E206E8C
:10F63200FC0E216E85EC6AF003EC6AF0CEEC6AF007
:10F642000009D8B427EF7BF029EF7BF01FEF7BF0A6
:10F65200C10E6BEC6AF0CEEC6AF00009D8B434EF5C
:10F662007BF036EF7BF02CEF7BF0000E6BEC6AF058
:10F67200CEEC6AF00009D8B441EF7BF043EF7BF0A7
:10F6820039EF7BF0C50E6BEC6AF0CEEC6AF0000944
:10F69200D8B44EEF7BF050EF7BF046EF7BF0000EDC
:10F6A2006BEC6AF035EF76F092EC6AF0000E026EC7
:10F6B200000E80EC6BF0B60E026EFF0E036E080EAB
:10F6C200046E99EC6FF02BEC6CF002C0DCF003C01E
:10F6D200DDF0C60E206EEA0E216EFF0E226EDCC039
:10F6E20023F0DDC024F012EC6BF020500001E46F37
:10F6F200010E026E000E80EC6BF0C60E026E036A03
:10F70200E4C004F099EC6FF073EC72F035EF76F030
:10F71200D551420AD8B484EF79F0040AD8B410EF74
:10F7220079F00A0AD8B4F8EF79F01E0AD8B480EF5B
:10F732007AF0010AD8B408EF7BF0300AD8B43BEF74
:10F7420076F0070AD8B403EF78F0090AD8B455EF77
:10F752007BF01F0AD8B44AEF77F0040AD8B4CEEF90
:10F7620078F035EF76F0CBAAB9EF7BF0BBEF7BF008
:10F7720088EF7DF073EC72F092EC6AF0000E026E8C
:10F78200000E80EC6BF04A0E026EFF0E036E080E46
:10F79200046E99EC6FF02BEC6CF002C0DCF003C04D
:10F7A200DDF0C60E206EEA0E216EFF0E226EDCC068
:10F7B20023F0DDC024F012EC6BF020500001E46F66
:10F7C200010E026E000E80EC6BF0C60E026E036A32
:10F7D200E4C004F099EC6FF03D0E446EE10E436E0E
:10F7E200400EE82EFED7432EFCD7442EFAD7000E49
:10F7F200026E000E80EC6BF0D10E026EFF0E036EF5
:10F80200080E046E99EC6FF0FDEC6BF0010E026EC7
:10F81200000E80EC6BF0650E026EFF0E036E080E9A
:10F82200046E99EC6FF0060EFEEC72F0100E436E51
:10F83200940EE82EFED7432EFCD700D0400E016E68
:10F84200900E55EC6AF0E8EC6FF0A3EC73F0000157
:10F85200DE6F55EF7DF0A0EC6AF00001D16BD26B48
:10F8620026EF7CF0CEEC6AF00009D8B43BEF7CF0D6
:10F872003DEF7CF033EF7CF0010E0001D16FBC0E46
:10F882006BEC6AF04EEF7CF01E0E026E000E41EC45
:10F892006EF0A3EC73F00001DE6F040E0001DE19BE
:10F8A200D8A456EF7CF058EF7CF045EF7CF026EFC1
:10F8B2007CF0CEEC6AF00009D8B462EF7CF064EF21
:10F8C2007CF05AEF7CF0BC0E6BEC6AF0010E00018A
:10F8D200D26F75EF7CF01E0E026E000ED1EC6DF051
:10F8E200A3EC73F00001DE6F040EDE19D8A47CEFE6
:10F8F2007CF07EEF7CF06CEF7CF026EF7CF0CEECBF
:10F902006AF00009D8B488EF7CF08AEF7CF080EFCF
:10F912007CF0010E0001D16FBC0E6BEC6AF00A0E96
:10F92200026E0A0EF9EC6CF07A0E446EC10E436E52
:10F93200820EE82EFED7432EFCD7442EFAD7ABEF29
:10F942007CF00A0E026E0A0EF9EC6CF0A3EC73F076
:10F952000001DE6F040E0001DE19D8A4B3EF7CF0C3
:10F96200B5EF7CF0A2EF7CF026EF7CF0CEEC6AF0F3
:10F972000009D8B4BFEF7CF0C1EF7CF0B7EF7CF0A8
:10F98200BC0E6BEC6AF0010E0001D26F0A0E026E21
:10F992000A0E2FEC6DF07A0E446EC10E436E820E8B
:10F9A200E82EFED7432EFCD7442EFAD7E2EF7CF0A6
:10F9B2000A0E026E0A0E2FEC6DF0A3EC73F000013A
:10F9C200DE6F040E0001DE19D8A4EAEF7CF0ECEF42
:10F9D2007CF0D9EF7CF026EF7CF0D105D8A4F4EFCF
:10F9E2007CF0F6EF7CF015EF7DF0CEEC6AF00009CA
:10F9F200D8B4FEEF7CF000EF7DF0F6EF7CF0BC0EA9
:10FA02006BEC6AF01E0E026E000E41EC6EF00D0EF3
:10FA1200446E2D0E436ED80EE82EFED7432EFCD731
:10FA2200442EFAD731EF7DF0D205D8A41BEF7DF03A
:10FA32001DEF7DF031EF7DF0CEEC6AF00009D8B415
:10FA420025EF7DF027EF7DF01DEF7DF0BC0E6BEC16
:10FA52006AF01E0E026E000ED1EC6DF008EF7DF022
:10FA62000A0E446E220E436EA10EE82EFED7432EDE
:10FA7200FCD7442EFAD70000CEEC6AF00009D8B4C5
:10FA820045EF7DF047EF7DF03DEF7DF0BC0E6BEC76
:10FA92006AF0140E8EEC6CF0140E65EC6DF0140E20
:10FAA2008EEC6CF026EF7CF0DE51000AD8B4EEEF5B
:10FAB2007CF0010AD8B4B7EF7CF0030AD8B45AEF4D
:10FAC2007CF0060AD8B42CEF7CF0010AD8B4B7EF68
:10FAD2007CF0020AD8B4B7EF7CF00F0AD8B433EF47
:10FAE2007CF0070AD8B4B7EF7CF01F0AD8B480EFD5
:10FAF2007CF0040AD8B480EF7CF0080AD8B480EF16
:10FB02007CF0020AD8B480EF7CF026EF7CF0FEEFA6
:10FB12007FF0000000000000000000000000000074
:10FB220000000000000000000000000000000000D3
:10FB32000000000000000000000920506C656173A5
:10FB42006520656E74657220746865207475726EC6
:10FB5200696E6720646966666572656E7469616C58
:10FB62003A207370656564202B206469666665724D
:10FB7200656E7469616C203C20313237200D0A00B9
:10FB8200202076200909202876296F6C7461676528
:10FB9200202D205265616420616E64206469737057
:10FBA2006C6179206261747465727920766F6C740D
:10FBB200616765200D0A00496E76616C696420698F
:10FBC2006E7075742E20506C656173652072656469
:10FBD2006F206E756D65726963616C20696E7075F8
:10FBE200742E200D0A000920506C65617365206532
:10FBF2006E74657220746865206261636B776172EE
:10FC0200642073706565642C2030202D20313237DA
:10FC1200200D0A000920506C6561736520656E74C1
:10FC220065722074686520666F72776172642073F2
:10FC3200706565642C2030202D20313237200D0A6A
:10FC420000506C61636520616C6C2066697665208A
:10FC520073656E736F7273206F6E206120776869AF
:10FC620074652073757266616365200A0D00506CBD
:10FC720061636520616C6C20666976652073656ED0
:10FC8200736F7273206F6E206120626C61636B20F0
:10FC920073757266616365200A0D00496E76616C48
:10FCA200696420656E7472792E2020456E746572C7
:10FCB2002073656E736F72206E756D6265722C2093
:10FCC200302D34200A0D00202072200909202872CC
:10FCD200296561642063616C696272617465642084
:10FCE20073656E736F7273200D0A00202042200923
:10FCF2000920576865656C7320726F7461746520A2
:10FD020028422961636B77617264200D0A0020200A
:10FD120064200909202864296973706C6179207351
:10FD2200656E736F7220782076616C7565200D0A9E
:10FD32000020204620090920576865656C732072EF
:10FD42006F74617465202846296F7277617264202E
:10FD52000D0A00092A2020202020202020202020F7
:10FD62002020202020202020202020202020202091
:10FD7200202A0D0A00092A2020202020204469611F
:10FD8200676E6F73746963204D656E752020202045
:10FD92002020202A0D0A00092A2020204150534306
:10FDA2002031323939202D20506F6C6F6C75203321
:10FDB20070692020202A0D0A00092A2A2A2A2A2AC2
:10FDC2002A2A2A2A2A2A2A2A2A2A2A2A2A2A2A2A91
:10FDD2002A2A2A2A2A2A2A2A0D0A002020632009EE
:10FDE2000920286329616C696272617465207365F8
:10FDF2006E736F7273200D0A005768697465206311
:10FE0200616C6962726174696F6E20636F6D706C90
:10FE1200657465200A0D00426C61636B2063616C3E
:10FE22006962726174696F6E20636F6D706C657464
:10FE320065200A0D00436F6D6D616E64204B65791C
:10FE42002009204465736372697074696F6E200DB6
:10FE52000A00507265737320616E79206B65792098
:10FE6200746F20636F6E74696E7565200A0D0020D1
:10FE7200206D200909205265667265736820286D1D
:10FE820029656E75200D0A0043616C6962726174A6
:10FE9200696F6E20636F6D706C657465200A0D006A
:10FEA2004261747465727920766F6C746167652043
:10FEB2003D202575200A0D00202052200909202806
:10FEC200522969676874207475726E200D0A0020C9
:10FED200205320090920285329746F70206D6F74F4
:10FEE2006F72200D0A0020204C20090920284C297D
:10FEF200656674207475726E200D0A0053656E7308
:10FF02006F72202575203D202575200A0D0053654E
:10FF12006E736F722025643A2025750A0053656E50
:10FF2200736F722E2025642025750A0043616C6967
:10FF3200627261746500202020474F20202000203B
:10FF42002053455420202000202052756E2020206E
:10FF5200002052454144592020002020526561640E
:10FF62002020002020646F6E652020002020537422
:10FF72006F70202000202025752073202000202073
:10FF82004C65667420200020526967687420200046
:10FF9200466F7277617264200053656E736F72737D
:10FFA20020004261747465727920004261636B774C
:10FFB20061726400446961676E6F736500436F6DBF
:10FFC200706C65746500436F756E74696E6700418D
:10FFD20075746F2043616C0053656E736F722000FD
:10FFE20053656E736F7273002575206D560025750B
:0EFFF20020257500202575200000AEEF6AF076
:020000040030CA
:0A000000ECFEF7FF9FFFFFFFFFFF7C
:00000001FF
