:04000000FEEF7FF0A0
:10D85200120012001200120012001200B88E120002
:10D86200B89E1200000E02EC6FF01200026E02501F
:10D87200ADEC6CF0120001C059F002C05AF0120077
:10D8820001C05DF002C05EF0120001C05BF002C098
:10D892005CF0120001C0E4F002C0E5F0120001C029
:10D8A20057F002C058F0120001C0E6F002C0E7F0E3
:10D8B200120030F818FC0000E803D0070250B76EDF
:10D8C200600007F0B6FF120075EC6CF09CEC71F092
:10D8D2006CEC6CF01200600E3901D96FDB6BDD6B02
:10D8E200070EDF6FDE6B12003901C06BC16BC26BBA
:10D8F200C36BC46BC56BC66BC76B12003901A3B790
:10D9020085EF6CF088EF6CF0010E89EF6CF0000E81
:10D912001200026E60000BF0B8FF600007F0B9FF62
:10D92200B89E3901A39F12003901A6B59BEF6CF096
:10D932009EEF6CF0010E9FEF6CF0000E1200016E74
:10D942003901A3A9A7EF6CF0A9EF6CF0A1EF6CF07D
:10D95200600007F0EAFD1200016E3901A6A7B4EFDC
:10D962006CF0B6EF6CF0AEEF6CF0600007F0D2FD39
:10D972001200220E266E000E1A6E20C01BF021C06D
:10D982001CF0260E1D6E10EC6EF01200E6EC6CF030
:10D992000009D8B4CFEF6CF0D1EF6CF0C7EF6CF0A8
:10D9A200B70EA0EC6CF012006F00D8FE07F06F000B
:10D9B200DCFE08F00850036E0750056E03C006F047
:10D9C20005C001F006C002F01200016A3901A3A9E4
:10D9D200EDEF6CF0EFEF6CF0F9EF6CF03D01F2ABB4
:10D9E200F5EF6CF0F7EF6CF0F9EF6CF0010E016EF1
:10D9F20001501200016A3901A6A702EF6DF004EF8F
:10DA02006DF00EEF6DF03D01DAAB0AEF6DF00CEF49
:10DA12006DF00EEF6DF0010E016E0150120008BEA6
:10DA220015EF6DF017EF6DF01DEF6DF007C007F009
:10DA320008C008F029EF6DF007C009F008C00AF02D
:10DA4200091E0A1E094A0A2A09C007F00AC008F07C
:10DA52001200230E296E20C02AF02D6A000E2C6EB1
:10DA6200346A000E336E2A0E1A6E21C01BF022C0D9
:10DA72001CF0290E1D6E10EC6EF01AC027F01BC0B0
:10DA820028F020502C24D96EDA6ADF6A27C020F0F1
:10DA920028C021F012003D01D46BD66BD86BB00EBA
:10DAA200DA6F800EDB6FDC6BE10EDD6F040EDE6F72
:10DAB200DF6BE06BE16BE26B5A0E016ED80E026E09
:10DAC20050EC6CF05C0E016ED80E026E55EC6CF0F0
:10DAD200580E016ED80E026E4BEC6CF0556A1200B5
:10DAE200B40EF66ED80EF76E000EF86E00EEDAF097
:10DAF20010EE0AF009006F00D7FFEEFFE550E1508B
:10DB0200F9E100EE00F1200EEE6AE806FDE100EE1A
:10DB120060F0450EEE6AE806FDE100EE47F0100EF9
:10DB2200EE6AE806FDE100012EEF77F03D01EC6BB5
:10DB3200ED6BEE6BEF6BF06BF16BB00EF26F800E74
:10DB4200F36FF46B670EF56FF66BF76BF86BF96BAF
:10DB5200FA6B540E016ED80E026E41EC6CF0560E4A
:10DB6200016ED80E026E46EC6CF0520E016ED80EAB
:10DB7200026E3CEC6CF0566A1200036EE6EC6CF03E
:10DB82000009D8B4C7EF6DF0C9EF6DF0BFEF6DF0CB
:10DB9200B90EA0EC6CF0E6EC6CF00009D8B4D4EF4E
:10DBA2006DF0D6EF6DF0CCEF6DF00350A0EC6CF0A1
:10DBB200E6EC6CF00009D8B4E1EF6DF0E3EF6DF044
:10DBC200D9EF6DF00250A0EC6CF01200026EE6ECA0
:10DBD2006CF00009D8B4F0EF6DF0F2EF6DF0E8EF01
:10DBE2006DF0B80EA0EC6CF0E6EC6CF00009D8B465
:10DBF200FDEF6DF0FFEF6DF0F5EF6DF0010EA0ECB3
:10DC02006CF0E6EC6CF00009D8B40AEF6EF00CEFA1
:10DC12006EF002EF6EF00250A0EC6CF012001BC02E
:10DC22001EF01CC01FF04D6A000E4C6E25EF6EF008
:10DC32001AC00BF01E0E0C6E1DC00DF089EC75F0B3
:10DC42000B504C260C504D2260007BF0F6FF60001A
:10DC52007FF0F7FFF86A0800F5500009D8A434EF06
:10DC62006EF036EF6EF019EF6EF04CC01AF04DC048
:10DC72001BF01200E6EC6CF00009D8B443EF6EF032
:10DC820045EF6EF03BEF6EF0BA0EA0EC6CF07FEC5D
:10DC92006CF00009D8B450EF6EF052EF6EF048EF1E
:10DCA2006EF05EEF6EF07FEC6CF00009D8B45CEFC2
:10DCB2006EF05EEF6EF054EF6EF068EC70F0630A97
:10DCC200D8A466EF6EF068EF6EF054EF6EF01200BB
:10DCD200E6EC6CF00009D8B471EF6EF073EF6EF001
:10DCE20069EF6EF0B10EA0EC6CF07FEC6CF0000905
:10DCF200D8B47EEF6EF080EF6EF076EF6EF068ECE7
:10DD020070F0066E7FEC6CF00009D8B48BEF6EF009
:10DD12008DEF6EF083EF6EF068EC70F0076E0750D7
:10DD2200056E046A06500424026E000E0520036E7E
:10DD3200120003500410D8B4A1EF6EF0A3EF6EF0FE
:10DD4200C7EF6EF0010E056EABEF6EF0D8900336A2
:10DD52000436052A04AEB0EF6EF0B2EF6EF0A7EF14
:10DD62006EF00350015C04500258D8A0BBEF6EF075
:10DD7200BDEF6EF0C1EF6EF00350015E0450025A27
:10DD8200D89004320332052EB2EF6EF001C001F0DA
:10DD920002C002F01200026EE6EC6CF00009D8B488
:10DDA200D5EF6EF0D7EF6EF0CDEF6EF0C20EA0ECB5
:10DDB2006CF0E6EC6CF00009D8B4E2EF6EF0E4EF40
:10DDC2006EF0DAEF6EF00250A0EC6CF0E6EC6CF064
:10DDD2000009D8B4EFEF6EF0F1EF6EF0E7EF6EF0FE
:10DDE200C60EA0EC6CF0E6EC6CF00009D8B4FCEFC7
:10DDF2006EF0FEEF6EF0F4EF6EF00228A0EC6CF025
:10DE02001200026EE6EC6CF00009D8B40BEF6FF072
:10DE12000DEF6FF003EF6FF0C10EA0EC6CF0E6ECCB
:10DE22006CF00009D8B418EF6FF01AEF6FF010EF32
:10DE32006FF00250A0EC6CF0E6EC6CF00009D8B484
:10DE420025EF6FF027EF6FF01DEF6FF0C50EA0EC1E
:10DE52006CF0E6EC6CF00009D8B432EF6FF034EFFE
:10DE62006FF02AEF6FF00228A0EC6CF01200036E44
:10DE7200E6EC6CF00009D8B441EF6FF043EF6FF0BD
:10DE820039EF6FF0C10EA0EC6CF0E6EC6CF000091B
:10DE9200D8B44EEF6FF050EF6FF046EF6FF00350D3
:10DEA2000224A0EC6CF0E6EC6CF00009D8B45CEF54
:10DEB2006FF05EEF6FF054EF6FF0C50EA0EC6CF0F8
:10DEC200E6EC6CF00009D8B469EF6FF06BEF6FF01D
:10DED20061EF6FF00328A0EC6CF01200066A000EEE
:10DEE200056E03500410D8B479EF6FF07BEF6FF03A
:10DEF200A3EF6FF0010E076E83EF6FF0D890033639
:10DF02000436072A04AE88EF6FF08AEF6FF07FEFD6
:10DF12006FF0D890053606360350015C0450025863
:10DF2200D8A096EF6FF098EF6FF09DEF6FF003506F
:10DF3200015E0450025A0580D89004320332072E43
:10DF42008AEF6FF005C001F006C002F01200046E05
:10DF5200E6EC6CF00009D8B4B1EF6FF0B3EF6FF0FC
:10DF6200A9EF6FF0C10EA0EC6CF0E6EC6CF00009CA
:10DF7200D8B4BEEF6FF0C0EF6FF0B6EF6FF00450A1
:10DF8200A0EC6CF0E6EC6CF00009D8B4CBEF6FF0CB
:10DF9200CDEF6FF0C3EF6FF0C50EA0EC6CF0E6ECC6
:10DFA2006CF00009D8B4D8EF6FF0DAEF6FF0D0EF71
:10DFB2006FF004500224036E0328A0EC6CF01200F0
:10DFC2002868276A19EF70F024EC70F0286E0D0EA5
:10DFD2002818D8A4EFEF6FF0F1EF6FF0F3EF6FF0C6
:10DFE20019EF70F02F0E2864F9EF6FF0FBEF6FF06E
:10DFF20003EF70F0390E286401EF70F003EF70F058
:10E0020013EF70F0C00E206EFC0E216EBAEC6CF0B5
:10E01200B30E206EFB0E216EBAEC6CF0276A2868F4
:10E0220019EF70F027500A0DF3502824D00F276EF5
:10E032000D0E2818D8A420EF70F022EF70F0E5EF53
:10E042006FF02750120002684DEF70F095EC6CF003
:10E052000009D8B42FEF70F031EF70F04DEF70F08F
:10E06200B2EC70F0026EFBEC6CF00009D8B43CEF3D
:10E0720070F03EEF70F04DEF70F00250ADEC6CF0CE
:10E082000D0E0218D8A448EF70F04AEF70F04DEF71
:10E0920070F00A0EADEC6CF02F0E026453EF70F0CC
:10E0A20055EF70F05DEF70F07A0E02645BEF70F086
:10E0B2005DEF70F066EF70F00D0E0218D8A464EFF9
:10E0C20070F066EF70F027EF70F002501200390125
:10E0D200A3A76EEF70F070EF70F068EF70F0566A01
:10E0E2003D01F9A777EF70F079EF70F086EF70F0ED
:10E0F200568202D886EF70F00500FA6E5D50FD6E12
:10E102005E50FE6EFF6AFA5012003D01F9A38CEFD9
:10E1120070F08EEF70F09BEF70F0568402D89BEF98
:10E1220070F00500FA6E5B50FD6E5C50FE6EFF6A89
:10E13200FA5012005650D8B4A1EF70F0A3EF70F06D
:10E14200AFEF70F002D8AFEF70F00500FA6E5950E1
:10E15200FD6E5A50FE6EFF6AFA5012003D01E85100
:10E1620012003901A6A5B8EF70F0BAEF70F0B2EF65
:10E1720070F0556A3D01E1A7C1EF70F0C3EF70F096
:10E18200D0EF70F0558202D8D0EF70F00500FA6E31
:10E192005750FD6E5850FE6EFF6AFA5012003D0154
:10E1A200E1A3D6EF70F0D8EF70F0E6EF70F055848F
:10E1B20002D8E6EF70F00500FA6E0001E651FD6E3E
:10E1C200E751FE6EFF6AFA5012005550D8B4ECEFD8
:10E1D20070F0EEEF70F0FBEF70F002D8FBEF70F032
:10E1E2000500FA6E0001E451FD6EE551FE6EFF6A14
:10E1F200FA5012003D01D0511200076AE6EC6CF0B1
:10E202000009D8B407EF71F009EF71F0FFEF70F079
:10E21200B80EA0EC6CF0E6EC6CF00009D8B414EF88
:10E2220071F016EF71F00CEF71F00450A0EC6CF08D
:10E2320043EF71F0E6EC6CF00009D8B423EF71F013
:10E2420025EF71F043EF71F007500224056E000EC6
:10E252000320066E600017F0F6FF60001BF0F7FF68
:10E26200000EF86E0F0EF76403D00800F55007D0C9
:10E272006F00DBFFE9FF6F00DFFFEAFFEF50A0EC6A
:10E282006CF0072A0450075CD8A04AEF71F04CEFFB
:10E2920071F01BEF71F01200E6EC6CF00009D8B4DB
:10E2A20055EF71F057EF71F04DEF71F0BB0EA0EC2E
:10E2B2006CF0E6EC6CF00009D8B462EF71F064EF38
:10E2C20071F05AEF71F0140EA0EC6CF0E6EC6CF009
:10E2D2000009D8B46FEF71F071EF71F067EF71F070
:10E2E200010EA0EC6CF0E6EC6CF00009D8B47CEF07
:10E2F20071F07EEF71F074EF71F0140EA0EC6CF01F
:10E30200E6EC6CF00009D8B489EF71F08BEF71F094
:10E3120081EF71F0030EA0EC6CF0E6EC6CF00009FA
:10E32200D8B496EF71F098EF71F08EEF71F0020EA3
:10E33200A0EC6CF01200BE6ABD6ABA6ABB6ABC6A23
:10E34200070EC66EC268BF0EC36E840EC46EC56869
:10E352003A01706B606B2F0E506F070E806FEF0EDD
:10E36200406F716B816B516B416B616B5A6B5B6B75
:10E372006A6B6B6B7A6B7B6B826B426B526B180EA8
:10E38200626F726B4369536963697369070E836FC6
:10E3920044695469646974690F0E846F0F0EE86FE3
:10E3A200250E106F160E0E6F210E136F0F0E116FCA
:10E3B200220E146F170EE56F040EC36F130EE16F7A
:10E3C2000C0EDD6F140EE26F120ECA6F0D0E156F7A
:10E3D200130E166F12000550D8B4F2EF71F0F4EF7D
:10E3E20071F0FCEF71F00550D8A4FAEF71F0FCEF78
:10E3F20071F001EF72F0035037EC6CF041EF72F004
:10E402000550D96EDA6A090ED926DE50DE10D8B46C
:10E412000DEF72F00FEF72F028EF72F00550D96E27
:10E42200DA6A090ED9260550E16EE26A020EE12689
:10E43200DE50E65CE650800A0A6EDE50800A0A5818
:10E44200D8B026EF72F028EF72F041EF72F005506B
:10E45200D96EDA6A020ED926DF50066E0550D96EE1
:10E46200DA6ADF500624D96EDA6A60000FF0DFFF45
:10E472000550D96EDA6A020ED926DE2A000EDD2296
:10E482001200066A02BE4AEF72F048EF72F050EFD5
:10E4920072F0016C021ED8B0022A010E066E04BE92
:10E4A20057EF72F055EF72F05BEF72F0036C041EDF
:10E4B200D8B0042A03500410D8B462EF72F064EFAB
:10E4C20072F088EF72F0010E056E6CEF72F0D89068
:10E4D20003360436052A04AE71EF72F073EF72F060
:10E4E20068EF72F00350015C04500258D8A07CEF30
:10E4F20072F07EEF72F082EF72F00350015E045010
:10E50200025AD89004320332052E73EF72F006508D
:10E51200D8B48EEF72F090EF72F094EF72F0016C5B
:10E52200021ED8B0022A01C001F002C002F012009D
:10E53200E6EC6CF00009D8B4A1EF72F0A3EF72F030
:10E5420099EF72F0B40EA0EC6CF0126A7FEC6CF0F2
:10E552000009D8B4AFEF72F0B1EF72F0A7EF72F02A
:10E562001250080FD96EDA6A68EC70F0DF6E7FEC39
:10E572006CF00009D8B4C0EF72F0C2EF72F0B8EFDD
:10E5820072F012500D0FD96EDA6A68EC70F0DF6E1D
:10E5920012500D0FD96EDA6ADF50046E0450066E07
:10E5A200056A1250080FD96EDA6ADF50076E0750FB
:10E5B2000526000E06221250020DF3509B0FD96E53
:10E5C200DA6A600017F0DEFF60001BF0DDFF122A3E
:10E5D200040E1264EFEF72F0F1EF72F0A7EF72F037
:10E5E2009B0E1200066A04BEFBEF72F0F9EF72F0A6
:10E5F20001EF73F0036C041ED8B0042A010E066EFC
:10E6020002BE08EF73F006EF73F00EEF73F0016CC9
:10E61200021ED8B0022A010E061A086A000E076E00
:10E6220003500410D8B418EF73F01AEF73F042EFEE
:10E6320073F0010E056E22EF73F0D89003360436A4
:10E64200052A04AE27EF73F029EF73F01EEF73F083
:10E65200D890073608360350015C04500258D8A0FF
:10E6620035EF73F037EF73F03CEF73F00350015E58
:10E672000450025A0780D89004320332052E29EF43
:10E6820073F00650D8B448EF73F04AEF73F04EEFD0
:10E6920073F0076C081ED8B0082A07C001F008C042
:10E6A20002F01200DF0E206EFB0E216EBAEC6CF04F
:10E6B200B50E206EFD0E216EBAEC6CF04F0E206E80
:10E6C200FD0E216EBAEC6CF0930E206EFD0E216EE3
:10E6D200BAEC6CF0710E206EFD0E216EBAEC6CF08D
:10E6E2004F0E206EFD0E216EBAEC6CF0B50E206E50
:10E6F200FD0E216EBAEC6CF0C00E206EFC0E216E87
:10E70200BAEC6CF0310E206EFE0E216EBAEC6CF09B
:10E71200D70E206EFD0E216EBAEC6CF0C30E206E89
:10E72200FC0E216EBAEC6CF00A0E206EFD0E216E0C
:10E73200BAEC6CF0DF0E206EFB0E216EBAEC6CF0C0
:10E742007C0E206EFB0E216EBAEC6CF0DF0E206E9A
:10E75200FB0E216EBAEC6CF02D0E206EFD0E216EBA
:10E76200BAEC6CF0E70E206EFC0E216EBAEC6CF087
:10E77200E20E206EFE0E216EBAEC6CF0B40E206E2C
:10E78200FE0E216EBAEC6CF0CB0E206EFE0E216EE8
:10E79200BAEC6CF0DF0E206EFB0E216EBAEC6CF060
:10E7A2006B0E206EFE0E216EBAEC6CF0C00E206E67
:10E7B200FC0E216EBAEC6CF01200406E40C042F0CA
:10E7C200C7EC6CF0C20E026EFF0E036E080E046EF2
:10E7D200FEEC70F0480E016E900E8AEC6CF02FEC9D
:10E7E2006CF0010E026E000EBEEC6DF0350E206E66
:10E7F200710E216EFF0E226E42C023F0246A2AECB3
:10E802006DF02050416E350E026E036A41C004F075
:10E81200FEEC70F078EF74F0D5EC6CF001C03EF0D5
:10E8220002C03FF01B0E3E5CB70E3F58D8A01CEF53
:10E8320074F01EEF74F078EF74F04206026A000E74
:10E84200016E5FEC6CF069EF74F0C7EC6CF0010ED6
:10E85200026E000EBEEC6DF0320E026EFF0E036E03
:10E86200080E046EFEEC70F078EF74F0010E026E8A
:10E87200000EBEEC6DF03B0E026EFF0E036E080E34
:10E88200046EFEEC70F078EF74F0010E026E000E72
:10E89200BEEC6DF04D0E026EFF0E036E080E046E9E
:10E8A200FEEC70F078EF74F0010E026E000EBEEC1A
:10E8B2006DF0350E206E710E216EFF0E226E42C07B
:10E8C20023F0246A2AEC6DF02050416E04EF74F0BC
:10E8D2004250000AD8B426EF74F0010AD8B437EFD8
:10E8E20074F0030AD8B446EF74F055EF74F0425056
:10E8F200D8A47EEF74F080EF74F00DEF74F031EC79
:10E902006CF0120020EEDAF010EE11F0090E6F003A
:10E912006FFFE3FFE806FBE2266A000E256E276A18
:10E92200E6EC6CF00009D8B499EF74F09BEF74F048
:10E9320091EF74F0870EA0EC6CF02B6A000E2A6E39
:10E942007FEC6CF00009D8B4A9EF74F0ABEF74F06F
:10E95200A1EF74F02A501B0FD96EDA6A68EC70F0DE
:10E96200DF6E7FEC6CF00009D8B4BAEF74F0BCEF44
:10E9720074F0B2EF74F02A50200FD96EDA6A68ECA4
:10E9820070F0DF6E2A50200FD96EDA6ADF500B6EFC
:10E992000B500D6E0C6A2A501B0FD96EDA6ADF50CB
:10E9A2000E6E0E500C26000E0D222A50020DF35050
:10E9B200870FD96EDA6A600033F0DEFF600037F04D
:10E9C200DDFF2A4A2B2A2BBEF0EF74F02B5009E10F
:10E9D200050E2A5CD8A0F0EF74F0F2EF74F0A1EF0C
:10E9E20074F02D6A000E2C6E2C50020DF350870F1E
:10E9F200D96EDA6A5E0EDE5C010EDE58D8A004EF34
:10EA020075F006EF75F018EF75F02C50020DF3500B
:10EA12007D0FD96EDA6A010EDE6E000EDD6E2C50AD
:10EA2200470FD96EDA6A010EDF6E25EF75F02C50B2
:10EA3200020DF3507D0FD96EDA6ADE6ADD6A2C5060
:10EA4200470FD96EDA6ADF6A2C4A2D2A2DBE33EFC0
:10EA520075F02D5009E1050E2C5CD8A033EF75F04E
:10EA620035EF75F0F5EF74F0296A000E286E285024
:10EA7200020DF3507D0FD96EDA6A6F0078FF0BF04A
:10EA82006F0074FF0CF02850020DF350110FD96E75
:10EA9200DA6A6F0078FF0DF06F0074FF0EF00B5012
:10EAA2000D026F00CCFF0FF06F00D0FF10F00E02CE
:10EAB200F35010260C500D02F35010260F5025264D
:10EAC200105026222850020DF3507D0FD96EDA6ABB
:10EAD200DF502726284A292A29BE79EF75F02950C6
:10EAE20009E1050E285CD8A079EF75F07BEF75F08F
:10EAF20038EF75F025C001F026C002F027C003F000
:10EB0200046AF3EC72F001C009F002C00AF01200CC
:10EB1200126A000E116E0C50D96EDA6A6F007BFF1A
:10EB2200F6FF6F0077FFF7FFF86A0800F550250A35
:10EB3200D8A49EEF75F0A0EF75F012EF77F00C50AD
:10EB4200D96EDA6ADE2A000EDD224F6A000E4E6EA0
:10EB52004EC054F0506851680C50D96EDA6A6F009A
:10EB620078FF13F06F0074FF14F060004FF0F6FFAF
:10EB7200600053F0F7FFF86A0800F550640AD8B451
:10EB8200C5EF75F0C7EF75F0D8EF75F060004FF084
:10EB9200F6FF600053F0F7FFF86A0800F550690AC3
:10EBA200D8A4D6EF75F0D8EF75F076EF76F00D5069
:10EBB200D96EDA6A020EDF26DF5CD96EDA6A6F007E
:10EBC20078FF15F06F0078FF16F0010E13240E6E19
:10EBD200000E14200F6E0C50D96EDA6A60003BF002
:10EBE200DEFF60003FF0DDFF200E196E16BEFCEF67
:10EBF20075F0FFEF75F0010E00EF76F0000E106E6B
:10EC02001906000E1924D96EDA6A010EDA2215C02D
:10EC120001F016C002F0046A0A0E036E42EC72F0B2
:10EC220001C007F002C008F010EC6DF00750300F81
:10EC3200DF6E15C001F016C002F0046A0A0E036E00
:10EC4200F3EC72F001C015F002C016F0114A122A5C
:10EC520015501610D8B430EF76F032EF76F03AEF66
:10EC620076F01950D8A438EF76F03AEF76F001EF4B
:10EC720076F01950D8B440EF76F042EF76F067EFB5
:10EC820076F01050D8B448EF76F04AEF76F067EF9E
:10EC920076F01906000E1924D96EDA6A010EDA220C
:10ECA2002D0EDF6E114A122A67EF76F0000E19243C
:10ECB200D96EDA6A010EDA22DF500E6E0E50036E42
:10ECC200046A0BC005F0ECEC71F0192A200E191839
:10ECD200D8A46EEF76F070EF76F057EF76F011C0B1
:10ECE2000BF012C00CF02DEF77F060004FF0F6FF42
:10ECF200600053F0F7FFF86A0800F550750AD8A4CF
:10ED020085EF76F087EF76F007EF77F00D50D96E4A
:10ED1200DA6A020EDF26DF5CD96EDA6A6F0078FFEC
:10ED220015F06F0078FF16F0010E13240E6E000E20
:10ED320014200F6E0C50D96EDA6A60003BF0DEFFD1
:10ED420060003FF0DDFFF8EF76F0200E196E190635
:10ED5200000E1924D96EDA6A010EDA2215C001F00A
:10ED620016C002F0046A0A0E036E9AEC6EF00150AD
:10ED7200300FDF6E15C001F016C002F0046A0A0EF1
:10ED8200036E6FEC6FF001C015F002C016F0114A6D
:10ED9200122A15501610D8B4D1EF76F0D3EF76F0D0
:10EDA200EDEF76F01950D8A4D9EF76F0DBEF76F0DC
:10EDB200A8EF76F0EDEF76F0000E1924D96EDA6A3C
:10EDC200010EDA22DF500E6E0E50036E046A0BC083
:10EDD20005F0ECEC71F0192A200E1918D8A4F4EF02
:10EDE20076F0F6EF76F0DDEF76F070EF76F0600019
:10EDF2004FF0F6FF600053F0F7FFF86A0800F55095
:10EE0200750AD8B4A6EF76F007EF77F00C50D96EFA
:10EE1200DA6ADE2A000EDD220C6A000E0B6E2DEF7E
:10EE220077F00C50D96EDA6A6F007BFFF6FF6F0045
:10EE320077FFF7FFF86A0800F550036E046A0BC00B
:10EE420005F0ECEC71F00C50D96EDA6ADE2A000E95
:10EE5200DD220C6A010E0B6E120065EC6CF09CEC6C
:10EE620071F097EC6DF04CEC6DF0C38A3A01509B57
:10EE7200CBBA3EEF77F040EF77F0F1EF7CF053EC56
:10EE820073F0C7EC6CF0000E026E000EBEEC6DF07B
:10EE9200B00E026EFF0E036E080E046EFEEC70F0F2
:10EEA20069EC6EF002C0D0F003C0D1F0BC0E206E4F
:10EEB200E40E216EFF0E226ED0C023F0D1C024F0EA
:10EEC2002AEC6DF020500001D76F010E026E000E89
:10EED200BEEC6DF0BC0E026E036AD7C004F0FEEC0D
:10EEE20070F024EC70F00001C96FC6EF7CF0C7EC43
:10EEF2006CF0000E026E000EBEEC6DF0280E026E7B
:10EF0200FF0E036E080E046EFEEC70F0010E026E30
:10EF1200000EBEEC6DF0950E026EFF0E036E080E33
:10EF2200046EFEEC70F0C00E206EFC0E216EBAEC88
:10EF32006CF00001C56BFCEF77F03D0E206EFC0E0D
:10EF4200216EBAEC6CF04E0E206EFE0E216EBAEC03
:10EF52006CF024EC70F00001A56F99EC72F00001E6
:10EF6200CD6FCF6B000ECE6FD86B040ED865BCEFA1
:10EF720077F0BEEF77F0C0EF77F0EBEF77F0D85194
:10EF8200020DCD51F324D96EDA6A6F0078FF43F097
:10EF92006F0074FF44F0CE514324CE6FCF51442012
:10EFA200CF6FF80E206EFE0E216ED8C022F0236ABB
:10EFB200D851020DCD51F324D96EDA6A6F0078FF71
:10EFC20024F06F0074FF25F0BAEC6CF00001D82B2E
:10EFD200B6EF77F0CE51CF11D8A4F2EF77F0F4EF7D
:10EFE20077F0FCEF77F0010EC56FF50E206EFD0E87
:10EFF200216EBAEC6CF00001C551D8B403EF78F081
:10F0020005EF78F09EEF77F0C66B7CEF78F06A0E32
:10F01200206EFC0E216EBAEC6CF04E0E206EFE0ECF
:10F02200216EBAEC6CF024EC70F00001A56F99EC43
:10F0320072F00001CD6FCF6B000ECE6FD86B040E55
:10F04200D86526EF78F028EF78F02AEF78F055EFC0
:10F0520078F0D851020DCD51F324D96EDA6A6F00DF
:10F0620078FF43F06F0074FF44F0CE514324CE6F1B
:10F07200CF514420CF6FF80E206EFE0E216ED8C005
:10F0820022F0236AD851020DCD51F324D96EDA6AE7
:10F092006F0078FF24F06F0074FF25F0BAEC6CF07B
:10F0A2000001D82B20EF78F0880ECE1907E1130E5D
:10F0B200CF19D8A45FEF78F061EF78F07CEF78F0A9
:10F0C200010EC66F130E206EFE0E216EBAEC6CF0AE
:10F0D200840E206EFE0E216EBAEC6CF0010E026EF2
:10F0E200000EBEEC6DF0B90E026EFF0E036E080E3E
:10F0F200046EFEEC70F00001C651D8B483EF78F0D4
:10F1020085EF78F008EF78F072EF77F0C7EC6CF0EB
:10F11200000E026E000EBEEC6DF0560E026EFF0E79
:10F12200036E080E046EFEEC70F0010E026E000E0D
:10F13200BEEC6DF0DC0E026EFF0E036E080E046E66
:10F14200FEEC70F0C00E206EFC0E216EBAEC6CF07C
:10F15200E6EC6CF00009D8B4B1EF78F0B3EF78F0D8
:10F16200A9EF78F0870EA0EC6CF00001D46B000ED2
:10F17200D36FD4BFC6EF78F0D45109E1050ED35D49
:10F18200D8A0C6EF78F0C8EF78F0CAEF78F012EFA7
:10F1920079F07FEC6CF00009D8B4D2EF78F0D4EFBC
:10F1A20078F0CAEF78F00001D351B00FD96EDA6A65
:10F1B20068EC70F0DF6E7FEC6CF00009D8B4E4EF1D
:10F1C20078F0E6EF78F0DCEF78F00001D351B50F7C
:10F1D200D96EDA6A68EC70F0DF6E0001D351B50FB8
:10F1E200D96EDA6ADF50436E4350456E446AD3519A
:10F1F200B00FD96EDA6ADF50466E46504426000ED2
:10F202004522D351020DF350A60FD96EDA6A60007F
:10F2120013F1DEFF600017F1DDFFD34BD42BBAEF01
:10F2220078F0CB6B000ECA6FCBBF21EF79F0CB51D8
:10F2320009E1050ECA5DD8A021EF79F023EF79F03C
:10F2420025EF79F072EF77F0190E206EFF0E216E26
:10F25200CAC022F0CBC023F0CA51020DF350A60F50
:10F26200D96EDA6A6F0078FF24F06F0074FF25F020
:10F27200BAEC6CF00001CA4BCB2B15EF79F0C7EC5E
:10F282006CF0000E026E000EBEEC6DF0D40E026E3B
:10F29200FF0E036E070E046EFEEC70F0C00E206EC1
:10F2A200FC0E216EBAEC6CF0A70E206EFC0E216EE5
:10F2B200BAEC6CF024EC70F00001CC6F6FEF79F0D7
:10F2C200C00E206EFC0E216EBAEC6CF0970E206E12
:10F2D200FC0E216EBAEC6CF05BEF79F02F0ECC6570
:10F2E20075EF79F077EF79F061EF79F0350ECC6157
:10F2F2007DEF79F07FEF79F061EF79F0000E026E29
:10F30200070EBEEC6DF00001CC51E7EC6DF0E6ECBF
:10F312006CF00009D8B490EF79F092EF79F088EFB1
:10F3220079F0870EA0EC6CF00001D66B000ED56F61
:10F33200D6BFA5EF79F0D65109E1050ED55DD8A06B
:10F34200A5EF79F0A7EF79F0A9EF79F0F1EF79F075
:10F352007FEC6CF00009D8B4B1EF79F0B3EF79F03B
:10F36200A9EF79F00001D551B00FD96EDA6A68ECD5
:10F3720070F0DF6E7FEC6CF00009D8B4C3EF79F067
:10F38200C5EF79F0BBEF79F00001D551B50FD96E19
:10F39200DA6A68EC70F0DF6E0001D551B50FD96EF4
:10F3A200DA6ADF50436E4350456E446AD551B00F5E
:10F3B200D96EDA6ADF50466E46504426000E452268
:10F3C200D551020DF350A60FD96EDA6A600013F11F
:10F3D200DEFF600017F1DDFFD54BD62B99EF79F0F8
:10F3E200CC51D00FC96F0A0E206EFF0E216EC9C01C
:10F3F20022F0236AC951020DF350A60FD96EDA6AC0
:10F402006F0078FF24F06F0074FF25F0BAEC6CF007
:10F4120072EF77F0C7EC6CF0000E026E000EBEECDD
:10F422006DF09E0E026EFF0E036E080E046EFEEC71
:10F4320070F0C00E206EFC0E216EBAEC6CF069EC1E
:10F442006EF002C0D0F003C0D1F0BC0E206EE40E0C
:10F45200216EFF0E226ED0C023F0D1C024F02AEC20
:10F462006DF020500001D76F010E026E000EBEEC4F
:10F472006DF0BC0E026E036AD7C004F0FEEC70F0B1
:10F482009C0E206EFE0E216ED0C022F0D1C023F061
:10F49200BAEC6CF072EF77F0C7EC6CF0000E026E13
:10F4A200000EBEEC6DF08C0E026EFF0E036E080EA7
:10F4B200046EFEEC70F0C00E206EFC0E216EBAECF3
:10F4C2006CF0100E206EFC0E216EBAEC6CF0E1ECCA
:10F4D2006FF00001D96FD95102EC6FF0BC0E206EB3
:10F4E200F50E216EFF0E226ED9C023F0246A2AEC9B
:10F4F2006DF020500001D76F010E026E000EBEECBF
:10F502006DF0BC0E026E036AD7C004F0FEEC70F020
:10F51200E6EC6CF00009D8B491EF7AF093EF7AF050
:10F5220089EF7AF0C10EA0EC6CF0E6EC6CF0000909
:10F53200D8B49EEF7AF0A0EF7AF096EF7AF000015D
:10F54200D951A0EC6CF0E6EC6CF00009D8B4ACEF49
:10F552007AF0AEEF7AF0A4EF7AF0C50EA0EC6CF080
:10F56200E6EC6CF00009D8B4B9EF7AF0BBEF7AF0B0
:10F57200B1EF7AF00001D951A0EC6CF072EF77F0A4
:10F58200C7EC6CF0000E026E000EBEEC6DF0A70E22
:10F59200026EFF0E036E080E046EFEEC70F0C00EDB
:10F5A200206EFC0E216EBAEC6CF0E20E206EFB0EA9
:10F5B200216EBAEC6CF0E1EC6FF00001D96FD95119
:10F5C200CCEC6EF0BC0E206EF50E216EFF0E226E9C
:10F5D200D9C023F0246A2AEC6DF020500001D76FC5
:10F5E200010E026E000EBEEC6DF0BC0E026E036ADE
:10F5F200D7C004F0FEEC70F0E6EC6CF00009D8B471
:10F6020005EF7BF007EF7BF0FDEF7AF0C20EA0EC86
:10F612006CF0E6EC6CF00009D8B412EF7BF014EF5A
:10F622007BF00AEF7BF00001D951A0EC6CF0E6EC24
:10F632006CF00009D8B420EF7BF022EF7BF018EFDA
:10F642007BF0C60EA0EC6CF0E6EC6CF00009D8B4CE
:10F652002DEF7BF02FEF7BF025EF7BF00001D951EE
:10F66200A0EC6CF072EF77F0C7EC6CF0000E026E5B
:10F67200000EBEEC6DF07A0E026EFF0E036E080EE7
:10F68200046EFEEC70F0C00E206EFC0E216EBAEC21
:10F692006CF0100E206EFC0E216EBAEC6CF0E1ECF8
:10F6A2006FF00001D96F350E206EFB0E216EBAECA1
:10F6B2006CF0E1EC6FF00001D26FD951D225C76F27
:10F6C200C86BC837D2C002F0D951A8EC6FF0BC0E9B
:10F6D200206EEA0E216EFF0E226ED9C023F0246A3C
:10F6E200D2C025F0266A2AEC6DF020500001D76FB7
:10F6F200010E026E000EBEEC6DF0BC0E026E036ACD
:10F70200D7C004F0FEEC70F0E6EC6CF00009D8B45F
:10F712008DEF7BF08FEF7BF085EF7BF0C10EA0ECDD
:10F722006CF0E6EC6CF00009D8B49AEF7BF09CEF39
:10F732007BF092EF7BF00001C751A0EC6CF0E6EC9D
:10F742006CF00009D8B4A8EF7BF0AAEF7BF0A0EF31
:10F752007BF0C50EA0EC6CF0E6EC6CF00009D8B4BE
:10F76200B5EF7BF0B7EF7BF0ADEF7BF00001D95145
:10F77200A0EC6CF072EF77F0C7EC6CF0000E026E4A
:10F78200000EBEEC6DF0830E026EFF0E036E080ECD
:10F79200046EFEEC70F0C00E206EFC0E216EBAEC10
:10F7A2006CF0100E206EFC0E216EBAEC6CF0E1ECE7
:10F7B2006FF00001D96F350E206EFB0E216EBAEC90
:10F7C2006CF0E1EC6FF00001D26FD951D225C76F16
:10F7D200C86BC837D2C002F0D95138EC6FF0BC0EFA
:10F7E200206EEA0E216EFF0E226ED9C023F0246A2B
:10F7F200D2C025F0266A2AEC6DF020500001D76FA6
:10F80200010E026E000EBEEC6DF0BC0E026E036ABB
:10F81200D7C004F0FEEC70F0E6EC6CF00009D8B44E
:10F8220015EF7CF017EF7CF00DEF7CF0C10EA0EC31
:10F832006CF0E6EC6CF00009D8B422EF7CF024EF17
:10F842007CF01AEF7CF00001D951A0EC6CF0E6ECF0
:10F852006CF00009D8B430EF7CF032EF7CF028EF86
:10F862007CF0C50EA0EC6CF0E6EC6CF00009D8B4AC
:10F872003DEF7CF03FEF7CF035EF7CF00001C751AB
:10F88200A0EC6CF072EF77F0C7EC6CF0000E026E39
:10F89200000EBEEC6DF0680E026EFF0E036E080ED7
:10F8A200046EFEEC70F0C00E206EFC0E216EBAECFF
:10F8B2006CF033EC6CF0E6EC6CF00009D8B464EF59
:10F8C2007CF066EF7CF05CEF7CF0C10EA0EC6CF09B
:10F8D200E6EC6CF00009D8B471EF7CF073EF7CF0C9
:10F8E20069EF7CF0000EA0EC6CF0E6EC6CF0000925
:10F8F200D8B47EEF7CF080EF7CF076EF7CF0C50E22
:10F90200A0EC6CF0E6EC6CF00009D8B48BEF7CF064
:10F912008DEF7CF083EF7CF0000EA0EC6CF072EFC8
:10F9220077F0C7EC6CF0000E026E000EBEEC6DF0CC
:10F93200B00E026EFF0E036E080E046EFEEC70F047
:10F9420069EC6EF002C0D0F003C0D1F0BC0E206EA4
:10F95200E40E216EFF0E226ED0C023F0D1C024F03F
:10F962002AEC6DF020500001D76F010E026E000EDE
:10F97200BEEC6DF0BC0E026E036AD7C004F0FEEC62
:10F9820070F053EC73F072EF77F0C951420AD8B4B9
:10F99200C1EF7AF0040AD8B44DEF7AF00A0AD8B46B
:10F9A20035EF7BF01E0AD8B4BDEF7BF0010AD8B464
:10F9B20045EF7CF0300AD8B478EF77F0070AD8B474
:10F9C20040EF79F0090AD8B492EF7CF01F0AD8B45C
:10F9D20087EF78F0040AD8B40BEF7AF072EF77F081
:10F9E200CBAAF6EF7CF0F8EF7CF085EF7DF053ECDC
:10F9F20073F0C7EC6CF0000E026E000EBEEC6DF000
:10FA0200440E026EFF0E036E080E046EFEEC70F0E2
:10FA120069EC6EF002C0D0F003C0D1F0BC0E206ED3
:10FA2200E40E216EFF0E226ED0C023F0D1C024F06E
:10FA32002AEC6DF020500001D76F010E026E000E0D
:10FA4200BEEC6DF0BC0E026E036AD7C004F0FEEC91
:10FA520070F03D0E446EE10E436E400EE82EFED76E
:10FA6200432EFCD7442EFAD7000E026E000EBEECD7
:10FA72006DF0CB0E026EFF0E036E080E046EFEECEE
:10FA820070F03BEC6EF0010E026E000EBEEC6DF0FB
:10FA92005F0E026EFF0E036E080E046EFEEC70F037
:10FAA200060EDEEC73F0100E436E940EE82EFED7B7
:10FAB200432EFCD700D0400E016E900E8AEC6CF003
:10FAC2004DEC71F00001BB6B000EBA6F83EC74F069
:10FAD20009C0BAF00AC0BBF0F00E206EFF0E216E14
:10FAE200BAC022F0BBC023F0BAEC6CF0070E446E31
:10FAF200170E436E6A0EE82EFED7432EFCD7442E15
:10FB0200FAD700D063EF7DF0FEEF7FF00000000037
:10FB120000000000000000000000000000000000E3
:10FB220000000000000000000000000000000000D3
:10FB32000000000920506C6561736520656E746574
:10FB42007220746865207475726E696E67206469CC
:10FB520066666572656E7469616C3A20737065657C
:10FB620064202B20646966666572656E7469616CD7
:10FB7200203C20313237200D0A002020762009094E
:10FB8200202876296F6C74616765202D205265618B
:10FB92006420616E6420646973706C6179206261B3
:10FBA200747465727920766F6C74616765200D0AD2
:10FBB20000496E76616C696420696E7075742E20DE
:10FBC200506C65617365207265646F206E756D653A
:10FBD200726963616C20696E7075742E200D0A0063
:10FBE2000920506C6561736520656E7465722074BE
:10FBF2006865206261636B7761726420737065650A
:10FC0200642C2030202D20313237200D0A000920AB
:10FC1200506C6561736520656E74657220746865E9
:10FC220020666F72776172642073706565642C2040
:10FC320030202D20313237200D0A00506C6163656F
:10FC420020616C6C20666976652073656E736F72D5
:10FC520073206F6E206120776869746520737572F6
:10FC620066616365200A0D00506C61636520616CFA
:10FC72006C20666976652073656E736F7273206F90
:10FC82006E206120626C61636B20737572666163C2
:10FC920065200A0D00496E76616C696420656E7498
:10FCA20072792E2020456E7465722073656E736FB3
:10FCB20072206E756D6265722C20302D34200A0D13
:10FCC20000202072200909202872296561642063BE
:10FCD200616C696272617465642073656E736F72C0
:10FCE20073200D0A0020204220090920576865650B
:10FCF2006C7320726F746174652028422961636B92
:10FD020077617264200D0A002020642009092028EE
:10FD120064296973706C61792073656E736F7220E8
:10FD2200782076616C7565200D0A00202046200936
:10FD32000920576865656C7320726F746174652061
:10FD42002846296F7277617264200D0A00092A2001
:10FD520020202020202020202020202020202020A1
:10FD620020202020202020202020202A0D0A0009E7
:10FD72002A202020202020446961676E6F737469F5
:10FD820063204D656E75202020202020202A0D0A38
:10FD920000092A2020204150534320313239392092
:10FDA2002D20506F6C6F6C75203370692020202AD3
:10FDB2000D0A00092A2A2A2A2A2A2A2A2A2A2A2A29
:10FDC2002A2A2A2A2A2A2A2A2A2A2A2A2A2A2A2A91
:10FDD2002A2A0D0A002020632009092028632961AC
:10FDE2006C6962726174652073656E736F727320E1
:10FDF2000D0A0057686974652063616C69627261FB
:10FE020074696F6E20636F6D706C657465200A0D86
:10FE120000426C61636B2063616C69627261746938
:10FE22006F6E20636F6D706C657465200A0D004300
:10FE32006F6D6D616E64204B657920092044657396
:10FE42006372697074696F6E200D0A005072657377
:10FE52007320616E79206B657920746F20636F6EF9
:10FE620074696E7565200A0D0020206D2009092035
:10FE72005265667265736820286D29656E75200D5E
:10FE82000A0043616C6962726174696F6E20636F0C
:10FE92006D706C657465200A0D0042617474657240
:10FEA2007920766F6C74616765203D202575200A84
:10FEB2000D00202052200909202852296967687400
:10FEC200207475726E200D0A00202053200909202B
:10FED200285329746F70206D6F746F72200D0A00A1
:10FEE20020204C20090920284C296566742074754D
:10FEF200726E200D0A0053656E736F722025752095
:10FF02003D202575200A0D0053656E736F72202502
:10FF1200643A2025750A0053656E736F722E202590
:10FF2200642025750A0043616C6962726174650020
:10FF3200202020474F2020200020205345542020FD
:10FF42002000202052756E2020200020524541447E
:10FF52005920200020205265616420200020206466
:10FF62006F6E65202000202053746F7020200020C7
:10FF7200202575207320200020204C6566742020E7
:10FF820000205269676874202000466F72776172A0
:10FF920064200053656E736F727320004261747443
:10FFA20065727920004261636B7761726400446913
:10FFB20061676E6F736500436F6D706C6574650089
:10FFC200436F756E74696E67004175746F2043618B
:10FFD2006C0053656E736F72200053656E736F729F
:10FFE20073002575206D5600257520257500256442
:09FFF200200A0020257520000002
:04FFFC0071EF6DF044
:020000040030CA
:0A000000ECFEF7FF9FFFFFFFFFFF7C
:00000001FF
