:04000000FEEF7FF0A0
:10D1FC00120012001200120012001200B88E12005F
:10D20C00B89E1200000E15EC6CF01200026E02506B
:10D21C0082EC69F0120001C0FBF002C0FCF01200BD
:10D22C0001C05EF002C05FF0120001C05CF002C0F1
:10D23C005DF0120001C0F5F002C0F6F0120001C062
:10D24C00F9F002C0FAF0120001C0F7F002C0F8F0D9
:10D25C001200FEFFFFFF0000010002001050B76E2D
:10D26C0060003FF0B6FF12004AEC69F036EC6FF04C
:10D27C0041EC69F01200600E3901D96FDB6BDD6B8C
:10D28C00070EDF6FDE6B12003901C06BC16BC26B16
:10D29C00C36BC46BC56BC66BC76B12003901A3B7EC
:10D2AC005AEF69F05DEF69F0010E5EEF69F0000E68
:10D2BC001200026E60000BF0B8FF600007F0B9FFBF
:10D2CC00B89E3901A39F12003901A6B570EF69F021
:10D2DC0073EF69F0010E74EF69F0000E1200016E2D
:10D2EC003901A3A97CEF69F07EEF69F076EF69F064
:10D2FC00600007F0EAFD1200016E3901A6A789EF64
:10D30C0069F08BEF69F083EF69F0600007F0D2FDF4
:10D31C001200220E266E000E1A6E20C01BF021C0C9
:10D32C001CF0260E1D6EEDEC6AF01200C9EC69F0D3
:10D33C000009D8B4A4EF69F0A6EF69F09CEF69F08E
:10D34C00B70E75EC69F01200C9EC69F00009D8B49D
:10D35C00B2EF69F0B4EF69F0AAEF69F0BC0E75ECAE
:10D36C0069F012006F00D8FE07F06F00DCFE08F0C9
:10D37C000850036E0750056E03C006F005C001F09F
:10D38C0006C002F01200016A3901A3A9D0EF69F0BE
:10D39C00D2EF69F0DCEF69F03D01F2ABD8EF69F048
:10D3AC00DAEF69F0DCEF69F0010E016E015012004A
:10D3BC00016A3901A6A7E5EF69F0E7EF69F0F1EF33
:10D3CC0069F03D01DAABEDEF69F0EFEF69F0F1EFE9
:10D3DC0069F0010E016E0150120008BEF8EF69F001
:10D3EC00FAEF69F000EF6AF007C007F008C008F028
:10D3FC000CEF6AF007C009F008C00AF0091E0A1EFB
:10D40C00094A0A2A09C007F00AC008F012005E0E89
:10D41C00F66ED20EF76E000EF86E00EEEBF010EE1C
:10D42C000AF009006F00D7FFEEFFE550E150F9E17B
:10D43C0000EE60F0580EEE6AE806FDE100EE47F0F3
:10D44C00150EEE6AE806FDE1000193EF76F0230E6F
:10D45C00296E20C02AF02D6A000E2C6E346A000E44
:10D46C00336E2A0E1A6E21C01BF022C01CF0290E3E
:10D47C001D6EEDEC6AF01AC027F01BC028F020508E
:10D48C002C24D96EDA6ADF6A27C020F028C021F07C
:10D49C0012003D01D46BD66BD86BB00EDA6F800ED8
:10D4AC00DB6FDC6BE10EDD6F040EDE6FDF6BE06BB0
:10D4BC00E16BE26B040E016ED20E026E25EC69F08C
:10D4CC00060E016ED20E026E2AEC69F0020E016E8F
:10D4DC00D20E026E20EC69F05A6A12003D01EC6B20
:10D4EC00ED6BEE6BEF6BF06BF16BB00EF26F800EC1
:10D4FC00F36FF46B670EF56FF66BF76BF86BF96BFC
:10D50C00FA6BFE0E016ED10E026E16EC69F0000E77
:10D51C00016ED20E026E1BEC69F0FC0E016ED10E88
:10D52C00026E11EC69F05B6A1200036EC9EC69F0D3
:10D53C000009D8B4A4EF6AF0A6EF6AF09CEF6AF089
:10D54C00B90E75EC69F0C9EC69F00009D8B4B1EF0B
:10D55C006AF0B3EF6AF0A9EF6AF0035075EC69F06A
:10D56C00C9EC69F00009D8B4BEEF6AF0C0EF6AF0FC
:10D57C00B6EF6AF0025075EC69F01200026EC9EC5D
:10D58C0069F00009D8B4CDEF6AF0CFEF6AF0C5EFBF
:10D59C006AF0B80E75EC69F0C9EC69F00009D8B402
:10D5AC00DAEF6AF0DCEF6AF0D2EF6AF0010E75EC9C
:10D5BC0069F0C9EC69F00009D8B4E7EF6AF0E9EF5B
:10D5CC006AF0DFEF6AF0025075EC69F012001BC0D4
:10D5DC001EF01CC01FF0526A000E516E02EF6BF071
:10D5EC001AC00BF01E0E0C6E1DC00DF0F8EC74F092
:10D5FC000B5051260C50522260007BF0F6FF60005D
:10D60C007FF0F7FFF86A0800F5500009D8A411EF75
:10D61C006BF013EF6BF0F6EF6AF051C01AF052C0DA
:10D62C001BF01200C9EC69F00009D8B420EF6BF0C4
:10D63C0022EF6BF018EF6BF0BA0E75EC69F054EC4E
:10D64C0069F00009D8B42DEF6BF02FEF6BF025EFDC
:10D65C006BF03BEF6BF054EC69F00009D8B439EF88
:10D66C006BF03BEF6BF031EF6BF0B1EC6DF0630AEC
:10D67C00D8A443EF6BF045EF6BF031EF6BF0120079
:10D68C00C9EC69F00009D8B44EEF6BF050EF6BF0B9
:10D69C0046EF6BF0B10E75EC69F054EC69F00009D3
:10D6AC00D8B45BEF6BF05DEF6BF053EF6BF0B1EC5C
:10D6BC006DF0066E54EC69F00009D8B468EF6BF0AD
:10D6CC006AEF6BF060EF6BF0B1EC6DF0076E07502A
:10D6DC00056E046A06500424026E000E0520036ECB
:10D6EC00120003500410D8B47EEF6BF080EF6BF097
:10D6FC00A4EF6BF0010E056E88EF6BF0D89003363B
:10D70C000436052A04AE8DEF6BF08FEF6BF084EFCF
:10D71C006BF00350015C04500258D8A098EF6BF0EA
:10D72C009AEF6BF09EEF6BF00350015E0450025ABF
:10D73C00D89004320332052E8FEF6BF001C001F04C
:10D74C0002C002F01200026EC9EC69F00009D8B4F4
:10D75C00B2EF6BF0B4EF6BF0AAEF6BF0C20E75EC9E
:10D76C0069F0C9EC69F00009D8B4BFEF6BF0C1EFF8
:10D77C006BF0B7EF6BF0025075EC69F0C9EC69F027
:10D78C000009D8B4CCEF6BF0CEEF6BF0C4EF6BF0BC
:10D79C00C60E75EC69F0C9EC69F00009D8B4D9EF84
:10D7AC006BF0DBEF6BF0D1EF6BF0022875EC69F0EE
:10D7BC001200036EC9EC69F00009D8B4E8EF6BF005
:10D7CC00EAEF6BF0E0EF6BF0C10E75EC69F0C9ECB1
:10D7DC0069F00009D8B4F5EF6BF0F7EF6BF0EDEFF3
:10D7EC006BF0035075EC69F0C9EC69F00009D8B422
:10D7FC0002EF6CF004EF6CF0FAEF6BF0C60E75EC08
:10D80C0069F0C9EC69F00009D8B40FEF6CF011EFB6
:10D81C006CF007EF6CF0032875EC69F01200026EE7
:10D82C00C9EC69F00009D8B41EEF6CF020EF6CF075
:10D83C0016EF6CF0C10E75EC69F0C9EC69F00009DB
:10D84C00D8B42BEF6CF02DEF6CF023EF6CF0025092
:10D85C0075EC69F0C9EC69F00009D8B438EF6CF0DC
:10D86C003AEF6CF030EF6CF0C50E75EC69F0C9EC6A
:10D87C0069F00009D8B445EF6CF047EF6CF03DEF60
:10D88C006CF0022875EC69F01200036EC9EC69F0BB
:10D89C000009D8B454EF6CF056EF6CF04CEF6CF010
:10D8AC00C50E75EC69F0C9EC69F00009D8B461EFEC
:10D8BC006CF063EF6CF059EF6CF0035075EC69F0A1
:10D8CC00C9EC69F00009D8B46EEF6CF070EF6CF035
:10D8DC0066EF6CF0C20E75EC69F0C9EC69F00009EA
:10D8EC00D8B47BEF6CF07DEF6CF073EF6CF0032829
:10D8FC0075EC69F01200036EC9EC69F00009D8B43C
:10D90C008AEF6CF08CEF6CF082EF6CF0C10E75EC62
:10D91C0069F0C9EC69F00009D8B497EF6CF099EF95
:10D92C006CF08FEF6CF00350022475EC69F0C9ECCD
:10D93C0069F00009D8B4A5EF6CF0A7EF6CF09DEF7F
:10D94C006CF0C50E75EC69F0C9EC69F00009D8B43F
:10D95C00B2EF6CF0B4EF6CF0AAEF6CF0032875EC3E
:10D96C0069F01200066A000E056E03500410D8B45C
:10D97C00C2EF6CF0C4EF6CF0ECEF6CF0010E076EC4
:10D98C00CCEF6CF0D89003360436072A04AED1EFF6
:10D99C006CF0D3EF6CF0C8EF6CF0D890053606360F
:10D9AC000350015C04500258D8A0DFEF6CF0E1EF9B
:10D9BC006CF0E6EF6CF00350015E0450025A0580E7
:10D9CC00D89004320332072ED3EF6CF005C001F06F
:10D9DC0006C002F01200046EC9EC69F00009D8B45C
:10D9EC00FAEF6CF0FCEF6CF0F2EF6CF0C10E75EC32
:10D9FC0069F0C9EC69F00009D8B407EF6DF009EFD4
:10DA0C006DF0FFEF6CF0045075EC69F0C9EC69F047
:10DA1C000009D8B414EF6DF016EF6DF00CEF6DF04B
:10DA2C00C50E75EC69F0C9EC69F00009D8B421EFAA
:10DA3C006DF023EF6DF019EF6DF004500224036EBE
:10DA4C00032875EC69F012002868276A62EF6DF004
:10DA5C006DEC6DF0286E0D0E2818D8A438EF6DF013
:10DA6C003AEF6DF03CEF6DF062EF6DF02F0E286425
:10DA7C0042EF6DF044EF6DF04CEF6DF0390E286411
:10DA8C004AEF6DF04CEF6DF05CEF6DF0C20E206E56
:10DA9C00FC0E216E8FEC69F0B50E206EFB0E216E24
:10DAAC008FEC69F0276A286862EF6DF027500A0D39
:10DABC00F3502824D00F276E0D0E2818D8A469EF28
:10DACC006DF06BEF6DF02EEF6DF0275012000268C9
:10DADC0096EF6DF06AEC69F00009D8B478EF6DF050
:10DAEC007AEF6DF096EF6DF0FCEC6DF0026EDEEC03
:10DAFC0069F00009D8B485EF6DF087EF6DF096EF03
:10DB0C006DF0025082EC69F00D0E0218D8A491EF62
:10DB1C006DF093EF6DF096EF6DF00A0E82EC69F0FC
:10DB2C002F0E02649CEF6DF09EEF6DF0A6EF6DF082
:10DB3C007A0E0264A4EF6DF0A6EF6DF0AFEF6DF00E
:10DB4C000D0E0218D8A4ADEF6DF0AFEF6DF070EFC5
:10DB5C006DF0025012003901A3A7B7EF6DF0B9EFC9
:10DB6C006DF0B1EF6DF05B6A3D01F9A7C0EF6DF0A0
:10DB7C00C2EF6DF0CFEF6DF05B8202D8CFEF6DF09E
:10DB8C000500FA6E5E50FD6E5F50FE6EFF6AFA5035
:10DB9C0012003D01F9A3D5EF6DF0D7EF6DF0E4EF76
:10DBAC006DF05B8402D8E4EF6DF00500FA6E5C500A
:10DBBC00FD6E5D50FE6EFF6AFA5012005B50D8B4D9
:10DBCC00EAEF6DF0ECEF6DF0F9EF6DF002D8F9EFD4
:10DBDC006DF00500FA6E0001FB51FD6EFC51FE6EFE
:10DBEC00FF6AFA5012003D01E85112003901A6A556
:10DBFC0002EF6EF004EF6EF0FCEF6DF05A6A3D012F
:10DC0C00E1A70BEF6EF00DEF6EF01BEF6EF05A828A
:10DC1C0002D81BEF6EF00500FA6E0001F951FD6E93
:10DC2C00FA51FE6EFF6AFA5012003D01E1A321EF9A
:10DC3C006EF023EF6EF031EF6EF05A8402D831EFB4
:10DC4C006EF00500FA6E0001F751FD6EF851FE6E94
:10DC5C00FF6AFA5012005A50D8B437EF6EF039EF11
:10DC6C006EF046EF6EF002D846EF6EF00500FA6EDD
:10DC7C000001F551FD6EF651FE6EFF6AFA5012006E
:10DC8C003D01D0511200076AC9EC69F00009D8B403
:10DC9C0052EF6EF054EF6EF04AEF6EF0B80E75EC7A
:10DCAC0069F0C9EC69F00009D8B45FEF6EF061EF70
:10DCBC006EF057EF6EF0045075EC69F08EEF6EF06D
:10DCCC00C9EC69F00009D8B46EEF6EF070EF6EF02D
:10DCDC008EEF6EF007500224056E000E0320066EC8
:10DCEC00600017F0F6FF60001BF0F7FF000EF86EF7
:10DCFC000F0EF76403D00800F55007D06F00DBFF60
:10DD0C00E9FF6F00DFFFEAFFEF5075EC69F0072ABF
:10DD1C000450075CD8A095EF6EF097EF6EF066EFAD
:10DD2C006EF01200C9EC69F00009D8B4A0EF6EF0E7
:10DD3C00A2EF6EF098EF6EF0BB0E75EC69F0C9ECCB
:10DD4C0069F00009D8B4ADEF6EF0AFEF6EF0A5EF4F
:10DD5C006EF0140E75EC69F0C9EC69F00009D8B4DA
:10DD6C00BAEF6EF0BCEF6EF0B2EF6EF0010E75EC28
:10DD7C0069F0C9EC69F00009D8B4C7EF6EF0C9EFCF
:10DD8C006EF0BFEF6EF0140E75EC69F0C9EC69F033
:10DD9C000009D8B4D4EF6EF0D6EF6EF0CCEF6EF085
:10DDAC00030E75EC69F0C9EC69F00009D8B4E1EF29
:10DDBC006EF0E3EF6EF0D9EF6EF0020E75EC69F0D9
:10DDCC001200156E06EC69F0470E016E900E5FECBA
:10DDDC0069F01550056E066A076A086A670E016ECF
:10DDEC00000E026E0F0E036E000E046E41EC71F00D
:10DDFC0001C011F002C012F003C013F004C014F003
:10DE0C0011C001F012C002F013C003F014C004F0F2
:10DE1C00080E056E000E066E000E076E000E086EE4
:10DE2C0041EC71F0015000080F6E0250D8A0E82AA6
:10DE3C000008106E34EC69F03901A39F04EC69F012
:10DE4C00155015EC6CF03901A3AF2FEF6FF031EFDB
:10DE5C006FF029EF6FF008EC69F006EC69F0120036
:10DE6C00BE6ABD6ABA6ABB6ABC6A070EC66EC26875
:10DE7C00BF0EC36E840EC46EC5683A01706B606BC6
:10DE8C002F0E506F070E806FEF0E406F716B816B12
:10DE9C00516B416B616B5A6B5B6B6A6B6B6B7A6B27
:10DEAC007B6B826B426B526B180E626F726B4369A9
:10DEBC00536963697369070E836F446954696469B4
:10DECC0074690F0E846F0F0EE86F250E106F160E0F
:10DEDC000E6F210E136F0F0E116F220E146F170E93
:10DEEC00E56F040EC36F130EE16F0C0EDD6F140E95
:10DEFC00E26F120ECA6F0D0E156F130E166F120015
:10DF0C00AAEC69F0140E15EC6CF0160E176E4F0E91
:10DF1C00166E7B0EE82EFED7162EFCD7172EFAD7D0
:10DF2C00000008EC69F051EC72F0B90E145C0B0EA9
:10DF3C001558D8A0A4EF6FF0A6EF6FF0BAEF6FF002
:10DF4C001E0E026E1E0EDFEC6BF051EC72F0000137
:10DF5C00A951D8B4B4EF6FF0B6EF6FF0ABEF6FF030
:10DF6C0008EC69F0D7EF6FF0B80E145C0B0E155877
:10DF7C00D8B0C3EF6FF0C5EF6FF0D7EF6FF01E0E98
:10DF8C00026E1E0E4BEC6CF051EC72F00001A951BC
:10DF9C00D8B4D3EF6FF0D5EF6FF0CAEF6FF0B6EFE8
:10DFAC006FF098EC6EF012000550D8B4E0EF6FF003
:10DFBC00E2EF6FF0EAEF6FF00550D8A4E8EF6FF0E6
:10DFCC00EAEF6FF0EFEF6FF003500CEC69F02FEF0E
:10DFDC0070F00550D96EDA6A090ED926DE50DE10C3
:10DFEC00D8B4FBEF6FF0FDEF6FF016EF70F005504B
:10DFFC00D96EDA6A090ED9260550E16EE26A020E74
:10E00C00E126DE50E65CE650800A0A6EDE50800A9D
:10E01C000A58D8B014EF70F016EF70F02FEF70F0C4
:10E02C000550D96EDA6A020ED926DF50066E0550FD
:10E03C00D96EDA6ADF500624D96EDA6A60000FF006
:10E04C00DFFF0550D96EDA6A020ED926DE2A000EE1
:10E05C00DD221200066A02BE38EF70F036EF70F067
:10E06C003EEF70F0016C021ED8B0022A010E066E53
:10E07C0004BE45EF70F043EF70F049EF70F0036CA5
:10E08C00041ED8B0042A03500410D8B450EF70F01A
:10E09C0052EF70F076EF70F0010E056E5AEF70F0E3
:10E0AC00D89003360436052A04AE5FEF70F061EFAA
:10E0BC0070F056EF70F00350015C04500258D8A079
:10E0CC006AEF70F06CEF70F070EF70F00350015E5F
:10E0DC000450025AD89004320332052E61EF70F0CE
:10E0EC000650D8B47CEF70F07EEF70F082EF70F0D9
:10E0FC00016C021ED8B0022A01C001F002C002F06D
:10E10C001200C9EC69F00009D8B48FEF70F091EFF0
:10E11C0070F087EF70F0B40E75EC69F0126A54EC85
:10E12C0069F00009D8B49DEF70F09FEF70F095EF97
:10E13C0070F01250080FD96EDA6AB1EC6DF0DF6E28
:10E14C0054EC69F00009D8B4AEEF70F0B0EF70F099
:10E15C00A6EF70F012500D0FD96EDA6AB1EC6DF0BB
:10E16C00DF6E12500D0FD96EDA6ADF50046E045058
:10E17C00066E056A1250080FD96EDA6ADF50076E08
:10E18C0007500526000E06221250020DF350AE0F5A
:10E19C00D96EDA6A600017F0DEFF60001BF0DDFF5D
:10E1AC00122A040E1264DDEF70F0DFEF70F095EFC1
:10E1BC0070F0AE0E1200066A04BEE9EF70F0E7EFE5
:10E1CC0070F0EFEF70F0036C041ED8B0042A010E4F
:10E1DC00066E02BEF6EF70F0F4EF70F0FCEF70F02C
:10E1EC00016C021ED8B0022A010E061A086A000E33
:10E1FC00076E03500410D8B406EF71F008EF71F0FD
:10E20C0030EF71F0010E056E10EF71F0D8900336FF
:10E21C000436052A04AE15EF71F017EF71F00CEF10
:10E22C0071F0D890073608360350015C0450025840
:10E23C00D8A023EF71F025EF71F02AEF71F00350A5
:10E24C00015E0450025A0780D89004320332052E26
:10E25C0017EF71F00650D8B436EF71F038EF71F05B
:10E26C003CEF71F0076C081ED8B0082A07C001F00B
:10E27C0008C002F012000A6A08BE49EF71F047EFBD
:10E28C0071F053EF71F0081E071E061E056C000E90
:10E29C00062207220822010E0A6E04BE5AEF71F004
:10E2AC0058EF71F064EF71F0041E031E021E016C36
:10E2BC00000E022203220422010E0A1A000E0B6E1B
:10E2CC00000E0C6E000E0D6E000E0E6E055006103C
:10E2DC0007100810D8B475EF71F077EF71F0ADEF4F
:10E2EC0071F0010E096E81EF71F0D890053606368B
:10E2FC0007360836092A08AE86EF71F088EF71F000
:10E30C007BEF71F0D8900B360C360D360E3605506F
:10E31C00015C065002580750035808500458D8A006
:10E32C009AEF71F09CEF71F0A5EF71F00550015E62
:10E33C000650025A0750035A0850045A0B80D890C2
:10E34C000832073206320532092E88EF71F00A5076
:10E35C00D8B4B3EF71F0B5EF71F0BDEF71F00E1EE4
:10E36C000D1E0C1E0B6C000E0C220D220E220BC06F
:10E37C0001F00CC002F00DC003F00EC004F012004E
:10E38C00E10E206EFB0E216E8FEC69F0B70E206E45
:10E39C00FD0E216E8FEC69F0510E206EFD0E216E7C
:10E3AC008FEC69F0950E206EFD0E216E8FEC69F0EE
:10E3BC00730E206EFD0E216E8FEC69F0510E206EE7
:10E3CC00FD0E216E8FEC69F0B70E206EFD0E216EE6
:10E3DC008FEC69F0C20E206EFC0E216E8FEC69F092
:10E3EC00330E206EFE0E216E8FEC69F0D90E206E6E
:10E3FC00FD0E216E8FEC69F0C50E206EFC0E216EA9
:10E40C008FEC69F00C0E206EFD0E216E8FEC69F016
:10E41C00E10E206EFB0E216E8FEC69F07E0E206EED
:10E42C00FB0E216E8FEC69F0E10E206EFB0E216E5F
:10E43C008FEC69F02F0E206EFD0E216E8FEC69F0C3
:10E44C00E90E206EFC0E216E8FEC69F0E40E206E4E
:10E45C00FE0E216E8FEC69F0B60E206EFE0E216E54
:10E46C008FEC69F0CD0E206EFE0E216E8FEC69F0F4
:10E47C00E10E206EFB0E216E8FEC69F06D0E206E9E
:10E48C00FE0E216E8FEC69F0C20E206EFC0E216E1A
:10E49C008FEC69F01200C9EC69F00009D8B459EF9F
:10E4AC0072F05BEF72F051EF72F0870E75EC69F061
:10E4BC00136A000E126E54EC69F00009D8B469EFBF
:10E4CC0072F06BEF72F061EF72F01250060FD96EB2
:10E4DC00DA6AB1EC6DF0DF6E54EC69F00009D8B477
:10E4EC007AEF72F07CEF72F072EF72F012500B0F49
:10E4FC00D96EDA6AB1EC6DF0DF6E12500B0FD96E7B
:10E50C00DA6ADF50026E0250046E036A1250060F74
:10E51C00D96EDA6ADF50056E05500326000E042210
:10E52C001250020DF350470FD96EDA6A60000FF0EB
:10E53C00DEFF600013F0DDFF124A132A13BEB0EFAA
:10E54C0072F0135009E1050E125CD8A0B0EF72F016
:10E55C00B2EF72F061EF72F0116A000E106E105093
:10E56C00020DF350470FD96EDA6A5E0EDE5C010EB7
:10E57C00DE58D8A0C4EF72F0C6EF72F0CEEF72F096
:10E58C001050A70FD96EDA6A010EDF6ED3EF72F05E
:10E59C001050A70FD96EDA6ADF6A104A112A11BE21
:10E5AC00E1EF72F0115009E1050E105CD8A0E1EF1B
:10E5BC0072F0E3EF72F0B5EF72F01200AAEC69F0B2
:10E5CC00196A000E186E0A0EE7EC6EF051EC72F040
:10E5DC000001A705D8B4F5EF72F0F7EF72F017EF62
:10E5EC0073F0A805D8B4FDEF72F0FFEF72F017EFDF
:10E5FC0073F0A905D8B405EF73F007EF73F017EFBC
:10E60C0073F0AA05D8B40DEF73F00FEF73F017EF9A
:10E61C0073F0AB05D8A415EF73F017EF73F01BEF85
:10E62C0073F098EC6EF080EF73F0184A192A19BE4B
:10E63C0029EF73F0195009E1080E185CD8A029EFE6
:10E64C0073F02BEF73F0E9EF72F03C0E026E3C0EA0
:10E65C00DFEC6BF0100E176E390E166E0E0EE82EE8
:10E66C00FED7162EFCD7172EFAD708EC69F01B6ACA
:10E67C00000E1A6E0A0EE7EC6EF051EC72F000010F
:10E68C00A705D8B44CEF73F04EEF73F017EF73F09F
:10E69C00A805D8B454EF73F056EF73F017EF73F07E
:10E6AC00A905D8B45CEF73F05EEF73F017EF73F05D
:10E6BC00AA05D8B464EF73F066EF73F017EF73F03C
:10E6CC00AB05D8A46CEF73F06EEF73F070EF73F0D2
:10E6DC0017EF73F01A4A1B2A1BBE7EEF73F01B5008
:10E6EC0009E1080E1A5CD8A07EEF73F080EF73F08E
:10E6FC0040EF73F01200406E40C042F09CEC69F0A9
:10E70C00C40E026EFF0E036E080E046E49EC6EF022
:10E71C00480E016E900E5FEC69F004EC69F0010E8E
:10E72C00026E000E9BEC6AF0350E206E730E216E9D
:10E73C00FF0E226E42C023F0246A2DEC6AF02050AA
:10E74C00416E350E026E036A41C004F049EC6EF066
:10E75C001BEF74F0B8EC69F001C03EF002C03FF062
:10E76C001B0E3E5CB70E3F58D8A0BFEF73F0C1EF45
:10E77C0073F01BEF74F04206106A000E0F6E34EC4F
:10E78C0069F00CEF74F09CEC69F0010E026E000E57
:10E79C009BEC6AF0340E026EFF0E036E080E046ED4
:10E7AC0049EC6EF01BEF74F0010E026E000E9BEC48
:10E7BC006AF03D0E026EFF0E036E080E046E49ECFD
:10E7CC006EF01BEF74F0010E026E000E9BEC6AF003
:10E7DC004F0E026EFF0E036E080E046E49EC6EF0C7
:10E7EC001BEF74F0010E026E000E9BEC6AF0350EFE
:10E7FC00206E730E216EFF0E226E42C023F0246A2F
:10E80C002DEC6AF02050416EA7EF73F04250000AD5
:10E81C00D8B4C9EF73F0010AD8B4DAEF73F0030A75
:10E82C00D8B4E9EF73F0F8EF73F04250D8A421EFAD
:10E83C0074F023EF74F0B0EF73F006EC69F0120093
:10E84C000B0E1F6EB80E1E6E20EEEBF010EE0AF0E3
:10E85C00090E6F006FFFE3FFE806FBE2C9EC69F0FD
:10E86C000009D8B43CEF74F03EEF74F034EF74F060
:10E87C00870E75EC69F0216A000E206E54EC69F07D
:10E88C000009D8B44CEF74F04EEF74F044EF74F010
:10E89C002050140FD96EDA6AB1EC6DF0DF6E54ECC7
:10E8AC0069F00009D8B45DEF74F05FEF74F055EFC8
:10E8BC0074F02050190FD96EDA6AB1EC6DF0DF6E7E
:10E8CC002050190FD96EDA6ADF50046E0450066EB0
:10E8DC00056A2050140FD96EDA6ADF50076E0750A4
:10E8EC000526000E06222050020DF350470FD96E5C
:10E8FC00DA6A600017F0DEFF60001BF0DDFF204AD3
:10E90C00212A21BE93EF74F0215009E1050E205C01
:10E91C00D8A093EF74F095EF74F044EF74F0236A81
:10E92C00000E226E2250020DF350470FD96EDA6A98
:10E93C006F0078FF04F06F0074FF05F02250020D99
:10E94C00F3500A0FD96EDA6A6F0078FF06F06F0089
:10E95C0074FF07F0045006026F00CCFF08F06F0044
:10E96C00D0FF09F00702F350092605500602F350B8
:10E97C0009261E5008241E6E1F5009201F6E22509F
:10E98C00020DF350470FD96EDA6A5E0EDE5C010E93
:10E99C00DE58D8A0D4EF74F0D6EF74F0DEEF74F03C
:10E9AC002250A70FD96EDA6A010EDF6EE3EF74F016
:10E9BC002250A70FD96EDA6ADF6A224A232A23BEB5
:10E9CC00F1EF74F0235009E1050E225CD8A0F1EFB1
:10E9DC0074F0F3EF74F098EF74F01EC002F01FC0E7
:10E9EC0003F01200126A000E116E0C50D96EDA6A26
:10E9FC006F007BFFF6FF6F0077FFF7FFF86A0800E8
:10EA0C00F550250AD8A40DEF75F00FEF75F077EFE0
:10EA1C0076F00C50D96EDA6ADE2A000EDD22546ACA
:10EA2C00000E536E53C059F0556856680C50D96E91
:10EA3C00DA6A6F0078FF13F06F0074FF14F0600057
:10EA4C004FF0F6FF600053F0F7FFF86A0800F5503E
:10EA5C00640AD8B434EF75F036EF75F047EF75F003
:10EA6C0060004FF0F6FF600053F0F7FFF86A080003
:10EA7C00F550690AD8A445EF75F047EF75F0DFEF54
:10EA8C0075F00D50D96EDA6A020EDF26DF5CD96E96
:10EA9C00DA6A6F0078FF15F06F0078FF16F0010E40
:10EAAC0013240E6E000E14200F6E0C50D96EDA6A01
:10EABC0060003BF0DEFF60003FF0DDFF200E196EC2
:10EACC0016BE6BEF75F06EEF75F0010E6FEF75F013
:10EADC00000E106E19061950600FD96EDA6A15C047
:10EAEC0001F016C002F0046A0A0E036E30EC70F0EE
:10EAFC0001C007F002C008F0F3EC69F00750300FCA
:10EB0C00DF6E15C001F016C002F0046A0A0E036E27
:10EB1C00E1EC70F001C015F002C016F0114A122A97
:10EB2C0015501610D8B49DEF75F09FEF75F0A7EF48
:10EB3C0075F01950D8A4A5EF75F0A7EF75F070EF2C
:10EB4C0075F01950D8B4ADEF75F0AFEF75F0D0EF9C
:10EB5C0075F01050D8B4B5EF75F0B7EF75F0D0EF85
:10EB6C0075F019061950600FD96EDA6A2D0EDF6E2A
:10EB7C00114A122AD0EF75F01950600FD96EDA6A6B
:10EB8C00DF500E6E0E50036E046A0BC005F0DAEC0B
:10EB9C006FF0192A200E1918D8A4D7EF75F0D9EFF9
:10EBAC0075F0C2EF75F011C00BF012C00CF092EFC3
:10EBBC0076F060004FF0F6FF600053F0F7FFF86A54
:10EBCC000800F550750AD8A4EEEF75F0F0EF75F06B
:10EBDC006CEF76F00D50D96EDA6A020EDF26DF5C30
:10EBEC00D96EDA6A6F0078FF15F06F0078FF16F0B7
:10EBFC00010E13240E6E000E14200F6E0C50D96EE5
:10EC0C00DA6A60003BF0DEFF60003FF0DDFF5DEF95
:10EC1C0076F0200E196E19061950600FD96EDA6A4B
:10EC2C0015C001F016C002F0046A0A0E036E77ECF0
:10EC3C006BF00150300FDF6E15C001F016C002F002
:10EC4C00046A0A0E036EB8EC6CF001C015F002C039
:10EC5C0016F0114A122A15501610D8B438EF76F067
:10EC6C003AEF76F052EF76F01950D8A440EF76F0E8
:10EC7C0042EF76F011EF76F052EF76F01950600F0C
:10EC8C00D96EDA6ADF500E6E0E50036E046A0BC03A
:10EC9C0005F0DAEC6FF0192A200E1918D8A459EFE8
:10ECAC0076F05BEF76F044EF76F0D9EF75F060001C
:10ECBC004FF0F6FF600053F0F7FFF86A0800F550CC
:10ECCC00750AD8B40FEF76F06CEF76F00C50D96E65
:10ECDC00DA6ADE2A000EDD220C6A000E0B6E92EF51
:10ECEC0076F00C50D96EDA6A6F007BFFF6FF6F007E
:10ECFC0077FFF7FFF86A0800F550036E046A0BC043
:10ED0C0005F0DAEC6FF00C50D96EDA6ADE2A000EE0
:10ED1C00DD220C6A010E0B6E12003AEC69F036EC37
:10ED2C006FF074EC6AF04FEC6AF0C38A3A01509BB6
:10ED3C00CBBAA3EF76F0A5EF76F056EF7CF0C6ECED
:10ED4C0071F09CEC69F0000E026E000E9BEC6AF008
:10ED5C00B20E026EFF0E036E080E046E49EC6EF0DE
:10ED6C0046EC6BF002C0E1F003C0E2F0CD0E206E79
:10ED7C00E60E216EFF0E226EE1C023F0E2C024F0FD
:10ED8C002DEC6AF020500001E86F010E026E000EAF
:10ED9C009BEC6AF0CD0E026E036AE8C004F049ECFD
:10EDAC006EF06DEC6DF00001DA6F2BEF7CF09CECEB
:10EDBC0069F0000E026E000E9BEC6AF02A0E026ED9
:10EDCC00FF0E036E080E046E49EC6EF0010E026E1F
:10EDDC00000E9BEC6AF0970E026EFF0E036E080E8F
:10EDEC00046E49EC6EF0C20E206EFC0E216E8FECA0
:10EDFC0069F00001D66B61EF77F03F0E206EFC0ED0
:10EE0C00216E8FEC69F0500E206EFE0E216E8FEC91
:10EE1C0069F06DEC6DF00001B86F87EC70F00001DB
:10EE2C00DE6FE06B000EDF6FE96B040EE96521EF1E
:10EE3C0077F023EF77F025EF77F050EF77F0E9518B
:10EE4C00020DDE51F324D96EDA6A6F0078FF43F0BD
:10EE5C006F0074FF44F0DF514324DF6FE051442016
:10EE6C00E06FFA0E206EFE0E216EE9C022F0236ACE
:10EE7C00E951020DDE51F324D96EDA6A6F0078FF86
:10EE8C0024F06F0074FF25F08FEC69F00001E92B82
:10EE9C001BEF77F0DF51E011D8A457EF77F059EF63
:10EEAC0077F061EF77F0010ED66FF70E206EFD0E46
:10EEBC00216E8FEC69F00001D651D8B468EF77F071
:10EECC006AEF77F003EF77F0D76BE1EF77F06C0E2A
:10EEDC00206EFC0E216E8FEC69F0500E206EFE0E33
:10EEEC00216E8FEC69F06DEC6DF00001B86F87EC62
:10EEFC0070F00001DE6FE06B000EDF6FE96B040E4B
:10EF0C00E9658BEF77F08DEF77F08FEF77F0BAEF55
:10EF1C0077F0E951020DDE51F324D96EDA6A6F00F5
:10EF2C0078FF43F06F0074FF44F0DF514324DF6F30
:10EF3C00E0514420E06FFA0E206EFE0E216EE9C007
:10EF4C0022F0236AE951020DDE51F324D96EDA6AFC
:10EF5C006F0078FF24F06F0074FF25F08FEC69F0E0
:10EF6C000001E92B85EF77F0880EDF1907E1130E0E
:10EF7C00E019D8A4C4EF77F0C6EF77F0E1EF77F0A3
:10EF8C00010ED76F150E206EFE0E216E8FEC69F000
:10EF9C00860E206EFE0E216E8FEC69F0010E026E55
:10EFAC00000E9BEC6AF0BB0E026EFF0E036E080E99
:10EFBC00046E49EC6EF00001D751D8B4E8EF77F04D
:10EFCC00EAEF77F06DEF77F0D7EF76F09CEC69F025
:10EFDC00000E026E000E9BEC6AF0580E026EFF0ED5
:10EFEC00036E080E046E49EC6EF0010E026E000EFC
:10EFFC009BEC6AF0DE0E026EFF0E036E080E046EC2
:10F00C0049EC6EF0C20E206EFC0E216E8FEC69F096
:10F01C00C9EC69F00009D8B416EF78F018EF78F065
:10F02C000EEF78F0870E75EC69F00001E56B000EC1
:10F03C00E46FE5BF2BEF78F0E55109E1050EE45DD7
:10F04C00D8A02BEF78F02DEF78F02FEF78F077EF4A
:10F05C0078F054EC69F00009D8B437EF78F039EF58
:10F06C0078F02FEF78F00001E451C30FD96EDA6A13
:10F07C00B1EC6DF0DF6E54EC69F00009D8B449EFD7
:10F08C0078F04BEF78F041EF78F00001E451C80FC5
:10F09C00D96EDA6AB1EC6DF0DF6E0001E451C80F85
:10F0AC00D96EDA6ADF50436E4350456E446AE451C0
:10F0BC00C30FD96EDA6ADF50466E46504426000EF6
:10F0CC004522E451020DF350B90FD96EDA6A600093
:10F0DC0013F1DEFF600017F1DDFFE44BE52B1FEFB2
:10F0EC0078F0DC6B000EDB6FDCBF86EF78F0DC5168
:10F0FC0009E1050EDB5DD8A086EF78F088EF78F09B
:10F10C008AEF78F0D7EF76F01B0E206EFF0E216E93
:10F11C00DBC022F0DCC023F0DB51020DF350B90F41
:10F12C00D96EDA6A6F0078FF24F06F0074FF25F057
:10F13C008FEC69F00001DB4BDC2B7AEF78F09CEC68
:10F14C0069F0000E026E000E9BEC6AF0D60E026E99
:10F15C00FF0E036E070E046E49EC6EF0C20E206EAD
:10F16C00FC0E216E8FEC69F0A90E206EFC0E216E48
:10F17C008FEC69F06DEC6DF00001DD6FD4EF78F081
:10F18C00C20E206EFC0E216E8FEC69F0990E206E73
:10F19C00FC0E216E8FEC69F0C0EF78F02F0EDD6560
:10F1AC00DAEF78F0DCEF78F0C6EF78F0350EDD6151
:10F1BC00E2EF78F0E4EF78F0C6EF78F0000E026E34
:10F1CC00070E9BEC6AF00001DD51C4EC6AF0C9EC4F
:10F1DC0069F00009D8B4F5EF78F0F7EF78F0EDEFBF
:10F1EC0078F0870E75EC69F00001E76B000EE66FA6
:10F1FC00E7BF0AEF79F0E75109E1050EE65DD8A00B
:10F20C000AEF79F00CEF79F00EEF79F056EF79F018
:10F21C0054EC69F00009D8B416EF79F018EF79F0D6
:10F22C000EEF79F00001E651C30FD96EDA6AB1EC3A
:10F23C006DF0DF6E54EC69F00009D8B428EF79F06A
:10F24C002AEF79F020EF79F00001E651C80FD96E62
:10F25C00DA6AB1EC6DF0DF6E0001E651C80FD96EC1
:10F26C00DA6ADF50436E4350456E446AE651C30F71
:10F27C00D96EDA6ADF50466E46504426000E45229F
:10F28C00E651020DF350B90FD96EDA6A600013F132
:10F29C00DEFF600017F1DDFFE64BE72BFEEF78F0A9
:10F2AC00DD51D00FDA6F0C0E206EFF0E216EDAC01E
:10F2BC0022F0236ADA51020DF350B90FD96EDA6AD3
:10F2CC006F0078FF24F06F0074FF25F08FEC69F06D
:10F2DC00D7EF76F09CEC69F0000E026E000E9BEC02
:10F2EC006AF0A00E026EFF0E036E080E046E49EC5F
:10F2FC006EF0C20E206EFC0E216E8FEC69F046ECA7
:10F30C006BF002C0E1F003C0E2F0CD0E206EE60E11
:10F31C00216EFF0E226EE1C023F0E2C024F02DEC32
:10F32C006AF020500001E86F010E026E000E9BEC9B
:10F33C006AF0CD0E026E036AE8C004F049EC6EF080
:10F34C009E0E206EFE0E216EE1C022F0E2C023F074
:10F35C008FEC69F0D7EF76F09CEC69F0000E026E42
:10F36C00000E9BEC6AF08E0E026EFF0E036E080E02
:10F37C00046E49EC6EF0C20E206EFC0E216E8FEC0A
:10F38C0069F0120E206EFC0E216E8FEC69F02AECE7
:10F39C006DF00001EA6FEA5115EC6CF0CD0E206EA9
:10F3AC00F20E216EFF0E226EEAC023F0246A2DECC1
:10F3BC006AF020500001E86F010E026E000E9BEC0B
:10F3CC006AF0CD0E026E036AE8C004F049EC6EF0F0
:10F3DC00C9EC69F00009D8B4F6EF79F0F8EF79F0E0
:10F3EC00EEEF79F0C10E75EC69F0C9EC69F000092B
:10F3FC00D8B403EF7AF005EF7AF0FBEF79F0000167
:10F40C00EA5175EC69F0C9EC69F00009D8B411EF58
:10F41C007AF013EF7AF009EF7AF0C50E75EC69F01B
:10F42C00C9EC69F00009D8B41EEF7AF020EF7AF03D
:10F43C0016EF7AF00001EA5175EC69F0D7EF76F02F
:10F44C009CEC69F0000E026E000E9BEC6AF0A90EAB
:10F45C00026EFF0E036E080E046E49EC6EF0C20EC7
:10F46C00206EFC0E216E8FEC69F0E40E206EFB0E0C
:10F47C00216E8FEC69F02AEC6DF00001EA6FEA5115
:10F48C00A9EC6BF0CD0E206EF20E216EFF0E226EEB
:10F49C00EAC023F0246A2DEC6AF020500001E86FDA
:10F4AC00010E026E000E9BEC6AF0CD0E026E036A2A
:10F4BC00E8C004F049EC6EF0C9EC69F00009D8B46E
:10F4CC006AEF7AF06CEF7AF062EF7AF0C20E75ECBC
:10F4DC0069F0C9EC69F00009D8B477EF7AF079EFEC
:10F4EC007AF06FEF7AF00001EA5175EC69F0C9EC33
:10F4FC0069F00009D8B485EF7AF087EF7AF07DEFE8
:10F50C007AF0C60E75EC69F0C9EC69F00009D8B454
:10F51C0092EF7AF094EF7AF08AEF7AF00001EA51E8
:10F52C0075EC69F0D7EF76F09CEC69F0000E026E8A
:10F53C00000E9BEC6AF07C0E026EFF0E036E080E42
:10F54C00046E49EC6EF0C20E206EFC0E216E8FEC38
:10F55C0069F0120E206EFC0E216E8FEC69F02AEC15
:10F56C006DF00001EA6F370E206EFB0E216E8FECF2
:10F57C0069F02AEC6DF00001E36FEA51E325D86FD6
:10F58C00D96BD937E3C002F0EA51F1EC6CF0CD0E37
:10F59C00206EEC0E216EFF0E226EEAC023F0246A60
:10F5AC00E3C025F0266A2DEC6AF020500001E86FCC
:10F5BC00010E026E000E9BEC6AF0CD0E026E036A19
:10F5CC00E8C004F049EC6EF0C9EC69F00009D8B45D
:10F5DC00F2EF7AF0F4EF7AF0EAEF7AF0C10E75EC14
:10F5EC0069F0C9EC69F00009D8B4FFEF7AF001EFCB
:10F5FC007BF0F7EF7AF00001D85175EC69F0C9ECAB
:10F60C0069F00009D8B40DEF7BF00FEF7BF005EF3C
:10F61C007BF0C50E75EC69F0C9EC69F00009D8B443
:10F62C001AEF7BF01CEF7BF012EF7BF00001EA513C
:10F63C0075EC69F0D7EF76F09CEC69F0000E026E79
:10F64C00000E9BEC6AF0850E026EFF0E036E080E28
:10F65C00046E49EC6EF0C20E206EFC0E216E8FEC27
:10F66C0069F0120E206EFC0E216E8FEC69F02AEC04
:10F67C006DF00001EA6F370E206EFB0E216E8FECE1
:10F68C0069F02AEC6DF00001E36FEA51E325D86FC5
:10F69C00D96BD937E3C002F0EA5181EC6CF0CD0E96
:10F6AC00206EEC0E216EFF0E226EEAC023F0246A4F
:10F6BC00E3C025F0266A2DEC6AF020500001E86FBB
:10F6CC00010E026E000E9BEC6AF0CD0E026E036A08
:10F6DC00E8C004F049EC6EF0C9EC69F00009D8B44C
:10F6EC007AEF7BF07CEF7BF072EF7BF0C10E75EC68
:10F6FC0069F0C9EC69F00009D8B487EF7BF089EFA9
:10F70C007BF07FEF7BF00001EA5175EC69F0C9ECFE
:10F71C0069F00009D8B495EF7BF097EF7BF08DEF93
:10F72C007BF0C50E75EC69F0C9EC69F00009D8B432
:10F73C00A2EF7BF0A4EF7BF09AEF7BF00001D851A5
:10F74C0075EC69F0D7EF76F09CEC69F0000E026E68
:10F75C00000E9BEC6AF06A0E026EFF0E036E080E32
:10F76C00046E49EC6EF0C20E206EFC0E216E8FEC16
:10F77C0069F008EC69F0C9EC69F00009D8B4C9EF7C
:10F78C007BF0CBEF7BF0C1EF7BF0C10E75EC69F039
:10F79C00C9EC69F00009D8B4D6EF7BF0D8EF7BF058
:10F7AC00CEEF7BF0000E75EC69F0C9EC69F0000946
:10F7BC00D8B4E3EF7BF0E5EF7BF0DBEF7BF0C50E2D
:10F7CC0075EC69F0C9EC69F00009D8B4F0EF7BF086
:10F7DC00F2EF7BF0E8EF7BF0000E75EC69F0D7EF01
:10F7EC0076F09CEC69F0000E026E000E9BEC6AF059
:10F7FC00B20E026EFF0E036E080E046E49EC6EF034
:10F80C0046EC6BF002C0E1F003C0E2F0CD0E206ECE
:10F81C00E60E216EFF0E226EE1C023F0E2C024F052
:10F82C002DEC6AF020500001E86F010E026E000E04
:10F83C009BEC6AF0CD0E026E036AE8C004F049EC52
:10F84C006EF0C6EC71F0D7EF76F0DA51420AD8B40C
:10F85C0026EF7AF0040AD8B4B2EF79F00A0AD8B4D9
:10F86C009AEF7AF01E0AD8B422EF7BF0010AD8B4D2
:10F87C00AAEF7BF0300AD8B4DDEF76F0070AD8B4E3
:10F88C00A5EF78F0090AD8B4F7EF7BF01F0AD8B4CB
:10F89C00ECEF77F0040AD8B470EF79F0D7EF76F08C
:10F8AC00CBAA5BEF7CF05DEF7CF086EF7DF0C6ECD5
:10F8BC0071F09CEC69F0000E026E000E9BEC6AF08D
:10F8CC00460E026EFF0E036E080E046E49EC6EF0CF
:10F8DC0046EC6BF002C0E1F003C0E2F0CD0E206EFE
:10F8EC00E60E216EFF0E226EE1C023F0E2C024F082
:10F8FC002DEC6AF020500001E86F010E026E000E34
:10F90C009BEC6AF0CD0E026E036AE8C004F049EC81
:10F91C006EF03D0E446EE10E436E400EE82EFED7A7
:10F92C00432EFCD7442EFAD7000E026E000E9BEC31
:10F93C006AF0CD0E026EFF0E036E080E046E49ECDB
:10F94C006EF018EC6BF0010E026E000E9BEC6AF080
:10F95C00610E026EFF0E036E080E046E49EC6EF023
:10F96C00060E81EC73F0100E436E940EE82EFED74B
:10F97C00432EFCD700D0400E016E900E5FEC69F068
:10F98C0098EC6EF026EC74F002C0ACF003C0ADF055
:10F99C0051EC72F0F70E206EFF0E216EACC022F00F
:10F9AC00ADC023F08FEC69F0950E0001AC5D110E2B
:10F9BC00AD59D8B0E4EF7CF0E6EF7CF0F1EF7CF0E1
:10F9CC00DC0EAC5D050EAD59D8B0EFEF7CF0F1EF6D
:10F9DC007CF0F9EF7CF0ACC014F0ADC015F086EC07
:10F9EC006FF0C8EF7CF0A951D8B4FFEF7CF001EFB9
:10F9FC007DF00DEF7DF0B80EAC1907E10B0EAD19D3
:10FA0C00D8A40BEF7DF00DEF7DF011EF7DF0E4EC61
:10FA1C0072F0C8EF7CF0A705D8A417EF7DF019EFB2
:10FA2C007DF0C8EF7CF0A805D8A41FEF7DF021EF86
:10FA3C007DF0C8EF7CF0A905D8A427EF7DF029EF65
:10FA4C007DF0C8EF7CF0AA05D8A42FEF7DF031EF44
:10FA5C007DF0C8EF7CF0AB05D8A437EF7DF039EF23
:10FA6C007DF0C8EF7CF0AAEC69F00A0EE7EC6EF0C2
:10FA7C000A0EE7EC6EF00A0EE7EC6EF00A0EE7ECFD
:10FA8C006EF051EC72F00001A705D8A450EF7DF098
:10FA9C0052EF7DF0C6EF7CF0A805D8A458EF7DF0AE
:10FAAC005AEF7DF0C6EF7CF0A905D8A460EF7DF08D
:10FABC0062EF7DF0C6EF7CF0AA05D8A468EF7DF06C
:10FACC006AEF7DF0C6EF7CF0AB05D8A470EF7DF04B
:10FADC0072EF7DF0C6EF7CF00A0EE7EC6EF00A0ECA
:10FAEC00E7EC6EF00A0EE7EC6EF00A0EE7EC6EF047
:10FAFC000A0EE7EC6EF00A0EE7EC6EF084EF7DF088
:10FB0C00FEEF7FF00000000000000000000000008D
:10FB1C0000000000000000000000000000000000D9
:10FB2C0000000000000000000000000920506C657F
:10FB3C0061736520656E74657220746865207475D8
:10FB4C00726E696E6720646966666572656E74694B
:10FB5C00616C3A207370656564202B20646966665D
:10FB6C006572656E7469616C203C20313237200DF2
:10FB7C000A00202076200909202876296F6C7461F0
:10FB8C006765202D205265616420616E6420646974
:10FB9C0073706C6179206261747465727920766F10
:10FBAC006C74616765200D0A00496E76616C69643E
:10FBBC0020696E7075742E20506C656173652072AF
:10FBCC0065646F206E756D65726963616C20696E1A
:10FBDC007075742E200D0A000920506C65617365D8
:10FBEC0020656E74657220746865206261636B7742
:10FBFC006172642073706565642C2030202D203177
:10FC0C003237200D0A000920506C65617365206540
:10FC1C006E7465722074686520666F7277617264A9
:10FC2C002073706565642C2030202D2031323720F4
:10FC3C000D0A00506C61636520616C6C20666976FE
:10FC4C00652073656E736F7273206F6E2061207701
:10FC5C00686974652073757266616365200A0D00AE
:10FC6C00506C61636520616C6C20666976652073ED
:10FC7C00656E736F7273206F6E206120626C6163AE
:10FC8C006B2073757266616365200A0D00496E7690
:10FC9C00616C696420656E7472792E2020456E74D7
:10FCAC0065722073656E736F72206E756D6265720E
:10FCBC002C20302D34200A0D002020722009092020
:10FCCC002872296561642063616C69627261746574
:10FCDC00642073656E736F7273200D0A00202042CE
:10FCEC0020090920576865656C7320726F74617404
:10FCFC00652028422961636B77617264200D0A00CC
:10FD0C00202064200909202864296973706C6179AA
:10FD1C002073656E736F7220782076616C75652028
:10FD2C000D0A0020204620090920576865656C7370
:10FD3C0020726F74617465202846296F7277617226
:10FD4C0064200D0A00092A202020202020202020B9
:10FD5C002020202020202020202020202020202097
:10FD6C002020202A0D0A00092A20202020202044AF
:10FD7C006961676E6F73746963204D656E752020C1
:10FD8C0020202020202A0D0A00092A202020415062
:10FD9C0053432031323939202D20506F6C6F6C75E4
:10FDAC00203370692020202A0D0A00092A2A2A2AC9
:10FDBC002A2A2A2A2A2A2A2A2A2A2A2A2A2A2A2A97
:10FDCC002A2A2A2A2A2A2A2A2A2A0D0A00202063C9
:10FDDC0020090920286329616C69627261746520AD
:10FDEC0073656E736F7273200D0A005768697465C2
:10FDFC002063616C6962726174696F6E20636F6DF0
:10FE0C00706C657465200A0D00426C61636B206335
:10FE1C00616C6962726174696F6E20636F6D706C76
:10FE2C00657465200A0D00436F6D6D616E64204B27
:10FE3C0065792009204465736372697074696F6E0B
:10FE4C00200D0A00507265737320616E79206B650A
:10FE5C007920746F20636F6E74696E7565200A0D5E
:10FE6C000020206D20090920526566726573682098
:10FE7C00286D29656E75200D0A0043616C696272EC
:10FE8C006174696F6E20636F6D706C657465200AA8
:10FE9C000D004261747465727920766F6C746167C1
:10FEAC0065203D202575200A0D00202052200909CF
:10FEBC002028522969676874207475726E200D0AA7
:10FECC000020205320090920285329746F70206DBD
:10FEDC006F746F72200D0A0020204C200909202815
:10FEEC004C29656674207475726E200D0A0053657A
:10FEFC006E736F72202575203D202575200A0D002C
:10FF0C0053656E736F722025643A2025750A005371
:10FF1C00656E736F722E2025642025750A0043616F
:10FF2C006C69627261746500202020474F2020208C
:10FF3C0000202053455420202000202052756E2094
:10FF4C002020002052454144592020002020526599
:10FF5C0061642020002020646F6E6520200020202A
:10FF6C0053746F70202000202025752073202000F2
:10FF7C0020204C656674202000205269676874202C
:10FF8C002000466F7277617264200053656E736F48
:10FF9C00727320004261747465727920004261634F
:10FFAC006B7761726400446961676E6F73650043BF
:10FFBC006F6D706C65746500436F756E74696E67F8
:10FFCC00004175746F2043616C0053656E736F72E2
:10FFDC00200053656E736F7273002575206D56008B
:10FFEC0025752025750020257520000A2575000033
:04FFFC000DEF6AF0AB
:020000040030CA
:0A000000ECFEF7FF9FFFFFFFFFFF7C
:00000001FF
