:04000000FEEF7FF0A0
:10D5F400120012001200120012001200B88E120063
:10D60400B89E1200000E31EC6EF01200026E025051
:10D6140079EC6BF0120001C059F002C05AF012000C
:10D6240001C05DF002C05EF0120001C05BF002C0F8
:10D634005CF0120001C0E5F002C0E6F0120001C087
:10D6440057F002C058F0120001C0E7F002C0E8F041
:10D6540012000250B76E600007F0B6FF120041ECF2
:10D664006BF0CBEC70F038EC6BF01200600E39010B
:10D67400D96FDB6BDD6B070EDF6FDE6B12003901D8
:10D68400C06BC16BC26BC36BC46BC56BC66BC76B22
:10D6940012003901A3B751EF6BF054EF6BF0010E98
:10D6A40055EF6BF0000E1200026E60000BF0B8FF35
:10D6B400600007F0B9FFB89E3901A39F1200390139
:10D6C400A6B567EF6BF06AEF6BF0010E6BEF6BF0D2
:10D6D400000E1200016E3901A3A973EF6BF075EF10
:10D6E4006BF06DEF6BF0600007F0EAFD1200016E65
:10D6F4003901A6A780EF6BF082EF6BF07AEF6BF045
:10D70400600007F0D2FD1200220E266E000E1A6E83
:10D7140020C01BF021C01CF0260E1D6ED3EC6CF053
:10D724001200CFEC6BF00009D8B49BEF6BF09DEFC7
:10D734006BF093EF6BF0B70E6CEC6BF01200CFEC68
:10D744006BF00009D8B4A9EF6BF0ABEF6BF0A1EF6D
:10D754006BF0BB0E6CEC6BF0120000EE60F0510E3F
:10D76400EE6AE806FDE100EE47F0100EEE6AE80608
:10D77400FDE10001F9EF75F06F00D8FE07F06F00CE
:10D78400DCFE08F00850036E0750056E03C006F077
:10D7940005C001F006C002F01200016A3901A3A914
:10D7A400D6EF6BF0D8EF6BF0E2EF6BF03D01F2AB2C
:10D7B400DEEF6BF0E0EF6BF0E2EF6BF0010E016E69
:10D7C40001501200016A3901A6A7EBEF6BF0EDEFEF
:10D7D4006BF0F7EF6BF03D01DAABF3EF6BF0F5EFC5
:10D7E4006BF0F7EF6BF0010E016E0150120008BEF2
:10D7F400FEEF6BF000EF6CF006EF6CF007C007F083
:10D8040008C008F012EF6CF007C009F008C00AF075
:10D81400091E0A1E094A0A2A09C007F00AC008F0AC
:10D824001200230E296E20C02AF02D6A000E2C6EE1
:10D83400346A000E336E2A0E1A6E21C01BF022C009
:10D844001CF0290E1D6ED3EC6CF01AC027F01BC01F
:10D8540028F020502C24D96EDA6ADF6A27C020F021
:10D8640028C021F012003D01D46BD66BD86BB00EEA
:10D87400DA6F800EDB6FDC6BE10EDD6F040EDE6FA2
:10D88400DF6BE06BE16BE26BFC0E016ED50E026E9A
:10D8940021EC6BF0FE0E016ED50E026E26EC6BF0E1
:10D8A400FA0E016ED50E026E1CEC6BF0556A120076
:10D8B4003D01EC6BED6BEE6BEF6BF06BF16BB00E4F
:10D8C400F26F800EF36FF46B670EF56FF66BF76B08
:10D8D400F86BF96BFA6BF60E016ED50E026E12EC54
:10D8E4006BF0F80E016ED50E026E17EC6BF0F40EB1
:10D8F400016ED50E026E0DEC6BF0566A1200036ECB
:10D90400CFEC6BF00009D8B48AEF6CF08CEF6CF0BC
:10D9140082EF6CF0B90E6CEC6BF0CFEC6BF000099D
:10D92400D8B497EF6CF099EF6CF08FEF6CF0035074
:10D934006CEC6BF0CFEC6BF00009D8B4A4EF6CF096
:10D94400A6EF6CF09CEF6CF002506CEC6BF01200E4
:10D95400026ECFEC6BF00009D8B4B3EF6CF0B5EF06
:10D964006CF0ABEF6CF0B80E6CEC6BF0CFEC6BF0D2
:10D974000009D8B4C0EF6CF0C2EF6CF0B8EF6CF0F3
:10D98400010E6CEC6BF0CFEC6BF00009D8B4CDEF6A
:10D994006CF0CFEF6CF0C5EF6CF002506CEC6BF0F8
:10D9A40012001BC01EF01CC01FF04D6A000E4C6E0E
:10D9B400E8EF6CF01AC00BF01E0E0C6E1DC00DF0DB
:10D9C4005EEC74F00B504C260C504D2260007BF042
:10D9D400F6FF60007FF0F7FFF86A0800F5500009D1
:10D9E400D8A4F7EF6CF0F9EF6CF0DCEF6CF04CC0FE
:10D9F4001AF04DC01BF01200CFEC6BF00009D8B444
:10DA040006EF6DF008EF6DF0FEEF6CF0BA0E6CEC03
:10DA14006BF04BEC6BF00009D8B413EF6DF015EF1D
:10DA24006DF00BEF6DF021EF6DF04BEC6BF0000936
:10DA3400D8B41FEF6DF021EF6DF017EF6DF097EC98
:10DA44006FF0630AD8A429EF6DF02BEF6DF017EF98
:10DA54006DF01200CFEC6BF00009D8B434EF6DF028
:10DA640036EF6DF02CEF6DF0B10E6CEC6BF04BEC0F
:10DA74006BF00009D8B441EF6DF043EF6DF039EF6E
:10DA84006DF097EC6FF0066E4BEC6BF00009D8B4B8
:10DA94004EEF6DF050EF6DF046EF6DF097EC6FF0D8
:10DAA400076E0750056E046A06500424026E000EC9
:10DAB4000520036E120003500410D8B464EF6DF017
:10DAC40066EF6DF08AEF6DF0010E056E6EEF6DF08E
:10DAD400D89003360436052A04AE73EF6DF075EF63
:10DAE4006DF06AEF6DF00350015C04500258D8A049
:10DAF4007EEF6DF080EF6DF084EF6DF00350015E0A
:10DB04000450025AD89004320332052E75EF6DF09A
:10DB140001C001F002C002F01200026ECFEC6BF003
:10DB24000009D8B498EF6DF09AEF6DF090EF6DF0B6
:10DB3400C20E6CEC6BF0CFEC6BF00009D8B4A5EF1F
:10DB44006DF0A7EF6DF09DEF6DF002506CEC6BF093
:10DB5400CFEC6BF00009D8B4B2EF6DF0B4EF6DF018
:10DB6400AAEF6DF0C60E6CEC6BF0CFEC6BF0000915
:10DB7400D8B4BFEF6DF0C1EF6DF0B7EF6DF00228D0
:10DB84006CEC6BF01200036ECFEC6BF00009D8B4B0
:10DB9400CEEF6DF0D0EF6DF0C6EF6DF0C50E6CEC0E
:10DBA4006BF0CFEC6BF00009D8B4DBEF6DF0DDEF78
:10DBB4006DF0D3EF6DF003506CEC6BF0CFEC6BF0C9
:10DBC4000009D8B4E8EF6DF0EAEF6DF0E0EF6DF026
:10DBD400C20E6CEC6BF0CFEC6BF00009D8B4F5EF2F
:10DBE4006DF0F7EF6DF0EDEF6DF003286CEC6BF07A
:10DBF4001200036ECFEC6BF00009D8B404EF6EF0A2
:10DC040006EF6EF0FCEF6DF0C10E6CEC6BF0CFEC38
:10DC14006BF00009D8B411EF6EF013EF6EF009EF5A
:10DC24006EF003506CEC6BF0CFEC6BF00009D8B4E1
:10DC34001EEF6EF020EF6EF016EF6EF0C60E6CEC79
:10DC44006BF0CFEC6BF00009D8B42BEF6EF02DEF36
:10DC54006EF023EF6EF003286CEC6BF01200026E92
:10DC6400CFEC6BF00009D8B43AEF6EF03CEF6EF0F5
:10DC740032EF6EF0C10E6CEC6BF0CFEC6BF0000980
:10DC8400D8B447EF6EF049EF6EF03FEF6EF00250FC
:10DC94006CEC6BF0CFEC6BF00009D8B454EF6EF081
:10DCA40056EF6EF04CEF6EF0C50E6CEC6BF0CFECF3
:10DCB4006BF00009D8B461EF6EF063EF6EF059EFCA
:10DCC4006EF002286CEC6BF01200036ECFEC6BF07C
:10DCD4000009D8B470EF6EF072EF6EF068EF6EF07A
:10DCE400C10E6CEC6BF0CFEC6BF00009D8B47DEF97
:10DCF4006EF07FEF6EF075EF6EF0035002246CEC63
:10DD04006BF0CFEC6BF00009D8B48BEF6EF08DEFB5
:10DD14006EF083EF6EF0C50E6CEC6BF0CFEC6BF035
:10DD24000009D8B498EF6EF09AEF6EF090EF6EF0B1
:10DD340003286CEC6BF01200066A000E056E0350AB
:10DD44000410D8B4A8EF6EF0AAEF6EF0D2EF6EF024
:10DD5400010E076EB2EF6EF0D89003360436072A30
:10DD640004AEB7EF6EF0B9EF6EF0AEEF6EF0D89090
:10DD7400053606360350015C04500258D8A0C5EF9E
:10DD84006EF0C7EF6EF0CCEF6EF00350015E0450FE
:10DD9400025A0580D89004320332072EB9EF6EF090
:10DDA40005C001F006C002F01200046ECFEC6BF067
:10DDB4000009D8B4E0EF6EF0E2EF6EF0D8EF6EF049
:10DDC400C10E6CEC6BF0CFEC6BF00009D8B4EDEF46
:10DDD4006EF0EFEF6EF0E5EF6EF004506CEC6BF06C
:10DDE400CFEC6BF00009D8B4FAEF6EF0FCEF6EF0F4
:10DDF400F2EF6EF0C50E6CEC6BF0CFEC6BF000093B
:10DE0400D8B407EF6FF009EF6FF0FFEF6EF0045036
:10DE14000224036E03286CEC6BF012002868276A56
:10DE240048EF6FF053EC6FF0286E0D0E2818D8A44D
:10DE34001EEF6FF020EF6FF022EF6FF048EF6FF0FE
:10DE44002F0E286428EF6FF02AEF6FF032EF6FF097
:10DE5400390E286430EF6FF032EF6FF042EF6FF05D
:10DE64007A0E206EFC0E216E86EC6BF06D0E206E29
:10DE7400FB0E216E86EC6BF0276A286848EF6FF082
:10DE840027500A0DF3502824D00F276E0D0E2818A2
:10DE9400D8A44FEF6FF051EF6FF014EF6FF02750ED
:10DEA400120002687CEF6FF061EC6BF00009D8B4EB
:10DEB4005EEF6FF060EF6FF07CEF6FF0E1EC6FF00E
:10DEC400026EE4EC6BF00009D8B46BEF6FF06DEF09
:10DED4006FF07CEF6FF0025079EC6BF00D0E0218CE
:10DEE400D8A477EF6FF079EF6FF07CEF6FF00A0E44
:10DEF40079EC6BF02F0E026482EF6FF084EF6FF019
:10DF04008CEF6FF07A0E02648AEF6FF08CEF6FF093
:10DF140095EF6FF00D0E0218D8A493EF6FF095EF04
:10DF24006FF056EF6FF0025012003901A3A79DEF76
:10DF34006FF09FEF6FF097EF6FF0566A3D01F9A70E
:10DF4400A6EF6FF0A8EF6FF0B5EF6FF0568202D82E
:10DF5400B5EF6FF00500FA6E5D50FD6E5E50FE6E1B
:10DF6400FF6AFA5012003D01F9A3BBEF6FF0BDEF59
:10DF74006FF0CAEF6FF0568402D8CAEF6FF0050055
:10DF8400FA6E5B50FD6E5C50FE6EFF6AFA50120032
:10DF94005650D8B4D0EF6FF0D2EF6FF0DEEF6FF0E1
:10DFA40002D8DEEF6FF00500FA6E5950FD6E5A503C
:10DFB400FE6EFF6AFA5012003D01E8511200390169
:10DFC400A6A5E7EF6FF0E9EF6FF0E1EF6FF0556AA8
:10DFD4003D01E1A7F0EF6FF0F2EF6FF0FFEF6FF0AC
:10DFE400558202D8FFEF6FF00500FA6E5750FD6EB0
:10DFF4005850FE6EFF6AFA5012003D01E1A305EF8E
:10E0040070F007EF70F015EF70F0558402D815EF3B
:10E0140070F00500FA6E0001E751FD6EE851FE6EE6
:10E02400FF6AFA5012005550D8B41BEF70F01DEF80
:10E0340070F02AEF70F002D82AEF70F00500FA6E43
:10E044000001E551FD6EE651FE6EFF6AFA501200C2
:10E054003D01D0511200076ACFEC6BF00009D8B42F
:10E0640036EF70F038EF70F02EEF70F0B80E6CEC05
:10E074006BF0CFEC6BF00009D8B443EF70F045EFD0
:10E0840070F03BEF70F004506CEC6BF072EF70F0DA
:10E09400CFEC6BF00009D8B452EF70F054EF70F08D
:10E0A40072EF70F007500224056E000E0320066E16
:10E0B400600017F0F6FF60001BF0F7FF000EF86E2B
:10E0C4000F0EF76403D00800F55007D06F00DBFF94
:10E0D400E9FF6F00DFFFEAFFEF506CEC6BF0072AFB
:10E0E4000450075CD8A079EF70F07BEF70F04AEF32
:10E0F40070F01200CFEC6BF00009D8B484EF70F02C
:10E1040086EF70F07CEF70F0BB0E6CEC6BF0CFEC34
:10E114006BF00009D8B491EF70F093EF70F089EFD1
:10E1240070F0140E6CEC6BF0CFEC6BF00009D8B40B
:10E134009EEF70F0A0EF70F096EF70F0010E6CECB3
:10E144006BF0CFEC6BF00009D8B4ABEF70F0ADEF2F
:10E1540070F0A3EF70F0140E6CEC6BF0CFEC6BF07E
:10E164000009D8B4B8EF70F0BAEF70F0B0EF70F007
:10E17400030E6CEC6BF0CFEC6BF00009D8B4C5EF78
:10E1840070F0C7EF70F0BDEF70F0020E6CEC6BF046
:10E194001200BE6ABD6ABA6ABB6ABC6A070EC66E62
:10E1A400C268BF0EC36E840EC46EC5683A01706B3C
:10E1B400606B2F0E506F070E806FEF0E406F716B08
:10E1C400816B516B416B616B5A6B5B6B6A6B6B6BF5
:10E1D4007A6B7B6B826B426B526B180E626F726B45
:10E1E4004369536963697369070E836F44695469AA
:10E1F400646974690F0E846F0F0EE86F250E106F3B
:10E20400160E0E6F210E136F0F0E116F220E146F68
:10E21400170EE56F040EC36F130EE16F0C0EDD6F66
:10E22400140EE26F120ECA6F0D0E156F130E166FD9
:10E2340012000550D8B421EF71F023EF71F02BEFE9
:10E2440071F00550D8A429EF71F02BEF71F030EF85
:10E2540071F0035008EC6BF070EF71F00550D96E5B
:10E26400DA6A090ED926DE50DE10D8B43CEF71F01C
:10E274003EEF71F057EF71F00550D96EDA6A090E6E
:10E28400D9260550E16EE26A020EE126DE50E65C14
:10E29400E650800A0A6EDE50800A0A58D8B055EF5C
:10E2A40071F057EF71F070EF71F00550D96EDA6AC2
:10E2B400020ED926DF50066E0550D96EDA6ADF5099
:10E2C4000624D96EDA6A60000FF0DFFF0550D96EBC
:10E2D400DA6A020ED926DE2A000EDD221200066A50
:10E2E40002BE79EF71F077EF71F07FEF71F0016C9E
:10E2F400021ED8B0022A010E066E04BE86EF71F02B
:10E3040084EF71F08AEF71F0036C041ED8B0042A14
:10E3140003500410D8B491EF71F093EF71F0B7EF9C
:10E3240071F0010E056E9BEF71F0D8900336043640
:10E33400052A04AEA0EF71F0A2EF71F097EF71F02F
:10E344000350015C04500258D8A0ABEF71F0ADEF5C
:10E3540071F0B1EF71F00350015E0450025AD8908D
:10E3640004320332052EA2EF71F00650D8B4BDEF8B
:10E3740071F0BFEF71F0C3EF71F0016C021ED8B001
:10E38400022A01C001F002C002F01200CFEC6BF0CF
:10E394000009D8B4D0EF71F0D2EF71F0C8EF71F08A
:10E3A400B40E6CEC6BF0126A4BEC6BF00009D8B451
:10E3B400DEEF71F0E0EF71F0D6EF71F01250080F5C
:10E3C400D96EDA6A97EC6FF0DF6E4BEC6BF00009F4
:10E3D400D8B4EFEF71F0F1EF71F0E7EF71F0125094
:10E3E4000D0FD96EDA6A97EC6FF0DF6E12500D0FD5
:10E3F400D96EDA6ADF50046E0450066E056A125054
:10E40400080FD96EDA6ADF50076E07500526000E32
:10E4140006221250020DF350A70FD96EDA6A60007B
:10E4240017F0DEFF60001BF0DDFF122A040E1264F9
:10E434001EEF72F020EF72F0D6EF71F0A70E12000B
:10E44400066A04BE2AEF72F028EF72F030EF72F021
:10E45400036C041ED8B0042A010E066E02BE37EF08
:10E4640072F035EF72F03DEF72F0016C021ED8B01D
:10E47400022A010E061A086A000E076E03500410E1
:10E48400D8B447EF72F049EF72F071EF72F0010EF9
:10E49400056E51EF72F0D89003360436052A04AEA7
:10E4A40056EF72F058EF72F04DEF72F0D8900736D5
:10E4B40008360350015C04500258D8A064EF72F08F
:10E4C40066EF72F06BEF72F00350015E0450025A73
:10E4D4000780D89004320332052E58EF72F00650AC
:10E4E400D8B477EF72F079EF72F07DEF72F0076CC9
:10E4F400081ED8B0082A07C001F008C002F01200B4
:10E50400990E206EFB0E216E86EC6BF06F0E206E62
:10E51400FD0E216E86EC6BF0090E206EFD0E216E51
:10E5240086EC6BF04D0E206EFD0E216E86EC6BF0CA
:10E534002B0E206EFD0E216E86EC6BF0090E206E04
:10E54400FD0E216E86EC6BF06F0E206EFD0E216EBB
:10E5540086EC6BF07A0E206EFC0E216E86EC6BF06E
:10E564000A0E206EFE0E216E86EC6BF0B00E206E4D
:10E57400FD0E216E86EC6BF07D0E206EFC0E216E7E
:10E5840086EC6BF0C40E206EFC0E216E86EC6BF0F4
:10E59400990E206EFB0E216E86EC6BF0360E206E0B
:10E5A400FB0E216E86EC6BF0990E206EFB0E216E35
:10E5B40086EC6BF0E70E206EFC0E216E86EC6BF0A1
:10E5C400A10E206EFC0E216E86EC6BF0BB0E206E4D
:10E5D400FE0E216E86EC6BF08D0E206EFE0E216E0B
:10E5E40086EC6BF0A40E206EFE0E216E86EC6BF0B2
:10E5F400990E206EFB0E216E86EC6BF0440E206E9D
:10E60400FE0E216E86EC6BF07A0E206EFC0E216EEF
:10E6140086EC6BF01200406E40C042F093EC6BF05D
:10E62400C70E026EFF0E036E080E046E2DEC70F022
:10E63400480E016E900E56EC6BF000EC6BF0010E80
:10E64400026E000E81EC6CF0350E206E760E216E9B
:10E65400FF0E226E42C023F0246A13EC6CF02050AB
:10E66400416E350E026E036A41C004F02DEC70F069
:10E67400A7EF73F0BEEC6BF001C03EF002C03FF0B8
:10E684001B0E3E5CB70E3F58D8A04BEF73F04DEF16
:10E6940073F0A7EF73F04206026A000E016E2BECD2
:10E6A4006BF098EF73F093EC6BF0010E026E000EBA
:10E6B40081EC6CF0370E026EFF0E036E080E046ED2
:10E6C4002DEC70F0A7EF73F0010E026E000E81ECDA
:10E6D4006CF0400E026EFF0E036E080E046E2DECFD
:10E6E40070F0A7EF73F0010E026E000E81EC6CF077
:10E6F400520E026EFF0E036E080E046E2DEC70F0C7
:10E70400A7EF73F0010E026E000E81EC6CF0350E73
:10E71400206E760E216EFF0E226E42C023F0246A14
:10E7240013EC6CF02050416E33EF73F04250000A4A
:10E73400D8B455EF73F0010AD8B466EF73F0030A46
:10E74400D8B475EF73F084EF73F04250D8A4ADEFF2
:10E7540073F0AFEF73F03CEF73F002EC6BF0120068
:10E76400CFEC6BF00009D8B4BAEF73F0BCEF73F0E0
:10E77400B2EF73F0870E6CEC6BF0146A000E136E3C
:10E784004BEC6BF00009D8B4CAEF73F0CCEF73F024
:10E79400C2EF73F01350060FD96EDA6A97EC6FF07C
:10E7A400DF6E4BEC6BF00009D8B4DBEF73F0DDEFF8
:10E7B40073F0D3EF73F013500B0FD96EDA6A97EC42
:10E7C4006FF0DF6E13500B0FD96EDA6ADF50026EF2
:10E7D4000250046E036A1350060FD96EDA6ADF50D2
:10E7E400056E05500326000E04221350020DF3504B
:10E7F4009D0FD96EDA6A60000FF0DEFF600013F03F
:10E80400DDFF134A142A14BE11EF74F0145009E109
:10E81400050E135CD8A011EF74F013EF74F0C2EF7F
:10E8240073F0126A000E116E1150020DF3509D0F19
:10E83400D96EDA6A2C0EDE5C010EDE58D8A025EF04
:10E8440074F027EF74F02FEF74F01150470FD96E66
:10E85400DA6A010EDF6E34EF74F01150470FD96E8F
:10E86400DA6ADF6A114A122A12BE42EF74F01250B9
:10E8740009E1050E115CD8A042EF74F044EF74F086
:10E8840016EF74F0D8904A34026E49C003F0D89061
:10E894000336D890033648C004F0D8900436D89094
:10E8A4000436D89004364738F00B041003100210D5
:10E8B4004B10106E10501200126A000E116E0C50A4
:10E8C400D96EDA6A6F007BFFF6FF6F0077FFF7FF00
:10E8D400F86A0800F550250AD8A473EF74F075EFB0
:10E8E40074F0DDEF75F00C50D96EDA6ADE2A000E92
:10E8F400DD224F6A000E4E6E4EC054F050685168CF
:10E904000C50D96EDA6A6F0078FF13F06F0074FF51
:10E9140014F060004FF0F6FF600053F0F7FFF86A60
:10E924000800F550640AD8B49AEF74F09CEF74F0C0
:10E93400ADEF74F060004FF0F6FF600053F0F7FFA6
:10E94400F86A0800F550690AD8A4ABEF74F0ADEF8B
:10E9540074F045EF75F00D50D96EDA6A020EDF26B9
:10E96400DF5CD96EDA6A6F0078FF15F06F0078FF0C
:10E9740016F0010E13240E6E000E14200F6E0C50B0
:10E98400D96EDA6A60003BF0DEFF60003FF0DDFF25
:10E99400200E196E16BED1EF74F0D4EF74F0010E90
:10E9A400D5EF74F0000E106E19061950600FD96E71
:10E9B400DA6A15C001F016C002F0046A0A0E036E8A
:10E9C40071EC71F001C007F002C008F0F9EC6BF0D3
:10E9D4000750300FDF6E15C001F016C002F0046A54
:10E9E4000A0E036E22EC72F001C015F002C016F09C
:10E9F400114A122A15501610D8B403EF75F005EF1A
:10EA040075F00DEF75F01950D8A40BEF75F00DEFFC
:10EA140075F0D6EF74F01950D8B413EF75F015EF04
:10EA240075F036EF75F01050D8B41BEF75F01DEF8C
:10EA340075F036EF75F019061950600FD96EDA6A61
:10EA44002D0EDF6E114A122A36EF75F01950600F41
:10EA5400D96EDA6ADF500E6E0E50036E046A0BC074
:10EA640005F01BEC71F0192A200E1918D8A43DEFFB
:10EA740075F03FEF75F028EF75F011C00BF012C080
:10EA84000CF0F8EF75F060004FF0F6FF600053F003
:10EA9400F7FFF86A0800F550750AD8A454EF75F02A
:10EAA40056EF75F0D2EF75F00D50D96EDA6A020E9A
:10EAB400DF26DF5CD96EDA6A6F0078FF15F06F002D
:10EAC40078FF16F0010E13240E6E000E14200F6E44
:10EAD4000C50D96EDA6A60003BF0DEFF60003FF054
:10EAE400DDFFC3EF75F0200E196E19061950600F83
:10EAF400D96EDA6A15C001F016C002F0046A0A0E73
:10EB0400036E5DEC6DF00150300FDF6E15C001F047
:10EB140016C002F0046A0A0E036E9EEC6EF001C089
:10EB240015F002C016F0114A122A15501610D8B466
:10EB34009EEF75F0A0EF75F0B8EF75F01950D8A4FA
:10EB4400A6EF75F0A8EF75F077EF75F0B8EF75F0F4
:10EB54001950600FD96EDA6ADF500E6E0E50036ED4
:10EB6400046A0BC005F01BEC71F0192A200E191869
:10EB7400D8A4BFEF75F0C1EF75F0AAEF75F03FEFC1
:10EB840075F060004FF0F6FF600053F0F7FFF86A8D
:10EB94000800F550750AD8B475EF75F0D2EF75F02A
:10EBA4000C50D96EDA6ADE2A000EDD220C6A000EE1
:10EBB4000B6EF8EF75F00C50D96EDA6A6F007BFFBC
:10EBC400F6FF6F0077FFF7FFF86A0800F550036E51
:10EBD400046A0BC005F01BEC71F00C50D96EDA6AB4
:10EBE400DE2A000EDD220C6A010E0B6E120031ECDF
:10EBF4006BF0CBEC70F05AEC6CF035EC6CF0C38A33
:10EC04003A01509BCBBA09EF76F00BEF76F0BCEFEC
:10EC14007BF082EC72F093EC6BF0000E026E000E4F
:10EC240081EC6CF0B50E026EFF0E036E080E046EDE
:10EC34002DEC70F02CEC6DF002C0DAF003C0DBF0C8
:10EC4400C60E206EE90E216EFF0E226EDAC023F08E
:10EC5400DBC024F013EC6CF020500001E26F010ED5
:10EC6400026E000E81EC6CF0C60E026E036AE2C006
:10EC740004F02DEC70F053EC6FF00001D36F91EFC2
:10EC84007BF093EC6BF0000E026E000E81EC6CF0E6
:10EC94002D0E026EFF0E036E080E046E2DEC70F046
:10ECA400010E026E000E81EC6CF09A0E026EFF0EE5
:10ECB400036E080E046E2DEC70F07A0E206EFC0EBE
:10ECC400216E86EC6BF00001CF6BC7EF76F0F70E88
:10ECD400206EFB0E216E86EC6BF0270E206EFE0E6E
:10ECE400216E86EC6BF053EC6FF00001B16FC8EC51
:10ECF40071F00001D76FD96B000ED86FE36B040E6F
:10ED0400E36587EF76F089EF76F08BEF76F0B6EF78
:10ED140076F0E351020DD751F324D96EDA6A6F000D
:10ED240078FF43F06F0074FF44F0D8514324D86F48
:10ED3400D9514420D96FD10E206EFE0E216EE3C04E
:10ED440022F0236AE351020DD751F324D96EDA6A13
:10ED54006F0078FF24F06F0074FF25F086EC6BF0F1
:10ED64000001E32B81EF76F0D851D911D8A4BDEF7F
:10ED740076F0BFEF76F0C7EF76F0010ECF6FCE0ED0
:10ED8400206EFD0E216E86EC6BF00001CF51D8B4DD
:10ED9400CEEF76F0D0EF76F069EF76F0D06B47EFF8
:10EDA40077F0240E206EFC0E216E86EC6BF0270E9D
:10EDB400206EFE0E216E86EC6BF053EC6FF00001BA
:10EDC400B16FC8EC71F00001D76FD96B000ED86F2A
:10EDD400E36B040EE365F1EF76F0F3EF76F0F5EF15
:10EDE40076F020EF77F0E351020DD751F324D96E7A
:10EDF400DA6A6F0078FF43F06F0074FF44F0D85173
:10EE04004324D86FD9514420D96FD10E206EFE0E01
:10EE1400216EE3C022F0236AE351020DD751F3249B
:10EE2400D96EDA6A6F0078FF24F06F0074FF25F062
:10EE340086EC6BF00001E32BEBEF76F0880ED8192B
:10EE440007E1130ED919D8A42AEF77F02CEF77F045
:10EE540047EF77F0010ED06FEC0E206EFD0E216EA1
:10EE640086EC6BF05D0E206EFE0E216E86EC6BF070
:10EE7400010E026E000E81EC6CF0BE0E026EFF0EEF
:10EE8400036E080E046E2DEC70F00001D051D8B45E
:10EE94004EEF77F050EF77F0D3EF76F03DEF76F06A
:10EEA40093EC6BF0000E026E000E81EC6CF05B0EC6
:10EEB400026EFF0E036E080E046E2DEC70F0010E50
:10EEC400026E000E81EC6CF0E10E026EFF0E036E1A
:10EED400080E046E2DEC70F07A0E206EFC0E216E7E
:10EEE40086EC6BF0CFEC6BF00009D8B47CEF77F0D4
:10EEF4007EEF77F074EF77F0870E6CEC6BF0000127
:10EF0400DE6B000EDD6FDEBF91EF77F0DE5109E1BD
:10EF1400050EDD5DD8A091EF77F093EF77F095EFD4
:10EF240077F0DDEF77F04BEC6BF00009D8B49DEF90
:10EF340077F09FEF77F095EF77F00001DD51BC0F8C
:10EF4400D96EDA6A97EC6FF0DF6E4BEC6BF0000968
:10EF5400D8B4AFEF77F0B1EF77F0A7EF77F0000117
:10EF6400DD51C10FD96EDA6A97EC6FF0DF6E0001E4
:10EF7400DD51C10FD96EDA6ADF50436E4350456EDE
:10EF8400446ADD51BC0FD96EDA6ADF50466E4650D2
:10EF94004426000E4522DD51020DF350B20FD96E06
:10EFA400DA6A600013F1DEFF600017F1DDFFDD4B6C
:10EFB400DE2B85EF77F0D56B000ED46FD5BFECEF69
:10EFC40077F0D55109E1050ED45DD8A0ECEF77F0C8
:10EFD400EEEF77F0F0EF77F03DEF76F0040E206E71
:10EFE400FF0E216ED4C022F0D5C023F0D451020DFF
:10EFF400F350B20FD96EDA6A6F0078FF24F06F0015
:10F0040074FF25F086EC6BF00001D44BD52BE0EFB8
:10F0140077F093EC6BF0000E026E000E81EC6CF056
:10F02400D90E026EFF0E036E070E046E2DEC70F007
:10F034007A0E206EFC0E216E86EC6BF0610E206E53
:10F04400FC0E216E86EC6BF053EC6FF00001D66F72
:10F054003AEF78F07A0E206EFC0E216E86EC6BF09F
:10F06400510E206EFC0E216E86EC6BF026EF78F0CC
:10F074002F0ED66540EF78F042EF78F02CEF78F061
:10F08400350ED66148EF78F04AEF78F02CEF78F03F
:10F09400000E026E070E81EC6CF00001D651AAEC52
:10F0A4006CF0CFEC6BF00009D8B45BEF78F05DEF57
:10F0B40078F053EF78F0870E6CEC6BF00001E06BA6
:10F0C400000EDF6FE0BF70EF78F0E05109E1050E4C
:10F0D400DF5DD8A070EF78F072EF78F074EF78F01D
:10F0E400BCEF78F04BEC6BF00009D8B47CEF78F00F
:10F0F4007EEF78F074EF78F00001DF51BC0FD96E29
:10F10400DA6A97EC6FF0DF6E4BEC6BF00009D8B461
:10F114008EEF78F090EF78F086EF78F00001DF5111
:10F12400C10FD96EDA6A97EC6FF0DF6E0001DF5120
:10F13400C10FD96EDA6ADF50436E4350456E446A9C
:10F14400DF51BC0FD96EDA6ADF50466E4650442652
:10F15400000E4522DF51020DF350B20FD96EDA6A68
:10F16400600013F1DEFF600017F1DDFFDF4BE02BE1
:10F1740064EF78F0D651D00FD36FF50E206EFE0EEB
:10F18400216ED3C022F0236AD351020DF350B20F83
:10F19400D96EDA6A6F0078FF24F06F0074FF25F0EF
:10F1A40086EC6BF03DEF76F093EC6BF0000E026EA4
:10F1B400000E81EC6CF0A30E026EFF0E036E080EBF
:10F1C400046E2DEC70F07A0E206EFC0E216E86EC2F
:10F1D4006BF02CEC6DF002C0DAF003C0DBF0C60E6D
:10F1E400206EE90E216EFF0E226EDAC023F0DBC022
:10F1F40024F013EC6CF020500001E26F010E026E5B
:10F20400000E81EC6CF0C60E026E036AE2C004F0DC
:10F214002DEC70F0750E206EFE0E216EDAC022F019
:10F22400DBC023F086EC6BF03DEF76F093EC6BF0F3
:10F23400000E026E000E81EC6CF0910E026EFF0E59
:10F24400036E080E046E2DEC70F07A0E206EFC0E28
:10F25400216E86EC6BF0CA0E206EFB0E216E86ECDE
:10F264006BF010EC6FF00001E46FE45131EC6EF0E0
:10F27400C60E206EF50E216EFF0E226EE4C023F042
:10F28400246A13EC6CF020500001E26F010E026E50
:10F29400000E81EC6CF0C60E026E036AE2C004F04C
:10F2A4002DEC70F0CFEC6BF00009D8B45CEF79F082
:10F2B4005EEF79F054EF79F0C10E6CEC6BF0CFECAB
:10F2C4006BF00009D8B469EF79F06BEF79F061EF76
:10F2D40079F00001E4516CEC6BF0CFEC6BF00009B9
:10F2E400D8B477EF79F079EF79F06FEF79F0C50E54
:10F2F4006CEC6BF0CFEC6BF00009D8B484EF79F0D0
:10F3040086EF79F07CEF79F00001E4516CEC6BF05E
:10F314003DEF76F093EC6BF0000E026E000E81EC84
:10F324006CF0AC0E026EFF0E036E080E046E2DEC34
:10F3340070F07A0E206EFC0E216E86EC6BF09C0E43
:10F34400206EFB0E216E86EC6BF010EC6FF000016A
:10F35400E46FE4518FEC6DF0C60E206EF50E216E55
:10F36400FF0E226EE4C023F0246A13EC6CF02050EC
:10F374000001E26F010E026E000E81EC6CF0C60E0D
:10F38400026E036AE2C004F02DEC70F0CFEC6BF077
:10F394000009D8B4D0EF79F0D2EF79F0C8EF79F062
:10F3A400C20E6CEC6BF0CFEC6BF00009D8B4DDEF5F
:10F3B40079F0DFEF79F0D5EF79F00001E4516CECEE
:10F3C4006BF0CFEC6BF00009D8B4EBEF79F0EDEF14
:10F3D40079F0E3EF79F0C60E6CEC6BF0CFEC6BF0E8
:10F3E4000009D8B4F8EF79F0FAEF79F0F0EF79F09A
:10F3F4000001E4516CEC6BF03DEF76F093EC6BF0B4
:10F40400000E026E000E81EC6CF07F0E026EFF0E99
:10F41400036E080E046E2DEC70F07A0E206EFC0E56
:10F42400216E86EC6BF0CA0E206EFB0E216E86EC0C
:10F434006BF010EC6FF00001E46FEF0E206EFA0E2B
:10F44400216E86EC6BF010EC6FF00001DC6FE45180
:10F45400DC25D16FD26BD237DCC002F0E451D7EC9B
:10F464006EF0C60E206EEF0E216EFF0E226EE4C00B
:10F4740023F0246ADCC025F0266A13EC6CF02050DB
:10F484000001E26F010E026E000E81EC6CF0C60EFC
:10F49400026E036AE2C004F02DEC70F0CFEC6BF066
:10F4A4000009D8B458EF7AF05AEF7AF050EF7AF0B6
:10F4B400C10E6CEC6BF0CFEC6BF00009D8B465EFC7
:10F4C4007AF067EF7AF05DEF7AF00001D1516CECDD
:10F4D4006BF0CFEC6BF00009D8B473EF7AF075EFF2
:10F4E4007AF06BEF7AF0C50E6CEC6BF0CFEC6BF04E
:10F4F4000009D8B480EF7AF082EF7AF078EF7AF0EE
:10F504000001E4516CEC6BF03DEF76F093EC6BF0A2
:10F51400000E026E000E81EC6CF0880E026EFF0E7F
:10F52400036E080E046E2DEC70F07A0E206EFC0E45
:10F53400216E86EC6BF0CA0E206EFB0E216E86ECFB
:10F544006BF010EC6FF00001E46FEF0E206EFA0E1A
:10F55400216E86EC6BF010EC6FF00001DC6FE4516F
:10F56400DC25D16FD26BD237DCC002F0E45167ECFA
:10F574006EF0C60E206EEF0E216EFF0E226EE4C0FA
:10F5840023F0246ADCC025F0266A13EC6CF02050CA
:10F594000001E26F010E026E000E81EC6CF0C60EEB
:10F5A400026E036AE2C004F02DEC70F0CFEC6BF055
:10F5B4000009D8B4E0EF7AF0E2EF7AF0D8EF7AF00D
:10F5C400C10E6CEC6BF0CFEC6BF00009D8B4EDEF2E
:10F5D4007AF0EFEF7AF0E5EF7AF00001E4516CECA9
:10F5E4006BF0CFEC6BF00009D8B4FBEF7AF0FDEFD1
:10F5F4007AF0F3EF7AF0C50E6CEC6BF0CFEC6BF0B5
:10F604000009D8B408EF7BF00AEF7BF000EF7BF041
:10F614000001D1516CEC6BF03DEF76F093EC6BF0A4
:10F62400000E026E000E81EC6CF06D0E026EFF0E89
:10F63400036E080E046E2DEC70F07A0E206EFC0E34
:10F64400216E86EC6BF004EC6BF0CFEC6BF00009F0
:10F65400D8B42FEF7BF031EF7BF027EF7BF0C10EB6
:10F664006CEC6BF0CFEC6BF00009D8B43CEF7BF0A2
:10F674003EEF7BF034EF7BF0000E6CEC6BF0CFECE4
:10F684006BF00009D8B449EF7BF04BEF7BF041EF0E
:10F694007BF0C50E6CEC6BF0CFEC6BF00009D8B4CA
:10F6A40056EF7BF058EF7BF04EEF7BF0000E6CECE6
:10F6B4006BF03DEF76F093EC6BF0000E026E000EF3
:10F6C40081EC6CF0B50E026EFF0E036E080E046E34
:10F6D4002DEC70F02CEC6DF002C0DAF003C0DBF01E
:10F6E400C60E206EE90E216EFF0E226EDAC023F0E4
:10F6F400DBC024F013EC6CF020500001E26F010E2B
:10F70400026E000E81EC6CF0C60E026E036AE2C05B
:10F7140004F02DEC70F082EC72F03DEF76F0D351F2
:10F72400420AD8B48CEF79F0040AD8B418EF79F00F
:10F734000A0AD8B400EF7AF01E0AD8B488EF7AF037
:10F74400010AD8B410EF7BF0300AD8B443EF76F056
:10F75400070AD8B40BEF78F0090AD8B45DEF7BF050
:10F764001F0AD8B452EF77F0040AD8B4D6EF78F071
:10F774003DEF76F0CBAAC1EF7BF0C3EF7BF062EFF5
:10F784007DF082EC72F093EC6BF0000E026E000ED2
:10F7940081EC6CF0490E026EFF0E036E080E046ECF
:10F7A4002DEC70F02CEC6DF002C0DAF003C0DBF04D
:10F7B400C60E206EE90E216EFF0E226EDAC023F013
:10F7C400DBC024F013EC6CF020500001E26F010E5A
:10F7D400026E000E81EC6CF0C60E026E036AE2C08B
:10F7E40004F02DEC70F03D0E446EE10E436E400EBD
:10F7F400E82EFED7432EFCD7442EFAD7000E026E15
:10F80400000E81EC6CF0D00E026EFF0E036E080E3B
:10F81400046E2DEC70F0FEEC6CF0010E026E000E26
:10F8240081EC6CF0640E026EFF0E036E080E046E23
:10F834002DEC70F0060E0DEC73F0100E436E940E6A
:10F84400E82EFED7432EFCD700D0400E016E900E5A
:10F8540056EC6BF07CEC70F0B2EC73F00001E16FED
:10F86400130E206EFF0E216EE1C022F0236A86EC97
:10F874006BF036EF7DF0E30E206EFE0E216E86EC0B
:10F884006BF0A1EC6BF0910E206EFD0E216E86ECF8
:10F894006BF05AEF7DF0CFEC6BF00009D8B455EF64
:10F8A4007CF057EF7CF04DEF7CF0BC0E6CEC6BF011
:10F8B4000A0E026E0A0E67EC6EF01F0E446E710E95
:10F8C400436E1E0EE82EFED7432EFCD7442EFAD7E5
:10F8D40000D076EF7CF00A0E026E0A0EC5EC6DF0D5
:10F8E400B2EC73F00001E16F040E0001E119D8A439
:10F8F4007EEF7CF080EF7CF06DEF7CF05AEF7DF0D2
:10F90400CFEC6BF00009D8B48AEF7CF08CEF7CF07C
:10F9140082EF7CF0BC0E6CEC6BF00A0E026E0A0EE9
:10F92400D7EC6EF01F0E446E710E436E1E0EE82E61
:10F93400FED7432EFCD7442EFAD700D0ABEF7CF091
:10F944000A0E026E0A0EFBEC6DF0B2EC73F00001CD
:10F95400E16F040E0001E119D8A4B3EF7CF0B5EF18
:10F964007CF0A2EF7CF05AEF7DF0CFEC6BF0000955
:10F97400D8B4BFEF7CF0C1EF7CF0B7EF7CF0BC0EE5
:10F984006CEC6BF0CFEF7CF00A0E026E0A0EC5EC45
:10F994006DF0B2EC73F00001E16F0001E105D8A451
:10F9A400D6EF7CF0D8EF7CF0C6EF7CF05AEF7DF018
:10F9B400CFEC6BF00009D8B4E2EF7CF0E4EF7CF01C
:10F9C400DAEF7CF0BC0E6CEC6BF0F2EF7CF00A0E1C
:10F9D400026E0A0EFBEC6DF0B2EC73F00001E16F05
:10F9E400100E0001E119D8A4FAEF7CF0FCEF7CF0D2
:10F9F400E9EF7CF05AEF7DF0CFEC6BF00009D8B45E
:10FA040006EF7DF008EF7DF0FEEF7CF0BC0E6CECB1
:10FA14006BF0CFEC6BF00009D8B413EF7DF015EF69
:10FA24007DF00BEF7DF0000E31EC6EF05AEF7DF0BF
:10FA3400CFEC6BF00009D8B422EF7DF024EF7DF019
:10FA44001AEF7DF0BC0E6CEC6BF0CFEC6BF00009A0
:10FA5400D8B42FEF7DF031EF7DF027EF7DF0000E6D
:10FA640031EC6EF05AEF7DF00001E151000AD8B498
:10FA7400FEEF7CF0010AD8B4DAEF7CF0030AD8B4C4
:10FA840082EF7CF0060AD8B43DEF7CF0010AD8B4CA
:10FA9400DAEF7CF00D0AD8B44DEF7CF0180AD8B434
:10FAA400B7EF7CF0040AD8B4B7EF7CF01AEF7DF01E
:10FAB400200E206EFF0E216E86EC6BF02EEF7CF094
:10FAC400FEEF7FF0000000000000000000000000D6
:10FAD4000000000000000000000000000000000022
:10FAE40000000000000000000000000920506C65C8
:10FAF40061736520656E7465722074686520747521
:10FB0400726E696E6720646966666572656E746993
:10FB1400616C3A207370656564202B2064696666A5
:10FB24006572656E7469616C203C20313237200D3A
:10FB34000A00202076200909202876296F6C746138
:10FB44006765202D205265616420616E64206469BC
:10FB540073706C6179206261747465727920766F58
:10FB64006C74616765200D0A00496E76616C696486
:10FB740020696E7075742E20506C656173652072F7
:10FB840065646F206E756D65726963616C20696E62
:10FB94007075742E200D0A000920506C6561736520
:10FBA40020656E74657220746865206261636B778A
:10FBB4006172642073706565642C2030202D2031BF
:10FBC4003237200D0A000920506C65617365206589
:10FBD4006E7465722074686520666F7277617264F2
:10FBE4002073706565642C2030202D20313237203D
:10FBF4000D0A00506C61636520616C6C2066697647
:10FC0400652073656E736F7273206F6E2061207749
:10FC1400686974652073757266616365200A0D00F6
:10FC2400506C61636520616C6C2066697665207335
:10FC3400656E736F7273206F6E206120626C6163F6
:10FC44006B2073757266616365200A0D00496E76D8
:10FC5400616C696420656E7472792E2020456E741F
:10FC640065722073656E736F72206E756D62657256
:10FC74002C20302D34200A0D002020722009092068
:10FC84002872296561642063616C696272617465BC
:10FC9400642073656E736F7273200D0A0020204216
:10FCA40020090920576865656C7320726F7461744C
:10FCB400652028422961636B77617264200D0A0014
:10FCC400202064200909202864296973706C6179F3
:10FCD4002073656E736F7220782076616C75652071
:10FCE4000D0A0020204620090920576865656C73B9
:10FCF40020726F74617465202846296F727761726F
:10FD040064200D0A00092A20202020202020202001
:10FD140020202020202020202020202020202020DF
:10FD24002020202A0D0A00092A20202020202044F7
:10FD34006961676E6F73746963204D656E75202009
:10FD440020202020202A0D0A00092A2020204150AA
:10FD540053432031323939202D20506F6C6F6C752C
:10FD6400203370692020202A0D0A00092A2A2A2A11
:10FD74002A2A2A2A2A2A2A2A2A2A2A2A2A2A2A2ADF
:10FD84002A2A2A2A2A2A2A2A2A2A0D0A00504944D7
:10FD9400204F4E2120706F737420636F6D6D616E00
:10FDA400642070726520627265616B00202063209C
:10FDB400090920286329616C696272617465207382
:10FDC400656E736F7273200D0A005768697465203D
:10FDD40063616C6962726174696F6E20636F6D70C8
:10FDE4006C657465200A0D00426C61636B2063616D
:10FDF4006C6962726174696F6E20636F6D706C659B
:10FE04007465200A0D00436F6D6D616E64204B654F
:10FE1400792009204465736372697074696F6E2078
:10FE24000D0A00507265737320616E79206B6579D9
:10FE340020746F20636F6E74696E7565200A0D00FF
:10FE440020206D2009092052656672657368202898
:10FE54006D29656E75200D0A0043616C69627261DB
:10FE640074696F6E20636F6D706C657465200A0D24
:10FE7400004261747465727920766F6C7461676591
:10FE8400203D202575200A0D00202052200909203C
:10FE940028522969676874207475726E200D0A00EF
:10FEA40020205320090920285329746F70206D6F76
:10FEB400746F72200D0A0020204C20090920284C60
:10FEC40029656674207475726E200D0A0053656E80
:10FED400736F72202575203D202575200A0D005072
:10FEE4004944204F4E20707265636F6D6D616E647E
:10FEF4000053656E736F722025643A2025750A00DD
:10FF040053656E736F722E2025642025750A005385
:10FF1400656E736F72733A2025750A0061667465A5
:10FF240072207377697463680043616C69627261FB
:10FF3400746500202020474F2020200020205345B6
:10FF44005420202000202052756E202020002052B2
:10FF5400454144592020002020526561642020003E
:10FF64002020646F6E65202000202053746F702061
:10FF7400200020202575207320200020204C656659
:10FF840074202000205269676874202000466F7234
:10FF940077617264200053656E736F727320004240
:10FFA40061747465727920004261636B7761726475
:10FFB40000446961676E6F736500436F6D706C65B3
:10FFC400746500436F756E74696E67004175746F74
:10FFD4002043616C0053656E736F72200053656E2D
:10FFE400736F7273002575206D5600257520257575
:07FFF400002025752000002C
:04FFFC00AFEF6BF008
:020000040030CA
:0A000000ECFEF7FF9FFFFFFFFFFF7C
:00000001FF
