:04000000FEEF7FF0A0
:10D4BE0012001200120012001200120012001200CE
:10D4CE00B88E1200B89E1200000E1DEC6DF0120008
:10D4DE00026E0250E0EC6AF0120001C05AF002C077
:10D4EE005BF0120001C05EF002C05FF0120001C0DE
:10D4FE005CF002C05DF0120001C0E0F002C0E1F08D
:10D50E00120001C058F002C059F0120001C056F0CE
:10D51E0002C057F012001050B76E60003FF0B6FF19
:10D52E001200A8EC6AF0F7EC6EF09FEC6AF01200B5
:10D53E00600E3901D96FDB6BDD6B070EDF6FDE6BB3
:10D54E0012003901C06BC16BC26BC36BC46BC56B70
:10D55E00C66BC76B12003901A3B7B8EF6AF0BBEF09
:10D56E006AF0010EBCEF6AF0000E1200026E60004F
:10D57E000BF0B8FF600007F0B9FFB89E3901A39F0A
:10D58E0012003901A6B5CEEF6AF0D1EF6AF0010EA6
:10D59E00D2EF6AF0000E1200326E3901A3A9DAEF53
:10D5AE006AF0DCEF6AF0D4EF6AF06000CBF0EAFDCF
:10D5BE001200016E3901A6A7E7EF6AF0E9EF6AF0F3
:10D5CE00E1EF6AF0600007F0D2FD1200220E266E27
:10D5DE00000E1A6E20C01BF021C01CF0260E1D6E10
:10D5EE002CEC6CF0120028EC6BF00009D8B402EFB2
:10D5FE006BF004EF6BF0FAEF6AF0B70ED3EC6AF053
:10D60E00120000EE60F0510EEE6AE806FDE100EE4B
:10D61E004BF00B0EEE6AE806FDE10001DAEF77F053
:10D62E006F00D8FE07F06F00DCFE08F00850036EA6
:10D63E000750056E03C006F005C001F006C002F0EB
:10D64E001200016A3901A3A92FEF6BF031EF6BF0D5
:10D65E003BEF6BF03D01F2AB37EF6BF039EF6BF058
:10D66E003BEF6BF0010E016E01501200016A3901A1
:10D67E00A6A744EF6BF046EF6BF050EF6BF03D0159
:10D68E00DAAB4CEF6BF04EEF6BF050EF6BF0010E30
:10D69E00016E0150120008BE57EF6BF059EF6BF0A0
:10D6AE005FEF6BF007C007F008C008F06BEF6BF090
:10D6BE0007C009F008C00AF0091E0A1E094A0A2A04
:10D6CE0009C007F00AC008F01200230E296E20C010
:10D6DE002AF02D6A000E2C6E346A000E336E2A0E5E
:10D6EE001A6E21C01BF022C01CF0290E1D6E2CECF0
:10D6FE006CF01AC027F01BC028F020502C24D96ED5
:10D70E00DA6ADF6A27C020F028C021F012003D013E
:10D71E00D46BD66BD86BB00EDA6F800EDB6FDC6B12
:10D72E00E10EDD6F040EDE6FDF6BE06BE16BE26B23
:10D73E00C60E016ED40E026E88EC6AF0C80E016E33
:10D74E00D40E026E8DEC6AF0C40E016ED40E026E13
:10D75E0083EC6AF0546A12003D01EC6BED6BEE6BDC
:10D76E00EF6BF06BF16BB00EF26F800EF36FF46B2C
:10D77E00670EF56FF66BF76BF86BF96BFA6BC00E05
:10D78E00016ED40E026E79EC6AF0C20E016ED40EEA
:10D79E00026E7EEC6AF0BE0E016ED40E026E74EC5A
:10D7AE006AF0556A1200346E28EC6BF00009D8B49A
:10D7BE00E3EF6BF0E5EF6BF0DBEF6BF0B90ED3EC54
:10D7CE006AF028EC6BF00009D8B4F0EF6BF0F2EFD2
:10D7DE006BF0E8EF6BF03450D3EC6AF028EC6BF0A2
:10D7EE000009D8B4FDEF6BF0FFEF6BF0F5EF6BF0C7
:10D7FE003350D3EC6AF01200336E28EC6BF0000954
:10D80E00D8B40CEF6CF00EEF6CF004EF6CF0B80EB9
:10D81E00D3EC6AF028EC6BF00009D8B419EF6CF079
:10D82E001BEF6CF011EF6CF0010ED3EC6AF028ECEC
:10D83E006BF00009D8B426EF6CF028EF6CF01EEFF9
:10D84E006CF03350D3EC6AF012001BC01EF01CC0FB
:10D85E001FF04C6A000E4B6E41EF6CF01AC00BF0CD
:10D86E001E0E0C6E1DC00DF01AEC74F00B504B26F4
:10D87E000C504C2260007BF0F6FF60007FF0F7FF4B
:10D88E00F86A0800F5500009D8A450EF6CF052EF7A
:10D89E006CF035EF6CF04BC01AF04CC01BF0120060
:10D8AE0028EC6BF00009D8B45FEF6CF061EF6CF010
:10D8BE0057EF6CF0BA0ED3EC6AF0B2EC6AF00009D6
:10D8CE00D8B46CEF6CF06EEF6CF064EF6CF07AEF36
:10D8DE006CF0B2EC6AF00009D8B478EF6CF07AEF25
:10D8EE006CF070EF6CF013EC6EF0630AD8A482EF5C
:10D8FE006CF084EF6CF070EF6CF0120028EC6BF0B3
:10D90E000009D8B48DEF6CF08FEF6CF085EF6CF0F2
:10D91E00B10ED3EC6AF0B2EC6AF00009D8B49AEF0B
:10D92E006CF09CEF6CF092EF6CF013EC6EF0376EC7
:10D93E00B2EC6AF00009D8B4A7EF6CF0A9EF6CF066
:10D94E009FEF6CF013EC6EF0386E3850366E356A11
:10D95E0037503524336E000E3620346E12000350CD
:10D96E000410D8B4BDEF6CF0BFEF6CF0E3EF6CF0C9
:10D97E00010E056EC7EF6CF0D89003360436052AFB
:10D98E0004AECCEF6CF0CEEF6CF0C3EF6CF0035046
:10D99E00015C04500258D8A0D7EF6CF0D9EF6CF0B0
:10D9AE00DDEF6CF00350015E0450025AD890043241
:10D9BE000332052ECEEF6CF001C001F002C002F072
:10D9CE001200346E69EC6AF0470E016E900EBDECDB
:10D9DE006AF0670E016E000E026E0F0E036E000EE1
:10D9EE00046E3450056E066A076A086A8BEC71F095
:10D9FE00015000080F6E0250D8A0E82A0008106EE1
:10DA0E0092EC6AF03901A39F67EC6AF034501DEC7A
:10DA1E006DF03901A3AF16EF6DF018EF6DF010EF4A
:10DA2E006DF06BEC6AF069EC6AF01200336E28EC64
:10DA3E006BF00009D8B426EF6DF028EF6DF01EEFF5
:10DA4E006DF0C10ED3EC6AF028EC6BF00009D8B47F
:10DA5E0033EF6DF035EF6DF02BEF6DF03350D3ECFF
:10DA6E006AF028EC6BF00009D8B440EF6DF042EF8D
:10DA7E006DF038EF6DF0C50ED3EC6AF028EC6BF05C
:10DA8E000009D8B44DEF6DF04FEF6DF045EF6DF02E
:10DA9E003328D3EC6AF01200066A000E056E0350AE
:10DAAE000410D8B45DEF6DF05FEF6DF087EF6DF0A1
:10DABE00010E076E67EF6DF0D89003360436072A15
:10DACE0004AE6CEF6DF06EEF6DF063EF6DF0D8900D
:10DADE00053606360350015C04500258D8A07AEF82
:10DAEE006DF07CEF6DF081EF6DF00350015E045030
:10DAFE00025A0580D89004320332072E6EEF6DF075
:10DB0E0005C001F006C002F012002868276AC4EFB3
:10DB1E006DF0CFEC6DF0286E0D0E2818D8A49AEF8C
:10DB2E006DF09CEF6DF09EEF6DF0C4EF6DF02F0E6B
:10DB3E002864A4EF6DF0A6EF6DF0AEEF6DF0390E28
:10DB4E002864ACEF6DF0AEEF6DF0BEEF6DF0D40E5D
:10DB5E00206EFC0E216EEDEC6AF0C70E206EFB0EF1
:10DB6E00216EEDEC6AF0276A2868C4EF6DF027503D
:10DB7E000A0DF3502824D00F276E0D0E2818D8A4A6
:10DB8E00CBEF6DF0CDEF6DF090EF6DF027501200F2
:10DB9E000268F8EF6DF0C8EC6AF00009D8B4DAEF5D
:10DBAE006DF0DCEF6DF0F8EF6DF05DEC6EF0026E87
:10DBBE003DEC6BF00009D8B4E7EF6DF0E9EF6DF0D6
:10DBCE00F8EF6DF00250E0EC6AF00D0E0218D8A4DA
:10DBDE00F3EF6DF0F5EF6DF0F8EF6DF00A0EE0EC8F
:10DBEE006AF02F0E0264FEEF6DF000EF6EF008EF9C
:10DBFE006EF07A0E026406EF6EF008EF6EF011EF23
:10DC0E006EF00D0E0218D8A40FEF6EF011EF6EF03D
:10DC1E00D2EF6DF0025012003901A3A719EF6EF08A
:10DC2E001BEF6EF013EF6EF0556A3D01F9A722EF70
:10DC3E006EF024EF6EF031EF6EF0558202D831EFB8
:10DC4E006EF00500FA6E5E50FD6E5F50FE6EFF6A5E
:10DC5E00FA5012003D01F9A337EF6EF039EF6EF076
:10DC6E0046EF6EF0558402D846EF6EF00500FA6E60
:10DC7E005C50FD6E5D50FE6EFF6AFA5012005550FC
:10DC8E00D8B44CEF6EF04EEF6EF05AEF6EF002D845
:10DC9E005AEF6EF00500FA6E5A50FD6E5B50FE6E36
:10DCAE00FF6AFA5012003D01E85112003901A6A593
:10DCBE0063EF6EF065EF6EF05DEF6EF0546A3D014E
:10DCCE00E1A76CEF6EF06EEF6EF07BEF6EF05482AC
:10DCDE0002D87BEF6EF00500FA6E5850FD6E59506B
:10DCEE00FE6EFF6AFA5012003D01E1A381EF6EF065
:10DCFE0083EF6EF090EF6EF0548402D890EF6EF0DA
:10DD0E000500FA6E5650FD6E5750FE6EFF6AFA50C1
:10DD1E0012005450D8B496EF6EF098EF6EF0A5EF57
:10DD2E006EF002D8A5EF6EF00500FA6E0001E0511C
:10DD3E00FD6EE151FE6EFF6AFA5012003D01D051A8
:10DD4E001200386A28EC6BF00009D8B4B1EF6EF00F
:10DD5E00B3EF6EF0A9EF6EF0B80ED3EC6AF028ECCC
:10DD6E006BF00009D8B4BEEF6EF0C0EF6EF0B6EFF8
:10DD7E006EF03550D3EC6AF0EDEF6EF028EC6BF0F0
:10DD8E000009D8B4CDEF6EF0CFEF6EF0EDEF6EF080
:10DD9E0038503324366E000E3420376E6000DBF0C0
:10DDAE00F6FF6000DFF0F7FF000EF86E0F0EF7645F
:10DDBE0003D00800F55007D06F00DBFFE9FF6F00BE
:10DDCE00DFFFEAFFEF50D3EC6AF0382A3550385CAB
:10DDDE00D8A0F4EF6EF0F6EF6EF0C5EF6EF0120015
:10DDEE00BE6ABD6ABA6ABB6ABC6A070EC66EC268F4
:10DDFE00BF0EC36E840EC46EC5683A01706B606B45
:10DE0E002F0E506F070E806FEF0E406F716B816B90
:10DE1E00516B416B616B5A6B5B6B6A6B6B6B7A6BA5
:10DE2E007B6B826B426B526B180E626F726B436927
:10DE3E00536963697369070E836F44695469646932
:10DE4E0074690F0E846F0F0EE86F250E106F160E8D
:10DE5E000E6F210E136F0F0E116F220E146F170E11
:10DE6E00E56F040EC36F130EE16F0C0EDD6F140E13
:10DE7E00E26F120ECA6F0D0E156F130E166F120093
:10DE8E000550D8B44DEF6FF04FEF6FF057EF6FF0C6
:10DE9E000550D8A455EF6FF057EF6FF05CEF6FF0B1
:10DEAE0003506FEC6AF09CEF6FF00550D96EDA6A92
:10DEBE00090ED926DE50DE10D8B468EF6FF06AEF87
:10DECE006FF083EF6FF00550D96EDA6A090ED9261E
:10DEDE000550E16EE26A020EE126DE50E65CE65087
:10DEEE00800A0A6EDE50800A0A58D8B081EF6FF0B1
:10DEFE0083EF6FF09CEF6FF00550D96EDA6A020E69
:10DF0E00D926DF50066E0550D96EDA6ADF50062428
:10DF1E00D96EDA6A60000FF0DFFF0550D96EDA6A4B
:10DF2E00020ED926DE2A000EDD221200066A02BE7D
:10DF3E00A5EF6FF0A3EF6FF0ABEF6FF0016C021E69
:10DF4E00D8B0022A010E066E04BEB2EF6FF0B0EF2B
:10DF5E006FF0B6EF6FF0036C041ED8B0042A0350B6
:10DF6E000410D8B4BDEF6FF0BFEF6FF0E3EF6FF0BA
:10DF7E00010E056EC7EF6FF0D89003360436052AF2
:10DF8E0004AECCEF6FF0CEEF6FF0C3EF6FF0035037
:10DF9E00015C04500258D8A0D7EF6FF0D9EF6FF0A4
:10DFAE00DDEF6FF00350015E0450025AD890043238
:10DFBE000332052ECEEF6FF00650D8B4E9EF6FF0B6
:10DFCE00EBEF6FF0EFEF6FF0016C021ED8B0022A8C
:10DFDE0001C001F002C002F01200336E28EC6BF0AB
:10DFEE000009D8B4FDEF6FF0FFEF6FF0F5EF6FF0B3
:10DFFE00C10ED3EC6AF028EC6BF00009D8B40AEF2E
:10E00E0070F00CEF70F002EF70F03350D3EC6AF05A
:10E01E0028EC6BF00009D8B417EF70F019EF70F020
:10E02E000FEF70F0C50ED3EC6AF028EC6BF0000920
:10E03E00D8B424EF70F026EF70F01CEF70F0330EB2
:10E04E00136E330E146E830E156E3F0E166E335016
:10E05E00016E026A036A046A010E40EC73F001C09D
:10E06E000FF002C010F003C011F004C012F0B5ECB6
:10E07E0075F00FC028F010C029F011C02AF012C0A0
:10E08E002BF008EC71F02850D3EC6AF0120028EC5B
:10E09E006BF00009D8B456EF70F058EF70F04EEFF9
:10E0AE0070F0B40ED3EC6AF0436AB2EC6AF0000979
:10E0BE00D8B464EF70F066EF70F05CEF70F0435020
:10E0CE00390FD96EDA6A13EC6EF0DF6EB2EC6AF0CD
:10E0DE000009D8B475EF70F077EF70F06DEF70F057
:10E0EE0043503E0FD96EDA6A13EC6EF0DF6E43507A
:10E0FE003E0FD96EDA6ADF50356E3550376E366A9E
:10E10E004350390FD96EDA6ADF50386E38503626E2
:10E11E00000E37224350020DF350A70FD96EDA6A64
:10E12E006000DBF0DEFF6000DFF0DDFF432A040E4F
:10E13E004364A4EF70F0A6EF70F05CEF70F0A70EE2
:10E14E001200066A04BEB0EF70F0AEEF70F0B6EFDC
:10E15E0070F0036C041ED8B0042A010E066E02BEC7
:10E16E00BDEF70F0BBEF70F0C3EF70F0016C021EEC
:10E17E00D8B0022A010E061A086A000E076E035066
:10E18E000410D8B4CDEF70F0CFEF70F0F7EF70F061
:10E19E00010E056ED7EF70F0D89003360436052ABF
:10E1AE0004AEDCEF70F0DEEF70F0D3EF70F0D890CD
:10E1BE00073608360350015C04500258D8A0EAEF27
:10E1CE0070F0ECEF70F0F1EF70F00350015E045060
:10E1DE00025A0780D89004320332052EDEEF70F01B
:10E1EE000650D8B4FDEF70F0FFEF70F003EF71F052
:10E1FE00076C081ED8B0082A07C001F008C002F04C
:10E20E0012002A342B34316E3150D8A411EF71F034
:10E21E0013EF71F01DEF71F0000E286E000E296ED7
:10E22E00000E2A6E000E2B6E8AEF71F028C02CF0B5
:10E23E0029C02DF02AC02EF02BC02FF0200E2DEF6E
:10E24E0071F0D8902F322E322D322C32E82E28EF4C
:10E25E0071F02C50306E2A8EFF0E2816FF0E2916E6
:10E26E00FF0E2A16000E2B16960E315E31BE44EFAF
:10E27E0071F042EF71F05AEF71F03150800A970F42
:10E28E00D8B04CEF71F04EEF71F050EF71F013EF1C
:10E29E0071F0D8902B322A3229322832313E50EF8B
:10E2AE0071F072EF71F01F0E316460EF71F062EF7A
:10E2BE0071F06AEF71F013EF71F0D89028362936AD
:10E2CE002A362B3631063150D8A470EF71F072EF2A
:10E2DE0071F064EF71F03050D8B478EF71F07AEFDE
:10E2EE0071F082EF71F02B1E2A1E291E286C000E73
:10E2FE0029222A222B2228C028F029C029F02AC040
:10E30E002AF02BC02BF012000A6A08BE93EF71F0B0
:10E31E0091EF71F09DEF71F0081E071E061E056C41
:10E32E00000E062207220822010E0A6E04BEA4EF7A
:10E33E0071F0A2EF71F0AEEF71F0041E031E021E1B
:10E34E00016C000E022203220422010E0A1A000E94
:10E35E000B6E000E0C6E000E0D6E000E0E6E055046
:10E36E00061007100810D8B4BFEF71F0C1EF71F0AE
:10E37E00F7EF71F0010E096ECBEF71F0D890053604
:10E38E00063607360836092A08AED0EF71F0D2EFFE
:10E39E0071F0C5EF71F0D8900B360C360D360E3687
:10E3AE000550015C06500258075003580850045897
:10E3BE00D8A0E4EF71F0E6EF71F0EFEF71F00550D9
:10E3CE00015E0650025A0750035A0850045A0B8039
:10E3DE00D8900832073206320532092ED2EF71F08C
:10E3EE000A50D8B4FDEF71F0FFEF71F007EF72F045
:10E3FE000E1E0D1E0C1E0B6C000E0C220D220E227C
:10E40E000BC001F00CC002F00DC003F00EC004F002
:10E41E001200F30E206EFB0E216EEDEC6AF0C90EAB
:10E42E00206EFD0E216EEDEC6AF0630E206EFD0E79
:10E43E00216EEDEC6AF0A70E206EFD0E216EEDEC56
:10E44E006AF0850E206EFD0E216EEDEC6AF0630E05
:10E45E00206EFD0E216EEDEC6AF0C90E206EFD0EE3
:10E46E00216EEDEC6AF0D40E206EFC0E216EEDECFA
:10E47E006AF0450E206EFE0E216EEDEC6AF0EB0E8C
:10E48E00206EFD0E216EEDEC6AF0D70E206EFC0EA6
:10E49E00216EEDEC6AF01E0E206EFD0E216EEDEC7F
:10E4AE006AF0F30E206EFB0E216EEDEC6AF0900E0C
:10E4BE00206EFB0E216EEDEC6AF0F30E206EFB0E5D
:10E4CE00216EEDEC6AF0410E206EFD0E216EEDEC2C
:10E4DE006AF0FB0E206EFC0E216EEDEC6AF0F60E6D
:10E4EE00206EFE0E216EEDEC6AF0C80E206EFE0E52
:10E4FE00216EEDEC6AF0DF0E206EFE0E216EEDEC5D
:10E50E006AF0F30E206EFB0E216EEDEC6AF07F0EBC
:10E51E00206EFE0E216EEDEC6AF0D40E206EFC0E17
:10E52E00216EEDEC6AF01200446E44C046F0FAEC37
:10E53E006AF0C70E336EFF0E346E080E356EA8EC01
:10E54E006EF0480E016E900EBDEC6AF067EC6AF04C
:10E55E00010E336E000EDAEC6BF0390E206E760E75
:10E56E00216EFF0E226E46C023F0246A6CEC6BF017
:10E57E002050456E390E336E346A45C035F0A8EC26
:10E58E006EF035EF73F017EC6BF001C042F002C085
:10E59E0043F01B0E425CB70E4358D8A0D9EF72F071
:10E5AE00DBEF72F035EF73F04606106A000E0F6E59
:10E5BE0092EC6AF026EF73F0FAEC6AF0010E336E0D
:10E5CE00000EDAEC6BF0370E336EFF0E346E080E63
:10E5DE00356EA8EC6EF035EF73F0010E336E000E53
:10E5EE00DAEC6BF0400E336EFF0E346E080E356EA5
:10E5FE00A8EC6EF035EF73F0010E336E000EDAEC10
:10E60E006BF0520E336EFF0E346E080E356EA8ECA4
:10E61E006EF035EF73F0010E336E000EDAEC6BF028
:10E62E00390E206E760E216EFF0E226E46C023F03E
:10E63E00246A6CEC6BF02050456EC1EF72F04650C0
:10E64E00000AD8B4E3EF72F0010AD8B4F4EF72F016
:10E65E00030AD8B403EF73F012EF73F04650D8A448
:10E66E003BEF73F03DEF73F0CAEF72F069EC6AF0B6
:10E67E001200096E0950D8B447EF73F049EF73F0EA
:10E68E006BEF73F004BE50EF73F04EEF73F06BEF61
:10E69E0073F001C005F002C006F003C007F004C01D
:10E6AE0008F0051E061E071E081E052A000E06226D
:10E6BE000722082205C00BF006C00CF007C00DF0B3
:10E6CE0008C00EF073EF73F001C00BF002C00CF037
:10E6DE0003C00DF004C00EF0015002100310041020
:10E6EE00D8A47CEF73F07EEF73F088EF73F0000E1A
:10E6FE00016E000E026E000E036E000E046E19EF18
:10E70E0074F0960E0A6E92EF73F00A2AD8900E32BB
:10E71E000D320C320B32000E0B14056E000E0C1463
:10E72E00066E000E0D14076EFE0E0E14086E0550CA
:10E73E00061007100810D8A4A7EF73F0A9EF73F016
:10E74E008CEF73F0B7EF73F00A2A010E0B26000E52
:10E75E000C220D220E22D8900E320D320C320B32BC
:10E76E00000E0B14056E000E0C14066E000E0D142A
:10E77E00076EFF0E0E14086E0550061007100810D7
:10E78E00D8A4CCEF73F0CEEF73F0ABEF73F0D6EFFF
:10E79E0073F00A06D8900B360C360D360E360DBEBB
:10E7AE00DBEF73F0DDEF73F0E5EF73F0020E0A604E
:10E7BE00E3EF73F0E5EF73F0D0EF73F00AB0EAEF2A
:10E7CE0073F0ECEF73F0EDEF73F00D9ED8900A320C
:10E7DE000AC005F0066A076A086A05C008F0076AEB
:10E7EE00066A056A05500B1206500C1207500D12E0
:10E7FE0008500E120950D8B407EF74F009EF74F0F8
:10E80E0011EF74F004BE10EF74F00EEF74F011EF10
:10E81E0074F00E8E0BC001F00CC002F00DC003F0B0
:10E82E000EC004F01200126A000E116E0C50D96E5A
:10E83E00DA6A6F007BFFF6FF6F0077FFF7FFF86A6B
:10E84E000800F550250AD8A42FEF74F031EF74F0BC
:10E85E0099EF75F00C50D96EDA6ADE2A000EDD22C1
:10E86E004E6A000E4D6E4DC053F04F6850680C50FE
:10E87E00D96EDA6A6F0078FF13F06F0074FF14F030
:10E88E0060004FF0F6FF600053F0F7FFF86A0800E3
:10E89E00F550640AD8B456EF74F058EF74F069EF7F
:10E8AE0074F060004FF0F6FF600053F0F7FFF86A67
:10E8BE000800F550690AD8A467EF74F069EF74F098
:10E8CE0001EF75F00D50D96EDA6A020EDF26DF5CAD
:10E8DE00D96EDA6A6F0078FF15F06F0078FF16F0C8
:10E8EE00010E13240E6E000E14200F6E0C50D96EF6
:10E8FE00DA6A60003BF0DEFF60003FF0DDFF200EC5
:10E90E00196E16BE8DEF74F090EF74F0010E91EF4C
:10E91E0074F0000E106E19061950600FD96EDA6A77
:10E92E0015C001F016C002F0046A0A0E036E9DECCB
:10E93E006FF001C007F002C008F052EC6BF0075008
:10E94E00300FDF6E15C001F016C002F0046A0A0E19
:10E95E00036EA8EC70F001C015F002C016F0114A5B
:10E96E00122A15501610D8B4BFEF74F0C1EF74F020
:10E97E00C9EF74F01950D8A4C7EF74F0C9EF74F052
:10E98E0092EF74F01950D8B4CFEF74F0D1EF74F059
:10E99E00F2EF74F01050D8B4D7EF74F0D9EF74F0E2
:10E9AE00F2EF74F019061950600FD96EDA6A2D0E57
:10E9BE00DF6E114A122AF2EF74F01950600FD96E01
:10E9CE00DA6ADF500E6E0E50036E046A0BC005F04D
:10E9DE0047EC6FF0192A200E1918D8A4F9EF74F02D
:10E9EE00FBEF74F0E4EF74F011C00BF012C00CF0FA
:10E9FE00B4EF75F060004FF0F6FF600053F0F7FFD4
:10EA0E00F86A0800F550750AD8A410EF75F012EFE9
:10EA1E0075F08EEF75F00D50D96EDA6A020EDF26A4
:10EA2E00DF5CD96EDA6A6F0078FF15F06F0078FF41
:10EA3E0016F0010E13240E6E000E14200F6E0C50E5
:10EA4E00D96EDA6A60003BF0DEFF60003FF0DDFF5A
:10EA5E007FEF75F0200E196E19061950600FD96EE2
:10EA6E00DA6A15C001F016C002F0046A0A0E036ECF
:10EA7E00B6EC6CF00150300FDF6E15C001F016C011
:10EA8E0002F0046A0A0E036E53EC6DF001C015F02D
:10EA9E0002C016F0114A122A15501610D8B45AEFA9
:10EAAE0075F05CEF75F074EF75F01950D8A462EF45
:10EABE0075F064EF75F033EF75F074EF75F0195073
:10EACE00600FD96EDA6ADF500E6E0E50036E046A56
:10EADE000BC005F047EC6FF0192A200E1918D8A4B8
:10EAEE007BEF75F07DEF75F066EF75F0FBEF74F070
:10EAFE0060004FF0F6FF600053F0F7FFF86A080071
:10EB0E00F550750AD8B431EF75F08EEF75F00C50E4
:10EB1E00D96EDA6ADE2A000EDD220C6A000E0B6E4A
:10EB2E00B4EF75F00C50D96EDA6A6F007BFFF6FF0A
:10EB3E006F0077FFF7FFF86A0800F550036E046A5E
:10EB4E000BC005F047EC6FF00C50D96EDA6ADE2A76
:10EB5E00000EDD220C6A010E0B6E12001250800B9D
:10EB6E001B6E12501224216E11AEC0EF75F0C2EF63
:10EB7E0075F0C3EF75F021802150D8B4C9EF75F050
:10EB8E00CBEF75F0DEEF75F02128D8A4D1EF75F03C
:10EB9E00D3EF75F0DBEF75F0000E0F6E000E106EFA
:10EBAE00000E116E000E126E118EE6EF75F0000E55
:10EBBE000F6E000E106E000E116E000E126E1650BD
:10EBCE00800B1B1A16501624206E15AEF1EF75F041
:10EBDE00F3EF75F0F4EF75F020802050D8B4FAEF13
:10EBEE0075F0FCEF75F00FEF76F02028D8A402EF49
:10EBFE0076F004EF76F00CEF76F0000E136E000E4A
:10EC0E00146E000E156E000E166E158E17EF76F042
:10EC1E00000E136E000E146E000E156E000E166EA4
:10EC2E002050D8B41DEF76F01FEF76F027EF76F078
:10EC3E002150D8A425EF76F027EF76F031EF76F05D
:10EC4E00000E0F6E000E106E000E116E000E126E84
:10EC5E00D9EF77F015500F026F00CCFF26F06F0042
:10EC6E00D0FF27F026501C6E1D6A1E6A1F6A2750A1
:10EC7E00226E236A246A256A145010026F00CCFF9C
:10EC8E0026F06F00D0FF27F026501C26000E1D2206
:10EC9E001E221F2227502226000E23222422252246
:10ECAE00135011026F00CCFF26F06F00D0FF27F03B
:10ECBE0026501C26000E1D221E221F222750222601
:10ECCE00000E2322242225221EC01FF01DC01EF07E
:10ECDE001CC01DF01C6A135010026F00CCFF26F0F2
:10ECEE006F00D0FF27F026501C2627501D22000E45
:10ECFE001E22000E1F2214500F026F00CCFF26F0B2
:10ED0E006F00D0FF27F026501C2627501D22000E24
:10ED1E001E22000E1F221EC01FF01DC01EF01CC0A2
:10ED2E001DF01C6A13500F026F00CCFF26F06F000F
:10ED3E00D0FF27F026501C2627501D22000E1E2223
:10ED4E00000E1F22155010026F00CCFF26F06F0030
:10ED5E00D0FF27F02650222627502322000E2422F1
:10ED6E00000E2522145011026F00CCFF26F06F000A
:10ED7E00D0FF27F02650222627502322000E2422D1
:10ED8E00000E2522155011026F00CCFF26F06F00E9
:10ED9E00D0FF27F02650176E2750186E196A1A6A80
:10EDAE0019C01AF018C019F017C018F0176A1750CA
:10EDBE00222618502322195024221A5025221CC014
:10EDCE0017F01DC018F01EC019F01FC01AF0190E52
:10EDDE00F6EF76F0D8901A32193218321732E82E32
:10EDEE00F1EF76F0175022261850232219502422C4
:10EDFE001A5025221EC01FF01DC01EF01CC01DF093
:10EE0E001C6A205021C017F0186A1726000E18220F
:10EE1E00820E1724266EFF0E1820276E2CEF77F029
:10EE2E00D89022362336243625361FAE21EF77F0C2
:10EE3E0023EF77F024EF77F02280D8901C361D3622
:10EE4E001E361F362606D8A0270624AE31EF77F0E1
:10EE5E0033EF77F017EF77F0206A1FAE39EF77F0C8
:10EE6E003BEF77F05FEF77F0FF0E1C14176EFF0E7F
:10EE7E001D14186EFF0E1E14196E7F0E1F141A6EBF
:10EE8E001750181019101A10D8B450EF77F052EF1F
:10EE9E0077F056EF77F0010E206E5FEF77F022A03D
:10EEAE005BEF77F05DEF77F05FEF77F052EF77F093
:10EEBE002050D8B465EF77F067EF77F08BEF77F0EF
:10EECE00010E2226000E23222422252225A072EFD7
:10EEDE0077F074EF77F08BEF77F022C017F023C046
:10EEEE0018F024C019F025C01AF01A341A3219324B
:10EEFE001832173217C022F018C023F019C024F0B0
:10EF0E001AC025F0264A272A27BE96EF77F02750FB
:10EF1E0008E12628D8A096EF77F098EF77F0A2EFC9
:10EF2E0077F0000E226E000E236E800E246E7F0E82
:10EF3E00256ECFEF77F027BEAFEF77F0275006E1C3
:10EF4E002604D8B0ADEF77F0AFEF77F0BAEF77F0E9
:10EF5E00000E226E000E236E000E246E000E256E25
:10EF6E001B6ACFEF77F026C021F0FF0E2216FF0EA0
:10EF7E0023167F0E2416000E251621A0C9EF77F05A
:10EF8E00CBEF77F0CCEF77F0248ED8902130256E32
:10EF9E001B50251222C00FF023C010F024C011F018
:10EFAE0025C012F0120098EC6AF0F7EC6EF0B3EC9C
:10EFBE006BF08EEC6BF0C38A3A01509BCBBAEAEF42
:10EFCE0077F0ECEF77F008EF7DF010EC72F0FAECE2
:10EFDE006AF0000E336E000EDAEC6BF0B50E336E87
:10EFEE00FF0E346E080E356EA8EC6EF085EC6CF0EC
:10EFFE0033C0D8F034C0D9F0C60E206EE90E216EA3
:10F00E00FF0E226ED8C023F0D9C024F06CEC6BF04A
:10F01E0020500001DD6F010E336E000EDAEC6BF046
:10F02E00C60E336E346ADDC035F0A8EC6EF0CFEC50
:10F03E006DF00001D36FDDEF7CF0FAEC6AF0000E9C
:10F04E00336E000EDAEC6BF02D0E336EFF0E346E57
:10F05E00080E356EA8EC6EF0010E336E000EDAEC73
:10F06E006BF09A0E336EFF0E346E080E356EA8ECF2
:10F07E006EF0D40E206EFC0E216EEDEC6AF00001E7
:10F08E00CF6BA8EF78F0510E206EFC0E216EEDECDA
:10F09E006AF0620E206EFE0E216EEDEC6AF0CFEC81
:10F0AE006DF00001C56F4EEC70F00001D56FD76B9F
:10F0BE00000ED66FDE6B040EDE6568EF78F06AEF39
:10F0CE0078F06CEF78F097EF78F0DE51020DD551B5
:10F0DE00F324D96EDA6A6F0078FF47F06F0074FF81
:10F0EE0048F0D6514724D66FD7514820D76F0C0E13
:10F0FE00206EFF0E216EDEC022F0236ADE51020D5D
:10F10E00D551F324D96EDA6A6F0078FF24F06F00C0
:10F11E0074FF25F0EDEC6AF00001DE2B62EF78F063
:10F12E00D651D711D8A49EEF78F0A0EF78F0A8EFC3
:10F13E0078F0010ECF6F090E206EFE0E216EEDECF3
:10F14E006AF00001CF51D8B4AFEF78F0B1EF78F09C
:10F15E004AEF78F0D06B28EF79F07E0E206EFC0E21
:10F16E00216EEDEC6AF0620E206EFE0E216EEDEC5D
:10F17E006AF0CFEC6DF00001C56F4EEC70F000013F
:10F18E00D56FD76B000ED66FDE6B040EDE65D2EF39
:10F19E0078F0D4EF78F0D6EF78F001EF79F0DE5119
:10F1AE00020DD551F324D96EDA6A6F0078FF47F05D
:10F1BE006F0074FF48F0D6514724D66FD7514820C0
:10F1CE00D76F0C0E206EFF0E216EDEC022F0236A6A
:10F1DE00DE51020DD551F324D96EDA6A6F0078FF35
:10F1EE0024F06F0074FF25F0EDEC6AF00001DE2BC9
:10F1FE00CCEF78F0880ED61907E1130ED719D8A4E4
:10F20E000BEF79F00DEF79F028EF79F0010ED06F5A
:10F21E00270E206EFE0E216EEDEC6AF0980E206E1B
:10F22E00FE0E216EEDEC6AF0010E336E000EDAEC7E
:10F23E006BF0BE0E336EFF0E346E080E356EA8ECFC
:10F24E006EF00001D051D8B42FEF79F031EF79F094
:10F25E00B4EF78F01EEF78F0FAEC6AF0000E336E31
:10F26E00000EDAEC6BF05B0E336EFF0E346E080E92
:10F27E00356EA8EC6EF0010E336E000EDAEC6BF00C
:10F28E00E10E336EFF0E346E080E356EA8EC6EF086
:10F29E00D40E206EFC0E216EEDEC6AF01EEF78F0AF
:10F2AE00FAEC6AF0000E336E000EDAEC6BF0D90E4B
:10F2BE00336EFF0E346E070E356EA8EC6EF0D40E64
:10F2CE00206EFC0E216EEDEC6AF0BB0E206EFC0E75
:10F2DE00216EEDEC6AF0CFEC6DF00001D46F86EF8D
:10F2EE0079F0D40E206EFC0E216EEDEC6AF0AB0EB2
:10F2FE00206EFC0E216EEDEC6AF072EF79F02F0E9F
:10F30E00D4658CEF79F08EEF79F078EF79F0350ED9
:10F31E00D46194EF79F096EF79F078EF79F0000EF2
:10F32E00336E070EDAEC6BF00001D45103EC6CF087
:10F33E0028EC6BF00009D8B4A7EF79F0A9EF79F0BB
:10F34E009FEF79F0870ED3EC6AF00001DC6B000EB4
:10F35E00DB6FDCBFBCEF79F0DC5109E1050EDB5D44
:10F36E00D8A0BCEF79F0BEEF79F0C0EF79F008EFDE
:10F37E007AF0B2EC6AF00009D8B4C8EF79F0CAEFAF
:10F38E0079F0C0EF79F00001DB51BB0FD96EDA6A6C
:10F39E0013EC6EF0DF6EB2EC6AF00009D8B4DAEF5F
:10F3AE0079F0DCEF79F0D2EF79F00001DB51C00F8C
:10F3BE00D96EDA6A13EC6EF0DF6E0001DB51C00F0E
:10F3CE00D96EDA6ADF50476E4750496E486ADB5194
:10F3DE00BB0FD96EDA6ADF504A6E4A504826000ECD
:10F3EE004922DB51020DF350B10FD96EDA6A60007B
:10F3FE0023F1DEFF600027F1DDFFDB4BDC2BB0EFEE
:10F40E0079F0D451CF0FD36F1E0E206EFF0E216EEA
:10F41E00D3C022F0236AD351020DF350B10FD96E2F
:10F42E00DA6A6F0078FF24F06F0074FF25F0EDECC0
:10F43E006AF01EEF78F0FAEC6AF0000E336E000EF2
:10F44E00DAEC6BF0A30E336EFF0E346E080E356ED3
:10F45E00A8EC6EF0D40E206EFC0E216EEDEC6AF070
:10F46E0085EC6CF033C0D8F034C0D9F0C60E206EE7
:10F47E00E90E216EFF0E226ED8C023F0D9C024F003
:10F48E006CEC6BF020500001DD6F010E336E000E40
:10F49E00DAEC6BF0C60E336E346ADDC035F0A8ECD4
:10F4AE006EF0B00E206EFE0E216ED8C022F0D9C0C6
:10F4BE0023F0EDEC6AF01EEF78F0FAEC6AF0000E35
:10F4CE00336E000EDAEC6BF0910E336EFF0E346E6F
:10F4DE00080E356EA8EC6EF0D40E206EFC0E216E6A
:10F4EE00EDEC6AF0240E206EFC0E216EEDEC6AF04F
:10F4FE008CEC6DF00001DF6FDF511DEC6DF0C60E70
:10F50E00206EF50E216EFF0E226EDFC023F0246AF0
:10F51E006CEC6BF020500001DD6F010E336E000EAF
:10F52E00DAEC6BF0C60E336E346ADDC035F0A8EC43
:10F53E006EF028EC6BF00009D8B4A8EF7AF0AAEFC1
:10F54E007AF0A0EF7AF0C10ED3EC6AF028EC6BF0F3
:10F55E000009D8B4B5EF7AF0B7EF7AF0ADEF7AF0E4
:10F56E000001DF51D3EC6AF028EC6BF00009D8B43F
:10F57E00C3EF7AF0C5EF7AF0BBEF7AF0C50ED3EC9D
:10F58E006AF028EC6BF00009D8B4D0EF7AF0D2EF25
:10F59E007AF0C8EF7AF00001DF51D3EC6AF01EEF7B
:10F5AE0078F0FAEC6AF0000E336E000EDAEC6BF0C7
:10F5BE00AC0E336EFF0E346E080E356EA8EC6EF088
:10F5CE00D40E206EFC0E216EEDEC6AF0F60E206E5F
:10F5DE00FB0E216EEDEC6AF08CEC6DF00001DF6F2E
:10F5EE00DF51F4EC6FF0C60E206EF50E216EFF0E9D
:10F5FE00226EDFC023F0246A6CEC6BF02050000109
:10F60E00DD6F010E336E000EDAEC6BF0C60E336E4C
:10F61E00346ADDC035F0A8EC6EF028EC6BF0000912
:10F62E00D8B41CEF7BF01EEF7BF014EF7BF0C20E14
:10F63E00D3EC6AF028EC6BF00009D8B429EF7BF01C
:10F64E002BEF7BF021EF7BF00001DF51D3EC6AF062
:10F65E0028EC6BF00009D8B437EF7BF039EF7BF074
:10F66E002FEF7BF0C60ED3EC6AF028EC6BF000099E
:10F67E00D8B444EF7BF046EF7BF03CEF7BF000011B
:10F68E00DF51D3EC6AF01EEF78F0FAEC6AF0000E60
:10F69E00336E000EDAEC6BF07F0E336EFF0E346EAF
:10F6AE00080E356EA8EC6EF0D40E206EFC0E216E98
:10F6BE00EDEC6AF0240E206EFC0E216EEDEC6AF07D
:10F6CE008CEC6DF00001DF6F490E206EFB0E216E8B
:10F6DE00EDEC6AF08CEC6DF00001DA6FDF51DA259B
:10F6EE00D16FD26BD237DAC001F0DF5165EC6AF020
:10F6FE00C60E206EEF0E216EFF0E226EDFC023F0BF
:10F70E00246ADAC025F0266A6CEC6BF020500001FA
:10F71E00DD6F010E336E000EDAEC6BF0C60E336E3B
:10F72E00346ADDC035F0A8EC6EF028EC6BF0000901
:10F73E00D8B4A4EF7BF0A6EF7BF09CEF7BF0C10E6C
:10F74E00D3EC6AF028EC6BF00009D8B4B1EF7BF083
:10F75E00B3EF7BF0A9EF7BF00001D151D3EC6AF04F
:10F76E0028EC6BF00009D8B4BFEF7BF0C1EF7BF053
:10F77E00B7EF7BF0C50ED3EC6AF028EC6BF0000906
:10F78E00D8B4CCEF7BF0CEEF7BF0C4EF7BF0000172
:10F79E00DF51D3EC6AF01EEF78F0FAEC6AF0000E4F
:10F7AE00336E000EDAEC6BF0880E336EFF0E346E95
:10F7BE00080E356EA8EC6EF0D40E206EFC0E216E87
:10F7CE00EDEC6AF0240E206EFC0E216EEDEC6AF06C
:10F7DE008CEC6DF00001DF6F490E206EFB0E216E7A
:10F7EE00EDEC6AF08CEC6DF00001DA6FDF51DA258A
:10F7FE00D16FD26BD237DAC001F0DF5166EC6AF00E
:10F80E00C60E206EEF0E216EFF0E226EDFC023F0AD
:10F81E00246ADAC025F0266A6CEC6BF020500001E9
:10F82E00DD6F010E336E000EDAEC6BF0C60E336E2A
:10F83E00346ADDC035F0A8EC6EF028EC6BF00009F0
:10F84E00D8B42CEF7CF02EEF7CF024EF7CF0C10EC0
:10F85E00D3EC6AF028EC6BF00009D8B439EF7CF0E9
:10F86E003BEF7CF031EF7CF00001DF51D3EC6AF01E
:10F87E0028EC6BF00009D8B447EF7CF049EF7CF030
:10F88E003FEF7CF0C50ED3EC6AF028EC6BF000096C
:10F89E00D8B454EF7CF056EF7CF04CEF7CF00001C6
:10F8AE00D151D3EC6AF01EEF78F0FAEC6AF0000E4C
:10F8BE00336E000EDAEC6BF06D0E336EFF0E346E9F
:10F8CE00080E356EA8EC6EF0D40E206EFC0E216E76
:10F8DE00EDEC6AF06BEC6AF028EC6BF00009D8B432
:10F8EE007BEF7CF07DEF7CF073EF7CF0C10ED3EC00
:10F8FE006AF028EC6BF00009D8B488EF7CF08AEF40
:10F90E007CF080EF7CF0000ED3EC6AF028EC6BF00C
:10F91E000009D8B495EF7CF097EF7CF08DEF7CF07A
:10F92E00C50ED3EC6AF028EC6BF00009D8B4A2EF48
:10F93E007CF0A4EF7CF09AEF7CF0000ED3EC6AF032
:10F94E001EEF78F0FAEC6AF0000E336E000EDAEC71
:10F95E006BF0B50E336EFF0E346E080E356EA8ECDE
:10F96E006EF085EC6CF033C0D8F034C0D9F0C60E12
:10F97E00206EE90E216EFF0E226ED8C023F0D9C084
:10F98E0024F06CEC6BF020500001DD6F010E336E35
:10F99E00000EDAEC6BF0C60E336E346ADDC035F055
:10F9AE00A8EC6EF010EC72F01EEF78F0D351420A14
:10F9BE00D8B4D8EF7AF0040AD8B464EF7AF00A0A11
:10F9CE00D8B44CEF7BF01E0AD8B4D4EF7BF0010A0A
:10F9DE00D8B45CEF7CF0300AD8B424EF78F0070A84
:10F9EE00D8B457EF79F0090AD8B4A9EF7CF01F0A02
:10F9FE00D8B433EF79F0040AD8B422EF7AF01EEFC0
:10FA0E0078F0CBAA0DEF7DF00FEF7DF08FEF7DF04C
:10FA1E0010EC72F0FAEC6AF0000E336E000EDAECB7
:10FA2E006BF0490E336EFF0E346E080E356EA8EC79
:10FA3E006EF085EC6CF033C0D8F034C0D9F0C60E41
:10FA4E00206EE90E216EFF0E226ED8C023F0D9C0B3
:10FA5E0024F06CEC6BF020500001DD6F010E336E64
:10FA6E00000EDAEC6BF0C60E336E346ADDC035F084
:10FA7E00A8EC6EF03D0E486EE10E476E400EE82E7D
:10FA8E00FED7472EFCD7482EFAD7000E336E000E47
:10FA9E00DAEC6BF0D00E336EFF0E346E080E356E50
:10FAAE00A8EC6EF057EC6CF0010E336E000EDAEC33
:10FABE006BF0640E336EFF0E346E080E356EA8ECCE
:10FACE006EF0060E9BEC72F0100E476E940EE82E42
:10FADE00FED7472EFCD700D0490E016E900EBDEC1E
:10FAEE006AF06E0EE8EC6CF067EC6AF01B0E106EAE
:10FAFE001E0E0F6E92EC6AF03901A3AF89EF7DF006
:10FB0E008BEF7DF083EF7DF06BEC6AF083EF7DF091
:10FB1E00FEEF7FF00000000000000000000000007B
:10FB2E0000000000000000000000000000000000C7
:10FB3E0000000000000000000000000920506C656D
:10FB4E0061736520656E74657220746865207475C6
:10FB5E00726E696E6720646966666572656E746939
:10FB6E00616C3A207370656564202B20646966664B
:10FB7E006572656E7469616C203C20313237200DE0
:10FB8E000A00202076200909202876296F6C7461DE
:10FB9E006765202D205265616420616E6420646962
:10FBAE0073706C6179206261747465727920766FFE
:10FBBE006C74616765200D0A00496E76616C69642C
:10FBCE0020696E7075742E20506C6561736520729D
:10FBDE0065646F206E756D65726963616C20696E08
:10FBEE007075742E200D0A000920506C65617365C6
:10FBFE0020656E74657220746865206261636B7730
:10FC0E006172642073706565642C2030202D203164
:10FC1E003237200D0A000920506C6561736520652E
:10FC2E006E7465722074686520666F727761726497
:10FC3E002073706565642C2030202D2031323720E2
:10FC4E000D0A00506C61636520616C6C20666976EC
:10FC5E00652073656E736F7273206F6E20612077EF
:10FC6E00686974652073757266616365200A0D009C
:10FC7E00506C61636520616C6C20666976652073DB
:10FC8E00656E736F7273206F6E206120626C61639C
:10FC9E006B2073757266616365200A0D00496E767E
:10FCAE00616C696420656E7472792E2020456E74C5
:10FCBE0065722073656E736F72206E756D626572FC
:10FCCE002C20302D34200A0D00202072200909200E
:10FCDE002872296561642063616C69627261746562
:10FCEE00642073656E736F7273200D0A00202042BC
:10FCFE0020090920576865656C7320726F746174F2
:10FD0E00652028422961636B77617264200D0A00B9
:10FD1E00202064200909202864296973706C617998
:10FD2E002073656E736F7220782076616C75652016
:10FD3E000D0A0020204620090920576865656C735E
:10FD4E0020726F74617465202846296F7277617214
:10FD5E0064200D0A00092A202020202020202020A7
:10FD6E002020202020202020202020202020202085
:10FD7E002020202A0D0A00092A202020202020449D
:10FD8E006961676E6F73746963204D656E752020AF
:10FD9E0020202020202A0D0A00092A202020415050
:10FDAE0053432031323939202D20506F6C6F6C75D2
:10FDBE00203370692020202A0D0A00092A2A2A2AB7
:10FDCE002A2A2A2A2A2A2A2A2A2A2A2A2A2A2A2A85
:10FDDE002A2A2A2A2A2A2A2A2A2A0D0A00202063B7
:10FDEE0020090920286329616C696272617465209B
:10FDFE0073656E736F7273200D0A005768697465B0
:10FE0E002063616C6962726174696F6E20636F6DDD
:10FE1E00706C657465200A0D00426C61636B206323
:10FE2E00616C6962726174696F6E20636F6D706C64
:10FE3E00657465200A0D00436F6D6D616E64204B15
:10FE4E0065792009204465736372697074696F6EF9
:10FE5E00200D0A00507265737320616E79206B65F8
:10FE6E007920746F20636F6E74696E7565200A0D4C
:10FE7E000020206D20090920526566726573682086
:10FE8E00286D29656E75200D0A0043616C696272DA
:10FE9E006174696F6E20636F6D706C657465200A96
:10FEAE000D004261747465727920766F6C746167AF
:10FEBE0065203D202575200A0D00202052200909BD
:10FECE002028522969676874207475726E200D0A95
:10FEDE000020205320090920285329746F70206DAB
:10FEEE006F746F72200D0A0020204C200909202803
:10FEFE004C29656674207475726E200D0A00536568
:10FF0E006E736F72202575203D202575200A0D0019
:10FF1E0053656E736F722025643A2025750A00436F
:10FF2E00616C69627261746500202020474F202049
:10FF3E002000202053455420202000202052756E92
:10FF4E0020202000205245414459202000202052DC
:10FF5E006561642020002020646F6E6520200020E3
:10FF6E002053746F702020002020257520732020D0
:10FF7E000020204C6566742020002052696768744A
:10FF8E00202000466F7277617264200053656E7395
:10FF9E006F72732000426174746572792000426141
:10FFAE00636B7761726400446961676E6F7365009D
:10FFBE00436F6D706C65746500436F756E74696E1A
:10FFCE0067004175746F2043616C0053656E736FEB
:10FFDE0072200053656E736F7273002575206D5617
:0DFFEE0000257520257500202575200000D8
:04FFFC0008EF6BF0AF
:020000040030CA
:0A000000ECFEF7FF9FFFFFFFFFFF7C
:00000001FF
