:04000000FEEF7FF0A0
:10D60400120012001200120012001200B88E120052
:10D61400B89E1200000E4FEC6EF01200026E025023
:10D6240086EC6BF0120001C059F002C05AF01200EF
:10D6340001C05DF002C05EF0120001C05BF002C0E8
:10D644005CF0120001C0FAF002C0FBF0120001C04D
:10D6540057F002C058F0120001C0FCF002C0FDF007
:10D664001200FEFFFFFF0000010002000250B76E2F
:10D67400600007F0B6FF12004EEC6BF0E9EC70F0BE
:10D6840045EC6BF01200600E3901D96FDB6BDD6B7A
:10D69400070EDF6FDE6B12003901C06BC16BC26B0A
:10D6A400C36BC46BC56BC66BC76B12003901A3B7E0
:10D6B4005EEF6BF061EF6BF0010E62EF6BF0000E4A
:10D6C4001200026E60000BF0B8FF600007F0B9FFB3
:10D6D400B89E3901A39F12003901A6B574EF6BF00F
:10D6E40077EF6BF0010E78EF6BF0000E1200016E15
:10D6F4003901A3A980EF6BF082EF6BF07AEF6BF046
:10D70400600007F0EAFD1200016E3901A6A78DEF53
:10D714006BF08FEF6BF087EF6BF0600007F0D2FDDA
:10D724001200220E266E000E1A6E20C01BF021C0BD
:10D734001CF0260E1D6EF1EC6CF01200CDEC6BF0BB
:10D744000009D8B4A8EF6BF0AAEF6BF0A0EF6BF070
:10D75400B70E79EC6BF01200CDEC6BF00009D8B485
:10D76400B6EF6BF0B8EF6BF0AEEF6BF0BC0E79EC8C
:10D774006BF012006F00D8FE07F06F00DCFE08F0BB
:10D784000850036E0750056E03C006F005C001F093
:10D7940006C002F01200016A3901A3A9D4EF6BF0AC
:10D7A400D6EF6BF0E0EF6BF03D01F2ABDCEF6BF02A
:10D7B400DEEF6BF0E0EF6BF0010E016E0150120032
:10D7C400016A3901A6A7E9EF6BF0EBEF6BF0F5EF17
:10D7D4006BF03D01DAABF1EF6BF0F3EF6BF0F5EFCB
:10D7E4006BF0010E016E0150120008BEFCEF6BF0ED
:10D7F400FEEF6BF004EF6CF007C007F008C008F010
:10D8040010EF6CF007C009F008C00AF0091E0A1EE8
:10D81400094A0A2A09C007F00AC008F01200660E75
:10D82400F66ED60EF76E000EF86E00EEF0F010EE07
:10D834000AF009006F00D7FFEEFFE550E150F9E16F
:10D8440000EE60F05D0EEE6AE806FDE100EE47F0E2
:10D85400100EEE6AE806FDE1000122EF77F0230ED8
:10D86400296E20C02AF02D6A000E2C6E346A000E38
:10D87400336E2A0E1A6E21C01BF022C01CF0290E32
:10D884001D6EF1EC6CF01AC027F01BC028F020507C
:10D894002C24D96EDA6ADF6A27C020F028C021F070
:10D8A40012003D01D46BD66BD86BB00EDA6F800ECC
:10D8B400DB6FDC6BE10EDD6F040EDE6FDF6BE06BA4
:10D8C400E16BE26B0C0E016ED60E026E29EC6BF06E
:10D8D4000E0E016ED60E026E2EEC6BF00A0E016E69
:10D8E400D60E026E24EC6BF0556A12003D01EC6B0F
:10D8F400ED6BEE6BEF6BF06BF16BB00EF26F800EB5
:10D90400F36FF46B670EF56FF66BF76BF86BF96BEF
:10D91400FA6B060E016ED60E026E1AEC6BF0080E50
:10D92400016ED60E026E1FEC6BF0040E016ED60E65
:10D93400026E15EC6BF0566A1200036ECDEC6BF0C0
:10D944000009D8B4A8EF6CF0AAEF6CF0A0EF6CF06B
:10D95400B90E79EC6BF0CDEC6BF00009D8B4B5EFEF
:10D964006CF0B7EF6CF0ADEF6CF0035079EC6BF04A
:10D97400CDEC6BF00009D8B4C2EF6CF0C4EF6CF0DE
:10D98400BAEF6CF0025079EC6BF01200026ECDEC41
:10D994006BF00009D8B4D1EF6CF0D3EF6CF0C9EFA1
:10D9A4006CF0B80E79EC6BF0CDEC6BF00009D8B4E8
:10D9B400DEEF6CF0E0EF6CF0D6EF6CF0010E79EC7A
:10D9C4006BF0CDEC6BF00009D8B4EBEF6CF0EDEF3D
:10D9D4006CF0E3EF6CF0025079EC6BF012001BC0BA
:10D9E4001EF01CC01FF04D6A000E4C6E06EF6DF069
:10D9F4001AC00BF01E0E0C6E1DC00DF087EC75F0F6
:10DA04000B504C260C504D2260007BF0F6FF60005A
:10DA14007FF0F7FFF86A0800F5500009D8A415EF65
:10DA24006DF017EF6DF0FAEF6CF04CC01AF04DC0CA
:10DA34001BF01200CDEC6BF00009D8B424EF6DF0AC
:10DA440026EF6DF01CEF6DF0BA0E79EC6BF058EC2C
:10DA54006BF00009D8B431EF6DF033EF6DF029EFBE
:10DA64006DF03FEF6DF058EC6BF00009D8B43DEF6A
:10DA74006DF03FEF6DF035EF6DF0B5EC6FF0630ACC
:10DA8400D8A447EF6DF049EF6DF035EF6DF012005B
:10DA9400CDEC6BF00009D8B452EF6DF054EF6DF09B
:10DAA4004AEF6DF0B10E79EC6BF058EC6BF00009B5
:10DAB400D8B45FEF6DF061EF6DF057EF6DF0B5EC3A
:10DAC4006FF0066E58EC6BF00009D8B46CEF6DF093
:10DAD4006EEF6DF064EF6DF0B5EC6FF0076E07500C
:10DAE400056E046A06500424026E000E0520036EBF
:10DAF400120003500410D8B482EF6DF084EF6DF07F
:10DB0400A8EF6DF0010E056E8CEF6DF0D890033622
:10DB14000436052A04AE91EF6DF093EF6DF088EFB3
:10DB24006DF00350015C04500258D8A09CEF6DF0D6
:10DB34009EEF6DF0A2EF6DF00350015E0450025AA7
:10DB4400D89004320332052E93EF6DF001C001F03A
:10DB540002C002F01200026ECDEC6BF00009D8B4E2
:10DB6400B6EF6DF0B8EF6DF0AEEF6DF0C20E79EC7C
:10DB74006BF0CDEC6BF00009D8B4C3EF6DF0C5EFDA
:10DB84006DF0BBEF6DF0025079EC6BF0CDEC6BF007
:10DB94000009D8B4D0EF6DF0D2EF6DF0C8EF6DF09E
:10DBA400C60E79EC6BF0CDEC6BF00009D8B4DDEF68
:10DBB4006DF0DFEF6DF0D5EF6DF0022879EC6BF0CE
:10DBC4001200036ECDEC6BF00009D8B4ECEF6DF0ED
:10DBD400EEEF6DF0E4EF6DF0C50E79EC6BF0CDEC8B
:10DBE4006BF00009D8B4F9EF6DF0FBEF6DF0F1EFD5
:10DBF4006DF0035079EC6BF0CDEC6BF00009D8B408
:10DC040006EF6EF008EF6EF0FEEF6DF0C20E79ECE9
:10DC14006BF0CDEC6BF00009D8B413EF6EF015EF98
:10DC24006EF00BEF6EF0032879EC6BF01200036ECC
:10DC3400CDEC6BF00009D8B422EF6EF024EF6EF057
:10DC44001AEF6EF0C10E79EC6BF0CDEC6BF00009BD
:10DC5400D8B42FEF6EF031EF6EF027EF6EF0035073
:10DC640079EC6BF0CDEC6BF00009D8B43CEF6EF0BE
:10DC74003EEF6EF034EF6EF0C60E79EC6BF0CDEC47
:10DC84006BF00009D8B449EF6EF04BEF6EF041EF42
:10DC94006EF0032879EC6BF01200026ECDEC6BF0A1
:10DCA4000009D8B458EF6EF05AEF6EF050EF6EF0F2
:10DCB400C10E79EC6BF0CDEC6BF00009D8B465EFD4
:10DCC4006EF067EF6EF05DEF6EF0025079EC6BF082
:10DCD400CDEC6BF00009D8B472EF6EF074EF6EF017
:10DCE4006AEF6EF0C50E79EC6BF0CDEC6BF00009C9
:10DCF400D8B47FEF6EF081EF6EF077EF6EF002280C
:10DD040079EC6BF01200036ECDEC6BF00009D8B423
:10DD14008EEF6EF090EF6EF086EF6EF0C10E79EC40
:10DD24006BF0CDEC6BF00009D8B49BEF6EF09DEF77
:10DD34006EF093EF6EF00350022479EC6BF0CDECAF
:10DD44006BF00009D8B4A9EF6EF0ABEF6EF0A1EF61
:10DD54006EF0C50E79EC6BF0CDEC6BF00009D8B425
:10DD6400B6EF6EF0B8EF6EF0AEEF6EF0032879EC1C
:10DD74006BF01200066A000E056E03500410D8B44E
:10DD8400C6EF6EF0C8EF6EF0F0EF6EF0010E076EA6
:10DD9400D0EF6EF0D89003360436072A04AED5EFE0
:10DDA4006EF0D7EF6EF0CCEF6EF0D89005360636F5
:10DDB4000350015C04500258D8A0E3EF6EF0E5EF85
:10DDC4006EF0EAEF6EF00350015E0450025A0580D3
:10DDD400D89004320332072ED7EF6EF005C001F05D
:10DDE40006C002F01200046ECDEC6BF00009D8B44A
:10DDF400FEEF6EF000EF6FF0F6EF6EF0C10E79EC0F
:10DE04006BF0CDEC6BF00009D8B40BEF6FF00DEFB5
:10DE14006FF003EF6FF0045079EC6BF0CDEC6BF026
:10DE24000009D8B418EF6FF01AEF6FF010EF6FF02D
:10DE3400C50E79EC6BF0CDEC6BF00009D8B425EF8E
:10DE44006FF027EF6FF01DEF6FF004500224036EA4
:10DE5400032879EC6BF012002868276A66EF6FF0EC
:10DE640071EC6FF0286E0D0E2818D8A43CEF6FF0FB
:10DE74003EEF6FF040EF6FF066EF6FF02F0E286407
:10DE840046EF6FF048EF6FF050EF6FF0390E2864F3
:10DE94004EEF6FF050EF6FF060EF6FF0C20E206E38
:10DEA400FC0E216E93EC6BF0B50E206EFB0E216E12
:10DEB40093EC6BF0276A286866EF6FF027500A0D21
:10DEC400F3502824D00F276E0D0E2818D8A46DEF18
:10DED4006FF06FEF6FF032EF6FF0275012000268AF
:10DEE4009AEF6FF06EEC6BF00009D8B47CEF6FF032
:10DEF4007EEF6FF09AEF6FF0FFEC6FF0026EE2ECE2
:10DF04006BF00009D8B489EF6FF08BEF6FF09AEFE4
:10DF14006FF0025086EC6BF00D0E0218D8A495EF4A
:10DF24006FF097EF6FF09AEF6FF00A0E86EC6BF0DC
:10DF34002F0E0264A0EF6FF0A2EF6FF0AAEF6FF064
:10DF44007A0E0264A8EF6FF0AAEF6FF0B3EF6FF0F0
:10DF54000D0E0218D8A4B1EF6FF0B3EF6FF074EFA9
:10DF64006FF0025012003901A3A7BBEF6FF0BDEFB1
:10DF74006FF0B5EF6FF0566A3D01F9A7C4EF6FF08B
:10DF8400C6EF6FF0D3EF6FF0568202D8D3EF6FF085
:10DF94000500FA6E5D50FD6E5E50FE6EFF6AFA502B
:10DFA40012003D01F9A3D9EF6FF0DBEF6FF0E8EF5A
:10DFB4006FF0568402D8E8EF6FF00500FA6E5B50FC
:10DFC400FD6E5C50FE6EFF6AFA5012005650D8B4D3
:10DFD400EEEF6FF0F0EF6FF0FCEF6FF002D8FCEFB4
:10DFE4006FF00500FA6E5950FD6E5A50FE6EFF6ACE
:10DFF400FA5012003D01E85112003901A6A505EFBF
:10E0040070F007EF70F0FFEF6FF0556A3D01E1A784
:10E014000EEF70F010EF70F01DEF70F0558202D823
:10E024001DEF70F00500FA6E5750FD6E5850FE6EED
:10E03400FF6AFA5012003D01E1A323EF70F025EFCF
:10E0440070F033EF70F0558402D833EF70F00500B0
:10E05400FA6E0001FC51FD6EFD51FE6EFF6AFA502E
:10E0640012005550D8B439EF70F03BEF70F048EF20
:10E0740070F002D848EF70F00500FA6E0001FA5112
:10E08400FD6EFB51FE6EFF6AFA5012003D01D05145
:10E094001200076ACDEC6BF00009D8B454EF70F0AD
:10E0A40056EF70F04CEF70F0B80E79EC6BF0CDECED
:10E0B4006BF00009D8B461EF70F063EF70F059EFC2
:10E0C40070F0045079EC6BF090EF70F0CDEC6BF0E5
:10E0D4000009D8B470EF70F072EF70F090EF70F048
:10E0E40007500224056E000E0320066E600017F030
:10E0F400F6FF60001BF0F7FF000EF86E0F0EF764DA
:10E1040003D00800F55007D06F00DBFFE9FF6F0074
:10E11400DFFFEAFFEF5079EC6BF0072A0450075C4D
:10E12400D8A097EF70F099EF70F068EF70F01200DC
:10E13400CDEC6BF00009D8B4A2EF70F0A4EF70F04E
:10E144009AEF70F0BB0E79EC6BF0CDEC6BF000093C
:10E15400D8B4AFEF70F0B1EF70F0A7EF70F0140E19
:10E1640079EC6BF0CDEC6BF00009D8B4BCEF70F037
:10E17400BEEF70F0B4EF70F0010E79EC6BF0CDEC03
:10E184006BF00009D8B4C9EF70F0CBEF70F0C1EFB9
:10E1940070F0140E79EC6BF0CDEC6BF00009D8B490
:10E1A400D6EF70F0D8EF70F0CEEF70F0030E79EC8C
:10E1B4006BF0CDEC6BF00009D8B4E3EF70F0E5EF51
:10E1C40070F0DBEF70F0020E79EC6BF01200BE6AB7
:10E1D400BD6ABA6ABB6ABC6A070EC66EC268BF0E65
:10E1E400C36E840EC46EC5683A01706B606B2F0EEB
:10E1F400506F070E806FEF0E406F716B816B516B28
:10E20400416B616B5A6B5B6B6A6B6B6B7A6B7B6B91
:10E21400826B426B526B180E626F726B4369536967
:10E2240063697369070E836F446954696469746927
:10E234000F0E846F0F0EE86F250E106F160E0E6F03
:10E24400210E136F0F0E116F220E146F170EE56F50
:10E25400040EC36F130EE16F0C0EDD6F140EE26F2C
:10E26400120ECA6F0D0E156F130E166F1200AEEC60
:10E274006BF0140E4FEC6EF0160E176E4F0E166EFA
:10E284007B0EE82EFED7162EFCD7172EFAD70000E9
:10E294000CEC6BF07DEC73F0B90E145C0B0E15589E
:10E2A400D8A057EF71F059EF71F06CEF71F01E0EBA
:10E2B400026E1E0E19EC6EF07DEC73F04950D8B46A
:10E2C40066EF71F068EF71F05EEF71F00CEC6BF0DB
:10E2D40088EF71F0B80E145C0B0E1558D8B075EFBA
:10E2E40071F077EF71F088EF71F01E0E026E1E0E62
:10E2F400E3EC6DF07DEC73F04950D8B484EF71F029
:10E3040086EF71F07CEF71F068EF71F09AEC70F0C9
:10E3140012000550D8B491EF71F093EF71F09BEFB8
:10E3240071F00550D8A499EF71F09BEF71F0A0EF54
:10E3340071F0035010EC6BF0E0EF71F00550D96E02
:10E34400DA6A090ED926DE50DE10D8B4ACEF71F0CB
:10E35400AEEF71F0C7EF71F00550D96EDA6A090EAD
:10E36400D9260550E16EE26A020EE126DE50E65C33
:10E37400E650800A0A6EDE50800A0A58D8B0C5EF0B
:10E3840071F0C7EF71F0E0EF71F00550D96EDA6A01
:10E39400020ED926DF50066E0550D96EDA6ADF50B8
:10E3A4000624D96EDA6A60000FF0DFFF0550D96EDB
:10E3B400DA6A020ED926DE2A000EDD221200066A6F
:10E3C40002BEE9EF71F0E7EF71F0EFEF71F0016C6D
:10E3D400021ED8B0022A010E066E04BEF6EF71F0DA
:10E3E400F4EF71F0FAEF71F0036C041ED8B0042A54
:10E3F40003500410D8B401EF72F003EF72F027EF6A
:10E4040072F0010E056E0BEF72F0D89003360436ED
:10E41400052A04AE10EF72F012EF72F007EF72F0FB
:10E424000350015C04500258D8A01BEF72F01DEF9A
:10E4340072F021EF72F00350015E0450025AD8903A
:10E4440004320332052E12EF72F00650D8B42DEFC9
:10E4540072F02FEF72F033EF72F0016C021ED8B03D
:10E46400022A01C001F002C002F01200CDEC6BF0F0
:10E474000009D8B440EF72F042EF72F038EF72F056
:10E48400B40E79EC6BF0126A58EC6BF00009D8B456
:10E494004EEF72F050EF72F046EF72F01250080F28
:10E4A400D96EDA6AB5EC6FF0DF6E58EC6BF00009E8
:10E4B400D8B45FEF72F061EF72F057EF72F0125060
:10E4C4000D0FD96EDA6AB5EC6FF0DF6E12500D0FD6
:10E4D400D96EDA6ADF50046E0450066E056A125073
:10E4E400080FD96EDA6ADF50076E07500526000E52
:10E4F40006221250020DF350B30FD96EDA6A60008F
:10E5040017F0DEFF60001BF0DDFF122A040E126418
:10E514008EEF72F090EF72F046EF72F0B30E1200CD
:10E52400066A04BE9AEF72F098EF72F0A0EF72F0F0
:10E53400036C041ED8B0042A010E066E02BEA7EFB7
:10E5440072F0A5EF72F0ADEF72F0016C021ED8B05C
:10E55400022A010E061A086A000E076E0350041000
:10E56400D8B4B7EF72F0B9EF72F0E1EF72F0010EC8
:10E57400056EC1EF72F0D89003360436052A04AE56
:10E58400C6EF72F0C8EF72F0BDEF72F0D8900736A4
:10E5940008360350015C04500258D8A0D4EF72F03E
:10E5A400D6EF72F0DBEF72F00350015E0450025AB2
:10E5B4000780D89004320332052EC8EF72F006505B
:10E5C400D8B4E7EF72F0E9EF72F0EDEF72F0076C98
:10E5D400081ED8B0082A07C001F008C002F01200D3
:10E5E400E10E206EFB0E216E93EC6BF0B70E206EE5
:10E5F400FD0E216E93EC6BF0510E206EFD0E216E1C
:10E6040093EC6BF0950E206EFD0E216E93EC6BF087
:10E61400730E206EFD0E216E93EC6BF0510E206E86
:10E62400FD0E216E93EC6BF0B70E206EFD0E216E85
:10E6340093EC6BF0C20E206EFC0E216E93EC6BF02B
:10E64400330E206EFE0E216E93EC6BF0D90E206E0D
:10E65400FD0E216E93EC6BF0C50E206EFC0E216E48
:10E6640093EC6BF00C0E206EFD0E216E93EC6BF0B0
:10E67400E10E206EFB0E216E93EC6BF07E0E206E8D
:10E68400FB0E216E93EC6BF0E10E206EFB0E216EFF
:10E6940093EC6BF02F0E206EFD0E216E93EC6BF05D
:10E6A400E90E206EFC0E216E93EC6BF0E40E206EEE
:10E6B400FE0E216E93EC6BF0B60E206EFE0E216EF4
:10E6C40093EC6BF0CD0E206EFE0E216E93EC6BF08E
:10E6D400E10E206EFB0E216E93EC6BF06D0E206E3E
:10E6E400FE0E216E93EC6BF0C20E206EFC0E216EBA
:10E6F40093EC6BF01200CDEC6BF00009D8B485EF0D
:10E7040073F087EF73F07DEF73F0870E79EC6BF0A5
:10E71400136A000E126E58EC6BF00009D8B495EF32
:10E7240073F097EF73F08DEF73F01250060FD96EFC
:10E73400DA6AB5EC6FF0DF6E58EC6BF00009D8B410
:10E74400A6EF73F0A8EF73F09EEF73F012500B0F67
:10E75400D96EDA6AB5EC6FF0DF6E12500B0FD96E1A
:10E76400DA6ADF50026E0250046E036A1250060F1A
:10E77400D96EDA6ADF50056E05500326000E0422B6
:10E784001250020DF350A70FD96EDA6A60000FF031
:10E79400DEFF600013F0DDFF124A132A13BEDCEF24
:10E7A40073F0135009E1050E125CD8A0DCEF73F08E
:10E7B400DEEF73F08DEF73F0116A000E106E1050DF
:10E7C400020DF350A70FD96EDA6A5E0EDE5C010EFD
:10E7D400DE58D8A0F0EF73F0F2EF73F0FAEF73F0B5
:10E7E4001050470FD96EDA6A010EDF6EFFEF73F037
:10E7F4001050470FD96EDA6ADF6A104A112A11BE27
:10E804000DEF74F0115009E1050E105CD8A00DEF66
:10E8140074F00FEF74F0E1EF73F01200406E40C03B
:10E8240042F0A0EC6BF0C40E026EFF0E036E080EF5
:10E83400046E4BEC70F0480E016E900E63EC6BF0BE
:10E8440008EC6BF0010E026E000E9FEC6CF0350EBE
:10E85400206E730E216EFF0E226E42C023F0246AD6
:10E8640031EC6CF02050416E350E026E036A41C0EB
:10E8740004F04BEC70F0AAEF74F0BCEC6BF001C048
:10E884003EF002C03FF01B0E3E5CB70E3F58D8A0CE
:10E894004EEF74F050EF74F0AAEF74F04206026A7F
:10E8A400000E016E38EC6BF09BEF74F0A0EC6BF093
:10E8B400010E026E000E9FEC6CF0340E026EFF0E21
:10E8C400036E080E046E4BEC70F0AAEF74F0010EA8
:10E8D400026E000E9FEC6CF03D0E026EFF0E036E96
:10E8E400080E046E4BEC70F0AAEF74F0010E026E89
:10E8F400000E9FEC6CF04F0E026EFF0E036E080EBE
:10E90400046E4BEC70F0AAEF74F0010E026E000E70
:10E914009FEC6CF0350E206E730E216EFF0E226E8E
:10E9240042C023F0246A31EC6CF02050416E36EF83
:10E9340074F04250000AD8B458EF74F0010AD8B405
:10E9440069EF74F0030AD8B478EF74F087EF74F0C9
:10E954004250D8A4B0EF74F0B2EF74F03FEF74F00B
:10E964000AEC6BF012000B0E1F6EB80E1E6E20EE3A
:10E97400F0F010EE0AF0090E6F006FFFE3FFE806F7
:10E98400FBE2CDEC6BF00009D8B4CBEF74F0CDEF23
:10E9940074F0C3EF74F0870E79EC6BF0216A000E0B
:10E9A400206E58EC6BF00009D8B4DBEF74F0DDEFA7
:10E9B40074F0D3EF74F02050140FD96EDA6AB5EC0A
:10E9C4006FF0DF6E58EC6BF00009D8B4ECEF74F024
:10E9D400EEEF74F0E4EF74F02050190FD96EDA6A98
:10E9E400B5EC6FF0DF6E2050190FD96EDA6ADF5084
:10E9F400046E0450066E056A2050140FD96EDA6A4C
:10EA0400DF50076E07500526000E06222050020D27
:10EA1400F350A70FD96EDA6A600017F0DEFF6000CA
:10EA24001BF0DDFF204A212A21BE22EF75F0215080
:10EA340009E1050E205CD8A022EF75F024EF75F0F3
:10EA4400D3EF74F0236A000E226E2250020DF350AD
:10EA5400A70FD96EDA6A6F0078FF04F06F0074FFB5
:10EA640005F02250020DF3500A0FD96EDA6A6F00D6
:10EA740078FF06F06F0074FF07F0045006026F0081
:10EA8400CCFF08F06F00D0FF09F00702F35009260D
:10EA940005500602F35009261E5008241E6E1F500E
:10EAA40009201F6E2250020DF350A70FD96EDA6AA7
:10EAB4005E0EDE5C010EDE58D8A063EF75F065EFE4
:10EAC40075F06DEF75F02250470FD96EDA6A010EBA
:10EAD400DF6E72EF75F02250470FD96EDA6ADF6A83
:10EAE400224A232A23BE80EF75F0235009E1050E44
:10EAF400225CD8A080EF75F082EF75F027EF75F0F7
:10EB04001EC002F01FC003F01200126A000E116E44
:10EB14000C50D96EDA6A6F007BFFF6FF6F0077FF47
:10EB2400F7FFF86A0800F550250AD8A49CEF75F0A1
:10EB34009EEF75F006EF77F00C50D96EDA6ADE2A94
:10EB4400000EDD224F6A000E4E6E4EC054F0506827
:10EB540051680C50D96EDA6A6F0078FF13F06F00B9
:10EB640074FF14F060004FF0F6FF600053F0F7FFFD
:10EB7400F86A0800F550640AD8B4C3EF75F0C5EF1D
:10EB840075F0D6EF75F060004FF0F6FF600053F0BB
:10EB9400F7FFF86A0800F550690AD8A4D4EF75F0B5
:10EBA400D6EF75F06EEF76F00D50D96EDA6A020E7C
:10EBB400DF26DF5CD96EDA6A6F0078FF15F06F002C
:10EBC40078FF16F0010E13240E6E000E14200F6E43
:10EBD4000C50D96EDA6A60003BF0DEFF60003FF053
:10EBE400DDFF200E196E16BEFAEF75F0FDEF75F01D
:10EBF400010EFEEF75F0000E106E19061950600F2D
:10EC0400D96EDA6A15C001F016C002F0046A0A0E61
:10EC1400036EE1EC71F001C007F002C008F0F7ECFC
:10EC24006BF00750300FDF6E15C001F016C002F014
:10EC3400046A0A0E036E92EC72F001C015F002C071
:10EC440016F0114A122A15501610D8B42CEF76F08B
:10EC54002EEF76F036EF76F01950D8A434EF76F034
:10EC640036EF76F0FFEF75F01950D8B43CEF76F03C
:10EC74003EEF76F05FEF76F01050D8B444EF76F0C4
:10EC840046EF76F05FEF76F019061950600FD96EF3
:10EC9400DA6A2D0EDF6E114A122A5FEF76F01950F0
:10ECA400600FD96EDA6ADF500E6E0E50036E046A7E
:10ECB4000BC005F08BEC71F0192A200E1918D8A49A
:10ECC40066EF76F068EF76F051EF76F011C00BF056
:10ECD40012C00CF021EF77F060004FF0F6FF6000F7
:10ECE40053F0F7FFF86A0800F550750AD8A47DEFD1
:10ECF40076F07FEF76F0FBEF76F00D50D96EDA6A9E
:10ED0400020EDF26DF5CD96EDA6A6F0078FF15F039
:10ED14006F0078FF16F0010E13240E6E000E1420FF
:10ED24000F6E0C50D96EDA6A60003BF0DEFF6000B3
:10ED34003FF0DDFFECEF76F0200E196E1906195046
:10ED4400600FD96EDA6A15C001F016C002F0046AC9
:10ED54000A0E036E7BEC6DF00150300FDF6E15C0B0
:10ED640001F016C002F0046A0A0E036EBCEC6EF0E9
:10ED740001C015F002C016F0114A122A15501610DF
:10ED8400D8B4C7EF76F0C9EF76F0E1EF76F019501A
:10ED9400D8A4CFEF76F0D1EF76F0A0EF76F0E1EFE4
:10EDA40076F01950600FD96EDA6ADF500E6E0E508D
:10EDB400036E046A0BC005F08BEC71F0192A200E67
:10EDC4001918D8A4E8EF76F0EAEF76F0D3EF76F0EE
:10EDD40068EF76F060004FF0F6FF600053F0F7FF45
:10EDE400F86A0800F550750AD8B49EEF76F0FBEF88
:10EDF40076F00C50D96EDA6ADE2A000EDD220C6A37
:10EE0400000E0B6E21EF77F00C50D96EDA6A6F00AA
:10EE14007BFFF6FF6F0077FFF7FFF86A0800F550F5
:10EE2400036E046A0BC005F08BEC71F00C50D96EC4
:10EE3400DA6ADE2A000EDD220C6A010E0B6E120065
:10EE44003EEC6BF0E9EC70F078EC6CF053EC6CF0A9
:10EE5400C38A3A01509BCBBA32EF77F034EF77F0A4
:10EE6400E5EF7CF0F2EC72F0A0EC6BF0000E026EB9
:10EE7400000E9FEC6CF0B20E026EFF0E036E080ED5
:10EE8400046E4BEC70F04AEC6DF002C0E6F003C087
:10EE9400E7F0D20E206EE60E216EFF0E226EE6C063
:10EEA40023F0E7C024F031EC6CF020500001ED6F4A
:10EEB400010E026E000E9FEC6CF0D20E026E036A1D
:10EEC400EDC004F04BEC70F071EC6FF00001DF6FFB
:10EED400BAEF7CF0A0EC6BF0000E026E000E9FEC1B
:10EEE4006CF02A0E026EFF0E036E080E046E4BECDD
:10EEF40070F0010E026E000E9FEC6CF0970E026E25
:10EF0400FF0E036E080E046E4BEC70F0C20E206E02
:10EF1400FC0E216E93EC6BF00001DB6BF0EF77F0ED
:10EF24003F0E206EFC0E216E93EC6BF0500E206EA3
:10EF3400FE0E216E93EC6BF071EC6FF00001BD6F6F
:10EF440038EC72F00001E36FE56B000EE46FEE6BDA
:10EF5400040EEE65B0EF77F0B2EF77F0B4EF77F030
:10EF6400DFEF77F0EE51020DE351F324D96EDA6A44
:10EF74006F0078FF43F06F0074FF44F0E4514324C2
:10EF8400E46FE5514420E56FFA0E206EFE0E216E0B
:10EF9400EEC022F0236AEE51020DE351F324D96E40
:10EFA400DA6A6F0078FF24F06F0074FF25F093ECA9
:10EFB4006BF00001EE2BAAEF77F0E451E511D8A431
:10EFC400E6EF77F0E8EF77F0F0EF77F0010EDB6F24
:10EFD400F70E206EFD0E216E93EC6BF00001DB51F9
:10EFE400D8B4F7EF77F0F9EF77F092EF77F0DC6BC6
:10EFF40070EF78F06C0E206EFC0E216E93EC6BF0CB
:10F00400500E206EFE0E216E93EC6BF071EC6FF0DF
:10F014000001BD6F38EC72F00001E36FE56B000E88
:10F02400E46FEE6B040EEE651AEF78F01CEF78F0E7
:10F034001EEF78F049EF78F0EE51020DE351F3241E
:10F04400D96EDA6A6F0078FF43F06F0074FF44F002
:10F05400E4514324E46FE5514420E56FFA0E206E39
:10F06400FE0E216EEEC022F0236AEE51020DE35132
:10F07400F324D96EDA6A6F0078FF24F06F0074FF0E
:10F0840025F093EC6BF00001EE2B14EF78F0880E72
:10F09400E41907E1130EE519D8A453EF78F055EFFE
:10F0A40078F070EF78F0010EDC6F150E206EFE0E16
:10F0B400216E93EC6BF0860E206EFE0E216E93ECA7
:10F0C4006BF0010E026E000E9FEC6CF0BB0E026E34
:10F0D400FF0E036E080E046E4BEC70F00001DC5161
:10F0E400D8B477EF78F079EF78F0FCEF77F066EF4B
:10F0F40077F0A0EC6BF0000E026E000E9FEC6CF04B
:10F10400580E026EFF0E036E080E046E4BEC70F088
:10F11400010E026E000E9FEC6CF0DE0E026EFF0E0E
:10F12400036E080E046E4BEC70F0C20E206EFC0EE3
:10F13400216E93EC6BF0CDEC6BF00009D8B4A5EF25
:10F1440078F0A7EF78F09DEF78F0870E79EC6BF00C
:10F154000001EA6B000EE96FEABFBAEF78F0EA51FA
:10F1640009E1050EE95DD8A0BAEF78F0BCEF78F0BC
:10F17400BEEF78F006EF79F058EC6BF00009D8B4E4
:10F18400C6EF78F0C8EF78F0BEEF78F00001E951EF
:10F19400C80FD96EDA6AB5EC6FF0DF6E58EC6BF01D
:10F1A4000009D8B4D8EF78F0DAEF78F0D0EF78F03F
:10F1B4000001E951CD0FD96EDA6AB5EC6FF0DF6E5C
:10F1C4000001E951CD0FD96EDA6ADF50436E435026
:10F1D400456E446AE951C80FD96EDA6ADF50466E4B
:10F1E40046504426000E4522E951020DF350BE0F4D
:10F1F400D96EDA6A600013F1DEFF600017F1DDFFFB
:10F20400E94BEA2BAEEF78F0E16B000EE06FE1BF63
:10F2140015EF79F0E15109E1050EE05DD8A015EF95
:10F2240079F017EF79F019EF79F066EF77F01B0EAC
:10F23400206EFF0E216EE0C022F0E1C023F0E05109
:10F24400020DF350BE0FD96EDA6A6F0078FF24F016
:10F254006F0074FF25F093EC6BF00001E04BE12BA1
:10F2640009EF79F0A0EC6BF0000E026E000E9FEC3B
:10F274006CF0D60E026EFF0E036E070E046E4BEC9E
:10F2840070F0C20E206EFC0E216E93EC6BF0A90E92
:10F29400206EFC0E216E93EC6BF071EC6FF00001AC
:10F2A400E26F63EF79F0C20E206EFC0E216E93ECD8
:10F2B4006BF0990E206EFC0E216E93EC6BF04FEF09
:10F2C40079F02F0EE26569EF79F06BEF79F055EF85
:10F2D40079F0350EE26171EF79F073EF79F055EF63
:10F2E40079F0000E026E070E9FEC6CF00001E25103
:10F2F400C8EC6CF0CDEC6BF00009D8B484EF79F075
:10F3040086EF79F07CEF79F0870E79EC6BF00001F1
:10F31400EC6B000EEB6FECBF99EF79F0EC5109E167
:10F32400050EEB5DD8A099EF79F09BEF79F09DEF96
:10F3340079F0E5EF79F058EC6BF00009D8B4A5EF5B
:10F3440079F0A7EF79F09DEF79F00001EB51C80F48
:10F35400D96EDA6AB5EC6FF0DF6E58EC6BF0000929
:10F36400D8B4B7EF79F0B9EF79F0AFEF79F00001E5
:10F37400EB51CD0FD96EDA6AB5EC6FF0DF6E000198
:10F38400EB51CD0FD96EDA6ADF50436E4350456EB0
:10F39400446AEB51C80FD96EDA6ADF50466E4650A4
:10F3A4004426000E4522EB51020DF350BE0FD96ED8
:10F3B400DA6A600013F1DEFF600017F1DDFFEB4B4A
:10F3C400EC2B8DEF79F0E251D00FDF6F0C0E206E35
:10F3D400FF0E216EDFC022F0236ADF51020DF350CD
:10F3E400BE0FD96EDA6A6F0078FF24F06F0074FFE5
:10F3F40025F093EC6BF066EF77F0A0EC6BF0000E69
:10F40400026E000E9FEC6CF0A00E026EFF0E036EF7
:10F41400080E046E4BEC70F0C20E206EFC0E216ED2
:10F4240093EC6BF04AEC6DF002C0E6F003C0E7F039
:10F43400D20E206EE60E216EFF0E226EE6C023F081
:10F44400E7C024F031EC6CF020500001ED6F010EA8
:10F45400026E000E9FEC6CF0D20E026E036AEDC0D9
:10F4640004F04BEC70F09E0E206EFE0E216EE6C092
:10F4740022F0E7C023F093EC6BF066EF77F0A0EC9A
:10F484006BF0000E026E000E9FEC6CF08E0E026E9E
:10F49400FF0E036E080E046E4BEC70F0C20E206E6D
:10F4A400FC0E216E93EC6BF0120E206EFC0E216E9E
:10F4B40093EC6BF02EEC6FF00001EF6FEF514FEC1B
:10F4C4006EF0D20E206EF20E216EFF0E226EEFC091
:10F4D40023F0246A31EC6CF020500001ED6F010E32
:10F4E400026E000E9FEC6CF0D20E026E036AEDC049
:10F4F40004F04BEC70F0CDEC6BF00009D8B485EF60
:10F504007AF087EF7AF07DEF7AF0C10E79EC6BF048
:10F51400CDEC6BF00009D8B492EF7AF094EF7AF066
:10F524008AEF7AF00001EF5179EC6BF0CDEC6BF0DF
:10F534000009D8B4A0EF7AF0A2EF7AF098EF7AF04D
:10F54400C50E79EC6BF0CDEC6BF00009D8B4ADEFDF
:10F554007AF0AFEF7AF0A5EF7AF00001EF5179EC91
:10F564006BF066EF77F0A0EC6BF0000E026E000E0D
:10F574009FEC6CF0A90E026EFF0E036E080E046E73
:10F584004BEC70F0C20E206EFC0E216E93EC6BF00F
:10F59400E40E206EFB0E216E93EC6BF02EEC6FF0FC
:10F5A4000001EF6FEF51ADEC6DF0D20E206EF20E54
:10F5B400216EFF0E226EEFC023F0246A31EC6CF052
:10F5C40020500001ED6F010E026E000E9FEC6CF0F6
:10F5D400D20E026E036AEDC004F04BEC70F0CDEC79
:10F5E4006BF00009D8B4F9EF7AF0FBEF7AF0F1EFA1
:10F5F4007AF0C20E79EC6BF0CDEC6BF00009D8B464
:10F6040006EF7BF008EF7BF0FEEF7AF00001EF519C
:10F6140079EC6BF0CDEC6BF00009D8B414EF7BF00F
:10F6240016EF7BF00CEF7BF0C60E79EC6BF0CDECB3
:10F634006BF00009D8B421EF7BF023EF7BF019EFD6
:10F644007BF00001EF5179EC6BF066EF77F0A0EC02
:10F654006BF0000E026E000E9FEC6CF07C0E026EDE
:10F66400FF0E036E080E046E4BEC70F0C20E206E9B
:10F67400FC0E216E93EC6BF0120E206EFC0E216ECC
:10F6840093EC6BF02EEC6FF00001EF6F370E206EF1
:10F69400FB0E216E93EC6BF02EEC6FF00001E86F23
:10F6A400EF51E825DD6FDE6BDE37E8C002F0EF5185
:10F6B400F5EC6EF0D20E206EEC0E216EFF0E226E73
:10F6C400EFC023F0246AE8C025F0266A31EC6CF020
:10F6D40020500001ED6F010E026E000E9FEC6CF0E5
:10F6E400D20E026E036AEDC004F04BEC70F0CDEC68
:10F6F4006BF00009D8B481EF7BF083EF7BF079EFF6
:10F704007BF0C10E79EC6BF0CDEC6BF00009D8B452
:10F714008EEF7BF090EF7BF086EF7BF00001DD5104
:10F7240079EC6BF0CDEC6BF00009D8B49CEF7BF076
:10F734009EEF7BF094EF7BF0C50E79EC6BF0CDEC93
:10F744006BF00009D8B4A9EF7BF0ABEF7BF0A1EF2D
:10F754007BF00001EF5179EC6BF066EF77F0A0ECF1
:10F764006BF0000E026E000E9FEC6CF0850E026EC4
:10F77400FF0E036E080E046E4BEC70F0C20E206E8A
:10F78400FC0E216E93EC6BF0120E206EFC0E216EBB
:10F7940093EC6BF02EEC6FF00001EF6F370E206EE0
:10F7A400FB0E216E93EC6BF02EEC6FF00001E86F12
:10F7B400EF51E825DD6FDE6BDE37E8C002F0EF5174
:10F7C40085EC6EF0D20E206EEC0E216EFF0E226ED2
:10F7D400EFC023F0246AE8C025F0266A31EC6CF00F
:10F7E40020500001ED6F010E026E000E9FEC6CF0D4
:10F7F400D20E026E036AEDC004F04BEC70F0CDEC57
:10F804006BF00009D8B409EF7CF00BEF7CF001EF4A
:10F814007CF0C10E79EC6BF0CDEC6BF00009D8B440
:10F8240016EF7CF018EF7CF00EEF7CF00001EF5146
:10F8340079EC6BF0CDEC6BF00009D8B424EF7CF0DC
:10F8440026EF7CF01CEF7CF0C50E79EC6BF0CDEC70
:10F854006BF00009D8B431EF7CF033EF7CF029EF82
:10F864007CF00001DD5179EC6BF066EF77F0A0ECF1
:10F874006BF0000E026E000E9FEC6CF06A0E026ECE
:10F88400FF0E036E080E046E4BEC70F0C20E206E79
:10F89400FC0E216E93EC6BF00CEC6BF0CDEC6BF08A
:10F8A4000009D8B458EF7CF05AEF7CF050EF7CF0AC
:10F8B400C10E79EC6BF0CDEC6BF00009D8B465EFB8
:10F8C4007CF067EF7CF05DEF7CF0000E79EC6BF080
:10F8D400CDEC6BF00009D8B472EF7CF074EF7CF0DF
:10F8E4006AEF7CF0C50E79EC6BF0CDEC6BF000099F
:10F8F400D8B47FEF7CF081EF7CF077EF7CF0000EE2
:10F9040079EC6BF066EF77F0A0EC6BF0000E026E12
:10F91400000E9FEC6CF0B20E026EFF0E036E080E2A
:10F92400046E4BEC70F04AEC6DF002C0E6F003C0DC
:10F93400E7F0D20E206EE60E216EFF0E226EE6C0B8
:10F9440023F0E7C024F031EC6CF020500001ED6F9F
:10F95400010E026E000E9FEC6CF0D20E026E036A72
:10F96400EDC004F04BEC70F0F2EC72F066EF77F05F
:10F97400DF51420AD8B4B5EF7AF0040AD8B441EFA3
:10F984007AF00A0AD8B429EF7BF01E0AD8B4B1EF92
:10F994007BF0010AD8B439EF7CF0300AD8B46CEFAC
:10F9A40077F0070AD8B434EF79F0090AD8B486EFAF
:10F9B4007CF01F0AD8B47BEF78F0040AD8B4FFEFC8
:10F9C40079F066EF77F0CBAAEAEF7CF0ECEF7CF00D
:10F9D40086EF7DF0F2EC72F0A0EC6BF0000E026E9C
:10F9E400000E9FEC6CF0460E026EFF0E036E080EC6
:10F9F400046E4BEC70F04AEC6DF002C0E6F003C00C
:10FA0400E7F0D20E206EE60E216EFF0E226EE6C0E7
:10FA140023F0E7C024F031EC6CF020500001ED6FCE
:10FA2400010E026E000E9FEC6CF0D20E026E036AA1
:10FA3400EDC004F04BEC70F03D0E446EE10E436EED
:10FA4400400EE82EFED7432EFCD7442EFAD7000EE4
:10FA5400026E000E9FEC6CF0CD0E026EFF0E036E74
:10FA6400080E046E4BEC70F01CEC6DF0010E026E8F
:10FA7400000E9FEC6CF0610E026EFF0E036E080E1A
:10FA8400046E4BEC70F0060E10EC74F0100E436E26
:10FA9400940EE82EFED7432EFCD700D0400E016E04
:10FAA400900E63EC6BF09AEC70F0B5EC74F002C05D
:10FAB400B1F003C0B2F0F70E206EFF0E216EB1C09C
:10FAC40022F0B2C023F093EC6BF0950E0001B15D0F
:10FAD400110EB259D8B071EF7DF073EF7DF07EEF67
:10FAE4007DF0DC0EB15D050EB259D8B07CEF7DF02F
:10FAF4007EEF7DF057EF7DF0B1C014F0B2C015F089
:10FB040039EC71F057EF7DF0FEEF7FF0000000005C
:10FB140000000000000000000000000000000000E1
:10FB240000000000000000000000000000000000D1
:10FB34000000000920506C6561736520656E746572
:10FB44007220746865207475726E696E67206469CA
:10FB540066666572656E7469616C3A20737065657A
:10FB640064202B20646966666572656E7469616CD5
:10FB7400203C20313237200D0A002020762009094C
:10FB8400202876296F6C74616765202D2052656189
:10FB94006420616E6420646973706C6179206261B1
:10FBA400747465727920766F6C74616765200D0AD0
:10FBB40000496E76616C696420696E7075742E20DC
:10FBC400506C65617365207265646F206E756D6538
:10FBD400726963616C20696E7075742E200D0A0061
:10FBE4000920506C6561736520656E7465722074BC
:10FBF4006865206261636B77617264207370656508
:10FC0400642C2030202D20313237200D0A000920A9
:10FC1400506C6561736520656E74657220746865E7
:10FC240020666F72776172642073706565642C203E
:10FC340030202D20313237200D0A00506C6163656D
:10FC440020616C6C20666976652073656E736F72D3
:10FC540073206F6E206120776869746520737572F4
:10FC640066616365200A0D00506C61636520616CF8
:10FC74006C20666976652073656E736F7273206F8E
:10FC84006E206120626C61636B20737572666163C0
:10FC940065200A0D00496E76616C696420656E7496
:10FCA40072792E2020456E7465722073656E736FB1
:10FCB40072206E756D6265722C20302D34200A0D11
:10FCC40000202072200909202872296561642063BC
:10FCD400616C696272617465642073656E736F72BE
:10FCE40073200D0A00202042200909205768656509
:10FCF4006C7320726F746174652028422961636B90
:10FD040077617264200D0A002020642009092028EC
:10FD140064296973706C61792073656E736F7220E6
:10FD2400782076616C7565200D0A00202046200934
:10FD34000920576865656C7320726F74617465205F
:10FD44002846296F7277617264200D0A00092A20FF
:10FD5400202020202020202020202020202020209F
:10FD640020202020202020202020202A0D0A0009E5
:10FD74002A202020202020446961676E6F737469F3
:10FD840063204D656E75202020202020202A0D0A36
:10FD940000092A2020204150534320313239392090
:10FDA4002D20506F6C6F6C75203370692020202AD1
:10FDB4000D0A00092A2A2A2A2A2A2A2A2A2A2A2A27
:10FDC4002A2A2A2A2A2A2A2A2A2A2A2A2A2A2A2A8F
:10FDD4002A2A0D0A002020632009092028632961AA
:10FDE4006C6962726174652073656E736F727320DF
:10FDF4000D0A0057686974652063616C69627261F9
:10FE040074696F6E20636F6D706C657465200A0D84
:10FE140000426C61636B2063616C69627261746936
:10FE24006F6E20636F6D706C657465200A0D0043FE
:10FE34006F6D6D616E64204B657920092044657394
:10FE44006372697074696F6E200D0A005072657375
:10FE54007320616E79206B657920746F20636F6EF7
:10FE640074696E7565200A0D0020206D2009092033
:10FE74005265667265736820286D29656E75200D5C
:10FE84000A0043616C6962726174696F6E20636F0A
:10FE94006D706C657465200A0D004261747465723E
:10FEA4007920766F6C74616765203D202575200A82
:10FEB4000D002020522009092028522969676874FE
:10FEC400207475726E200D0A002020532009092029
:10FED400285329746F70206D6F746F72200D0A009F
:10FEE40020204C20090920284C296566742074754B
:10FEF400726E200D0A0053656E736F722025752093
:10FF04003D202575200A0D0053656E736F72202500
:10FF1400643A2025750A0053656E736F722E20258E
:10FF2400642025750A0043616C696272617465001E
:10FF3400202020474F2020200020205345542020FB
:10FF44002000202052756E2020200020524541447C
:10FF54005920200020205265616420200020206464
:10FF64006F6E65202000202053746F7020200020C5
:10FF7400202575207320200020204C6566742020E5
:10FF840000205269676874202000466F727761729E
:10FF940064200053656E736F727320004261747441
:10FFA40065727920004261636B7761726400446911
:10FFB40061676E6F736500436F6D706C6574650087
:10FFC400436F756E74696E67004175746F20436189
:10FFD4006C0053656E736F72200053656E736F729D
:10FFE40073002575206D5600257520257500202584
:0CFFF4007520000A2575000011EF6CF06C
:020000040030CA
:0A000000ECFEF7FF9FFFFFFFFFFF7C
:00000001FF
