:04000000FEEF7FF0A0
:10DE2600120012001200120012001200120012005C
:10DE360012001200B88E1200B89E1200000E1CECE2
:10DE46006FF01200026E025096EC6FF0120001C0E5
:10DE56004DF002C04EF0120001C051F002C052F067
:10DE6600120001C04FF002C050F0120001C047F08E
:10DE760002C048F0120001C04BF002C04CF0120084
:10DE860001C049F002C04AF012000250B76E6000AD
:10DE960007F0B6FF12005EEC6FF041EC73F055EC44
:10DEA6006FF01200600E3901D96FDB6BDD6B070E68
:10DEB600DF6FDE6B12003901C06BC16BC26BC36BC7
:10DEC600C46BC56BC66BC76B12003901A3B76EEF87
:10DED6006FF071EF6FF0010E72EF6FF0000E12002F
:10DEE600026E60000BF0B8FF600007F0B9FFB89E45
:10DEF6003901A39F12003901A6B584EF6FF087EFB1
:10DF06006FF0010E88EF6FF0000E1200016E3901FE
:10DF1600A3A990EF6FF092EF6FF08AEF6FF06000B9
:10DF260007F0EAFD1200016E3901A6A79DEF6FF01A
:10DF36009FEF6FF097EF6FF0600007F0D2FD1200D1
:10DF4600220E266E000E1A6E20C01BF021C01CF099
:10DF5600260E1D6EE2EC70F01200DEEC6FF000098A
:10DF6600D8B4B8EF6FF0BAEF6FF0B0EF6FF0B70E4E
:10DF760089EC6FF0120000EE60F0510EEE6AE806D2
:10DF8600FDE100EE53F0090EEE6AE806FDE1000140
:10DF9600C3EF77F06F00D8FE07F06F00DCFE08F0E5
:10DFA6000850036E0750056E03C006F005C001F069
:10DFB60006C002F01200016A3901A3A9E5EF6FF06D
:10DFC600E7EF6FF0F1EF6FF03D01F2ABEDEF6FF0C1
:10DFD600EFEF6FF0F1EF6FF0010E016E01501200DE
:10DFE600016A3901A6A7FAEF6FF0FCEF6FF006EFB2
:10DFF60070F03D01DAAB02EF70F004EF70F006EF5F
:10E0060070F0010E016E0150120008BE0DEF70F0A7
:10E016000FEF70F015EF70F007C007F008C008F0BA
:10E0260021EF70F007C009F008C00AF0091E0A1EA9
:10E03600094A0A2A09C007F00AC008F01200230E8E
:10E04600296E20C02AF02D6A000E2C6E346A000E4E
:10E05600336E2A0E1A6E21C01BF022C01CF0290E48
:10E066001D6EE2EC70F01AC027F01BC028F020509D
:10E076002C24D96EDA6ADF6A27C020F028C021F086
:10E0860012003D01D46BD66BD86BB00EDA6F800EE2
:10E09600DB6FDC6BE10EDD6F040EDE6FDF6BE06BBA
:10E0A600E16BE26B300E016EDE0E026E3EEC6FF03F
:10E0B600320E016EDE0E026E43EC6FF02E0E016E16
:10E0C600DE0E026E39EC6FF05A6A12003D01EC6BFF
:10E0D600ED6BEE6BEF6BF06BF16BB00EF26F800ECB
:10E0E600F36FF46B670EF56FF66BF76BF86BF96B06
:10E0F600FA6B280E016EDE0E026E2FEC6FF02A0E02
:10E10600016EDE0E026E34EC6FF0260E016EDE0E30
:10E11600026E2AEC6FF05B6A1200036EDEEC6FF0A3
:10E126000009D8B499EF70F09BEF70F091EF70F0A2
:10E13600B90E89EC6FF0DEEC6FF00009D8B4A6EFEB
:10E1460070F0A8EF70F09EEF70F0035089EC6FF05E
:10E15600DEEC6FF00009D8B4B3EF70F0B5EF70F0F5
:10E16600ABEF70F0025089EC6FF01200026EDEEC3D
:10E176006FF00009D8B4C2EF70F0C4EF70F0BAEFD8
:10E1860070F0B80E89EC6FF0DEEC6FF00009D8B4D1
:10E19600CFEF70F0D1EF70F0C7EF70F0010E89ECA1
:10E1A6006FF0DEEC6FF00009D8B4DCEF70F0DEEF54
:10E1B60070F0D4EF70F0025089EC6FF012001BC0C3
:10E1C6001EF01CC01FF0546A000E536EF7EF70F07D
:10E1D6001AC00BF01E0E0C6E1DC00DF028EC76F06A
:10E1E6000B5053260C50542260007BF0F6FF600063
:10E1F6007FF0F7FFF86A0800F5500009D8A406EF8B
:10E2060071F008EF71F0EBEF70F053C01AF054C0E4
:10E216001BF01200DEEC6FF00009D8B415EF71F0B8
:10E2260017EF71F00DEF71F0BA0E89EC6FF068EC34
:10E236006FF00009D8B422EF71F024EF71F01AEFF5
:10E2460071F030EF71F068EC6FF00009D8B42EEF82
:10E2560071F030EF71F026EF71F05EEC72F0630A48
:10E26600D8A438EF71F03AEF71F026EF71F0120092
:10E27600DEEC6FF00009D8B443EF71F045EF71F0B2
:10E286003BEF71F0B10E89EC6FF068EC6FF00009AE
:10E29600D8B450EF71F052EF71F048EF71F05EECC8
:10E2A60072F0066E68EC6FF00009D8B45DEF71F09D
:10E2B6005FEF71F055EF71F05EEC72F0076E07508C
:10E2C600056E046A06500424026E000E0520036ED5
:10E2D600120003500410D8B473EF71F075EF71F0AB
:10E2E60099EF71F0010E056E7DEF71F0D89003364F
:10E2F6000436052A04AE82EF71F084EF71F079EFEF
:10E3060071F00350015C04500258D8A08DEF71F0F3
:10E316008FEF71F093EF71F00350015E0450025AD3
:10E32600D89004320332052E84EF71F001C001F05B
:10E3360002C002F01200066A000E056E03500410B9
:10E34600D8B4A8EF71F0AAEF71F0D2EF71F0010E18
:10E35600076EB2EF71F0D89003360436072A04AE82
:10E36600B7EF71F0B9EF71F0AEEF71F0D8900536F6
:10E3760006360350015C04500258D8A0C5EF71F070
:10E38600C7EF71F0CCEF71F00350015E0450025AF2
:10E396000580D89004320332072EB9EF71F005C01C
:10E3A60001F006C002F012002868276A0FEF72F02B
:10E3B6001AEC72F0286E0D0E2818D8A4E5EF71F04D
:10E3C600E7EF71F0E9EF71F00FEF72F02F0E2864AE
:10E3D600EFEF71F0F1EF71F0F9EF71F0390E28649B
:10E3E600F7EF71F0F9EF71F009EF72F0D60E206ECB
:10E3F600FC0E216EA3EC6FF0C90E206EFB0E216E93
:10E40600A3EC6FF0276A28680FEF72F027500A0D09
:10E41600F3502824D00F276E0D0E2818D8A416EF17
:10E4260072F018EF72F0DBEF71F0275012000268FD
:10E4360043EF72F07EEC6FF00009D8B425EF72F06E
:10E4460027EF72F043EF72F0A8EC72F0026EF3EC75
:10E456006FF00009D8B432EF72F034EF72F043EF88
:10E4660072F0025096EC6FF00D0E0218D8A43EEF33
:10E4760072F040EF72F043EF72F00A0E96EC6FF016
:10E486002F0E026449EF72F04BEF72F053EF72F009
:10E496007A0E026451EF72F053EF72F05CEF72F095
:10E4A6000D0E0218D8A45AEF72F05CEF72F01DEF51
:10E4B60072F0025012003901A3A764EF72F066EF02
:10E4C60072F05EEF72F05B6A3D01F9A76DEF72F0D4
:10E4D6006FEF72F07CEF72F05B8202D87CEF72F025
:10E4E6000500FA6E5150FD6E5250FE6EFF6AFA50EC
:10E4F60012003D01F9A382EF72F084EF72F091EF02
:10E5060072F05B8402D891EF72F00500FA6E4F50FC
:10E51600FD6E5050FE6EFF6AFA5012005B50D8B482
:10E5260097EF72F099EF72F0A5EF72F002D8A5EFAF
:10E5360072F00500FA6E4D50FD6E4E50FE6EFF6A8B
:10E54600FA5012003D01E85112003901A6A5AEEFBE
:10E5560072F0B0EF72F0A8EF72F05A6A3D01E1A7CF
:10E56600B7EF72F0B9EF72F0C6EF72F05A8202D8C6
:10E57600C6EF72F00500FA6E4B50FD6E4C50FE6E03
:10E58600FF6AFA5012003D01E1A3CCEF72F0CEEF24
:10E5960072F0DBEF72F05A8402D8DBEF72F00500FE
:10E5A600FA6E4950FD6E4A50FE6EFF6AFA5012002E
:10E5B6005A50D8B4E1EF72F0E3EF72F0EFEF72F079
:10E5C60002D8EFEF72F00500FA6E4750FD6E485024
:10E5D600FE6EFF6AFA5012003D01D0511200076A22
:10E5E600DEEC6FF00009D8B4FBEF72F0FDEF72F0CD
:10E5F600F3EF72F0B80E89EC6FF0DEEC6FF0000905
:10E60600D8B408EF73F00AEF73F000EF73F004501C
:10E6160089EC6FF037EF73F0DEEC6FF00009D8B4D9
:10E6260017EF73F019EF73F037EF73F0075002240A
:10E63600056E000E0320066E600017F0F6FF600000
:10E646001BF0F7FF000EF86E0F0EF76403D00800FC
:10E65600F55007D06F00DBFFE9FF6F00DFFFEAFF31
:10E66600EF5089EC6FF0072A0450075CD8A03EEF04
:10E6760073F040EF73F00FEF73F01200BE6ABD6ADD
:10E68600BA6ABB6ABC6A070EC66EC268BF0EC36EA4
:10E69600840EC46EC5683A01706B606B2F0E506FA6
:10E6A600070E806FEF0E406F716B816B516B416B84
:10E6B600616B5A6B5B6B6A6B6B6B7A6B7B6B826B9A
:10E6C600426B526B180E626F726B436953696369D2
:10E6D6007369070E836F44695469646974690F0E20
:10E6E600846F0F0EE86F250E106F160E0E6F210E3B
:10E6F600136F0F0E116F220E146F170EE56F040EB7
:10E70600C36F130EE16F0C0EDD6F140EE26F120E67
:10E71600CA6F0D0E156F130E166F12000550D8B482
:10E7260097EF73F099EF73F0A1EF73F00550D8A44B
:10E736009FEF73F0A1EF73F0A6EF73F0035025EC93
:10E746006FF0E6EF73F00550D96EDA6A090ED92636
:10E75600DE50DE10D8B4B2EF73F0B4EF73F0CDEF45
:10E7660073F00550D96EDA6A090ED9260550E16EA6
:10E77600E26A020EE126DE50E65CE650800A0A6E88
:10E78600DE50800A0A58D8B0CBEF73F0CDEF73F0A5
:10E79600E6EF73F00550D96EDA6A020ED926DF501D
:10E7A600066E0550D96EDA6ADF500624D96EDA6A2B
:10E7B60060000FF0DFFF0550D96EDA6A020ED92627
:10E7C600DE2A000EDD221200066A02BEEFEF73F0AB
:10E7D600EDEF73F0F5EF73F0016C021ED8B0022A6C
:10E7E600010E066E04BEFCEF73F0FAEF73F000EF55
:10E7F60074F0036C041ED8B0042A03500410D8B475
:10E8060007EF74F009EF74F02DEF74F0010E056E4A
:10E8160011EF74F0D89003360436052A04AE16EFCD
:10E8260074F018EF74F00DEF74F00350015C0450AF
:10E836000258D8A021EF74F023EF74F027EF74F09C
:10E846000350015E0450025AD89004320332052E5A
:10E8560018EF74F00650D8B433EF74F035EF74F057
:10E8660039EF74F0016C021ED8B0022A01C001F023
:10E8760002C002F01200DEEC6FF00009D8B446EFD9
:10E8860074F048EF74F03EEF74F0B40E89EC6FF05C
:10E89600126A68EC6FF00009D8B454EF74F056EFC2
:10E8A60074F04CEF74F01250080FD96EDA6A5EEC11
:10E8B60072F0DF6E68EC6FF00009D8B465EF74F0A3
:10E8C60067EF74F05DEF74F012500D0FD96EDA6ACF
:10E8D6005EEC72F0DF6E12500D0FD96EDA6ADF5001
:10E8E600046E0450066E056A1250080FD96EDA6A75
:10E8F600DF50076E07500526000E06221250020D45
:10E90600F350A70FD96EDA6A600017F0DEFF6000D9
:10E916001BF0DDFF122A040E126494EF74F096EFDA
:10E9260074F04CEF74F0A70E1200066A04BEA0EF56
:10E9360074F09EEF74F0A6EF74F0036C041ED8B06A
:10E94600042A010E066E02BEADEF74F0ABEF74F052
:10E95600B3EF74F0016C021ED8B0022A010E061A3B
:10E96600086A000E076E03500410D8B4BDEF74F0A9
:10E97600BFEF74F0E7EF74F0010E056EC7EF74F0A9
:10E98600D89003360436052A04AECCEF74F0CEEFE9
:10E9960074F0C3EF74F0D890073608360350015C64
:10E9A60004500258D8A0DAEF74F0DCEF74F0E1EF0F
:10E9B60074F00350015E0450025A0780D890043266
:10E9C6000332052ECEEF74F00650D8B4EDEF74F096
:10E9D600EFEF74F0F3EF74F0076C081ED8B0082A56
:10E9E60007C001F008C002F01200F50E206EFB0E03
:10E9F600216EA3EC6FF0CB0E206EFD0E216EA3EC04
:10EA06006FF0650E206EFD0E216EA3EC6FF0A90E61
:10EA1600206EFD0E216EA3EC6FF0870E206EFD0EAC
:10EA2600216EA3EC6FF0650E206EFD0E216EA3EC39
:10EA36006FF0CB0E206EFD0E216EA3EC6FF0D60E9E
:10EA4600206EFC0E216EA3EC6FF0470E206EFE0EBC
:10EA5600216EA3EC6FF0ED0E206EFD0E216EA3EC81
:10EA66006FF0D90E206EFC0E216EA3EC6FF0200E17
:10EA7600206EFD0E216EA3EC6FF0F50E206EFB0EE0
:10EA8600216EA3EC6FF0920E206EFB0E216EA3ECAE
:10EA96006FF0F50E206EFB0E216EA3EC6FF0430EA9
:10EAA600206EFD0E216EA3EC6FF0FD0E206EFC0EA7
:10EAB600216EA3EC6FF0F80E206EFE0E216EA3EC15
:10EAC6006FF0CA0E206EFE0E216EA3EC6FF0E10E03
:10EAD600206EFE0E216EA3EC6FF0F50E206EFB0E7F
:10EAE600216EA3EC6FF0810E206EFE0E216EA3EC5C
:10EAF6006FF0D60E206EFC0E216EA3EC6FF01200A6
:10EB0600406E40C042F0B0EC6FF0BF0E026EFF0EDA
:10EB1600036E080E046EF2EC72F0480E016E900E53
:10EB260073EC6FF01DEC6FF0010E026E000E90ECB0
:10EB360070F0350E206E6E0E216EFF0E226E42C0F4
:10EB460023F0246A22EC70F02050416E350E026EDE
:10EB5600036A41C004F0F2EC72F01DEF76F0CDECE2
:10EB66006FF001C03EF002C03FF01B0E3E5CB70ED8
:10EB76003F58D8A0C1EF75F0C3EF75F01DEF76F0E2
:10EB86004206026A000E016E48EC6FF00EEF76F058
:10EB9600B0EC6FF0010E026E000E90EC70F02F0ECE
:10EBA600026EFF0E036E080E046EF2EC72F01DEF9D
:10EBB60076F0010E026E000E90EC70F0380E026ECA
:10EBC600FF0E036E080E046EF2EC72F01DEF76F087
:10EBD600010E026E000E90EC70F04A0E026EFF0EF1
:10EBE600036E080E046EF2EC72F01DEF76F0010E65
:10EBF600026E000E90EC70F0350E206E6E0E216ED9
:10EC0600FF0E226E42C023F0246A22EC70F02050E0
:10EC1600416EA9EF75F04250000AD8B4CBEF75F0FB
:10EC2600010AD8B4DCEF75F0030AD8B4EBEF75F03F
:10EC3600FAEF75F04250D8A423EF76F025EF76F080
:10EC4600B2EF75F01FEC6FF01200126A000E116E33
:10EC56000C50D96EDA6A6F007BFFF6FF6F0077FF04
:10EC6600F7FFF86A0800F550250AD8A43DEF76F0BC
:10EC76003FEF76F0A7EF77F00C50D96EDA6ADE2A0E
:10EC8600000EDD22566A000E556E55C059F05768C3
:10EC960058680C50D96EDA6A6F0078FF13F06F006F
:10ECA60074FF14F060004FF0F6FF600053F0F7FFBA
:10ECB600F86A0800F550640AD8B464EF76F066EF97
:10ECC60076F077EF76F060004FF0F6FF600053F0D5
:10ECD600F7FFF86A0800F550690AD8A475EF76F0D0
:10ECE60077EF76F00FEF77F00D50D96EDA6A020EF5
:10ECF600DF26DF5CD96EDA6A6F0078FF15F06F00E9
:10ED060078FF16F0010E13240E6E000E14200F6EFF
:10ED16000C50D96EDA6A60003BF0DEFF60003FF00F
:10ED2600DDFF200E196E16BE9BEF76F09EEF76F095
:10ED3600010E9FEF76F0000E106E19061950600F47
:10ED4600D96EDA6A15C001F016C002F0046A0A0E1E
:10ED5600036EE7EC73F001C007F002C008F008ECA0
:10ED660070F00750300FDF6E15C001F016C002F0CC
:10ED7600046A0A0E036E98EC74F001C015F002C026
:10ED860016F0114A122A15501610D8B4CDEF76F0A7
:10ED9600CFEF76F0D7EF76F01950D8A4D5EF76F00E
:10EDA600D7EF76F0A0EF76F01950D8B4DDEF76F015
:10EDB600DFEF76F000EF77F01050D8B4E5EF76F09D
:10EDC600E7EF76F000EF77F019061950600FD96E6D
:10EDD600DA6A2D0EDF6E114A122A00EF77F019500B
:10EDE600600FD96EDA6ADF500E6E0E50036E046A3B
:10EDF6000BC005F091EC73F0192A200E1918D8A44F
:10EE060007EF77F009EF77F0F2EF76F011C00BF02D
:10EE160012C00CF0C2EF77F060004FF0F6FF600012
:10EE260053F0F7FFF86A0800F550750AD8A41EEFEC
:10EE360077F020EF77F09CEF77F00D50D96EDA6A15
:10EE4600020EDF26DF5CD96EDA6A6F0078FF15F0F6
:10EE56006F0078FF16F0010E13240E6E000E1420BC
:10EE66000F6E0C50D96EDA6A60003BF0DEFF600070
:10EE76003FF0DDFF8DEF77F0200E196E1906195061
:10EE8600600FD96EDA6A15C001F016C002F0046A86
:10EE96000A0E036E6CEC71F00150300FDF6E15C078
:10EEA60001F016C002F0046A0A0E036E9EEC71F0C1
:10EEB60001C015F002C016F0114A122A155016109C
:10EEC600D8B468EF77F06AEF77F082EF77F01950F1
:10EED600D8A470EF77F072EF77F041EF77F082EF1A
:10EEE60077F01950600FD96EDA6ADF500E6E0E5049
:10EEF600036E046A0BC005F091EC73F0192A200E1C
:10EF06001918D8A489EF77F08BEF77F074EF77F0C4
:10EF160009EF77F060004FF0F6FF600053F0F7FF5F
:10EF2600F86A0800F550750AD8B43FEF77F09CEF01
:10EF360077F00C50D96EDA6ADE2A000EDD220C6AF2
:10EF4600000E0B6EC2EF77F00C50D96EDA6A6F00C6
:10EF56007BFFF6FF6F0077FFF7FFF86A0800F550B2
:10EF6600036E046A0BC005F091EC73F00C50D96E79
:10EF7600DA6ADE2A000EDD220C6A010E0B6E120022
:10EF86004EEC6FF041EC73F069EC70F044EC70F00D
:10EF9600C38A3A01509BCBBAD3EF77F0D5EF77F01F
:10EFA600F1EF7CF0F8EC74F0B0EC6FF0000E026E4E
:10EFB600000E90EC70F0AD0E026EFF0E036E080EA2
:10EFC600046EF2EC72F03BEC71F002C0D8F003C0B4
:10EFD600D9F0C60E206EEA0E216EFF0E226ED8C044
:10EFE60023F0D9C024F022EC70F020500001DD6F30
:10EFF600010E026E000E90EC70F0C60E026E036AF1
:10F00600DDC004F0F2EC72F01AEC72F00001D36F7E
:10F01600C6EF7CF0B0EC6FF0000E026E000E90ECC6
:10F0260070F0D10E026EFF0E036E080E046EF2EC47
:10F0360072F0010E026E000E90EC70F0920E026EEF
:10F04600FF0E036E080E046EF2EC72F0D60E206E02
:10F05600FC0E216EA3EC6FF00001CF6B91EF78F000
:10F06600530E206EFC0E216EA3EC6FF0640E206E24
:10F07600FE0E216EA3EC6FF01AEC72F00001C56F64
:10F086003EEC74F00001D56FD76B000ED66FDE6BC9
:10F09600040EDE6551EF78F053EF78F055EF78F017
:10F0A60080EF78F0DE51020DD551F324D96EDA6A7D
:10F0B6006F0078FF43F06F0074FF44F0D65143248D
:10F0C600D66FD7514420D76F0E0E206EFF0E216EDD
:10F0D600DEC022F0236ADE51020DD551F324D96E2B
:10F0E600DA6A6F0078FF24F06F0074FF25F0A3EC56
:10F0F6006FF00001DE2B4BEF78F0D651D711D8A474
:10F1060087EF78F089EF78F091EF78F0010ECF6F06
:10F116000B0E206EFE0E216EA3EC6FF00001CF5198
:10F12600D8B498EF78F09AEF78F033EF78F0D06BA8
:10F1360011EF79F0800E206EFC0E216EA3EC6FF0BD
:10F14600640E206EFE0E216EA3EC6FF01AEC72F0C8
:10F156000001C56F3EEC74F00001D56FD76B000E51
:10F16600D66FDE6B040EDE65BBEF78F0BDEF78F090
:10F17600BFEF78F0EAEF78F0DE51020DD551F324B7
:10F18600D96EDA6A6F0078FF43F06F0074FF44F0BF
:10F19600D6514324D66FD7514420D76F0E0E206E1A
:10F1A600FF0E216EDEC022F0236ADE51020DD5511C
:10F1B600F324D96EDA6A6F0078FF24F06F0074FFCB
:10F1C60025F0A3EC6FF00001DE2BB5EF78F0880E8A
:10F1D600D61907E1130ED719D8A4F4EF78F0F6EF95
:10F1E60078F011EF79F0010ED06F290E206EFE0E29
:10F1F600216EA3EC6FF09A0E206EFE0E216EA3EC2C
:10F206006FF0010E026E000E90EC70F0B60E026EFC
:10F21600FF0E036E080E046EF2EC72F00001D05180
:10F22600D8B418EF79F01AEF79F09DEF78F007EF80
:10F2360078F0B0EC6FF0000E026E000E90EC70F0FD
:10F24600530E026EFF0E036E080E046EF2EC72F0A1
:10F25600010E026E000E90EC70F0E20E026EFF0ED2
:10F26600036E080E046EF2EC72F0D60E206EFC0EE3
:10F27600216EA3EC6FF007EF78F0B0EC6FF0000EA4
:10F28600026E000E90EC70F0DA0E026EFF0E036E48
:10F29600070E046EF2EC72F0D60E206EFC0E216E96
:10F2A600A3EC6FF0BD0E206EFC0E216EA3EC6FF08A
:10F2B6001AEC72F00001D46F6FEF79F0D60E206E63
:10F2C600FC0E216EA3EC6FF0AD0E206EFC0E216ECF
:10F2D600A3EC6FF05BEF79F02F0ED46575EF79F044
:10F2E60077EF79F061EF79F0350ED4617DEF79F043
:10F2F6007FEF79F061EF79F0000E026E070E90EC69
:10F3060070F00001D451B9EC70F0DEEC6FF000093A
:10F31600D8B490EF79F092EF79F088EF79F0870E14
:10F3260089EC6FF00001DC6B000EDB6FDCBFA5EF34
:10F3360079F0DC5109E1050EDB5DD8A0A5EF79F087
:10F34600A7EF79F0A9EF79F0F1EF79F068EC6FF0BB
:10F356000009D8B4B1EF79F0B3EF79F0A9EF79F0FD
:10F366000001DB51BB0FD96EDA6A5EEC72F0DF6E1C
:10F3760068EC6FF00009D8B4C3EF79F0C5EF79F007
:10F38600BBEF79F00001DB51C00FD96EDA6A5EEC93
:10F3960072F0DF6E0001DB51C00FD96EDA6ADF5002
:10F3A600436E4350456E446ADB51BB0FD96EDA6A31
:10F3B600DF50466E46504426000E4522DB51020DB4
:10F3C600F350B10FD96EDA6A600013F1DEFF600008
:10F3D60017F1DDFFDB4BDC2B99EF79F0D451CF0F22
:10F3E600D36F200E206EFF0E216ED3C022F0236A4B
:10F3F600D351020DF350B10FD96EDA6A6F0078FF60
:10F4060024F06F0074FF25F0A3EC6FF007EF78F09F
:10F41600B0EC6FF0000E026E000E90EC70F09B0EDA
:10F42600026EFF0E036E080E046EF2EC72F0D60E3C
:10F43600206EFC0E216EA3EC6FF03BEC71F002C067
:10F44600D8F003C0D9F0C60E206EEA0E216EFF0E6C
:10F45600226ED8C023F0D9C024F022EC70F02050E0
:10F466000001DD6F010E026E000E90EC70F0C60E0C
:10F47600026E036ADDC004F0F2EC72F0B20E206E8A
:10F48600FE0E216ED8C022F0D9C023F0A3EC6FF097
:10F4960007EF78F0B0EC6FF0000E026E000E90EC05
:10F4A60070F0890E026EFF0E036E080E046EF2EC0B
:10F4B60072F0D60E206EFC0E216EA3EC6FF0260EB7
:10F4C600206EFC0E216EA3EC6FF0D7EC71F00001FC
:10F4D600DF6FDF511CEC6FF0C60E206EF60E216E4C
:10F4E600FF0E226EDFC023F0246A22EC70F020505B
:10F4F6000001DD6F010E026E000E90EC70F0C60E7C
:10F50600026E036ADDC004F0F2EC72F0DEEC6FF01E
:10F516000009D8B491EF7AF093EF7AF089EF7AF098
:10F52600C10E89EC6FF0DEEC6FF00009D8B49EEFE7
:10F536007AF0A0EF7AF096EF7AF00001DF5189ECCD
:10F546006FF0DEEC6FF00009D8B4ACEF7AF0AEEFF6
:10F556007AF0A4EF7AF0C50E89EC6FF0DEEC6FF06E
:10F566000009D8B4B9EF7AF0BBEF7AF0B1EF7AF0D0
:10F576000001DF5189EC6FF007EF78F0B0EC6FF027
:10F58600000E026E000E90EC70F0A40E026EFF0EDE
:10F59600036E080E046EF2EC72F0D60E206EFC0EB0
:10F5A600216EA3EC6FF0F80E206EFB0E216EA3EC1D
:10F5B6006FF0D7EC71F00001DF6FDF5116EC6FF0E2
:10F5C600C60E206EF60E216EFF0E226EDFC023F0F1
:10F5D600246A22EC70F020500001DD6F010E026EED
:10F5E600000E90EC70F0C60E026E036ADDC004F0E9
:10F5F600F2EC72F0DEEC6FF00009D8B405EF7BF0A8
:10F6060007EF7BF0FDEF7AF0C20E89EC6FF0DEECCF
:10F616006FF00009D8B412EF7BF014EF7BF00AEF1D
:10F626007BF00001DF5189EC6FF0DEEC6FF0000932
:10F63600D8B420EF7BF022EF7BF018EF7BF0C60EFC
:10F6460089EC6FF0DEEC6FF00009D8B42DEF7BF09B
:10F656002FEF7BF025EF7BF00001DF5189EC6FF097
:10F6660007EF78F0B0EC6FF0000E026E000E90EC33
:10F6760070F0770E026EFF0E036E080E046EF2EC4B
:10F6860072F0D60E206EFC0E216EA3EC6FF0260EE5
:10F69600206EFC0E216EA3EC6FF0D7EC71F000012A
:10F6A600DF6F4B0E206EFB0E216EA3EC6FF0D7ECD6
:10F6B60071F00001DA6FDF51DA25D16FD26BD237E4
:10F6C600DAC001F0DF511AEC6FF0C60E206EF00EB4
:10F6D600216EFF0E226EDFC023F0246ADAC025F009
:10F6E600266A22EC70F020500001DD6F010E026EDA
:10F6F600000E90EC70F0C60E026E036ADDC004F0D8
:10F70600F2EC72F0DEEC6FF00009D8B48DEF7BF00E
:10F716008FEF7BF085EF7BF0C10E89EC6FF0DEECAE
:10F726006FF00009D8B49AEF7BF09CEF7BF092EF74
:10F736007BF00001D15189EC6FF0DEEC6FF000092F
:10F74600D8B4A8EF7BF0AAEF7BF0A0EF7BF0C50E54
:10F7560089EC6FF0DEEC6FF00009D8B4B5EF7BF002
:10F76600B7EF7BF0ADEF7BF00001DF5189EC6FF076
:10F7760007EF78F0B0EC6FF0000E026E000E90EC22
:10F7860070F0800E026EFF0E036E080E046EF2EC31
:10F7960072F0D60E206EFC0E216EA3EC6FF0260ED4
:10F7A600206EFC0E216EA3EC6FF0D7EC71F0000119
:10F7B600DF6F4B0E206EFB0E216EA3EC6FF0D7ECC5
:10F7C60071F00001DA6FDF51DA25D16FD26BD237D3
:10F7D600DAC001F0DF511BEC6FF0C60E206EF00EA2
:10F7E600216EFF0E226EDFC023F0246ADAC025F0F8
:10F7F600266A22EC70F020500001DD6F010E026EC9
:10F80600000E90EC70F0C60E026E036ADDC004F0C6
:10F81600F2EC72F0DEEC6FF00009D8B415EF7CF074
:10F8260017EF7CF00DEF7CF0C10E89EC6FF0DEEC8B
:10F836006FF00009D8B422EF7CF024EF7CF01AEFC9
:10F846007CF00001DF5189EC6FF0DEEC6FF000090F
:10F85600D8B430EF7CF032EF7CF028EF7CF0C50EA8
:10F8660089EC6FF0DEEC6FF00009D8B43DEF7CF068
:10F876003FEF7CF035EF7CF00001D15189EC6FF061
:10F8860007EF78F0B0EC6FF0000E026E000E90EC11
:10F8960070F0650E026EFF0E036E080E046EF2EC3B
:10F8A60072F0D60E206EFC0E216EA3EC6FF021ECEA
:10F8B6006FF0DEEC6FF00009D8B464EF7CF066EF11
:10F8C6007CF05CEF7CF0C10E89EC6FF0DEEC6FF043
:10F8D6000009D8B471EF7CF073EF7CF069EF7CF02F
:10F8E600000E89EC6FF0DEEC6FF00009D8B47EEF05
:10F8F6007CF080EF7CF076EF7CF0C50E89EC6FF043
:10F90600DEEC6FF00009D8B48BEF7CF08DEF7CF065
:10F9160083EF7CF0000E89EC6FF007EF78F0B0EC27
:10F926006FF0000E026E000E90EC70F0AD0E026EDF
:10F93600FF0E036E080E046EF2EC72F03BEC71F0F3
:10F9460002C0D8F003C0D9F0C60E206EEA0E216EB2
:10F95600FF0E226ED8C023F0D9C024F022EC70F03E
:10F9660020500001DD6F010E026E000E90EC70F06B
:10F97600C60E026E036ADDC004F0F2EC72F0F8EC1B
:10F9860074F007EF78F0D351420AD8B4C1EF7AF099
:10F99600040AD8B44DEF7AF00A0AD8B435EF7BF0F2
:10F9A6001E0AD8B4BDEF7BF0010AD8B445EF7CF04F
:10F9B600300AD8B40DEF78F0070AD8B440EF79F0E2
:10F9C600090AD8B492EF7CF01F0AD8B41CEF79F07C
:10F9D600040AD8B40BEF7AF007EF78F0CBAAF6EF6B
:10F9E6007CF0F8EF7CF090EF7DF0F8EC74F0B0EC82
:10F9F6006FF0000E026E000E90EC70F0410E026E7B
:10FA0600FF0E036E080E046EF2EC72F03BEC71F022
:10FA160002C0D8F003C0D9F0C60E206EEA0E216EE1
:10FA2600FF0E226ED8C023F0D9C024F022EC70F06D
:10FA360020500001DD6F010E026E000E90EC70F09A
:10FA4600C60E026E036ADDC004F0F2EC72F03D0EE3
:10FA5600446EE10E436E400EE82EFED7432EFCD7D1
:10FA6600442EFAD7000E026E000E90EC70F0C80E0F
:10FA7600026EFF0E036E080E046EF2EC72F00DECD1
:10FA860071F0010E026E000E90EC70F05C0E026ECC
:10FA9600FF0E036E080E046EF2EC72F0060E83EC97
:10FAA60075F0100E436E940EE82EFED7432EFCD74B
:10FAB60000D0DEEC6FF00009D8B464EF7DF066EF9D
:10FAC6007DF05CEF7DF0C10E89EC6FF0DEEC6FF03F
:10FAD6000009D8B471EF7DF073EF7DF069EF7DF02A
:10FAE600190E89EC6FF0DEEC6FF00009D8B47EEFEA
:10FAF6007DF080EF7DF076EF7DF0C50E89EC6FF03E
:10FB0600DEEC6FF00009D8B48BEF7DF08DEF7DF061
:10FB160083EF7DF0190E89EC6FF0FEEF7FF00000A9
:10FB260000000000000000000000000000000000CF
:10FB360000000000000000000000000000000000BF
:10FB460000000000000920506C6561736520656E39
:10FB560074657220746865207475726E696E6720AC
:10FB6600646966666572656E7469616C3A20737065
:10FB7600656564202B20646966666572656E7469C6
:10FB8600616C203C20313237200D0A00202076207F
:10FB96000909202876296F6C74616765202D20522B
:10FBA60065616420616E6420646973706C6179209C
:10FBB6006261747465727920766F6C746167652012
:10FBC6000D0A00496E76616C696420696E70757401
:10FBD6002E20506C65617365207265646F206E75AA
:10FBE6006D65726963616C20696E7075742E200D87
:10FBF6000A000920506C6561736520656E74657234
:10FC060020746865206261636B776172642073702B
:10FC16006565642C2030202D20313237200D0A00F6
:10FC26000920506C6561736520656E746572207479
:10FC3600686520666F7277617264207370656564AB
:10FC46002C2030202D20313237200D0A00506C61D7
:10FC5600636520616C6C20666976652073656E73DA
:10FC66006F7273206F6E20612077686974652073E8
:10FC7600757266616365200A0D00506C61636520CC
:10FC8600616C6C20666976652073656E736F72733E
:10FC9600206F6E206120626C61636B2073757266E3
:10FCA600616365200A0D00496E76616C69642065A2
:10FCB6006E7472792E2020456E7465722073656E9F
:10FCC600736F72206E756D6265722C20302D342034
:10FCD6000A0D002020722009092028722965616416
:10FCE6002063616C696272617465642073656E730A
:10FCF6006F7273200D0A00202042200909205768E0
:10FD060065656C7320726F74617465202842296181
:10FD1600636B77617264200D0A0020206420090954
:10FD2600202864296973706C61792073656E736F1E
:10FD36007220782076616C7565200D0A00202046B9
:10FD460020090920576865656C7320726F746174A9
:10FD560065202846296F7277617264200D0A0009B2
:10FD66002A20202020202020202020202020202083
:10FD7600202020202020202020202020202A0D0A9C
:10FD860000092A202020202020446961676E6F73B5
:10FD9600746963204D656E75202020202020202A5E
:10FDA6000D0A00092A2020204150534320313239C0
:10FDB60039202D20506F6C6F6C75203370692020B0
:10FDC600202A0D0A00092A2A2A2A2A2A2A2A2A2A1F
:10FDD6002A2A2A2A2A2A2A2A2A2A2A2A2A2A2A2A7D
:10FDE6002A2A2A2A0D0A00202063200909202863CE
:10FDF60029616C6962726174652073656E736F72D6
:10FE060073200D0A0057686974652063616C696226
:10FE1600726174696F6E20636F6D706C65746520B6
:10FE26000A0D00426C61636B2063616C69627261EA
:10FE360074696F6E20636F6D706C657465200A0D52
:10FE460000436F6D6D616E64204B65792009204417
:10FE560065736372697074696F6E200D0A00507263
:10FE660065737320616E79206B657920746F2063EA
:10FE76006F6E74696E7565200A0D0020206D20096D
:10FE860009205265667265736820286D29656E754E
:10FE9600200D0A0043616C6962726174696F6E209D
:10FEA600636F6D706C657465200A0D004261747431
:10FEB60065727920766F6C74616765203D202575C3
:10FEC600200A0D002020522009092028522969679E
:10FED6006874207475726E200D0A00202053200964
:10FEE6000920285329746F70206D6F746F72200D6E
:10FEF6000A0020204C20090920284C296566742018
:10FF06007475726E200D0A0053656E736F7220252C
:10FF160075203D202575200A0D0053656E736F729E
:10FF26002025643A2025750A00202020474F2020EE
:10FF36002000202053455420202000202052756E9A
:10FF460020202000205245414459202000202052E4
:10FF56006561642020002020646F6E6520200020EB
:10FF66002053746F702020002020257520732020D8
:10FF76000020204C65667420200020526967687452
:10FF8600202000466F7277617264200053656E739D
:10FF96006F72732000426174746572792000426149
:10FFA600636B7761726400446961676E6F736500A5
:10FFB600436F6D706C65746500436F756E74696E22
:10FFC60067004175746F2043616C0043616C696220
:10FFD6007261740053656E736F72200053656E73A1
:10FFE6006F7273002575206D5600257520257500E6
:0AFFF600202575200000BEEF6FF01B
:020000040030CA
:0A000000ECFEF7FF9FFFFFFFFFFF7C
:00000001FF
