:04000000FEEF7FF0A0
:10D5FE00120012001200120012001200B88E120059
:10D60E00B89E1200000E27EC6EF01200026E025051
:10D61E007EEC6BF0120001C0EDF002C0EEF01200D5
:10D62E0001C05EF002C05FF0120001C05CF002C0EB
:10D63E005DF0120001C0E7F002C0E8F0120001C078
:10D64E00EBF002C0ECF0120001C0E9F002C0EAF00B
:10D65E0012001050B76E60003FF0B6FF120046EC9D
:10D66E006BF074EC70F03DEC6BF01200600E390153
:10D67E00D96FDB6BDD6B070EDF6FDE6B12003901CE
:10D68E00C06BC16BC26BC36BC46BC56BC66BC76B18
:10D69E0012003901A3B756EF6BF059EF6BF0010E84
:10D6AE005AEF6BF0000E1200026E60000BF0B8FF26
:10D6BE00600007F0B9FFB89E3901A39F120039012F
:10D6CE00A6B56CEF6BF06FEF6BF0010E70EF6BF0B9
:10D6DE00000E1200016E3901A3A978EF6BF07AEFFC
:10D6EE006BF072EF6BF0600007F0EAFD1200016E56
:10D6FE003901A6A785EF6BF087EF6BF07FEF6BF02C
:10D70E00600007F0D2FD1200220E266E000E1A6E79
:10D71E0020C01BF021C01CF0260E1D6ECAEC6CF052
:10D72E001200C6EC6BF00009D8B4A0EF6BF0A2EFBC
:10D73E006BF098EF6BF0B70E71EC6BF0120000EE21
:10D74E0060F0510EEE6AE806FDE100EE47F0150EB0
:10D75E00EE6AE806FDE100012EEF76F06F00D8FECE
:10D76E0007F06F00DCFE08F00850036E0750056EE0
:10D77E0003C006F005C001F006C002F01200016AF7
:10D78E003901A3A9CDEF6BF0CFEF6BF0D9EF6BF0B2
:10D79E003D01F2ABD5EF6BF0D7EF6BF0D9EF6BF03D
:10D7AE00010E016E01501200016A3901A6A7E2EFC7
:10D7BE006BF0E4EF6BF0EEEF6BF03D01DAABEAEFFE
:10D7CE006BF0ECEF6BF0EEEF6BF0010E016E0150B3
:10D7DE00120008BEF5EF6BF0F7EF6BF0FDEF6BF09C
:10D7EE0007C007F008C008F009EF6CF007C009F099
:10D7FE0008C00AF0091E0A1E094A0A2A09C007F0C3
:10D80E000AC008F01200230E296E20C02AF02D6ADD
:10D81E00000E2C6E346A000E336E2A0E1A6E21C064
:10D82E001BF022C01CF0290E1D6ECAEC6CF01AC043
:10D83E0027F01BC028F020502C24D96EDA6ADF6A3C
:10D84E0027C020F028C021F012003D01D46BD66B0A
:10D85E00D86BB00EDA6F800EDB6FDC6BE10EDD6F16
:10D86E00040EDE6FDF6BE06BE16BE26B060E016E9A
:10D87E00D60E026E26EC6BF0080E016ED60E026E00
:10D88E002BEC6BF0040E016ED60E026E21EC6BF0DB
:10D89E005A6A12003D01EC6BED6BEE6BEF6BF06BA9
:10D8AE00F16BB00EF26F800EF36FF46B670EF56FC7
:10D8BE00F66BF76BF86BF96BFA6B000E016ED60E0A
:10D8CE00026E17EC6BF0020E016ED60E026E1CECA1
:10D8DE006BF0FE0E016ED50E026E12EC6BF05B6AF3
:10D8EE001200036EC6EC6BF00009D8B481EF6CF039
:10D8FE0083EF6CF079EF6CF0B90E71EC6BF0C6EC57
:10D90E006BF00009D8B48EEF6CF090EF6CF086EFF0
:10D91E006CF0035071EC6BF0C6EC6BF00009D8B4F0
:10D92E009BEF6CF09DEF6CF093EF6CF0025071EC8E
:10D93E006BF01200026EC6EC6BF00009D8B4AAEFC1
:10D94E006CF0ACEF6CF0A2EF6CF0B80E71EC6BF00B
:10D95E00C6EC6BF00009D8B4B7EF6CF0B9EF6CF011
:10D96E00AFEF6CF0010E71EC6BF0C6EC6BF00009D2
:10D97E00D8B4C4EF6CF0C6EF6CF0BCEF6CF0025094
:10D98E0071EC6BF012001BC01EF01CC01FF0526A2F
:10D99E00000E516EDFEF6CF01AC00BF01E0E0C6E07
:10D9AE001DC00DF093EC74F00B5051260C5052220A
:10D9BE0060007BF0F6FF60007FF0F7FFF86A08006A
:10D9CE00F5500009D8A4EEEF6CF0F0EF6CF0D3EF49
:10D9DE006CF051C01AF052C01BF01200C6EC6BF086
:10D9EE000009D8B4FDEF6CF0FFEF6CF0F5EF6CF0C2
:10D9FE00BA0E71EC6BF050EC6BF00009D8B40AEF74
:10DA0E006DF00CEF6DF002EF6DF018EF6DF050EC65
:10DA1E006BF00009D8B416EF6DF018EF6DF00EEF45
:10DA2E006DF08DEC6FF0630AD8A420EF6DF022EF4D
:10DA3E006DF00EEF6DF01200C6EC6BF00009D8B46D
:10DA4E002BEF6DF02DEF6DF023EF6DF0B10E71EC4D
:10DA5E006BF050EC6BF00009D8B438EF6DF03AEF84
:10DA6E006DF030EF6DF08DEC6FF0066E50EC6BF0EC
:10DA7E000009D8B445EF6DF047EF6DF03DEF6DF056
:10DA8E008DEC6FF0076E0750056E046A0650042485
:10DA9E00026E000E0520036E120003500410D8B45F
:10DAAE005BEF6DF05DEF6DF081EF6DF0010E056EC9
:10DABE0065EF6DF0D89003360436052A04AE6AEF92
:10DACE006DF06CEF6DF061EF6DF00350015C045082
:10DADE000258D8A075EF6DF077EF6DF07BEF6DF01B
:10DAEE000350015E0450025AD89004320332052EC0
:10DAFE006CEF6DF001C001F002C002F01200116E69
:10DB0E0007EC6BF0470E016E900E5BEC6BF0670E40
:10DB1E00016E000E026E0F0E036E000E046E11509B
:10DB2E00056E066A076A086A2BEC72F0015000084F
:10DB3E000F6E0250D8A0E82A0008106E30EC6BF081
:10DB4E003901A39F05EC6BF0115027EC6EF03901F3
:10DB5E00A3AFB4EF6DF0B6EF6DF0AEEF6DF009EC74
:10DB6E006BF007EC6BF01200026EC6EC6BF0000966
:10DB7E00D8B4C4EF6DF0C6EF6DF0BCEF6DF0C20E11
:10DB8E0071EC6BF0C6EC6BF00009D8B4D1EF6DF010
:10DB9E00D3EF6DF0C9EF6DF0025071EC6BF0C6EC87
:10DBAE006BF00009D8B4DEEF6DF0E0EF6DF0D6EF5C
:10DBBE006DF0C60E71EC6BF0C6EC6BF00009D8B4CC
:10DBCE00EBEF6DF0EDEF6DF0E3EF6DF0022871EC21
:10DBDE006BF01200026EC6EC6BF00009D8B4FAEFCF
:10DBEE006DF0FCEF6DF0F2EF6DF0C10E71EC6BF0BD
:10DBFE00C6EC6BF00009D8B407EF6EF009EF6EF0CB
:10DC0E00FFEF6DF0025071EC6BF0C6EC6BF000099B
:10DC1E00D8B414EF6EF016EF6EF00CEF6EF0C60E79
:10DC2E0071EC6BF0C6EC6BF00009D8B421EF6EF01E
:10DC3E0023EF6EF019EF6EF0022871EC6BF012000C
:10DC4E00026EC6EC6BF00009D8B430EF6EF032EF16
:10DC5E006EF028EF6EF0C10E71EC6BF0C6EC6BF04F
:10DC6E000009D8B43DEF6EF03FEF6EF035EF6EF079
:10DC7E00025071EC6BF0C6EC6BF00009D8B44AEFB1
:10DC8E006EF04CEF6EF042EF6EF0C50E71EC6BF075
:10DC9E00C6EC6BF00009D8B457EF6EF059EF6EF08A
:10DCAE004FEF6EF0022871EC6BF01200036EC6ECB3
:10DCBE006BF00009D8B466EF6EF068EF6EF05EEFB1
:10DCCE006EF0C10E71EC6BF0C6EC6BF00009D8B4BF
:10DCDE0073EF6EF075EF6EF06BEF6EF00350022483
:10DCEE0071EC6BF0C6EC6BF00009D8B481EF6EF0FE
:10DCFE0083EF6EF079EF6EF0C50E71EC6BF0C6EC43
:10DD0E006BF00009D8B48EEF6EF090EF6EF086EFE8
:10DD1E006EF0032871EC6BF01200066A000E056EB1
:10DD2E0003500410D8B49EEF6EF0A0EF6EF0C8EF63
:10DD3E006EF0010E076EA8EF6EF0D8900336043623
:10DD4E00072A04AEADEF6EF0AFEF6EF0A4EF6EF0FB
:10DD5E00D890053606360350015C04500258D8A000
:10DD6E00BBEF6EF0BDEF6EF0C2EF6EF00350015ED2
:10DD7E000450025A0580D89004320332072EAFEFBA
:10DD8E006EF005C001F006C002F01200046EC6EC83
:10DD9E006BF00009D8B4D6EF6EF0D8EF6EF0CEEF80
:10DDAE006EF0C10E71EC6BF0C6EC6BF00009D8B4DE
:10DDBE00E3EF6EF0E5EF6EF0DBEF6EF0045071EC1A
:10DDCE006BF0C6EC6BF00009D8B4F0EF6EF0F2EF2A
:10DDDE006EF0E8EF6EF0C50E71EC6BF0C6EC6BF00A
:10DDEE000009D8B4FDEF6EF0FFEF6EF0F5EF6EF0B8
:10DDFE0004500224036E032871EC6BF012002868A5
:10DE0E00276A3EEF6FF049EC6FF0286E0D0E281862
:10DE1E00D8A414EF6FF016EF6FF018EF6FF03EEF1F
:10DE2E006FF02F0E28641EEF6FF020EF6FF028EFCB
:10DE3E006FF0390E286426EF6FF028EF6FF038EF91
:10DE4E006FF0C60E206EFC0E216E8BEC6BF0B90ED1
:10DE5E00206EFB0E216E8BEC6BF0276A28683EEF6E
:10DE6E006FF027500A0DF3502824D00F276E0D0E99
:10DE7E002818D8A445EF6FF047EF6FF00AEF6FF058
:10DE8E0027501200026872EF6FF066EC6BF000091B
:10DE9E00D8B454EF6FF056EF6FF072EF6FF0D8EC1E
:10DEAE006FF0026EDBEC6BF00009D8B461EF6FF02F
:10DEBE0063EF6FF072EF6FF002507EEC6BF00D0EB1
:10DECE000218D8A46DEF6FF06FEF6FF072EF6FF076
:10DEDE000A0E7EEC6BF02F0E026478EF6FF07AEF85
:10DEEE006FF082EF6FF07A0E026480EF6FF082EFC8
:10DEFE006FF08BEF6FF00D0E0218D8A489EF6FF054
:10DF0E008BEF6FF04CEF6FF0025012003901A3A7A8
:10DF1E0093EF6FF095EF6FF08DEF6FF05B6A3D0151
:10DF2E00F9A79CEF6FF09EEF6FF0ABEF6FF05B8297
:10DF3E0002D8ABEF6FF00500FA6E5E50FD6E5F50CB
:10DF4E00FE6EFF6AFA5012003D01F9A3B1EF6FF0B9
:10DF5E00B3EF6FF0C0EF6FF05B8402D8C0EF6FF0DD
:10DF6E000500FA6E5C50FD6E5D50FE6EFF6AFA5053
:10DF7E0012005B50D8B4C6EF6FF0C8EF6FF0D5EF5C
:10DF8E006FF002D8D5EF6FF00500FA6E0001ED517B
:10DF9E00FD6EEE51FE6EFF6AFA5012003D01E85121
:10DFAE0012003901A6A5DEEF6FF0E0EF6FF0D8EFAB
:10DFBE006FF05A6A3D01E1A7E7EF6FF0E9EF6FF0FE
:10DFCE00F7EF6FF05A8202D8F7EF6FF00500FA6E96
:10DFDE000001EB51FD6EEC51FE6EFF6AFA5012001D
:10DFEE003D01E1A3FDEF6FF0FFEF6FF00DEF70F06D
:10DFFE005A8402D80DEF70F00500FA6E0001E95157
:10E00E00FD6EEA51FE6EFF6AFA5012005A50D8B4F5
:10E01E0013EF70F015EF70F022EF70F002D822EFD0
:10E02E0070F00500FA6E0001E751FD6EE851FE6ECC
:10E03E00FF6AFA5012003D01D0511200076AC6EC79
:10E04E006BF00009D8B42EEF70F030EF70F026EFC1
:10E05E0070F0B80E71EC6BF0C6EC6BF00009D8B432
:10E06E003BEF70F03DEF70F033EF70F0045071EC59
:10E07E006BF06AEF70F0C6EC6BF00009D8B44AEFA3
:10E08E0070F04CEF70F06AEF70F007500224056EDE
:10E09E00000E0320066E600017F0F6FF60001BF006
:10E0AE00F7FF000EF86E0F0EF76403D00800F55060
:10E0BE0007D06F00DBFFE9FF6F00DFFFEAFFEF50D5
:10E0CE0071EC6BF0072A0450075CD8A071EF70F06A
:10E0DE0073EF70F042EF70F01200BE6ABD6ABA6A5A
:10E0EE00BB6ABC6A070EC66EC268BF0EC36E840ED4
:10E0FE00C46EC5683A01706B606B2F0E506F070EC1
:10E10E00806FEF0E406F716B816B516B416B616B6A
:10E11E005A6B5B6B6A6B6B6B7A6B7B6B826B426B56
:10E12E00526B180E626F726B436953696369736940
:10E13E00070E836F44695469646974690F0E846FA6
:10E14E000F0EE86F250E106F160E0E6F210E136F49
:10E15E000F0E116F220E146F170EE56F040EC36FA4
:10E16E00130EE16F0C0EDD6F140EE26F120ECA6FFE
:10E17E000D0E156F130E166F12000550D8B4CAEFA0
:10E18E0070F0CCEF70F0D4EF70F00550D8A4D2EF51
:10E19E0070F0D4EF70F0D9EF70F003500DEC6BF01F
:10E1AE0019EF71F00550D96EDA6A090ED926DE50D4
:10E1BE00DE10D8B4E5EF70F0E7EF70F000EF71F01D
:10E1CE000550D96EDA6A090ED9260550E16EE26A5B
:10E1DE00020EE126DE50E65CE650800A0A6EDE5044
:10E1EE00800A0A58D8B0FEEF70F000EF71F019EF08
:10E1FE0071F00550D96EDA6A020ED926DF50066E1E
:10E20E000550D96EDA6ADF500624D96EDA6A6000DC
:10E21E000FF0DFFF0550D96EDA6A020ED926DE2A1C
:10E22E00000EDD221200066A02BE22EF71F020EF10
:10E23E0071F028EF71F0016C021ED8B0022A010EA7
:10E24E00066E04BE2FEF71F02DEF71F033EF71F00B
:10E25E00036C041ED8B0042A03500410D8B43AEF4D
:10E26E0071F03CEF71F060EF71F0010E056E44EF4E
:10E27E0071F0D89003360436052A04AE49EF71F0DA
:10E28E004BEF71F040EF71F00350015C04500258F7
:10E29E00D8A054EF71F056EF71F05AEF71F00350B1
:10E2AE00015E0450025AD89004320332052E4BEF11
:10E2BE0071F00650D8B466EF71F068EF71F06CEF44
:10E2CE0071F0016C021ED8B0022A01C001F002C02A
:10E2DE0002F01200C6EC6BF00009D8B479EF71F0C1
:10E2EE007BEF71F071EF71F0B40E71EC6BF0126A9E
:10E2FE0050EC6BF00009D8B487EF71F089EF71F034
:10E30E007FEF71F01250080FD96EDA6A8DEC6FF054
:10E31E00DF6E50EC6BF00009D8B498EF71F09AEF05
:10E32E0071F090EF71F012500D0FD96EDA6A8DEC1C
:10E33E006FF0DF6E12500D0FD96EDA6ADF50046E79
:10E34E000450066E056A1250080FD96EDA6ADF5055
:10E35E00076E07500526000E06221250020DF350CE
:10E36E00A70FD96EDA6A600017F0DEFF60001BF0AF
:10E37E00DDFF122A040E1264C7EF71F0C9EF71F0BF
:10E38E007FEF71F0A70E1200066A04BED3EF71F094
:10E39E00D1EF71F0D9EF71F0036C041ED8B0042ADE
:10E3AE00010E066E02BEE0EF71F0DEEF71F0E6EFE9
:10E3BE0071F0016C021ED8B0022A010E061A086A0C
:10E3CE00000E076E03500410D8B4F0EF71F0F2EFA8
:10E3DE0071F01AEF72F0010E056EFAEF71F0D8902F
:10E3EE0003360436052A04AEFFEF71F001EF72F02A
:10E3FE00F6EF71F0D890073608360350015C0450E2
:10E40E000258D8A00DEF72F00FEF72F014EF72F009
:10E41E000350015E0450025A0780D8900432033232
:10E42E00052E01EF72F00650D8B420EF72F022EFF5
:10E43E0072F026EF72F0076C081ED8B0082A07C0DB
:10E44E0001F008C002F012000A6A08BE33EF72F043
:10E45E0031EF72F03DEF72F0081E071E061E056CBE
:10E46E00000E062207220822010E0A6E04BE44EF99
:10E47E0072F042EF72F04EEF72F0041E031E021E97
:10E48E00016C000E022203220422010E0A1A000E53
:10E49E000B6E000E0C6E000E0D6E000E0E6E055005
:10E4AE00061007100810D8B45FEF72F061EF72F02B
:10E4BE0097EF72F0010E096E6BEF72F0D890053681
:10E4CE00063607360836092A08AE70EF72F072EF7C
:10E4DE0072F065EF72F0D8900B360C360D360E36A4
:10E4EE000550015C06500258075003580850045856
:10E4FE00D8A084EF72F086EF72F08FEF72F00550B5
:10E50E00015E0650025A0750035A0850045A0B80F7
:10E51E00D8900832073206320532092E72EF72F0A9
:10E52E000A50D8B49DEF72F09FEF72F0A7EF72F021
:10E53E000E1E0D1E0C1E0B6C000E0C220D220E223A
:10E54E000BC001F00CC002F00DC003F00EC004F0C1
:10E55E001200E50E206EFB0E216E8BEC6BF0BB0EE7
:10E56E00206EFD0E216E8BEC6BF0550E206EFD0EA7
:10E57E00216E8BEC6BF0990E206EFD0E216E8BECE6
:10E58E006BF0770E206EFD0E216E8BEC6BF0550E40
:10E59E00206EFD0E216E8BEC6BF0BB0E206EFD0E11
:10E5AE00216E8BEC6BF0C60E206EFC0E216E8BEC8A
:10E5BE006BF0370E206EFE0E216E8BEC6BF0DD0EC7
:10E5CE00206EFD0E216E8BEC6BF0C90E206EFC0ED4
:10E5DE00216E8BEC6BF0100E206EFD0E216E8BEC0F
:10E5EE006BF0E50E206EFB0E216E8BEC6BF0820E47
:10E5FE00206EFB0E216E8BEC6BF0E50E206EFB0E8B
:10E60E00216E8BEC6BF0330E206EFD0E216E8BECBB
:10E61E006BF0ED0E206EFC0E216E8BEC6BF0E80EA7
:10E62E00206EFE0E216E8BEC6BF0BA0E206EFE0E7F
:10E63E00216E8BEC6BF0D10E206EFE0E216E8BECEC
:10E64E006BF0E50E206EFB0E216E8BEC6BF0710EF7
:10E65E00206EFE0E216E8BEC6BF0C60E206EFC0E45
:10E66E00216E8BEC6BF01200406E40C042F098ECC5
:10E67E006BF0C80E026EFF0E036E080E046E25ECD4
:10E68E0070F0480E016E900E5BEC6BF005EC6BF0CB
:10E69E00010E026E000E78EC6CF0350E206E770EC9
:10E6AE00216EFF0E226E42C023F0246A0AEC6CF03B
:10E6BE002050416E350E026E036A41C004F025EC07
:10E6CE0070F0D5EF73F0B5EC6BF001C03EF002C008
:10E6DE003FF01B0E3E5CB70E3F58D8A079EF73F09B
:10E6EE007BEF73F0D5EF73F04206106A000E0F6EDB
:10E6FE0030EC6BF0C6EF73F098EC6BF0010E026E1F
:10E70E00000E78EC6CF0380E026EFF0E036E080EE3
:10E71E00046E25EC70F0D5EF73F0010E026E000E54
:10E72E0078EC6CF0410E026EFF0E036E080E046E56
:10E73E0025EC70F0D5EF73F0010E026E000E78EC42
:10E74E006CF0530E026EFF0E036E080E046E25EC77
:10E75E0070F0D5EF73F0010E026E000E78EC6CF0D7
:10E76E00350E206E770E216EFF0E226E42C023F004
:10E77E00246A0AEC6CF02050416E61EF73F0425047
:10E78E00000AD8B483EF73F0010AD8B494EF73F093
:10E79E00030AD8B4A3EF73F0B2EF73F04250D8A4CB
:10E7AE00DBEF73F0DDEF73F06AEF73F007EC6BF0F5
:10E7BE001200C6EC6BF00009D8B4E8EF73F0EAEF84
:10E7CE0073F0E0EF73F0870E71EC6BF0146A000ECD
:10E7DE00136E50EC6BF00009D8B4F8EF73F0FAEF4B
:10E7EE0073F0F0EF73F01350060FD96EDA6A8DECFA
:10E7FE006FF0DF6E50EC6BF00009D8B409EF74F0D7
:10E80E000BEF74F001EF74F013500B0FD96EDA6A40
:10E81E008DEC6FF0DF6E13500B0FD96EDA6ADF508E
:10E82E00026E0250046E036A1350060FD96EDA6A36
:10E83E00DF50056E05500326000E04221350020D04
:10E84E00F3509D0FD96EDA6A60000FF0DEFF6000A4
:10E85E0013F0DDFF134A142A14BE3FEF74F0145068
:10E86E0009E1050E135CD8A03FEF74F041EF74F090
:10E87E00F0EF73F0126A000E116E1150020DF3508C
:10E88E009D0FD96EDA6AF40EDE5C010EDE58D8A04A
:10E89E0053EF74F055EF74F061EF74F01150020DF8
:10E8AE00F350470FD96EDA6A010EDE6E000EDD6E82
:10E8BE0069EF74F01150020DF350470FD96EDA6AFA
:10E8CE00DE6ADD6A114A122A12BE77EF74F0125018
:10E8DE0009E1050E115CD8A077EF74F079EF74F0B2
:10E8EE0044EF74F0D8904D34026E4BC003F0D890C4
:10E8FE000336D890033649C004F0D8900436D89029
:10E90E000436D89004364738F00B0410031002106A
:10E91E004F10106E10501200126A000E116E0C5035
:10E92E00D96EDA6A6F007BFFF6FF6F0077FFF7FF95
:10E93E00F86A0800F550250AD8A4A8EF74F0AAEFDB
:10E94E0074F012EF76F00C50D96EDA6ADE2A000EF1
:10E95E00DD22546A000E536E53C059F05568566846
:10E96E000C50D96EDA6A6F0078FF13F06F0074FFE7
:10E97E0014F060004FF0F6FF600053F0F7FFF86AF6
:10E98E000800F550640AD8B4CFEF74F0D1EF74F0EC
:10E99E00E2EF74F060004FF0F6FF600053F0F7FF07
:10E9AE00F86A0800F550690AD8A4E0EF74F0E2EFB7
:10E9BE0074F07AEF75F00D50D96EDA6A020EDF261A
:10E9CE00DF5CD96EDA6A6F0078FF15F06F0078FFA2
:10E9DE0016F0010E13240E6E000E14200F6E0C5046
:10E9EE00D96EDA6A60003BF0DEFF60003FF0DDFFBB
:10E9FE00200E196E16BE06EF75F009EF75F0010EBA
:10EA0E000AEF75F0000E106E19061950600FD96ED0
:10EA1E00DA6A15C001F016C002F0046A0A0E036E1F
:10EA2E001AEC71F001C007F002C008F0F0EC6BF0C8
:10EA3E000750300FDF6E15C001F016C002F0046AE9
:10EA4E000A0E036ECBEC71F001C015F002C016F089
:10EA5E00114A122A15501610D8B438EF75F03AEF45
:10EA6E0075F042EF75F01950D8A440EF75F042EFF3
:10EA7E0075F00BEF75F01950D8B448EF75F04AEFFA
:10EA8E0075F06BEF75F01050D8B450EF75F052EF83
:10EA9E0075F06BEF75F019061950600FD96EDA6AC2
:10EAAE002D0EDF6E114A122A6BEF75F01950600FA2
:10EABE00D96EDA6ADF500E6E0E50036E046A0BC00A
:10EACE0005F0C4EC70F0192A200E1918D8A472EFB4
:10EADE0075F074EF75F05DEF75F011C00BF012C0AC
:10EAEE000CF02DEF76F060004FF0F6FF600053F063
:10EAFE00F7FFF86A0800F550750AD8A489EF75F08B
:10EB0E008BEF75F007EF76F00D50D96EDA6A020EC4
:10EB1E00DF26DF5CD96EDA6A6F0078FF15F06F00C2
:10EB2E0078FF16F0010E13240E6E000E14200F6ED9
:10EB3E000C50D96EDA6A60003BF0DEFF60003FF0E9
:10EB4E00DDFFF8EF75F0200E196E19061950600FE3
:10EB5E00D96EDA6A15C001F016C002F0046A0A0E08
:10EB6E00036E54EC6DF00150300FDF6E15C001F0E6
:10EB7E0016C002F0046A0A0E036E94EC6EF001C029
:10EB8E0015F002C016F0114A122A15501610D8B4FC
:10EB9E00D3EF75F0D5EF75F0EDEF75F01950D8A4F1
:10EBAE00DBEF75F0DDEF75F0ACEF75F0EDEF75F0B6
:10EBBE001950600FD96EDA6ADF500E6E0E50036E6A
:10EBCE00046A0BC005F0C4EC70F0192A200E191857
:10EBDE00D8A4F4EF75F0F6EF75F0DFEF75F074EF83
:10EBEE0075F060004FF0F6FF600053F0F7FFF86A23
:10EBFE000800F550750AD8B4AAEF75F007EF76F055
:10EC0E000C50D96EDA6ADE2A000EDD220C6A000E76
:10EC1E000B6E2DEF76F00C50D96EDA6A6F007BFF1B
:10EC2E00F6FF6F0077FFF7FFF86A0800F550036EE6
:10EC3E00046A0BC005F0C4EC70F00C50D96EDA6AA1
:10EC4E00DE2A000EDD220C6A010E0B6E120036EC6F
:10EC5E006BF074EC70F051EC6CF02CEC6CF0C38A31
:10EC6E003A01509BCBBA3EEF76F040EF76F0F1EFE3
:10EC7E007BF0B0EC72F098EC6BF0000E026E000EB2
:10EC8E0078EC6CF0B60E026EFF0E036E080E046E7C
:10EC9E0025EC70F023EC6DF002C0DDF003C0DEF069
:10ECAE00C70E206EEA0E216EFF0E226EDDC023F01F
:10ECBE00DEC024F00AEC6CF020500001E46F010E6F
:10ECCE00026E000E78EC6CF0C70E026E036AE4C0A2
:10ECDE0004F025EC70F049EC6FF00001D66FC6EF32
:10ECEE007BF098EC6BF0000E026E000E78EC6CF080
:10ECFE002E0E026EFF0E036E080E046E25EC70F0E3
:10ED0E00010E026E000E78EC6CF09B0E026EFF0E82
:10ED1E00036E080E046E25EC70F0C60E206EFC0E0F
:10ED2E00216E8BEC6BF00001D06BFCEF76F0430E96
:10ED3E00206EFC0E216E8BEC6BF0540E206EFE0ED0
:10ED4E00216E8BEC6BF049EC6FF00001B16F71EC42
:10ED5E0071F00001DA6FDC6B000EDB6FE56B040EF9
:10ED6E00E565BCEF76F0BEEF76F0C0EF76F0EBEF38
:10ED7E0076F0E551020DDA51F324D96EDA6A6F009E
:10ED8E0078FF43F06F0074FF44F0DB514324DB6FD8
:10ED9E00DC514420DC6FFE0E206EFE0E216EE5C0AF
:10EDAE0022F0236AE551020DDA51F324D96EDA6AA4
:10EDBE006F0078FF24F06F0074FF25F08BEC6BF082
:10EDCE000001E52BB6EF76F0DB51DC11D8A4F2EFA3
:10EDDE0076F0F4EF76F0FCEF76F0010ED06FFB0ECE
:10EDEE00206EFD0E216E8BEC6BF00001D051D8B46D
:10EDFE0003EF77F005EF77F09EEF76F0D16B7CEFB7
:10EE0E0077F0700E206EFC0E216E8BEC6BF0540EB4
:10EE1E00206EFE0E216E8BEC6BF049EC6FF0000154
:10EE2E00B16F71EC71F00001DA6FDC6B000EDB6F0D
:10EE3E00E56B040EE56526EF77F028EF77F02AEF05
:10EE4E0077F055EF77F0E551020DDA51F324D96ED4
:10EE5E00DA6A6F0078FF43F06F0074FF44F0DB5105
:10EE6E004324DB6FDC514420DC6FFE0E206EFE0E61
:10EE7E00216EE5C022F0236AE551020DDA51F3242A
:10EE8E00D96EDA6A6F0078FF24F06F0074FF25F0F8
:10EE9E008BEC6BF00001E52B20EF77F0880EDB1981
:10EEAE0007E1130EDC19D8A45FEF77F061EF77F06E
:10EEBE007CEF77F0010ED16F190E206EFE0E216ED3
:10EECE008BEC6BF08A0E206EFE0E216E8BEC6BF0CF
:10EEDE00010E026E000E78EC6CF0BF0E026EFF0E8D
:10EEEE00036E080E046E25EC70F00001D151D8B4FB
:10EEFE0083EF77F085EF77F008EF77F072EF76F02B
:10EF0E0098EC6BF0000E026E000E78EC6CF05C0E5E
:10EF1E00026EFF0E036E080E046E25EC70F0010EED
:10EF2E00026E000E78EC6CF0E20E026EFF0E036EB7
:10EF3E00080E046E25EC70F0C60E206EFC0E216ECF
:10EF4E008BEC6BF0C6EC6BF00009D8B4B1EF77F038
:10EF5E00B3EF77F0A9EF77F0870E71EC6BF000014D
:10EF6E00E16B000EE06FE1BFC6EF77F0E15109E112
:10EF7E00050EE05DD8A0C6EF77F0C8EF77F0CAEFC8
:10EF8E0077F012EF78F050EC6BF00009D8B4D2EFB6
:10EF9E0077F0D4EF77F0CAEF77F00001E051BC0FB5
:10EFAE00D96EDA6A8DEC6FF0DF6E50EC6BF0000903
:10EFBE00D8B4E4EF77F0E6EF77F0DCEF77F000010E
:10EFCE00E051C10FD96EDA6A8DEC6FF0DF6E000181
:10EFDE00E051C10FD96EDA6ADF50436E4350456E71
:10EFEE00446AE051BC0FD96EDA6ADF50466E465065
:10EFFE004426000E4522E051020DF350B20FD96E99
:10F00E00DA6A600013F1DEFF600017F1DDFFE04BFE
:10F01E00E12BBAEF77F0D86B000ED76FD8BF21EF88
:10F02E0078F0D85109E1050ED75DD8A021EF78F020
:10F03E0023EF78F025EF78F072EF76F01F0E206E4A
:10F04E00FF0E216ED7C022F0D8C023F0D751020D8B
:10F05E00F350B20FD96EDA6A6F0078FF24F06F00AA
:10F06E0074FF25F08BEC6BF00001D74BD82B15EF0E
:10F07E0078F098EC6BF0000E026E000E78EC6CF0EF
:10F08E00DA0E026EFF0E036E070E046E25EC70F0A4
:10F09E00C60E206EFC0E216E8BEC6BF0AD0E206E4C
:10F0AE00FC0E216E8BEC6BF049EC6FF00001D96F0A
:10F0BE006FEF78F0C60E206EFC0E216E8BEC6BF0AF
:10F0CE009D0E206EFC0E216E8BEC6BF05BEF78F0DC
:10F0DE002F0ED96575EF78F077EF78F061EF78F055
:10F0EE00350ED9617DEF78F07FEF78F061EF78F033
:10F0FE00000E026E070E78EC6CF00001D951A1ECF7
:10F10E006CF0C6EC6BF00009D8B490EF78F092EF8B
:10F11E0078F088EF78F0870E71EC6BF00001E36BFE
:10F12E00000EE26FE3BFA5EF78F0E35109E1050EA3
:10F13E00E25DD8A0A5EF78F0A7EF78F0A9EF78F010
:10F14E00F1EF78F050EC6BF00009D8B4B1EF78F035
:10F15E00B3EF78F0A9EF78F00001E251BC0FD96E51
:10F16E00DA6A8DEC6FF0DF6E50EC6BF00009D8B4FC
:10F17E00C3EF78F0C5EF78F0BBEF78F00001E25105
:10F18E00C10FD96EDA6A8DEC6FF0DF6E0001E251BD
:10F19E00C10FD96EDA6ADF50436E4350456E446A32
:10F1AE00E251BC0FD96EDA6ADF50466E46504426E5
:10F1BE00000E4522E251020DF350B20FD96EDA6AFB
:10F1CE00600013F1DEFF600017F1DDFFE24BE32B71
:10F1DE0099EF78F0D951D00FD66F100E206EFF0E2A
:10F1EE00216ED6C022F0236AD651020DF350B20F13
:10F1FE00D96EDA6A6F0078FF24F06F0074FF25F085
:10F20E008BEC6BF072EF76F098EC6BF0000E026EFA
:10F21E00000E78EC6CF0A40E026EFF0E036E080E5C
:10F22E00046E25EC70F0C60E206EFC0E216E8BEC7B
:10F23E006BF023EC6DF002C0DDF003C0DEF0C70E04
:10F24E00206EEA0E216EFF0E226EDDC023F0DEC0B0
:10F25E0024F00AEC6CF020500001E46F010E026EF7
:10F26E00000E78EC6CF0C70E026E036AE4C004F078
:10F27E0025EC70F0A20E206EFE0E216EDDC022F087
:10F28E00DEC023F08BEC6BF072EF76F098EC6BF047
:10F29E00000E026E000E78EC6CF0920E026EFF0EF7
:10F2AE00036E080E046E25EC70F0C60E206EFC0E7A
:10F2BE00216E8BEC6BF0160E206EFC0E216E8BEC1D
:10F2CE006BF006EC6FF00001E66FE65127EC6EF086
:10F2DE00C70E206EF60E216EFF0E226EE6C023F0D4
:10F2EE00246A0AEC6CF020500001E46F010E026EED
:10F2FE00000E78EC6CF0C70E026E036AE4C004F0E8
:10F30E0025EC70F0C6EC6BF00009D8B491EF79F0F3
:10F31E0093EF79F089EF79F0C10E71EC6BF0C6ECDA
:10F32E006BF00009D8B49EEF79F0A0EF79F096EF6C
:10F33E0079F00001E65171EC6BF0C6EC6BF0000950
:10F34E00D8B4ACEF79F0AEEF79F0A4EF79F0C50E4A
:10F35E0071EC6BF0C6EC6BF00009D8B4B9EF79F034
:10F36E00BBEF79F0B1EF79F00001E65171EC6BF083
:10F37E0072EF76F098EC6BF0000E026E000E78ECE9
:10F38E006CF0AD0E026EFF0E036E080E046E25ECD1
:10F39E0070F0C60E206EFC0E216E8BEC6BF0E80E3C
:10F3AE00206EFB0E216E8BEC6BF006EC6FF0000105
:10F3BE00E66FE651BBEC6DF0C70E206EF60E216EB9
:10F3CE00FF0E226EE6C023F0246A0AEC6CF0205089
:10F3DE000001E46F010E026E000E78EC6CF0C70EA9
:10F3EE00026E036AE4C004F025EC70F0C6EC6BF01C
:10F3FE000009D8B405EF7AF007EF7AF0FDEF79F057
:10F40E00C20E71EC6BF0C6EC6BF00009D8B412EFC3
:10F41E007AF014EF7AF00AEF7AF00001E65171EC0F
:10F42E006BF0C6EC6BF00009D8B420EF7AF022EF47
:10F43E007AF018EF7AF0C60E71EC6BF0C6EC6BF04A
:10F44E000009D8B42DEF7AF02FEF7AF025EF7AF08D
:10F45E000001E65171EC6BF072EF76F098EC6BF008
:10F46E00000E026E000E78EC6CF0800E026EFF0E37
:10F47E00036E080E046E25EC70F0C60E206EFC0EA8
:10F48E00216E8BEC6BF0160E206EFC0E216E8BEC4B
:10F49E006BF006EC6FF00001E66F3B0E206EFB0E7C
:10F4AE00216E8BEC6BF006EC6FF00001DF6FE65116
:10F4BE00DF25D46FD56BD537DFC002F0E651CDEC2A
:10F4CE006EF0C70E206EF00E216EFF0E226EE6C09D
:10F4DE0023F0246ADFC025F0266A0AEC6CF0205077
:10F4EE000001E46F010E026E000E78EC6CF0C70E98
:10F4FE00026E036AE4C004F025EC70F0C6EC6BF00B
:10F50E000009D8B48DEF7AF08FEF7AF085EF7AF0AC
:10F51E00C10E71EC6BF0C6EC6BF00009D8B49AEF2B
:10F52E007AF09CEF7AF092EF7AF00001D45171EC00
:10F53E006BF0C6EC6BF00009D8B4A8EF7AF0AAEF26
:10F54E007AF0A0EF7AF0C50E71EC6BF0C6EC6BF0B2
:10F55E000009D8B4B5EF7AF0B7EF7AF0ADEF7AF0E4
:10F56E000001E65171EC6BF072EF76F098EC6BF0F7
:10F57E00000E026E000E78EC6CF0890E026EFF0E1D
:10F58E00036E080E046E25EC70F0C60E206EFC0E97
:10F59E00216E8BEC6BF0160E206EFC0E216E8BEC3A
:10F5AE006BF006EC6FF00001E66F3B0E206EFB0E6B
:10F5BE00216E8BEC6BF006EC6FF00001DF6FE65105
:10F5CE00DF25D46FD56BD537DFC002F0E6515DEC89
:10F5DE006EF0C70E206EF00E216EFF0E226EE6C08C
:10F5EE0023F0246ADFC025F0266A0AEC6CF0205066
:10F5FE000001E46F010E026E000E78EC6CF0C70E87
:10F60E00026E036AE4C004F025EC70F0C6EC6BF0F9
:10F61E000009D8B415EF7BF017EF7BF00DEF7BF000
:10F62E00C10E71EC6BF0C6EC6BF00009D8B422EF92
:10F63E007BF024EF7BF01AEF7BF00001E65171ECCA
:10F64E006BF0C6EC6BF00009D8B430EF7BF032EF04
:10F65E007BF028EF7BF0C50E71EC6BF0C6EC6BF017
:10F66E000009D8B43DEF7BF03FEF7BF035EF7BF038
:10F67E000001D45171EC6BF072EF76F098EC6BF0F8
:10F68E00000E026E000E78EC6CF06E0E026EFF0E27
:10F69E00036E080E046E25EC70F0C60E206EFC0E86
:10F6AE00216E8BEC6BF009EC6BF0C6EC6BF0000985
:10F6BE00D8B464EF7BF066EF7BF05CEF7BF0C10EAD
:10F6CE0071EC6BF0C6EC6BF00009D8B471EF7BF007
:10F6DE0073EF7BF069EF7BF0000E71EC6BF0C6EC14
:10F6EE006BF00009D8B47EEF7BF080EF7BF076EF05
:10F6FE007BF0C50E71EC6BF0C6EC6BF00009D8B464
:10F70E008BEF7BF08DEF7BF083EF7BF0000E71ECD7
:10F71E006BF072EF76F098EC6BF0000E026E000E4E
:10F72E0078EC6CF0B60E026EFF0E036E080E046ED1
:10F73E0025EC70F023EC6DF002C0DDF003C0DEF0BE
:10F74E00C70E206EEA0E216EFF0E226EDDC023F074
:10F75E00DEC024F00AEC6CF020500001E46F010EC4
:10F76E00026E000E78EC6CF0C70E026E036AE4C0F7
:10F77E0004F025EC70F0B0EC72F072EF76F0D6512A
:10F78E00420AD8B4C1EF79F0040AD8B44DEF79F03B
:10F79E000A0AD8B435EF7AF01E0AD8B4BDEF7AF063
:10F7AE00010AD8B445EF7BF0300AD8B478EF76F082
:10F7BE00070AD8B440EF78F0090AD8B492EF7BF07C
:10F7CE001F0AD8B487EF77F0040AD8B40BEF79F09C
:10F7DE0072EF76F0CBAAF6EF7BF0F8EF7BF088EFC6
:10F7EE007DF0B0EC72F098EC6BF0000E026E000E35
:10F7FE0078EC6CF04A0E026EFF0E036E080E046E6D
:10F80E0025EC70F023EC6DF002C0DDF003C0DEF0ED
:10F81E00C70E206EEA0E216EFF0E226EDDC023F0A3
:10F82E00DEC024F00AEC6CF020500001E46F010EF3
:10F83E00026E000E78EC6CF0C70E026E036AE4C026
:10F84E0004F025EC70F03D0E446EE10E436E400E5A
:10F85E00E82EFED7432EFCD7442EFAD7000E026EAA
:10F86E00000E78EC6CF0D10E026EFF0E036E080ED9
:10F87E00046E25EC70F0F5EC6CF0010E026E000ECD
:10F88E0078EC6CF0650E026EFF0E036E080E046EC1
:10F89E0025EC70F0060E3BEC73F0100E436E940EDA
:10F8AE00E82EFED7432EFCD700D0400E016E900EF0
:10F8BE005BEC6BF00001D26BD36BE0EC73F00001EC
:10F8CE00C66F65EF7DF0C6EC6BF00009D8B472EF31
:10F8DE007CF074EF7CF06AEF7CF0BB0E71EC6BF099
:10F8EE00C6EC6BF00009D8B47FEF7CF081EF7CF0B2
:10F8FE0077EF7CF0140E71EC6BF0C6EC6BF0000938
:10F90E00D8B48CEF7CF08EEF7CF084EF7CF0010E9F
:10F91E0071EC6BF0C6EC6BF00009D8B499EF7CF08B
:10F92E009BEF7CF091EF7CF0140E71EC6BF0C6EC5B
:10F93E006BF00009D8B4A6EF7CF0A8EF7CF09EEF38
:10F94E007CF0030E71EC6BF0C6EC6BF00009D8B4D2
:10F95E00B3EF7CF0B5EF7CF0ABEF7CF0020E71EC08
:10F96E006BF061EF7CF0C6EC6BF00009D8B4C2EF1F
:10F97E007CF0C4EF7CF0BAEF7CF0BC0E71EC6BF057
:10F98E001E0E026E000ECDEC6EF00D0E446E2D0EA0
:10F99E00436ED80EE82EFED7432EFCD7442EFAD750
:10F9AE00010E0001D26F61EF7CF0C6EC6BF0000926
:10F9BE00D8B4E4EF7CF0E6EF7CF0DCEF7CF0BC0E2C
:10F9CE0071EC6BF01E0E026E000E5DEC6EF00D0E05
:10F9DE00446E2D0E436ED80EE82EFED7432EFCD766
:10F9EE00442EFAD7010E0001D36F61EF7CF0D205E1
:10F9FE00D8A404EF7DF006EF7DF025EF7DF0C6EC88
:10FA0E006BF00009D8B40EEF7DF010EF7DF006EF2D
:10FA1E007DF0BC0E71EC6BF01E0E026E000ECDEC86
:10FA2E006EF00D0E446E2D0E436ED80EE82EFED7E0
:10FA3E00432EFCD7442EFAD741EF7DF0D305D8A440
:10FA4E002BEF7DF02DEF7DF041EF7DF0C6EC6BF0EE
:10FA5E000009D8B435EF7DF037EF7DF02DEF7DF056
:10FA6E00BC0E71EC6BF01E0E026E000E5DEC6EF0B5
:10FA7E0018EF7DF00A0E446E220E436EA10EE82E94
:10FA8E00FED7432EFCD7442EFAD70000C6EC6BF0FF
:10FA9E000009D8B455EF7DF057EF7DF04DEF7DF0B6
:10FAAE00BC0E71EC6BF0140E86EC6DF0140EF1ECD6
:10FABE006DF0140E86EC6DF061EF7CF0C651000A0D
:10FACE00D8B4FEEF7CF0010AD8B4DCEF7CF0030A68
:10FADE00D8B4DCEF7CF0010AD8B4DCEF7CF0070A76
:10FAEE00D8B46AEF7CF00C0AD8B4BAEF7CF0180ADE
:10FAFE00D8B4BAEF7CF0080AD8B4BAEF7CF061EF54
:10FB0E007CF0FEEF7FF0000000000000000000001F
:10FB1E0000000000000000000000000000000000D7
:10FB2E00000000000000000000000000000920504E
:10FB3E006C6561736520656E7465722074686520EE
:10FB4E007475726E696E6720646966666572656E3D
:10FB5E007469616C3A207370656564202B2064694A
:10FB6E0066666572656E7469616C203C2031323751
:10FB7E00200D0A00202076200909202876296F6C96
:10FB8E0074616765202D205265616420616E64206A
:10FB9E00646973706C617920626174746572792026
:10FBAE00766F6C74616765200D0A00496E76616C24
:10FBBE00696420696E7075742E20506C6561736572
:10FBCE00207265646F206E756D65726963616C205D
:10FBDE00696E7075742E200D0A000920506C6561D7
:10FBEE00736520656E74657220746865206261634A
:10FBFE006B776172642073706565642C2030202DE4
:10FC0E0020313237200D0A000920506C6561736572
:10FC1E0020656E7465722074686520666F727761F8
:10FC2E0072642073706565642C2030202D20313273
:10FC3E0037200D0A00506C61636520616C6C206684
:10FC4E006976652073656E736F7273206F6E2061B7
:10FC5E002077686974652073757266616365200A22
:10FC6E000D00506C61636520616C6C206669766571
:10FC7E002073656E736F7273206F6E206120626CDD
:10FC8E0061636B2073757266616365200A0D0049AE
:10FC9E006E76616C696420656E7472792E202045D3
:10FCAE006E7465722073656E736F72206E756D6201
:10FCBE0065722C20302D34200A0D00202072200970
:10FCCE0009202872296561642063616C6962726122
:10FCDE007465642073656E736F7273200D0A002055
:10FCEE00204220090920576865656C7320726F7475
:10FCFE006174652028422961636B77617264200DFF
:10FD0E000A00202064200909202864296973706C78
:10FD1E0061792073656E736F7220782076616C75D1
:10FD2E0065200D0A002020462009092057686565C8
:10FD3E006C7320726F74617465202846296F727718
:10FD4E00617264200D0A00092A2020202020202024
:10FD5E002020202020202020202020202020202095
:10FD6E0020202020202A0D0A00092A2020202020D1
:10FD7E0020446961676E6F73746963204D656E759B
:10FD8E00202020202020202A0D0A00092A202020B1
:10FD9E00415053432031323939202D20506F6C6F32
:10FDAE006C75203370692020202A0D0A00092A2A3A
:10FDBE002A2A2A2A2A2A2A2A2A2A2A2A2A2A2A2A95
:10FDCE002A2A2A2A2A2A2A2A2A2A2A2A0D0A0020F6
:10FDDE00206320090920286329616C6962726174AD
:10FDEE00652073656E736F7273200D0A0057686914
:10FDFE0074652063616C6962726174696F6E2063F1
:10FE0E006F6D706C657465200A0D00426C61636BDA
:10FE1E002063616C6962726174696F6E20636F6DCD
:10FE2E00706C657465200A0D00436F6D6D616E64B4
:10FE3E00204B65792009204465736372697074697B
:10FE4E006F6E200D0A00507265737320616E7920FB
:10FE5E006B657920746F20636F6E74696E756520A3
:10FE6E000A0D0020206D2009092052656672657307
:10FE7E006820286D29656E75200D0A0043616C6936
:10FE8E0062726174696F6E20636F6D706C657465FC
:10FE9E00200A0D004261747465727920766F6C745D
:10FEAE00616765203D202575200A0D002020522017
:10FEBE0009092028522969676874207475726E20AA
:10FECE000D0A0020205320090920285329746F7031
:10FEDE00206D6F746F72200D0A0020204C200909CE
:10FEEE0020284C29656674207475726E200D0A00E8
:10FEFE0053656E736F72202575203D202575200A7F
:10FF0E000D0053656E736F722025643A2025750AB5
:10FF1E000053656E736F722E2025642025750A00BE
:10FF2E0043616C69627261746500202020474F2026
:10FF3E0020200020205345542020200020205275E0
:10FF4E006E202020002052454144592020002020C0
:10FF5E00526561642020002020646F6E65202000B1
:10FF6E00202053746F7020200020202575207320D0
:10FF7E00200020204C65667420200020526967689E
:10FF8E0074202000466F7277617264200053656E94
:10FF9E00736F72732000426174746572792000422F
:10FFAE0061636B7761726400446961676E6F73653C
:10FFBE0000436F6D706C65746500436F756E746988
:10FFCE006E67004175746F2043616C0053656E73EC
:10FFDE006F72200053656E736F7273002575206DFE
:10FFEE005600257520257500202575200000A6EFEA
:02FFFE006BF0A6
:020000040030CA
:0A000000ECFEF7FF9FFFFFFFFFFF7C
:00000001FF
