:04000000FEEF7FF0A0
:10D35800120012001200120012001200B88E120001
:10D36800B89E1200000EF9EC6CF01200026E02502A
:10D3780030EC6AF0120001C0FBF002C0FCF01200B1
:10D3880001C05EF002C05FF0120001C05CF002C094
:10D398005DF0120001C0F5F002C0F6F0120001C005
:10D3A800F9F002C0FAF0120001C0F7F002C0F8F07C
:10D3B8001200FEFFFFFF0000010002001050B76ED0
:10D3C80060003FF0B6FF1200F8EC69F0E4EC6FF093
:10D3D800EFEC69F01200600E3901D96FDB6BDD6B81
:10D3E800070EDF6FDE6B12003901C06BC16BC26BB9
:10D3F800C36BC46BC56BC66BC76B12003901A3B78F
:10D4080008EF6AF00BEF6AF0010E0CEF6AF0000EFD
:10D418001200026E60000BF0B8FF600007F0B9FF61
:10D42800B89E3901A39F12003901A6B51EEF6AF014
:10D4380021EF6AF0010E22EF6AF0000E1200016E71
:10D448003901A3A92AEF6AF02CEF6AF024EF6AF0F9
:10D45800600007F0EAFD1200016E3901A6A737EF58
:10D468006AF039EF6AF031EF6AF0600007F0D2FD38
:10D478001200220E266E000E1A6E20C01BF021C06C
:10D488001CF0260E1D6E9BEC6BF0120077EC6AF018
:10D498000009D8B452EF6AF054EF6AF04AEF6AF024
:10D4A800B70E23EC6AF0120077EC6AF00009D8B4E2
:10D4B80060EF6AF062EF6AF058EF6AF0BC0E23EC96
:10D4C8006AF012006F00D8FE07F06F00DCFE08F06B
:10D4D8000850036E0750056E03C006F005C001F042
:10D4E80006C002F01200016A3901A3A97EEF6AF0B2
:10D4F80080EF6AF08AEF6AF03D01F2AB86EF6AF0DE
:10D5080088EF6AF08AEF6AF0010E016E015012008E
:10D51800016A3901A6A793EF6AF095EF6AF09FEFC9
:10D528006AF03D01DAAB9BEF6AF09DEF6AF09FEF7E
:10D538006AF0010E016E0150120008BEA6EF6AF0F3
:10D54800A8EF6AF0AEEF6AF007C007F008C008F06D
:10D55800BAEF6AF007C009F008C00AF0091E0A1EEF
:10D56800094A0A2A09C007F00AC008F01200BA0ED0
:10D57800F66ED30EF76E000EF86E00EEEBF010EEBE
:10D588000AF009006F00D7FFEEFFE550E150F9E11E
:10D5980000EE60F0580EEE6AE806FDE100EE47F096
:10D5A800150EEE6AE806FDE1000114EF77F0230E90
:10D5B800296E20C02AF02D6A000E2C6E346A000EE7
:10D5C800336E2A0E1A6E21C01BF022C01CF0290EE1
:10D5D8001D6E9BEC6BF01AC027F01BC028F0205082
:10D5E8002C24D96EDA6ADF6A27C020F028C021F01F
:10D5F80012003D01D46BD66BD86BB00EDA6F800E7B
:10D60800DB6FDC6BE10EDD6F040EDE6FDF6BE06B52
:10D61800E16BE26B600E016ED30E026ED3EC69F023
:10D62800620E016ED30E026ED8EC69F05E0E016ECA
:10D63800D30E026ECEEC69F05A6A12003D01EC6B13
:10D64800ED6BEE6BEF6BF06BF16BB00EF26F800E63
:10D65800F36FF46B670EF56FF66BF76BF86BF96B9E
:10D66800FA6B5A0E016ED30E026EC4EC69F05C0EB2
:10D67800016ED30E026EC9EC69F0580E016ED30E1E
:10D68800026EBFEC69F05B6A1200036E77EC6AF019
:10D698000009D8B452EF6BF054EF6BF04AEF6BF01F
:10D6A800B90E23EC6AF077EC6AF00009D8B45FEFA2
:10D6B8006BF061EF6BF057EF6BF0035023EC6AF0FF
:10D6C80077EC6AF00009D8B46CEF6BF06EEF6BF092
:10D6D80064EF6BF0025023EC6AF01200026E77ECF4
:10D6E8006AF00009D8B47BEF6BF07DEF6BF073EF55
:10D6F8006BF0B80E23EC6AF077EC6AF00009D8B446
:10D7080088EF6BF08AEF6BF080EF6BF0010E23EC83
:10D718006AF077EC6AF00009D8B495EF6BF097EFF0
:10D728006BF08DEF6BF0025023EC6AF012001BC017
:10D738001EF01CC01FF0526A000E516EB0EF6BF065
:10D748001AC00BF01E0E0C6E1DC00DF079EC75F0B2
:10D758000B5051260C50522260007BF0F6FF6000FF
:10D768007FF0F7FFF86A0800F5500009D8A4BFEF6A
:10D778006BF0C1EF6BF0A4EF6BF051C01AF052C020
:10D788001BF0120077EC6AF00009D8B4CEEF6BF00A
:10D79800D0EF6BF0C6EF6BF0BA0E23EC6AF002EC38
:10D7A8006AF00009D8B4DBEF6BF0DDEF6BF0D3EF74
:10D7B8006BF0E9EF6BF002EC6AF00009D8B4E7EF20
:10D7C8006BF0E9EF6BF0DFEF6BF05FEC6EF0630A84
:10D7D800D8A4F1EF6BF0F3EF6BF0DFEF6BF0120012
:10D7E80077EC6AF00009D8B4FCEF6BF0FEEF6BF051
:10D7F800F4EF6BF0B10E23EC6AF002EC6AF000096A
:10D80800D8B409EF6CF00BEF6CF001EF6CF05FEC43
:10D818006EF0066E02EC6AF00009D8B416EF6CF0F0
:10D8280018EF6CF00EEF6CF05FEC6EF0076E0750BF
:10D83800056E046A06500424026E000E0520036E6D
:10D84800120003500410D8B42CEF6CF02EEF6CF0DB
:10D8580052EF6CF0010E056E36EF6CF0D89003367F
:10D868000436052A04AE3BEF6CF03DEF6CF032EF66
:10D878006CF00350015C04500258D8A046EF6CF0DD
:10D8880048EF6CF04CEF6CF00350015E0450025A04
:10D89800D89004320332052E3DEF6CF001C001F040
:10D8A80002C002F01200026E77EC6AF00009D8B4E8
:10D8B80060EF6CF062EF6CF058EF6CF0C20E23EC86
:10D8C8006AF077EC6AF00009D8B46DEF6CF06FEF8E
:10D8D8006CF065EF6CF0025023EC6AF077EC6AF0BC
:10D8E8000009D8B47AEF6CF07CEF6CF072EF6CF052
:10D8F800C60E23EC6AF077EC6AF00009D8B487EF1B
:10D908006CF089EF6CF07FEF6CF0022823EC6AF082
:10D918001200036E77EC6AF00009D8B496EF6CF049
:10D9280098EF6CF08EEF6CF0C50E23EC6AF077EC94
:10D938006AF00009D8B4A3EF6CF0A5EF6CF09BEF88
:10D948006CF0035023EC6AF077EC6AF00009D8B465
:10D95800B0EF6CF0B2EF6CF0A8EF6CF0C20E23ECF5
:10D968006AF077EC6AF00009D8B4BDEF6CF0BFEF4D
:10D978006CF0B5EF6CF0032823EC6AF01200036E2C
:10D9880077EC6AF00009D8B4CCEF6CF0CEEF6CF00D
:10D99800C4EF6CF0C10E23EC6AF077EC6AF0000972
:10D9A800D8B4D9EF6CF0DBEF6CF0D1EF6CF003502A
:10D9B80023EC6AF077EC6AF00009D8B4E6EF6CF073
:10D9C800E8EF6CF0DEEF6CF0C60E23EC6AF077EC53
:10D9D8006AF00009D8B4F3EF6CF0F5EF6CF0EBEFF8
:10D9E8006CF0032823EC6AF01200026E77EC6AF000
:10D9F8000009D8B402EF6DF004EF6DF0FAEF6CF0A7
:10DA0800C10E23EC6AF077EC6AF00009D8B40FEF86
:10DA18006DF011EF6DF007EF6DF0025023EC6AF036
:10DA280077EC6AF00009D8B41CEF6DF01EEF6DF0CA
:10DA380014EF6DF0C50E23EC6AF077EC6AF000097C
:10DA4800D8B429EF6DF02BEF6DF021EF6DF00228BF
:10DA580023EC6AF01200036E77EC6AF00009D8B480
:10DA680038EF6DF03AEF6DF030EF6DF0C10E23EC4A
:10DA78006AF077EC6AF00009D8B445EF6DF047EF2B
:10DA88006DF03DEF6DF00350022423EC6AF077EC63
:10DA98006AF00009D8B453EF6DF055EF6DF04BEF15
:10DAA8006DF0C50E23EC6AF077EC6AF00009D8B483
:10DAB80060EF6DF062EF6DF058EF6DF0032823EC26
:10DAC8006AF01200066A000E056E03500410D8B4FE
:10DAD80070EF6DF072EF6DF09AEF6DF0010E076E5A
:10DAE8007AEF6DF0D89003360436072A04AE7FEF3C
:10DAF8006DF081EF6DF076EF6DF0D8900536063653
:10DB08000350015C04500258D8A08DEF6DF08FEFE0
:10DB18006DF094EF6DF00350015E0450025A0580D9
:10DB2800D89004320332072E81EF6DF005C001F062
:10DB380006C002F01200046E77EC6AF00009D8B44F
:10DB4800A8EF6DF0AAEF6DF0A0EF6DF0C10E23EC19
:10DB58006AF077EC6AF00009D8B4B5EF6DF0B7EF6A
:10DB68006DF0ADEF6DF0045023EC6AF077EC6AF0DD
:10DB78000009D8B4C2EF6DF0C4EF6DF0BAEF6DF0E4
:10DB8800C50E23EC6AF077EC6AF00009D8B4CFEF41
:10DB98006DF0D1EF6DF0C7EF6DF004500224036E05
:10DBA800032823EC6AF012002868276A10EF6EF049
:10DBB8001BEC6EF0286E0D0E2818D8A4E6EF6DF059
:10DBC800E8EF6DF0EAEF6DF010EF6EF02F0E2864BD
:10DBD800F0EF6DF0F2EF6DF0FAEF6DF0390E2864AA
:10DBE800F8EF6DF0FAEF6DF00AEF6EF0C20E206EEE
:10DBF800FC0E216E3DEC6AF0B50E206EFB0E216E18
:10DC08003DEC6AF0276A286810EF6EF027500A0D7D
:10DC1800F3502824D00F276E0D0E2818D8A417EF1C
:10DC28006EF019EF6EF0DCEF6DF02750120002680D
:10DC380044EF6EF018EC6AF00009D8B426EF6EF0E5
:10DC480028EF6EF044EF6EF0AAEC6EF0026E8CECEA
:10DC58006AF00009D8B433EF6EF035EF6EF044EF98
:10DC68006EF0025030EC6AF00D0E0218D8A43FEFA7
:10DC78006EF041EF6EF044EF6EF00A0E30EC6AF091
:10DC88002F0E02644AEF6EF04CEF6EF054EF6EF018
:10DC98007A0E026452EF6EF054EF6EF05DEF6EF0A4
:10DCA8000D0E0218D8A45BEF6EF05DEF6EF01EEF5C
:10DCB8006EF0025012003901A3A765EF6EF067EF0E
:10DCC8006EF05FEF6EF05B6A3D01F9A76EEF6EF0E4
:10DCD80070EF6EF07DEF6EF05B8202D87DEF6EF034
:10DCE8000500FA6E5E50FD6E5F50FE6EFF6AFA50D8
:10DCF80012003D01F9A383EF6EF085EF6EF092EF0D
:10DD08006EF05B8402D892EF6EF00500FA6E5C50FC
:10DD1800FD6E5D50FE6EFF6AFA5012005B50D8B47B
:10DD280098EF6EF09AEF6EF0A7EF6EF002D8A7EFBB
:10DD38006EF00500FA6E0001FB51FD6EFC51FE6E9F
:10DD4800FF6AFA5012003D01E85112003901A6A5F8
:10DD5800B0EF6EF0B2EF6EF0AAEF6EF05A6A3D01C6
:10DD6800E1A7B9EF6EF0BBEF6EF0C9EF6EF05A8223
:10DD780002D8C9EF6EF00500FA6E0001F951FD6E88
:10DD8800FA51FE6EFF6AFA5012003D01E1A3CFEF8F
:10DD98006EF0D1EF6EF0DFEF6EF05A8402D8DFEF4D
:10DDA8006EF00500FA6E0001F751FD6EF851FE6E37
:10DDB800FF6AFA5012005A50D8B4E5EF6EF0E7EF58
:10DDC8006EF0F4EF6EF002D8F4EF6EF00500FA6E24
:10DDD8000001F551FD6EF651FE6EFF6AFA50120011
:10DDE8003D01D0511200076A77EC6AF00009D8B4F7
:10DDF80000EF6FF002EF6FF0F8EF6EF0B80E23EC63
:10DE08006AF077EC6AF00009D8B40DEF6FF00FEF05
:10DE18006FF005EF6FF0045023EC6AF03CEF6FF001
:10DE280077EC6AF00009D8B41CEF6FF01EEF6FF0C2
:10DE38003CEF6FF007500224056E000E0320066EBB
:10DE4800600017F0F6FF60001BF0F7FF000EF86E99
:10DE58000F0EF76403D00800F55007D06F00DBFF02
:10DE6800E9FF6F00DFFFEAFFEF5023EC6AF0072AB3
:10DE78000450075CD8A043EF6FF045EF6FF014EF44
:10DE88006FF0120077EC6AF00009D8B44EEF6FF02B
:10DE980050EF6FF046EF6FF0BB0E23EC6AF077ECB3
:10DEA8006AF00009D8B45BEF6FF05DEF6FF053EFE5
:10DEB8006FF0140E23EC6AF077EC6AF00009D8B41E
:10DEC80068EF6FF06AEF6FF060EF6FF0010E23EC10
:10DED8006AF077EC6AF00009D8B475EF6FF077EF65
:10DEE8006FF06DEF6FF0140E23EC6AF077EC6AF0C8
:10DEF8000009D8B482EF6FF084EF6FF07AEF6FF01B
:10DF0800030E23EC6AF077EC6AF00009D8B48FEFBF
:10DF18006FF091EF6FF087EF6FF0020E23EC6AF06D
:10DF28001200156EB4EC69F0470E016E900E0DEC00
:10DF38006AF01550056E066A076A086A670E016E70
:10DF4800000E026E0F0E036E000E046E5FEC72F090
:10DF580001C011F002C012F003C013F004C014F0A5
:10DF680011C001F012C002F013C003F014C004F095
:10DF7800080E056E000E066E000E076E000E086E87
:10DF88005FEC72F0015000080F6E0250D8A0E82A2A
:10DF98000008106EE2EC69F03901A39FB2EC69F059
:10DFA8001550F9EC6CF03901A3AFDDEF6FF0DFEF3E
:10DFB8006FF0D7EF6FF0B6EC69F0B4EC69F01200CF
:10DFC800BE6ABD6ABA6ABB6ABC6A070EC66EC26818
:10DFD800BF0EC36E840EC46EC5683A01706B606B69
:10DFE8002F0E506F070E806FEF0E406F716B816BB5
:10DFF800516B416B616B5A6B5B6B6A6B6B6B7A6BCA
:10E008007B6B826B426B526B180E626F726B43694B
:10E01800536963697369070E836F44695469646956
:10E0280074690F0E846F0F0EE86F250E106F160EB1
:10E038000E6F210E136F0F0E116F220E146F170E35
:10E04800E56F040EC36F130EE16F0C0EDD6F140E37
:10E05800E26F120ECA6F0D0E156F130E166F1200B7
:10E0680058EC6AF0140EF9EC6CF0160E176E4F0EA1
:10E07800166E7B0EE82EFED7162EFCD7172EFAD773
:10E088000000B6EC69F06FEC73F0B90E145C0B0E7F
:10E098001558D8A052EF70F054EF70F068EF70F098
:10E0A8001E0E026E1E0EC3EC6CF06FEC73F00001D6
:10E0B800A951D8B462EF70F064EF70F059EF70F0C6
:10E0C800B6EC69F085EF70F0B80E145C0B0E1558BD
:10E0D800D8B071EF70F073EF70F085EF70F01E0E2E
:10E0E800026E1E0E8DEC6CF06FEC73F00001A951FE
:10E0F800D8B481EF70F083EF70F078EF70F064EFD0
:10E1080070F046EC6FF012000550D8B48EEF70F046
:10E1180090EF70F098EF70F00550D8A496EF70F07B
:10E1280098EF70F09DEF70F00350BAEC69F0DDEFF6
:10E1380070F00550D96EDA6A090ED926DE50DE1065
:10E14800D8B4A9EF70F0ABEF70F0C4EF70F00550E1
:10E15800D96EDA6A090ED9260550E16EE26A020E16
:10E16800E126DE50E65CE650800A0A6EDE50800A40
:10E178000A58D8B0C2EF70F0C4EF70F0DDEF70F05D
:10E188000550D96EDA6A020ED926DF50066E0550A0
:10E19800D96EDA6ADF500624D96EDA6A60000FF0A9
:10E1A800DFFF0550D96EDA6A020ED926DE2A000E84
:10E1B800DD221200066A02BEE6EF70F0E4EF70F0AE
:10E1C800ECEF70F0016C021ED8B0022A010E066E48
:10E1D80004BEF3EF70F0F1EF70F0F7EF70F0036C3E
:10E1E800041ED8B0042A03500410D8B4FEEF70F00F
:10E1F80000EF71F024EF71F0010E056E08EF71F079
:10E20800D89003360436052A04AE0DEF71F00FEFEF
:10E2180071F004EF71F00350015C04500258D8A06B
:10E2280018EF71F01AEF71F01EEF71F00350015EF4
:10E238000450025AD89004320332052E0FEF71F0C1
:10E248000650D8B42AEF71F02CEF71F030EF71F06E
:10E25800016C021ED8B0022A01C001F002C002F00F
:10E26800120077EC6AF00009D8B43DEF71F03FEF87
:10E2780071F035EF71F0B40E23EC6AF0126A02EC1B
:10E288006AF00009D8B44BEF71F04DEF71F043EF2D
:10E2980071F01250080FD96EDA6A5FEC6EF0DF6E1B
:10E2A80002EC6AF00009D8B45CEF71F05EEF71F02F
:10E2B80054EF71F012500D0FD96EDA6A5FEC6EF000
:10E2C800DF6E12500D0FD96EDA6ADF50046E0450FB
:10E2D800066E056A1250080FD96EDA6ADF50076EAB
:10E2E80007500526000E06221250020DF350AE0FFD
:10E2F800D96EDA6A600017F0DEFF60001BF0DDFF00
:10E30800122A040E12648BEF71F08DEF71F043EF57
:10E3180071F0AE0E1200066A04BE97EF71F095EF29
:10E3280071F09DEF71F0036C041ED8B0042A010E41
:10E33800066E02BEA4EF71F0A2EF71F0AAEF71F0C1
:10E34800016C021ED8B0022A010E061A086A000ED5
:10E35800076E03500410D8B4B4EF71F0B6EF71F043
:10E36800DEEF71F0010E056EBEEF71F0D890033646
:10E378000436052A04AEC3EF71F0C5EF71F0BAEFA9
:10E3880071F0D890073608360350015C04500258E3
:10E39800D8A0D1EF71F0D3EF71F0D8EF71F003503E
:10E3A800015E0450025A0780D89004320332052EC9
:10E3B800C5EF71F00650D8B4E4EF71F0E6EF71F0F4
:10E3C800EAEF71F0076C081ED8B0082A07C001F000
:10E3D80008C002F0120058EC6AF0196A000E186EB4
:10E3E800140E95EC6FF06FEC73F00001A905D8A43A
:10E3F80000EF72F002EF72F006EF72F046EC6FF089
:10E408005EEF72F0184A192A19BE14EF72F019500B
:10E4180009E1080E185CD8A014EF72F016EF72F03C
:10E42800F4EF71F05A0E026E5A0E8DEC6CF0070E76
:10E43800176E170E166E6A0EE82EFED7162EFCD72C
:10E44800172EFAD700D0B6EC69F05A0E026E5A0EA3
:10E45800C3EC6CF00D0E176E2D0E166ED80EE82E4E
:10E46800FED7162EFCD7172EFAD7B6EC69F01B6A22
:10E47800000E1A6E140E95EC6FF06FEC73F000013D
:10E48800A905D8A44AEF72F04CEF72F04EEF72F083
:10E4980002EF72F01A4A1B2A1BBE5CEF72F01B5087
:10E4A80009E1080E1A5CD8A05CEF72F05EEF72F01A
:10E4B8003EEF72F012000A6A08BE67EF72F065EF6D
:10E4C80072F071EF72F0081E071E061E056C000E32
:10E4D800062207220822010E0A6E04BE78EF72F0A7
:10E4E80076EF72F082EF72F0041E031E021E016CBA
:10E4F800000E022203220422010E0A1A000E0B6EDD
:10E50800000E0C6E000E0D6E000E0E6E05500610FD
:10E5180007100810D8B493EF72F095EF72F0CBEFB4
:10E5280072F0010E096E9FEF72F0D890053606362C
:10E5380007360836092A08AEA4EF72F0A6EF72F083
:10E5480099EF72F0D8900B360C360D360E36055012
:10E55800015C065002580750035808500458D8A0C8
:10E56800B8EF72F0BAEF72F0C3EF72F00550015EC7
:10E578000650025A0750035A0850045A0B80D89084
:10E588000832073206320532092EA6EF72F00A5019
:10E59800D8B4D1EF72F0D3EF72F0DBEF72F00E1E49
:10E5A8000D1E0C1E0B6C000E0C220D220E220BC031
:10E5B80001F00CC002F00DC003F00EC004F0120010
:10E5C800E10E206EFB0E216E3DEC6AF0B70E206E58
:10E5D800FD0E216E3DEC6AF0510E206EFD0E216E8F
:10E5E8003DEC6AF0950E206EFD0E216E3DEC6AF052
:10E5F800730E206EFD0E216E3DEC6AF0510E206EFA
:10E60800FD0E216E3DEC6AF0B70E206EFD0E216EF8
:10E618003DEC6AF0C20E206EFC0E216E3DEC6AF0F5
:10E62800330E206EFE0E216E3DEC6AF0D90E206E80
:10E63800FD0E216E3DEC6AF0C50E206EFC0E216EBB
:10E648003DEC6AF00C0E206EFD0E216E3DEC6AF07A
:10E65800E10E206EFB0E216E3DEC6AF07E0E206E00
:10E66800FB0E216E3DEC6AF0E10E206EFB0E216E72
:10E678003DEC6AF02F0E206EFD0E216E3DEC6AF027
:10E68800E90E206EFC0E216E3DEC6AF0E40E206E61
:10E69800FE0E216E3DEC6AF0B60E206EFE0E216E67
:10E6A8003DEC6AF0CD0E206EFE0E216E3DEC6AF058
:10E6B800E10E206EFB0E216E3DEC6AF06D0E206EB1
:10E6C800FE0E216E3DEC6AF0C20E206EFC0E216E2D
:10E6D8003DEC6AF0120077EC6AF00009D8B477EFE5
:10E6E80073F079EF73F06FEF73F0870E23EC6AF035
:10E6F800136A000E126E02EC6AF00009D8B487EFB4
:10E7080073F089EF73F07FEF73F01250060FD96E34
:10E71800DA6A5FEC6EF0DF6E02EC6AF00009D8B4DA
:10E7280098EF73F09AEF73F090EF73F012500B0FAD
:10E73800D96EDA6A5FEC6EF0DF6E12500B0FD96E8D
:10E74800DA6ADF50026E0250046E036A1250060F36
:10E75800D96EDA6ADF50056E05500326000E0422D2
:10E768001250020DF350470FD96EDA6A60000FF0AD
:10E77800DEFF600013F0DDFF124A132A13BECEEF4E
:10E7880073F0135009E1050E125CD8A0CEEF73F0B8
:10E79800D0EF73F07FEF73F0116A000E106E105017
:10E7A800020DF350470FD96EDA6A5E0EDE5C010E79
:10E7B800DE58D8A0E2EF73F0E4EF73F0ECEF73F0FB
:10E7C8001050A70FD96EDA6A010EDF6EF1EF73F001
:10E7D8001050A70FD96EDA6ADF6A104A112A11BEE3
:10E7E800FFEF73F0115009E1050E105CD8A0FFEFA0
:10E7F80073F001EF74F0D3EF73F01200406E40C075
:10E8080042F04AEC6AF0C40E026EFF0E036E080E68
:10E81800046EF7EC6EF0480E016E900E0DEC6AF087
:10E82800B2EC69F0010E026E000E49EC6BF0350E89
:10E83800206E730E216EFF0E226E42C023F0246AF2
:10E84800DBEC6AF02050416E350E026E036A41C05F
:10E8580004F0F7EC6EF09CEF74F066EC6AF001C01F
:10E868003EF002C03FF01B0E3E5CB70E3F58D8A0EA
:10E8780040EF74F042EF74F09CEF74F04206106AB7
:10E88800000E0F6EE2EC69F08DEF74F04AEC6AF05E
:10E89800010E026E000E49EC6BF0340E026EFF0E94
:10E8A800036E080E046EF7EC6EF09CEF74F0010E28
:10E8B800026E000E49EC6BF03D0E026EFF0E036E09
:10E8C800080E046EF7EC6EF09CEF74F0010E026E09
:10E8D800000E49EC6BF04F0E026EFF0E036E080E31
:10E8E800046EF7EC6EF09CEF74F0010E026E000EF1
:10E8F80049EC6BF0350E206E730E216EFF0E226E02
:10E9080042C023F0246ADBEC6AF02050416E28EF05
:10E9180074F04250000AD8B44AEF74F0010AD8B42F
:10E928005BEF74F0030AD8B46AEF74F079EF74F00F
:10E938004250D8A4A2EF74F0A4EF74F031EF74F051
:10E94800B4EC69F012000B0E1F6EB80E1E6E20EEAE
:10E95800EBF010EE0AF0090E6F006FFFE3FFE80618
:10E96800FBE277EC6AF00009D8B4BDEF74F0BFEFB2
:10E9780074F0B5EF74F0870E23EC6AF0216A000E8C
:10E98800206E02EC6AF00009D8B4CDEF74F0CFEF36
:10E9980074F0C5EF74F02050140FD96EDA6A5FEC8A
:10E9A8006EF0DF6E02EC6AF00009D8B4DEEF74F0A6
:10E9B800E0EF74F0D6EF74F02050190FD96EDA6AD0
:10E9C8005FEC6EF0DF6E2050190FD96EDA6ADF50F7
:10E9D800046E0450066E056A2050140FD96EDA6A68
:10E9E800DF50076E07500526000E06222050020D44
:10E9F800F350470FD96EDA6A600017F0DEFF600047
:10EA08001BF0DDFF204A212A21BE14EF75F02150AA
:10EA180009E1050E205CD8A014EF75F016EF75F02B
:10EA2800C5EF74F0236A000E226E2250020DF350D7
:10EA3800470FD96EDA6A6F0078FF04F06F0074FF31
:10EA480005F02250020DF3500A0FD96EDA6A6F00F2
:10EA580078FF06F06F0074FF07F0045006026F009D
:10EA6800CCFF08F06F00D0FF09F00702F350092629
:10EA780005500602F35009261E5008241E6E1F502A
:10EA880009201F6E2250020DF350470FD96EDA6A23
:10EA98005E0EDE5C010EDE58D8A055EF75F057EF1C
:10EAA80075F05FEF75F02250A70FD96EDA6A010E84
:10EAB800DF6E64EF75F02250A70FD96EDA6ADF6A4D
:10EAC800224A232A23BE72EF75F0235009E1050E6E
:10EAD800225CD8A072EF75F074EF75F019EF75F03D
:10EAE8001EC002F01FC003F01200126A000E116E61
:10EAF8000C50D96EDA6A6F007BFFF6FF6F0077FF64
:10EB0800F7FFF86A0800F550250AD8A48EEF75F0CB
:10EB180090EF75F0F8EF76F00C50D96EDA6ADE2ACD
:10EB2800000EDD22546A000E536E53C059F055682A
:10EB380056680C50D96EDA6A6F0078FF13F06F00D0
:10EB480074FF14F060004FF0F6FF600053F0F7FF19
:10EB5800F86A0800F550640AD8B4B5EF75F0B7EF55
:10EB680075F0C8EF75F060004FF0F6FF600053F0E5
:10EB7800F7FFF86A0800F550690AD8A4C6EF75F0DF
:10EB8800C8EF75F060EF76F00D50D96EDA6A020EB4
:10EB9800DF26DF5CD96EDA6A6F0078FF15F06F0048
:10EBA80078FF16F0010E13240E6E000E14200F6E5F
:10EBB8000C50D96EDA6A60003BF0DEFF60003FF06F
:10EBC800DDFF200E196E16BEECEF75F0EFEF75F055
:10EBD800010EF0EF75F0000E106E19061950600F57
:10EBE800D96EDA6A15C001F016C002F0046A0A0E7E
:10EBF800036EDEEC70F001C007F002C008F0A1EC73
:10EC08006AF00750300FDF6E15C001F016C002F031
:10EC1800046A0A0E036E8FEC71F001C015F002C091
:10EC280016F0114A122A15501610D8B41EEF76F0B5
:10EC380020EF76F028EF76F01950D8A426EF76F07A
:10EC480028EF76F0F1EF75F01950D8B42EEF76F082
:10EC580030EF76F051EF76F01050D8B436EF76F00A
:10EC680038EF76F051EF76F019061950600FD96E2B
:10EC7800DA6A2D0EDF6E114A122A51EF76F019501A
:10EC8800600FD96EDA6ADF500E6E0E50036E046A9A
:10EC98000BC005F088EC70F0192A200E1918D8A4BA
:10ECA80058EF76F05AEF76F043EF76F011C00BF09C
:10ECB80012C00CF013EF77F060004FF0F6FF600021
:10ECC80053F0F7FFF86A0800F550750AD8A46FEFFB
:10ECD80076F071EF76F0EDEF76F00D50D96EDA6AD6
:10ECE800020EDF26DF5CD96EDA6A6F0078FF15F056
:10ECF8006F0078FF16F0010E13240E6E000E14201C
:10ED08000F6E0C50D96EDA6A60003BF0DEFF6000CF
:10ED18003FF0DDFFDEEF76F0200E196E1906195070
:10ED2800600FD96EDA6A15C001F016C002F0046AE5
:10ED38000A0E036E25EC6CF00150300FDF6E15C023
:10ED480001F016C002F0046A0A0E036E66EC6DF05C
:10ED580001C015F002C016F0114A122A15501610FB
:10ED6800D8B4B9EF76F0BBEF76F0D3EF76F0195060
:10ED7800D8A4C1EF76F0C3EF76F092EF76F0D3EF38
:10ED880076F01950600FD96EDA6ADF500E6E0E50A9
:10ED9800036E046A0BC005F088EC70F0192A200E87
:10EDA8001918D8A4DAEF76F0DCEF76F0C5EF76F034
:10EDB8005AEF76F060004FF0F6FF600053F0F7FF6F
:10EDC800F86A0800F550750AD8B490EF76F0EDEFC0
:10EDD80076F00C50D96EDA6ADE2A000EDD220C6A53
:10EDE800000E0B6E13EF77F00C50D96EDA6A6F00D5
:10EDF8007BFFF6FF6F0077FFF7FFF86A0800F55012
:10EE0800036E046A0BC005F088EC70F00C50D96EE4
:10EE1800DA6ADE2A000EDD220C6A010E0B6E120081
:10EE2800E8EC69F0E4EC6FF022EC6BF0FDEC6AF0D2
:10EE3800C38A3A01509BCBBA24EF77F026EF77F0DC
:10EE4800D7EF7CF0E4EC72F04AEC6AF0000E026E48
:10EE5800000E49EC6BF0B20E026EFF0E036E080E48
:10EE6800046EF7EC6EF0F4EC6BF002C0E1F003C056
:10EE7800E2F0CD0E206EE60E216EFF0E226EE1C08E
:10EE880023F0E2C024F0DBEC6AF020500001E86FC8
:10EE9800010E026E000E49EC6BF0CD0E026E036A95
:10EEA800E8C004F0F7EC6EF01BEC6EF00001DA6FCE
:10EEB800ACEF7CF04AEC6AF0000E026E000E49ECF2
:10EEC8006BF02A0E026EFF0E036E080E046EF7EC4E
:10EED8006EF0010E026E000E49EC6BF0970E026E9A
:10EEE800FF0E036E080E046EF7EC6EF0C20E206E75
:10EEF800FC0E216E3DEC6AF00001D66BE2EF77F074
:10EF08003F0E206EFC0E216E3DEC6AF0500E206E16
:10EF1800FE0E216E3DEC6AF01BEC6EF00001B86F3E
:10EF280035EC71F00001DE6FE06B000EDF6FE96B0E
:10EF3800040EE965A2EF77F0A4EF77F0A6EF77F07B
:10EF4800D1EF77F0E951020DDE51F324D96EDA6A78
:10EF58006F0078FF43F06F0074FF44F0DF514324E3
:10EF6800DF6FE0514420E06FFA0E206EFE0E216E36
:10EF7800E9C022F0236AE951020DDE51F324D96E6B
:10EF8800DA6A6F0078FF24F06F0074FF25F03DEC1B
:10EF98006AF00001E92B9CEF77F0DF51E011D8A46B
:10EFA800D8EF77F0DAEF77F0E2EF77F0010ED66F6F
:10EFB800F70E206EFD0E216E3DEC6AF00001D65171
:10EFC800D8B4E9EF77F0EBEF77F084EF77F0D76B11
:10EFD80062EF78F06C0E206EFC0E216E3DEC6AF04C
:10EFE800500E206EFE0E216E3DEC6AF01BEC6EF0AA
:10EFF8000001B86F35EC71F00001DE6FE06B000EB8
:10F00800DF6FE96B040EE9650CEF78F00EEF78F02E
:10F0180010EF78F03BEF78F0E951020DDE51F32460
:10F02800D96EDA6A6F0078FF43F06F0074FF44F01E
:10F03800DF514324DF6FE0514420E06FFA0E206E69
:10F04800FE0E216EE9C022F0236AE951020DDE515D
:10F05800F324D96EDA6A6F0078FF24F06F0074FF2A
:10F0680025F03DEC6AF00001E92B06EF78F0880EF8
:10F07800DF1907E1130EE019D8A445EF78F047EF40
:10F0880078F062EF78F0010ED76F150E206EFE0E45
:10F09800216E3DEC6AF0860E206EFE0E216E3DEC70
:10F0A8006AF0010E026E000E49EC6BF0BB0E026EA8
:10F0B800FF0E036E080E046EF7EC6EF00001D751D8
:10F0C800D8B469EF78F06BEF78F0EEEF77F058EF9F
:10F0D80077F04AEC6AF0000E026E000E49EC6BF015
:10F0E800580E026EFF0E036E080E046EF7EC6EF0FB
:10F0F800010E026E000E49EC6BF0DE0E026EFF0E82
:10F10800036E080E046EF7EC6EF0C20E206EFC0E55
:10F11800216E3DEC6AF077EC6AF00009D8B497EFFD
:10F1280078F099EF78F08FEF78F0870E23EC6AF09B
:10F138000001E56B000EE46FE5BFACEF78F0E55138
:10F1480009E1050EE45DD8A0ACEF78F0AEEF78F0F9
:10F15800B0EF78F0F8EF78F002EC6AF00009D8B474
:10F16800B8EF78F0BAEF78F0B0EF78F00001E4513A
:10F17800C30FD96EDA6A5FEC6EF0DF6E02EC6AF0EC
:10F188000009D8B4CAEF78F0CCEF78F0C2EF78F085
:10F198000001E451C80FD96EDA6A5FEC6EF0DF6ED9
:10F1A8000001E451C80FD96EDA6ADF50436E43504C
:10F1B800456E446AE451C30FD96EDA6ADF50466E71
:10F1C80046504426000E4522E451020DF350B90F73
:10F1D800D96EDA6A600013F1DEFF600017F1DDFF17
:10F1E800E44BE52BA0EF78F0DC6B000EDB6FDCBFA7
:10F1F80007EF79F0DC5109E1050EDB5DD8A007EFD8
:10F2080079F009EF79F00BEF79F058EF77F01B0EF2
:10F21800206EFF0E216EDBC022F0DCC023F0DB5134
:10F22800020DF350B90FD96EDA6A6F0078FF24F037
:10F238006F0074FF25F03DEC6AF00001DB4BDC2B1E
:10F24800FBEF78F04AEC6AF0000E026E000E49EC13
:10F258006BF0D60E026EFF0E036E070E046EF7EC0F
:10F268006EF0C20E206EFC0E216E3DEC6AF0A90E07
:10F27800206EFC0E216E3DEC6AF01BEC6EF0000176
:10F28800DD6F55EF79F0C20E206EFC0E216E3DEC5D
:10F298006AF0990E206EFC0E216E3DEC6AF041EF8B
:10F2A80079F02F0EDD655BEF79F05DEF79F047EFD0
:10F2B80079F0350EDD6163EF79F065EF79F047EFAE
:10F2C80079F0000E026E070E49EC6BF00001DD517B
:10F2D80072EC6BF077EC6AF00009D8B476EF79F04D
:10F2E80078EF79F06EEF79F0870E23EC6AF0000181
:10F2F800E76B000EE66FE7BF8BEF79F0E75109E1A6
:10F30800050EE65DD8A08BEF79F08DEF79F08FEFE1
:10F3180079F0D7EF79F002EC6AF00009D8B497EFEA
:10F3280079F099EF79F08FEF79F00001E651C30F8A
:10F33800D96EDA6A5FEC6EF0DF6E02EC6AF00009F3
:10F34800D8B4A9EF79F0ABEF79F0A1EF79F000012B
:10F35800E651C80FD96EDA6A5FEC6EF0DF6E000115
:10F36800E651C80FD96EDA6ADF50436E4350456ED6
:10F37800446AE651C30FD96EDA6ADF50466E4650CA
:10F388004426000E4522E651020DF350B90FD96EFE
:10F39800DA6A600013F1DEFF600017F1DDFFE64B6B
:10F3A800E72B7FEF79F0DD51D00FDA6F0C0E206E6E
:10F3B800FF0E216EDAC022F0236ADA51020DF350F3
:10F3C800B90FD96EDA6A6F0078FF24F06F0074FF06
:10F3D80025F03DEC6AF058EF77F04AEC6AF0000E41
:10F3E800026E000E49EC6BF0A00E026EFF0E036E6B
:10F3F800080E046EF7EC6EF0C20E206EFC0E216E45
:10F408003DEC6AF0F4EC6BF002C0E1F003C0E2F00E
:10F41800CD0E206EE60E216EFF0E226EE1C023F0A7
:10F42800E2C024F0DBEC6AF020500001E86F010E26
:10F43800026E000E49EC6BF0CD0E026E036AE8C056
:10F4480004F0F7EC6EF09E0E206EFE0E216EE1C009
:10F4580022F0E2C023F03DEC6AF058EF77F04AEC76
:10F468006AF0000E026E000E49EC6BF08E0E026E12
:10F47800FF0E036E080E046EF7EC6EF0C20E206EDF
:10F48800FC0E216E3DEC6AF0120E206EFC0E216E11
:10F498003DEC6AF0D8EC6DF00001EA6FEA51F9EC46
:10F4A8006CF0CD0E206EF20E216EFF0E226EEAC0B9
:10F4B80023F0246ADBEC6AF020500001E86F010EAB
:10F4C800026E000E49EC6BF0CD0E026E036AE8C0C6
:10F4D80004F0F7EC6EF077EC6AF00009D8B477EF37
:10F4E8007AF079EF7AF06FEF7AF0C10E23EC6AF0D8
:10F4F80077EC6AF00009D8B484EF7AF086EF7AF0F6
:10F508007CEF7AF00001EA5123EC6AF077EC6AF0BC
:10F518000009D8B492EF7AF094EF7AF08AEF7AF093
:10F52800C50E23EC6AF077EC6AF00009D8B49FEFB7
:10F538007AF0A1EF7AF097EF7AF00001EA5123EC24
:10F548006AF058EF77F04AEC6AF0000E026E000E8F
:10F5580049EC6BF0A90E026EFF0E036E080E046EE6
:10F56800F7EC6EF0C20E206EFC0E216E3DEC6AF0D8
:10F57800E40E206EFB0E216E3DEC6AF0D8EC6DF0C7
:10F588000001EA6FEA5157EC6CF0CD0E206EF20ED6
:10F59800216EFF0E226EEAC023F0246ADBEC6AF0CB
:10F5A80020500001E86F010E026E000E49EC6BF06E
:10F5B800CD0E026E036AE8C004F0F7EC6EF077EC4B
:10F5C8006AF00009D8B4EBEF7AF0EDEF7AF0E3EFE8
:10F5D8007AF0C20E23EC6AF077EC6AF00009D8B42E
:10F5E800F8EF7AF0FAEF7AF0F0EF7AF00001EA51EA
:10F5F80023EC6AF077EC6AF00009D8B406EF7BF0E8
:10F6080008EF7BF0FEEF7AF0C60E23EC6AF077EC99
:10F618006AF00009D8B413EF7BF015EF7BF00BEF1D
:10F628007BF00001EA5123EC6AF058EF77F04AECDE
:10F638006AF0000E026E000E49EC6BF07C0E026E52
:10F64800FF0E036E080E046EF7EC6EF0C20E206E0D
:10F65800FC0E216E3DEC6AF0120E206EFC0E216E3F
:10F668003DEC6AF0D8EC6DF00001EA6F370E206EC1
:10F67800FB0E216E3DEC6AF0D8EC6DF00001E36FF3
:10F68800EA51E325D86FD96BD937E3C002F0EA51C4
:10F698009FEC6DF0CD0E206EEC0E216EFF0E226EEB
:10F6A800EAC023F0246AE3C025F0266ADBEC6AF09E
:10F6B80020500001E86F010E026E000E49EC6BF05D
:10F6C800CD0E026E036AE8C004F0F7EC6EF077EC3A
:10F6D8006AF00009D8B473EF7BF075EF7BF06BEF3D
:10F6E8007BF0C10E23EC6AF077EC6AF00009D8B41D
:10F6F80080EF7BF082EF7BF078EF7BF00001D85150
:10F7080023EC6AF077EC6AF00009D8B48EEF7BF04E
:10F7180090EF7BF086EF7BF0C50E23EC6AF077EC78
:10F728006AF00009D8B49BEF7BF09DEF7BF093EF74
:10F738007BF00001EA5123EC6AF058EF77F04AECCD
:10F748006AF0000E026E000E49EC6BF0850E026E38
:10F75800FF0E036E080E046EF7EC6EF0C20E206EFC
:10F76800FC0E216E3DEC6AF0120E206EFC0E216E2E
:10F778003DEC6AF0D8EC6DF00001EA6F370E206EB0
:10F78800FB0E216E3DEC6AF0D8EC6DF00001E36FE2
:10F79800EA51E325D86FD96BD937E3C002F0EA51B3
:10F7A8002FEC6DF0CD0E206EEC0E216EFF0E226E4A
:10F7B800EAC023F0246AE3C025F0266ADBEC6AF08D
:10F7C80020500001E86F010E026E000E49EC6BF04C
:10F7D800CD0E026E036AE8C004F0F7EC6EF077EC29
:10F7E8006AF00009D8B4FBEF7BF0FDEF7BF0F3EF94
:10F7F8007BF0C10E23EC6AF077EC6AF00009D8B40C
:10F8080008EF7CF00AEF7CF000EF7CF00001EA5191
:10F8180023EC6AF077EC6AF00009D8B416EF7CF0B4
:10F8280018EF7CF00EEF7CF0C50E23EC6AF077EC55
:10F838006AF00009D8B423EF7CF025EF7CF01BEFC9
:10F848007CF00001D85123EC6AF058EF77F04AECCD
:10F858006AF0000E026E000E49EC6BF06A0E026E42
:10F86800FF0E036E080E046EF7EC6EF0C20E206EEB
:10F87800FC0E216E3DEC6AF0B6EC69F077EC6AF0AC
:10F888000009D8B44AEF7CF04CEF7CF042EF7CF0F2
:10F89800C10E23EC6AF077EC6AF00009D8B457EF90
:10F8A8007CF059EF7CF04FEF7CF0000E23EC6AF00F
:10F8B80077EC6AF00009D8B464EF7CF066EF7CF06E
:10F8C8005CEF7CF0C50E23EC6AF077EC6AF0000977
:10F8D800D8B471EF7CF073EF7CF069EF7CF0000E28
:10F8E80023EC6AF058EF77F04AEC6AF0000E026EEB
:10F8F800000E49EC6BF0B20E026EFF0E036E080E9E
:10F90800046EF7EC6EF0F4EC6BF002C0E1F003C0AB
:10F91800E2F0CD0E206EE60E216EFF0E226EE1C0E3
:10F9280023F0E2C024F0DBEC6AF020500001E86F1D
:10F93800010E026E000E49EC6BF0CD0E026E036AEA
:10F94800E8C004F0F7EC6EF0E4EC72F058EF77F0F2
:10F95800DA51420AD8B4A7EF7AF0040AD8B433EFE0
:10F968007AF00A0AD8B41BEF7BF01E0AD8B4A3EFCA
:10F978007BF0010AD8B42BEF7CF0300AD8B45EEFE4
:10F9880077F0070AD8B426EF79F0090AD8B478EFE7
:10F998007CF01F0AD8B46DEF78F0040AD8B4F1EF00
:10F9A80079F058EF77F0CBAADCEF7CF0DEEF7CF053
:10F9B80086EF7DF0E4EC72F04AEC6AF0000E026E1D
:10F9C800000E49EC6BF0460E026EFF0E036E080E39
:10F9D800046EF7EC6EF0F4EC6BF002C0E1F003C0DB
:10F9E800E2F0CD0E206EE60E216EFF0E226EE1C013
:10F9F80023F0E2C024F0DBEC6AF020500001E86F4D
:10FA0800010E026E000E49EC6BF0CD0E026E036A19
:10FA1800E8C004F0F7EC6EF03D0E446EE10E436E64
:10FA2800400EE82EFED7432EFCD7442EFAD7000E00
:10FA3800026E000E49EC6BF0CD0E026EFF0E036EE7
:10FA4800080E046EF7EC6EF0C6EC6BF0010E026E59
:10FA5800000E49EC6BF0610E026EFF0E036E080E8D
:10FA6800046EF7EC6EF0060E02EC74F0100E436EA6
:10FA7800940EE82EFED7432EFCD700D0400E016E20
:10FA8800900E0DEC6AF046EC6FF0A7EC74F002C033
:10FA9800ACF003C0ADF06FEC73F0F70E206EFF0E04
:10FAA800216EACC022F0ADC023F03DEC6AF0950E9B
:10FAB8000001AC5D110EAD59D8B065EF7DF067EF70
:10FAC8007DF072EF7DF0DC0EAC5D050EAD59D8B05F
:10FAD80070EF7DF072EF7DF07AEF7DF0ACC014F03E
:10FAE800ADC015F034EC70F049EF7DF0A951D8A401
:10FAF80080EF7DF082EF7DF049EF7DF0EFEC71F063
:10FB080049EF7DF0FEEF7FF00000000000000000EC
:10FB180000000000000000000000000000000000DD
:10FB280000000000000000000000000000000009C4
:10FB380020506C6561736520656E74657220746809
:10FB480065207475726E696E672064696666657291
:10FB5800656E7469616C3A207370656564202B204A
:10FB6800646966666572656E7469616C203C2031F3
:10FB78003237200D0A00202076200909202876290E
:10FB88006F6C74616765202D205265616420616E19
:10FB98006420646973706C61792062617474657241
:10FBA8007920766F6C74616765200D0A00496E765E
:10FBB800616C696420696E7075742E20506C656183
:10FBC8007365207265646F206E756D657269636117
:10FBD8006C20696E7075742E200D0A000920506C17
:10FBE8006561736520656E7465722074686520624E
:10FBF80061636B776172642073706565642C203073
:10FC0800202D20313237200D0A000920506C656103
:10FC1800736520656E7465722074686520666F72FE
:10FC2800776172642073706565642C2030202D2004
:10FC3800313237200D0A00506C61636520616C6CAD
:10FC480020666976652073656E736F7273206F6EB8
:10FC580020612077686974652073757266616365D1
:10FC6800200A0D00506C61636520616C6C20666928
:10FC780076652073656E736F7273206F6E206120D6
:10FC8800626C61636B2073757266616365200A0D2F
:10FC980000496E76616C696420656E7472792E20F5
:10FCA80020456E7465722073656E736F72206E7571
:10FCB8006D6265722C20302D34200A0D00202072D0
:10FCC800200909202872296561642063616C6962D2
:10FCD80072617465642073656E736F7273200D0AA8
:10FCE8000020204220090920576865656C7320723E
:10FCF8006F746174652028422961636B776172644F
:10FD0800200D0A002020642009092028642969732D
:10FD1800706C61792073656E736F722078207661DC
:10FD28006C7565200D0A00202046200909205768B7
:10FD380065656C7320726F74617465202846296F3D
:10FD48007277617264200D0A00092A202020202081
:10FD5800202020202020202020202020202020209B
:10FD6800202020202020202A0D0A00092A202020D7
:10FD7800202020446961676E6F73746963204D6544
:10FD88006E75202020202020202A0D0A00092A2014
:10FD98002020415053432031323939202D20506FD3
:10FDA8006C6F6C75203370692020202A0D0A0009B9
:10FDB8002A2A2A2A2A2A2A2A2A2A2A2A2A2A2A2A9B
:10FDC8002A2A2A2A2A2A2A2A2A2A2A2A2A2A0D0AC8
:10FDD8000020206320090920286329616C69627268
:10FDE8006174652073656E736F7273200D0A005716
:10FDF800686974652063616C6962726174696F6EA9
:10FE080020636F6D706C657465200A0D00426C612B
:10FE1800636B2063616C6962726174696F6E2063E1
:10FE28006F6D706C657465200A0D00436F6D6D61B0
:10FE38006E64204B6579200920446573637269708C
:10FE480074696F6E200D0A00507265737320616EBD
:10FE580079206B657920746F20636F6E74696E7595
:10FE680065200A0D0020206D200909205265667260
:10FE780065736820286D29656E75200D0A00436139
:10FE88006C6962726174696F6E20636F6D706C6506
:10FE98007465200A0D004261747465727920766F6A
:10FEA8006C74616765203D202575200A0D002020AF
:10FEB80052200909202852296967687420747572CC
:10FEC8006E200D0A00202053200909202853297488
:10FED8006F70206D6F746F72200D0A0020204C2007
:10FEE800090920284C29656674207475726E200DE6
:10FEF8000A0053656E736F72202575203D202575A5
:10FF0800200A0D0053656E736F722025643A202510
:10FF1800750A0053656E736F722E2025642025754F
:10FF28000A0043616C696272617465002020204791
:10FF38004F2020200020205345542020200020203E
:10FF480052756E202020002052454144592020003F
:10FF58002020526561642020002020646F6E652097
:10FF68002000202053746F70202000202025752049
:10FF78007320200020204C656674202000205269E0
:10FF8800676874202000466F72776172642000539E
:10FF9800656E736F727320004261747465727920A4
:10FFA800004261636B7761726400446961676E6FD8
:10FFB800736500436F6D706C65746500436F756E93
:10FFC80074696E67004175746F2043616C005365F6
:10FFD8006E736F72200053656E736F7273002575B0
:10FFE800206D560025752025750020257520000AEE
:08FFF80025750000BBEF6AF063
:020000040030CA
:0A000000ECFEF7FF9FFFFFFFFFFF7C
:00000001FF
