:04000000FEEF7FF0A0
:10D77600120012001200120012001200B88E1200DF
:10D78600B89E1200000EF2EC6EF01200026E02500D
:10D796003AEC6CF0120001C0EFF002C0F0F012009B
:10D7A60001C05EF002C05FF0120001C05CF002C072
:10D7B6005DF0120001C0E9F002C0EAF0120001C0FB
:10D7C600EDF002C0EEF0120001C0EBF002C0ECF08A
:10D7D60012000250B76E600007F0B6FF120002ECAE
:10D7E6006CF08EEC71F0F9EC6BF01200600E390102
:10D7F600D96FDB6BDD6B070EDF6FDE6B1200390155
:10D80600C06BC16BC26BC36BC46BC56BC66BC76B9E
:10D8160012003901A3B712EF6CF015EF6CF0010E90
:10D8260016EF6CF0000E1200026E60000BF0B8FFEF
:10D83600600007F0B9FFB89E3901A39F12003901B5
:10D84600A6B528EF6CF02BEF6CF0010E2CEF6CF008
:10D85600000E1200016E3901A3A934EF6CF036EF09
:10D866006CF02EEF6CF0600007F0EAFD1200016E1E
:10D876003901A6A741EF6CF043EF6CF03BEF6CF07B
:10D88600600007F0D2FD1200220E266E000E1A6E00
:10D8960020C01BF021C01CF0260E1D6E94EC6DF00E
:10D8A600120090EC6CF00009D8B45CEF6CF05EEFFF
:10D8B6006CF054EF6CF0B70E2DEC6CF0120090EC9F
:10D8C6006CF00009D8B46AEF6CF06CEF6CF062EFA4
:10D8D6006CF0BC0E2DEC6CF0120000EE60F0560EF3
:10D8E600EE6AE806FDE100EE47F0150EEE6AE80680
:10D8F600FDE1000125EF77F06F00D8FE07F06F001D
:10D90600DCFE08F00850036E0750056E03C006F0F3
:10D9160005C001F006C002F01200016A3901A3A990
:10D9260097EF6CF099EF6CF0A3EF6CF03D01F2AB62
:10D936009FEF6CF0A1EF6CF0A3EF6CF0010E016E9F
:10D9460001501200016A3901A6A7ACEF6CF0AEEFE8
:10D956006CF0B8EF6CF03D01DAABB4EF6CF0B6EFFB
:10D966006CF0B8EF6CF0010E016E0150120008BEAB
:10D97600BFEF6CF0C1EF6CF0C7EF6CF007C007F0BB
:10D9860008C008F0D3EF6CF007C009F008C00AF031
:10D99600091E0A1E094A0A2A09C007F00AC008F029
:10D9A6001200230E296E20C02AF02D6A000E2C6E5E
:10D9B600346A000E336E2A0E1A6E21C01BF022C086
:10D9C6001CF0290E1D6E94EC6DF01AC027F01BC0DA
:10D9D60028F020502C24D96EDA6ADF6A27C020F09E
:10D9E60028C021F012003D01D46BD66BD86BB00E67
:10D9F600DA6F800EDB6FDC6BE10EDD6F040EDE6F1F
:10DA0600DF6BE06BE16BE26B7E0E016ED70E026E92
:10DA1600E2EC6BF0800E016ED70E026EE7EC6BF057
:10DA26007C0E016ED70E026EDDEC6BF0506A1200B2
:10DA36003D01EC6BED6BEE6BEF6BF06BF16BB00ECB
:10DA4600F26F800EF36FF46B670EF56FF66BF76B84
:10DA5600F86BF96BFA6B780E016ED70E026ED3EC8B
:10DA66006BF07A0E016ED70E026ED8EC6BF0760E66
:10DA7600016ED70E026ECEEC6BF0516A1200036E89
:10DA860090EC6CF00009D8B44BEF6DF04DEF6DF0F3
:10DA960043EF6DF0B90E2DEC6CF090EC6CF00009D4
:10DAA600D8B458EF6DF05AEF6DF050EF6DF00350AB
:10DAB6002DEC6CF090EC6CF00009D8B465EF6DF0CD
:10DAC60067EF6DF05DEF6DF002502DEC6CF012001B
:10DAD600026E90EC6CF00009D8B474EF6DF076EF3E
:10DAE6006DF06CEF6DF0B80E2DEC6CF090EC6CF008
:10DAF6000009D8B481EF6DF083EF6DF079EF6DF02A
:10DB0600010E2DEC6CF090EC6CF00009D8B48EEFA1
:10DB16006DF090EF6DF086EF6DF002502DEC6CF02D
:10DB260012001BC01EF01CC01FF0486A000E476E94
:10DB3600A9EF6DF01AC00BF01E0E0C6E1DC00DF095
:10DB46008AEC75F00B5047260C50482260007BF09B
:10DB5600F6FF60007FF0F7FFF86A0800F55000094D
:10DB6600D8A4B8EF6DF0BAEF6DF09DEF6DF047C039
:10DB76001AF048C01BF0120090EC6CF00009D8B403
:10DB8600C7EF6DF0C9EF6DF0BFEF6DF0BA0E2DEC7B
:10DB96006CF00CEC6CF00009D8B4D4EF6DF0D6EF55
:10DBA6006DF0CCEF6DF0E2EF6DF00CEC6CF000096F
:10DBB600D8B4E0EF6DF0E2EF6DF0D8EF6DF058EC11
:10DBC60070F0630AD8A4EAEF6DF0ECEF6DF0D8EFD1
:10DBD6006DF0120090EC6CF00009D8B4F5EF6DF022
:10DBE600F7EF6DF0EDEF6DF0B10E2DEC6CF00CEC87
:10DBF6006CF00009D8B402EF6EF004EF6EF0FAEFA5
:10DC06006DF058EC70F0066E0CEC6CF00009D8B4B0
:10DC16000FEF6EF011EF6EF007EF6EF058EC70F04C
:10DC2600076E0750056E046A06500424026E000E45
:10DC36000520036E120003500410D8B425EF6EF0D1
:10DC460027EF6EF04BEF6EF0010E056E2FEF6EF0C4
:10DC5600D89003360436052A04AE34EF6EF036EF5C
:10DC66006EF02BEF6EF00350015C04500258D8A002
:10DC76003FEF6EF041EF6EF045EF6EF00350015E40
:10DC86000450025AD89004320332052E36EF6EF055
:10DC960001C001F002C002F01200026E90EC6CF0BE
:10DCA6000009D8B459EF6EF05BEF6EF051EF6EF0ED
:10DCB600C20E2DEC6CF090EC6CF00009D8B466EF57
:10DCC6006EF068EF6EF05EEF6EF002502DEC6CF0C9
:10DCD60090EC6CF00009D8B473EF6EF075EF6EF04F
:10DCE6006BEF6EF0C60E2DEC6CF090EC6CF000094C
:10DCF600D8B480EF6EF082EF6EF078EF6EF0022807
:10DD06002DEC6CF01200036E90EC6CF00009D8B4A8
:10DD16008FEF6EF091EF6EF087EF6EF0C50E2DEC83
:10DD26006CF090EC6CF00009D8B49CEF6EF09EEFAE
:10DD36006EF094EF6EF003502DEC6CF090EC6CF0FE
:10DD46000009D8B4A9EF6EF0ABEF6EF0A1EF6EF05C
:10DD5600C20E2DEC6CF090EC6CF00009D8B4B6EF66
:10DD66006EF0B8EF6EF0AEEF6EF003282DEC6CF0AF
:10DD76001200036E90EC6CF00009D8B4C5EF6EF09B
:10DD8600C7EF6EF0BDEF6EF0C10E2DEC6CF090ECAF
:10DD96006CF00009D8B4D2EF6EF0D4EF6EF0CAEF93
:10DDA6006EF003502DEC6CF090EC6CF00009D8B4DA
:10DDB600DFEF6EF0E1EF6EF0D7EF6EF0C60E2DECF2
:10DDC6006CF090EC6CF00009D8B4ECEF6EF0EEEF6E
:10DDD6006EF0E4EF6EF003282DEC6CF01200026E8C
:10DDE60090EC6CF00009D8B4FBEF6EF0FDEF6EF02E
:10DDF600F3EF6EF0C10E2DEC6CF090EC6CF00009B8
:10DE0600D8B408EF6FF00AEF6FF000EF6FF0025032
:10DE16002DEC6CF090EC6CF00009D8B415EF6FF0B7
:10DE260017EF6FF00DEF6FF0C50E2DEC6CF090EC68
:10DE36006CF00009D8B422EF6FF024EF6FF01AEF00
:10DE46006FF002282DEC6CF01200036E90EC6CF073
:10DE56000009D8B431EF6FF033EF6FF029EF6FF0B0
:10DE6600C10E2DEC6CF090EC6CF00009D8B43EEFCE
:10DE76006FF040EF6FF036EF6FF0035002242DEC99
:10DE86006CF090EC6CF00009D8B44CEF6FF04EEFEC
:10DE96006FF044EF6FF0C50E2DEC6CF090EC6CF06B
:10DEA6000009D8B459EF6FF05BEF6FF051EF6FF0E8
:10DEB60003282DEC6CF01200066A000E056E035066
:10DEC6000410D8B469EF6FF06BEF6FF093EF6FF05B
:10DED600010E076E73EF6FF0D89003360436072AEB
:10DEE60004AE78EF6FF07AEF6FF06FEF6FF0D890C7
:10DEF600053606360350015C04500258D8A086EF5A
:10DF06006FF088EF6FF08DEF6FF00350015E0450F5
:10DF1600025A0580D89004320332072E7AEF6FF04A
:10DF260005C001F006C002F01200046E90EC6CF021
:10DF36000009D8B4A1EF6FF0A3EF6FF099EF6FF07F
:10DF4600C10E2DEC6CF090EC6CF00009D8B4AEEF7D
:10DF56006FF0B0EF6FF0A6EF6FF004502DEC6CF0A1
:10DF660090EC6CF00009D8B4BBEF6FF0BDEF6FF02A
:10DF7600B3EF6FF0C50E2DEC6CF090EC6CF0000971
:10DF8600D8B4C8EF6FF0CAEF6FF0C0EF6FF004506F
:10DF96000224036E03282DEC6CF012002868276A11
:10DFA60009EF70F014EC70F0286E0D0E2818D8A446
:10DFB600DFEF6FF0E1EF6FF0E3EF6FF009EF70F076
:10DFC6002F0E2864E9EF6FF0EBEF6FF0F3EF6FF0D1
:10DFD600390E2864F1EF6FF0F3EF6FF003EF70F096
:10DFE600C60E206EFC0E216E47EC6CF0B90E206E4C
:10DFF600FB0E216E47EC6CF0276A286809EF70F07B
:10E0060027500A0DF3502824D00F276E0D0E28181E
:10E01600D8A410EF70F012EF70F0D5EF6FF0275024
:10E02600120002683DEF70F022EC6CF00009D8B4E3
:10E036001FEF70F021EF70F03DEF70F0A3EC70F081
:10E04600026EA5EC6CF00009D8B42CEF70F02EEF40
:10E0560070F03DEF70F002503AEC6CF00D0E0218C5
:10E06600D8A438EF70F03AEF70F03DEF70F00A0E7A
:10E076003AEC6CF02F0E026443EF70F045EF70F04F
:10E086004DEF70F07A0E02644BEF70F04DEF70F0CA
:10E0960056EF70F00D0E0218D8A454EF70F056EF3C
:10E0A60070F017EF70F0025012003901A3A75EEF6F
:10E0B60070F060EF70F058EF70F0516A3D01F9A70B
:10E0C60067EF70F069EF70F076EF70F0518202D86A
:10E0D60076EF70F00500FA6E5E50FD6E5F50FE6ED4
:10E0E600FF6AFA5012003D01F9A37CEF70F07EEF53
:10E0F60070F08BEF70F0518402D88BEF70F0050052
:10E10600FA6E5C50FD6E5D50FE6EFF6AFA501200AC
:10E116005150D8B491EF70F093EF70F0A0EF70F01B
:10E1260002D8A0EF70F00500FA6E0001EF51FD6E07
:10E13600F051FE6EFF6AFA5012003D01E8511200DE
:10E146003901A6A5A9EF70F0ABEF70F0A3EF70F060
:10E15600506A3D01E1A7B2EF70F0B4EF70F0C2EF84
:10E1660070F0508202D8C2EF70F00500FA6E00011E
:10E17600ED51FD6EEE51FE6EFF6AFA5012003D0142
:10E18600E1A3C8EF70F0CAEF70F0D8EF70F05084DA
:10E1960002D8D8EF70F00500FA6E0001EB51FD6E63
:10E1A600EC51FE6EFF6AFA5012005050D8B4DEEF02
:10E1B60070F0E0EF70F0EDEF70F002D8EDEF70F078
:10E1C6000500FA6E0001E951FD6EEA51FE6EFF6A26
:10E1D600FA5012003D01D0511200076A90EC6CF023
:10E1E6000009D8B4F9EF70F0FBEF70F0F1EF70F0C2
:10E1F600B80E2DEC6CF090EC6CF00009D8B406EF7C
:10E2060071F008EF71F0FEEF70F004502DEC6CF039
:10E2160035EF71F090EC6CF00009D8B415EF71F0A1
:10E2260017EF71F035EF71F007500224056E000EFE
:10E236000320066E600017F0F6FF60001BF0F7FF84
:10E24600000EF86E0F0EF76403D00800F55007D0E5
:10E256006F00DBFFE9FF6F00DFFFEAFFEF502DECF9
:10E266006CF0072A0450075CD8A03CEF71F03EEF33
:10E2760071F00DEF71F0120090EC6CF00009D8B45B
:10E2860047EF71F049EF71F03FEF71F0BB0E2DECE7
:10E296006CF090EC6CF00009D8B454EF71F056EFC6
:10E2A60071F04CEF71F0140E2DEC6CF090EC6CF0FC
:10E2B6000009D8B461EF71F063EF71F059EF71F0B6
:10E2C600010E2DEC6CF090EC6CF00009D8B46EEFFA
:10E2D60071F070EF71F066EF71F0140E2DEC6CF0CA
:10E2E60090EC6CF00009D8B47BEF71F07DEF71F023
:10E2F60073EF71F0030E2DEC6CF090EC6CF00009EE
:10E30600D8B488EF71F08AEF71F080EF71F0020EE9
:10E316002DEC6CF01200BE6ABD6ABA6ABB6ABC6AB2
:10E32600070EC66EC268BF0EC36E840EC46EC56885
:10E336003A01706B606B2F0E506F070E806FEF0EF9
:10E34600406F716B816B516B416B616B5A6B5B6B91
:10E356006A6B6B6B7A6B7B6B826B426B526B180EC4
:10E36600626F726B4369536963697369070E836FE2
:10E3760044695469646974690F0E846F0F0EE86FFF
:10E38600250E106F160E0E6F210E136F0F0E116FE6
:10E39600220E146F170EE56F040EC36F130EE16F96
:10E3A6000C0EDD6F140EE26F120ECA6F0D0E156F96
:10E3B600130E166F12000550D8B4E4EF71F0E6EFB5
:10E3C60071F0EEEF71F00550D8A4ECEF71F0EEEFBE
:10E3D60071F0F3EF71F00350C9EC6BF033EF72F0AC
:10E3E6000550D96EDA6A090ED926DE50DE10D8B489
:10E3F600FFEF71F001EF72F01AEF72F00550D96E6F
:10E40600DA6A090ED9260550E16EE26A020EE126A5
:10E41600DE50E65CE650800A0A6EDE50800A0A5834
:10E42600D8B018EF72F01AEF72F033EF72F00550B1
:10E43600D96EDA6A020ED926DF50066E0550D96EFD
:10E44600DA6ADF500624D96EDA6A60000FF0DFFF61
:10E456000550D96EDA6A020ED926DE2A000EDD22B2
:10E466001200066A02BE3CEF72F03AEF72F042EF1B
:10E4760072F0016C021ED8B0022A010E066E04BEAE
:10E4860049EF72F047EF72F04DEF72F0036C041E25
:10E49600D8B0042A03500410D8B454EF72F056EFE3
:10E4A60072F07AEF72F0010E056E5EEF72F0D890A0
:10E4B60003360436052A04AE63EF72F065EF72F098
:10E4C6005AEF72F00350015C04500258D8A06EEF68
:10E4D60072F070EF72F074EF72F00350015E045048
:10E4E600025AD89004320332052E65EF72F00650B8
:10E4F600D8B480EF72F082EF72F086EF72F0016CA2
:10E50600021ED8B0022A01C001F002C002F01200B9
:10E5160090EC6CF00009D8B493EF72F095EF72F0BE
:10E526008BEF72F0B40E2DEC6CF0126A0CEC6CF002
:10E536000009D8B4A1EF72F0A3EF72F099EF72F070
:10E546001250080FD96EDA6A58EC70F0DF6E0CECD8
:10E556006CF00009D8B4B2EF72F0B4EF72F0AAEF23
:10E5660072F012500D0FD96EDA6A58EC70F0DF6E49
:10E5760012500D0FD96EDA6ADF50046E0450066E23
:10E58600056A1250080FD96EDA6ADF50076E075017
:10E596000526000E06221250020DF350AC0FD96E5E
:10E5A600DA6A600017F0DEFF60001BF0DDFF122A5A
:10E5B600040E1264E1EF72F0E3EF72F099EF72F07D
:10E5C600AC0E120062EC6CF0140EF2EC6EF0160E4D
:10E5D600176E4F0E166E7B0EE82EFED7162EFCD744
:10E5E600172EFAD70000C5EC6BF0180E026ECFECB2
:10E5F60074F01550D96EDA6A040ED926DF50D8B4F5
:10E6060007EF73F009EF73F01EEF73F01E0E026E44
:10E616001E0EBCEC6EF0180E026ECFEC74F01A50A3
:10E62600D8B418EF73F01AEF73F00EEF73F0C5EC71
:10E636006BF03CEF73F01550D96EDA6ADF50D8B440
:10E6460027EF73F029EF73F03CEF73F01E0E026EA6
:10E656001E0E86EC6EF0180E026ECFEC74F01A5099
:10E66600D8B438EF73F03AEF73F02EEF73F01AEF79
:10E6760073F03FEC71F01200066A04BE47EF73F0C8
:10E6860045EF73F04DEF73F0036C041ED8B0042A07
:10E69600010E066E02BE54EF73F052EF73F05AEF9E
:10E6A60073F0016C021ED8B0022A010E061A086A1F
:10E6B600000E076E03500410D8B464EF73F066EFD3
:10E6C60073F08EEF73F0010E056E6EEF73F0D89057
:10E6D60003360436052A04AE73EF73F075EF73F054
:10E6E6006AEF73F0D890073608360350015C045081
:10E6F6000258D8A081EF73F083EF73F088EF73F0C0
:10E706000350015E0450025A0780D8900432033247
:10E71600052E75EF73F00650D8B494EF73F096EFAC
:10E7260073F09AEF73F0076C081ED8B0082A07C07A
:10E7360001F008C002F01200E50E206EFB0E216EFD
:10E7460047EC6CF0BB0E206EFD0E216E47EC6CF0B4
:10E75600550E206EFD0E216E47EC6CF0990E206E64
:10E76600FD0E216E47EC6CF0770E206EFD0E216ECD
:10E7760047EC6CF0550E206EFD0E216E47EC6CF0EA
:10E78600BB0E206EFD0E216E47EC6CF0C60E206EA1
:10E79600FC0E216E47EC6CF0370E206EFE0E216EDD
:10E7A60047EC6CF0DD0E206EFD0E216E47EC6CF032
:10E7B600C90E206EFC0E216E47EC6CF0100E206E1A
:10E7C600FD0E216E47EC6CF0E50E206EFB0E216E01
:10E7D60047EC6CF0820E206EFB0E216E47EC6CF05F
:10E7E600E50E206EFB0E216E47EC6CF0330E206EAC
:10E7F600FD0E216E47EC6CF0ED0E206EFC0E216EC8
:10E8060047EC6CF0E80E206EFE0E216E47EC6CF0C5
:10E81600BA0E206EFE0E216E47EC6CF0D10E206E05
:10E82600FE0E216E47EC6CF0E50E206EFB0E216E9F
:10E8360047EC6CF0710E206EFE0E216E47EC6CF00C
:10E84600C60E206EFC0E216E47EC6CF01200406E78
:10E8560040C042F054EC6CF0C80E026EFF0E036E20
:10E86600080E046EF0EC70F0480E016E900E17EC78
:10E876006CF0C1EC6BF0010E026E000E42EC6DF016
:10E88600350E206E770E216EFF0E226E42C023F0EB
:10E89600246AD4EC6CF02050416E350E026E036A89
:10E8A60041C004F0F0EC70F0C4EF74F07FEC6CF053
:10E8B60001C03EF002C03FF01B0E3E5CB70E3F5853
:10E8C600D8A068EF74F06AEF74F0C4EF74F04206F3
:10E8D600026A000E016EECEC6BF0B5EF74F054ECCE
:10E8E6006CF0010E026E000E42EC6DF0380E026EF8
:10E8F600FF0E036E080E046EF0EC70F0C4EF74F0B9
:10E90600010E026E000E42EC6DF0410E026EFF0E1D
:10E91600036E080E046EF0EC70F0C4EF74F0010E96
:10E92600026E000E42EC6DF0530E026EFF0E036E89
:10E93600080E046EF0EC70F0C4EF74F0010E026E77
:10E94600000E42EC6DF0350E206E770E216EFF0E36
:10E95600226E42C023F0246AD4EC6CF02050416E43
:10E9660050EF74F04250000AD8B472EF74F0010A06
:10E97600D8B483EF74F0030AD8B492EF74F0A1EF21
:10E9860074F04250D8A4CAEF74F0CCEF74F059EF8B
:10E9960074F0C3EC6BF0120090EC6CF00009D8B484
:10E9A600D7EF74F0D9EF74F0CFEF74F0870E2DEC3B
:10E9B6006CF0126A000E116E0CEC6CF00009D8B403
:10E9C600E7EF74F0E9EF74F0DFEF74F01150070F22
:10E9D600D96EDA6A58EC70F0DF6E0CEC6CF0000958
:10E9E600D8B4F8EF74F0FAEF74F0F0EF74F0115059
:10E9F6000C0FD96EDA6A58EC70F0DF6E11500C0FFE
:10EA0600D96EDA6ADF50036E0350056E046A115040
:10EA1600070FD96EDA6ADF50066E06500426000E1E
:10EA260005221150020DF3509D0FD96EDA6A60006F
:10EA360013F0DEFF600017F0DDFF114A122A12BE46
:10EA46002EEF75F0125009E1050E115CD8A02EEFDD
:10EA560075F030EF75F0DFEF74F0146A000E136E88
:10EA6600020E13181410D8A43BEF75F03DEF75F0A5
:10EA76005BEF75F01350020DF3509D0FD96EDA6AF5
:10EA86002C0EDE5C010EDE58D8A04CEF75F04EEF72
:10EA960075F056EF75F002501324D96EDA6A010E3E
:10EAA600DF6E5BEF75F002501324D96EDA6ADF6A07
:10EAB6001350020DF3509D0FD96EDA6ABC0EDE5C60
:10EAC600020EDE58D8A06AEF75F06CEF75F074EFA1
:10EAD60075F002501324D96EDA6A010EDF6E79EFF3
:10EAE60075F002501324D96EDA6ADF6A134A142AC3
:10EAF60014BE87EF75F0145009E1050E135CD8A01B
:10EB060087EF75F089EF75F033EF75F01200126A32
:10EB1600000E116E0C50D96EDA6A6F007BFFF6FF9D
:10EB26006F0077FFF7FFF86A0800F550250AD8A4AA
:10EB36009FEF75F0A1EF75F009EF77F00C50D96EE5
:10EB4600DA6ADE2A000EDD224A6A000E496E49C0E4
:10EB56004FF04B684C680C50D96EDA6A6F0078FF3C
:10EB660013F06F0074FF14F060004FF0F6FF6000C2
:10EB760053F0F7FFF86A0800F550640AD8B4C6EFF8
:10EB860075F0C8EF75F0D9EF75F060004FF0F6FF3D
:10EB9600600053F0F7FFF86A0800F550690AD8A438
:10EBA600D7EF75F0D9EF75F071EF76F00D50D96E9D
:10EBB600DA6A020EDF26DF5CD96EDA6A6F0078FF4A
:10EBC60015F06F0078FF16F0010E13240E6E000E7E
:10EBD60014200F6E0C50D96EDA6A60003BF0DEFF2F
:10EBE60060003FF0DDFF200E196E16BEFDEF75F0DA
:10EBF60000EF76F0010E01EF76F0000E106E1906AA
:10EC06001950600FD96EDA6A15C001F016C002F00D
:10EC1600046A0A0E036E34EC72F001C007F002C0FB
:10EC260008F0BAEC6CF00750300FDF6E15C001F03B
:10EC360016C002F0046A0A0E036E3FEC73F001C0C0
:10EC460015F002C016F0114A122A15501610D8B443
:10EC56002FEF76F031EF76F039EF76F01950D8A431
:10EC660037EF76F039EF76F002EF76F01950D8B438
:10EC76003FEF76F041EF76F062EF76F01050D8B4C1
:10EC860047EF76F049EF76F062EF76F01906195005
:10EC9600600FD96EDA6A2D0EDF6E114A122A62EF04
:10ECA60076F01950600FD96EDA6ADF500E6E0E508C
:10ECB600036E046A0BC005F0DEEC71F0192A200E13
:10ECC6001918D8A469EF76F06BEF76F054EF76F06A
:10ECD60011C00BF012C00CF024EF77F060004FF07B
:10ECE600F6FF600053F0F7FFF86A0800F550750A62
:10ECF600D8A480EF76F082EF76F0FEEF76F00D5036
:10ED0600D96EDA6A020EDF26DF5CD96EDA6A6F0028
:10ED160078FF15F06F0078FF16F0010E13240E6EC3
:10ED2600000E14200F6E0C50D96EDA6A60003BF0AC
:10ED3600DEFF60003FF0DDFFEFEF76F0200E196E8C
:10ED460019061950600FD96EDA6A15C001F016C09F
:10ED560002F0046A0A0E036E1EEC6EF00150300FCC
:10ED6600DF6E15C001F016C002F0046A0A0E036ECB
:10ED76005FEC6FF001C015F002C016F0114A122ABE
:10ED860015501610D8B4CAEF76F0CCEF76F0E4EF53
:10ED960076F01950D8A4D2EF76F0D4EF76F0A3EF40
:10EDA60076F0E4EF76F01950600FD96EDA6ADF502C
:10EDB6000E6E0E50036E046A0BC005F0DEEC71F0A9
:10EDC600192A200E1918D8A4EBEF76F0EDEF76F09D
:10EDD600D6EF76F06BEF76F060004FF0F6FF60004E
:10EDE60053F0F7FFF86A0800F550750AD8B4A1EF9A
:10EDF60076F0FEEF76F00C50D96EDA6ADE2A000E57
:10EE0600DD220C6A000E0B6E24EF77F00C50D96EE3
:10EE1600DA6A6F007BFFF6FF6F0077FFF7FFF86A8D
:10EE26000800F550036E046A0BC005F0DEEC71F0C5
:10EE36000C50D96EDA6ADE2A000EDD220C6A010E4B
:10EE46000B6E1200F2EC6BF08EEC71F01BEC6DF0B9
:10EE5600F6EC6CF0C38A3A01509BCBBA35EF77F0EB
:10EE660037EF77F0E8EF7CF09FEC73F054EC6CF042
:10EE7600000E026E000E42EC6DF0B60E026EFF0E34
:10EE8600036E080E046EF0EC70F0EDEC6DF002C04F
:10EE9600DFF003C0E0F0CB0E206EEA0E216EFF0E0F
:10EEA600226EDFC023F0E0C024F0D4EC6CF02050DA
:10EEB6000001E66F010E026E000E42EC6DF0CB0E05
:10EEC600026E036AE6C004F0F0EC70F014EC70F029
:10EED6000001D86FBDEF7CF054EC6CF0000E026EB2
:10EEE600000E42EC6DF02E0E026EFF0E036E080E43
:10EEF600046EF0EC70F0010E026E000E42EC6DF046
:10EF06009B0E026EFF0E036E080E046EF0EC70F0A0
:10EF1600C60E206EFC0E216E47EC6CF00001D46B21
:10EF2600F3EF77F0430E206EFC0E216E47EC6CF08B
:10EF3600540E206EFE0E216E47EC6CF014EC70F051
:10EF46000001B66F8BEC72F00001DC6FDE6B000E19
:10EF5600DD6FE76B040EE765B3EF77F0B5EF77F09B
:10EF6600B7EF77F0E2EF77F0E751020DDC51F324CB
:10EF7600D96EDA6A6F0078FF43F06F0074FF44F0D1
:10EF8600DD514324DD6FDE514420DE6FFE0E206E20
:10EF9600FE0E216EE7C022F0236AE751020DDC5116
:10EFA600F324D96EDA6A6F0078FF24F06F0074FFDD
:10EFB60025F047EC6CF00001E72BADEF77F0DD5163
:10EFC600DE11D8A4E9EF77F0EBEF77F0F3EF77F007
:10EFD600010ED46FFB0E206EFD0E216E47EC6CF019
:10EFE6000001D451D8B4FAEF77F0FCEF77F095EF43
:10EFF60077F0D56B73EF78F0700E206EFC0E216EF5
:10F0060047EC6CF0540E206EFE0E216E47EC6CF051
:10F0160014EC70F00001B66F8BEC72F00001DC6F3F
:10F02600DE6B000EDD6FE76B040EE7651DEF78F013
:10F036001FEF78F021EF78F04CEF78F0E751020DF2
:10F04600DC51F324D96EDA6A6F0078FF43F06F0063
:10F0560074FF44F0DD514324DD6FDE514420DE6F42
:10F06600FE0E206EFE0E216EE7C022F0236AE751E7
:10F07600020DDC51F324D96EDA6A6F0078FF24F0B2
:10F086006F0074FF25F047EC6CF00001E72B17EFDB
:10F0960078F0880EDD1907E1130EDE19D8A456EFB5
:10F0A60078F058EF78F073EF78F0010ED56F190EFF
:10F0B600206EFE0E216E47EC6CF08A0E206EFE0E60
:10F0C600216E47EC6CF0010E026E000E42EC6DF004
:10F0D600BF0E026EFF0E036E080E046EF0EC70F0AB
:10F0E6000001D551D8B47AEF78F07CEF78F0FFEFD5
:10F0F60077F069EF77F054EC6CF0000E026E000EBC
:10F1060042EC6DF05C0E026EFF0E036E080E046E8E
:10F11600F0EC70F0010E026E000E42EC6DF0E20EA5
:10F12600026EFF0E036E080E046EF0EC70F0C60E53
:10F13600206EFC0E216E47EC6CF090EC6CF0000932
:10F14600D8B4A8EF78F0AAEF78F0A0EF78F0870EA1
:10F156002DEC6CF00001E36B000EE26FE3BFBDEF38
:10F1660078F0E35109E1050EE25DD8A0BDEF78F035
:10F17600BFEF78F0C1EF78F009EF79F00CEC6CF0A6
:10F186000009D8B4C9EF78F0CBEF78F0C1EF78F08A
:10F196000001E251C10FD96EDA6A58EC70F0DF6EE9
:10F1A6000CEC6CF00009D8B4DBEF78F0DDEF78F00A
:10F1B600D3EF78F00001E251C60FD96EDA6A58EC47
:10F1C60070F0DF6E0001E251C60FD96EDA6ADF50C9
:10F1D600436E4350456E446AE251C10FD96EDA6AF6
:10F1E600DF50466E46504426000E4522E251020D7F
:10F1F600F350B70FD96EDA6A600013F1DEFF6000D4
:10F2060017F1DDFFE24BE32BB1EF78F0DA6B000E7E
:10F21600D96FDABF18EF79F0DA5109E1050ED95D39
:10F22600D8A018EF79F01AEF79F01CEF79F069EFB2
:10F2360077F01F0E206EFF0E216ED9C022F0DAC0C5
:10F2460023F0D951020DF350B70FD96EDA6A6F0069
:10F2560078FF24F06F0074FF25F047EC6CF0000196
:10F26600D94BDA2B0CEF79F054EC6CF0000E026EF1
:10F27600000E42EC6DF0DA0E026EFF0E036E070E04
:10F28600046EF0EC70F0C60E206EFC0E216E47EC9C
:10F296006CF0AD0E206EFC0E216E47EC6CF014EC9B
:10F2A60070F00001DB6F66EF79F0C60E206EFC0E83
:10F2B600216E47EC6CF09D0E206EFC0E216E47EC25
:10F2C6006CF052EF79F02F0EDB656CEF79F06EEF94
:10F2D60079F058EF79F0350EDB6174EF79F076EF5F
:10F2E60079F058EF79F0000E026E070E42EC6DF0E1
:10F2F6000001DB516BEC6DF090EC6CF00009D8B4BA
:10F3060087EF79F089EF79F07FEF79F0870E2DECB2
:10F316006CF00001E56B000EE46FE5BF9CEF79F041
:10F32600E55109E1050EE45DD8A09CEF79F09EEF6A
:10F3360079F0A0EF79F0E8EF79F00CEC6CF00009C9
:10F34600D8B4A8EF79F0AAEF79F0A0EF79F0000130
:10F35600E451C10FD96EDA6A58EC70F0DF6E0CEC2E
:10F366006CF00009D8B4BAEF79F0BCEF79F0B2EFDF
:10F3760079F00001E451C60FD96EDA6A58EC70F0E4
:10F38600DF6E0001E451C60FD96EDA6ADF50436EB4
:10F396004350456E446AE451C10FD96EDA6ADF50B4
:10F3A600466E46504426000E4522E451020DF350A7
:10F3B600B70FD96EDA6A600013F1DEFF600017F14D
:10F3C600DDFFE44BE52B90EF79F0DB51D00FD86FE2
:10F3D600100E206EFF0E216ED8C022F0236AD8517F
:10F3E600020DF350B70FD96EDA6A6F0078FF24F07A
:10F3F6006F0074FF25F047EC6CF069EF77F054EC82
:10F406006CF0000E026E000E42EC6DF0A40E026E61
:10F41600FF0E036E080E046EF0EC70F0C60E206E42
:10F42600FC0E216E47EC6CF0EDEC6DF002C0DFF0E7
:10F4360003C0E0F0CB0E206EEA0E216EFF0E226EA8
:10F44600DFC023F0E0C024F0D4EC6CF020500001C3
:10F45600E66F010E026E000E42EC6DF0CB0E026EF0
:10F46600036AE6C004F0F0EC70F0A20E206EFE0E09
:10F47600216EDFC022F0E0C023F047EC6CF069EFAC
:10F4860077F054EC6CF0000E026E000E42EC6DF05C
:10F49600920E026EFF0E036E080E046EF0EC70F014
:10F4A600C60E206EFC0E216E47EC6CF0160E206E1A
:10F4B600FC0E216E47EC6CF0D1EC6FF00001E86FAA
:10F4C600E851F2EC6EF0CB0E206EF60E216EFF0EBA
:10F4D600226EE8C023F0246AD4EC6CF020500001C0
:10F4E600E66F010E026E000E42EC6DF0CB0E026E60
:10F4F600036AE6C004F0F0EC70F090EC6CF00009E2
:10F50600D8B488EF7AF08AEF7AF080EF7AF0C10EFD
:10F516002DEC6CF090EC6CF00009D8B495EF7AF015
:10F5260097EF7AF08DEF7AF00001E8512DEC6CF050
:10F5360090EC6CF00009D8B4A3EF7AF0A5EF7AF05E
:10F546009BEF7AF0C50E2DEC6CF090EC6CF0000998
:10F55600D8B4B0EF7AF0B2EF7AF0A8EF7AF0000103
:10F56600E8512DEC6CF069EF77F054EC6CF0000E7E
:10F57600026E000E42EC6DF0AD0E026EFF0E036ED3
:10F58600080E046EF0EC70F0C60E206EFC0E216EB6
:10F5960047EC6CF0E80E206EFB0E216E47EC6CF02B
:10F5A600D1EC6FF00001E86FE85150EC6EF0CB0E35
:10F5B600206EF60E216EFF0E226EE8C023F0246A3E
:10F5C600D4EC6CF020500001E66F010E026E000EC6
:10F5D60042EC6DF0CB0E026E036AE6C004F0F0EC6E
:10F5E60070F090EC6CF00009D8B4FCEF7AF0FEEF06
:10F5F6007AF0F4EF7AF0C20E2DEC6CF090EC6CF031
:10F606000009D8B409EF7BF00BEF7BF001EF7BF03C
:10F616000001E8512DEC6CF090EC6CF00009D8B4C8
:10F6260017EF7BF019EF7BF00FEF7BF0C60E2DEC9A
:10F636006CF090EC6CF00009D8B424EF7BF026EF68
:10F646007BF01CEF7BF00001E8512DEC6CF069EFCC
:10F6560077F054EC6CF0000E026E000E42EC6DF08A
:10F66600800E026EFF0E036E080E046EF0EC70F054
:10F67600C60E206EFC0E216E47EC6CF0160E206E48
:10F68600FC0E216E47EC6CF0D1EC6FF00001E86FD8
:10F696003B0E206EFB0E216E47EC6CF0D1EC6FF04A
:10F6A6000001E16FE851E125D66FD76BD737E1C08E
:10F6B60002F0E85198EC6FF0CB0E206EF00E216E42
:10F6C600FF0E226EE8C023F0246AE1C025F0266A08
:10F6D600D4EC6CF020500001E66F010E026E000EB5
:10F6E60042EC6DF0CB0E026E036AE6C004F0F0EC5D
:10F6F60070F090EC6CF00009D8B484EF7BF086EFE4
:10F706007BF07CEF7BF0C10E2DEC6CF090EC6CF096
:10F716000009D8B491EF7BF093EF7BF089EF7BF093
:10F726000001D6512DEC6CF090EC6CF00009D8B4C9
:10F736009FEF7BF0A1EF7BF097EF7BF0C50E2DECF2
:10F746006CF090EC6CF00009D8B4ACEF7BF0AEEF47
:10F756007BF0A4EF7BF00001E8512DEC6CF069EF33
:10F7660077F054EC6CF0000E026E000E42EC6DF079
:10F77600890E026EFF0E036E080E046EF0EC70F03A
:10F78600C60E206EFC0E216E47EC6CF0160E206E37
:10F79600FC0E216E47EC6CF0D1EC6FF00001E86FC7
:10F7A6003B0E206EFB0E216E47EC6CF0D1EC6FF039
:10F7B6000001E16FE851E125D66FD76BD737E1C07D
:10F7C60002F0E85128EC6FF0CB0E206EF00E216EA1
:10F7D600FF0E226EE8C023F0246AE1C025F0266AF7
:10F7E600D4EC6CF020500001E66F010E026E000EA4
:10F7F60042EC6DF0CB0E026E036AE6C004F0F0EC4C
:10F8060070F090EC6CF00009D8B40CEF7CF00EEFC1
:10F816007CF004EF7CF0C10E2DEC6CF090EC6CF0FB
:10F826000009D8B419EF7CF01BEF7CF011EF7CF0E7
:10F836000001E8512DEC6CF090EC6CF00009D8B4A6
:10F8460027EF7CF029EF7CF01FEF7CF0C50E2DEC46
:10F856006CF090EC6CF00009D8B434EF7CF036EF25
:10F866007CF02CEF7CF00001D6512DEC6CF069EFAA
:10F8760077F054EC6CF0000E026E000E42EC6DF068
:10F886006E0E026EFF0E036E080E046EF0EC70F044
:10F89600C60E206EFC0E216E47EC6CF0C5EC6BF0CC
:10F8A60090EC6CF00009D8B45BEF7CF05DEF7CF077
:10F8B60053EF7CF0C10E2DEC6CF090EC6CF000096F
:10F8C600D8B468EF7CF06AEF7CF060EF7CF0000E55
:10F8D6002DEC6CF090EC6CF00009D8B475EF7CF070
:10F8E60077EF7CF06DEF7CF0C50E2DEC6CF090ECB4
:10F8F6006CF00009D8B482EF7CF084EF7CF07AEFEC
:10F906007CF0000E2DEC6CF069EF77F054EC6CF0A7
:10F91600000E026E000E42EC6DF0B60E026EFF0E89
:10F92600036E080E046EF0EC70F0EDEC6DF002C0A4
:10F93600DFF003C0E0F0CB0E206EEA0E216EFF0E64
:10F94600226EDFC023F0E0C024F0D4EC6CF020502F
:10F956000001E66F010E026E000E42EC6DF0CB0E5A
:10F96600026E036AE6C004F0F0EC70F09FEC73F0F0
:10F9760069EF77F0D851420AD8B4B8EF7AF0040AA2
:10F98600D8B444EF7AF00A0AD8B42CEF7BF01E0AFA
:10F99600D8B4B4EF7BF0010AD8B43CEF7CF0300A5F
:10F9A600D8B46FEF77F0070AD8B437EF79F0090AC1
:10F9B600D8B489EF7CF01F0AD8B47EEF78F0040A39
:10F9C600D8B402EF7AF069EF77F0CBAAEDEF7CF0CE
:10F9D600EFEF7CF088EF7DF09FEC73F054EC6CF069
:10F9E600000E026E000E42EC6DF04A0E026EFF0E25
:10F9F600036E080E046EF0EC70F0EDEC6DF002C0D4
:10FA0600DFF003C0E0F0CB0E206EEA0E216EFF0E93
:10FA1600226EDFC023F0E0C024F0D4EC6CF020505E
:10FA26000001E66F010E026E000E42EC6DF0CB0E89
:10FA3600026E036AE6C004F0F0EC70F03D0E446E10
:10FA4600E10E436E400EE82EFED7432EFCD7442E21
:10FA5600FAD7000E026E000E42EC6DF0D10E026E69
:10FA6600FF0E036E080E046EF0EC70F0BFEC6DF046
:10FA7600010E026E000E42EC6DF0650E026EFF0E78
:10FA8600036E080E046EF0EC70F0060E2AEC74F0AD
:10FA9600100E436E940EE82EFED7432EFCD700D0F0
:10FAA600400E016E900E17EC6CF03FEC71F0520EAA
:10FAB600026ECFEC74F052505310D8A465EF7DF06F
:10FAC60067EF7DF070EF7DF05A505B10D8B46EEFA3
:10FAD6007DF070EF7DF05AEF7DF054505510D8B49C
:10FAE60077EF7DF079EF7DF082EF7DF05850591079
:10FAF600D8A480EF7DF082EF7DF05AEF7DF0520EB4
:10FB0600156EE5EC72F05AEF7DF0FEEF7FF0000027
:10FB160000000000000000000000000000000000DF
:10FB260000000000000000000000000000000000CF
:10FB360000000000000920506C6561736520656E49
:10FB460074657220746865207475726E696E6720BC
:10FB5600646966666572656E7469616C3A20737075
:10FB6600656564202B20646966666572656E7469D6
:10FB7600616C203C20313237200D0A00202076208F
:10FB86000909202876296F6C74616765202D20523B
:10FB960065616420616E6420646973706C617920AC
:10FBA6006261747465727920766F6C746167652022
:10FBB6000D0A00496E76616C696420696E70757411
:10FBC6002E20506C65617365207265646F206E75BA
:10FBD6006D65726963616C20696E7075742E200D97
:10FBE6000A000920506C6561736520656E74657244
:10FBF60020746865206261636B776172642073703C
:10FC06006565642C2030202D20313237200D0A0006
:10FC16000920506C6561736520656E746572207489
:10FC2600686520666F7277617264207370656564BB
:10FC36002C2030202D20313237200D0A00506C61E7
:10FC4600636520616C6C20666976652073656E73EA
:10FC56006F7273206F6E20612077686974652073F8
:10FC6600757266616365200A0D00506C61636520DC
:10FC7600616C6C20666976652073656E736F72734E
:10FC8600206F6E206120626C61636B2073757266F3
:10FC9600616365200A0D00496E76616C69642065B2
:10FCA6006E7472792E2020456E7465722073656EAF
:10FCB600736F72206E756D6265722C20302D342044
:10FCC6000A0D002020722009092028722965616426
:10FCD6002063616C696272617465642073656E731A
:10FCE6006F7273200D0A00202042200909205768F0
:10FCF60065656C7320726F74617465202842296192
:10FD0600636B77617264200D0A0020206420090964
:10FD1600202864296973706C61792073656E736F2E
:10FD26007220782076616C7565200D0A00202046C9
:10FD360020090920576865656C7320726F746174B9
:10FD460065202846296F7277617264200D0A0009C2
:10FD56002A20202020202020202020202020202093
:10FD6600202020202020202020202020202A0D0AAC
:10FD760000092A202020202020446961676E6F73C5
:10FD8600746963204D656E75202020202020202A6E
:10FD96000D0A00092A2020204150534320313239D0
:10FDA60039202D20506F6C6F6C75203370692020C0
:10FDB600202A0D0A00092A2A2A2A2A2A2A2A2A2A2F
:10FDC6002A2A2A2A2A2A2A2A2A2A2A2A2A2A2A2A8D
:10FDD6002A2A2A2A0D0A00202063200909202863DE
:10FDE60029616C6962726174652073656E736F72E6
:10FDF60073200D0A0057686974652063616C696237
:10FE0600726174696F6E20636F6D706C65746520C6
:10FE16000A0D00426C61636B2063616C69627261FA
:10FE260074696F6E20636F6D706C657465200A0D62
:10FE360000436F6D6D616E64204B65792009204427
:10FE460065736372697074696F6E200D0A00507273
:10FE560065737320616E79206B657920746F2063FA
:10FE66006F6E74696E7565200A0D0020206D20097D
:10FE760009205265667265736820286D29656E755E
:10FE8600200D0A0043616C6962726174696F6E20AD
:10FE9600636F6D706C657465200A0D004261747441
:10FEA60065727920766F6C74616765203D202575D3
:10FEB600200A0D00202052200909202852296967AE
:10FEC6006874207475726E200D0A00202053200974
:10FED6000920285329746F70206D6F746F72200D7E
:10FEE6000A0020204C20090920284C296566742028
:10FEF6007475726E200D0A0053656E736F7220253D
:10FF060075203D202575200A0D0053656E736F72AE
:10FF16002025643A2025750A0053656E736F722E8C
:10FF26002025642025750A0043616C69627261743C
:10FF36006500202020474F202020002020534554D4
:10FF460020202000202052756E20202000205245BF
:10FF56004144592020002020526561642020002061
:10FF660020646F6E65202000202053746F7020205F
:10FF76000020202575207320200020204C65667403
:10FF8600202000205269676874202000466F72772F
:10FF9600617264200053656E736F72732000426154
:10FFA600747465727920004261636B7761726400D4
:10FFB600446961676E6F736500436F6D706C65743D
:10FFC6006500436F756E74696E67004175746F20C6
:10FFD60043616C0053656E736F72200053656E73D8
:10FFE6006F7273002575206D5600257520257500E6
:0AFFF60020257520000070EF6CF06C
:020000040030CA
:0A000000ECFEF7FF9FFFFFFFFFFF7C
:00000001FF
