:04000000FEEF7FF0A0
:10DD6600120012001200120012001200120012001D
:10DD7600B88E1200B89E1200000E72EC71F01200FE
:10DD8600026E025034EC6FF0120001C04DF002C07A
:10DD96004EF0120001C051F002C052F0120001C054
:10DDA6004FF002C050F0120001C047F002C048F028
:10DDB600120001C04BF002C04CF0120001C049F045
:10DDC60002C04AF012000250B76E600007F0B6FFBC
:10DDD6001200FCEC6EF04BEC73F0F3EC6EF01200FC
:10DDE600600E3901D96FDB6BDD6B070EDF6FDE6B03
:10DDF60012003901C06BC16BC26BC36BC46BC56BC0
:10DE0600C66BC76B12003901A3B70CEF6FF00FEFAB
:10DE16006FF0010E10EF6FF0000E1200026E600040
:10DE26000BF0B8FF600007F0B9FFB89E3901A39F59
:10DE360012003901A6B522EF6FF025EF6FF0010E43
:10DE460026EF6FF0000E1200016E3901A3A92EEF26
:10DE56006FF030EF6FF028EF6FF0600007F0EAFD2B
:10DE66001200016E3901A6A73BEF6FF03DEF6FF090
:10DE760035EF6FF0600007F0D2FD1200220E266E1D
:10DE8600000E1A6E20C01BF021C01CF0260E1D6E5F
:10DE960080EC70F012007CEC6FF00009D8B456EFFD
:10DEA6006FF058EF6FF04EEF6FF0B70E27EC6FF094
:10DEB600120000EE60F0530EEE6AE806FDE100EE99
:10DEC60053F0090EEE6AE806FDE10001CDEF77F0AA
:10DED6006F00D8FE07F06F00DCFE08F00850036EF6
:10DEE6000750056E03C006F005C001F006C002F03B
:10DEF6001200016A3901A3A983EF6FF085EF6FF075
:10DF06008FEF6FF03D01F2AB8BEF6FF08DEF6FF09F
:10DF16008FEF6FF0010E016E01501200016A390198
:10DF2600A6A798EF6FF09AEF6FF0A4EF6FF03D01A0
:10DF3600DAABA0EF6FF0A2EF6FF0A4EF6FF0010E77
:10DF4600016E0150120008BEABEF6FF0ADEF6FF03F
:10DF5600B3EF6FF007C007F008C008F0BFEF6FF02F
:10DF660007C009F008C00AF0091E0A1E094A0A2A53
:10DF760009C007F00AC008F01200230E296E20C05F
:10DF86002AF02D6A000E2C6E346A000E336E2A0EAD
:10DF96001A6E21C01BF022C01CF0290E1D6E80ECEB
:10DFA60070F01AC027F01BC028F020502C24D96E20
:10DFB600DA6ADF6A27C020F028C021F012003D018E
:10DFC600D46BD66BD86BB00EDA6F800EDB6FDC6B62
:10DFD600E10EDD6F040EDE6FDF6BE06BE16BE26B73
:10DFE6006E0E016EDD0E026EDCEC6EF0700E016ED2
:10DFF600DD0E026EE1EC6EF06C0E016EDD0E026E51
:10E00600D7EC6EF05A6A12003D01EC6BED6BEE6BCD
:10E01600EF6BF06BF16BB00EF26F800EF36FF46B7B
:10E02600670EF56FF66BF76BF86BF96BFA6B680EAC
:10E03600016EDD0E026ECDEC6EF06A0E016EDD0E27
:10E04600026ED2EC6EF0660E016EDD0E026EC8EC4C
:10E056006EF05B6A1200036E7CEC6FF00009D8B4B8
:10E0660037EF70F039EF70F02FEF70F0B90E27EC44
:10E076006FF07CEC6FF00009D8B444EF70F046EF17
:10E0860070F03CEF70F0035027EC6FF07CEC6FF013
:10E096000009D8B451EF70F053EF70F049EF70F00B
:10E0A600025027EC6FF01200026E7CEC6FF0000954
:10E0B600D8B460EF70F062EF70F058EF70F0B80E01
:10E0C60027EC6FF07CEC6FF00009D8B46DEF70F0C0
:10E0D6006FEF70F065EF70F0010E27EC6FF07CECDF
:10E0E6006FF00009D8B47AEF70F07CEF70F072EF41
:10E0F60070F0025027EC6FF012001BC01EF01CC01F
:10E106001FF0546A000E536E95EF70F01AC00BF0B4
:10E116001E0E0C6E1DC00DF032EC76F00B50532621
:10E126000C50542260007BF0F6FF60007FF0F7FF92
:10E13600F86A0800F5500009D8A4A4EF70F0A6EF1D
:10E1460070F089EF70F053C01AF054C01BF0120043
:10E156007CEC6FF00009D8B4B3EF70F0B5EF70F057
:10E16600ABEF70F0BA0E27EC6FF006EC6FF000091B
:10E17600D8B4C0EF70F0C2EF70F0B8EF70F0CEEF29
:10E1860070F006EC6FF00009D8B4CCEF70F0CEEF6B
:10E1960070F0C4EF70F068EC72F0630AD8A4D6EFA2
:10E1A60070F0D8EF70F0C4EF70F012007CEC6FF0F6
:10E1B6000009D8B4E1EF70F0E3EF70F0D9EF70F03A
:10E1C600B10E27EC6FF006EC6FF00009D8B4EEEF55
:10E1D60070F0F0EF70F0E6EF70F068EC72F0066E3B
:10E1E60006EC6FF00009D8B4FBEF70F0FDEF70F0AD
:10E1F600F3EF70F068EC72F0076E0750056E046A74
:10E2060006500424026E000E0520036E1200035011
:10E216000410D8B411EF71F013EF71F037EF71F00D
:10E22600010E056E1BEF71F0D89003360436052AF1
:10E2360004AE20EF71F022EF71F017EF71F003508A
:10E24600015C04500258D8A02BEF71F02DEF71F04D
:10E2560031EF71F00350015E0450025AD890043237
:10E266000332052E22EF71F001C001F002C002F068
:10E276001200026E7CEC6FF00009D8B445EF71F025
:10E2860047EF71F03DEF71F0C10E27EC6FF07CECBB
:10E296006FF00009D8B452EF71F054EF71F04AEF05
:10E2A60071F0025027EC6FF07CEC6FF00009D8B4E7
:10E2B6005FEF71F061EF71F057EF71F0C50E27EC6B
:10E2C6006FF07CEC6FF00009D8B46CEF71F06EEF74
:10E2D60071F064EF71F0025027EC6FF01200026EDD
:10E2E6007CEC6FF00009D8B47BEF71F07DEF71F034
:10E2F60073EF71F0C10E27EC6FF07CEC6FF0000944
:10E30600D8B488EF71F08AEF71F080EF71F00250A7
:10E3160027EC6FF07CEC6FF00009D8B495EF71F044
:10E3260097EF71F08DEF71F0C50E27EC6FF07CEC76
:10E336006FF00009D8B4A2EF71F0A4EF71F09AEF74
:10E3460071F0025027EC6FF01200066A000E056E9F
:10E3560003500410D8B4B2EF71F0B4EF71F0DCEFF3
:10E3660071F0010E076EBCEF71F0D89003360436DB
:10E37600072A04AEC1EF71F0C3EF71F0B8EF71F088
:10E38600D890053606360350015C04500258D8A0D2
:10E39600CFEF71F0D1EF71F0D6EF71F00350015E5F
:10E3A6000450025A0580D89004320332072EC3EF78
:10E3B60071F005C001F006C002F012002868276A55
:10E3C60019EF72F024EC72F0286E0D0E2818D8A4FE
:10E3D600EFEF71F0F1EF71F0F3EF71F019EF72F00A
:10E3E6002F0E2864F9EF71F0FBEF71F003EF72F076
:10E3F600390E286401EF72F003EF72F013EF72F03A
:10E40600D60E206EFC0E216E41EC6FF0C90E206E0A
:10E41600FB0E216E41EC6FF0276A286819EF72F047
:10E4260027500A0DF3502824D00F276E0D0E2818FA
:10E43600D8A420EF72F022EF72F0E5EF71F02750CA
:10E44600120002684DEF72F01CEC6FF00009D8B4B0
:10E456002FEF72F031EF72F04DEF72F0B2EC72F016
:10E46600026E91EC6FF00009D8B43CEF72F03EEF0B
:10E4760072F04DEF72F0025034EC6FF00D0E021890
:10E48600D8A448EF72F04AEF72F04DEF72F00A0E20
:10E4960034EC6FF02F0E026453EF72F055EF72F00A
:10E4A6005DEF72F07A0E02645BEF72F05DEF72F070
:10E4B60066EF72F00D0E0218D8A464EF72F066EFE4
:10E4C60072F027EF72F0025012003901A3A76EEF27
:10E4D60072F070EF72F068EF72F05B6A3D01F9A7B7
:10E4E60077EF72F079EF72F086EF72F05B8202D806
:10E4F60086EF72F00500FA6E5150FD6E5250FE6EB8
:10E50600FF6AFA5012003D01F9A38CEF72F08EEF0C
:10E5160072F09BEF72F05B8402D89BEF72F00500FD
:10E52600FA6E4F50FD6E5050FE6EFF6AFA501200A2
:10E536005B50D8B4A1EF72F0A3EF72F0AFEF72F0B8
:10E5460002D8AFEF72F00500FA6E4D50FD6E4E50D8
:10E55600FE6EFF6AFA5012003D01E85112003901C1
:10E56600A6A5B8EF72F0BAEF72F0B2EF72F05A6A7F
:10E576003D01E1A7C1EF72F0C3EF72F0D0EF72F088
:10E586005A8202D8D0EF72F00500FA6E4B50FD6E3B
:10E596004C50FE6EFF6AFA5012003D01E1A3D6EF21
:10E5A60072F0D8EF72F0E5EF72F05A8402D8E5EF18
:10E5B60072F00500FA6E4950FD6E4A50FE6EFF6A13
:10E5C600FA5012005A50D8B4EBEF72F0EDEF72F039
:10E5D600F9EF72F002D8F9EF72F00500FA6E4750C3
:10E5E600FD6E4850FE6EFF6AFA5012003D01D05192
:10E5F6001200076A7CEC6FF00009D8B405EF73F0DF
:10E6060007EF73F0FDEF72F0B80E27EC6FF07CECBD
:10E616006FF00009D8B412EF73F014EF73F00AEF3D
:10E6260073F0045027EC6FF041EF73F07CEC6FF061
:10E636000009D8B421EF73F023EF73F041EF73F0C4
:10E6460007500224056E000E0320066E600017F0C8
:10E65600F6FF60001BF0F7FF000EF86E0F0EF76472
:10E6660003D00800F55007D06F00DBFFE9FF6F000D
:10E67600DFFFEAFFEF5027EC6FF0072A0450075C34
:10E68600D8A048EF73F04AEF73F019EF73F0120059
:10E69600BE6ABD6ABA6ABB6ABC6A070EC66EC26843
:10E6A600BF0EC36E840EC46EC5683A01706B606B94
:10E6B6002F0E506F070E806FEF0E406F716B816BE0
:10E6C600516B416B616B5A6B5B6B6A6B6B6B7A6BF5
:10E6D6007B6B826B426B526B180E626F726B436977
:10E6E600536963697369070E836F44695469646982
:10E6F60074690F0E846F0F0EE86F250E106F160EDD
:10E706000E6F210E136F0F0E116F220E146F170E60
:10E71600E56F040EC36F130EE16F0C0EDD6F140E62
:10E72600E26F120ECA6F0D0E156F130E166F1200E2
:10E736000550D8B4A1EF73F0A3EF73F0ABEF73F00D
:10E746000550D8A4A9EF73F0ABEF73F0B0EF73F0F8
:10E756000350C3EC6EF0F0EF73F00550D96EDA6A31
:10E76600090ED926DE50DE10D8B4BCEF73F0BEEF2A
:10E7760073F0D7EF73F00550D96EDA6A090ED92611
:10E786000550E16EE26A020EE126DE50E65CE650D6
:10E79600800A0A6EDE50800A0A58D8B0D5EF73F0A8
:10E7A600D7EF73F0F0EF73F00550D96EDA6A020E08
:10E7B600D926DF50066E0550D96EDA6ADF50062478
:10E7C600D96EDA6A60000FF0DFFF0550D96EDA6A9B
:10E7D600020ED926DE2A000EDD221200066A02BECD
:10E7E600F9EF73F0F7EF73F0FFEF73F0016C021EB1
:10E7F600D8B0022A010E066E04BE06EF74F004EFCE
:10E8060074F00AEF74F0036C041ED8B0042A0350A7
:10E816000410D8B411EF74F013EF74F037EF74F0FE
:10E82600010E056E1BEF74F0D89003360436052AE8
:10E8360004AE20EF74F022EF74F017EF74F003507B
:10E84600015C04500258D8A02BEF74F02DEF74F041
:10E8560031EF74F00350015E0450025AD89004322E
:10E866000332052E22EF74F00650D8B43DEF74F053
:10E876003FEF74F043EF74F0016C021ED8B0022A29
:10E8860001C001F002C002F012007CEC6FF000093A
:10E89600D8B450EF74F052EF74F048EF74F0B40E41
:10E8A60027EC6FF0126A06EC6FF00009D8B45EEF41
:10E8B60074F060EF74F056EF74F01250080FD96ED2
:10E8C600DA6A68EC72F0DF6E06EC6FF00009D8B415
:10E8D6006FEF74F071EF74F067EF74F012500D0F74
:10E8E600D96EDA6A68EC72F0DF6E12500D0FD96ECF
:10E8F600DA6ADF50046E0450066E056A1250080F7D
:10E90600D96EDA6ADF50076E07500526000E06221A
:10E916001250020DF350A90FD96EDA6A600017F093
:10E92600DEFF60001BF0DDFF122A040E12649EEF6C
:10E9360074F0A0EF74F056EF74F0A90E1200066A98
:10E9460004BEAAEF74F0A8EF74F0B0EF74F0036C95
:10E95600041ED8B0042A010E066E02BEB7EF74F08C
:10E96600B5EF74F0BDEF74F0016C021ED8B0022A48
:10E97600010E061A086A000E076E03500410D8B47A
:10E98600C7EF74F0C9EF74F0F1EF74F0010E056E85
:10E99600D1EF74F0D89003360436052A04AED6EFCC
:10E9A60074F0D8EF74F0CDEF74F0D89007360836CF
:10E9B6000350015C04500258D8A0E4EF74F0E6EF6F
:10E9C60074F0EBEF74F00350015E0450025A0780B6
:10E9D600D89004320332052ED8EF74F00650D8B41E
:10E9E600F7EF74F0F9EF74F0FDEF74F0076C081EA2
:10E9F600D8B0082A07C001F008C002F01200F50ED0
:10EA0600206EFB0E216E41EC6FF0CB0E206EFD0EDC
:10EA1600216E41EC6FF0650E206EFD0E216E41EC0D
:10EA26006FF0A90E206EFD0E216E41EC6FF0870E81
:10EA3600206EFD0E216E41EC6FF0650E206EFD0E10
:10EA4600216E41EC6FF0CB0E206EFD0E216E41EC77
:10EA56006FF0D60E206EFC0E216E41EC6FF0470E65
:10EA6600206EFE0E216E41EC6FF0ED0E206EFD0E57
:10EA7600216E41EC6FF0D90E206EFC0E216E41EC3A
:10EA86006FF0200E206EFD0E216E41EC6FF0F50E3C
:10EA9600206EFB0E216E41EC6FF0920E206EFB0E87
:10EAA600216E41EC6FF0F50E206EFB0E216E41ECEF
:10EAB6006FF0430E206EFD0E216E41EC6FF0FD0EE1
:10EAC600206EFC0E216E41EC6FF0F80E206EFE0EED
:10EAD600216E41EC6FF0CA0E206EFE0E216E41ECE7
:10EAE6006FF0E10E206EFE0E216E41EC6FF0F50E1A
:10EAF600206EFB0E216E41EC6FF0810E206EFE0E35
:10EB0600216E41EC6FF0D60E206EFC0E216E41ECAC
:10EB16006FF01200406E40C042F04EEC6FF0BF0E38
:10EB2600026EFF0E036E080E046EFCEC72F0480EC9
:10EB3600016E900E11EC6FF0BBEC6EF0010E026EE2
:10EB4600000E2EEC70F0350E206E6E0E216EFF0E4E
:10EB5600226E42C023F0246AC0EC6FF02050416E52
:10EB6600350E026E036A41C004F0FCEC72F027EF2A
:10EB760076F06BEC6FF001C03EF002C03FF01B0E6A
:10EB86003E5CB70E3F58D8A0CBEF75F0CDEF75F0D1
:10EB960027EF76F04206026A000E016EE6EC6EF092
:10EBA60018EF76F04EEC6FF0010E026E000E2EECB2
:10EBB60070F02F0E026EFF0E036E080E046EFCEC54
:10EBC60072F027EF76F0010E026E000E2EEC70F05A
:10EBD600380E026EFF0E036E080E046EFCEC72F029
:10EBE60027EF76F0010E026E000E2EEC70F04A0E44
:10EBF600026EFF0E036E080E046EFCEC72F027EF39
:10EC060076F0010E026E000E2EEC70F0350E206EC0
:10EC16006E0E216EFF0E226E42C023F0246AC0ECF7
:10EC26006FF02050416EB3EF75F04250000AD8B431
:10EC3600D5EF75F0010AD8B4E6EF75F0030AD8B43B
:10EC4600F5EF75F004EF76F04250D8A42DEF76F08C
:10EC56002FEF76F0BCEF75F0BDEC6EF01200126A85
:10EC6600000E116E0C50D96EDA6A6F007BFFF6FF4C
:10EC76006F0077FFF7FFF86A0800F550250AD8A459
:10EC860047EF76F049EF76F0B1EF77F00C50D96E9A
:10EC9600DA6ADE2A000EDD22566A000E556E55C06F
:10ECA60059F0576858680C50D96EDA6A6F0078FFC9
:10ECB60013F06F0074FF14F060004FF0F6FF600071
:10ECC60053F0F7FFF86A0800F550640AD8B46EEFFF
:10ECD60076F070EF76F081EF76F060004FF0F6FF99
:10ECE600600053F0F7FFF86A0800F550690AD8A4E7
:10ECF6007FEF76F081EF76F019EF77F00D50D96E51
:10ED0600DA6A020EDF26DF5CD96EDA6A6F0078FFF8
:10ED160015F06F0078FF16F0010E13240E6E000E2C
:10ED260014200F6E0C50D96EDA6A60003BF0DEFFDD
:10ED360060003FF0DDFF200E196E16BEA5EF76F0DF
:10ED4600A8EF76F0010EA9EF76F0000E106E190608
:10ED56001950600FD96EDA6A15C001F016C002F0BC
:10ED6600046A0A0E036EF1EC73F001C007F002C0EC
:10ED760008F0A6EC6FF00750300FDF6E15C001F0FB
:10ED860016C002F0046A0A0E036EA2EC74F001C00B
:10ED960015F002C016F0114A122A15501610D8B4F2
:10EDA600D7EF76F0D9EF76F0E1EF76F01950D8A4E8
:10EDB600DFEF76F0E1EF76F0AAEF76F01950D8B4EF
:10EDC600E7EF76F0E9EF76F00AEF77F01050D8B477
:10EDD600EFEF76F0F1EF76F00AEF77F019061950BB
:10EDE600600FD96EDA6A2D0EDF6E114A122A0AEF0B
:10EDF60077F01950600FD96EDA6ADF500E6E0E503A
:10EE0600036E046A0BC005F09BEC73F0192A200E02
:10EE16001918D8A411EF77F013EF77F0FCEF76F01E
:10EE260011C00BF012C00CF0CCEF77F060004FF081
:10EE3600F6FF600053F0F7FFF86A0800F550750A10
:10EE4600D8A428EF77F02AEF77F0A6EF77F00D50E9
:10EE5600D96EDA6A020EDF26DF5CD96EDA6A6F00D7
:10EE660078FF15F06F0078FF16F0010E13240E6E72
:10EE7600000E14200F6E0C50D96EDA6A60003BF05B
:10EE8600DEFF60003FF0DDFF97EF77F0200E196E92
:10EE960019061950600FD96EDA6A15C001F016C04E
:10EEA60002F0046A0A0E036E0AEC71F00150300F8C
:10EEB600DF6E15C001F016C002F0046A0A0E036E7A
:10EEC600A8EC71F001C015F002C016F0114A122A22
:10EED60015501610D8B472EF77F074EF77F08CEF08
:10EEE60077F01950D8A47AEF77F07CEF77F04BEFF4
:10EEF60077F08CEF77F01950600FD96EDA6ADF5031
:10EF06000E6E0E50036E046A0BC005F09BEC73F098
:10EF1600192A200E1918D8A493EF77F095EF77F0F9
:10EF26007EEF77F013EF77F060004FF0F6FF6000AA
:10EF360053F0F7FFF86A0800F550750AD8B449EFA0
:10EF460077F0A6EF77F00C50D96EDA6ADE2A000E5B
:10EF5600DD220C6A000E0B6ECCEF77F00C50D96EEA
:10EF6600DA6A6F007BFFF6FF6F0077FFF7FFF86A3C
:10EF76000800F550036E046A0BC005F09BEC73F0B5
:10EF86000C50D96EDA6ADE2A000EDD220C6A010EFA
:10EF96000B6E1200ECEC6EF04BEC73F007EC70F0BD
:10EFA600E2EC6FF0C38A3A01509BCBBADDEF77F003
:10EFB600DFEF77F0FBEF7CF002EC75F04EEC6FF0D4
:10EFC600000E026E000E2EEC70F0AD0E026EFF0EFD
:10EFD600036E080E046EFCEC72F0D9EC70F002C001
:10EFE600DAF003C0DBF0C80E206EEA0E216EFF0ECB
:10EFF600226EDAC023F0DBC024F0C0EC6FF02050A4
:10F006000001DF6F010E026E000E2EEC70F0C80ECE
:10F01600026E036ADFC004F0FCEC72F024EC72F0BE
:10F026000001D56FD0EF7CF04EEC6FF0000E026E53
:10F03600000E2EEC70F0D10E026EFF0E036E080E5F
:10F04600046EFCEC72F0010E026E000E2EEC70F0F7
:10F05600920E026EFF0E036E080E046EFCEC72F04A
:10F06600D60E206EFC0E216E41EC6FF00001D16BC6
:10F076009BEF78F0530E206EFC0E216E41EC6FF084
:10F08600640E206EFE0E216E41EC6FF024EC72F0E1
:10F096000001C76F48EC74F00001D76FD96B000E02
:10F0A600D86FE06B040EE0655BEF78F05DEF78F00B
:10F0B6005FEF78F08AEF78F0E051020DD751F32434
:10F0C600D96EDA6A6F0078FF43F06F0074FF44F080
:10F0D600D8514324D86FD9514420D96F0E0E206ED3
:10F0E600FF0E216EE0C022F0236AE051020DD751D7
:10F0F600F324D96EDA6A6F0078FF24F06F0074FF8C
:10F1060025F041EC6FF00001E02B55EF78F0D85177
:10F11600D911D8A491EF78F093EF78F09BEF78F0BF
:10F12600010ED16F0B0E206EFE0E216E41EC6FF0BC
:10F136000001D151D8B4A2EF78F0A4EF78F03DEFFA
:10F1460078F0D26B1BEF79F0800E206EFC0E216EEC
:10F1560041EC6FF0640E206EFE0E216E41EC6FF0F6
:10F1660024EC72F00001C76F48EC74F00001D76F11
:10F17600D96B000ED86FE06B040EE065C5EF78F032
:10F18600C7EF78F0C9EF78F0F4EF78F0E051020DB0
:10F19600D751F324D96EDA6A6F0078FF43F06F0017
:10F1A60074FF44F0D8514324D86FD9514420D96F05
:10F1B6000E0E206EFF0E216EE0C022F0236AE05193
:10F1C600020DD751F324D96EDA6A6F0078FF24F066
:10F1D6006F0074FF25F041EC6FF00001E02BBFEFEC
:10F1E60078F0880ED81907E1130ED919D8A4FEEFC6
:10F1F60078F000EF79F01BEF79F0010ED26F290E4F
:10F20600206EFE0E216E41EC6FF09A0E206EFE0E01
:10F21600216E41EC6FF0010E026E000E2EEC70F0C6
:10F22600B60E026EFF0E036E080E046EFCEC72F054
:10F236000001D251D8B422EF79F024EF79F0A7EF8C
:10F2460078F011EF78F04EEC6FF0000E026E000EC3
:10F256002EEC70F0530E026EFF0E036E080E046E57
:10F26600FCEC72F0010E026E000E2EEC70F0E20E57
:10F27600026EFF0E036E080E046EFCEC72F0D60EE4
:10F28600206EFC0E216E41EC6FF011EF78F04EEC23
:10F296006FF0000E026E000E2EEC70F0DA0E026EAB
:10F2A600FF0E036E070E046EFCEC72F0D60E206E97
:10F2B600FC0E216E41EC6FF0BD0E206EFC0E216E31
:10F2C60041EC6FF024EC72F00001D66F79EF79F023
:10F2D600D60E206EFC0E216E41EC6FF0AD0E206E48
:10F2E600FC0E216E41EC6FF065EF79F02F0ED665BE
:10F2F6007FEF79F081EF79F06BEF79F0350ED6611B
:10F3060087EF79F089EF79F06BEF79F0000E026EF6
:10F31600070E2EEC70F00001D65157EC70F07CEC25
:10F326006FF00009D8B49AEF79F09CEF79F092EF7C
:10F3360079F0870E27EC6FF00001DE6B000EDD6FB3
:10F34600DEBFAFEF79F0DE5109E1050EDD5DD8A035
:10F35600AFEF79F0B1EF79F0B3EF79F0FBEF79F039
:10F3660006EC6FF00009D8B4BBEF79F0BDEF79F089
:10F37600B3EF79F00001DD51BD0FD96EDA6A68ECA2
:10F3860072F0DF6E06EC6FF00009D8B4CDEF79F0BD
:10F39600CFEF79F0C5EF79F00001DD51C20FD96EDC
:10F3A600DA6A68EC72F0DF6E0001DD51C20FD96EC9
:10F3B600DA6ADF50436E4350456E446ADD51BD0F35
:10F3C600D96EDA6ADF50466E46504426000E452254
:10F3D600DD51020DF350B30FD96EDA6A600013F1F6
:10F3E600DEFF600017F1DDFFDD4BDE2BA3EF79F0CA
:10F3F600D651CF0FD56F200E206EFF0E216ED5C0D1
:10F4060022F0236AD551020DF350B30FD96EDA6A92
:10F416006F0078FF24F06F0074FF25F041EC6FF069
:10F4260011EF78F04EEC6FF0000E026E000E2EEC2F
:10F4360070F09B0E026EFF0E036E080E046EFCEC5F
:10F4460072F0D60E206EFC0E216E41EC6FF0D9ECF8
:10F4560070F002C0DAF003C0DBF0C80E206EEA0ED0
:10F46600216EFF0E226EDAC023F0DBC024F0C0EC62
:10F476006FF020500001DF6F010E026E000E2EECC1
:10F4860070F0C80E026E036ADFC004F0FCEC72F086
:10F49600B20E206EFE0E216EDAC022F0DBC023F023
:10F4A60041EC6FF011EF78F04EEC6FF0000E026E4B
:10F4B600000E2EEC70F0890E026EFF0E036E080E23
:10F4C600046EFCEC72F0D60E206EFC0E216E41EC42
:10F4D6006FF0260E206EFC0E216E41EC6FF0E1EC13
:10F4E60071F00001E16FE15172EC71F0C80E206E0F
:10F4F600F60E216EFF0E226EE1C023F0246AC0ECE8
:10F506006FF020500001DF6F010E026E000E2EEC30
:10F5160070F0C80E026E036ADFC004F0FCEC72F0F5
:10F526007CEC6FF00009D8B49BEF7AF09DEF7AF08F
:10F5360093EF7AF0C10E27EC6FF07CEC6FF00009C8
:10F54600D8B4A8EF7AF0AAEF7AF0A0EF7AF000012B
:10F55600E15127EC6FF07CEC6FF00009D8B4B6EF00
:10F566007AF0B8EF7AF0AEEF7AF0C50E27EC6FF0CE
:10F576007CEC6FF00009D8B4C3EF7AF0C5EF7AF0EF
:10F58600BBEF7AF00001E15127EC6FF011EF78F054
:10F596004EEC6FF0000E026E000E2EEC70F0A40E14
:10F5A600026EFF0E036E080E046EFCEC72F0D60EB1
:10F5B600206EFC0E216E41EC6FF0F80E206EFB0EF5
:10F5C600216E41EC6FF0E1EC71F00001E16FE15169
:10F5D6003CEC71F0C80E206EF60E216EFF0E226E08
:10F5E600E1C023F0246AC0EC6FF020500001DF6F09
:10F5F600010E026E000E2EEC70F0C80E026E036A4B
:10F60600DFC004F0FCEC72F07CEC6FF00009D8B4BB
:10F616000FEF7BF011EF7BF007EF7BF0C20E27ECCC
:10F626006FF07CEC6FF00009D8B41CEF7BF01EEF96
:10F636007BF014EF7BF00001E15127EC6FF07CECDE
:10F646006FF00009D8B42AEF7BF02CEF7BF022EFA5
:10F656007BF0C60E27EC6FF07CEC6FF00009D8B497
:10F6660037EF7BF039EF7BF02FEF7BF00001E151B4
:10F6760027EC6FF011EF78F04EEC6FF0000E026E93
:10F68600000E2EEC70F0770E026EFF0E036E080E63
:10F69600046EFCEC72F0D60E206EFC0E216E41EC70
:10F6A6006FF0260E206EFC0E216E41EC6FF0E1EC41
:10F6B60071F00001E16F4B0E206EFB0E216E41ECE6
:10F6C6006FF0E1EC71F00001DC6FE151DC25D36FE6
:10F6D600D46BD437DCC001F0E151B9EC6EF0C80E42
:10F6E600206EF00E216EFF0E226EE1C023F0246A1A
:10F6F600DCC025F0266AC0EC6FF020500001DF6FF9
:10F70600010E026E000E2EEC70F0C80E026E036A39
:10F71600DFC004F0FCEC72F07CEC6FF00009D8B4AA
:10F7260097EF7BF099EF7BF08FEF7BF0C10E27EC24
:10F736006FF07CEC6FF00009D8B4A4EF7BF0A6EF75
:10F746007BF09CEF7BF00001D35127EC6FF07CEC53
:10F756006FF00009D8B4B2EF7BF0B4EF7BF0AAEFFC
:10F766007BF0C50E27EC6FF07CEC6FF00009D8B487
:10F77600BFEF7BF0C1EF7BF0B7EF7BF00001E1510B
:10F7860027EC6FF011EF78F04EEC6FF0000E026E82
:10F79600000E2EEC70F0800E026EFF0E036E080E49
:10F7A600046EFCEC72F0D60E206EFC0E216E41EC5F
:10F7B6006FF0260E206EFC0E216E41EC6FF0E1EC30
:10F7C60071F00001E16F4B0E206EFB0E216E41ECD5
:10F7D6006FF0E1EC71F00001DC6FE151DC25D36FD5
:10F7E600D46BD437DCC001F0E151BAEC6EF0C80E30
:10F7F600206EF00E216EFF0E226EE1C023F0246A09
:10F80600DCC025F0266AC0EC6FF020500001DF6FE7
:10F81600010E026E000E2EEC70F0C80E026E036A28
:10F82600DFC004F0FCEC72F07CEC6FF00009D8B499
:10F836001FEF7CF021EF7CF017EF7CF0C10E27EC78
:10F846006FF07CEC6FF00009D8B42CEF7CF02EEF53
:10F856007CF024EF7CF00001E15127EC6FF07CECAA
:10F866006FF00009D8B43AEF7CF03CEF7CF032EF51
:10F876007CF0C50E27EC6FF07CEC6FF00009D8B475
:10F8860047EF7CF049EF7CF03FEF7CF00001D3516D
:10F8960027EC6FF011EF78F04EEC6FF0000E026E71
:10F8A600000E2EEC70F0650E026EFF0E036E080E53
:10F8B600046EFCEC72F0D60E206EFC0E216E41EC4E
:10F8C6006FF0BFEC6EF07CEC6FF00009D8B46EEF11
:10F8D6007CF070EF7CF066EF7CF0C10E27EC6FF0E9
:10F8E6007CEC6FF00009D8B47BEF7CF07DEF7CF008
:10F8F60073EF7CF0000E27EC6FF07CEC6FF00009E4
:10F90600D8B488EF7CF08AEF7CF080EF7CF0C50EEF
:10F9160027EC6FF07CEC6FF00009D8B495EF7CF023
:10F9260097EF7CF08DEF7CF0000E27EC6FF011EF77
:10F9360078F04EEC6FF0000E026E000E2EEC70F0BA
:10F94600AD0E026EFF0E036E080E046EFCEC72F036
:10F95600D9EC70F002C0DAF003C0DBF0C80E206EFE
:10F96600EA0E216EFF0E226EDAC023F0DBC024F011
:10F97600C0EC6FF020500001DF6F010E026E000E2A
:10F986002EEC70F0C80E026E036ADFC004F0FCECC9
:10F9960072F002EC75F011EF78F0D551420AD8B446
:10F9A600CBEF7AF0040AD8B457EF7AF00A0AD8B443
:10F9B6003FEF7BF01E0AD8B4C7EF7BF0010AD8B43C
:10F9C6004FEF7CF0300AD8B417EF78F0070AD8B4B6
:10F9D6004AEF79F0090AD8B49CEF7CF01F0AD8B434
:10F9E60026EF79F0040AD8B415EF7AF011EF78F023
:10F9F600CBAA00EF7DF002EF7DF090EF7DF002ECF8
:10FA060075F04EEC6FF0000E026E000E2EEC70F0EC
:10FA1600410E026EFF0E036E080E046EFCEC72F0D1
:10FA2600D9EC70F002C0DAF003C0DBF0C80E206E2D
:10FA3600EA0E216EFF0E226EDAC023F0DBC024F040
:10FA4600C0EC6FF020500001DF6F010E026E000E59
:10FA56002EEC70F0C80E026E036ADFC004F0FCECF8
:10FA660072F03D0E446EE10E436E400EE82EFED758
:10FA7600432EFCD7442EFAD7000E026E000E2EEC53
:10FA860070F0C80E026EFF0E036E080E046EFCECDC
:10FA960072F0ABEC70F0010E026E000E2EEC70F000
:10FAA6005C0E026EFF0E036E080E046EFCEC72F026
:10FAB600060E8DEC75F0100E436E940EE82EFED7F2
:10FAC600432EFCD700D0480E016E910E11EC6FF05C
:10FAD600BBEC6EF03901A39F190E72EC71F06BEC62
:10FAE6006FF001C09DF002C09EF0E00E00019D5D2A
:10FAF600E40E9E59D8A082EF7DF084EF7DF072EF80
:10FB06007DF03901A3AF8AEF7DF08CEF7DF072EFC7
:10FB16007DF0BFEC6EF072EF7DF0FEEF7FF000003F
:10FB260000000000000000000000000000000000CF
:10FB360000000000000000000000000000000000BF
:10FB460000000000000920506C6561736520656E39
:10FB560074657220746865207475726E696E6720AC
:10FB6600646966666572656E7469616C3A20737065
:10FB7600656564202B20646966666572656E7469C6
:10FB8600616C203C20313237200D0A00202076207F
:10FB96000909202876296F6C74616765202D20522B
:10FBA60065616420616E6420646973706C6179209C
:10FBB6006261747465727920766F6C746167652012
:10FBC6000D0A00496E76616C696420696E70757401
:10FBD6002E20506C65617365207265646F206E75AA
:10FBE6006D65726963616C20696E7075742E200D87
:10FBF6000A000920506C6561736520656E74657234
:10FC060020746865206261636B776172642073702B
:10FC16006565642C2030202D20313237200D0A00F6
:10FC26000920506C6561736520656E746572207479
:10FC3600686520666F7277617264207370656564AB
:10FC46002C2030202D20313237200D0A00506C61D7
:10FC5600636520616C6C20666976652073656E73DA
:10FC66006F7273206F6E20612077686974652073E8
:10FC7600757266616365200A0D00506C61636520CC
:10FC8600616C6C20666976652073656E736F72733E
:10FC9600206F6E206120626C61636B2073757266E3
:10FCA600616365200A0D00496E76616C69642065A2
:10FCB6006E7472792E2020456E7465722073656E9F
:10FCC600736F72206E756D6265722C20302D342034
:10FCD6000A0D002020722009092028722965616416
:10FCE6002063616C696272617465642073656E730A
:10FCF6006F7273200D0A00202042200909205768E0
:10FD060065656C7320726F74617465202842296181
:10FD1600636B77617264200D0A0020206420090954
:10FD2600202864296973706C61792073656E736F1E
:10FD36007220782076616C7565200D0A00202046B9
:10FD460020090920576865656C7320726F746174A9
:10FD560065202846296F7277617264200D0A0009B2
:10FD66002A20202020202020202020202020202083
:10FD7600202020202020202020202020202A0D0A9C
:10FD860000092A202020202020446961676E6F73B5
:10FD9600746963204D656E75202020202020202A5E
:10FDA6000D0A00092A2020204150534320313239C0
:10FDB60039202D20506F6C6F6C75203370692020B0
:10FDC600202A0D0A00092A2A2A2A2A2A2A2A2A2A1F
:10FDD6002A2A2A2A2A2A2A2A2A2A2A2A2A2A2A2A7D
:10FDE6002A2A2A2A0D0A00202063200909202863CE
:10FDF60029616C6962726174652073656E736F72D6
:10FE060073200D0A0057686974652063616C696226
:10FE1600726174696F6E20636F6D706C65746520B6
:10FE26000A0D00426C61636B2063616C69627261EA
:10FE360074696F6E20636F6D706C657465200A0D52
:10FE460000436F6D6D616E64204B65792009204417
:10FE560065736372697074696F6E200D0A00507263
:10FE660065737320616E79206B657920746F2063EA
:10FE76006F6E74696E7565200A0D0020206D20096D
:10FE860009205265667265736820286D29656E754E
:10FE9600200D0A0043616C6962726174696F6E209D
:10FEA600636F6D706C657465200A0D004261747431
:10FEB60065727920766F6C74616765203D202575C3
:10FEC600200A0D002020522009092028522969679E
:10FED6006874207475726E200D0A00202053200964
:10FEE6000920285329746F70206D6F746F72200D6E
:10FEF6000A0020204C20090920284C296566742018
:10FF06007475726E200D0A0053656E736F7220252C
:10FF160075203D202575200A0D0053656E736F729E
:10FF26002025643A2025750A00202020474F2020EE
:10FF36002000202053455420202000202052756E9A
:10FF460020202000205245414459202000202052E4
:10FF56006561642020002020646F6E6520200020EB
:10FF66002053746F702020002020257520732020D8
:10FF76000020204C65667420200020526967687452
:10FF8600202000466F7277617264200053656E739D
:10FF96006F72732000426174746572792000426149
:10FFA600636B7761726400446961676E6F736500A5
:10FFB600436F6D706C65746500436F756E74696E22
:10FFC60067004175746F2043616C0043616C696220
:10FFD6007261740053656E736F72200053656E73A1
:10FFE6006F7273002575206D5600257520257500E6
:0AFFF6002025752000005CEF6FF07D
:020000040030CA
:0A000000ECFEF7FF9FFFFFFFFFFF7C
:00000001FF
