:04000000FEEF7FF0A0
:10DD80001200120012001200120012001200120003
:10DD9000B88E1200B89E1200000E7FEC71F01200D7
:10DDA000026E025041EC6FF0120001C04DF002C053
:10DDB0004EF0120001C051F002C052F0120001C03A
:10DDC0004FF002C050F0120001C047F002C048F00E
:10DDD000120001C04BF002C04CF0120001C049F02B
:10DDE00002C04AF012000250B76E600007F0B6FFA2
:10DDF000120009EC6FF058EC73F000EC6FF01200B9
:10DE0000600E3901D96FDB6BDD6B070EDF6FDE6BE8
:10DE100012003901C06BC16BC26BC36BC46BC56BA5
:10DE2000C66BC76B12003901A3B719EF6FF01CEF77
:10DE30006FF0010E1DEF6FF0000E1200026E600019
:10DE40000BF0B8FF600007F0B9FFB89E3901A39F3F
:10DE500012003901A6B52FEF6FF032EF6FF0010E0F
:10DE600033EF6FF0000E1200016E3901A3A93BEFF2
:10DE70006FF03DEF6FF035EF6FF0600007F0EAFDF7
:10DE80001200016E3901A6A748EF6FF04AEF6FF05C
:10DE900042EF6FF0600007F0D2FD1200220E266EF6
:10DEA000000E1A6E20C01BF021C01CF0260E1D6E45
:10DEB0008DEC70F0120089EC6FF00009D8B463EFBC
:10DEC0006FF065EF6FF05BEF6FF0B70E34EC6FF053
:10DED000120000EE60F0510EEE6AE806FDE100EE81
:10DEE00053F00B0EEE6AE806FDE10001DAEF77F081
:10DEF0006F00D8FE07F06F00DCFE08F00850036EDC
:10DF00000750056E03C006F005C001F006C002F020
:10DF10001200016A3901A3A990EF6FF092EF6FF040
:10DF20009CEF6FF03D01F2AB98EF6FF09AEF6FF05E
:10DF30009CEF6FF0010E016E01501200016A390171
:10DF4000A6A7A5EF6FF0A7EF6FF0B1EF6FF03D015F
:10DF5000DAABADEF6FF0AFEF6FF0B1EF6FF0010E36
:10DF6000016E0150120008BEB8EF6FF0BAEF6FF00B
:10DF7000C0EF6FF007C007F008C008F0CCEF6FF0FB
:10DF800007C009F008C00AF0091E0A1E094A0A2A39
:10DF900009C007F00AC008F01200230E296E20C045
:10DFA0002AF02D6A000E2C6E346A000E336E2A0E93
:10DFB0001A6E21C01BF022C01CF0290E1D6E8DECC4
:10DFC00070F01AC027F01BC028F020502C24D96E06
:10DFD000DA6ADF6A27C020F028C021F012003D0174
:10DFE000D46BD66BD86BB00EDA6F800EDB6FDC6B48
:10DFF000E10EDD6F040EDE6FDF6BE06BE16BE26B59
:10E00000880E016EDD0E026EE9EC6EF08A0E016E76
:10E01000DD0E026EEEEC6EF0860E016EDD0E026E0F
:10E02000E4EC6EF05C6A12003D01EC6BED6BEE6BA4
:10E03000EF6BF06BF16BB00EF26F800EF36FF46B61
:10E04000670EF56FF66BF76BF86BF96BFA6B820E78
:10E05000016EDD0E026EDAEC6EF0840E016EDD0EE6
:10E06000026EDFEC6EF0800E016EDD0E026ED5ECFE
:10E070006EF05D6A1200036E89EC6FF00009D8B48F
:10E0800044EF70F046EF70F03CEF70F0B90E34ECF6
:10E090006FF089EC6FF00009D8B451EF70F053EFD6
:10E0A00070F049EF70F0035034EC6FF089EC6FF0D2
:10E0B0000009D8B45EEF70F060EF70F056EF70F0CA
:10E0C000025034EC6FF01200026E89EC6FF0000920
:10E0D000D8B46DEF70F06FEF70F065EF70F0B80EC0
:10E0E00034EC6FF089EC6FF00009D8B47AEF70F07F
:10E0F0007CEF70F072EF70F0010E34EC6FF089EC91
:10E100006FF00009D8B487EF70F089EF70F07FEFFF
:10E1100070F0025034EC6FF012001BC01EF01CC0F7
:10E120001FF0546A000E536EA2EF70F01AC00BF08D
:10E130001E0E0C6E1DC00DF03FEC76F00B505326FA
:10E140000C50542260007BF0F6FF60007FF0F7FF78
:10E15000F86A0800F5500009D8A4B1EF70F0B3EFE9
:10E1600070F096EF70F053C01AF054C01BF012001C
:10E1700089EC6FF00009D8B4C0EF70F0C2EF70F016
:10E18000B8EF70F0BA0E34EC6FF013EC6FF00009DA
:10E19000D8B4CDEF70F0CFEF70F0C5EF70F0DBEFDB
:10E1A00070F013EC6FF00009D8B4D9EF70F0DBEF2A
:10E1B00070F0D1EF70F075EC72F0630AD8A4E3EF61
:10E1C00070F0E5EF70F0D1EF70F0120089EC6FF0B5
:10E1D0000009D8B4EEEF70F0F0EF70F0E6EF70F0F9
:10E1E000B10E34EC6FF013EC6FF00009D8B4FBEF14
:10E1F00070F0FDEF70F0F3EF70F075EC72F0066EFA
:10E2000013EC6FF00009D8B408EF71F00AEF71F069
:10E2100000EF71F075EC72F0076E0750056E046A3E
:10E2200006500424026E000E0520036E12000350F7
:10E230000410D8B41EEF71F020EF71F044EF71F0CC
:10E24000010E056E28EF71F0D89003360436052ACA
:10E2500004AE2DEF71F02FEF71F024EF71F0035049
:10E26000015C04500258D8A038EF71F03AEF71F019
:10E270003EEF71F00350015E0450025AD890043210
:10E280000332052E2FEF71F001C001F002C002F041
:10E290001200026E89EC6FF00009D8B452EF71F0F1
:10E2A00054EF71F04AEF71F0C10E34EC6FF089EC6D
:10E2B0006FF00009D8B45FEF71F061EF71F057EFC4
:10E2C00071F0025034EC6FF089EC6FF00009D8B4B3
:10E2D0006CEF71F06EEF71F064EF71F0C50E34EC1D
:10E2E0006FF089EC6FF00009D8B479EF71F07BEF33
:10E2F00071F071EF71F0025034EC6FF01200026EA9
:10E3000089EC6FF00009D8B488EF71F08AEF71F0F2
:10E3100080EF71F0C10E34EC6FF089EC6FF0000902
:10E32000D8B495EF71F097EF71F08DEF71F0025066
:10E3300034EC6FF089EC6FF00009D8B4A2EF71F003
:10E34000A4EF71F09AEF71F0C50E34EC6FF089EC28
:10E350006FF00009D8B4AFEF71F0B1EF71F0A7EF33
:10E3600071F0025034EC6FF01200066A000E056E78
:10E3700003500410D8B4BFEF71F0C1EF71F0E9EFB2
:10E3800071F0010E076EC9EF71F0D89003360436B4
:10E39000072A04AECEEF71F0D0EF71F0C5EF71F047
:10E3A000D890053606360350015C04500258D8A0B8
:10E3B000DCEF71F0DEEF71F0E3EF71F00350015E1E
:10E3C0000450025A0580D89004320332072ED0EF51
:10E3D00071F005C001F006C002F012002868276A3B
:10E3E00026EF72F031EC72F0286E0D0E2818D8A4CA
:10E3F000FCEF71F0FEEF71F000EF72F026EF72F0BB
:10E400002F0E286406EF72F008EF72F010EF72F032
:10E41000390E28640EEF72F010EF72F020EF72F0F8
:10E42000D40E206EFC0E216E4EEC6FF0C70E206EE7
:10E43000FB0E216E4EEC6FF0276A286826EF72F013
:10E4400027500A0DF3502824D00F276E0D0E2818E0
:10E45000D8A42DEF72F02FEF72F0F2EF71F0275089
:10E46000120002685AEF72F029EC6FF00009D8B47C
:10E470003CEF72F03EEF72F05AEF72F0BFEC72F0C8
:10E48000026E9EEC6FF00009D8B449EF72F04BEFCA
:10E4900072F05AEF72F0025041EC6FF00D0E02185C
:10E4A000D8A455EF72F057EF72F05AEF72F00A0EDF
:10E4B00041EC6FF02F0E026460EF72F062EF72F0C9
:10E4C0006AEF72F07A0E026468EF72F06AEF72F02F
:10E4D00073EF72F00D0E0218D8A471EF72F073EFA3
:10E4E00072F034EF72F0025012003901A3A77BEFF3
:10E4F00072F07DEF72F075EF72F05D6A3D01F9A781
:10E5000084EF72F086EF72F093EF72F05D8202D8C2
:10E5100093EF72F00500FA6E5150FD6E5250FE6E90
:10E52000FF6AFA5012003D01F9A399EF72F09BEFD8
:10E5300072F0A8EF72F05D8402D8A8EF72F00500C7
:10E54000FA6E4F50FD6E5050FE6EFF6AFA50120088
:10E550005D50D8B4AEEF72F0B0EF72F0BCEF72F075
:10E5600002D8BCEF72F00500FA6E4D50FD6E4E50B1
:10E57000FE6EFF6AFA5012003D01E85112003901A7
:10E58000A6A5C5EF72F0C7EF72F0BFEF72F05C6A3C
:10E590003D01E1A7CEEF72F0D0EF72F0DDEF72F047
:10E5A0005C8202D8DDEF72F00500FA6E4B50FD6E12
:10E5B0004C50FE6EFF6AFA5012003D01E1A3E3EFFA
:10E5C00072F0E5EF72F0F2EF72F05C8402D8F2EFD5
:10E5D00072F00500FA6E4950FD6E4A50FE6EFF6AF9
:10E5E000FA5012005C50D8B4F8EF72F0FAEF72F003
:10E5F00006EF73F002D806EF73F00500FA6E47508D
:10E60000FD6E4850FE6EFF6AFA5012003D01D05177
:10E610001200076A89EC6FF00009D8B412EF73F0AA
:10E6200014EF73F00AEF73F0B80E34EC6FF089EC6E
:10E630006FF00009D8B41FEF73F021EF73F017EFFC
:10E6400073F0045034EC6FF04EEF73F089EC6FF020
:10E650000009D8B42EEF73F030EF73F04EEF73F083
:10E6600007500224056E000E0320066E600017F0AE
:10E67000F6FF60001BF0F7FF000EF86E0F0EF76458
:10E6800003D00800F55007D06F00DBFFE9FF6F00F3
:10E69000DFFFEAFFEF5034EC6FF0072A0450075C0D
:10E6A000D8A055EF73F057EF73F026EF73F0120018
:10E6B000BE6ABD6ABA6ABB6ABC6A070EC66EC26829
:10E6C000BF0EC36E840EC46EC5683A01706B606B7A
:10E6D0002F0E506F070E806FEF0E406F716B816BC6
:10E6E000516B416B616B5A6B5B6B6A6B6B6B7A6BDB
:10E6F0007B6B826B426B526B180E626F726B43695D
:10E70000536963697369070E836F44695469646967
:10E7100074690F0E846F0F0EE86F250E106F160EC2
:10E720000E6F210E136F0F0E116F220E146F170E46
:10E73000E56F040EC36F130EE16F0C0EDD6F140E48
:10E74000E26F120ECA6F0D0E156F130E166F1200C8
:10E750000550D8B4AEEF73F0B0EF73F0B8EF73F0CC
:10E760000550D8A4B6EF73F0B8EF73F0BDEF73F0B7
:10E770000350D0EC6EF0FDEF73F00550D96EDA6AFD
:10E78000090ED926DE50DE10D8B4C9EF73F0CBEFF6
:10E7900073F0E4EF73F00550D96EDA6A090ED926EA
:10E7A0000550E16EE26A020EE126DE50E65CE650BC
:10E7B000800A0A6EDE50800A0A58D8B0E2EF73F081
:10E7C000E4EF73F0FDEF73F00550D96EDA6A020ED4
:10E7D000D926DF50066E0550D96EDA6ADF5006245E
:10E7E000D96EDA6A60000FF0DFFF0550D96EDA6A81
:10E7F000020ED926DE2A000EDD221200066A02BEB3
:10E8000006EF74F004EF74F00CEF74F0016C021E6C
:10E81000D8B0022A010E066E04BE13EF74F011EF99
:10E8200074F017EF74F0036C041ED8B0042A035080
:10E830000410D8B41EEF74F020EF74F044EF74F0BD
:10E84000010E056E28EF74F0D89003360436052AC1
:10E8500004AE2DEF74F02FEF74F024EF74F003503A
:10E86000015C04500258D8A038EF74F03AEF74F00D
:10E870003EEF74F00350015E0450025AD890043207
:10E880000332052E2FEF74F00650D8B44AEF74F01F
:10E890004CEF74F050EF74F0016C021ED8B0022AF5
:10E8A00001C001F002C002F0120089EC6FF0000913
:10E8B000D8B45DEF74F05FEF74F055EF74F0B40E00
:10E8C00034EC6FF0126A13EC6FF00009D8B46BEF00
:10E8D00074F06DEF74F063EF74F01250080FD96E9E
:10E8E000DA6A75EC72F0DF6E13EC6FF00009D8B4E1
:10E8F0007CEF74F07EEF74F074EF74F012500D0F33
:10E90000D96EDA6A75EC72F0DF6E12500D0FD96EA7
:10E91000DA6ADF50046E0450066E056A1250080F62
:10E92000D96EDA6ADF50076E07500526000E062200
:10E930001250020DF350A70FD96EDA6A600017F07B
:10E94000DEFF60001BF0DDFF122A040E1264ABEF45
:10E9500074F0ADEF74F063EF74F0A70E1200066A66
:10E9600004BEB7EF74F0B5EF74F0BDEF74F0036C54
:10E97000041ED8B0042A010E066E02BEC4EF74F065
:10E98000C2EF74F0CAEF74F0016C021ED8B0022A14
:10E99000010E061A086A000E076E03500410D8B460
:10E9A000D4EF74F0D6EF74F0FEEF74F0010E056E44
:10E9B000DEEF74F0D89003360436052A04AEE3EF98
:10E9C00074F0E5EF74F0DAEF74F0D890073608369B
:10E9D0000350015C04500258D8A0F1EF74F0F3EF3B
:10E9E00074F0F8EF74F00350015E0450025A07808F
:10E9F000D89004320332052EE5EF74F00650D8B4F7
:10EA000004EF75F006EF75F00AEF75F0076C081E5D
:10EA1000D8B0082A07C001F008C002F01200F30EB7
:10EA2000206EFB0E216E4EEC6FF0C90E206EFD0EB7
:10EA3000216E4EEC6FF0630E206EFD0E216E4EECDB
:10EA40006FF0A70E206EFD0E216E4EEC6FF0850E5E
:10EA5000206EFD0E216E4EEC6FF0630E206EFD0EEB
:10EA6000216E4EEC6FF0C90E206EFD0E216E4EEC45
:10EA70006FF0D40E206EFC0E216E4EEC6FF0450E42
:10EA8000206EFE0E216E4EEC6FF0EB0E206EFD0E32
:10EA9000216E4EEC6FF0D70E206EFC0E216E4EEC08
:10EAA0006FF01E0E206EFD0E216E4EEC6FF0F30E19
:10EAB000206EFB0E216E4EEC6FF0900E206EFB0E62
:10EAC000216E4EEC6FF0F30E206EFB0E216E4EECBD
:10EAD0006FF0410E206EFD0E216E4EEC6FF0FB0EBE
:10EAE000206EFC0E216E4EEC6FF0F60E206EFE0EC8
:10EAF000216E4EEC6FF0C80E206EFE0E216E4EECB5
:10EB00006FF0DF0E206EFE0E216E4EEC6FF0F30EF6
:10EB1000206EFB0E216E4EEC6FF07F0E206EFE0E0F
:10EB2000216E4EEC6FF0D40E206EFC0E216E4EEC7A
:10EB30006FF01200406E40C042F05BEC6FF0C70E09
:10EB4000026EFF0E036E080E046E09EC73F0480EA1
:10EB5000016E900E1EEC6FF0C8EC6EF0010E026EAE
:10EB6000000E3BEC70F0350E206E760E216EFF0E1F
:10EB7000226E42C023F0246ACDEC6FF02050416E2B
:10EB8000350E026E036A41C004F009EC73F034EFF5
:10EB900076F078EC6FF001C03EF002C03FF01B0E43
:10EBA0003E5CB70E3F58D8A0D8EF75F0DAEF75F09D
:10EBB00034EF76F04206026A000E016EF3EC6EF05E
:10EBC00025EF76F05BEC6FF0010E026E000E3BEC71
:10EBD00070F0370E026EFF0E036E080E046E09EC25
:10EBE00073F034EF76F0010E026E000E3BEC70F025
:10EBF000400E026EFF0E036E080E046E09EC73F0F9
:10EC000034EF76F0010E026E000E3BEC70F0520E07
:10EC1000026EFF0E036E080E046E09EC73F034EF03
:10EC200076F0010E026E000E3BEC70F0350E206E99
:10EC3000760E216EFF0E226E42C023F0246ACDECC8
:10EC40006FF02050416EC0EF75F04250000AD8B40A
:10EC5000E2EF75F0010AD8B4F3EF75F0030AD8B407
:10EC600002EF76F011EF76F04250D8A43AEF76F04A
:10EC70003CEF76F0C9EF75F0CAEC6EF01200126A44
:10EC8000000E116E0C50D96EDA6A6F007BFFF6FF32
:10EC90006F0077FFF7FFF86A0800F550250AD8A43F
:10ECA00054EF76F056EF76F0BEEF77F00C50D96E59
:10ECB000DA6ADE2A000EDD22566A000E556E55C055
:10ECC0005BF0576858680C50D96EDA6A6F0078FFAD
:10ECD00013F06F0074FF14F060004FF0F6FF600057
:10ECE00053F0F7FFF86A0800F550640AD8B47BEFD8
:10ECF00076F07DEF76F08EEF76F060004FF0F6FF65
:10ED0000600053F0F7FFF86A0800F550690AD8A4CC
:10ED10008CEF76F08EEF76F026EF77F00D50D96E0F
:10ED2000DA6A020EDF26DF5CD96EDA6A6F0078FFDE
:10ED300015F06F0078FF16F0010E13240E6E000E12
:10ED400014200F6E0C50D96EDA6A60003BF0DEFFC3
:10ED500060003FF0DDFF200E196E16BEB2EF76F0B8
:10ED6000B5EF76F0010EB6EF76F0000E106E1906D4
:10ED70001950600FD96EDA6A15C001F016C002F0A2
:10ED8000046A0A0E036EFEEC73F001C007F002C0C5
:10ED900008F0B3EC6FF00750300FDF6E15C001F0D4
:10EDA00016C002F0046A0A0E036EAFEC74F001C0E4
:10EDB00015F002C016F0114A122A15501610D8B4D8
:10EDC000E4EF76F0E6EF76F0EEEF76F01950D8A4A7
:10EDD000ECEF76F0EEEF76F0B7EF76F01950D8B4AE
:10EDE000F4EF76F0F6EF76F017EF77F01050D8B436
:10EDF000FCEF76F0FEEF76F017EF77F0190619507A
:10EE0000600FD96EDA6A2D0EDF6E114A122A17EFE3
:10EE100077F01950600FD96EDA6ADF500E6E0E501F
:10EE2000036E046A0BC005F0A8EC73F0192A200EDB
:10EE30001918D8A41EEF77F020EF77F009EF77F0DC
:10EE400011C00BF012C00CF0D9EF77F060004FF05A
:10EE5000F6FF600053F0F7FFF86A0800F550750AF6
:10EE6000D8A435EF77F037EF77F0B3EF77F00D50A8
:10EE7000D96EDA6A020EDF26DF5CD96EDA6A6F00BD
:10EE800078FF15F06F0078FF16F0010E13240E6E58
:10EE9000000E14200F6E0C50D96EDA6A60003BF041
:10EEA000DEFF60003FF0DDFFA4EF77F0200E196E6B
:10EEB00019061950600FD96EDA6A15C001F016C034
:10EEC00002F0046A0A0E036E17EC71F00150300F65
:10EED000DF6E15C001F016C002F0046A0A0E036E60
:10EEE000B5EC71F001C015F002C016F0114A122AFB
:10EEF00015501610D8B47FEF77F081EF77F099EFC7
:10EF000077F01950D8A487EF77F089EF77F058EFB2
:10EF100077F099EF77F01950600FD96EDA6ADF5009
:10EF20000E6E0E50036E046A0BC005F0A8EC73F071
:10EF3000192A200E1918D8A4A0EF77F0A2EF77F0C5
:10EF40008BEF77F020EF77F060004FF0F6FF600076
:10EF500053F0F7FFF86A0800F550750AD8B456EF79
:10EF600077F0B3EF77F00C50D96EDA6ADE2A000E34
:10EF7000DD220C6A000E0B6ED9EF77F00C50D96EC3
:10EF8000DA6A6F007BFFF6FF6F0077FFF7FFF86A22
:10EF90000800F550036E046A0BC005F0A8EC73F08E
:10EFA0000C50D96EDA6ADE2A000EDD220C6A010EE0
:10EFB0000B6E1200F9EC6EF058EC73F014EC70F07C
:10EFC000EFEC6FF0C38A3A01509BCBBAEAEF77F0CF
:10EFD000ECEF77F008EF7DF00FEC75F05BEC6FF085
:10EFE000000E026E000E3BEC70F0B50E026EFF0ECE
:10EFF000036E080E046E09EC73F0E6EC70F002C0CC
:10F00000D8F003C0D9F0C60E206EE90E216EFF0EB7
:10F01000226ED8C023F0D9C024F0CDEC6FF0205080
:10F020000001DD6F010E026E000E3BEC70F0C60EAB
:10F03000026E036ADDC004F009EC73F031EC72F08B
:10F040000001D36FDDEF7CF05BEC6FF0000E026E21
:10F05000000E3BEC70F02D0E026EFF0E036E080EDC
:10F06000046E09EC73F0010E026E000E3BEC70F0C2
:10F070009A0E026EFF0E036E080E046E09EC73F01A
:10F08000D40E206EFC0E216E4EEC6FF00001CF6BA3
:10F09000A8EF78F0510E206EFC0E216E4EEC6FF052
:10F0A000620E206EFE0E216E4EEC6FF031EC72F0AF
:10F0B0000001C56F55EC74F00001D56FD76B000EE1
:10F0C000D66FDE6B040EDE6568EF78F06AEF78F0DD
:10F0D0006CEF78F097EF78F0DE51020DD551F32404
:10F0E000D96EDA6A6F0078FF43F06F0074FF44F066
:10F0F000D6514324D66FD7514420D76F0C0E206EC3
:10F10000FF0E216EDEC022F0236ADE51020DD551C2
:10F11000F324D96EDA6A6F0078FF24F06F0074FF71
:10F1200025F04EEC6FF00001DE2B62EF78F0D65147
:10F13000D711D8A49EEF78F0A0EF78F0A8EF78F080
:10F14000010ECF6F090E206EFE0E216E4EEC6FF099
:10F150000001CF51D8B4AFEF78F0B1EF78F04AEFBB
:10F1600078F0D06B28EF79F07E0E206EFC0E216EC9
:10F170004EEC6FF0620E206EFE0E216E4EEC6FF0C4
:10F1800031EC72F00001C56F55EC74F00001D56FE1
:10F19000D76B000ED66FDE6B040EDE65D2EF78F013
:10F1A000D4EF78F0D6EF78F001EF79F0DE51020D70
:10F1B000D551F324D96EDA6A6F0078FF43F06F00FF
:10F1C00074FF44F0D6514324D66FD7514420D76FF3
:10F1D0000C0E206EFF0E216EDEC022F0236ADE517F
:10F1E000020DD551F324D96EDA6A6F0078FF24F04E
:10F1F0006F0074FF25F04EEC6FF00001DE2BCCEFBA
:10F2000078F0880ED61907E1130ED719D8A40BEFA2
:10F2100079F00DEF79F028EF79F0010ED06F270E1D
:10F22000206EFE0E216E4EEC6FF0980E206EFE0EDC
:10F23000216E4EEC6FF0010E026E000E3BEC70F092
:10F24000BE0E026EFF0E036E080E046E09EC73F024
:10F250000001D051D8B42FEF79F031EF79F0B4EF4D
:10F2600078F01EEF78F05BEC6FF0000E026E000E8F
:10F270003BEC70F05B0E026EFF0E036E080E046E28
:10F2800009EC73F0010E026E000E3BEC70F0E10E23
:10F29000026EFF0E036E080E046E09EC73F0D40EBE
:10F2A000206EFC0E216E4EEC6FF01EEF78F05BECE2
:10F2B0006FF0000E026E000E3BEC70F0D90E026E85
:10F2C000FF0E036E070E046E09EC73F0D40E206E71
:10F2D000FC0E216E4EEC6FF0BB0E206EFC0E216E0C
:10F2E0004EEC6FF031EC72F00001D46F86EF79F0E4
:10F2F000D40E206EFC0E216E4EEC6FF0AB0E206E25
:10F30000FC0E216E4EEC6FF072EF79F02F0ED4658B
:10F310008CEF79F08EEF79F078EF79F0350ED461DB
:10F3200094EF79F096EF79F078EF79F0000E026EB5
:10F33000070E3BEC70F00001D45164EC70F089ECE6
:10F340006FF00009D8B4A7EF79F0A9EF79F09FEF3B
:10F3500079F0870E34EC6FF00001DC6B000EDB6F90
:10F36000DCBFBCEF79F0DC5109E1050EDB5DD8A014
:10F37000BCEF79F0BEEF79F0C0EF79F008EF7AF0EA
:10F3800013EC6FF00009D8B4C8EF79F0CAEF79F048
:10F39000C0EF79F00001DB51BB0FD96EDA6A75EC72
:10F3A00072F0DF6E13EC6FF00009D8B4DAEF79F089
:10F3B000DCEF79F0D2EF79F00001DB51C00FD96EAC
:10F3C000DA6A75EC72F0DF6E0001DB51C00FD96EA6
:10F3D000DA6ADF50436E4350456E446ADB51BB0F1F
:10F3E000D96EDA6ADF50466E46504426000E45223A
:10F3F000DB51020DF350B10FD96EDA6A600013F1E0
:10F40000DEFF600017F1DDFFDB4BDC2BB0EF79F0A6
:10F41000D451CF0FD36F1E0E206EFF0E216ED3C0BE
:10F4200022F0236AD351020DF350B10FD96EDA6A7C
:10F430006F0078FF24F06F0074FF25F04EEC6FF042
:10F440001EEF78F05BEC6FF0000E026E000E3BECEE
:10F4500070F0A30E026EFF0E036E080E046E09EC30
:10F4600073F0D40E206EFC0E216E4EEC6FF0E6ECC5
:10F4700070F002C0D8F003C0D9F0C60E206EE90EBD
:10F48000216EFF0E226ED8C023F0D9C024F0CDEC3F
:10F490006FF020500001DD6F010E026E000E3BEC9C
:10F4A00070F0C60E026E036ADDC004F009EC73F062
:10F4B000B00E206EFE0E216ED8C022F0D9C023F00F
:10F4C0004EEC6FF01EEF78F05BEC6FF0000E026E0A
:10F4D000000E3BEC70F0910E026EFF0E036E080EF4
:10F4E000046E09EC73F0D40E206EFC0E216E4EEC0F
:10F4F0006FF0240E206EFC0E216E4EEC6FF0EEECE1
:10F5000071F00001DF6FDF517FEC71F0C60E206EED
:10F51000F50E216EFF0E226EDFC023F0246ACDECC3
:10F520006FF020500001DD6F010E026E000E3BEC0B
:10F5300070F0C60E026E036ADDC004F009EC73F0D1
:10F5400089EC6FF00009D8B4A8EF7AF0AAEF7AF04E
:10F55000A0EF7AF0C10E34EC6FF089EC6FF0000987
:10F56000D8B4B5EF7AF0B7EF7AF0ADEF7AF00001EA
:10F57000DF5134EC6FF089EC6FF00009D8B4C3EFC1
:10F580007AF0C5EF7AF0BBEF7AF0C50E34EC6FF08D
:10F5900089EC6FF00009D8B4D0EF7AF0D2EF7AF0AE
:10F5A000C8EF7AF00001DF5134EC6FF01EEF78F015
:10F5B0005BEC6FF0000E026E000E3BEC70F0AC0ED8
:10F5C000026EFF0E036E080E046E09EC73F0D40E8B
:10F5D000206EFC0E216E4EEC6FF0F60E206EFB0ED0
:10F5E000216E4EEC6FF0EEEC71F00001DF6FDF5139
:10F5F00049EC71F0C60E206EF50E216EFF0E226EE4
:10F60000DFC023F0246ACDEC6FF020500001DD6FE5
:10F61000010E026E000E3BEC70F0C60E026E036A25
:10F62000DDC004F009EC73F089EC6FF00009D8B488
:10F630001CEF7BF01EEF7BF014EF7BF0C20E34EC7E
:10F640006FF089EC6FF00009D8B429EF7BF02BEF55
:10F650007BF021EF7BF00001DF5134EC6FF089EC9F
:10F660006FF00009D8B437EF7BF039EF7BF02FEF64
:10F670007BF0C60E34EC6FF089EC6FF00009D8B463
:10F6800044EF7BF046EF7BF03CEF7BF00001DF5175
:10F6900034EC6FF01EEF78F05BEC6FF0000E026E52
:10F6A000000E3BEC70F07F0E026EFF0E036E080E34
:10F6B000046E09EC73F0D40E206EFC0E216E4EEC3D
:10F6C0006FF0240E206EFC0E216E4EEC6FF0EEEC0F
:10F6D00071F00001DF6F490E206EFB0E216E4EECC3
:10F6E0006FF0EEEC71F00001DA6FDF51DA25D16FC7
:10F6F000D26BD237DAC001F0DF51C6EC6EF0C60E25
:10F70000206EEF0E216EFF0E226EDFC023F0246A02
:10F71000DAC025F0266ACDEC6FF020500001DD6FD5
:10F72000010E026E000E3BEC70F0C60E026E036A14
:10F73000DDC004F009EC73F089EC6FF00009D8B477
:10F74000A4EF7BF0A6EF7BF09CEF7BF0C10E34ECD6
:10F750006FF089EC6FF00009D8B4B1EF7BF0B3EF34
:10F760007BF0A9EF7BF00001D15134EC6FF089EC14
:10F770006FF00009D8B4BFEF7BF0C1EF7BF0B7EFBB
:10F780007BF0C50E34EC6FF089EC6FF00009D8B453
:10F79000CCEF7BF0CEEF7BF0C4EF7BF00001DF51CC
:10F7A00034EC6FF01EEF78F05BEC6FF0000E026E41
:10F7B000000E3BEC70F0880E026EFF0E036E080E1A
:10F7C000046E09EC73F0D40E206EFC0E216E4EEC2C
:10F7D0006FF0240E206EFC0E216E4EEC6FF0EEECFE
:10F7E00071F00001DF6F490E206EFB0E216E4EECB2
:10F7F0006FF0EEEC71F00001DA6FDF51DA25D16FB6
:10F80000D26BD237DAC001F0DF51C7EC6EF0C60E12
:10F81000206EEF0E216EFF0E226EDFC023F0246AF1
:10F82000DAC025F0266ACDEC6FF020500001DD6FC4
:10F83000010E026E000E3BEC70F0C60E026E036A03
:10F84000DDC004F009EC73F089EC6FF00009D8B466
:10F850002CEF7CF02EEF7CF024EF7CF0C10E34EC2A
:10F860006FF089EC6FF00009D8B439EF7CF03BEF12
:10F870007CF031EF7CF00001DF5134EC6FF089EC6B
:10F880006FF00009D8B447EF7CF049EF7CF03FEF10
:10F890007CF0C50E34EC6FF089EC6FF00009D8B441
:10F8A00054EF7CF056EF7CF04CEF7CF00001D1512E
:10F8B00034EC6FF01EEF78F05BEC6FF0000E026E30
:10F8C000000E3BEC70F06D0E026EFF0E036E080E24
:10F8D000046E09EC73F0D40E206EFC0E216E4EEC1B
:10F8E0006FF0CCEC6EF089EC6FF00009D8B47BEFD0
:10F8F0007CF07DEF7CF073EF7CF0C10E34EC6FF0A8
:10F9000089EC6FF00009D8B488EF7CF08AEF7CF0C6
:10F9100080EF7CF0000E34EC6FF089EC6FF00009A2
:10F92000D8B495EF7CF097EF7CF08DEF7CF0C50EAE
:10F9300034EC6FF089EC6FF00009D8B4A2EF7CF0E2
:10F94000A4EF7CF09AEF7CF0000E34EC6FF01EEF29
:10F9500078F05BEC6FF0000E026E000E3BEC70F086
:10F96000B50E026EFF0E036E080E046E09EC73F006
:10F97000E6EC70F002C0D8F003C0D9F0C60E206EDD
:10F98000E90E216EFF0E226ED8C023F0D9C024F0FC
:10F99000CDEC6FF020500001DD6F010E026E000E05
:10F9A0003BEC70F0C60E026E036ADDC004F009EC99
:10F9B00073F00FEC75F01EEF78F0D351420AD8B413
:10F9C000D8EF7AF0040AD8B464EF7AF00A0AD8B40F
:10F9D0004CEF7BF01E0AD8B4D4EF7BF0010AD8B408
:10F9E0005CEF7CF0300AD8B424EF78F0070AD8B482
:10F9F00057EF79F0090AD8B4A9EF7CF01F0AD8B400
:10FA000033EF79F0040AD8B422EF7AF01EEF78F0E1
:10FA1000CBAA0DEF7DF00FEF7DF08FEF7DF00FECB7
:10FA200075F05BEC6FF0000E026E000E3BEC70F0B8
:10FA3000490E026EFF0E036E080E046E09EC73F0A1
:10FA4000E6EC70F002C0D8F003C0D9F0C60E206E0C
:10FA5000E90E216EFF0E226ED8C023F0D9C024F02B
:10FA6000CDEC6FF020500001DD6F010E026E000E34
:10FA70003BEC70F0C60E026E036ADDC004F009ECC8
:10FA800073F03D0E446EE10E436E400EE82EFED73D
:10FA9000432EFCD7442EFAD7000E026E000E3BEC2C
:10FAA00070F0D00E026EFF0E036E080E046E09ECAD
:10FAB00073F0B8EC70F0010E026E000E3BEC70F0CB
:10FAC000640E026EFF0E036E080E046E09EC73F0F6
:10FAD000060E9AEC75F0100E436E940EE82EFED7CB
:10FAE000432EFCD700D0490E016E900E1EEC6FF035
:10FAF000190E7FEC71F0C8EC6EF01B0E026E1E0E3C
:10FB0000016EF3EC6EF03901A3AF89EF7DF08BEF5E
:10FB10007DF083EF7DF0CCEC6EF083EF7DF0FEEFB7
:10FB20007FF0000000000000000000000000000066
:10FB300000000000000000000000000000000000C5
:10FB40000000000000000000000920506C65617397
:10FB50006520656E74657220746865207475726EB8
:10FB6000696E6720646966666572656E7469616C4A
:10FB70003A207370656564202B206469666665723F
:10FB8000656E7469616C203C20313237200D0A00AB
:10FB9000202076200909202876296F6C746167651A
:10FBA000202D205265616420616E64206469737049
:10FBB0006C6179206261747465727920766F6C74FF
:10FBC000616765200D0A00496E76616C6964206981
:10FBD0006E7075742E20506C65617365207265645B
:10FBE0006F206E756D65726963616C20696E7075EA
:10FBF000742E200D0A000920506C65617365206524
:10FC00006E74657220746865206261636B776172DF
:10FC1000642073706565642C2030202D20313237CC
:10FC2000200D0A000920506C6561736520656E74B3
:10FC300065722074686520666F72776172642073E4
:10FC4000706565642C2030202D20313237200D0A5C
:10FC500000506C61636520616C6C2066697665207C
:10FC600073656E736F7273206F6E206120776869A1
:10FC700074652073757266616365200A0D00506CAF
:10FC800061636520616C6C20666976652073656EC2
:10FC9000736F7273206F6E206120626C61636B20E2
:10FCA00073757266616365200A0D00496E76616C3A
:10FCB000696420656E7472792E2020456E746572B9
:10FCC0002073656E736F72206E756D6265722C2085
:10FCD000302D34200A0D00202072200909202872BE
:10FCE000296561642063616C696272617465642076
:10FCF00073656E736F7273200D0A00202042200915
:10FD00000920576865656C7320726F746174652093
:10FD100028422961636B77617264200D0A002020FC
:10FD200064200909202864296973706C6179207343
:10FD3000656E736F7220782076616C7565200D0A90
:10FD40000020204620090920576865656C732072E1
:10FD50006F74617465202846296F72776172642020
:10FD60000D0A00092A2020202020202020202020E9
:10FD70002020202020202020202020202020202083
:10FD8000202A0D0A00092A20202020202044696111
:10FD9000676E6F73746963204D656E752020202037
:10FDA0002020202A0D0A00092A20202041505343F8
:10FDB0002031323939202D20506F6C6F6C75203313
:10FDC00070692020202A0D0A00092A2A2A2A2A2AB4
:10FDD0002A2A2A2A2A2A2A2A2A2A2A2A2A2A2A2A83
:10FDE0002A2A2A2A2A2A2A2A0D0A002020632009E0
:10FDF0000920286329616C696272617465207365EA
:10FE00006E736F7273200D0A005768697465206302
:10FE1000616C6962726174696F6E20636F6D706C82
:10FE2000657465200A0D00426C61636B2063616C30
:10FE30006962726174696F6E20636F6D706C657456
:10FE400065200A0D00436F6D6D616E64204B65790E
:10FE50002009204465736372697074696F6E200DA8
:10FE60000A00507265737320616E79206B6579208A
:10FE7000746F20636F6E74696E7565200A0D0020C3
:10FE8000206D200909205265667265736820286D0F
:10FE900029656E75200D0A0043616C696272617498
:10FEA000696F6E20636F6D706C657465200A0D005C
:10FEB0004261747465727920766F6C746167652035
:10FEC0003D202575200A0D002020522009092028F8
:10FED000522969676874207475726E200D0A0020BB
:10FEE000205320090920285329746F70206D6F74E6
:10FEF0006F72200D0A0020204C20090920284C296F
:10FF0000656674207475726E200D0A0053656E73F9
:10FF10006F72202575203D202575200A0D00536540
:10FF20006E736F722025643A2025750A0043616C58
:10FF300069627261746500202020474F20202000F4
:10FF4000202053455420202000202052756E202070
:10FF50002000205245414459202000202052656154
:10FF6000642020002020646F6E6520200020205334
:10FF7000746F702020002020257520732020002021
:10FF8000204C656674202000205269676874202028
:10FF900000466F7277617264200053656E736F72F2
:10FFA0007320004261747465727920004261636B52
:10FFB0007761726400446961676E6F736500436FB7
:10FFC0006D706C65746500436F756E74696E670063
:10FFD0004175746F2043616C0053656E736F7220BE
:10FFE0000053656E736F7273002575206D56002582
:0BFFF0007520257500202575200000FD
:04FFFC0069EF6FF04A
:020000040030CA
:0A000000ECFEF7FF9FFFFFFFFFFF7C
:00000001FF
