:04000000FEEF7FF0A0
:10DDBC0012001200120012001200120012001200C7
:10DDCC0012001200B88E1200B89E1200000EE7EC82
:10DDDC006EF01200026E025061EC6FF0120001C086
:10DDEC0051F002C052F0120001C055F002C056F0C2
:10DDFC00120001C053F002C054F0120001C04BF0ED
:10DE0C0002C04CF0120001C04FF002C050F01200E2
:10DE1C0001C04DF002C04EF012000250B76E60000F
:10DE2C0007F0B6FF120029EC6FF00CEC73F020EC4D
:10DE3C006FF01200600E3901D96FDB6BDD6B070ED2
:10DE4C00DF6FDE6B12003901C06BC16BC26BC36B31
:10DE5C00C46BC56BC66BC76B12003901A3B739EF26
:10DE6C006FF03CEF6FF0010E3DEF6FF0000E120003
:10DE7C00026E60000BF0B8FF600007F0B9FFB89EAF
:10DE8C003901A39F12003901A6B54FEF6FF052EF85
:10DE9C006FF0010E53EF6FF0000E1200016E39019E
:10DEAC00A3A95BEF6FF05DEF6FF055EF6FF06000C3
:10DEBC0007F0EAFD1200016E3901A6A768EF6FF0BA
:10DECC006AEF6FF062EF6FF0600007F0D2FD1200A6
:10DEDC00220E266E000E1A6E20C01BF021C01CF004
:10DEEC00260E1D6EADEC70F01200A9EC6FF000095F
:10DEFC00D8B483EF6FF085EF6FF07BEF6FF0B70E58
:10DF0C0054EC6FF0120000EE60F0510EEE6AE80671
:10DF1C00FDE100EE57F0090EEE6AE806FDE10001A6
:10DF2C00F5EF77F06F00D8FE07F06F00DCFE08F01D
:10DF3C000850036E0750056E03C006F005C001F0D3
:10DF4C0006C002F01200016A3901A3A9B0EF6FF00C
:10DF5C00B2EF6FF0BCEF6FF03D01F2ABB8EF6FF0CA
:10DF6C00BAEF6FF0BCEF6FF0010E016E01501200B2
:10DF7C00016A3901A6A7C5EF6FF0C7EF6FF0D1EFBB
:10DF8C006FF03D01DAABCDEF6FF0CFEF6FF0D1EF6B
:10DF9C006FF0010E016E0150120008BED8EF6FF049
:10DFAC00DAEF6FF0E0EF6FF007C007F008C008F091
:10DFBC00ECEF6FF007C009F008C00AF0091E0A1E4A
:10DFCC00094A0A2A09C007F00AC008F01200230EF9
:10DFDC00296E20C02AF02D6A000E2C6E346A000EB9
:10DFEC00336E2A0E1A6E21C01BF022C01CF0290EB3
:10DFFC001D6EADEC70F01AC027F01BC028F020503D
:10E00C002C24D96EDA6ADF6A27C020F028C021F0F0
:10E01C0012003D01D46BD66BD86BB00EDA6F800E4C
:10E02C00DB6FDC6BE10EDD6F040EDE6FDF6BE06B24
:10E03C00E16BE26BC60E016EDD0E026E09EC6FF049
:10E04C00C80E016EDD0E026E0EEC6FF0C40E016E8A
:10E05C00DD0E026E04EC6FF05E6A12003D01EC6B9B
:10E06C00ED6BEE6BEF6BF06BF16BB00EF26F800E35
:10E07C00F36FF46B670EF56FF66BF76BF86BF96B70
:10E08C00FA6BBE0E016EDD0E026EFAEC6EF0C00E77
:10E09C00016EDD0E026EFFEC6EF0BC0E016EDD0E3D
:10E0AC00026EF5EC6EF05F6A1200036EA9EC6FF075
:10E0BC000009D8B464EF70F066EF70F05CEF70F0AC
:10E0CC00B90E54EC6FF0A9EC6FF00009D8B471EFF5
:10E0DC0070F073EF70F069EF70F0035054EC6FF068
:10E0EC00A9EC6FF00009D8B47EEF70F080EF70F0FF
:10E0FC0076EF70F0025054EC6FF01200026EA9EC47
:10E10C006FF00009D8B48DEF70F08FEF70F085EFE1
:10E11C0070F0B80E54EC6FF0A9EC6FF00009D8B4A5
:10E12C009AEF70F09CEF70F092EF70F0010E54ECDF
:10E13C006FF0A9EC6FF00009D8B4A7EF70F0A9EF5D
:10E14C0070F09FEF70F0025054EC6FF012001BC097
:10E15C001EF01CC01FF0586A000E576EC2EF70F014
:10E16C001AC00BF01E0E0C6E1DC00DF05AEC76F0A2
:10E17C000B5057260C50582260007BF0F6FF6000C5
:10E18C007FF0F7FFF86A0800F5500009D8A4D1EF2A
:10E19C0070F0D3EF70F0B6EF70F057C01AF058C0B3
:10E1AC001BF01200A9EC6FF00009D8B4E0EF70F08E
:10E1BC00E2EF70F0D8EF70F0BA0E54EC6FF033EC75
:10E1CC006FF00009D8B4EDEF70F0EFEF70F0E5EF01
:10E1DC0070F0FBEF70F033EC6FF00009D8B4F9EF8E
:10E1EC0070F0FBEF70F0F1EF70F029EC72F0630A55
:10E1FC00D8A403EF71F005EF71F0F1EF70F012009D
:10E20C00A9EC6FF00009D8B40EEF71F010EF71F0BB
:10E21C0006EF71F0B10E54EC6FF033EC6FF00009B7
:10E22C00D8B41BEF71F01DEF71F013EF71F029EC06
:10E23C0072F0066E33EC6FF00009D8B428EF71F071
:10E24C002AEF71F020EF71F029EC72F0076E075095
:10E25C00056E046A06500424026E000E0520036E3F
:10E26C00120003500410D8B43EEF71F040EF71F07F
:10E27C0064EF71F0010E056E48EF71F0D890033623
:10E28C000436052A04AE4DEF71F04FEF71F044EFF8
:10E29C0071F00350015C04500258D8A058EF71F093
:10E2AC005AEF71F05EEF71F00350015E0450025AA8
:10E2BC00D89004320332052E4FEF71F001C001F0FB
:10E2CC0002C002F01200066A000E056E0350041024
:10E2DC00D8B473EF71F075EF71F09DEF71F0010E22
:10E2EC00076E7DEF71F0D89003360436072A04AE22
:10E2FC0082EF71F084EF71F079EF71F0D890053600
:10E30C0006360350015C04500258D8A090EF71F00F
:10E31C0092EF71F097EF71F00350015E0450025AC6
:10E32C000580D89004320332072E84EF71F005C0BB
:10E33C0001F006C002F012002868276ADAEF71F0CB
:10E34C00E5EC71F0286E0D0E2818D8A4B0EF71F022
:10E35C00B2EF71F0B4EF71F0DAEF71F02F0E2864B8
:10E36C00BAEF71F0BCEF71F0C4EF71F0390E2864A4
:10E37C00C2EF71F0C4EF71F0D4EF71F0D60E206ED5
:10E38C00FC0E216E6EEC6FF0C90E206EFB0E216E32
:10E39C006EEC6FF0276A2868DAEF71F027500A0DDF
:10E3AC00F3502824D00F276E0D0E2818D8A4E1EFB7
:10E3BC0071F0E3EF71F0A6EF71F0275012000268D4
:10E3CC000EEF72F049EC6FF00009D8B4F0EF71F079
:10E3DC00F2EF71F00EEF72F073EC72F0026EBEECB5
:10E3EC006FF00009D8B4FDEF71F0FFEF71F00EEF94
:10E3FC0072F0025061EC6FF00D0E0218D8A409EF08
:10E40C0072F00BEF72F00EEF72F00A0E61EC6FF01F
:10E41C002F0E026414EF72F016EF72F01EEF72F012
:10E42C007A0E02641CEF72F01EEF72F027EF72F09E
:10E43C000D0E0218D8A425EF72F027EF72F0E8EF5A
:10E44C0071F0025012003901A3A72FEF72F031EFD7
:10E45C0072F029EF72F05F6A3D01F9A738EF72F0A4
:10E46C003AEF72F047EF72F05F8202D847EF72F02A
:10E47C000500FA6E5550FD6E5650FE6EFF6AFA504E
:10E48C0012003D01F9A34DEF72F04FEF72F05CEF0B
:10E49C0072F05F8402D85CEF72F00500FA6E535094
:10E4AC00FD6E5450FE6EFF6AFA5012005F50D8B4E5
:10E4BC0062EF72F064EF72F070EF72F002D870EFEE
:10E4CC0072F00500FA6E5150FD6E5250FE6EFF6AEE
:10E4DC00FA5012003D01E85112003901A6A579EF5E
:10E4EC0072F07BEF72F073EF72F05E6A3D01E1A7A0
:10E4FC0082EF72F084EF72F091EF72F05E8202D8CC
:10E50C0091EF72F00500FA6E4F50FD6E5050FE6E9A
:10E51C00FF6AFA5012003D01E1A397EF72F099EFF8
:10E52C0072F0A6EF72F05E8402D8A6EF72F00500CE
:10E53C00FA6E4D50FD6E4E50FE6EFF6AFA50120090
:10E54C005E50D8B4ACEF72F0AEEF72F0BAEF72F07E
:10E55C0002D8BAEF72F00500FA6E4B50FD6E4C50BB
:10E56C00FE6EFF6AFA5012003D01D0511200076A8C
:10E57C00A9EC6FF00009D8B4C6EF72F0C8EF72F0D6
:10E58C00BEEF72F0B80E54EC6FF0A9EC6FF000090E
:10E59C00D8B4D3EF72F0D5EF72F0CBEF72F0045029
:10E5AC0054EC6FF002EF73F0A9EC6FF00009D8B4E3
:10E5BC00E2EF72F0E4EF72F002EF73F00750022416
:10E5CC00056E000E0320066E600017F0F6FF60006B
:10E5DC001BF0F7FF000EF86E0F0EF76403D0080067
:10E5EC00F55007D06F00DBFFE9FF6F00DFFFEAFF9C
:10E5FC00EF5054EC6FF0072A0450075CD8A009EFD9
:10E60C0073F00BEF73F0DAEF72F01200BE6ABD6AB2
:10E61C00BA6ABB6ABC6A070EC66EC268BF0EC36E0E
:10E62C00840EC46EC5683A01706B606B2F0E506F10
:10E63C00070E806FEF0E406F716B816B516B416BEE
:10E64C00616B5A6B5B6B6A6B6B6B7A6B7B6B826B04
:10E65C00426B526B180E626F726B4369536963693C
:10E66C007369070E836F44695469646974690F0E8A
:10E67C00846F0F0EE86F250E106F160E0E6F210EA5
:10E68C00136F0F0E116F220E146F170EE56F040E21
:10E69C00C36F130EE16F0C0EDD6F140EE26F120ED2
:10E6AC00CA6F0D0E156F130E166F12000550D8B4ED
:10E6BC0062EF73F064EF73F06CEF73F00550D8A455
:10E6CC006AEF73F06CEF73F071EF73F00350F0ECD2
:10E6DC006EF0B1EF73F00550D96EDA6A090ED926D7
:10E6EC00DE50DE10D8B47DEF73F07FEF73F098EF4F
:10E6FC0073F00550D96EDA6A090ED9260550E16E11
:10E70C00E26A020EE126DE50E65CE650800A0A6EF2
:10E71C00DE50800A0A58D8B096EF73F098EF73F079
:10E72C00B1EF73F00550D96EDA6A020ED926DF50BC
:10E73C00066E0550D96EDA6ADF500624D96EDA6A95
:10E74C0060000FF0DFFF0550D96EDA6A020ED92691
:10E75C00DE2A000EDD221200066A02BEBAEF73F04A
:10E76C00B8EF73F0C0EF73F0016C021ED8B0022A40
:10E77C00010E066E04BEC7EF73F0C5EF73F0CBEF5E
:10E78C0073F0036C041ED8B0042A03500410D8B4E0
:10E79C00D2EF73F0D4EF73F0F8EF73F0010E056E57
:10E7AC00DCEF73F0D89003360436052A04AEE1EFA3
:10E7BC0073F0E3EF73F0D8EF73F00350015C045087
:10E7CC000258D8A0ECEF73F0EEEF73F0F2EF73F0A9
:10E7DC000350015E0450025AD89004320332052EC5
:10E7EC00E3EF73F00650D8B4FEEF73F000EF74F063
:10E7FC0004EF74F0016C021ED8B0022A01C001F0C3
:10E80C0002C002F01200A9EC6FF00009D8B411EFAD
:10E81C0074F013EF74F009EF74F0B40E54EC6FF065
:10E82C00126A33EC6FF00009D8B41FEF74F021EFCB
:10E83C0074F017EF74F01250080FD96EDA6A29ECE5
:10E84C0072F0DF6E33EC6FF00009D8B430EF74F077
:10E85C0032EF74F028EF74F012500D0FD96EDA6AA3
:10E86C0029EC72F0DF6E12500D0FD96EDA6ADF50A0
:10E87C00046E0450066E056A1250080FD96EDA6ADF
:10E88C00DF50076E07500526000E06221250020DAF
:10E89C00F350A70FD96EDA6A600017F0DEFF600044
:10E8AC001BF0DDFF122A040E12645FEF74F061EFAF
:10E8BC0074F017EF74F0A70E1200066A04BE6BEF2B
:10E8CC0074F069EF74F071EF74F0036C041ED8B03F
:10E8DC00042A010E066E02BE78EF74F076EF74F027
:10E8EC007EEF74F0016C021ED8B0022A010E061ADB
:10E8FC00086A000E076E03500410D8B488EF74F049
:10E90C008AEF74F0B2EF74F0010E056E92EF74F0B2
:10E91C00D89003360436052A04AE97EF74F099EFBD
:10E92C0074F08EEF74F0D890073608360350015C03
:10E93C0004500258D8A0A5EF74F0A7EF74F0ACEF18
:10E94C0074F00350015E0450025A0780D8900432D0
:10E95C000332052E99EF74F00650D8B4B8EF74F06A
:10E96C00BAEF74F0BEEF74F0076C081ED8B0082A2A
:10E97C0007C001F008C002F01200A9EC6FF000090A
:10E98C00D8B4CBEF74F0CDEF74F0C3EF74F0870E06
:10E99C0054EC6FF0A9EC6FF00009D8B4D8EF74F018
:10E9AC00DAEF74F0D0EF74F0870E54EC6FF0126A5B
:10E9BC0033EC6FF00009D8B4E6EF74F0E8EF74F0C4
:10E9CC00DEEF74F01250080FD96EDA6A29EC72F08F
:10E9DC00DF6E33EC6FF00009D8B4F7EF74F0F9EF99
:10E9EC0074F0EFEF74F012500D0FD96EDA6A29EC57
:10E9FC0072F0DF6E12500D0FD96EDA6ADF50046EB2
:10EA0C000450066E056A1250080FD96EDA6ADF5090
:10EA1C00076E07500526000E06221250020DF35009
:10EA2C009D0FD96EDA6A600017F0DEFF60001BF0F4
:10EA3C00DDFF122A040E126426EF75F028EF75F034
:10EA4C00DEEF74F09D0E1200F50E206EFB0E216EA3
:10EA5C006EEC6FF0CB0E206EFD0E216E6EEC6FF037
:10EA6C00650E206EFD0E216E6EEC6FF0A90E206E01
:10EA7C00FD0E216E6EEC6FF0870E206EFD0E216E7A
:10EA8C006EEC6FF0650E206EFD0E216E6EEC6FF06D
:10EA9C00CB0E206EFD0E216E6EEC6FF0D60E206E3E
:10EAAC00FC0E216E6EEC6FF0470E206EFE0E216E8A
:10EABC006EEC6FF0ED0E206EFD0E216E6EEC6FF0B5
:10EACC00D90E206EFC0E216E6EEC6FF0200E206EB7
:10EADC00FD0E216E6EEC6FF0F50E206EFB0E216EAE
:10EAEC006EEC6FF0920E206EFB0E216E6EEC6FF0E2
:10EAFC00F50E206EFB0E216E6EEC6FF0430E206E49
:10EB0C00FD0E216E6EEC6FF0FD0E206EFC0E216E74
:10EB1C006EEC6FF0F80E206EFE0E216E6EEC6FF048
:10EB2C00CA0E206EFE0E216E6EEC6FF0E10E206EA2
:10EB3C00FE0E216E6EEC6FF0F50E206EFB0E216E4C
:10EB4C006EEC6FF0810E206EFE0E216E6EEC6FF08F
:10EB5C00D60E206EFC0E216E6EEC6FF01200406E25
:10EB6C0040C042F07BEC6FF0BF0E026EFF0E036EE6
:10EB7C00080E046EBDEC72F0480E016E900E3EEC69
:10EB8C006FF0E8EC6EF0010E026E000E5BEC70F0B4
:10EB9C00350E206E6E0E216EFF0E226E42C023F0DB
:10EBAC00246AEDEC6FF02050416E350E026E036A54
:10EBBC0041C004F0BDEC72F04FEF76F098EC6FF0C2
:10EBCC0001C03EF002C03FF01B0E3E5CB70E3F583A
:10EBDC00D8A0F3EF75F0F5EF75F04FEF76F0420635
:10EBEC00026A000E016E13EC6FF040EF76F07BECD6
:10EBFC006FF0010E026E000E5BEC70F02F0E026EC9
:10EC0C00FF0E036E080E046EBDEC72F04FEF76F043
:10EC1C00010E026E000E5BEC70F0380E026EFF0EF1
:10EC2C00036E080E046EBDEC72F04FEF76F0010E21
:10EC3C00026E000E5BEC70F04A0E026EFF0E036E5D
:10EC4C00080E046EBDEC72F04FEF76F0010E026E02
:10EC5C00000E5BEC70F0350E206E6E0E216EFF0E0A
:10EC6C00226E42C023F0246AEDEC6FF02050416E0E
:10EC7C00DBEF75F04250000AD8B4FDEF75F0010AD5
:10EC8C00D8B40EEF76F0030AD8B41DEF76F02CEF63
:10EC9C0076F04250D8A455EF76F057EF76F0E4EFCB
:10ECAC0075F0EAEC6EF01200126A000E116E0C5048
:10ECBC00D96EDA6A6F007BFFF6FF6F0077FFF7FF04
:10ECCC00F86A0800F550250AD8A46FEF76F071EFBA
:10ECDC0076F0D9EF77F00C50D96EDA6ADE2A000E96
:10ECEC00DD225A6A000E596E59C05DF05B685C6893
:10ECFC000C50D96EDA6A6F0078FF13F06F0074FF56
:10ED0C0014F060004FF0F6FF600053F0F7FFF86A64
:10ED1C000800F550640AD8B496EF76F098EF76F0C8
:10ED2C00A9EF76F060004FF0F6FF600053F0F7FFAC
:10ED3C00F86A0800F550690AD8A4A7EF76F0A9EF95
:10ED4C0076F041EF77F00D50D96EDA6A020EDF26BD
:10ED5C00DF5CD96EDA6A6F0078FF15F06F0078FF10
:10ED6C0016F0010E13240E6E000E14200F6E0C50B4
:10ED7C00D96EDA6A60003BF0DEFF60003FF0DDFF29
:10ED8C00200E196E16BECDEF76F0D0EF76F0010E98
:10ED9C00D1EF76F0000E106E19061950600FD96E77
:10EDAC00DA6A15C001F016C002F0046A0A0E036E8E
:10EDBC00B2EC73F001C007F002C008F0D3EC6FF0B6
:10EDCC000750300FDF6E15C001F016C002F0046A58
:10EDDC000A0E036E63EC74F001C015F002C016F05D
:10EDEC00114A122A15501610D8B4FFEF76F001EF25
:10EDFC0077F009EF77F01950D8A407EF77F009EF07
:10EE0C0077F0D2EF76F01950D8B40FEF77F011EF0E
:10EE1C0077F032EF77F01050D8B417EF77F019EF96
:10EE2C0077F032EF77F019061950600FD96EDA6A65
:10EE3C002D0EDF6E114A122A32EF77F01950600F47
:10EE4C00D96EDA6ADF500E6E0E50036E046A0BC078
:10EE5C0005F05CEC73F0192A200E1918D8A439EFC0
:10EE6C0077F03BEF77F024EF77F011C00BF012C086
:10EE7C000CF0F4EF77F060004FF0F6FF600053F009
:10EE8C00F7FFF86A0800F550750AD8A450EF77F030
:10EE9C0052EF77F0CEEF77F00D50D96EDA6A020EA2
:10EEAC00DF26DF5CD96EDA6A6F0078FF15F06F0031
:10EEBC0078FF16F0010E13240E6E000E14200F6E48
:10EECC000C50D96EDA6A60003BF0DEFF60003FF058
:10EEDC00DDFFBFEF77F0200E196E19061950600F89
:10EEEC00D96EDA6A15C001F016C002F0046A0A0E77
:10EEFC00036E37EC71F00150300FDF6E15C001F06E
:10EF0C0016C002F0046A0A0E036E69EC71F001C0BF
:10EF1C0015F002C016F0114A122A15501610D8B46A
:10EF2C009AEF77F09CEF77F0B4EF77F01950D8A404
:10EF3C00A2EF77F0A4EF77F073EF77F0B4EF77F000
:10EF4C001950600FD96EDA6ADF500E6E0E50036ED8
:10EF5C00046A0BC005F05CEC73F0192A200E19182A
:10EF6C00D8A4BBEF77F0BDEF77F0A6EF77F03BEFCF
:10EF7C0077F060004FF0F6FF600053F0F7FFF86A8F
:10EF8C000800F550750AD8B471EF77F0CEEF77F032
:10EF9C000C50D96EDA6ADE2A000EDD220C6A000EE5
:10EFAC000B6EF4EF77F00C50D96EDA6A6F007BFFC2
:10EFBC00F6FF6F0077FFF7FFF86A0800F550036E55
:10EFCC00046A0BC005F05CEC73F00C50D96EDA6A75
:10EFDC00DE2A000EDD220C6A010E0B6E120019ECFB
:10EFEC006FF00CEC73F034EC70F00FEC70F0C38A33
:10EFFC003A01509BCBBA05EF78F007EF78F02EEF83
:10F00C007CF02AEC75F07BEC6FF0000E026E000EBB
:10F01C005BEC70F0AD0E026EFF0E036E080E046E0C
:10F02C00BDEC72F006EC71F002C0D4F003C0D5F068
:10F03C00C80E206EEA0E216EFF0E226ED4C023F095
:10F04C00D5C024F0EDEC6FF020500001DD6F010E07
:10F05C00026E000E5BEC70F0C80E026E036ADDC02F
:10F06C0004F0BDEC72F0E5EC71F00001D16F03EF30
:10F07C007CF07BEC6FF0000E026E000E5BEC70F01F
:10F08C00D10E026EFF0E036E080E046EBDEC72F014
:10F09C00010E026E000E5BEC70F0920E026EFF0E13
:10F0AC00036E080E046EBDEC72F0D60E206EFC0ED4
:10F0BC00216E6EEC6FF00001C66BC3EF78F0530E4F
:10F0CC00206EFC0E216E6EEC6FF0640E206EFE0E48
:10F0DC00216E6EEC6FF0E5EC71F00001C56F09EC80
:10F0EC0074F00001DA6FD96B000ED86FDC6B040E74
:10F0FC00DC6583EF78F085EF78F087EF78F0B2EF8E
:10F10C0078F0DC51020DDA51F324D96EDA6A6F0013
:10F11C0078FF43F06F0074FF44F0D8514324D86F4C
:10F12C00D9514420D96F0E0E206EFF0E216EDCC01B
:10F13C0022F0236ADC51020DDA51F324D96EDA6A1B
:10F14C006F0078FF24F06F0074FF25F06EEC6FF009
:10F15C000001DC2B7DEF78F0D851D911D8A4B9EF90
:10F16C0078F0BBEF78F0C3EF78F0010EC66F0B0EA2
:10F17C00206EFE0E216E6EEC6FF00001C651D8B4FD
:10F18C00CAEF78F0CCEF78F065EF78F0C76B43EF0F
:10F19C0079F0800E206EFC0E216E6EEC6FF0640E1A
:10F1AC00206EFE0E216E6EEC6FF0E5EC71F000013E
:10F1BC00C56F09EC74F00001DA6FD96B000ED86FD3
:10F1CC00DC6B040EDC65EDEF78F0EFEF78F0F1EF2F
:10F1DC0078F01CEF79F0DC51020DDA51F324D96E82
:10F1EC00DA6A6F0078FF43F06F0074FF44F0D85177
:10F1FC004324D86FD9514420D96F0E0E206EFF0EC8
:10F20C00216EDCC022F0236ADC51020DDA51F324AA
:10F21C00D96EDA6A6F0078FF24F06F0074FF25F066
:10F22C006EEC6FF00001DC2BE7EF78F0880ED8194C
:10F23C0007E1130ED919D8A426EF79F028EF79F04D
:10F24C0043EF79F0010EC76F290E206EFE0E216E72
:10F25C006EEC6FF09A0E206EFE0E216E6EEC6FF05F
:10F26C00010E026E000E5BEC70F0B60E026EFF0E1D
:10F27C00036E080E046EBDEC72F00001C751D8B4D9
:10F28C004AEF79F04CEF79F0CFEF78F039EF78F076
:10F29C007BEC6FF0000E026E000E5BEC70F0530E08
:10F2AC00026EFF0E036E080E046EBDEC72F0010EC2
:10F2BC00026E000E5BEC70F0E20E026EFF0E036E3F
:10F2CC00080E046EBDEC72F0D60E206EFC0E216E94
:10F2DC006EEC6FF039EF78F07BEC6FF0000E026E95
:10F2EC00000E5BEC70F0DA0E026EFF0E036E070E72
:10F2FC00046EBDEC72F0D60E206EFC0E216E6EEC20
:10F30C006FF0BD0E206EFC0E216E6EEC6FF0E5EC16
:10F31C0071F00001D36FA1EF79F0D60E206EFC0EC8
:10F32C00216E6EEC6FF0AD0E206EFC0E216E6EEC4D
:10F33C006FF08DEF79F02F0ED365A7EF79F0A9EF71
:10F34C0079F093EF79F0350ED361AFEF79F0B1EF3F
:10F35C0079F093EF79F0000E026E070E5BEC70F013
:10F36C000001D35184EC70F0A9EC6FF00009D8B413
:10F37C00C2EF79F0C4EF79F0BAEF79F0870E54EC64
:10F38C006FF00001D76B000ED66FD7BFD7EF79F0B7
:10F39C00D75109E1050ED65DD8A0D7EF79F0D9EF9A
:10F3AC0079F0DBEF79F023EF7AF033EC6FF00009B2
:10F3BC00D8B4E3EF79F0E5EF79F0DBEF79F0000109
:10F3CC00D651BB0FD96EDA6A29EC72F0DF6E33ECD2
:10F3DC006FF00009D8B4F5EF79F0F7EF79F0EDEFB5
:10F3EC0079F00001D651C00FD96EDA6A29EC72F0AF
:10F3FC00DF6E0001D651C00FD96EDA6ADF50436E52
:10F40C004350456E446AD651BB0FD96EDA6ADF5051
:10F41C00466E46504426000E4522D651020DF3503E
:10F42C00B10FD96EDA6A600013F1DEFF600017F1DC
:10F43C00DDFFD64BD72BCBEF79F0D351CF0FD16F5C
:10F44C00200E206EFF0E216ED1C022F0236AD15106
:10F45C00020DF350B10FD96EDA6A6F0078FF24F009
:10F46C006F0074FF25F06EEC6FF039EF78F07BECE9
:10F47C006FF0000E026E000E5BEC70F09B0E026ED5
:10F48C00FF0E036E080E046EBDEC72F0D60E206EED
:10F49C00FC0E216E6EEC6FF006EC71F002C0D4F035
:10F4AC0003C0D5F0C80E206EEA0E216EFF0E226E40
:10F4BC00D4C023F0D5C024F0EDEC6FF02050000147
:10F4CC00DD6F010E026E000E5BEC70F0C80E026E6A
:10F4DC00036ADDC004F0BDEC72F0B20E206EFE0EBD
:10F4EC00216ED4C022F0D5C023F06EEC6FF039EF52
:10F4FC0078F07BEC6FF0000E026E000E5BEC70F09F
:10F50C00890E026EFF0E036E080E046EBDEC72F0D7
:10F51C00D60E206EFC0E216E6EEC6FF0260E206E59
:10F52C00FC0E216E6EEC6FF0A2EC71F00001DB6F43
:10F53C00DB51E7EC6EF0C80E206EF60E216EFF0E5E
:10F54C00226EDBC023F0246AEDEC6FF0205000013A
:10F55C00DD6F010E026E000E5BEC70F0C80E026ED9
:10F56C00036ADDC004F0BDEC72F0A9EC6FF0000989
:10F57C00D8B4C3EF7AF0C5EF7AF0BBEF7AF0C10ED6
:10F58C0054EC6FF0A9EC6FF00009D8B4D0EF7AF01E
:10F59C00D2EF7AF0C8EF7AF00001DB5154EC6FF047
:10F5AC00A9EC6FF00009D8B4DEEF7AF0E0EF7AF056
:10F5BC00D6EF7AF0C50E54EC6FF0A9EC6FF00009A1
:10F5CC00D8B4EBEF7AF0EDEF7AF0E3EF7AF00001DC
:10F5DC00DB5154EC6FF039EF78F07BEC6FF0000EF0
:10F5EC00026E000E5BEC70F0A40E026EFF0E036E4A
:10F5FC00080E046EBDEC72F0D60E206EFC0E216E61
:10F60C006EEC6FF0F80E206EFB0E216E6EEC6FF050
:10F61C00A2EC71F00001DB6FDB51E1EC6EF0C80E77
:10F62C00206EF60E216EFF0E226EDBC023F0246AD4
:10F63C00EDEC6FF020500001DD6F010E026E000E3C
:10F64C005BEC70F032EF78F07BEC6FF0000E026E3A
:10F65C00000E5BEC70F0770E026EFF0E036E080E60
:10F66C00046EBDEC72F0D60E206EFC0E216E6EECAC
:10F67C006FF0260E206EFC0E216E6EEC6FF0A2EC7D
:10F68C0071F00001DB6F4B0E206EFB0E216E6EECE9
:10F69C006FF0A2EC71F00001D26FD2C001F0DB511F
:10F6AC00E5EC6EF0C80E206EF00E216EFF0E226E91
:10F6BC00DBC023F0246AD2C025F0266AEDEC6FF093
:10F6CC0020500001DD6F010E026E000E5BEC70F03D
:10F6DC0032EF78F07BEC6FF0000E026E000E5BECFC
:10F6EC0070F0800E026EFF0E036E080E046EBDEC01
:10F6FC0072F0D60E206EFC0E216E6EEC6FF0260EA4
:10F70C00206EFC0E216E6EEC6FF0A2EC71F000011D
:10F71C00DB6F4B0E206EFB0E216E6EEC6FF0A2ECCD
:10F72C0071F00001D26FD2C001F0DB51E6EC6EF04B
:10F73C00C80E206EF00E216EFF0E226EDBC023F081
:10F74C00246AD2C025F0266AEDEC6FF0205000013F
:10F75C00DD6F010E026E000E5BEC70F032EF78F094
:10F76C007BEC6FF0000E026E000E5BEC70F0650E21
:10F77C00026EFF0E036E080E046EBDEC72F0D60E18
:10F78C00206EFC0E216E6EEC6FF0ECEC6EF039EF2F
:10F79C0078F07BEC6FF0000E026E000E5BEC70F0FC
:10F7AC00AD0E026EFF0E036E080E046EBDEC72F011
:10F7BC0006EC71F002C0D4F003C0D5F0C80E206E78
:10F7CC00EA0E216EFF0E226ED4C023F0D5C024F0B9
:10F7DC00EDEC6FF020500001DD6F010E026E000E9B
:10F7EC005BEC70F0C80E026E036ADDC004F0BDEC79
:10F7FC0072F02AEC75F039EF78F0D151420AD8B496
:10F80C00F3EF7AF0040AD8B47FEF7AF00A0AD8B48E
:10F81C002AEF7BF01E0AD8B470EF7BF0010AD8B443
:10F82C00B6EF7BF0300AD8B43FEF78F0070AD8B4C3
:10F83C0072EF79F0090AD8B4CFEF7BF01F0AD8B475
:10F84C004EEF79F0040AD8B43DEF7AF039EF78F046
:10F85C00CBAA33EF7CF035EF7CF090EF7DF02AEC07
:10F86C0075F07BEC6FF0000E026E000E5BEC70F02E
:10F87C00410E026EFF0E036E080E046EBDEC72F0AC
:10F88C0006EC71F002C0D4F003C0D5F0C80E206EA7
:10F89C00EA0E216EFF0E226ED4C023F0D5C024F0E8
:10F8AC00EDEC6FF020500001DD6F010E026E000ECA
:10F8BC005BEC70F0C80E026E036ADDC004F0BDECA8
:10F8CC0072F03D0E446EE10E436E400EE82EFED7F4
:10F8DC00432EFCD7442EFAD7000E026E000E5BECC2
:10F8EC0070F0C80E026EFF0E036E080E046EBDECB7
:10F8FC0072F0D8EC70F0010E026E000E5BEC70F042
:10F90C005C0E026EFF0E036E080E046EBDEC72F000
:10F91C00060EB5EC75F0100E436E940EE82EFED765
:10F92C00432EFCD700D0A9EC6FF00009D8B4A1EF9E
:10F93C007CF0A3EF7CF099EF7CF0BB0E54EC6FF0F5
:10F94C00A9EC6FF00009D8B4AEEF7CF0B0EF7CF00E
:10F95C00A6EF7CF0320E54EC6FF0A9EC6FF00009BE
:10F96C00D8B4BBEF7CF0BDEF7CF0B3EF7CF0010EB4
:10F97C0054EC6FF0A9EC6FF00009D8B4C8EF7CF030
:10F98C00CAEF7CF0C0EF7CF0140E54EC6FF0A9ECD5
:10F99C006FF00009D8B4D5EF7CF0D7EF7CF0CDEF49
:10F9AC007CF0030E54EC6FF0A9EC6FF00009D8B4A6
:10F9BC00E2EF7CF0E4EF7CF0DAEF7CF0020E54EC3A
:10F9CC006FF0C3EC74F00001DA6FDA51D96EDA6AB9
:10F9DC00060ED9266F0078FF43F06F0074FF44F0D9
:10F9EC00DA51D96EDA6A040ED9266F0078FF45F029
:10F9FC006F0074FF46F0DA51D96EDA6A020ED9261E
:10FA0C006F0078FF47F06F0074FF48F045504724B3
:10FA1C00496E465048204A6E43504924D86F445092
:10FA2C004A20D96FC80E206EF60E216EFF0E226E84
:10FA3C00D8C023F0D9C024F0EDEC6FF020500001B9
:10FA4C00DD6F010E026E000E5BEC70F0C80E026EE4
:10FA5C00036ADDC004F0BDEC72F0D00E0001D85D7D
:10FA6C00070ED959D8B03DEF7DF03FEF7DF069EF2F
:10FA7C007DF0DA51D96EDA6A080ED926DE50DE1026
:10FA8C00D8B44BEF7DF04DEF7DF069EF7DF0A9EC34
:10FA9C006FF00009D8B455EF7DF057EF7DF04DEFC6
:10FAAC007DF0C10E54EC6FF0A9EC6FF00009D8B4E6
:10FABC0062EF7DF064EF7DF05AEF7DF0500E54EC68
:10FACC006FF0E7EF7CF0C50ED85D090ED959D8A0C0
:10FADC0072EF7DF074EF7DF0E7EF7CF0A9EC6FF046
:10FAEC000009D8B47CEF7DF07EEF7DF074EF7DF0F3
:10FAFC00C10E54EC6FF0A9EC6FF00009D8B489EF8B
:10FB0C007DF08BEF7DF081EF7DF0320E54EC6FF0D9
:10FB1C00E7EF7CF0FEEF7FF000000000000000003B
:10FB2C0000000000000000000000000000000000C9
:10FB3C0000000000000000000000000000000009B0
:10FB4C0020506C6561736520656E746572207468F5
:10FB5C0065207475726E696E67206469666665727D
:10FB6C00656E7469616C3A207370656564202B2036
:10FB7C00646966666572656E7469616C203C2031DF
:10FB8C003237200D0A0020207620090920287629FA
:10FB9C006F6C74616765202D205265616420616E05
:10FBAC006420646973706C6179206261747465722D
:10FBBC007920766F6C74616765200D0A00496E764A
:10FBCC00616C696420696E7075742E20506C65616F
:10FBDC007365207265646F206E756D657269636103
:10FBEC006C20696E7075742E200D0A000920506C03
:10FBFC006561736520656E7465722074686520623A
:10FC0C0061636B776172642073706565642C20305E
:10FC1C00202D20313237200D0A000920506C6561EF
:10FC2C00736520656E7465722074686520666F72EA
:10FC3C00776172642073706565642C2030202D20F0
:10FC4C00313237200D0A00506C61636520616C6C99
:10FC5C0020666976652073656E736F7273206F6EA4
:10FC6C0020612077686974652073757266616365BD
:10FC7C00200A0D00506C61636520616C6C20666914
:10FC8C0076652073656E736F7273206F6E206120C2
:10FC9C00626C61636B2073757266616365200A0D1B
:10FCAC0000496E76616C696420656E7472792E20E1
:10FCBC0020456E7465722073656E736F72206E755D
:10FCCC006D6265722C20302D34200A0D00202072BC
:10FCDC00200909202872296561642063616C6962BE
:10FCEC0072617465642073656E736F7273200D0A94
:10FCFC000020204220090920576865656C7320722A
:10FD0C006F746174652028422961636B776172643A
:10FD1C00200D0A0020206420090920286429697319
:10FD2C00706C61792073656E736F722078207661C8
:10FD3C006C7565200D0A00202046200909205768A3
:10FD4C0065656C7320726F74617465202846296F29
:10FD5C007277617264200D0A00092A20202020206D
:10FD6C002020202020202020202020202020202087
:10FD7C00202020202020202A0D0A00092A202020C3
:10FD8C00202020446961676E6F73746963204D6530
:10FD9C006E75202020202020202A0D0A00092A2000
:10FDAC002020415053432031323939202D20506FBF
:10FDBC006C6F6C75203370692020202A0D0A0009A5
:10FDCC002A2A2A2A2A2A2A2A2A2A2A2A2A2A2A2A87
:10FDDC002A2A2A2A2A2A2A2A2A2A2A2A2A2A0D0AB4
:10FDEC000020206320090920286329616C69627254
:10FDFC006174652073656E736F7273200D0A005702
:10FE0C00686974652063616C6962726174696F6E94
:10FE1C0020636F6D706C657465200A0D00426C6117
:10FE2C00636B2063616C6962726174696F6E2063CD
:10FE3C006F6D706C657465200A0D00436F6D6D619C
:10FE4C006E64204B65792009204465736372697078
:10FE5C0074696F6E200D0A00507265737320616EA9
:10FE6C0079206B657920746F20636F6E74696E7581
:10FE7C0065200A0D0020206D20090920526566724C
:10FE8C0065736820286D29656E75200D0A00436125
:10FE9C006C6962726174696F6E20636F6D706C65F2
:10FEAC007465200A0D004261747465727920766F56
:10FEBC006C74616765203D202575200A0D0020209B
:10FECC0052200909202852296967687420747572B8
:10FEDC006E200D0A00202053200909202853297474
:10FEEC006F70206D6F746F72200D0A0020204C20F3
:10FEFC00090920284C29656674207475726E200DD2
:10FF0C000A0053656E736F72202575203D20257590
:10FF1C00200A0D0053656E736F722025643A2025FC
:10FF2C00750A00202020474F202020002020534518
:10FF3C005420202000202052756E202020002052BA
:10FF4C004541445920200020205265616420200046
:10FF5C002020646F6E65202000202053746F702069
:10FF6C00200020202575207320200020204C656661
:10FF7C0074202000205269676874202000466F723C
:10FF8C0077617264200053656E736F727320004248
:10FF9C0061747465727920004261636B776172647D
:10FFAC0000446961676E6F736500436F6D706C65BB
:10FFBC00746500436F756E74696E67004175746F7C
:10FFCC002043616C0043616C69627261740053651B
:10FFDC006E736F72200053656E736F7273002575AC
:10FFEC00206D5600257520257500202575200000F4
:04FFFC0089EF6FF02A
:020000040030CA
:0A000000ECFEF7FF9FFFFFFFFFFF7C
:00000001FF
